{
  "contractName": "BlockRegistry",
  "abi": [
    {
      "constant": true,
      "inputs": [],
      "name": "maxVoteTime",
      "outputs": [
        {
          "name": "",
          "type": "uint256"
        }
      ],
      "payable": false,
      "stateMutability": "view",
      "type": "function",
      "signature": "0x06937af5"
    },
    {
      "constant": true,
      "inputs": [],
      "name": "sblockTimeStep",
      "outputs": [
        {
          "name": "",
          "type": "uint256"
        }
      ],
      "payable": false,
      "stateMutability": "view",
      "type": "function",
      "signature": "0x17ca3256"
    },
    {
      "constant": true,
      "inputs": [
        {
          "name": "",
          "type": "uint256"
        }
      ],
      "name": "validators",
      "outputs": [
        {
          "name": "",
          "type": "address"
        }
      ],
      "payable": false,
      "stateMutability": "view",
      "type": "function",
      "signature": "0x35aa2e44"
    },
    {
      "constant": true,
      "inputs": [
        {
          "name": "",
          "type": "uint256"
        }
      ],
      "name": "managers",
      "outputs": [
        {
          "name": "",
          "type": "address"
        }
      ],
      "payable": false,
      "stateMutability": "view",
      "type": "function",
      "signature": "0x3d39c260"
    },
    {
      "constant": true,
      "inputs": [],
      "name": "articleCount",
      "outputs": [
        {
          "name": "",
          "type": "uint256"
        }
      ],
      "payable": false,
      "stateMutability": "view",
      "type": "function",
      "signature": "0x414e28b0"
    },
    {
      "constant": true,
      "inputs": [],
      "name": "vote1Threshold",
      "outputs": [
        {
          "name": "",
          "type": "uint256"
        }
      ],
      "payable": false,
      "stateMutability": "view",
      "type": "function",
      "signature": "0x417d63e9"
    },
    {
      "constant": true,
      "inputs": [],
      "name": "roundVote2Count",
      "outputs": [
        {
          "name": "",
          "type": "uint256"
        }
      ],
      "payable": false,
      "stateMutability": "view",
      "type": "function",
      "signature": "0x7376faf2"
    },
    {
      "constant": true,
      "inputs": [],
      "name": "vote2Threshold",
      "outputs": [
        {
          "name": "",
          "type": "uint256"
        }
      ],
      "payable": false,
      "stateMutability": "view",
      "type": "function",
      "signature": "0x82eea47a"
    },
    {
      "constant": true,
      "inputs": [],
      "name": "atV1",
      "outputs": [
        {
          "name": "",
          "type": "bool"
        }
      ],
      "payable": false,
      "stateMutability": "view",
      "type": "function",
      "signature": "0x9bb71caa"
    },
    {
      "constant": true,
      "inputs": [],
      "name": "v1EndTime",
      "outputs": [
        {
          "name": "",
          "type": "uint256"
        }
      ],
      "payable": false,
      "stateMutability": "view",
      "type": "function",
      "signature": "0xa3629b04"
    },
    {
      "constant": true,
      "inputs": [],
      "name": "opRound",
      "outputs": [
        {
          "name": "",
          "type": "uint256"
        }
      ],
      "payable": false,
      "stateMutability": "view",
      "type": "function",
      "signature": "0xb9fedac7"
    },
    {
      "constant": true,
      "inputs": [],
      "name": "memberContractAddr",
      "outputs": [
        {
          "name": "",
          "type": "address"
        }
      ],
      "payable": false,
      "stateMutability": "view",
      "type": "function",
      "signature": "0xc170f356"
    },
    {
      "constant": true,
      "inputs": [],
      "name": "roundVote1Count",
      "outputs": [
        {
          "name": "",
          "type": "uint256"
        }
      ],
      "payable": false,
      "stateMutability": "view",
      "type": "function",
      "signature": "0xd64d8c02"
    },
    {
      "constant": true,
      "inputs": [
        {
          "name": "",
          "type": "uint256"
        }
      ],
      "name": "blockHistory",
      "outputs": [
        {
          "name": "validator",
          "type": "address"
        },
        {
          "name": "blockHeight",
          "type": "uint256"
        },
        {
          "name": "merkleRoot",
          "type": "bytes32"
        },
        {
          "name": "ipfsAddr",
          "type": "bytes32"
        },
        {
          "name": "timestamp",
          "type": "uint256"
        },
        {
          "name": "uniqArticleCount",
          "type": "uint256"
        },
        {
          "name": "vote1Count",
          "type": "uint256"
        },
        {
          "name": "vote2Count",
          "type": "uint256"
        },
        {
          "name": "opRoundId",
          "type": "bytes32"
        }
      ],
      "payable": false,
      "stateMutability": "view",
      "type": "function",
      "signature": "0xde250ace"
    },
    {
      "constant": true,
      "inputs": [],
      "name": "nowSblockNo",
      "outputs": [
        {
          "name": "",
          "type": "uint256"
        }
      ],
      "payable": false,
      "stateMutability": "view",
      "type": "function",
      "signature": "0xdeefebc1"
    },
    {
      "constant": true,
      "inputs": [],
      "name": "v2EndTime",
      "outputs": [
        {
          "name": "",
          "type": "uint256"
        }
      ],
      "payable": false,
      "stateMutability": "view",
      "type": "function",
      "signature": "0xfd0492b1"
    },
    {
      "inputs": [
        {
          "name": "_memberContractAddr",
          "type": "address"
        }
      ],
      "payable": false,
      "stateMutability": "nonpayable",
      "type": "constructor",
      "signature": "constructor"
    },
    {
      "constant": false,
      "inputs": [
        {
          "name": "_seconds",
          "type": "uint256"
        }
      ],
      "name": "updateMaxVoteTime",
      "outputs": [],
      "payable": false,
      "stateMutability": "nonpayable",
      "type": "function",
      "signature": "0x9786007a"
    },
    {
      "constant": false,
      "inputs": [
        {
          "name": "_x",
          "type": "uint256"
        },
        {
          "name": "_y",
          "type": "uint256"
        }
      ],
      "name": "setThreshold",
      "outputs": [],
      "payable": false,
      "stateMutability": "nonpayable",
      "type": "function",
      "signature": "0xb9c36209"
    },
    {
      "constant": false,
      "inputs": [
        {
          "name": "_merkleRoot",
          "type": "bytes32"
        },
        {
          "name": "_ipfsAddr",
          "type": "bytes32"
        },
        {
          "name": "_uniqArticleCount",
          "type": "uint256"
        },
        {
          "name": "_vote1Count",
          "type": "uint256"
        },
        {
          "name": "_vote2Count",
          "type": "uint256"
        },
        {
          "name": "_minSuccessRate",
          "type": "uint8"
        },
        {
          "name": "_successRateDB",
          "type": "bytes32"
        },
        {
          "name": "_finalListIpfs",
          "type": "bytes32"
        }
      ],
      "name": "submitMerkleRoot",
      "outputs": [
        {
          "name": "",
          "type": "bool"
        }
      ],
      "payable": false,
      "stateMutability": "nonpayable",
      "type": "function",
      "signature": "0x1a479b97"
    },
    {
      "constant": true,
      "inputs": [
        {
          "name": "v1Count",
          "type": "uint256"
        }
      ],
      "name": "isEnoughV1",
      "outputs": [
        {
          "name": "",
          "type": "bool"
        }
      ],
      "payable": false,
      "stateMutability": "view",
      "type": "function",
      "signature": "0x0137aca4"
    },
    {
      "constant": true,
      "inputs": [
        {
          "name": "v2Count",
          "type": "uint256"
        }
      ],
      "name": "isEnoughV2",
      "outputs": [
        {
          "name": "",
          "type": "bool"
        }
      ],
      "payable": false,
      "stateMutability": "view",
      "type": "function",
      "signature": "0x6cb0999b"
    },
    {
      "constant": true,
      "inputs": [
        {
          "name": "_mr",
          "type": "bytes32"
        },
        {
          "name": "_bhash",
          "type": "bytes32"
        }
      ],
      "name": "calcLotteryWinNumber",
      "outputs": [
        {
          "name": "",
          "type": "bytes32"
        }
      ],
      "payable": false,
      "stateMutability": "pure",
      "type": "function",
      "signature": "0x513536c1"
    },
    {
      "constant": true,
      "inputs": [
        {
          "name": "_ticket",
          "type": "bytes32"
        },
        {
          "name": "_digit",
          "type": "uint8"
        }
      ],
      "name": "_getBytes32HexNthDigit",
      "outputs": [
        {
          "name": "",
          "type": "bytes1"
        }
      ],
      "payable": false,
      "stateMutability": "pure",
      "type": "function",
      "signature": "0xd17eaa47"
    },
    {
      "constant": true,
      "inputs": [
        {
          "name": "_winHex",
          "type": "bytes32"
        },
        {
          "name": "_ticket",
          "type": "bytes32"
        }
      ],
      "name": "lotteryWins",
      "outputs": [
        {
          "name": "",
          "type": "bool"
        }
      ],
      "payable": false,
      "stateMutability": "pure",
      "type": "function",
      "signature": "0x802ddfd2"
    },
    {
      "constant": true,
      "inputs": [
        {
          "name": "_winHex",
          "type": "bytes32"
        },
        {
          "name": "_ticket",
          "type": "bytes32"
        }
      ],
      "name": "lotteryWins8",
      "outputs": [
        {
          "name": "",
          "type": "bool"
        }
      ],
      "payable": false,
      "stateMutability": "pure",
      "type": "function",
      "signature": "0x21bc7c66"
    },
    {
      "constant": true,
      "inputs": [
        {
          "name": "_opRound",
          "type": "uint256"
        },
        {
          "name": "_ticket",
          "type": "bytes32"
        }
      ],
      "name": "isWinningTicket",
      "outputs": [
        {
          "name": "",
          "type": "bool"
        },
        {
          "name": "",
          "type": "uint8"
        }
      ],
      "payable": false,
      "stateMutability": "view",
      "type": "function",
      "signature": "0x53311f95"
    },
    {
      "constant": true,
      "inputs": [
        {
          "name": "proof",
          "type": "bytes32[]"
        },
        {
          "name": "isLeft",
          "type": "bool[]"
        },
        {
          "name": "txHash",
          "type": "bytes32"
        },
        {
          "name": "_sblockNo",
          "type": "uint256"
        }
      ],
      "name": "txExist",
      "outputs": [
        {
          "name": "",
          "type": "bool"
        }
      ],
      "payable": false,
      "stateMutability": "view",
      "type": "function",
      "signature": "0x316f0d84"
    },
    {
      "constant": true,
      "inputs": [
        {
          "name": "proof1",
          "type": "bytes32[]"
        },
        {
          "name": "isLeft1",
          "type": "bool[]"
        },
        {
          "name": "txHash1",
          "type": "bytes32"
        },
        {
          "name": "sblockNo1",
          "type": "uint256"
        },
        {
          "name": "proof2",
          "type": "bytes32[]"
        },
        {
          "name": "isLeft2",
          "type": "bool[]"
        },
        {
          "name": "txHash2",
          "type": "bytes32"
        },
        {
          "name": "sblockNo2",
          "type": "uint256"
        }
      ],
      "name": "claimReward",
      "outputs": [
        {
          "name": "",
          "type": "bool"
        }
      ],
      "payable": false,
      "stateMutability": "view",
      "type": "function",
      "signature": "0x09c7a12c"
    },
    {
      "constant": true,
      "inputs": [
        {
          "name": "proof",
          "type": "bytes32[]"
        },
        {
          "name": "isLeft",
          "type": "bool[]"
        },
        {
          "name": "targetLeaf",
          "type": "bytes32"
        },
        {
          "name": "_merkleRoot",
          "type": "bytes32"
        }
      ],
      "name": "merkleTreeValidator",
      "outputs": [
        {
          "name": "",
          "type": "bool"
        }
      ],
      "payable": false,
      "stateMutability": "pure",
      "type": "function",
      "signature": "0xb8f69e37"
    },
    {
      "constant": true,
      "inputs": [],
      "name": "getBlockNo",
      "outputs": [
        {
          "name": "",
          "type": "uint256"
        }
      ],
      "payable": false,
      "stateMutability": "view",
      "type": "function",
      "signature": "0xfba0e4bb"
    },
    {
      "constant": true,
      "inputs": [
        {
          "name": "_sblockNo",
          "type": "uint256"
        }
      ],
      "name": "getBlockInfo",
      "outputs": [
        {
          "name": "",
          "type": "uint256"
        },
        {
          "name": "",
          "type": "bytes32"
        },
        {
          "name": "",
          "type": "bytes32"
        }
      ],
      "payable": false,
      "stateMutability": "view",
      "type": "function",
      "signature": "0xbb141cf4"
    },
    {
      "constant": true,
      "inputs": [
        {
          "name": "_idx",
          "type": "uint256"
        }
      ],
      "name": "queryValidator",
      "outputs": [
        {
          "name": "",
          "type": "address"
        }
      ],
      "payable": false,
      "stateMutability": "view",
      "type": "function",
      "signature": "0x810e0b20"
    },
    {
      "constant": true,
      "inputs": [
        {
          "name": "_addr",
          "type": "address"
        }
      ],
      "name": "isValidator",
      "outputs": [
        {
          "name": "",
          "type": "bool"
        }
      ],
      "payable": false,
      "stateMutability": "view",
      "type": "function",
      "signature": "0xfacd743b"
    },
    {
      "constant": true,
      "inputs": [],
      "name": "queryManagers",
      "outputs": [
        {
          "name": "",
          "type": "address[4]"
        }
      ],
      "payable": false,
      "stateMutability": "view",
      "type": "function",
      "signature": "0xca48c69d"
    },
    {
      "constant": true,
      "inputs": [],
      "name": "queryOpRound",
      "outputs": [
        {
          "name": "",
          "type": "uint256"
        }
      ],
      "payable": false,
      "stateMutability": "view",
      "type": "function",
      "signature": "0x8ccbaca4"
    },
    {
      "constant": true,
      "inputs": [
        {
          "name": "_opRound",
          "type": "uint256"
        }
      ],
      "name": "queryOpRoundId",
      "outputs": [
        {
          "name": "",
          "type": "bytes32"
        }
      ],
      "payable": false,
      "stateMutability": "view",
      "type": "function",
      "signature": "0xd9eb08f6"
    },
    {
      "constant": true,
      "inputs": [
        {
          "name": "_opRound",
          "type": "uint256"
        }
      ],
      "name": "queryOpRoundLottery",
      "outputs": [
        {
          "name": "",
          "type": "uint256"
        },
        {
          "name": "",
          "type": "uint256"
        },
        {
          "name": "",
          "type": "bytes32"
        }
      ],
      "payable": false,
      "stateMutability": "view",
      "type": "function",
      "signature": "0x7c14de6c"
    },
    {
      "constant": true,
      "inputs": [
        {
          "name": "_opRound",
          "type": "uint256"
        }
      ],
      "name": "queryOpRoundData",
      "outputs": [
        {
          "name": "",
          "type": "uint256"
        },
        {
          "name": "",
          "type": "bytes32"
        },
        {
          "name": "",
          "type": "uint256"
        },
        {
          "name": "",
          "type": "uint256"
        },
        {
          "name": "",
          "type": "bytes32"
        },
        {
          "name": "",
          "type": "bytes32"
        }
      ],
      "payable": false,
      "stateMutability": "view",
      "type": "function",
      "signature": "0xd53065ae"
    },
    {
      "constant": true,
      "inputs": [],
      "name": "queryVoteThresholds",
      "outputs": [
        {
          "name": "",
          "type": "uint256"
        },
        {
          "name": "",
          "type": "uint256"
        },
        {
          "name": "",
          "type": "uint256"
        }
      ],
      "payable": false,
      "stateMutability": "view",
      "type": "function",
      "signature": "0x86e18f82"
    },
    {
      "constant": false,
      "inputs": [
        {
          "name": "_newValidator",
          "type": "address"
        },
        {
          "name": "_idx",
          "type": "uint256"
        }
      ],
      "name": "setValidator",
      "outputs": [
        {
          "name": "",
          "type": "bool"
        }
      ],
      "payable": false,
      "stateMutability": "nonpayable",
      "type": "function",
      "signature": "0xabb9406b"
    },
    {
      "constant": false,
      "inputs": [
        {
          "name": "_newManager",
          "type": "address"
        }
      ],
      "name": "setManager",
      "outputs": [
        {
          "name": "",
          "type": "bool"
        }
      ],
      "payable": false,
      "stateMutability": "nonpayable",
      "type": "function",
      "signature": "0xd0ebdbe7"
    }
  ],
  "bytecode": "0x60806040526107086016556028601b556028601c55612a306020553480156200002757600080fd5b50604051602080620056a7833981018060405260208110156200004957600080fd5b810190808051906020019092919050505080601460006101000a81548173ffffffffffffffffffffffffffffffffffffffff021916908373ffffffffffffffffffffffffffffffffffffffff16021790555060806040519081016040528073b440ea2780614b3c6a00e512f432785e7dfafa3e73ffffffffffffffffffffffffffffffffffffffff1673ffffffffffffffffffffffffffffffffffffffff168152602001734ad56641c569c91c64c28a904cda50ae5326da4173ffffffffffffffffffffffffffffffffffffffff1673ffffffffffffffffffffffffffffffffffffffff16815260200173af7400787c54422be8b44154b1273661f1259ccd73ffffffffffffffffffffffffffffffffffffffff1673ffffffffffffffffffffffffffffffffffffffff168152602001600073ffffffffffffffffffffffffffffffffffffffff1673ffffffffffffffffffffffffffffffffffffffff168152506000906004620001bc92919062000667565b506102006040519081016040528073b440ea2780614b3c6a00e512f432785e7dfafa3e73ffffffffffffffffffffffffffffffffffffffff1673ffffffffffffffffffffffffffffffffffffffff168152602001734ad56641c569c91c64c28a904cda50ae5326da4173ffffffffffffffffffffffffffffffffffffffff1673ffffffffffffffffffffffffffffffffffffffff16815260200173af7400787c54422be8b44154b1273661f1259ccd73ffffffffffffffffffffffffffffffffffffffff1673ffffffffffffffffffffffffffffffffffffffff168152602001600073ffffffffffffffffffffffffffffffffffffffff1673ffffffffffffffffffffffffffffffffffffffff168152602001600073ffffffffffffffffffffffffffffffffffffffff1673ffffffffffffffffffffffffffffffffffffffff168152602001600073ffffffffffffffffffffffffffffffffffffffff1673ffffffffffffffffffffffffffffffffffffffff168152602001600073ffffffffffffffffffffffffffffffffffffffff1673ffffffffffffffffffffffffffffffffffffffff168152602001600073ffffffffffffffffffffffffffffffffffffffff1673ffffffffffffffffffffffffffffffffffffffff168152602001600073ffffffffffffffffffffffffffffffffffffffff1673ffffffffffffffffffffffffffffffffffffffff168152602001600073ffffffffffffffffffffffffffffffffffffffff1673ffffffffffffffffffffffffffffffffffffffff168152602001600073ffffffffffffffffffffffffffffffffffffffff1673ffffffffffffffffffffffffffffffffffffffff168152602001600073ffffffffffffffffffffffffffffffffffffffff1673ffffffffffffffffffffffffffffffffffffffff168152602001600073ffffffffffffffffffffffffffffffffffffffff1673ffffffffffffffffffffffffffffffffffffffff168152602001600073ffffffffffffffffffffffffffffffffffffffff1673ffffffffffffffffffffffffffffffffffffffff168152602001600073ffffffffffffffffffffffffffffffffffffffff1673ffffffffffffffffffffffffffffffffffffffff168152602001600073ffffffffffffffffffffffffffffffffffffffff1673ffffffffffffffffffffffffffffffffffffffff16815250600490601062000543929190620006e9565b50610120604051908101604052803373ffffffffffffffffffffffffffffffffffffffff168152602001438152602001600060010281526020016000600102815260200142815260200160008152602001600081526020016000815260200160006001028152506021600080815260200190815260200160002060008201518160000160006101000a81548173ffffffffffffffffffffffffffffffffffffffff021916908373ffffffffffffffffffffffffffffffffffffffff1602179055506020820151816001015560408201518160020155606082015181600301556080820151816004015560a0820151816005015560c0820151816006015560e082015181600701556101008201518160080155905050600160158190555050620007b1565b8260048101928215620006d6579160200282015b82811115620006d55782518260006101000a81548173ffffffffffffffffffffffffffffffffffffffff021916908373ffffffffffffffffffffffffffffffffffffffff160217905550916020019190600101906200067b565b5b509050620006e591906200076b565b5090565b826010810192821562000758579160200282015b82811115620007575782518260006101000a81548173ffffffffffffffffffffffffffffffffffffffff021916908373ffffffffffffffffffffffffffffffffffffffff16021790555091602001919060010190620006fd565b5b5090506200076791906200076b565b5090565b620007ae91905b80821115620007aa57600081816101000a81549073ffffffffffffffffffffffffffffffffffffffff02191690555060010162000772565b5090565b90565b614ee680620007c16000396000f3fe608060405234801561001057600080fd5b5060043610610270576000357c0100000000000000000000000000000000000000000000000000000000900480638ccbaca411610163578063ca48c69d116100e0578063d9eb08f6116100a4578063d9eb08f614610f97578063de250ace14610fd9578063deefebc11461107f578063facd743b1461109d578063fba0e4bb146110f9578063fd0492b11461111757610270565b8063ca48c69d14610ddf578063d0ebdbe714610e25578063d17eaa4714610e81578063d53065ae14610f14578063d64d8c0214610f7957610270565b8063b8f69e3711610127578063b8f69e3714610b77578063b9c3620914610cef578063b9fedac714610d27578063bb141cf414610d45578063c170f35614610d9557610270565b80638ccbaca414610a855780639786007a14610aa35780639bb71caa14610ad1578063a3629b0414610af3578063abb9406b14610b1157610270565b8063417d63e9116101f15780637c14de6c116101b55780637c14de6c1461092d578063802ddfd21461097d578063810e0b20146109cd57806382eea47a14610a3b57806386e18f8214610a5957610270565b8063417d63e914610802578063513536c11461082057806353311f951461086c5780636cb0999b146108c95780637376faf21461090f57610270565b806321bc7c661161023857806321bc7c6614610540578063316f0d841461059057806335aa2e44146107085780633d39c26014610776578063414e28b0146107e457610270565b80630137aca41461027557806306937af5146102bb57806309c7a12c146102d957806317ca3256146104925780631a479b97146104b0575b600080fd5b6102a16004803603602081101561028b57600080fd5b8101908080359060200190929190505050611135565b604051808215151515815260200191505060405180910390f35b6102c361123a565b6040518082815260200191505060405180910390f35b61047860048036036101008110156102f057600080fd5b810190808035906020019064010000000081111561030d57600080fd5b82018360208201111561031f57600080fd5b8035906020019184602083028401116401000000008311171561034157600080fd5b90919293919293908035906020019064010000000081111561036257600080fd5b82018360208201111561037457600080fd5b8035906020019184602083028401116401000000008311171561039657600080fd5b90919293919293908035906020019092919080359060200190929190803590602001906401000000008111156103cb57600080fd5b8201836020820111156103dd57600080fd5b803590602001918460208302840111640100000000831117156103ff57600080fd5b90919293919293908035906020019064010000000081111561042057600080fd5b82018360208201111561043257600080fd5b8035906020019184602083028401116401000000008311171561045457600080fd5b90919293919293908035906020019092919080359060200190929190505050611240565b604051808215151515815260200191505060405180910390f35b61049a6113a1565b6040518082815260200191505060405180910390f35b61052660048036036101008110156104c757600080fd5b810190808035906020019092919080359060200190929190803590602001909291908035906020019092919080359060200190929190803560ff16906020019092919080359060200190929190803590602001909291905050506113a7565b604051808215151515815260200191505060405180910390f35b6105766004803603604081101561055657600080fd5b810190808035906020019092919080359060200190929190505050612597565b604051808215151515815260200191505060405180910390f35b6106ee600480360360808110156105a657600080fd5b81019080803590602001906401000000008111156105c357600080fd5b8201836020820111156105d557600080fd5b803590602001918460208302840111640100000000831117156105f757600080fd5b919080806020026020016040519081016040528093929190818152602001838360200280828437600081840152601f19601f8201169050808301925050505050505091929192908035906020019064010000000081111561065757600080fd5b82018360208201111561066957600080fd5b8035906020019184602083028401116401000000008311171561068b57600080fd5b919080806020026020016040519081016040528093929190818152602001838360200280828437600081840152601f19601f82011690508083019250505050505050919291929080359060200190929190803590602001909291905050506126d6565b604051808215151515815260200191505060405180910390f35b6107346004803603602081101561071e57600080fd5b810190808035906020019092919050505061273d565b604051808273ffffffffffffffffffffffffffffffffffffffff1673ffffffffffffffffffffffffffffffffffffffff16815260200191505060405180910390f35b6107a26004803603602081101561078c57600080fd5b8101908080359060200190929190505050612772565b604051808273ffffffffffffffffffffffffffffffffffffffff1673ffffffffffffffffffffffffffffffffffffffff16815260200191505060405180910390f35b6107ec6127a7565b6040518082815260200191505060405180910390f35b61080a6127ad565b6040518082815260200191505060405180910390f35b6108566004803603604081101561083657600080fd5b8101908080359060200190929190803590602001909291905050506127b3565b6040518082815260200191505060405180910390f35b6108a26004803603604081101561088257600080fd5b8101908080359060200190929190803590602001909291905050506127ec565b60405180831515151581526020018260ff1660ff1681526020019250505060405180910390f35b6108f5600480360360208110156108df57600080fd5b810190808035906020019092919050505061287e565b604051808215151515815260200191505060405180910390f35b610917612984565b6040518082815260200191505060405180910390f35b6109596004803603602081101561094357600080fd5b810190808035906020019092919050505061298a565b60405180848152602001838152602001828152602001935050505060405180910390f35b6109b36004803603604081101561099357600080fd5b8101908080359060200190929190803590602001909291905050506129e4565b604051808215151515815260200191505060405180910390f35b6109f9600480360360208110156109e357600080fd5b8101908080359060200190929190505050612cac565b604051808273ffffffffffffffffffffffffffffffffffffffff1673ffffffffffffffffffffffffffffffffffffffff16815260200191505060405180910390f35b610a43612d01565b6040518082815260200191505060405180910390f35b610a61612d07565b60405180848152602001838152602001828152602001935050505060405180910390f35b610a8d612d20565b6040518082815260200191505060405180910390f35b610acf60048036036020811015610ab957600080fd5b8101908080359060200190929190505050612d2a565b005b610ad9613400565b604051808215151515815260200191505060405180910390f35b610afb613413565b6040518082815260200191505060405180910390f35b610b5d60048036036040811015610b2757600080fd5b81019080803573ffffffffffffffffffffffffffffffffffffffff16906020019092919080359060200190929190505050613419565b604051808215151515815260200191505060405180910390f35b610cd560048036036080811015610b8d57600080fd5b8101908080359060200190640100000000811115610baa57600080fd5b820183602082011115610bbc57600080fd5b80359060200191846020830284011164010000000083111715610bde57600080fd5b919080806020026020016040519081016040528093929190818152602001838360200280828437600081840152601f19601f82011690508083019250505050505050919291929080359060200190640100000000811115610c3e57600080fd5b820183602082011115610c5057600080fd5b80359060200191846020830284011164010000000083111715610c7257600080fd5b919080806020026020016040519081016040528093929190818152602001838360200280828437600081840152601f19601f82011690508083019250505050505050919291929080359060200190929190803590602001909291905050506136a6565b604051808215151515815260200191505060405180910390f35b610d2560048036036040811015610d0557600080fd5b8101908080359060200190929190803590602001909291905050506137ca565b005b610d2f613ec5565b6040518082815260200191505060405180910390f35b610d7160048036036020811015610d5b57600080fd5b8101908080359060200190929190505050613ecb565b60405180848152602001838152602001828152602001935050505060405180910390f35b610d9d613f22565b604051808273ffffffffffffffffffffffffffffffffffffffff1673ffffffffffffffffffffffffffffffffffffffff16815260200191505060405180910390f35b610de7613f48565b6040518082600460200280838360005b83811015610e12578082015181840152602081019050610df7565b5050505090500191505060405180910390f35b610e6760048036036020811015610e3b57600080fd5b81019080803573ffffffffffffffffffffffffffffffffffffffff169060200190929190505050613fc9565b604051808215151515815260200191505060405180910390f35b610eba60048036036040811015610e9757600080fd5b8101908080359060200190929190803560ff1690602001909291905050506141fe565b60405180827effffffffffffffffffffffffffffffffffffffffffffffffffffffffffffff19167effffffffffffffffffffffffffffffffffffffffffffffffffffffffffffff1916815260200191505060405180910390f35b610f4060048036036020811015610f2a57600080fd5b810190808035906020019092919050505061437b565b60405180878152602001868152602001858152602001848152602001838152602001828152602001965050505050505060405180910390f35b610f81614439565b6040518082815260200191505060405180910390f35b610fc360048036036020811015610fad57600080fd5b810190808035906020019092919050505061443f565b6040518082815260200191505060405180910390f35b61100560048036036020811015610fef57600080fd5b8101908080359060200190929190505050614489565b604051808a73ffffffffffffffffffffffffffffffffffffffff1673ffffffffffffffffffffffffffffffffffffffff168152602001898152602001888152602001878152602001868152602001858152602001848152602001838152602001828152602001995050505050505050505060405180910390f35b6110876144f7565b6040518082815260200191505060405180910390f35b6110df600480360360208110156110b357600080fd5b81019080803573ffffffffffffffffffffffffffffffffffffffff1690602001909291905050506144fd565b604051808215151515815260200191505060405180910390f35b611101614bac565b6040518082815260200191505060405180910390f35b61111f614bb6565b6040518082815260200191505060405180910390f35b600080601460009054906101000a900473ffffffffffffffffffffffffffffffffffffffff1673ffffffffffffffffffffffffffffffffffffffff166322faa41f6040518163ffffffff167c010000000000000000000000000000000000000000000000000000000002815260040160206040518083038186803b1580156111bc57600080fd5b505afa1580156111d0573d6000803e3d6000fd5b505050506040513d60208110156111e657600080fd5b810190808051906020019092919050505090506003811015151561120957600080fd5b6000818460640281151561121957fe5b049050601b548110151561123257600192505050611235565b50505b919050565b60205481565b6000601554881180156112575750600c6015540188105b151561126257600080fd5b6112f08d8d80806020026020016040519081016040528093929190818152602001838360200280828437600081840152601f19601f820116905080830192505050505050508c8c80806020026020016040519081016040528093929190818152602001838360200280828437600081840152601f19601f820116905080830192505050505050508b8b6126d6565b80156113865750611385878780806020026020016040519081016040528093929190818152602001838360200280828437600081840152601f19601f82011690508083019250505050505050868680806020026020016040519081016040528093929190818152602001838360200280828437600081840152601f19601f8201169050808301925050505050505085856126d6565b5b151561139157600080fd5b9c9b505050505050505050505050565b60165481565b60008073ffffffffffffffffffffffffffffffffffffffff163373ffffffffffffffffffffffffffffffffffffffff16141515156113e457600080fd5b600460006010811015156113f457fe5b0160009054906101000a900473ffffffffffffffffffffffffffffffffffffffff1673ffffffffffffffffffffffffffffffffffffffff163373ffffffffffffffffffffffffffffffffffffffff1614806114ab57506004600160108110151561145a57fe5b0160009054906101000a900473ffffffffffffffffffffffffffffffffffffffff1673ffffffffffffffffffffffffffffffffffffffff163373ffffffffffffffffffffffffffffffffffffffff16145b806115125750600460026010811015156114c157fe5b0160009054906101000a900473ffffffffffffffffffffffffffffffffffffffff1673ffffffffffffffffffffffffffffffffffffffff163373ffffffffffffffffffffffffffffffffffffffff16145b8061157957506004600360108110151561152857fe5b0160009054906101000a900473ffffffffffffffffffffffffffffffffffffffff1673ffffffffffffffffffffffffffffffffffffffff163373ffffffffffffffffffffffffffffffffffffffff16145b806115df575060048060108110151561158e57fe5b0160009054906101000a900473ffffffffffffffffffffffffffffffffffffffff1673ffffffffffffffffffffffffffffffffffffffff163373ffffffffffffffffffffffffffffffffffffffff16145b806116465750600460056010811015156115f557fe5b0160009054906101000a900473ffffffffffffffffffffffffffffffffffffffff1673ffffffffffffffffffffffffffffffffffffffff163373ffffffffffffffffffffffffffffffffffffffff16145b806116ad57506004600660108110151561165c57fe5b0160009054906101000a900473ffffffffffffffffffffffffffffffffffffffff1673ffffffffffffffffffffffffffffffffffffffff163373ffffffffffffffffffffffffffffffffffffffff16145b806117145750600460076010811015156116c357fe5b0160009054906101000a900473ffffffffffffffffffffffffffffffffffffffff1673ffffffffffffffffffffffffffffffffffffffff163373ffffffffffffffffffffffffffffffffffffffff16145b8061177b57506004600860108110151561172a57fe5b0160009054906101000a900473ffffffffffffffffffffffffffffffffffffffff1673ffffffffffffffffffffffffffffffffffffffff163373ffffffffffffffffffffffffffffffffffffffff16145b806117e257506004600960108110151561179157fe5b0160009054906101000a900473ffffffffffffffffffffffffffffffffffffffff1673ffffffffffffffffffffffffffffffffffffffff163373ffffffffffffffffffffffffffffffffffffffff16145b8061184957506004600a6010811015156117f857fe5b0160009054906101000a900473ffffffffffffffffffffffffffffffffffffffff1673ffffffffffffffffffffffffffffffffffffffff163373ffffffffffffffffffffffffffffffffffffffff16145b806118b057506004600b60108110151561185f57fe5b0160009054906101000a900473ffffffffffffffffffffffffffffffffffffffff1673ffffffffffffffffffffffffffffffffffffffff163373ffffffffffffffffffffffffffffffffffffffff16145b8061191757506004600c6010811015156118c657fe5b0160009054906101000a900473ffffffffffffffffffffffffffffffffffffffff1673ffffffffffffffffffffffffffffffffffffffff163373ffffffffffffffffffffffffffffffffffffffff16145b8061197e57506004600d60108110151561192d57fe5b0160009054906101000a900473ffffffffffffffffffffffffffffffffffffffff1673ffffffffffffffffffffffffffffffffffffffff163373ffffffffffffffffffffffffffffffffffffffff16145b806119e557506004600e60108110151561199457fe5b0160009054906101000a900473ffffffffffffffffffffffffffffffffffffffff1673ffffffffffffffffffffffffffffffffffffffff163373ffffffffffffffffffffffffffffffffffffffff16145b80611a4c57506004600f6010811015156119fb57fe5b0160009054906101000a900473ffffffffffffffffffffffffffffffffffffffff1673ffffffffffffffffffffffffffffffffffffffff163373ffffffffffffffffffffffffffffffffffffffff16145b1515611a5757600080fd5b607860216000601554815260200190815260200160002060040154014210151515611a8157600080fd5b600560216000601554815260200190815260200160002060010154014310151515611aab57600080fd5b60006001028914158015611ac3575060006001028814155b1515611ace57600080fd5b886021600060016015540381526020019081526020016000206002015414158015611b145750876021600060016015540381526020019081526020016000206003015414155b1515611b1f57600080fd5b600060216000601554815260200190815260200160002060010154148015611b625750600060010260216000601554815260200190815260200160002060020154145b8015611b895750600060010260216000601554815260200190815260200160002060030154145b8015611bad5750600060216000601554815260200190815260200160002060040154145b1515611bb857600080fd5b60008460ff1610158015611bcf575060648460ff16105b1515611bda57600080fd5b6000601754148015611bf157506007876018540110155b15611d3557610120604051908101604052803373ffffffffffffffffffffffffffffffffffffffff1681526020014381526020018a81526020018981526020014281526020018881526020018781526020018681526020016022600060175481526020019081526020016000206000015481525060216000601554815260200190815260200160002060008201518160000160006101000a81548173ffffffffffffffffffffffffffffffffffffffff021916908373ffffffffffffffffffffffffffffffffffffffff1602179055506020820151816001015560408201518160020155606082015181600301556080820151816004015560a0820151816005015560c0820151816006015560e08201518160070155610100820151816008015590505042601e81905550611d30896000806001026000600102614bbc565b612576565b600060175414158015611d545750601f60009054906101000a900460ff165b8015611d695750611d688660195401611135565b5b15611f6457600060226000601754815260200190815260200160002060020154148015611db15750600060010260226000601754815260200190815260200160002060030154145b1515611dbc57600080fd5b610120604051908101604052803373ffffffffffffffffffffffffffffffffffffffff1681526020014381526020018a81526020018981526020014281526020018881526020018781526020018681526020016022600060175481526020019081526020016000206000015481525060216000601554815260200190815260200160002060008201518160000160006101000a81548173ffffffffffffffffffffffffffffffffffffffff021916908373ffffffffffffffffffffffffffffffffffffffff1602179055506020820151816001015560408201518160020155606082015181600301556080820151816004015560a0820151816005015560c0820151816006015560e08201518160070155610100820151816008015590505042601d81905550611eed601b54614e42565b601b8190555060155460226000601754815260200190815260200160002060020181905550611f208960014303406127b3565b602260006017548152602001908152602001600020600301819055506000601a819055506000601f60006101000a81548160ff021916908315150217905550612575565b600060175414158015611f835750601f60009054906101000a900460ff165b8015611f945750602054601e544203115b156120f357610120604051908101604052803373ffffffffffffffffffffffffffffffffffffffff1681526020014381526020018a81526020018981526020014281526020018881526020018781526020018681526020016022600060175481526020019081526020016000206000015481525060216000601554815260200190815260200160002060008201518160000160006101000a81548173ffffffffffffffffffffffffffffffffffffffff021916908373ffffffffffffffffffffffffffffffffffffffff1602179055506020820151816001015560408201518160020155606082015181600301556080820151816004015560a0820151816005015560c0820151816006015560e08201518160070155610100820151816008015590505060014203601d8190555042601e819055506120d4601b54614e63565b601b819055506120ee896000806001026000600102614bbc565b612574565b600060175414158015612119575060001515601f60009054906101000a900460ff161515145b801561212e575061212d85601a540161287e565b5b1561229e576000600102831415801561214b575060006001028214155b151561215657600080fd5b610120604051908101604052803373ffffffffffffffffffffffffffffffffffffffff1681526020014381526020018a81526020018981526020014281526020018881526020018781526020018681526020016022600060175481526020019081526020016000206000015481525060216000601554815260200190815260200160002060008201518160000160006101000a81548173ffffffffffffffffffffffffffffffffffffffff021916908373ffffffffffffffffffffffffffffffffffffffff1602179055506020820151816001015560408201518160020155606082015181600301556080820151816004015560a0820151816005015560c0820151816006015560e082015181600701556101008201518160080155905050612280601c54614e42565b601c8190555042601e8190555061229989858585614bbc565b612573565b6000601754141580156122c4575060001515601f60009054906101000a900460ff161515145b80156122d55750602054601d544203115b1561242257610120604051908101604052803373ffffffffffffffffffffffffffffffffffffffff1681526020014381526020018a81526020018981526020014281526020018881526020018781526020018681526020016022600060175481526020019081526020016000206000015481525060216000601554815260200190815260200160002060008201518160000160006101000a81548173ffffffffffffffffffffffffffffffffffffffff021916908373ffffffffffffffffffffffffffffffffffffffff1602179055506020820151816001015560408201518160020155606082015181600301556080820151816004015560a0820151816005015560c0820151816006015560e082015181600701556101008201518160080155905050612404601c54614e63565b601c8190555042601e8190555061241d89858585614bbc565b612572565b8560196000828254019250508190555084601a6000828254019250508190555086601860008282540192505081905550610120604051908101604052803373ffffffffffffffffffffffffffffffffffffffff1681526020014381526020018a81526020018981526020014281526020018881526020018781526020018681526020016022600060175481526020019081526020016000206000015481525060216000601554815260200190815260200160002060008201518160000160006101000a81548173ffffffffffffffffffffffffffffffffffffffff021916908373ffffffffffffffffffffffffffffffffffffffff1602179055506020820151816001015560408201518160020155606082015181600301556080820151816004015560a0820151816005015560c0820151816006015560e0820151816007015561010082015181600801559050505b5b5b5b5b60016015600082825401925050819055506001905098975050505050505050565b60008060046125a78560006141fe565b7f0100000000000000000000000000000000000000000000000000000000000000900460ff168115156125d657fe5b06905060006125e685603f6141fe565b90506000817f010000000000000000000000000000000000000000000000000000000000000090049050600060106008830160ff1681151561262457fe5b06905060006126368786603f036141fe565b7f0100000000000000000000000000000000000000000000000000000000000000900490508260ff168260ff16111561269c578260ff168160ff161015801561268457508160ff168160ff16105b15612697576001955050505050506126d0565b6126ca565b8260ff168160ff161015806126b657508160ff168160ff16105b156126c9576001955050505050506126d0565b5b50505050505b92915050565b6000601554821015156126e857600080fd5b600060010260216000848152602001908152602001600020600201541415151561271157600080fd5b61273385858560216000878152602001908152602001600020600201546136a6565b9050949350505050565b60048160108110151561274c57fe5b016000915054906101000a900473ffffffffffffffffffffffffffffffffffffffff1681565b60008160048110151561278157fe5b016000915054906101000a900473ffffffffffffffffffffffffffffffffffffffff1681565b60185481565b601b5481565b60008282604051602001808381526020018281526020019250505060405160208183030381529060405280519060200120905092915050565b600080601754841015801561281b57506000600102602260008681526020019081526020016000206003015414155b151561282657600080fd5b60006022600086815260200190815260200160002060030154905061284b81856129e4565b6022600060018803815260200190815260200160002060040160009054906101000a900460ff1692509250509250929050565b600080601460009054906101000a900473ffffffffffffffffffffffffffffffffffffffff1673ffffffffffffffffffffffffffffffffffffffff166322faa41f6040518163ffffffff167c010000000000000000000000000000000000000000000000000000000002815260040160206040518083038186803b15801561290557600080fd5b505afa158015612919573d6000803e3d6000fd5b505050506040513d602081101561292f57600080fd5b810190808051906020019092919050505090506003811015151561295257600080fd5b600081846103200281151561296357fe5b049050601c548110151561297c5760019250505061297f565b50505b919050565b601a5481565b60008060008060008514156129a35760175490506129a7565b8490505b8060226000838152602001908152602001600020600201546022600084815260200190815260200160002060030154935093509350509193909250565b60008060046129f48560006141fe565b7f0100000000000000000000000000000000000000000000000000000000000000900460ff16811515612a2357fe5b0690506000612a3385603f6141fe565b9050600060106001837f010000000000000000000000000000000000000000000000000000000000000090040160ff16811515612a6c57fe5b067f0100000000000000000000000000000000000000000000000000000000000000029050600060106001837f010000000000000000000000000000000000000000000000000000000000000090040160ff16811515612ac857fe5b067f0100000000000000000000000000000000000000000000000000000000000000029050600060106001837f010000000000000000000000000000000000000000000000000000000000000090040160ff16811515612b2457fe5b067f01000000000000000000000000000000000000000000000000000000000000000290506000612b588887603f036141fe565b9050847effffffffffffffffffffffffffffffffffffffffffffffffffffffffffffff1916817effffffffffffffffffffffffffffffffffffffffffffffffffffffffffffff19161480612bef5750837effffffffffffffffffffffffffffffffffffffffffffffffffffffffffffff1916817effffffffffffffffffffffffffffffffffffffffffffffffffffffffffffff1916145b80612c3d5750827effffffffffffffffffffffffffffffffffffffffffffffffffffffffffffff1916817effffffffffffffffffffffffffffffffffffffffffffffffffffffffffffff1916145b80612c8b5750817effffffffffffffffffffffffffffffffffffffffffffffffffffffffffffff1916817effffffffffffffffffffffffffffffffffffffffffffffffffffffffffffff1916145b15612c9f5760019650505050505050612ca6565b5050505050505b92915050565b6000808210158015612cbe5750601082105b1515612cc957600080fd5b600482601081101515612cd857fe5b0160009054906101000a900473ffffffffffffffffffffffffffffffffffffffff169050919050565b601c5481565b6000806000601754601b54601c54925092509250909192565b6000601754905090565b600073ffffffffffffffffffffffffffffffffffffffff163373ffffffffffffffffffffffffffffffffffffffff1614151515612d6657600080fd5b60046000601081101515612d7657fe5b0160009054906101000a900473ffffffffffffffffffffffffffffffffffffffff1673ffffffffffffffffffffffffffffffffffffffff163373ffffffffffffffffffffffffffffffffffffffff161480612e2d575060046001601081101515612ddc57fe5b0160009054906101000a900473ffffffffffffffffffffffffffffffffffffffff1673ffffffffffffffffffffffffffffffffffffffff163373ffffffffffffffffffffffffffffffffffffffff16145b80612e94575060046002601081101515612e4357fe5b0160009054906101000a900473ffffffffffffffffffffffffffffffffffffffff1673ffffffffffffffffffffffffffffffffffffffff163373ffffffffffffffffffffffffffffffffffffffff16145b80612efb575060046003601081101515612eaa57fe5b0160009054906101000a900473ffffffffffffffffffffffffffffffffffffffff1673ffffffffffffffffffffffffffffffffffffffff163373ffffffffffffffffffffffffffffffffffffffff16145b80612f615750600480601081101515612f1057fe5b0160009054906101000a900473ffffffffffffffffffffffffffffffffffffffff1673ffffffffffffffffffffffffffffffffffffffff163373ffffffffffffffffffffffffffffffffffffffff16145b80612fc8575060046005601081101515612f7757fe5b0160009054906101000a900473ffffffffffffffffffffffffffffffffffffffff1673ffffffffffffffffffffffffffffffffffffffff163373ffffffffffffffffffffffffffffffffffffffff16145b8061302f575060046006601081101515612fde57fe5b0160009054906101000a900473ffffffffffffffffffffffffffffffffffffffff1673ffffffffffffffffffffffffffffffffffffffff163373ffffffffffffffffffffffffffffffffffffffff16145b8061309657506004600760108110151561304557fe5b0160009054906101000a900473ffffffffffffffffffffffffffffffffffffffff1673ffffffffffffffffffffffffffffffffffffffff163373ffffffffffffffffffffffffffffffffffffffff16145b806130fd5750600460086010811015156130ac57fe5b0160009054906101000a900473ffffffffffffffffffffffffffffffffffffffff1673ffffffffffffffffffffffffffffffffffffffff163373ffffffffffffffffffffffffffffffffffffffff16145b8061316457506004600960108110151561311357fe5b0160009054906101000a900473ffffffffffffffffffffffffffffffffffffffff1673ffffffffffffffffffffffffffffffffffffffff163373ffffffffffffffffffffffffffffffffffffffff16145b806131cb57506004600a60108110151561317a57fe5b0160009054906101000a900473ffffffffffffffffffffffffffffffffffffffff1673ffffffffffffffffffffffffffffffffffffffff163373ffffffffffffffffffffffffffffffffffffffff16145b8061323257506004600b6010811015156131e157fe5b0160009054906101000a900473ffffffffffffffffffffffffffffffffffffffff1673ffffffffffffffffffffffffffffffffffffffff163373ffffffffffffffffffffffffffffffffffffffff16145b8061329957506004600c60108110151561324857fe5b0160009054906101000a900473ffffffffffffffffffffffffffffffffffffffff1673ffffffffffffffffffffffffffffffffffffffff163373ffffffffffffffffffffffffffffffffffffffff16145b8061330057506004600d6010811015156132af57fe5b0160009054906101000a900473ffffffffffffffffffffffffffffffffffffffff1673ffffffffffffffffffffffffffffffffffffffff163373ffffffffffffffffffffffffffffffffffffffff16145b8061336757506004600e60108110151561331657fe5b0160009054906101000a900473ffffffffffffffffffffffffffffffffffffffff1673ffffffffffffffffffffffffffffffffffffffff163373ffffffffffffffffffffffffffffffffffffffff16145b806133ce57506004600f60108110151561337d57fe5b0160009054906101000a900473ffffffffffffffffffffffffffffffffffffffff1673ffffffffffffffffffffffffffffffffffffffff163373ffffffffffffffffffffffffffffffffffffffff16145b15156133d957600080fd5b60b4811180156133eb57506201518081105b15156133f657600080fd5b8060208190555050565b601f60009054906101000a900460ff1681565b601d5481565b60008073ffffffffffffffffffffffffffffffffffffffff163373ffffffffffffffffffffffffffffffffffffffff161415151561345657600080fd5b60008060048110151561346557fe5b0160009054906101000a900473ffffffffffffffffffffffffffffffffffffffff1673ffffffffffffffffffffffffffffffffffffffff163373ffffffffffffffffffffffffffffffffffffffff16148061351c5750600060016004811015156134cb57fe5b0160009054906101000a900473ffffffffffffffffffffffffffffffffffffffff1673ffffffffffffffffffffffffffffffffffffffff163373ffffffffffffffffffffffffffffffffffffffff16145b8061358357506000600260048110151561353257fe5b0160009054906101000a900473ffffffffffffffffffffffffffffffffffffffff1673ffffffffffffffffffffffffffffffffffffffff163373ffffffffffffffffffffffffffffffffffffffff16145b806135ea57506000600360048110151561359957fe5b0160009054906101000a900473ffffffffffffffffffffffffffffffffffffffff1673ffffffffffffffffffffffffffffffffffffffff163373ffffffffffffffffffffffffffffffffffffffff16145b15156135f557600080fd5b600073ffffffffffffffffffffffffffffffffffffffff168373ffffffffffffffffffffffffffffffffffffffff161415151561363157600080fd5b600082101580156136425750601082105b151561364d57600080fd5b8260048360108110151561365d57fe5b0160006101000a81548173ffffffffffffffffffffffffffffffffffffffff021916908373ffffffffffffffffffffffffffffffffffffffff1602179055506001905092915050565b6000602085511015156136b857600080fd5b835185511415156136c857600080fd5b600083905060008090505b86518110156137ba57600087828151811015156136ec57fe5b906020019060200201519050868281518110151561370657fe5b906020019060200201511561374b57808360405160200180838152602001828152602001925050506040516020818303038152906040528051906020012092506137ac565b868281518110151561375957fe5b90602001906020020151151561379f57828160405160200180838152602001828152602001925050506040516020818303038152906040528051906020012092506137ab565b600093505050506137c2565b5b5080806001019150506136d3565b508281149150505b949350505050565b600073ffffffffffffffffffffffffffffffffffffffff163373ffffffffffffffffffffffffffffffffffffffff161415151561380657600080fd5b6004600060108110151561381657fe5b0160009054906101000a900473ffffffffffffffffffffffffffffffffffffffff1673ffffffffffffffffffffffffffffffffffffffff163373ffffffffffffffffffffffffffffffffffffffff1614806138cd57506004600160108110151561387c57fe5b0160009054906101000a900473ffffffffffffffffffffffffffffffffffffffff1673ffffffffffffffffffffffffffffffffffffffff163373ffffffffffffffffffffffffffffffffffffffff16145b806139345750600460026010811015156138e357fe5b0160009054906101000a900473ffffffffffffffffffffffffffffffffffffffff1673ffffffffffffffffffffffffffffffffffffffff163373ffffffffffffffffffffffffffffffffffffffff16145b8061399b57506004600360108110151561394a57fe5b0160009054906101000a900473ffffffffffffffffffffffffffffffffffffffff1673ffffffffffffffffffffffffffffffffffffffff163373ffffffffffffffffffffffffffffffffffffffff16145b80613a0157506004806010811015156139b057fe5b0160009054906101000a900473ffffffffffffffffffffffffffffffffffffffff1673ffffffffffffffffffffffffffffffffffffffff163373ffffffffffffffffffffffffffffffffffffffff16145b80613a68575060046005601081101515613a1757fe5b0160009054906101000a900473ffffffffffffffffffffffffffffffffffffffff1673ffffffffffffffffffffffffffffffffffffffff163373ffffffffffffffffffffffffffffffffffffffff16145b80613acf575060046006601081101515613a7e57fe5b0160009054906101000a900473ffffffffffffffffffffffffffffffffffffffff1673ffffffffffffffffffffffffffffffffffffffff163373ffffffffffffffffffffffffffffffffffffffff16145b80613b36575060046007601081101515613ae557fe5b0160009054906101000a900473ffffffffffffffffffffffffffffffffffffffff1673ffffffffffffffffffffffffffffffffffffffff163373ffffffffffffffffffffffffffffffffffffffff16145b80613b9d575060046008601081101515613b4c57fe5b0160009054906101000a900473ffffffffffffffffffffffffffffffffffffffff1673ffffffffffffffffffffffffffffffffffffffff163373ffffffffffffffffffffffffffffffffffffffff16145b80613c04575060046009601081101515613bb357fe5b0160009054906101000a900473ffffffffffffffffffffffffffffffffffffffff1673ffffffffffffffffffffffffffffffffffffffff163373ffffffffffffffffffffffffffffffffffffffff16145b80613c6b57506004600a601081101515613c1a57fe5b0160009054906101000a900473ffffffffffffffffffffffffffffffffffffffff1673ffffffffffffffffffffffffffffffffffffffff163373ffffffffffffffffffffffffffffffffffffffff16145b80613cd257506004600b601081101515613c8157fe5b0160009054906101000a900473ffffffffffffffffffffffffffffffffffffffff1673ffffffffffffffffffffffffffffffffffffffff163373ffffffffffffffffffffffffffffffffffffffff16145b80613d3957506004600c601081101515613ce857fe5b0160009054906101000a900473ffffffffffffffffffffffffffffffffffffffff1673ffffffffffffffffffffffffffffffffffffffff163373ffffffffffffffffffffffffffffffffffffffff16145b80613da057506004600d601081101515613d4f57fe5b0160009054906101000a900473ffffffffffffffffffffffffffffffffffffffff1673ffffffffffffffffffffffffffffffffffffffff163373ffffffffffffffffffffffffffffffffffffffff16145b80613e0757506004600e601081101515613db657fe5b0160009054906101000a900473ffffffffffffffffffffffffffffffffffffffff1673ffffffffffffffffffffffffffffffffffffffff163373ffffffffffffffffffffffffffffffffffffffff16145b80613e6e57506004600f601081101515613e1d57fe5b0160009054906101000a900473ffffffffffffffffffffffffffffffffffffffff1673ffffffffffffffffffffffffffffffffffffffff163373ffffffffffffffffffffffffffffffffffffffff16145b1515613e7957600080fd5b60058210158015613e8b5750605f8211155b1515613e9657600080fd5b60058110158015613ea85750605f8111155b1515613eb357600080fd5b81601b8190555080601c819055505050565b60175481565b60008060006021600085815260200190815260200160002060010154602160008681526020019081526020016000206002015460216000878152602001908152602001600020600301549250925092509193909250565b601460009054906101000a900473ffffffffffffffffffffffffffffffffffffffff1681565b613f50614e97565b6000600480602002604051908101604052809291908260048015613fbf576020028201915b8160009054906101000a900473ffffffffffffffffffffffffffffffffffffffff1673ffffffffffffffffffffffffffffffffffffffff1681526020019060010190808311613f75575b5050505050905090565b60008073ffffffffffffffffffffffffffffffffffffffff163373ffffffffffffffffffffffffffffffffffffffff161415151561400657600080fd5b60008060048110151561401557fe5b0160009054906101000a900473ffffffffffffffffffffffffffffffffffffffff1673ffffffffffffffffffffffffffffffffffffffff163373ffffffffffffffffffffffffffffffffffffffff1614806140cc57506000600160048110151561407b57fe5b0160009054906101000a900473ffffffffffffffffffffffffffffffffffffffff1673ffffffffffffffffffffffffffffffffffffffff163373ffffffffffffffffffffffffffffffffffffffff16145b806141335750600060026004811015156140e257fe5b0160009054906101000a900473ffffffffffffffffffffffffffffffffffffffff1673ffffffffffffffffffffffffffffffffffffffff163373ffffffffffffffffffffffffffffffffffffffff16145b8061419a57506000600360048110151561414957fe5b0160009054906101000a900473ffffffffffffffffffffffffffffffffffffffff1673ffffffffffffffffffffffffffffffffffffffff163373ffffffffffffffffffffffffffffffffffffffff16145b15156141a557600080fd5b81600060036004811015156141b657fe5b0160006101000a81548173ffffffffffffffffffffffffffffffffffffffff021916908373ffffffffffffffffffffffffffffffffffffffff16021790555060019050919050565b6000808260ff16101580156142175750603f8260ff1611155b151561422257600080fd5b600160028360ff1681151561423357fe5b0660ff1614156142db5760108360028460ff1681151561424f57fe5b0460ff1660208110151561425f57fe5b1a7f0100000000000000000000000000000000000000000000000000000000000000027f0100000000000000000000000000000000000000000000000000000000000000900460ff168115156142b157fe5b067f0100000000000000000000000000000000000000000000000000000000000000029050614375565b60108360028460ff168115156142ed57fe5b0460ff166020811015156142fd57fe5b1a7f0100000000000000000000000000000000000000000000000000000000000000027f0100000000000000000000000000000000000000000000000000000000000000900460ff1681151561434f57fe5b047f01000000000000000000000000000000000000000000000000000000000000000290505b92915050565b60008060008060008060008088141561439857601754905061439c565b8790505b80602260008381526020019081526020016000206000015460226000848152602001908152602001600020600101546022600085815260200190815260200160002060040160009054906101000a900460ff16602260008681526020019081526020016000206005015460226000878152602001908152602001600020600601548260ff1692509650965096509650965096505091939550919395565b60195481565b600080821415156144685760226000838152602001908152602001600020600001549050614484565b6022600060175481526020019081526020016000206000015490505b919050565b60216020528060005260406000206000915090508060000160009054906101000a900473ffffffffffffffffffffffffffffffffffffffff16908060010154908060020154908060030154908060040154908060050154908060060154908060070154908060080154905089565b60155481565b60008073ffffffffffffffffffffffffffffffffffffffff168273ffffffffffffffffffffffffffffffffffffffff16141561453c5760009050614ba7565b6004600060108110151561454c57fe5b0160009054906101000a900473ffffffffffffffffffffffffffffffffffffffff1673ffffffffffffffffffffffffffffffffffffffff168273ffffffffffffffffffffffffffffffffffffffff1614806146035750600460016010811015156145b257fe5b0160009054906101000a900473ffffffffffffffffffffffffffffffffffffffff1673ffffffffffffffffffffffffffffffffffffffff168273ffffffffffffffffffffffffffffffffffffffff16145b8061466a57506004600260108110151561461957fe5b0160009054906101000a900473ffffffffffffffffffffffffffffffffffffffff1673ffffffffffffffffffffffffffffffffffffffff168273ffffffffffffffffffffffffffffffffffffffff16145b806146d157506004600360108110151561468057fe5b0160009054906101000a900473ffffffffffffffffffffffffffffffffffffffff1673ffffffffffffffffffffffffffffffffffffffff168273ffffffffffffffffffffffffffffffffffffffff16145b8061473757506004806010811015156146e657fe5b0160009054906101000a900473ffffffffffffffffffffffffffffffffffffffff1673ffffffffffffffffffffffffffffffffffffffff168273ffffffffffffffffffffffffffffffffffffffff16145b8061479e57506004600560108110151561474d57fe5b0160009054906101000a900473ffffffffffffffffffffffffffffffffffffffff1673ffffffffffffffffffffffffffffffffffffffff168273ffffffffffffffffffffffffffffffffffffffff16145b806148055750600460066010811015156147b457fe5b0160009054906101000a900473ffffffffffffffffffffffffffffffffffffffff1673ffffffffffffffffffffffffffffffffffffffff168273ffffffffffffffffffffffffffffffffffffffff16145b8061486c57506004600760108110151561481b57fe5b0160009054906101000a900473ffffffffffffffffffffffffffffffffffffffff1673ffffffffffffffffffffffffffffffffffffffff168273ffffffffffffffffffffffffffffffffffffffff16145b806148d357506004600860108110151561488257fe5b0160009054906101000a900473ffffffffffffffffffffffffffffffffffffffff1673ffffffffffffffffffffffffffffffffffffffff168273ffffffffffffffffffffffffffffffffffffffff16145b8061493a5750600460096010811015156148e957fe5b0160009054906101000a900473ffffffffffffffffffffffffffffffffffffffff1673ffffffffffffffffffffffffffffffffffffffff168273ffffffffffffffffffffffffffffffffffffffff16145b806149a157506004600a60108110151561495057fe5b0160009054906101000a900473ffffffffffffffffffffffffffffffffffffffff1673ffffffffffffffffffffffffffffffffffffffff168273ffffffffffffffffffffffffffffffffffffffff16145b80614a0857506004600b6010811015156149b757fe5b0160009054906101000a900473ffffffffffffffffffffffffffffffffffffffff1673ffffffffffffffffffffffffffffffffffffffff168273ffffffffffffffffffffffffffffffffffffffff16145b80614a6f57506004600c601081101515614a1e57fe5b0160009054906101000a900473ffffffffffffffffffffffffffffffffffffffff1673ffffffffffffffffffffffffffffffffffffffff168273ffffffffffffffffffffffffffffffffffffffff16145b80614ad657506004600d601081101515614a8557fe5b0160009054906101000a900473ffffffffffffffffffffffffffffffffffffffff1673ffffffffffffffffffffffffffffffffffffffff168273ffffffffffffffffffffffffffffffffffffffff16145b80614b3d57506004600e601081101515614aec57fe5b0160009054906101000a900473ffffffffffffffffffffffffffffffffffffffff1673ffffffffffffffffffffffffffffffffffffffff168273ffffffffffffffffffffffffffffffffffffffff16145b80614ba457506004600f601081101515614b5357fe5b0160009054906101000a900473ffffffffffffffffffffffffffffffffffffffff1673ffffffffffffffffffffffffffffffffffffffff168273ffffffffffffffffffffffffffffffffffffffff16145b90505b919050565b6000601554905090565b601e5481565b60006019819055506000601a819055506000601881905550601460009054906101000a900473ffffffffffffffffffffffffffffffffffffffff1673ffffffffffffffffffffffffffffffffffffffff1663c5bc38616040518163ffffffff167c0100000000000000000000000000000000000000000000000000000000028152600401602060405180830381600087803b158015614c5a57600080fd5b505af1158015614c6e573d6000803e3d6000fd5b505050506040513d6020811015614c8457600080fd5b8101908080519060200190929190505050508260226000601754815260200190815260200160002060040160006101000a81548160ff021916908360ff160217905550816022600060175481526020019081526020016000206005018190555080602260006017548152602001908152602001600020600601819055506001601f60006101000a81548160ff0219169083151502179055506001601760008282540192505081905550600084601754604051602001808381526020018281526020019250505060405160208183030381529060405280519060200120905060e06040519081016040528082815260200160016015540181526020016000815260200160006001028152602001600060ff1681526020016000600102815260200160006001028152506022600060175481526020019081526020016000206000820151816000015560208201518160010155604082015181600201556060820151816003015560808201518160040160006101000a81548160ff021916908360ff16021790555060a0820151816005015560c0820151816006015590505060175460236000838152602001908152602001600020819055505050505050565b6000605a82111515614e5957600582019050614e5e565b605f90505b919050565b6000606482101515614e7857605f9050614e92565b600a82101515614e8d57600582039050614e92565b600590505b919050565b60806040519081016040528060049060208202803883398082019150509050509056fea165627a7a72305820700f8273655097be782a22bf4cbd31e68b152da49ec2625598307195466b72740029",
  "source": "pragma solidity ^0.5.2;\nimport \"./lib/safe-math.sol\";\nimport \"./Interfaces/MemberShipInterface.sol\";\n\n// TODO: use safemath\n\ncontract BlockRegistry{\n    using SafeMath for uint256;\n\n    // Variables\n    address[4] public managers;  // use \"coreManagers\" and \"managers\" as in \"MemberShip.sol\"?\n    address[16] public validators;\n    address public memberContractAddr;\n    uint public nowSblockNo;  // start from 1\n    uint public sblockTimeStep = 30 minutes;  // it's a minimum timestep\n    // bool public opRoundStatus = true;  // need `true` for 1st round; or simply use \"pause/unpause\"?\n    uint public opRound;\n    uint public articleCount;\n    // variables with `v1` or `vote1`: lottery; with `v2` or `vote2`: claim\n    uint public roundVote1Count;\n    uint public roundVote2Count;\n    uint public vote1Threshold = 40;  // between 5 and 95, step 5\n    uint public vote2Threshold = 40;  // between 5 and 95, step 5\n    uint public v1EndTime;\n    uint public v2EndTime;\n    bool public atV1;\n\n    uint public maxVoteTime = 180 minutes;  // an Opround cannot longer than 2*maxVoteTime; use smaller values for debug\n\n    struct blockStat{\n        address validator;\n        uint blockHeight;  // block.number while submission\n        bytes32 merkleRoot;  // IPFs hash string to bytes32: \n        bytes32 ipfsAddr;  // string to hex (in js): ethUtils.bufferToHex(bs58.decode(ipfsHash).slice(2));\n        uint timestamp;\n        uint uniqArticleCount;\n        uint vote1Count;\n        uint vote2Count;\n        bytes32 opRoundId;\n    }\n    mapping (uint => blockStat) public blockHistory;  // sblockNo to blockStat\n\n    struct opRoundStruct{\n        // update during creation of this opRound\n        bytes32 id;\n        uint initBlockNo;\n        // update in lottery-sblock\n        uint lotteryBlockNo;\n        bytes32 lotteryWinNumber;\n        // update in final-sblock\n        uint8 minSuccessRate;  // shoud be an integer between 0 and 100; this is used in next opRound\n        bytes32 succesRateDB;  // IPFS contain success rate\n        bytes32 finalListIpfs;\n    }\n    mapping (uint => opRoundStruct) opRoundHistory;\n    mapping (bytes32 => uint) opRoundIdToNum;  // opRound id to opRound number\n    // mapping (uint => uint) public lotterySblockNo;  // give `opRound`, return the corresponding `sblock_no` while lottery happened\n    // mapping (uint => bytes32) public opRoundLog;  // opRound index to opRound id\n\n    constructor(address _memberContractAddr) public {\n        memberContractAddr = _memberContractAddr;\n        managers = [ 0xB440ea2780614b3c6a00e512f432785E7dfAFA3E,\n                     0x4AD56641C569C91C64C28a904cda50AE5326Da41,\n                     0xaF7400787c54422Be8B44154B1273661f1259CcD,\n                     address(0)];\n        validators = [ 0xB440ea2780614b3c6a00e512f432785E7dfAFA3E,\n                       0x4AD56641C569C91C64C28a904cda50AE5326Da41,\n                       0xaF7400787c54422Be8B44154B1273661f1259CcD,\n                       address(0), address(0), address(0), address(0), address(0),\n                       address(0), address(0), address(0), address(0), address(0),\n                       address(0), address(0), address(0)];\n        // prevTimeStamp = block.timestamp - sblockTimeStep;\n        blockHistory[0] = blockStat(msg.sender, block.number, 0x0, 0x0, block.timestamp,\n                                    0, 0, 0, 0x0);\n        nowSblockNo = 1;\n    }\n\n    // Modifiers\n    modifier managerOnly() {\n        require(msg.sender != address(0));\n        require(msg.sender == managers[0] || msg.sender == managers[1] || msg.sender == managers[2] || msg.sender == managers[3]);\n        _;\n    }\n\n    modifier validatorOnly() {\n        require(msg.sender != address(0));\n        require(msg.sender == validators[0] || msg.sender == validators[1] || msg.sender == validators[2] ||\n                msg.sender == validators[3] || msg.sender == validators[4] || msg.sender == validators[5] ||\n                msg.sender == validators[6] || msg.sender == validators[7] || msg.sender == validators[8] ||\n                msg.sender == validators[9] || msg.sender == validators[10] || msg.sender == validators[11] ||\n                msg.sender == validators[12] || msg.sender == validators[13] || msg.sender == validators[14] ||\n                msg.sender == validators[15]);\n        _;\n    }\n\n    // some adjustable functions only for developing phase\n    function updateMaxVoteTime(uint _seconds) public validatorOnly {\n        require(_seconds > 180 && _seconds < 86400);  // restrict to a range\n        maxVoteTime = _seconds;\n    }\n\n    function setThreshold(uint _x, uint _y) public validatorOnly{\n        require(_x >= 5 && _x <=95);\n        require(_y >= 5 && _y <=95);\n        vote1Threshold = _x;\n        vote2Threshold = _y;\n    }\n\n    // some internal functions\n    function _increaseThreshold(uint _x) internal pure returns(uint) {\n        if (_x <= 90) {\n            return _x + 5;\n        } else {\n            return 95;\n        }\n    }\n\n    function _decreaseThreshold(uint _x) internal pure returns(uint) {\n        if (_x >= 100) {\n            return 95;\n        } else if (_x >= 10) {\n            return _x - 5;\n        } else {\n            return 5;\n        }\n    }\n\n    function _toNextOpRound(bytes32 _mr, uint8 _minSuccessRate, bytes32 _successRateDB, bytes32 _finalListIpfs) internal {\n        roundVote1Count = 0;\n        roundVote2Count = 0;\n        articleCount = 0;\n        MemberShipInterface(memberContractAddr).updateActiveMembers();\n\n        // update current opRoundHistory\n        opRoundHistory[opRound].minSuccessRate = _minSuccessRate;  // next opRound need this\n        opRoundHistory[opRound].succesRateDB = _successRateDB;\n        opRoundHistory[opRound].finalListIpfs = _finalListIpfs;\n\n        // for next opRound\n        atV1 = true;\n        opRound += 1;\n        bytes32 _oid = bytes32(keccak256(abi.encodePacked(_mr, opRound)));\n        opRoundHistory[opRound] = opRoundStruct(_oid, nowSblockNo+1, 0, 0x0, 0, 0x0, 0x0);\n        opRoundIdToNum[_oid] = opRound;\n    }\n\n    // create a new sblock\n    function submitMerkleRoot(\n        bytes32 _merkleRoot,\n        bytes32 _ipfsAddr,\n        uint _uniqArticleCount,\n        uint _vote1Count,\n        uint _vote2Count,\n        uint8 _minSuccessRate,\n        bytes32 _successRateDB,\n        bytes32 _finalListIpfs\n    ) public validatorOnly returns (bool) {\n        // Note: a `opRound` contains two parts: `(v1)vote` and `(v2)claim`,\n        //       (v2) may not happen if (v1) takes more than maxVoteTime.\n        // comment some \"require\"s for test purpose\n        // require(block.timestamp >= blockHistory[nowSblockNo] + sblockTimeStep, 'too soon');\n        require(block.timestamp >= blockHistory[nowSblockNo].timestamp + 2 minutes);  // 2 min is for test purpose, should be 1 hour(?)\n        require(block.number >= blockHistory[nowSblockNo].blockHeight + 5);  // 5 is for test purpose, should be ?\n        require(_merkleRoot != 0x0 && _ipfsAddr != 0x0);\n        require(blockHistory[nowSblockNo-1].merkleRoot != _merkleRoot && blockHistory[nowSblockNo-1].ipfsAddr != _ipfsAddr);  // prevent re-submission\n        require(blockHistory[nowSblockNo].blockHeight == 0 && blockHistory[nowSblockNo].merkleRoot == 0x0 &&\n                blockHistory[nowSblockNo].ipfsAddr == 0x0 && blockHistory[nowSblockNo].timestamp == 0);\n        require(_minSuccessRate >= 0 && _minSuccessRate < 100);\n        // require: ...\n\n        // a sblock in a opRound cound be of type: genesis, lottery, lottery-NDR, finalist, finalist-NDR, or regular\n        // (NDR = no-draw-round)\n        if (opRound == 0 && articleCount + _uniqArticleCount >= 7) {  // genesis; set small number for test purpose\n            blockHistory[nowSblockNo] = blockStat(\n                msg.sender, block.number, _merkleRoot, _ipfsAddr, block.timestamp,\n                _uniqArticleCount, _vote1Count, _vote2Count, opRoundHistory[opRound].id\n            );\n            v2EndTime = block.timestamp;  // although no 'claiming', still need to record a time\n            _toNextOpRound(_merkleRoot, 0, 0x0, 0x0);\n        } else if (opRound != 0 && atV1 && isEnoughV1(roundVote1Count+_vote1Count)) {  // lottery\n            require(opRoundHistory[opRound].lotteryBlockNo == 0 && opRoundHistory[opRound].lotteryWinNumber == 0x0);\n            blockHistory[nowSblockNo] = blockStat(\n                msg.sender, block.number, _merkleRoot, _ipfsAddr, block.timestamp,\n                _uniqArticleCount, _vote1Count, _vote2Count, opRoundHistory[opRound].id\n            );\n            v1EndTime = block.timestamp;\n            vote1Threshold = _increaseThreshold(vote1Threshold);\n            opRoundHistory[opRound].lotteryBlockNo = nowSblockNo;\n            opRoundHistory[opRound].lotteryWinNumber = calcLotteryWinNumber(_merkleRoot, blockhash(block.number-1));\n            roundVote2Count = 0;  // should be 0 already but reset anyway\n            atV1 = false;\n        } else if (opRound != 0 && atV1 && (block.timestamp - v2EndTime > maxVoteTime)) {  // A \"no-draw-round\"! Proceed to next OpRound\n            blockHistory[nowSblockNo] = blockStat(\n                msg.sender, block.number, _merkleRoot, _ipfsAddr, block.timestamp,\n                _uniqArticleCount, _vote1Count, _vote2Count, opRoundHistory[opRound].id\n            );\n            v1EndTime = block.timestamp-1;  // or don't update? BTW, subtract by 1 to make sure v2EndTime > v1Endtime (or no need?)\n            v2EndTime = block.timestamp;  // in case next submit() fall into this if-statement again\n            vote1Threshold = _decreaseThreshold(vote1Threshold);\n            // opRoundHistory[opRound].lotteryBlockNo = nowSblockNo;  // should keep it 0\n            _toNextOpRound(_merkleRoot, 0, 0x0, 0x0);\n        } else if (opRound != 0 && atV1 == false && isEnoughV2(roundVote2Count+_vote2Count)) { // finalist\n            require(_successRateDB != 0x0 && _finalListIpfs != 0x0);\n            blockHistory[nowSblockNo] = blockStat(\n                msg.sender, block.number, _merkleRoot, _ipfsAddr, block.timestamp,\n                _uniqArticleCount, _vote1Count, _vote2Count, opRoundHistory[opRound].id\n            );\n            vote2Threshold = _increaseThreshold(vote2Threshold);\n            v2EndTime = block.timestamp;\n            _toNextOpRound(_merkleRoot, _minSuccessRate, _successRateDB, _finalListIpfs);\n        } else if (opRound != 0 && atV1 == false && (block.timestamp - v1EndTime > maxVoteTime)) {  // too long! End this Opround-v2 and proceed to next OpRound\n            blockHistory[nowSblockNo] = blockStat(\n                msg.sender, block.number, _merkleRoot, _ipfsAddr, block.timestamp,\n                _uniqArticleCount, _vote1Count, _vote2Count, opRoundHistory[opRound].id\n            );  \n            vote2Threshold = _decreaseThreshold(vote2Threshold);\n            v2EndTime = block.timestamp;\n            // should validator update new _successRateDB in NDR?\n            _toNextOpRound(_merkleRoot, _minSuccessRate, _successRateDB, _finalListIpfs);\n        } else {  // regular sblock, only accumulate votes\n            roundVote1Count += _vote1Count;\n            roundVote2Count += _vote2Count;\n            articleCount += _uniqArticleCount;  // right now, this is only used in genesis\n            blockHistory[nowSblockNo] = blockStat(\n                msg.sender, block.number, _merkleRoot, _ipfsAddr, block.timestamp,\n                _uniqArticleCount, _vote1Count, _vote2Count, opRoundHistory[opRound].id\n            );\n        }\n\n        nowSblockNo += 1;\n\n        return true;\n    }\n\n    function isEnoughV1(uint v1Count) public view returns (bool) {\n        uint activeMemberCount = MemberShipInterface(memberContractAddr).getActiveMemberCount();\n        require(activeMemberCount >= 3);  // '3' is num of coreManagers, or use 1? 100?\n        uint vote1Rate = (100 * v1Count) / activeMemberCount;\n        // assert(vote1Rate <= 100);  // not true if every can vote multiple times\n        if (vote1Rate >= vote1Threshold) {\n            return true;\n        }\n    }\n\n    function isEnoughV2(uint v2Count) public view returns (bool) {\n        uint activeMemberCount = MemberShipInterface(memberContractAddr).getActiveMemberCount();\n        require(activeMemberCount >= 3);  // '3' is num of coreManagers, or use 1? 100?\n        // vote2Rate select ABOUT 25% of people from 50% of member, i.e., ~1/8 of total members\n        // Here try to keep vote2Rate roughly in the range of 0 and 100, so multiply 8 back.\n        // Note that the '1/8' factor is uncertain, so 'vote2Rate' could be larger than 100\n        uint vote2Rate = (8 * 100 * v2Count) / activeMemberCount;\n        if (vote2Rate >= vote2Threshold) {\n            return true;\n        }\n    }\n\n    // Lottery related\n    function calcLotteryWinNumber(bytes32 _mr, bytes32 _bhash) public pure returns(bytes32) {\n        // require(_mr != 0x0 && _bhash != 0x0);  // leave these checks to other function\n        return keccak256(abi.encodePacked(_mr, _bhash));\n    }\n\n    function _getBytes32HexNthDigit(bytes32 _ticket, uint8 _digit) public pure returns(bytes1){\n        require(_digit >=0 && _digit <=63);  // treat bytes32 as 64 hex characters\n        if (_digit % 2 == 1) {\n            return bytes1(uint8(_ticket[_digit/2])%16);  // _digit/2 = Math.floor(digit/2)\n        } else {\n            return bytes1(uint8(_ticket[_digit/2])/16);\n        }\n    }\n\n    function lotteryWins(bytes32 _winHex, bytes32 _ticket) public pure returns(bool) {\n        // a ticket is a winning ticket if: it's X-th digit (count from behind) is Y\n        // where `X` is determined by first digit of `lotteryWinNumber` (in the range of 0 and 3)\n        // and `Y` is the last digit of `winHex`\n        // the rule of determining `X` and `Y` should sync with 'libSampleTicket.js' in 'OptractP2PCli'\n        uint8 refDigit = uint8(_getBytes32HexNthDigit(_winHex, 0)) % 4;\n        bytes1 winHexChar1 = _getBytes32HexNthDigit(_winHex, 63);  // last digit\n        bytes1 winHexChar2 = bytes1((uint8(winHexChar1) + 1) % 16);\n        bytes1 winHexChar3 = bytes1((uint8(winHexChar2) + 1) % 16);\n        bytes1 winHexChar4 = bytes1((uint8(winHexChar3) + 1) % 16);\n        bytes1 ticketChar = _getBytes32HexNthDigit(_ticket, 63 - refDigit);\n        if (ticketChar == winHexChar1 || ticketChar == winHexChar2 || ticketChar == winHexChar3 || ticketChar == winHexChar4) {\n            return true;\n        }\n    }\n\n    function lotteryWins8(bytes32 _winHex, bytes32 _ticket) public pure returns(bool) {\n        // similar to lotteryWins, just increase the rate to 50%!\n        // TODO: some real tests\n        uint8 refDigit = uint8(_getBytes32HexNthDigit(_winHex, 0)) % 4;\n        bytes1 winHexChar1 = _getBytes32HexNthDigit(_winHex, 63);  // last digit\n        uint8 w1 = uint8(winHexChar1);\n        uint8 w2 = (w1 + 8) % 16;\n        uint8 t = uint8(_getBytes32HexNthDigit(_ticket, 63 - refDigit));\n        if (w2 > w1)  {\n            if (t >= w1 && t < w2) {\n                return true;\n            }\n        } else {\n            if (t >= w1 || t < w2) {\n                return true;\n            }\n        }\n    }\n\n    function isWinningTicket(uint _opRound, bytes32 _ticket) public view returns(bool, uint8) {\n        require(_opRound >= opRound && opRoundHistory[_opRound].lotteryWinNumber != 0x0);\n        bytes32 winHex = opRoundHistory[_opRound].lotteryWinNumber;\n        // note: the minSuccessRate for this opRound is determined in previous opRound!\n        // TODO: add a toggle (global var or parameter to this function) to use another lotteryWins() rule\n        return (lotteryWins(winHex, _ticket), opRoundHistory[_opRound-1].minSuccessRate);\n    }\n\n    // claim reward\n    function txExist(bytes32[] memory proof, bool[] memory isLeft, bytes32 txHash, uint _sblockNo) public view returns (bool){\n        require(_sblockNo < nowSblockNo);\n        require(blockHistory[_sblockNo].merkleRoot != 0x0);\n        return merkleTreeValidator(proof, isLeft, txHash, blockHistory[_sblockNo].merkleRoot);\n    }\n\n    function claimReward(\n        bytes32[] calldata proof1, bool[] calldata isLeft1, bytes32 txHash1, uint sblockNo1,\n        bytes32[] calldata proof2, bool[] calldata isLeft2, bytes32 txHash2, uint sblockNo2\n    ) external view returns(bool) {\n        // need to proof both articles are in the tree and both submitted by the msg.sender (using calcLeaf() below)\n        require(sblockNo1 > nowSblockNo && sblockNo1 < nowSblockNo + 12);\n        // require txHash1 = generateTxHash(msg.sender, ...)\n        require(txExist(proof1, isLeft1, txHash1, sblockNo1) && txExist(proof2, isLeft2, txHash2, sblockNo2));\n    }\n\n    // merkle tree and leaves\n    function merkleTreeValidator(\n        bytes32[] memory proof,\n        bool[] memory isLeft,\n        bytes32 targetLeaf,\n        bytes32 _merkleRoot\n    ) public pure returns (bool) {\n        require(proof.length < 32);  // 2**32 ~ 4.3e9 leaves!\n        require(proof.length == isLeft.length);\n\n        bytes32 targetHash = targetLeaf;\n        for (uint256 i = 0; i < proof.length; i++) {\n            bytes32 proofEle = proof[i];\n            if (isLeft[i]) {\n                targetHash = keccak256(abi.encodePacked(proofEle, targetHash));\n            } else if (!isLeft[i]) {\n                targetHash = keccak256(abi.encodePacked(targetHash, proofEle));\n            } else {\n                return false;\n            }\n        }\n        return targetHash == _merkleRoot;\n    }\n\n    // TODO: update these calcLeaf()\n    // function calcLeaf(\n    //     uint _nonce,\n    //     bytes32 _ipfs,\n    //     uint _since,\n    //     uint _agree,\n    //     uint _disagree,\n    //     bytes32 _reply,\n    //     bytes32 _comment\n    // ) external view returns (bytes32) {\n    //     // note: the \"category\" field is not here yet\n    //     return keccak256(abi.encodePacked(_nonce, msg.sender, _ipfs, _since, _agree, _disagree, _reply, _comment));\n    // }\n\n\n    // query\n    function getBlockNo() external view returns (uint) {\n        return nowSblockNo;\n    }\n\n    function getBlockInfo(uint _sblockNo) external view returns (uint, bytes32, bytes32) {\n        // TODO: update the results\n        return (blockHistory[_sblockNo].blockHeight, blockHistory[_sblockNo].merkleRoot, blockHistory[_sblockNo].ipfsAddr);\n    }\n\n    function queryValidator(uint _idx) external view returns (address) {\n        require(_idx>=0 && _idx < 16);\n        return validators[_idx];\n    }\n\n    function isValidator(address _addr) external view returns (bool) {\n        if (_addr == address(0)) {\n            return false;\n        } else {\n            return (_addr == validators[0] || _addr == validators[1] || _addr == validators[2] ||\n                    _addr == validators[3] || _addr == validators[4] || _addr == validators[5] ||\n                    _addr == validators[6] || _addr == validators[7] || _addr == validators[8] ||\n                    _addr == validators[9] || _addr == validators[10] || _addr == validators[11] ||\n                    _addr == validators[12] || _addr == validators[13] || _addr == validators[14] ||\n                    _addr == validators[15]);\n        }\n    }\n\n    function queryManagers() external view returns (address[4] memory) {\n        return managers;\n    }\n\n    function queryOpRound() external view returns (uint) {\n        return opRound;\n    }\n\n    function queryOpRoundId(uint _opRound) external view returns (bytes32) {\n        if (_opRound != 0) {\n            return opRoundHistory[_opRound].id;\n        } else {\n            return opRoundHistory[opRound].id;  // current opRound\n        }\n    }\n\n    function queryOpRoundLottery(uint _opRound) external view returns (uint, uint, bytes32) {\n        uint i;\n        if (_opRound == 0) {\n            i = opRound;\n        } else {\n            i = _opRound;\n        }\n        return (i, opRoundHistory[i].lotteryBlockNo, opRoundHistory[i].lotteryWinNumber);\n    }\n\n    function queryOpRoundData(uint _opRound) external view returns (uint, bytes32, uint, uint, bytes32, bytes32) {\n        uint i;\n        if (_opRound == 0) {\n            i = opRound;\n        } else {\n            i = _opRound;\n        }\n        return (i, opRoundHistory[i].id,\n                opRoundHistory[i].initBlockNo, opRoundHistory[i].minSuccessRate,\n                opRoundHistory[i].succesRateDB, opRoundHistory[i].finalListIpfs);\n    }\n\n    function queryVoteThresholds() external view returns(uint, uint, uint) {\n        return (opRound, vote1Threshold, vote2Threshold);\n    }\n\n    // upgradable\n    function setValidator(address _newValidator, uint _idx) public managerOnly returns (bool) {\n        require(_newValidator != address(0));\n        require(_idx >=0 && _idx < 16);\n        validators[_idx] = _newValidator;\n        return true;\n    }\n\n    function setManager(address _newManager) public managerOnly returns (bool) {\n        // assume no need to change first 3 managers\n        managers[3] = _newManager;\n        return true;\n    }\n\n}\n",
  "sourcePath": "/home/kai/Work/project/OptractContract/contracts/BlockRegistry.sol",
  "compiler": {
    "name": "solc",
    "version": "0.5.2+commit.1df8f40c.Linux.g++"
  },
  "schemaVersion": "3.0.1",
  "updatedAt": "2019-06-28T09:43:50.890Z",
  "devdoc": {
    "methods": {}
  },
  "userdoc": {
    "methods": {}
  }
}