{
  "contractName": "BlockRegistry",
  "abi": [
    {
      "constant": true,
      "inputs": [],
      "name": "maxVoteTime",
      "outputs": [
        {
          "name": "",
          "type": "uint256"
        }
      ],
      "payable": false,
      "stateMutability": "view",
      "type": "function",
      "signature": "0x06937af5"
    },
    {
      "constant": true,
      "inputs": [],
      "name": "sblockTimeStep",
      "outputs": [
        {
          "name": "",
          "type": "uint256"
        }
      ],
      "payable": false,
      "stateMutability": "view",
      "type": "function",
      "signature": "0x17ca3256"
    },
    {
      "constant": true,
      "inputs": [
        {
          "name": "",
          "type": "uint256"
        }
      ],
      "name": "validators",
      "outputs": [
        {
          "name": "",
          "type": "address"
        }
      ],
      "payable": false,
      "stateMutability": "view",
      "type": "function",
      "signature": "0x35aa2e44"
    },
    {
      "constant": true,
      "inputs": [
        {
          "name": "",
          "type": "uint256"
        }
      ],
      "name": "managers",
      "outputs": [
        {
          "name": "",
          "type": "address"
        }
      ],
      "payable": false,
      "stateMutability": "view",
      "type": "function",
      "signature": "0x3d39c260"
    },
    {
      "constant": true,
      "inputs": [],
      "name": "articleCount",
      "outputs": [
        {
          "name": "",
          "type": "uint256"
        }
      ],
      "payable": false,
      "stateMutability": "view",
      "type": "function",
      "signature": "0x414e28b0"
    },
    {
      "constant": true,
      "inputs": [],
      "name": "vote1Threshold",
      "outputs": [
        {
          "name": "",
          "type": "uint256"
        }
      ],
      "payable": false,
      "stateMutability": "view",
      "type": "function",
      "signature": "0x417d63e9"
    },
    {
      "constant": true,
      "inputs": [],
      "name": "numRange",
      "outputs": [
        {
          "name": "",
          "type": "uint8"
        }
      ],
      "payable": false,
      "stateMutability": "view",
      "type": "function",
      "signature": "0x5080ad26"
    },
    {
      "constant": true,
      "inputs": [],
      "name": "roundVote2Count",
      "outputs": [
        {
          "name": "",
          "type": "uint256"
        }
      ],
      "payable": false,
      "stateMutability": "view",
      "type": "function",
      "signature": "0x7376faf2"
    },
    {
      "constant": true,
      "inputs": [],
      "name": "vote2Threshold",
      "outputs": [
        {
          "name": "",
          "type": "uint256"
        }
      ],
      "payable": false,
      "stateMutability": "view",
      "type": "function",
      "signature": "0x82eea47a"
    },
    {
      "constant": true,
      "inputs": [],
      "name": "atV1",
      "outputs": [
        {
          "name": "",
          "type": "bool"
        }
      ],
      "payable": false,
      "stateMutability": "view",
      "type": "function",
      "signature": "0x9bb71caa"
    },
    {
      "constant": true,
      "inputs": [],
      "name": "v1EndTime",
      "outputs": [
        {
          "name": "",
          "type": "uint256"
        }
      ],
      "payable": false,
      "stateMutability": "view",
      "type": "function",
      "signature": "0xa3629b04"
    },
    {
      "constant": true,
      "inputs": [],
      "name": "opRound",
      "outputs": [
        {
          "name": "",
          "type": "uint256"
        }
      ],
      "payable": false,
      "stateMutability": "view",
      "type": "function",
      "signature": "0xb9fedac7"
    },
    {
      "constant": true,
      "inputs": [],
      "name": "memberContractAddr",
      "outputs": [
        {
          "name": "",
          "type": "address"
        }
      ],
      "payable": false,
      "stateMutability": "view",
      "type": "function",
      "signature": "0xc170f356"
    },
    {
      "constant": true,
      "inputs": [],
      "name": "roundVote1Count",
      "outputs": [
        {
          "name": "",
          "type": "uint256"
        }
      ],
      "payable": false,
      "stateMutability": "view",
      "type": "function",
      "signature": "0xd64d8c02"
    },
    {
      "constant": true,
      "inputs": [
        {
          "name": "",
          "type": "uint256"
        }
      ],
      "name": "blockHistory",
      "outputs": [
        {
          "name": "validator",
          "type": "address"
        },
        {
          "name": "blockHeight",
          "type": "uint256"
        },
        {
          "name": "merkleRoot",
          "type": "bytes32"
        },
        {
          "name": "ipfsAddr",
          "type": "bytes32"
        },
        {
          "name": "timestamp",
          "type": "uint256"
        },
        {
          "name": "uniqArticleCount",
          "type": "uint256"
        },
        {
          "name": "vote1Count",
          "type": "uint256"
        },
        {
          "name": "vote2Count",
          "type": "uint256"
        },
        {
          "name": "opRoundId",
          "type": "bytes32"
        },
        {
          "name": "aidMerkleRoot",
          "type": "bytes32"
        },
        {
          "name": "aidIpfsAddr",
          "type": "bytes32"
        }
      ],
      "payable": false,
      "stateMutability": "view",
      "type": "function",
      "signature": "0xde250ace"
    },
    {
      "constant": true,
      "inputs": [],
      "name": "nowSblockNo",
      "outputs": [
        {
          "name": "",
          "type": "uint256"
        }
      ],
      "payable": false,
      "stateMutability": "view",
      "type": "function",
      "signature": "0xdeefebc1"
    },
    {
      "constant": true,
      "inputs": [],
      "name": "v2EndTime",
      "outputs": [
        {
          "name": "",
          "type": "uint256"
        }
      ],
      "payable": false,
      "stateMutability": "view",
      "type": "function",
      "signature": "0xfd0492b1"
    },
    {
      "inputs": [
        {
          "name": "_memberContractAddr",
          "type": "address"
        }
      ],
      "payable": false,
      "stateMutability": "nonpayable",
      "type": "constructor",
      "signature": "constructor"
    },
    {
      "constant": false,
      "inputs": [
        {
          "name": "_seconds",
          "type": "uint256"
        }
      ],
      "name": "updateMaxVoteTime",
      "outputs": [],
      "payable": false,
      "stateMutability": "nonpayable",
      "type": "function",
      "signature": "0x9786007a"
    },
    {
      "constant": false,
      "inputs": [
        {
          "name": "_x",
          "type": "uint256"
        },
        {
          "name": "_y",
          "type": "uint256"
        }
      ],
      "name": "setThreshold",
      "outputs": [],
      "payable": false,
      "stateMutability": "nonpayable",
      "type": "function",
      "signature": "0xb9c36209"
    },
    {
      "constant": false,
      "inputs": [
        {
          "name": "_merkleRoot",
          "type": "bytes32"
        },
        {
          "name": "_ipfsAddr",
          "type": "bytes32"
        },
        {
          "name": "_uniqArticleCount",
          "type": "uint256"
        },
        {
          "name": "_vote1Count",
          "type": "uint256"
        },
        {
          "name": "_vote2Count",
          "type": "uint256"
        },
        {
          "name": "_minSuccessRate",
          "type": "uint8"
        },
        {
          "name": "_baseline",
          "type": "uint256"
        },
        {
          "name": "_successRateDB",
          "type": "bytes32"
        },
        {
          "name": "_finalListIpfs",
          "type": "bytes32"
        },
        {
          "name": "_aidMerkleRoot",
          "type": "bytes32"
        },
        {
          "name": "_aidIpfsAddr",
          "type": "bytes32"
        }
      ],
      "name": "submitMerkleRoot",
      "outputs": [
        {
          "name": "",
          "type": "bool"
        }
      ],
      "payable": false,
      "stateMutability": "nonpayable",
      "type": "function",
      "signature": "0x5c1b185f"
    },
    {
      "constant": true,
      "inputs": [
        {
          "name": "v1Count",
          "type": "uint256"
        }
      ],
      "name": "isEnoughV1",
      "outputs": [
        {
          "name": "",
          "type": "bool"
        }
      ],
      "payable": false,
      "stateMutability": "view",
      "type": "function",
      "signature": "0x0137aca4"
    },
    {
      "constant": true,
      "inputs": [
        {
          "name": "v2Count",
          "type": "uint256"
        }
      ],
      "name": "isEnoughV2",
      "outputs": [
        {
          "name": "",
          "type": "bool"
        }
      ],
      "payable": false,
      "stateMutability": "view",
      "type": "function",
      "signature": "0x6cb0999b"
    },
    {
      "constant": true,
      "inputs": [
        {
          "name": "_mr",
          "type": "bytes32"
        },
        {
          "name": "_bhash",
          "type": "bytes32"
        }
      ],
      "name": "calcLotteryWinNumber",
      "outputs": [
        {
          "name": "",
          "type": "bytes32"
        }
      ],
      "payable": false,
      "stateMutability": "pure",
      "type": "function",
      "signature": "0x513536c1"
    },
    {
      "constant": true,
      "inputs": [
        {
          "name": "_ticket",
          "type": "bytes32"
        },
        {
          "name": "_digit",
          "type": "uint8"
        }
      ],
      "name": "_getBytes32HexNthDigit",
      "outputs": [
        {
          "name": "",
          "type": "bytes1"
        }
      ],
      "payable": false,
      "stateMutability": "pure",
      "type": "function",
      "signature": "0xd17eaa47"
    },
    {
      "constant": true,
      "inputs": [
        {
          "name": "_winHex",
          "type": "bytes32"
        },
        {
          "name": "_ticket",
          "type": "bytes32"
        },
        {
          "name": "_numRange",
          "type": "uint8"
        }
      ],
      "name": "lotteryWins",
      "outputs": [
        {
          "name": "",
          "type": "bool"
        }
      ],
      "payable": false,
      "stateMutability": "pure",
      "type": "function",
      "signature": "0x1b9d40ba"
    },
    {
      "constant": false,
      "inputs": [
        {
          "name": "_numRange",
          "type": "uint8"
        }
      ],
      "name": "setNumRange",
      "outputs": [],
      "payable": false,
      "stateMutability": "nonpayable",
      "type": "function",
      "signature": "0x19305d85"
    },
    {
      "constant": true,
      "inputs": [
        {
          "name": "_opRound",
          "type": "uint256"
        },
        {
          "name": "_ticket",
          "type": "bytes32"
        }
      ],
      "name": "isWinningTicket",
      "outputs": [
        {
          "name": "",
          "type": "bool"
        },
        {
          "name": "",
          "type": "uint8"
        }
      ],
      "payable": false,
      "stateMutability": "view",
      "type": "function",
      "signature": "0x53311f95"
    },
    {
      "constant": true,
      "inputs": [
        {
          "name": "proof",
          "type": "bytes32[]"
        },
        {
          "name": "isLeft",
          "type": "bool[]"
        },
        {
          "name": "txHash",
          "type": "bytes32"
        },
        {
          "name": "_sblockNo",
          "type": "uint256"
        }
      ],
      "name": "txExist",
      "outputs": [
        {
          "name": "",
          "type": "bool"
        }
      ],
      "payable": false,
      "stateMutability": "view",
      "type": "function",
      "signature": "0x316f0d84"
    },
    {
      "constant": true,
      "inputs": [
        {
          "name": "proof",
          "type": "bytes32[]"
        },
        {
          "name": "isLeft",
          "type": "bool[]"
        },
        {
          "name": "aid",
          "type": "bytes32"
        },
        {
          "name": "_sblockNo",
          "type": "uint256"
        }
      ],
      "name": "aidExist",
      "outputs": [
        {
          "name": "",
          "type": "bool"
        }
      ],
      "payable": false,
      "stateMutability": "view",
      "type": "function",
      "signature": "0xc9771591"
    },
    {
      "constant": true,
      "inputs": [
        {
          "name": "_signer",
          "type": "address"
        },
        {
          "name": "_msg",
          "type": "bytes32"
        },
        {
          "name": "_v",
          "type": "uint8"
        },
        {
          "name": "_r",
          "type": "bytes32"
        },
        {
          "name": "_s",
          "type": "bytes32"
        }
      ],
      "name": "verifySignature",
      "outputs": [
        {
          "name": "",
          "type": "bool"
        }
      ],
      "payable": false,
      "stateMutability": "pure",
      "type": "function",
      "signature": "0x02bf9e7f"
    },
    {
      "constant": false,
      "inputs": [
        {
          "name": "_opRound",
          "type": "uint256"
        },
        {
          "name": "proof",
          "type": "bytes32[]"
        },
        {
          "name": "isLeft",
          "type": "bool[]"
        },
        {
          "name": "txHash",
          "type": "bytes32"
        },
        {
          "name": "_sblockNo",
          "type": "uint256"
        }
      ],
      "name": "claimReward",
      "outputs": [
        {
          "name": "",
          "type": "bool"
        }
      ],
      "payable": false,
      "stateMutability": "nonpayable",
      "type": "function",
      "signature": "0xf3297aa3"
    },
    {
      "constant": true,
      "inputs": [
        {
          "name": "proof",
          "type": "bytes32[]"
        },
        {
          "name": "isLeft",
          "type": "bool[]"
        },
        {
          "name": "targetLeaf",
          "type": "bytes32"
        },
        {
          "name": "_merkleRoot",
          "type": "bytes32"
        }
      ],
      "name": "merkleTreeValidator",
      "outputs": [
        {
          "name": "",
          "type": "bool"
        }
      ],
      "payable": false,
      "stateMutability": "pure",
      "type": "function",
      "signature": "0xb8f69e37"
    },
    {
      "constant": true,
      "inputs": [],
      "name": "getBlockNo",
      "outputs": [
        {
          "name": "",
          "type": "uint256"
        }
      ],
      "payable": false,
      "stateMutability": "view",
      "type": "function",
      "signature": "0xfba0e4bb"
    },
    {
      "constant": true,
      "inputs": [
        {
          "name": "_sblockNo",
          "type": "uint256"
        }
      ],
      "name": "getBlockInfo",
      "outputs": [
        {
          "name": "",
          "type": "uint256"
        },
        {
          "name": "",
          "type": "bytes32"
        },
        {
          "name": "",
          "type": "bytes32"
        },
        {
          "name": "",
          "type": "bytes32"
        },
        {
          "name": "",
          "type": "bytes32"
        },
        {
          "name": "",
          "type": "bytes32"
        },
        {
          "name": "",
          "type": "address"
        }
      ],
      "payable": false,
      "stateMutability": "view",
      "type": "function",
      "signature": "0xbb141cf4"
    },
    {
      "constant": true,
      "inputs": [
        {
          "name": "_idx",
          "type": "uint256"
        }
      ],
      "name": "queryValidator",
      "outputs": [
        {
          "name": "",
          "type": "address"
        }
      ],
      "payable": false,
      "stateMutability": "view",
      "type": "function",
      "signature": "0x810e0b20"
    },
    {
      "constant": true,
      "inputs": [
        {
          "name": "_addr",
          "type": "address"
        }
      ],
      "name": "isValidator",
      "outputs": [
        {
          "name": "",
          "type": "bool"
        }
      ],
      "payable": false,
      "stateMutability": "view",
      "type": "function",
      "signature": "0xfacd743b"
    },
    {
      "constant": true,
      "inputs": [],
      "name": "queryManagers",
      "outputs": [
        {
          "name": "",
          "type": "address[4]"
        }
      ],
      "payable": false,
      "stateMutability": "view",
      "type": "function",
      "signature": "0xca48c69d"
    },
    {
      "constant": true,
      "inputs": [],
      "name": "queryOpRound",
      "outputs": [
        {
          "name": "",
          "type": "uint256"
        }
      ],
      "payable": false,
      "stateMutability": "view",
      "type": "function",
      "signature": "0x8ccbaca4"
    },
    {
      "constant": true,
      "inputs": [
        {
          "name": "_opRound",
          "type": "uint256"
        }
      ],
      "name": "queryOpRoundId",
      "outputs": [
        {
          "name": "",
          "type": "bytes32"
        }
      ],
      "payable": false,
      "stateMutability": "view",
      "type": "function",
      "signature": "0xd9eb08f6"
    },
    {
      "constant": true,
      "inputs": [
        {
          "name": "_opRound",
          "type": "uint256"
        }
      ],
      "name": "queryOpRoundLottery",
      "outputs": [
        {
          "name": "",
          "type": "uint256"
        },
        {
          "name": "",
          "type": "uint256"
        },
        {
          "name": "",
          "type": "bytes32"
        }
      ],
      "payable": false,
      "stateMutability": "view",
      "type": "function",
      "signature": "0x7c14de6c"
    },
    {
      "constant": true,
      "inputs": [
        {
          "name": "_opRound",
          "type": "uint256"
        }
      ],
      "name": "queryOpRoundInfo",
      "outputs": [
        {
          "name": "",
          "type": "uint256"
        },
        {
          "name": "",
          "type": "bytes32"
        },
        {
          "name": "",
          "type": "uint256"
        }
      ],
      "payable": false,
      "stateMutability": "view",
      "type": "function",
      "signature": "0x57ee34a6"
    },
    {
      "constant": true,
      "inputs": [
        {
          "name": "_opRound",
          "type": "uint256"
        }
      ],
      "name": "queryOpRoundResult",
      "outputs": [
        {
          "name": "",
          "type": "uint256"
        },
        {
          "name": "",
          "type": "bytes32"
        },
        {
          "name": "",
          "type": "uint256"
        },
        {
          "name": "",
          "type": "uint8"
        },
        {
          "name": "",
          "type": "bytes32"
        },
        {
          "name": "",
          "type": "bytes32"
        },
        {
          "name": "",
          "type": "uint256"
        },
        {
          "name": "",
          "type": "bytes32"
        },
        {
          "name": "",
          "type": "uint256"
        }
      ],
      "payable": false,
      "stateMutability": "view",
      "type": "function",
      "signature": "0xf47dae9a"
    },
    {
      "constant": true,
      "inputs": [],
      "name": "queryOpRoundProgress",
      "outputs": [
        {
          "name": "",
          "type": "uint256"
        },
        {
          "name": "",
          "type": "bool"
        },
        {
          "name": "",
          "type": "uint256"
        },
        {
          "name": "",
          "type": "uint256"
        },
        {
          "name": "",
          "type": "uint256"
        },
        {
          "name": "",
          "type": "uint256"
        }
      ],
      "payable": false,
      "stateMutability": "view",
      "type": "function",
      "signature": "0x2656de1a"
    },
    {
      "constant": true,
      "inputs": [],
      "name": "queryVoteThresholds",
      "outputs": [
        {
          "name": "",
          "type": "uint256"
        },
        {
          "name": "",
          "type": "uint256"
        },
        {
          "name": "",
          "type": "uint256"
        }
      ],
      "payable": false,
      "stateMutability": "view",
      "type": "function",
      "signature": "0x86e18f82"
    },
    {
      "constant": true,
      "inputs": [
        {
          "name": "_opRound",
          "type": "uint256"
        }
      ],
      "name": "queryFinalist",
      "outputs": [
        {
          "name": "",
          "type": "uint256"
        },
        {
          "name": "",
          "type": "uint256"
        },
        {
          "name": "",
          "type": "bytes32"
        }
      ],
      "payable": false,
      "stateMutability": "view",
      "type": "function",
      "signature": "0xec5caf2a"
    },
    {
      "constant": false,
      "inputs": [
        {
          "name": "_newValidator",
          "type": "address"
        },
        {
          "name": "_idx",
          "type": "uint256"
        }
      ],
      "name": "setValidator",
      "outputs": [
        {
          "name": "",
          "type": "bool"
        }
      ],
      "payable": false,
      "stateMutability": "nonpayable",
      "type": "function",
      "signature": "0xabb9406b"
    },
    {
      "constant": false,
      "inputs": [
        {
          "name": "_newManager",
          "type": "address"
        }
      ],
      "name": "setManager",
      "outputs": [
        {
          "name": "",
          "type": "bool"
        }
      ],
      "payable": false,
      "stateMutability": "nonpayable",
      "type": "function",
      "signature": "0xd0ebdbe7"
    }
  ],
  "bytecode": "0x60806040526103846016556028601b556028601c556008601f60016101000a81548160ff021916908360ff1602179055506103846020553480156200004357600080fd5b5060405160208062005de1833981018060405260208110156200006557600080fd5b810190808051906020019092919050505080601460006101000a81548173ffffffffffffffffffffffffffffffffffffffff021916908373ffffffffffffffffffffffffffffffffffffffff16021790555060806040519081016040528073b440ea2780614b3c6a00e512f432785e7dfafa3e73ffffffffffffffffffffffffffffffffffffffff1673ffffffffffffffffffffffffffffffffffffffff168152602001734ad56641c569c91c64c28a904cda50ae5326da4173ffffffffffffffffffffffffffffffffffffffff1673ffffffffffffffffffffffffffffffffffffffff16815260200173af7400787c54422be8b44154b1273661f1259ccd73ffffffffffffffffffffffffffffffffffffffff1673ffffffffffffffffffffffffffffffffffffffff168152602001600073ffffffffffffffffffffffffffffffffffffffff1673ffffffffffffffffffffffffffffffffffffffff168152506000906004620001d8929190620006ad565b506102006040519081016040528073b440ea2780614b3c6a00e512f432785e7dfafa3e73ffffffffffffffffffffffffffffffffffffffff1673ffffffffffffffffffffffffffffffffffffffff168152602001734ad56641c569c91c64c28a904cda50ae5326da4173ffffffffffffffffffffffffffffffffffffffff1673ffffffffffffffffffffffffffffffffffffffff16815260200173af7400787c54422be8b44154b1273661f1259ccd73ffffffffffffffffffffffffffffffffffffffff1673ffffffffffffffffffffffffffffffffffffffff168152602001600073ffffffffffffffffffffffffffffffffffffffff1673ffffffffffffffffffffffffffffffffffffffff168152602001600073ffffffffffffffffffffffffffffffffffffffff1673ffffffffffffffffffffffffffffffffffffffff168152602001600073ffffffffffffffffffffffffffffffffffffffff1673ffffffffffffffffffffffffffffffffffffffff168152602001600073ffffffffffffffffffffffffffffffffffffffff1673ffffffffffffffffffffffffffffffffffffffff168152602001600073ffffffffffffffffffffffffffffffffffffffff1673ffffffffffffffffffffffffffffffffffffffff168152602001600073ffffffffffffffffffffffffffffffffffffffff1673ffffffffffffffffffffffffffffffffffffffff168152602001600073ffffffffffffffffffffffffffffffffffffffff1673ffffffffffffffffffffffffffffffffffffffff168152602001600073ffffffffffffffffffffffffffffffffffffffff1673ffffffffffffffffffffffffffffffffffffffff168152602001600073ffffffffffffffffffffffffffffffffffffffff1673ffffffffffffffffffffffffffffffffffffffff168152602001600073ffffffffffffffffffffffffffffffffffffffff1673ffffffffffffffffffffffffffffffffffffffff168152602001600073ffffffffffffffffffffffffffffffffffffffff1673ffffffffffffffffffffffffffffffffffffffff168152602001600073ffffffffffffffffffffffffffffffffffffffff1673ffffffffffffffffffffffffffffffffffffffff168152602001600073ffffffffffffffffffffffffffffffffffffffff1673ffffffffffffffffffffffffffffffffffffffff1681525060049060106200055f9291906200072f565b50610160604051908101604052803373ffffffffffffffffffffffffffffffffffffffff1681526020014381526020016000600102815260200160006001028152602001428152602001600081526020016000815260200160008152602001600060010281526020016000600102815260200160006001028152506021600080815260200190815260200160002060008201518160000160006101000a81548173ffffffffffffffffffffffffffffffffffffffff021916908373ffffffffffffffffffffffffffffffffffffffff1602179055506020820151816001015560408201518160020155606082015181600301556080820151816004015560a0820151816005015560c0820151816006015560e082015181600701556101008201518160080155610120820151816009015561014082015181600a0155905050600160158190555050620007f7565b82600481019282156200071c579160200282015b828111156200071b5782518260006101000a81548173ffffffffffffffffffffffffffffffffffffffff021916908373ffffffffffffffffffffffffffffffffffffffff16021790555091602001919060010190620006c1565b5b5090506200072b9190620007b1565b5090565b82601081019282156200079e579160200282015b828111156200079d5782518260006101000a81548173ffffffffffffffffffffffffffffffffffffffff021916908373ffffffffffffffffffffffffffffffffffffffff1602179055509160200191906001019062000743565b5b509050620007ad9190620007b1565b5090565b620007f491905b80821115620007f057600081816101000a81549073ffffffffffffffffffffffffffffffffffffffff021916905550600101620007b8565b5090565b90565b6155da80620008076000396000f3fe608060405234801561001057600080fd5b50600436106102b2576000357c0100000000000000000000000000000000000000000000000000000000900480638ccbaca411610184578063d0ebdbe7116100eb578063ec5caf2a116100a4578063ec5caf2a146111db578063f3297aa31461122b578063f47dae9a1461132f578063facd743b146113af578063fba0e4bb1461140b578063fd0492b114611429576102b2565b8063d0ebdbe714610fba578063d17eaa4714611016578063d64d8c02146110a9578063d9eb08f6146110c7578063de250ace14611109578063deefebc1146111bd576102b2565b8063b9c362091161013d578063b9c3620914610cc4578063b9fedac714610cfc578063bb141cf414610d1a578063c170f35614610db2578063c977159114610dfc578063ca48c69d14610f74576102b2565b80638ccbaca414610a5a5780639786007a14610a785780639bb71caa14610aa6578063a3629b0414610ac8578063abb9406b14610ae6578063b8f69e3714610b4c576102b2565b8063417d63e9116102285780636cb0999b116101e15780636cb0999b146108ee5780637376faf2146109345780637c14de6c14610952578063810e0b20146109a257806382eea47a14610a1057806386e18f8214610a2e576102b2565b8063417d63e9146107055780635080ad2614610723578063513536c11461074757806353311f951461079357806357ee34a6146107f05780635c1b185f14610840576102b2565b80631b9d40ba1161027a5780631b9d40ba146103f15780632656de1a1461044e578063316f0d841461049357806335aa2e441461060b5780633d39c26014610679578063414e28b0146106e7576102b2565b80630137aca4146102b757806302bf9e7f146102fd57806306937af51461038457806317ca3256146103a257806319305d85146103c0575b600080fd5b6102e3600480360360208110156102cd57600080fd5b8101908080359060200190929190505050611447565b604051808215151515815260200191505060405180910390f35b61036a600480360360a081101561031357600080fd5b81019080803573ffffffffffffffffffffffffffffffffffffffff16906020019092919080359060200190929190803560ff169060200190929190803590602001909291908035906020019092919050505061154c565b604051808215151515815260200191505060405180910390f35b61038c6115f3565b6040518082815260200191505060405180910390f35b6103aa6115f9565b6040518082815260200191505060405180910390f35b6103ef600480360360208110156103d657600080fd5b81019080803560ff1690602001909291905050506115ff565b005b6104346004803603606081101561040757600080fd5b810190808035906020019092919080359060200190929190803560ff16906020019092919050505061181b565b604051808215151515815260200191505060405180910390f35b61045661197e565b6040518087815260200186151515158152602001858152602001848152602001838152602001828152602001965050505050505060405180910390f35b6105f1600480360360808110156104a957600080fd5b81019080803590602001906401000000008111156104c657600080fd5b8201836020820111156104d857600080fd5b803590602001918460208302840111640100000000831117156104fa57600080fd5b919080806020026020016040519081016040528093929190818152602001838360200280828437600081840152601f19601f8201169050808301925050505050505091929192908035906020019064010000000081111561055a57600080fd5b82018360208201111561056c57600080fd5b8035906020019184602083028401116401000000008311171561058e57600080fd5b919080806020026020016040519081016040528093929190818152602001838360200280828437600081840152601f19601f82011690508083019250505050505050919291929080359060200190929190803590602001909291905050506119ba565b604051808215151515815260200191505060405180910390f35b6106376004803603602081101561062157600080fd5b8101908080359060200190929190505050611a21565b604051808273ffffffffffffffffffffffffffffffffffffffff1673ffffffffffffffffffffffffffffffffffffffff16815260200191505060405180910390f35b6106a56004803603602081101561068f57600080fd5b8101908080359060200190929190505050611a56565b604051808273ffffffffffffffffffffffffffffffffffffffff1673ffffffffffffffffffffffffffffffffffffffff16815260200191505060405180910390f35b6106ef611a8b565b6040518082815260200191505060405180910390f35b61070d611a91565b6040518082815260200191505060405180910390f35b61072b611a97565b604051808260ff1660ff16815260200191505060405180910390f35b61077d6004803603604081101561075d57600080fd5b810190808035906020019092919080359060200190929190505050611aaa565b6040518082815260200191505060405180910390f35b6107c9600480360360408110156107a957600080fd5b810190808035906020019092919080359060200190929190505050611ae3565b60405180831515151581526020018260ff1660ff1681526020019250505060405180910390f35b61081c6004803603602081101561080657600080fd5b8101908080359060200190929190505050611b22565b60405180848152602001838152602001828152602001935050505060405180910390f35b6108d4600480360361016081101561085757600080fd5b810190808035906020019092919080359060200190929190803590602001909291908035906020019092919080359060200190929190803560ff1690602001909291908035906020019092919080359060200190929190803590602001909291908035906020019092919080359060200190929190505050611b7c565b604051808215151515815260200191505060405180910390f35b61091a6004803603602081101561090457600080fd5b8101908080359060200190929190505050612e4e565b604051808215151515815260200191505060405180910390f35b61093c612f54565b6040518082815260200191505060405180910390f35b61097e6004803603602081101561096857600080fd5b8101908080359060200190929190505050612f5a565b60405180848152602001838152602001828152602001935050505060405180910390f35b6109ce600480360360208110156109b857600080fd5b8101908080359060200190929190505050612fb4565b604051808273ffffffffffffffffffffffffffffffffffffffff1673ffffffffffffffffffffffffffffffffffffffff16815260200191505060405180910390f35b610a18613009565b6040518082815260200191505060405180910390f35b610a3661300f565b60405180848152602001838152602001828152602001935050505060405180910390f35b610a62613028565b6040518082815260200191505060405180910390f35b610aa460048036036020811015610a8e57600080fd5b8101908080359060200190929190505050613032565b005b610aae613708565b604051808215151515815260200191505060405180910390f35b610ad061371b565b6040518082815260200191505060405180910390f35b610b3260048036036040811015610afc57600080fd5b81019080803573ffffffffffffffffffffffffffffffffffffffff16906020019092919080359060200190929190505050613721565b604051808215151515815260200191505060405180910390f35b610caa60048036036080811015610b6257600080fd5b8101908080359060200190640100000000811115610b7f57600080fd5b820183602082011115610b9157600080fd5b80359060200191846020830284011164010000000083111715610bb357600080fd5b919080806020026020016040519081016040528093929190818152602001838360200280828437600081840152601f19601f82011690508083019250505050505050919291929080359060200190640100000000811115610c1357600080fd5b820183602082011115610c2557600080fd5b80359060200191846020830284011164010000000083111715610c4757600080fd5b919080806020026020016040519081016040528093929190818152602001838360200280828437600081840152601f19601f82011690508083019250505050505050919291929080359060200190929190803590602001909291905050506139ae565b604051808215151515815260200191505060405180910390f35b610cfa60048036036040811015610cda57600080fd5b810190808035906020019092919080359060200190929190505050613ad2565b005b610d046141cd565b6040518082815260200191505060405180910390f35b610d4660048036036020811015610d3057600080fd5b81019080803590602001909291905050506141d3565b604051808881526020018781526020018681526020018581526020018481526020018381526020018273ffffffffffffffffffffffffffffffffffffffff1673ffffffffffffffffffffffffffffffffffffffff16815260200197505050505050505060405180910390f35b610dba6142b8565b604051808273ffffffffffffffffffffffffffffffffffffffff1673ffffffffffffffffffffffffffffffffffffffff16815260200191505060405180910390f35b610f5a60048036036080811015610e1257600080fd5b8101908080359060200190640100000000811115610e2f57600080fd5b820183602082011115610e4157600080fd5b80359060200191846020830284011164010000000083111715610e6357600080fd5b919080806020026020016040519081016040528093929190818152602001838360200280828437600081840152601f19601f82011690508083019250505050505050919291929080359060200190640100000000811115610ec357600080fd5b820183602082011115610ed557600080fd5b80359060200191846020830284011164010000000083111715610ef757600080fd5b919080806020026020016040519081016040528093929190818152602001838360200280828437600081840152601f19601f82011690508083019250505050505050919291929080359060200190929190803590602001909291905050506142de565b604051808215151515815260200191505060405180910390f35b610f7c614345565b6040518082600460200280838360005b83811015610fa7578082015181840152602081019050610f8c565b5050505090500191505060405180910390f35b610ffc60048036036020811015610fd057600080fd5b81019080803573ffffffffffffffffffffffffffffffffffffffff1690602001909291905050506143c6565b604051808215151515815260200191505060405180910390f35b61104f6004803603604081101561102c57600080fd5b8101908080359060200190929190803560ff1690602001909291905050506145fb565b60405180827effffffffffffffffffffffffffffffffffffffffffffffffffffffffffffff19167effffffffffffffffffffffffffffffffffffffffffffffffffffffffffffff1916815260200191505060405180910390f35b6110b1614778565b6040518082815260200191505060405180910390f35b6110f3600480360360208110156110dd57600080fd5b810190808035906020019092919050505061477e565b6040518082815260200191505060405180910390f35b6111356004803603602081101561111f57600080fd5b81019080803590602001909291905050506147c8565b604051808c73ffffffffffffffffffffffffffffffffffffffff1673ffffffffffffffffffffffffffffffffffffffff1681526020018b81526020018a81526020018981526020018881526020018781526020018681526020018581526020018481526020018381526020018281526020019b50505050505050505050505060405180910390f35b6111c5614842565b6040518082815260200191505060405180910390f35b611207600480360360208110156111f157600080fd5b8101908080359060200190929190505050614848565b60405180848152602001838152602001828152602001935050505060405180910390f35b611315600480360360a081101561124157600080fd5b81019080803590602001909291908035906020019064010000000081111561126857600080fd5b82018360208201111561127a57600080fd5b8035906020019184602083028401116401000000008311171561129c57600080fd5b9091929391929390803590602001906401000000008111156112bd57600080fd5b8201836020820111156112cf57600080fd5b803590602001918460208302840111640100000000831117156112f157600080fd5b909192939192939080359060200190929190803590602001909291905050506148a2565b604051808215151515815260200191505060405180910390f35b61135b6004803603602081101561134557600080fd5b8101908080359060200190929190505050614ac8565b604051808a81526020018981526020018881526020018760ff1660ff168152602001868152602001858152602001848152602001838152602001828152602001995050505050505050505060405180910390f35b6113f1600480360360208110156113c557600080fd5b81019080803573ffffffffffffffffffffffffffffffffffffffff169060200190929190505050614be2565b604051808215151515815260200191505060405180910390f35b611413615291565b6040518082815260200191505060405180910390f35b61143161529b565b6040518082815260200191505060405180910390f35b600080601460009054906101000a900473ffffffffffffffffffffffffffffffffffffffff1673ffffffffffffffffffffffffffffffffffffffff166322faa41f6040518163ffffffff167c010000000000000000000000000000000000000000000000000000000002815260040160206040518083038186803b1580156114ce57600080fd5b505afa1580156114e2573d6000803e3d6000fd5b505050506040513d60208110156114f857600080fd5b810190808051906020019092919050505090506003811015151561151b57600080fd5b6000818460640281151561152b57fe5b049050601b548110151561154457600192505050611547565b50505b919050565b60008060018686868660405160008152602001604052604051808581526020018460ff1660ff1681526020018381526020018281526020019450505050506020604051602081039080840390855afa1580156115ac573d6000803e3d6000fd5b5050506020604051035190508073ffffffffffffffffffffffffffffffffffffffff168773ffffffffffffffffffffffffffffffffffffffff161491505095945050505050565b60205481565b60165481565b600073ffffffffffffffffffffffffffffffffffffffff163373ffffffffffffffffffffffffffffffffffffffff161415151561163b57600080fd5b60008060048110151561164a57fe5b0160009054906101000a900473ffffffffffffffffffffffffffffffffffffffff1673ffffffffffffffffffffffffffffffffffffffff163373ffffffffffffffffffffffffffffffffffffffff1614806117015750600060016004811015156116b057fe5b0160009054906101000a900473ffffffffffffffffffffffffffffffffffffffff1673ffffffffffffffffffffffffffffffffffffffff163373ffffffffffffffffffffffffffffffffffffffff16145b8061176857506000600260048110151561171757fe5b0160009054906101000a900473ffffffffffffffffffffffffffffffffffffffff1673ffffffffffffffffffffffffffffffffffffffff163373ffffffffffffffffffffffffffffffffffffffff16145b806117cf57506000600360048110151561177e57fe5b0160009054906101000a900473ffffffffffffffffffffffffffffffffffffffff1673ffffffffffffffffffffffffffffffffffffffff163373ffffffffffffffffffffffffffffffffffffffff16145b15156117da57600080fd5b60018160ff16101580156117f25750600f8160ff1611155b15156117fd57600080fd5b80601f60016101000a81548160ff021916908360ff16021790555050565b600060018260ff1610158015611835575060108260ff1611155b151561184057600080fd5b6000600461184f8660006145fb565b7f0100000000000000000000000000000000000000000000000000000000000000900460ff1681151561187e57fe5b069050600061188e86603f6145fb565b90506000817f0100000000000000000000000000000000000000000000000000000000000000900490506000601086830160ff168115156118cb57fe5b06905060006118dd8886603f036145fb565b7f0100000000000000000000000000000000000000000000000000000000000000900490508260ff168260ff161115611943578260ff168160ff161015801561192b57508160ff168160ff16105b1561193e57600195505050505050611977565b611971565b8260ff168160ff1610158061195d57508160ff168160ff16105b1561197057600195505050505050611977565b5b50505050505b9392505050565b600080600080600080601854601f60009054906101000a900460ff16601d54601e54601954601a54955095509550955095509550909192939495565b6000601554821015156119cc57600080fd5b60006001026021600084815260200190815260200160002060020154141515156119f557600080fd5b611a1785858560216000878152602001908152602001600020600201546139ae565b9050949350505050565b600481601081101515611a3057fe5b016000915054906101000a900473ffffffffffffffffffffffffffffffffffffffff1681565b600081600481101515611a6557fe5b016000915054906101000a900473ffffffffffffffffffffffffffffffffffffffff1681565b60185481565b601b5481565b601f60019054906101000a900460ff1681565b60008282604051602001808381526020018281526020019250505060405160208183030381529060405280519060200120905092915050565b600080611af084846152a1565b6022600060018703815260200190815260200160002060040160009054906101000a900460ff16915091509250929050565b6000806000806000851415611b3b576017549050611b3f565b8490505b8060226000838152602001908152602001600020600001546022600084815260200190815260200160002060010154935093509350509193909250565b60008073ffffffffffffffffffffffffffffffffffffffff163373ffffffffffffffffffffffffffffffffffffffff1614151515611bb957600080fd5b60046000601081101515611bc957fe5b0160009054906101000a900473ffffffffffffffffffffffffffffffffffffffff1673ffffffffffffffffffffffffffffffffffffffff163373ffffffffffffffffffffffffffffffffffffffff161480611c80575060046001601081101515611c2f57fe5b0160009054906101000a900473ffffffffffffffffffffffffffffffffffffffff1673ffffffffffffffffffffffffffffffffffffffff163373ffffffffffffffffffffffffffffffffffffffff16145b80611ce7575060046002601081101515611c9657fe5b0160009054906101000a900473ffffffffffffffffffffffffffffffffffffffff1673ffffffffffffffffffffffffffffffffffffffff163373ffffffffffffffffffffffffffffffffffffffff16145b80611d4e575060046003601081101515611cfd57fe5b0160009054906101000a900473ffffffffffffffffffffffffffffffffffffffff1673ffffffffffffffffffffffffffffffffffffffff163373ffffffffffffffffffffffffffffffffffffffff16145b80611db45750600480601081101515611d6357fe5b0160009054906101000a900473ffffffffffffffffffffffffffffffffffffffff1673ffffffffffffffffffffffffffffffffffffffff163373ffffffffffffffffffffffffffffffffffffffff16145b80611e1b575060046005601081101515611dca57fe5b0160009054906101000a900473ffffffffffffffffffffffffffffffffffffffff1673ffffffffffffffffffffffffffffffffffffffff163373ffffffffffffffffffffffffffffffffffffffff16145b80611e82575060046006601081101515611e3157fe5b0160009054906101000a900473ffffffffffffffffffffffffffffffffffffffff1673ffffffffffffffffffffffffffffffffffffffff163373ffffffffffffffffffffffffffffffffffffffff16145b80611ee9575060046007601081101515611e9857fe5b0160009054906101000a900473ffffffffffffffffffffffffffffffffffffffff1673ffffffffffffffffffffffffffffffffffffffff163373ffffffffffffffffffffffffffffffffffffffff16145b80611f50575060046008601081101515611eff57fe5b0160009054906101000a900473ffffffffffffffffffffffffffffffffffffffff1673ffffffffffffffffffffffffffffffffffffffff163373ffffffffffffffffffffffffffffffffffffffff16145b80611fb7575060046009601081101515611f6657fe5b0160009054906101000a900473ffffffffffffffffffffffffffffffffffffffff1673ffffffffffffffffffffffffffffffffffffffff163373ffffffffffffffffffffffffffffffffffffffff16145b8061201e57506004600a601081101515611fcd57fe5b0160009054906101000a900473ffffffffffffffffffffffffffffffffffffffff1673ffffffffffffffffffffffffffffffffffffffff163373ffffffffffffffffffffffffffffffffffffffff16145b8061208557506004600b60108110151561203457fe5b0160009054906101000a900473ffffffffffffffffffffffffffffffffffffffff1673ffffffffffffffffffffffffffffffffffffffff163373ffffffffffffffffffffffffffffffffffffffff16145b806120ec57506004600c60108110151561209b57fe5b0160009054906101000a900473ffffffffffffffffffffffffffffffffffffffff1673ffffffffffffffffffffffffffffffffffffffff163373ffffffffffffffffffffffffffffffffffffffff16145b8061215357506004600d60108110151561210257fe5b0160009054906101000a900473ffffffffffffffffffffffffffffffffffffffff1673ffffffffffffffffffffffffffffffffffffffff163373ffffffffffffffffffffffffffffffffffffffff16145b806121ba57506004600e60108110151561216957fe5b0160009054906101000a900473ffffffffffffffffffffffffffffffffffffffff1673ffffffffffffffffffffffffffffffffffffffff163373ffffffffffffffffffffffffffffffffffffffff16145b8061222157506004600f6010811015156121d057fe5b0160009054906101000a900473ffffffffffffffffffffffffffffffffffffffff1673ffffffffffffffffffffffffffffffffffffffff163373ffffffffffffffffffffffffffffffffffffffff16145b151561222c57600080fd5b60786021600060016015540381526020019081526020016000206004015401421015151561225957600080fd5b60056021600060016015540381526020019081526020016000206001015401431015151561228657600080fd5b60006001028c1415801561229e575060006001028b14155b15156122a957600080fd5b8b60216000600160155403815260200190815260200160002060020154141580156122ef57508a6021600060016015540381526020019081526020016000206003015414155b15156122fa57600080fd5b60006021600060155481526020019081526020016000206001015414801561233d5750600060010260216000601554815260200190815260200160002060020154145b80156123645750600060010260216000601554815260200190815260200160002060030154145b80156123885750600060216000601554815260200190815260200160002060040154145b151561239357600080fd5b60008760ff16101580156123aa575060648760ff16105b15156123b557600080fd5b600060010283141580156123cd575060006001028214155b15156123d857600080fd5b60006017541480156123ef575060078a6018540110155b1561255757610160604051908101604052803373ffffffffffffffffffffffffffffffffffffffff1681526020014381526020018d81526020018c81526020014281526020018b81526020018a81526020018981526020016022600060175481526020019081526020016000206000015481526020018481526020018381525060216000601554815260200190815260200160002060008201518160000160006101000a81548173ffffffffffffffffffffffffffffffffffffffff021916908373ffffffffffffffffffffffffffffffffffffffff1602179055506020820151816001015560408201518160020155606082015181600301556080820151816004015560a0820151816005015560c0820151816006015560e082015181600701556101008201518160080155610120820151816009015561014082015181600a015590505042601e819055506125528c60008060006001026000600102615318565b612e2a565b6000601754141580156125765750601f60009054906101000a900460ff165b80156125875750602054601e544203115b1561270157610160604051908101604052803373ffffffffffffffffffffffffffffffffffffffff1681526020014381526020018d81526020018c81526020014281526020018b81526020018a81526020018981526020016022600060175481526020019081526020016000206000015481526020018481526020018381525060216000601554815260200190815260200160002060008201518160000160006101000a81548173ffffffffffffffffffffffffffffffffffffffff021916908373ffffffffffffffffffffffffffffffffffffffff1602179055506020820151816001015560408201518160020155606082015181600301556080820151816004015560a0820151816005015560c0820151816006015560e082015181600701556101008201518160080155610120820151816009015561014082015181600a015590505060014203601d8190555042601e819055506126e9601b5461550c565b601b819055506126fc8c88888888615318565b612e29565b6000601754141580156127205750601f60009054906101000a900460ff165b801561273557506127348960195401611447565b5b156129525760006022600060175481526020019081526020016000206002015414801561277d5750600060010260226000601754815260200190815260200160002060030154145b151561278857600080fd5b610160604051908101604052803373ffffffffffffffffffffffffffffffffffffffff1681526020014381526020018d81526020018c81526020014281526020018b81526020018a81526020018981526020016022600060175481526020019081526020016000206000015481526020018481526020018381525060216000601554815260200190815260200160002060008201518160000160006101000a81548173ffffffffffffffffffffffffffffffffffffffff021916908373ffffffffffffffffffffffffffffffffffffffff1602179055506020820151816001015560408201518160020155606082015181600301556080820151816004015560a0820151816005015560c0820151816006015560e082015181600701556101008201518160080155610120820151816009015561014082015181600a015590505042601d819055506128db601b54615540565b601b819055506015546022600060175481526020019081526020016000206002018190555061290e8c6001430340611aaa565b602260006017548152602001908152602001600020600301819055506000601a819055506000601f60006101000a81548160ff021916908315150217905550612e28565b600060175414158015612978575060001515601f60009054906101000a900460ff161515145b80156129895750602054601d544203115b15612af957610160604051908101604052803373ffffffffffffffffffffffffffffffffffffffff1681526020014381526020018d81526020018c81526020014281526020018b81526020018a81526020018981526020016022600060175481526020019081526020016000206000015481526020018481526020018381525060216000601554815260200190815260200160002060008201518160000160006101000a81548173ffffffffffffffffffffffffffffffffffffffff021916908373ffffffffffffffffffffffffffffffffffffffff1602179055506020820151816001015560408201518160020155606082015181600301556080820151816004015560a0820151816005015560c0820151816006015560e082015181600701556101008201518160080155610120820151816009015561014082015181600a0155905050612ada601c5461550c565b601c8190555042601e81905550612af48c88888888615318565b612e27565b600060175414158015612b1f575060001515601f60009054906101000a900460ff161515145b8015612b345750612b3388601a5401612e4e565b5b15612cb45760018610151515612b4957600080fd5b610160604051908101604052803373ffffffffffffffffffffffffffffffffffffffff1681526020014381526020018d81526020018c81526020014281526020018b81526020018a81526020018981526020016022600060175481526020019081526020016000206000015481526020018481526020018381525060216000601554815260200190815260200160002060008201518160000160006101000a81548173ffffffffffffffffffffffffffffffffffffffff021916908373ffffffffffffffffffffffffffffffffffffffff1602179055506020820151816001015560408201518160020155606082015181600301556080820151816004015560a0820151816005015560c0820151816006015560e082015181600701556101008201518160080155610120820151816009015561014082015181600a0155905050612c95601c54615540565b601c8190555042601e81905550612caf8c88888888615318565b612e26565b8860196000828254019250508190555087601a6000828254019250508190555089601860008282540192505081905550610160604051908101604052803373ffffffffffffffffffffffffffffffffffffffff1681526020014381526020018d81526020018c81526020014281526020018b81526020018a81526020018981526020016022600060175481526020019081526020016000206000015481526020018481526020018381525060216000601554815260200190815260200160002060008201518160000160006101000a81548173ffffffffffffffffffffffffffffffffffffffff021916908373ffffffffffffffffffffffffffffffffffffffff1602179055506020820151816001015560408201518160020155606082015181600301556080820151816004015560a0820151816005015560c0820151816006015560e082015181600701556101008201518160080155610120820151816009015561014082015181600a01559050505b5b5b5b5b6001601560008282540192505081905550600190509b9a5050505050505050505050565b600080601460009054906101000a900473ffffffffffffffffffffffffffffffffffffffff1673ffffffffffffffffffffffffffffffffffffffff166322faa41f6040518163ffffffff167c010000000000000000000000000000000000000000000000000000000002815260040160206040518083038186803b158015612ed557600080fd5b505afa158015612ee9573d6000803e3d6000fd5b505050506040513d6020811015612eff57600080fd5b8101908080519060200190929190505050905060038110151515612f2257600080fd5b6000818461032002811515612f3357fe5b049050601c5481101515612f4c57600192505050612f4f565b50505b919050565b601a5481565b6000806000806000851415612f73576017549050612f77565b8490505b8060226000838152602001908152602001600020600201546022600084815260200190815260200160002060030154935093509350509193909250565b6000808210158015612fc65750601082105b1515612fd157600080fd5b600482601081101515612fe057fe5b0160009054906101000a900473ffffffffffffffffffffffffffffffffffffffff169050919050565b601c5481565b6000806000601754601b54601c54925092509250909192565b6000601754905090565b600073ffffffffffffffffffffffffffffffffffffffff163373ffffffffffffffffffffffffffffffffffffffff161415151561306e57600080fd5b6004600060108110151561307e57fe5b0160009054906101000a900473ffffffffffffffffffffffffffffffffffffffff1673ffffffffffffffffffffffffffffffffffffffff163373ffffffffffffffffffffffffffffffffffffffff1614806131355750600460016010811015156130e457fe5b0160009054906101000a900473ffffffffffffffffffffffffffffffffffffffff1673ffffffffffffffffffffffffffffffffffffffff163373ffffffffffffffffffffffffffffffffffffffff16145b8061319c57506004600260108110151561314b57fe5b0160009054906101000a900473ffffffffffffffffffffffffffffffffffffffff1673ffffffffffffffffffffffffffffffffffffffff163373ffffffffffffffffffffffffffffffffffffffff16145b806132035750600460036010811015156131b257fe5b0160009054906101000a900473ffffffffffffffffffffffffffffffffffffffff1673ffffffffffffffffffffffffffffffffffffffff163373ffffffffffffffffffffffffffffffffffffffff16145b80613269575060048060108110151561321857fe5b0160009054906101000a900473ffffffffffffffffffffffffffffffffffffffff1673ffffffffffffffffffffffffffffffffffffffff163373ffffffffffffffffffffffffffffffffffffffff16145b806132d057506004600560108110151561327f57fe5b0160009054906101000a900473ffffffffffffffffffffffffffffffffffffffff1673ffffffffffffffffffffffffffffffffffffffff163373ffffffffffffffffffffffffffffffffffffffff16145b806133375750600460066010811015156132e657fe5b0160009054906101000a900473ffffffffffffffffffffffffffffffffffffffff1673ffffffffffffffffffffffffffffffffffffffff163373ffffffffffffffffffffffffffffffffffffffff16145b8061339e57506004600760108110151561334d57fe5b0160009054906101000a900473ffffffffffffffffffffffffffffffffffffffff1673ffffffffffffffffffffffffffffffffffffffff163373ffffffffffffffffffffffffffffffffffffffff16145b806134055750600460086010811015156133b457fe5b0160009054906101000a900473ffffffffffffffffffffffffffffffffffffffff1673ffffffffffffffffffffffffffffffffffffffff163373ffffffffffffffffffffffffffffffffffffffff16145b8061346c57506004600960108110151561341b57fe5b0160009054906101000a900473ffffffffffffffffffffffffffffffffffffffff1673ffffffffffffffffffffffffffffffffffffffff163373ffffffffffffffffffffffffffffffffffffffff16145b806134d357506004600a60108110151561348257fe5b0160009054906101000a900473ffffffffffffffffffffffffffffffffffffffff1673ffffffffffffffffffffffffffffffffffffffff163373ffffffffffffffffffffffffffffffffffffffff16145b8061353a57506004600b6010811015156134e957fe5b0160009054906101000a900473ffffffffffffffffffffffffffffffffffffffff1673ffffffffffffffffffffffffffffffffffffffff163373ffffffffffffffffffffffffffffffffffffffff16145b806135a157506004600c60108110151561355057fe5b0160009054906101000a900473ffffffffffffffffffffffffffffffffffffffff1673ffffffffffffffffffffffffffffffffffffffff163373ffffffffffffffffffffffffffffffffffffffff16145b8061360857506004600d6010811015156135b757fe5b0160009054906101000a900473ffffffffffffffffffffffffffffffffffffffff1673ffffffffffffffffffffffffffffffffffffffff163373ffffffffffffffffffffffffffffffffffffffff16145b8061366f57506004600e60108110151561361e57fe5b0160009054906101000a900473ffffffffffffffffffffffffffffffffffffffff1673ffffffffffffffffffffffffffffffffffffffff163373ffffffffffffffffffffffffffffffffffffffff16145b806136d657506004600f60108110151561368557fe5b0160009054906101000a900473ffffffffffffffffffffffffffffffffffffffff1673ffffffffffffffffffffffffffffffffffffffff163373ffffffffffffffffffffffffffffffffffffffff16145b15156136e157600080fd5b60b4811180156136f357506201518081105b15156136fe57600080fd5b8060208190555050565b601f60009054906101000a900460ff1681565b601d5481565b60008073ffffffffffffffffffffffffffffffffffffffff163373ffffffffffffffffffffffffffffffffffffffff161415151561375e57600080fd5b60008060048110151561376d57fe5b0160009054906101000a900473ffffffffffffffffffffffffffffffffffffffff1673ffffffffffffffffffffffffffffffffffffffff163373ffffffffffffffffffffffffffffffffffffffff1614806138245750600060016004811015156137d357fe5b0160009054906101000a900473ffffffffffffffffffffffffffffffffffffffff1673ffffffffffffffffffffffffffffffffffffffff163373ffffffffffffffffffffffffffffffffffffffff16145b8061388b57506000600260048110151561383a57fe5b0160009054906101000a900473ffffffffffffffffffffffffffffffffffffffff1673ffffffffffffffffffffffffffffffffffffffff163373ffffffffffffffffffffffffffffffffffffffff16145b806138f25750600060036004811015156138a157fe5b0160009054906101000a900473ffffffffffffffffffffffffffffffffffffffff1673ffffffffffffffffffffffffffffffffffffffff163373ffffffffffffffffffffffffffffffffffffffff16145b15156138fd57600080fd5b600073ffffffffffffffffffffffffffffffffffffffff168373ffffffffffffffffffffffffffffffffffffffff161415151561393957600080fd5b6000821015801561394a5750601082105b151561395557600080fd5b8260048360108110151561396557fe5b0160006101000a81548173ffffffffffffffffffffffffffffffffffffffff021916908373ffffffffffffffffffffffffffffffffffffffff1602179055506001905092915050565b6000602085511015156139c057600080fd5b835185511415156139d057600080fd5b600083905060008090505b8651811015613ac257600087828151811015156139f457fe5b9060200190602002015190508682815181101515613a0e57fe5b9060200190602002015115613a535780836040516020018083815260200182815260200192505050604051602081830303815290604052805190602001209250613ab4565b8682815181101515613a6157fe5b906020019060200201511515613aa75782816040516020018083815260200182815260200192505050604051602081830303815290604052805190602001209250613ab3565b60009350505050613aca565b5b5080806001019150506139db565b508281149150505b949350505050565b600073ffffffffffffffffffffffffffffffffffffffff163373ffffffffffffffffffffffffffffffffffffffff1614151515613b0e57600080fd5b60046000601081101515613b1e57fe5b0160009054906101000a900473ffffffffffffffffffffffffffffffffffffffff1673ffffffffffffffffffffffffffffffffffffffff163373ffffffffffffffffffffffffffffffffffffffff161480613bd5575060046001601081101515613b8457fe5b0160009054906101000a900473ffffffffffffffffffffffffffffffffffffffff1673ffffffffffffffffffffffffffffffffffffffff163373ffffffffffffffffffffffffffffffffffffffff16145b80613c3c575060046002601081101515613beb57fe5b0160009054906101000a900473ffffffffffffffffffffffffffffffffffffffff1673ffffffffffffffffffffffffffffffffffffffff163373ffffffffffffffffffffffffffffffffffffffff16145b80613ca3575060046003601081101515613c5257fe5b0160009054906101000a900473ffffffffffffffffffffffffffffffffffffffff1673ffffffffffffffffffffffffffffffffffffffff163373ffffffffffffffffffffffffffffffffffffffff16145b80613d095750600480601081101515613cb857fe5b0160009054906101000a900473ffffffffffffffffffffffffffffffffffffffff1673ffffffffffffffffffffffffffffffffffffffff163373ffffffffffffffffffffffffffffffffffffffff16145b80613d70575060046005601081101515613d1f57fe5b0160009054906101000a900473ffffffffffffffffffffffffffffffffffffffff1673ffffffffffffffffffffffffffffffffffffffff163373ffffffffffffffffffffffffffffffffffffffff16145b80613dd7575060046006601081101515613d8657fe5b0160009054906101000a900473ffffffffffffffffffffffffffffffffffffffff1673ffffffffffffffffffffffffffffffffffffffff163373ffffffffffffffffffffffffffffffffffffffff16145b80613e3e575060046007601081101515613ded57fe5b0160009054906101000a900473ffffffffffffffffffffffffffffffffffffffff1673ffffffffffffffffffffffffffffffffffffffff163373ffffffffffffffffffffffffffffffffffffffff16145b80613ea5575060046008601081101515613e5457fe5b0160009054906101000a900473ffffffffffffffffffffffffffffffffffffffff1673ffffffffffffffffffffffffffffffffffffffff163373ffffffffffffffffffffffffffffffffffffffff16145b80613f0c575060046009601081101515613ebb57fe5b0160009054906101000a900473ffffffffffffffffffffffffffffffffffffffff1673ffffffffffffffffffffffffffffffffffffffff163373ffffffffffffffffffffffffffffffffffffffff16145b80613f7357506004600a601081101515613f2257fe5b0160009054906101000a900473ffffffffffffffffffffffffffffffffffffffff1673ffffffffffffffffffffffffffffffffffffffff163373ffffffffffffffffffffffffffffffffffffffff16145b80613fda57506004600b601081101515613f8957fe5b0160009054906101000a900473ffffffffffffffffffffffffffffffffffffffff1673ffffffffffffffffffffffffffffffffffffffff163373ffffffffffffffffffffffffffffffffffffffff16145b8061404157506004600c601081101515613ff057fe5b0160009054906101000a900473ffffffffffffffffffffffffffffffffffffffff1673ffffffffffffffffffffffffffffffffffffffff163373ffffffffffffffffffffffffffffffffffffffff16145b806140a857506004600d60108110151561405757fe5b0160009054906101000a900473ffffffffffffffffffffffffffffffffffffffff1673ffffffffffffffffffffffffffffffffffffffff163373ffffffffffffffffffffffffffffffffffffffff16145b8061410f57506004600e6010811015156140be57fe5b0160009054906101000a900473ffffffffffffffffffffffffffffffffffffffff1673ffffffffffffffffffffffffffffffffffffffff163373ffffffffffffffffffffffffffffffffffffffff16145b8061417657506004600f60108110151561412557fe5b0160009054906101000a900473ffffffffffffffffffffffffffffffffffffffff1673ffffffffffffffffffffffffffffffffffffffff163373ffffffffffffffffffffffffffffffffffffffff16145b151561418157600080fd5b600582101580156141935750605f8211155b151561419e57600080fd5b600581101580156141b05750605f8111155b15156141bb57600080fd5b81601b8190555080601c819055505050565b60175481565b60008060008060008060006021600089815260200190815260200160002060010154602160008a815260200190815260200160002060020154602160008b815260200190815260200160002060030154602160008c815260200190815260200160002060090154602160008d8152602001908152602001600020600a0154602160008e815260200190815260200160002060080154602160008f815260200190815260200160002060000160009054906101000a900473ffffffffffffffffffffffffffffffffffffffff169650965096509650965096509650919395979092949650565b601460009054906101000a900473ffffffffffffffffffffffffffffffffffffffff1681565b6000601554821015156142f057600080fd5b600060010260216000848152602001908152602001600020600901541415151561431957600080fd5b61433b85858560216000878152602001908152602001600020600901546139ae565b9050949350505050565b61434d615561565b60006004806020026040519081016040528092919082600480156143bc576020028201915b8160009054906101000a900473ffffffffffffffffffffffffffffffffffffffff1673ffffffffffffffffffffffffffffffffffffffff1681526020019060010190808311614372575b5050505050905090565b60008073ffffffffffffffffffffffffffffffffffffffff163373ffffffffffffffffffffffffffffffffffffffff161415151561440357600080fd5b60008060048110151561441257fe5b0160009054906101000a900473ffffffffffffffffffffffffffffffffffffffff1673ffffffffffffffffffffffffffffffffffffffff163373ffffffffffffffffffffffffffffffffffffffff1614806144c957506000600160048110151561447857fe5b0160009054906101000a900473ffffffffffffffffffffffffffffffffffffffff1673ffffffffffffffffffffffffffffffffffffffff163373ffffffffffffffffffffffffffffffffffffffff16145b806145305750600060026004811015156144df57fe5b0160009054906101000a900473ffffffffffffffffffffffffffffffffffffffff1673ffffffffffffffffffffffffffffffffffffffff163373ffffffffffffffffffffffffffffffffffffffff16145b8061459757506000600360048110151561454657fe5b0160009054906101000a900473ffffffffffffffffffffffffffffffffffffffff1673ffffffffffffffffffffffffffffffffffffffff163373ffffffffffffffffffffffffffffffffffffffff16145b15156145a257600080fd5b81600060036004811015156145b357fe5b0160006101000a81548173ffffffffffffffffffffffffffffffffffffffff021916908373ffffffffffffffffffffffffffffffffffffffff16021790555060019050919050565b6000808260ff16101580156146145750603f8260ff1611155b151561461f57600080fd5b600160028360ff1681151561463057fe5b0660ff1614156146d85760108360028460ff1681151561464c57fe5b0460ff1660208110151561465c57fe5b1a7f0100000000000000000000000000000000000000000000000000000000000000027f0100000000000000000000000000000000000000000000000000000000000000900460ff168115156146ae57fe5b067f0100000000000000000000000000000000000000000000000000000000000000029050614772565b60108360028460ff168115156146ea57fe5b0460ff166020811015156146fa57fe5b1a7f0100000000000000000000000000000000000000000000000000000000000000027f0100000000000000000000000000000000000000000000000000000000000000900460ff1681151561474c57fe5b047f01000000000000000000000000000000000000000000000000000000000000000290505b92915050565b60195481565b600080821415156147a757602260008381526020019081526020016000206000015490506147c3565b6022600060175481526020019081526020016000206000015490505b919050565b60216020528060005260406000206000915090508060000160009054906101000a900473ffffffffffffffffffffffffffffffffffffffff169080600101549080600201549080600301549080600401549080600501549080600601549080600701549080600801549080600901549080600a015490508b565b60155481565b6000806000806000851415614861576017549050614865565b8490505b8060226000838152602001908152602001600020600501546022600084815260200190815260200160002060070154935093509350509193909250565b6000602260008981526020019081526020016000206002015482111515156148c957600080fd5b614957878780806020026020016040519081016040528093929190818152602001838360200280828437600081840152601f19601f82011690508083019250505050505050868680806020026020016040519081016040528093929190818152602001838360200280828437600081840152601f19601f8201169050808301925050505050505085856119ba565b151561496257600080fd5b61496c88846152a1565b151561497757600080fd5b60175488148061498b575060016017540188145b151561499657600080fd5b60001515602460008a815260200190815260200160002060003373ffffffffffffffffffffffffffffffffffffffff1673ffffffffffffffffffffffffffffffffffffffff16815260200190815260200160002060009054906101000a900460ff161515141515614a52576040517f08c379a000000000000000000000000000000000000000000000000000000000815260040180806020018281038252602a815260200180615585602a913960400191505060405180910390fd5b600160246000601754815260200190815260200160002060003373ffffffffffffffffffffffffffffffffffffffff1673ffffffffffffffffffffffffffffffffffffffff16815260200190815260200160002060006101000a81548160ff021916908315150217905550979650505050505050565b60008060008060008060008060008060006017548c1415614af457600090506002601754019150614afb565b8b90508b91505b80602260008481526020019081526020016000206000015460226000858152602001908152602001600020600101546022600086815260200190815260200160002060040160009054906101000a900460ff16602260008781526020019081526020016000206006015460226000888152602001908152602001600020600701546022600089815260200190815260200160002060020154602260008a815260200190815260200160002060030154602260008b8152602001908152602001600020600501549a509a509a509a509a509a509a509a509a5050509193959799909294969850565b60008073ffffffffffffffffffffffffffffffffffffffff168273ffffffffffffffffffffffffffffffffffffffff161415614c21576000905061528c565b60046000601081101515614c3157fe5b0160009054906101000a900473ffffffffffffffffffffffffffffffffffffffff1673ffffffffffffffffffffffffffffffffffffffff168273ffffffffffffffffffffffffffffffffffffffff161480614ce8575060046001601081101515614c9757fe5b0160009054906101000a900473ffffffffffffffffffffffffffffffffffffffff1673ffffffffffffffffffffffffffffffffffffffff168273ffffffffffffffffffffffffffffffffffffffff16145b80614d4f575060046002601081101515614cfe57fe5b0160009054906101000a900473ffffffffffffffffffffffffffffffffffffffff1673ffffffffffffffffffffffffffffffffffffffff168273ffffffffffffffffffffffffffffffffffffffff16145b80614db6575060046003601081101515614d6557fe5b0160009054906101000a900473ffffffffffffffffffffffffffffffffffffffff1673ffffffffffffffffffffffffffffffffffffffff168273ffffffffffffffffffffffffffffffffffffffff16145b80614e1c5750600480601081101515614dcb57fe5b0160009054906101000a900473ffffffffffffffffffffffffffffffffffffffff1673ffffffffffffffffffffffffffffffffffffffff168273ffffffffffffffffffffffffffffffffffffffff16145b80614e83575060046005601081101515614e3257fe5b0160009054906101000a900473ffffffffffffffffffffffffffffffffffffffff1673ffffffffffffffffffffffffffffffffffffffff168273ffffffffffffffffffffffffffffffffffffffff16145b80614eea575060046006601081101515614e9957fe5b0160009054906101000a900473ffffffffffffffffffffffffffffffffffffffff1673ffffffffffffffffffffffffffffffffffffffff168273ffffffffffffffffffffffffffffffffffffffff16145b80614f51575060046007601081101515614f0057fe5b0160009054906101000a900473ffffffffffffffffffffffffffffffffffffffff1673ffffffffffffffffffffffffffffffffffffffff168273ffffffffffffffffffffffffffffffffffffffff16145b80614fb8575060046008601081101515614f6757fe5b0160009054906101000a900473ffffffffffffffffffffffffffffffffffffffff1673ffffffffffffffffffffffffffffffffffffffff168273ffffffffffffffffffffffffffffffffffffffff16145b8061501f575060046009601081101515614fce57fe5b0160009054906101000a900473ffffffffffffffffffffffffffffffffffffffff1673ffffffffffffffffffffffffffffffffffffffff168273ffffffffffffffffffffffffffffffffffffffff16145b8061508657506004600a60108110151561503557fe5b0160009054906101000a900473ffffffffffffffffffffffffffffffffffffffff1673ffffffffffffffffffffffffffffffffffffffff168273ffffffffffffffffffffffffffffffffffffffff16145b806150ed57506004600b60108110151561509c57fe5b0160009054906101000a900473ffffffffffffffffffffffffffffffffffffffff1673ffffffffffffffffffffffffffffffffffffffff168273ffffffffffffffffffffffffffffffffffffffff16145b8061515457506004600c60108110151561510357fe5b0160009054906101000a900473ffffffffffffffffffffffffffffffffffffffff1673ffffffffffffffffffffffffffffffffffffffff168273ffffffffffffffffffffffffffffffffffffffff16145b806151bb57506004600d60108110151561516a57fe5b0160009054906101000a900473ffffffffffffffffffffffffffffffffffffffff1673ffffffffffffffffffffffffffffffffffffffff168273ffffffffffffffffffffffffffffffffffffffff16145b8061522257506004600e6010811015156151d157fe5b0160009054906101000a900473ffffffffffffffffffffffffffffffffffffffff1673ffffffffffffffffffffffffffffffffffffffff168273ffffffffffffffffffffffffffffffffffffffff16145b8061528957506004600f60108110151561523857fe5b0160009054906101000a900473ffffffffffffffffffffffffffffffffffffffff1673ffffffffffffffffffffffffffffffffffffffff168273ffffffffffffffffffffffffffffffffffffffff16145b90505b919050565b6000601554905090565b601e5481565b600060175483101580156152cf57506000600102602260008581526020019081526020016000206003015414155b15156152da57600080fd5b60006022600085815260200190815260200160002060030154905061530f8184601f60019054906101000a900460ff1661181b565b91505092915050565b60006019819055506000601a8190555060006018819055508360226000601754815260200190815260200160002060040160006101000a81548160ff021916908360ff1602179055508260226000601754815260200190815260200160002060050181905550816022600060175481526020019081526020016000206006018190555080602260006017548152602001908152602001600020600701819055506001601f60006101000a81548160ff021916908315150217905550600160176000828254019250508190555060008560175460405160200180838152602001828152602001925050506040516020818303038152906040528051906020012090506101006040519081016040528082815260200160016015540181526020016000815260200160006001028152602001600060ff168152602001600081526020016000600102815260200160006001028152506022600060175481526020019081526020016000206000820151816000015560208201518160010155604082015181600201556060820151816003015560808201518160040160006101000a81548160ff021916908360ff16021790555060a0820151816005015560c0820151816006015560e082015181600701559050506017546023600083815260200190815260200160002081905550505050505050565b600060648210151561552157605f905061553b565b600a821015156155365760058203905061553b565b600590505b919050565b6000605a821115156155575760058201905061555c565b605f90505b919050565b60806040519081016040528060049060208202803883398082019150509050509056fe416e206163636f756e742063616e206f6e6c7920636c61696d206f6e636520706572206f70526f756e64a165627a7a723058200b13f36d89c65a4cac99e0c2fa3170b206bd3cd09b41c1def1907797213430b70029",
  "source": "pragma solidity ^0.5.2;\nimport \"./lib/safe-math.sol\";\nimport \"./Interfaces/MemberShipInterface.sol\";\n\n// TODO: use safemath\n\ncontract BlockRegistry{\n    using SafeMath for uint256;\n\n    // Variables\n    address[4] public managers;  // use \"coreManagers\" and \"managers\" as in \"MemberShip.sol\"?\n    address[16] public validators;\n    address public memberContractAddr;\n    uint public nowSblockNo;  // start from 1\n    uint public sblockTimeStep = 15 minutes;  // it's a minimum timestep\n    // bool public opRoundStatus = true;  // need `true` for 1st round; or simply use \"pause/unpause\"?\n    uint public opRound;\n    uint public articleCount;\n    // variables with `v1` or `vote1`: lottery; with `v2` or `vote2`: claim\n    uint public roundVote1Count;\n    uint public roundVote2Count;\n    uint public vote1Threshold = 40;  // between 5 and 95, step 5\n    uint public vote2Threshold = 40;  // between 5 and 95, step 5\n    uint public v1EndTime;\n    uint public v2EndTime;\n    bool public atV1;\n    uint8 public numRange = 8;  // it means pick x out of 16 numbers; should eventually make it constant\n\n    uint public maxVoteTime = 15 minutes;  // an Opround cannot longer than 2*maxVoteTime; use small values for debug\n\n    struct blockStat{\n        address validator;\n        uint blockHeight;  // block.number while submission\n        bytes32 merkleRoot;  // IPFs hash string to bytes32: \n        bytes32 ipfsAddr;  // string to hex (in js): ethUtils.bufferToHex(bs58.decode(ipfsHash).slice(2));\n        uint timestamp;\n        uint uniqArticleCount;\n        uint vote1Count;\n        uint vote2Count;\n        bytes32 opRoundId;\n        bytes32 aidMerkleRoot;\n        bytes32 aidIpfsAddr;\n    }\n    mapping (uint => blockStat) public blockHistory;  // sblockNo to blockStat\n\n    struct opRoundStruct{\n        // update during creation of this opRound\n        bytes32 id;\n        uint initBlockNo;\n        // update in lottery-sblock\n        uint lotteryBlockNo;\n        bytes32 lotteryWinNumber;\n        // update in final-sblock\n        uint8 minSuccessRate;  // shoud be an integer between 0 and 100; this is used in next opRound\n        uint baseline;  // i.e, the total votes of the vote2 winner\n        bytes32 succesRateDB;  // IPFS contain success rate\n        bytes32 finalListIpfs;\n    }\n    mapping (uint => opRoundStruct) opRoundHistory;\n    mapping (bytes32 => uint) opRoundIdToNum;  // opRound id to opRound number\n    // mapping (uint => uint) public lotterySblockNo;  // give `opRound`, return the corresponding `sblock_no` while lottery happened\n    // mapping (uint => bytes32) public opRoundLog;  // opRound index to opRound id\n    mapping (uint => mapping(address => bool)) opRoundClaimed;\n\n    constructor(address _memberContractAddr) public {\n        memberContractAddr = _memberContractAddr;\n        managers = [ 0xB440ea2780614b3c6a00e512f432785E7dfAFA3E,\n                     0x4AD56641C569C91C64C28a904cda50AE5326Da41,\n                     0xaF7400787c54422Be8B44154B1273661f1259CcD,\n                     address(0)];\n        validators = [ 0xB440ea2780614b3c6a00e512f432785E7dfAFA3E,\n                       0x4AD56641C569C91C64C28a904cda50AE5326Da41,\n                       0xaF7400787c54422Be8B44154B1273661f1259CcD,\n                       address(0), address(0), address(0), address(0), address(0),\n                       address(0), address(0), address(0), address(0), address(0),\n                       address(0), address(0), address(0)];\n        // prevTimeStamp = block.timestamp - sblockTimeStep;\n        blockHistory[0] = blockStat(msg.sender, block.number, 0x0, 0x0, block.timestamp,\n                                    0, 0, 0, 0x0, 0x0, 0x0);\n        // opRoundHistory[0] = opRoundStruct(0x0000000000000000000000000000000000000000000000000000000000000001,\n        //                                   nowSblockNo, 0, 0x0, 0, 0, 0x0, 0x0);\n        nowSblockNo = 1;\n    }\n\n    // Modifiers\n    modifier managerOnly() {\n        require(msg.sender != address(0));\n        require(msg.sender == managers[0] || msg.sender == managers[1] || msg.sender == managers[2] || msg.sender == managers[3]);\n        _;\n    }\n\n    modifier validatorOnly() {\n        require(msg.sender != address(0));\n        require(msg.sender == validators[0] || msg.sender == validators[1] || msg.sender == validators[2] ||\n                msg.sender == validators[3] || msg.sender == validators[4] || msg.sender == validators[5] ||\n                msg.sender == validators[6] || msg.sender == validators[7] || msg.sender == validators[8] ||\n                msg.sender == validators[9] || msg.sender == validators[10] || msg.sender == validators[11] ||\n                msg.sender == validators[12] || msg.sender == validators[13] || msg.sender == validators[14] ||\n                msg.sender == validators[15]);\n        _;\n    }\n\n    // some adjustable functions only for developing phase\n    function updateMaxVoteTime(uint _seconds) public validatorOnly {\n        require(_seconds > 180 && _seconds < 86400);  // restrict to a range\n        maxVoteTime = _seconds;\n    }\n\n    function setThreshold(uint _x, uint _y) public validatorOnly{\n        require(_x >= 5 && _x <=95);\n        require(_y >= 5 && _y <=95);\n        vote1Threshold = _x;\n        vote2Threshold = _y;\n    }\n\n    // some internal functions\n    function _increaseThreshold(uint _x) internal pure returns(uint) {\n        if (_x <= 90) {\n            return _x + 5;\n        } else {\n            return 95;\n        }\n    }\n\n    function _decreaseThreshold(uint _x) internal pure returns(uint) {\n        if (_x >= 100) {\n            return 95;\n        } else if (_x >= 10) {\n            return _x - 5;\n        } else {\n            return 5;\n        }\n    }\n\n    function _toNextOpRound(bytes32 _mr, uint8 _minSuccessRate, uint _baseline, bytes32 _successRateDB, bytes32 _finalListIpfs) internal {\n        roundVote1Count = 0;\n        roundVote2Count = 0;\n        articleCount = 0;\n        // MemberShipInterface(memberContractAddr).updateActiveMemberCount(false);  // note: if too frequent, it will not update unless set 'forced=true'\n\n        // update current opRoundHistory\n        opRoundHistory[opRound].minSuccessRate = _minSuccessRate;  // next opRound need this\n        opRoundHistory[opRound].baseline = _baseline;\n        opRoundHistory[opRound].succesRateDB = _successRateDB;\n        opRoundHistory[opRound].finalListIpfs = _finalListIpfs;\n\n        // for next opRound\n        atV1 = true;\n        opRound += 1;\n        bytes32 _oid = bytes32(keccak256(abi.encodePacked(_mr, opRound)));\n        opRoundHistory[opRound] = opRoundStruct(_oid, nowSblockNo+1, 0, 0x0, 0, 0, 0x0, 0x0);\n        opRoundIdToNum[_oid] = opRound;\n    }\n\n    // create a new sblock\n    function submitMerkleRoot(\n        bytes32 _merkleRoot,\n        bytes32 _ipfsAddr,\n        uint _uniqArticleCount,\n        uint _vote1Count,\n        uint _vote2Count,\n        uint8 _minSuccessRate,\n        uint _baseline,\n        bytes32 _successRateDB,\n        bytes32 _finalListIpfs,\n        bytes32 _aidMerkleRoot,\n        bytes32 _aidIpfsAddr\n    ) public validatorOnly returns (bool) {\n        // Note: a `opRound` contains two parts: `(v1)vote` and `(v2)claim`,\n        //       (v2) may not happen if (v1) takes more than maxVoteTime.\n        // comment some \"require\"s for test purpose\n        // require(block.timestamp >= blockHistory[nowSblockNo] + sblockTimeStep, 'too soon');\n        require(block.timestamp >= blockHistory[nowSblockNo-1].timestamp + 2 minutes);  // 2 min is for test purpose, should be 1 hour(?)\n        require(block.number >= blockHistory[nowSblockNo-1].blockHeight + 5);  // 5 is for test purpose, should be ?\n        require(_merkleRoot != 0x0 && _ipfsAddr != 0x0);\n        require(blockHistory[nowSblockNo-1].merkleRoot != _merkleRoot && blockHistory[nowSblockNo-1].ipfsAddr != _ipfsAddr);  // prevent re-submission\n        require(blockHistory[nowSblockNo].blockHeight == 0 && blockHistory[nowSblockNo].merkleRoot == 0x0 &&\n                blockHistory[nowSblockNo].ipfsAddr == 0x0 && blockHistory[nowSblockNo].timestamp == 0);\n        require(_minSuccessRate >= 0 && _minSuccessRate < 100);  // need the equal for genesis round\n        require(_aidMerkleRoot != 0x0 && _aidIpfsAddr != 0x0);\n        // require: ...\n\n        // a sblock in a opRound cound be of type: genesis, lottery, lottery-NDR, finalist, finalist-NDR, or regular\n        // (NDR = no-draw-round)\n        if (opRound == 0 && articleCount + _uniqArticleCount >= 7) {  // genesis; set small number for test purpose\n            blockHistory[nowSblockNo] = blockStat(\n                msg.sender, block.number, _merkleRoot, _ipfsAddr, block.timestamp,\n                _uniqArticleCount, _vote1Count, _vote2Count, opRoundHistory[opRound].id,\n                _aidMerkleRoot, _aidIpfsAddr\n            );\n            v2EndTime = block.timestamp;  // although no 'claiming', still need to record a time\n            _toNextOpRound(_merkleRoot, 0, 0, 0x0, 0x0);\n        } else if (opRound != 0 && atV1 && (block.timestamp - v2EndTime > maxVoteTime)) {  // A \"no-draw-round\"! Proceed to next OpRound\n            // TODO: uncomment following lines?\n            // require(minSuccessRate == opRoundHistory[opRound-1].minSuccessRate);\n            // require(_baseline == 0);\n            // require(_finalListIpfs == '0x0');\n            // require(_successRateDB == opRoundHistory[opRound-1].succesRateDB);\n            blockHistory[nowSblockNo] = blockStat(\n                msg.sender, block.number, _merkleRoot, _ipfsAddr, block.timestamp,\n                _uniqArticleCount, _vote1Count, _vote2Count, opRoundHistory[opRound].id,\n                _aidMerkleRoot, _aidIpfsAddr\n            );\n            v1EndTime = block.timestamp-1;  // or don't update? BTW, subtract by 1 to make sure v2EndTime > v1Endtime (or no need?)\n            v2EndTime = block.timestamp;  // in case next submit() fall into this if-statement again\n            vote1Threshold = _decreaseThreshold(vote1Threshold);\n            // opRoundHistory[opRound].lotteryBlockNo = nowSblockNo;  // should keep it 0\n            _toNextOpRound(_merkleRoot, _minSuccessRate, _baseline, _successRateDB, _finalListIpfs);\n        } else if (opRound != 0 && atV1 && isEnoughV1(roundVote1Count+_vote1Count)) {  // lottery\n            require(opRoundHistory[opRound].lotteryBlockNo == 0 && opRoundHistory[opRound].lotteryWinNumber == 0x0);\n            blockHistory[nowSblockNo] = blockStat(\n                msg.sender, block.number, _merkleRoot, _ipfsAddr, block.timestamp,\n                _uniqArticleCount, _vote1Count, _vote2Count, opRoundHistory[opRound].id,\n                _aidMerkleRoot, _aidIpfsAddr\n            );\n            v1EndTime = block.timestamp;\n            vote1Threshold = _increaseThreshold(vote1Threshold);\n            opRoundHistory[opRound].lotteryBlockNo = nowSblockNo;\n            opRoundHistory[opRound].lotteryWinNumber = calcLotteryWinNumber(_merkleRoot, blockhash(block.number-1));\n            roundVote2Count = 0;  // should be 0 already but reset anyway\n            atV1 = false;\n        } else if (opRound != 0 && atV1 == false && (block.timestamp - v1EndTime > maxVoteTime)) {  // too long! End this Opround-v2 and proceed to next OpRound\n            // TODO: uncomment following lines?\n            // require(minSuccessRate == opRoundHistory[opRound-1].minSuccessRate);\n            // require(_baseline == 0);\n            // require(_finalListIpfs == '0x0');\n            // require(_successRateDB == opRoundHistory[opRound-1].succesRateDB);\n            blockHistory[nowSblockNo] = blockStat(\n                msg.sender, block.number, _merkleRoot, _ipfsAddr, block.timestamp,\n                _uniqArticleCount, _vote1Count, _vote2Count, opRoundHistory[opRound].id,\n                _aidMerkleRoot, _aidIpfsAddr\n            );\n            vote2Threshold = _decreaseThreshold(vote2Threshold);\n            v2EndTime = block.timestamp;\n            // should validator update new _successRateDB in NDR? should _baseline and finalListIpfs have values?\n            _toNextOpRound(_merkleRoot, _minSuccessRate, _baseline, _successRateDB, _finalListIpfs);\n        } else if (opRound != 0 && atV1 == false && isEnoughV2(roundVote2Count+_vote2Count)) { // finalist\n            // require(_finalListIpfs != 0x0 && _successRateDB != 0x0);\n            require(_baseline >= 1);  // what else reasonable value?\n            blockHistory[nowSblockNo] = blockStat(\n                msg.sender, block.number, _merkleRoot, _ipfsAddr, block.timestamp,\n                _uniqArticleCount, _vote1Count, _vote2Count, opRoundHistory[opRound].id,\n                _aidMerkleRoot, _aidIpfsAddr\n            );\n            vote2Threshold = _increaseThreshold(vote2Threshold);\n            v2EndTime = block.timestamp;\n            _toNextOpRound(_merkleRoot, _minSuccessRate, _baseline, _successRateDB, _finalListIpfs);\n        } else {  // regular sblock, only accumulate votes\n            roundVote1Count += _vote1Count;\n            roundVote2Count += _vote2Count;\n            articleCount += _uniqArticleCount;  // right now, this is only used in genesis\n            blockHistory[nowSblockNo] = blockStat(\n                msg.sender, block.number, _merkleRoot, _ipfsAddr, block.timestamp,\n                _uniqArticleCount, _vote1Count, _vote2Count, opRoundHistory[opRound].id,\n                _aidMerkleRoot, _aidIpfsAddr\n            );\n        }\n\n        nowSblockNo += 1;\n\n        return true;\n    }\n\n    function isEnoughV1(uint v1Count) public view returns (bool) {\n        uint activeMemberCount = MemberShipInterface(memberContractAddr).getActiveMemberCount();\n        require(activeMemberCount >= 3);  // '3' is num of coreManagers, or use 1? 100?\n        uint vote1Rate = (100 * v1Count) / activeMemberCount;\n        // assert(vote1Rate <= 100);  // not true if every can vote multiple times\n        if (vote1Rate >= vote1Threshold) {\n            return true;\n        }\n    }\n\n    function isEnoughV2(uint v2Count) public view returns (bool) {\n        uint activeMemberCount = MemberShipInterface(memberContractAddr).getActiveMemberCount();\n        require(activeMemberCount >= 3);  // '3' is num of coreManagers, or use 1? 100?\n        // vote2Rate select ABOUT 25% of people from 50% of member, i.e., ~1/8 of total members\n        // Here try to keep vote2Rate roughly in the range of 0 and 100, so multiply 8 back.\n        // Note that the '1/8' factor is uncertain, could either over or underestimated\n        uint vote2Rate = (8 * 100 * v2Count) / activeMemberCount;\n        if (vote2Rate >= vote2Threshold) {\n            return true;\n        }\n    }\n\n    // Lottery related\n    function calcLotteryWinNumber(bytes32 _mr, bytes32 _bhash) public pure returns(bytes32) {\n        // require(_mr != 0x0 && _bhash != 0x0);  // leave these checks to other function\n        return keccak256(abi.encodePacked(_mr, _bhash));\n    }\n\n    function _getBytes32HexNthDigit(bytes32 _ticket, uint8 _digit) public pure returns(bytes1){\n        require(_digit >=0 && _digit <=63);  // treat bytes32 as 64 hex characters\n        if (_digit % 2 == 1) {\n            return bytes1(uint8(_ticket[_digit/2])%16);  // _digit/2 = Math.floor(digit/2)\n        } else {\n            return bytes1(uint8(_ticket[_digit/2])/16);\n        }\n    }\n\n    function lotteryWins(bytes32 _winHex, bytes32 _ticket, uint8 _numRange) public pure returns(bool) {\n        // NOTE: in real product, should either record _numRange or make it constant\n        // Rule: A ticket wins if: it's X-th digit (count from behind) is Y\n        // where `X` is determined by first digit of `lotteryWinNumber` (in the range of 0 and 3)\n        // and `Y` is the last digit of `winHex`\n        // the rule of determining `X` and `Y` should sync with 'libSampleTicket.js' in 'OptractP2PCli'\n        require(_numRange >= 1 && _numRange <= 16);\n        uint8 refDigit = uint8(_getBytes32HexNthDigit(_winHex, 0)) % 4;\n        bytes1 winHexChar1 = _getBytes32HexNthDigit(_winHex, 63);  // last digit\n        uint8 w1 = uint8(winHexChar1);\n        uint8 w2 = (w1 + _numRange) % 16;\n        uint8 t = uint8(_getBytes32HexNthDigit(_ticket, 63 - refDigit));\n        if (w2 > w1)  {\n            if (t >= w1 && t < w2) {\n                return true;\n            }\n        } else {\n            if (t >= w1 || t < w2) {\n                return true;\n            }\n        }\n    }\n\n    function _isWinningTicket(uint _opRound, bytes32 _ticket) internal view returns(bool) {\n        require(_opRound >= opRound && opRoundHistory[_opRound].lotteryWinNumber != 0x0);\n        bytes32 winHex = opRoundHistory[_opRound].lotteryWinNumber;\n        return lotteryWins(winHex, _ticket, numRange);\n    }\n\n    function setNumRange(uint8 _numRange) public managerOnly {  // for test only\n        require(_numRange >= 1 && _numRange <=15);\n        numRange = _numRange;\n    }\n\n    function isWinningTicket(uint _opRound, bytes32 _ticket) public view returns(bool, uint8) {\n        // TODO: add all merkle validation arguments in order to verify the txHash is BEFORE the lottery\n        return (_isWinningTicket(_opRound, _ticket), opRoundHistory[_opRound-1].minSuccessRate);\n    }\n\n    // claim reward\n    function txExist(bytes32[] memory proof, bool[] memory isLeft, bytes32 txHash, uint _sblockNo) public view returns (bool){\n        require(_sblockNo < nowSblockNo);\n        require(blockHistory[_sblockNo].merkleRoot != 0x0);\n        return merkleTreeValidator(proof, isLeft, txHash, blockHistory[_sblockNo].merkleRoot);\n    }\n\n    function aidExist(bytes32[] memory proof, bool[] memory isLeft, bytes32 aid, uint _sblockNo) public view returns (bool){\n        require(_sblockNo < nowSblockNo);\n        require(blockHistory[_sblockNo].aidMerkleRoot != 0x0);\n        return merkleTreeValidator(proof, isLeft, aid, blockHistory[_sblockNo].aidMerkleRoot);\n    }\n\n    function verifySignature(address _signer, bytes32 _msg, uint8 _v, bytes32 _r, bytes32 _s) public pure returns(bool){\n        // Looks like the default prefix (of ethereum) is not used; should we introduce our own prefix?\n        // bytes memory prefix = \"\\x19Ethereum Signed Message:\\n32\";\n        // bytes32 prefixedHash = keccak256(abi.encodePacked(prefix, _msg));\n        // address signer = ecrecover(prefixedHash, _v, _r, _s);\n        address signer = ecrecover(_msg, _v, _r, _s);\n        return _signer == signer;\n    }\n\n    function claimReward(\n        uint _opRound, bytes32[] calldata proof, bool[] calldata isLeft, bytes32 txHash, uint _sblockNo\n    ) external returns(bool) {\n        // requirements:\n        // * the txHash is in the tree\n        // * the txHash happen before the lottery round of that _opRound\n        // * the txHash is submitted by the msg.sender\n        //   - is \"verifySignature()\" enough? Can the \"_msg\" in verifySignature() related to this txHash?\n        //   - alternatively, use the following to verify txHash: [msg.sender, opround, aid, v1block, v1leaf, v2block, v2leaf, since, ...]\n        // * require(isWinningTicket(opround, txHash))\n        // * current time is not too far from sblockNo (how far is acceptable?)\n        //   - can the \"_opRound\" easily calculated from \"sblockNo\"?\n        //   - or, if no \"_opRound\" as input argument, only check recent N opRound, if the \"sblockNo\" is still\n        //     earlier than the opRoundHistory[opRound-N].blockHeight, then reject. N should between 1 and 5, or?\n        // * require(opRoundClaimed[opRound][msg.sender] == false, \"Only one claim per opRound\");\n        require(_sblockNo <= opRoundHistory[_opRound].lotteryBlockNo);\n        require(txExist(proof, isLeft, txHash, _sblockNo));\n        // how to proof the txhash is from this msg.sender?\n        // require(\n        require(_isWinningTicket(_opRound, txHash));\n        require(_opRound == opRound || _opRound == opRound + 1);  // or only in same opRound?\n        require(opRoundClaimed[_opRound][msg.sender] == false, \"An account can only claim once per opRound\");\n        // bool _win;\n        // uint _msr;\n        // (_win, _msr) = isWinningTicket(_opRound, txHash);\n        // require(_win);\n\n        opRoundClaimed[opRound][msg.sender] = true;\n        // uint _amount = 100;  // should be a global (constant) variable. Or fix a value in QOT\n        // QOTInterface(QOTAddr).mint(_toAddr, _amount);\n    }\n\n    // merkle tree and leaves\n    function merkleTreeValidator(\n        bytes32[] memory proof,\n        bool[] memory isLeft,\n        bytes32 targetLeaf,\n        bytes32 _merkleRoot\n    ) public pure returns (bool) {\n        require(proof.length < 32);  // 2**32 ~ 4.3e9 leaves!\n        require(proof.length == isLeft.length);\n\n        bytes32 targetHash = targetLeaf;\n        for (uint256 i = 0; i < proof.length; i++) {\n            bytes32 proofEle = proof[i];\n            if (isLeft[i]) {\n                targetHash = keccak256(abi.encodePacked(proofEle, targetHash));\n            } else if (!isLeft[i]) {\n                targetHash = keccak256(abi.encodePacked(targetHash, proofEle));\n            } else {\n                return false;\n            }\n        }\n        return targetHash == _merkleRoot;\n    }\n\n    // TODO: update these calcLeaf()\n    // function calcLeaf(\n    //     uint _nonce,\n    //     bytes32 _ipfs,\n    //     uint _since,\n    //     uint _agree,\n    //     uint _disagree,\n    //     bytes32 _reply,\n    //     bytes32 _comment\n    // ) external view returns (bytes32) {\n    //     // note: the \"category\" field is not here yet\n    //     return keccak256(abi.encodePacked(_nonce, msg.sender, _ipfs, _since, _agree, _disagree, _reply, _comment));\n    // }\n\n\n    // query\n    function getBlockNo() external view returns (uint) {\n        return nowSblockNo;\n    }\n\n    function getBlockInfo(uint _sblockNo) external view returns (uint, bytes32, bytes32, bytes32, bytes32, bytes32, address) {\n        // TODO: update the results\n        return (blockHistory[_sblockNo].blockHeight,\n                blockHistory[_sblockNo].merkleRoot,\n                blockHistory[_sblockNo].ipfsAddr,\n                blockHistory[_sblockNo].aidMerkleRoot,\n                blockHistory[_sblockNo].aidIpfsAddr,\n                blockHistory[_sblockNo].opRoundId,\n                blockHistory[_sblockNo].validator\n               );\n    }\n\n    function queryValidator(uint _idx) external view returns (address) {\n        require(_idx>=0 && _idx < 16);\n        return validators[_idx];\n    }\n\n    function isValidator(address _addr) external view returns (bool) {\n        if (_addr == address(0)) {\n            return false;\n        } else {\n            return (_addr == validators[0] || _addr == validators[1] || _addr == validators[2] ||\n                    _addr == validators[3] || _addr == validators[4] || _addr == validators[5] ||\n                    _addr == validators[6] || _addr == validators[7] || _addr == validators[8] ||\n                    _addr == validators[9] || _addr == validators[10] || _addr == validators[11] ||\n                    _addr == validators[12] || _addr == validators[13] || _addr == validators[14] ||\n                    _addr == validators[15]);\n        }\n    }\n\n    function queryManagers() external view returns (address[4] memory) {\n        return managers;\n    }\n\n    function queryOpRound() external view returns (uint) {\n        return opRound;\n    }\n\n    function queryOpRoundId(uint _opRound) external view returns (bytes32) {\n        if (_opRound != 0) {\n            return opRoundHistory[_opRound].id;\n        } else {\n            return opRoundHistory[opRound].id;  // current opRound\n        }\n    }\n\n    function queryOpRoundLottery(uint _opRound) external view returns (uint, uint, bytes32) {\n        uint i;\n        if (_opRound == 0) {\n            i = opRound;\n        } else {\n            i = _opRound;\n        }\n        return (i, opRoundHistory[i].lotteryBlockNo, opRoundHistory[i].lotteryWinNumber);\n    }\n\n    function queryOpRoundInfo(uint _opRound) external view returns (uint, bytes32, uint) {\n        uint i;\n        if (_opRound == 0) {\n            i = opRound;\n        } else {\n            i = _opRound;\n        }\n        return (i, opRoundHistory[i].id, opRoundHistory[i].initBlockNo);\n    }\n\n    function queryOpRoundResult(uint _opRound) external view returns (uint, bytes32, uint, uint8, bytes32, bytes32, uint, bytes32, uint) {\n        // this function returns default values (0 and 0x0) for current pending opRound\n        // this function is different from other `queryOpRound*()` in that a input of 0 does not mean query current opRound\n        // For opRoundHistory[0], the id is '0x1' and the initBlockNo is the block.height during construction\n        uint i;\n        uint op;\n        if (_opRound == opRound) {  // return (0, 0x0, 0, 0, 0x0, 0x0, 0, 0x0, 0);\n            op = 0;\n            i = opRound + 2;\n            // 'stack too deep' if return (0, 0x0, ...) here and also return in next else-block!?\n        } else {\n            op = _opRound;\n            i = _opRound;\n        }\n        return (op,\n                opRoundHistory[i].id,\n                opRoundHistory[i].initBlockNo,\n                opRoundHistory[i].minSuccessRate,\n                opRoundHistory[i].succesRateDB,\n                opRoundHistory[i].finalListIpfs,\n                opRoundHistory[i].lotteryBlockNo,\n                opRoundHistory[i].lotteryWinNumber,\n                opRoundHistory[i].baseline\n               );\n    }\n\n    function queryOpRoundProgress() external view returns (uint, bool, uint, uint, uint, uint) {\n        return(articleCount, atV1, v1EndTime, v2EndTime, roundVote1Count, roundVote2Count);\n    }\n\n    function queryVoteThresholds() external view returns(uint, uint, uint) {\n        return (opRound, vote1Threshold, vote2Threshold);\n    }\n\n    function queryFinalist(uint _opRound) external view returns(uint, uint, bytes32){\n        uint i;\n        if (_opRound == 0) {\n            i = opRound;\n        } else {\n            i = _opRound;\n        }\n        return (i, opRoundHistory[i].baseline, opRoundHistory[i].finalListIpfs);\n    }\n\n    // upgradable\n    function setValidator(address _newValidator, uint _idx) public managerOnly returns (bool) {\n        require(_newValidator != address(0));\n        require(_idx >=0 && _idx < 16);\n        validators[_idx] = _newValidator;\n        return true;\n    }\n\n    function setManager(address _newManager) public managerOnly returns (bool) {\n        // assume no need to change first 3 managers\n        managers[3] = _newManager;\n        return true;\n    }\n\n}\n",
  "sourcePath": "/home/kai/Work/project/OptractContract/contracts/BlockRegistry.sol",
  "compiler": {
    "name": "solc",
    "version": "0.5.2+commit.1df8f40c.Linux.g++"
  },
  "schemaVersion": "3.0.1",
  "updatedAt": "2019-08-05T07:48:17.471Z",
  "devdoc": {
    "methods": {}
  },
  "userdoc": {
    "methods": {}
  }
}