{
  "contractName": "BlockRegistry",
  "abi": [
    {
      "constant": true,
      "inputs": [],
      "name": "maxVoteTime",
      "outputs": [
        {
          "name": "",
          "type": "uint256"
        }
      ],
      "payable": false,
      "stateMutability": "view",
      "type": "function",
      "signature": "0x06937af5"
    },
    {
      "constant": true,
      "inputs": [],
      "name": "sblockTimeStep",
      "outputs": [
        {
          "name": "",
          "type": "uint256"
        }
      ],
      "payable": false,
      "stateMutability": "view",
      "type": "function",
      "signature": "0x17ca3256"
    },
    {
      "constant": true,
      "inputs": [],
      "name": "QOTAddr",
      "outputs": [
        {
          "name": "",
          "type": "address"
        }
      ],
      "payable": false,
      "stateMutability": "view",
      "type": "function",
      "signature": "0x21a8770d"
    },
    {
      "constant": true,
      "inputs": [],
      "name": "reward",
      "outputs": [
        {
          "name": "",
          "type": "uint256"
        }
      ],
      "payable": false,
      "stateMutability": "view",
      "type": "function",
      "signature": "0x228cb733"
    },
    {
      "constant": true,
      "inputs": [
        {
          "name": "",
          "type": "uint256"
        }
      ],
      "name": "validators",
      "outputs": [
        {
          "name": "",
          "type": "address"
        }
      ],
      "payable": false,
      "stateMutability": "view",
      "type": "function",
      "signature": "0x35aa2e44"
    },
    {
      "constant": true,
      "inputs": [
        {
          "name": "",
          "type": "uint256"
        }
      ],
      "name": "managers",
      "outputs": [
        {
          "name": "",
          "type": "address"
        }
      ],
      "payable": false,
      "stateMutability": "view",
      "type": "function",
      "signature": "0x3d39c260"
    },
    {
      "constant": true,
      "inputs": [],
      "name": "articleCount",
      "outputs": [
        {
          "name": "",
          "type": "uint256"
        }
      ],
      "payable": false,
      "stateMutability": "view",
      "type": "function",
      "signature": "0x414e28b0"
    },
    {
      "constant": true,
      "inputs": [],
      "name": "vote1Threshold",
      "outputs": [
        {
          "name": "",
          "type": "uint256"
        }
      ],
      "payable": false,
      "stateMutability": "view",
      "type": "function",
      "signature": "0x417d63e9"
    },
    {
      "constant": true,
      "inputs": [],
      "name": "numRange",
      "outputs": [
        {
          "name": "",
          "type": "uint8"
        }
      ],
      "payable": false,
      "stateMutability": "view",
      "type": "function",
      "signature": "0x5080ad26"
    },
    {
      "constant": true,
      "inputs": [],
      "name": "roundVote2Count",
      "outputs": [
        {
          "name": "",
          "type": "uint256"
        }
      ],
      "payable": false,
      "stateMutability": "view",
      "type": "function",
      "signature": "0x7376faf2"
    },
    {
      "constant": true,
      "inputs": [],
      "name": "vote2Threshold",
      "outputs": [
        {
          "name": "",
          "type": "uint256"
        }
      ],
      "payable": false,
      "stateMutability": "view",
      "type": "function",
      "signature": "0x82eea47a"
    },
    {
      "constant": true,
      "inputs": [],
      "name": "atV1",
      "outputs": [
        {
          "name": "",
          "type": "bool"
        }
      ],
      "payable": false,
      "stateMutability": "view",
      "type": "function",
      "signature": "0x9bb71caa"
    },
    {
      "constant": true,
      "inputs": [],
      "name": "v1EndTime",
      "outputs": [
        {
          "name": "",
          "type": "uint256"
        }
      ],
      "payable": false,
      "stateMutability": "view",
      "type": "function",
      "signature": "0xa3629b04"
    },
    {
      "constant": true,
      "inputs": [],
      "name": "opRound",
      "outputs": [
        {
          "name": "",
          "type": "uint256"
        }
      ],
      "payable": false,
      "stateMutability": "view",
      "type": "function",
      "signature": "0xb9fedac7"
    },
    {
      "constant": true,
      "inputs": [],
      "name": "memberContractAddr",
      "outputs": [
        {
          "name": "",
          "type": "address"
        }
      ],
      "payable": false,
      "stateMutability": "view",
      "type": "function",
      "signature": "0xc170f356"
    },
    {
      "constant": true,
      "inputs": [],
      "name": "roundVote1Count",
      "outputs": [
        {
          "name": "",
          "type": "uint256"
        }
      ],
      "payable": false,
      "stateMutability": "view",
      "type": "function",
      "signature": "0xd64d8c02"
    },
    {
      "constant": true,
      "inputs": [
        {
          "name": "",
          "type": "uint256"
        }
      ],
      "name": "blockHistory",
      "outputs": [
        {
          "name": "validator",
          "type": "address"
        },
        {
          "name": "blockHeight",
          "type": "uint256"
        },
        {
          "name": "merkleRoot",
          "type": "bytes32"
        },
        {
          "name": "ipfsAddr",
          "type": "bytes32"
        },
        {
          "name": "timestamp",
          "type": "uint256"
        },
        {
          "name": "uniqArticleCount",
          "type": "uint256"
        },
        {
          "name": "vote1Count",
          "type": "uint256"
        },
        {
          "name": "vote2Count",
          "type": "uint256"
        },
        {
          "name": "opRoundId",
          "type": "bytes32"
        },
        {
          "name": "aidMerkleRoot",
          "type": "bytes32"
        },
        {
          "name": "aidIpfsAddr",
          "type": "bytes32"
        }
      ],
      "payable": false,
      "stateMutability": "view",
      "type": "function",
      "signature": "0xde250ace"
    },
    {
      "constant": true,
      "inputs": [],
      "name": "nowSblockNo",
      "outputs": [
        {
          "name": "",
          "type": "uint256"
        }
      ],
      "payable": false,
      "stateMutability": "view",
      "type": "function",
      "signature": "0xdeefebc1"
    },
    {
      "constant": true,
      "inputs": [],
      "name": "v2EndTime",
      "outputs": [
        {
          "name": "",
          "type": "uint256"
        }
      ],
      "payable": false,
      "stateMutability": "view",
      "type": "function",
      "signature": "0xfd0492b1"
    },
    {
      "inputs": [
        {
          "name": "_memberContractAddr",
          "type": "address"
        },
        {
          "name": "_QOTAddr",
          "type": "address"
        }
      ],
      "payable": false,
      "stateMutability": "nonpayable",
      "type": "constructor",
      "signature": "constructor"
    },
    {
      "constant": false,
      "inputs": [
        {
          "name": "_seconds",
          "type": "uint256"
        }
      ],
      "name": "updateMaxVoteTime",
      "outputs": [],
      "payable": false,
      "stateMutability": "nonpayable",
      "type": "function",
      "signature": "0x9786007a"
    },
    {
      "constant": false,
      "inputs": [
        {
          "name": "_x",
          "type": "uint256"
        },
        {
          "name": "_y",
          "type": "uint256"
        }
      ],
      "name": "setThreshold",
      "outputs": [],
      "payable": false,
      "stateMutability": "nonpayable",
      "type": "function",
      "signature": "0xb9c36209"
    },
    {
      "constant": false,
      "inputs": [
        {
          "name": "_merkleRoot",
          "type": "bytes32"
        },
        {
          "name": "_ipfsAddr",
          "type": "bytes32"
        },
        {
          "name": "_aidMerkleRoot",
          "type": "bytes32"
        },
        {
          "name": "_aidIpfsAddr",
          "type": "bytes32"
        },
        {
          "name": "_successRateDB",
          "type": "bytes32"
        },
        {
          "name": "_finalListIpfs",
          "type": "bytes32"
        },
        {
          "name": "_ints",
          "type": "uint256[5]"
        }
      ],
      "name": "submitMerkleRoot",
      "outputs": [
        {
          "name": "",
          "type": "bool"
        }
      ],
      "payable": false,
      "stateMutability": "nonpayable",
      "type": "function",
      "signature": "0x51086450"
    },
    {
      "constant": true,
      "inputs": [
        {
          "name": "v1Count",
          "type": "uint256"
        }
      ],
      "name": "isEnoughV1",
      "outputs": [
        {
          "name": "",
          "type": "bool"
        }
      ],
      "payable": false,
      "stateMutability": "view",
      "type": "function",
      "signature": "0x0137aca4"
    },
    {
      "constant": true,
      "inputs": [
        {
          "name": "v2Count",
          "type": "uint256"
        }
      ],
      "name": "isEnoughV2",
      "outputs": [
        {
          "name": "",
          "type": "bool"
        }
      ],
      "payable": false,
      "stateMutability": "view",
      "type": "function",
      "signature": "0x6cb0999b"
    },
    {
      "constant": true,
      "inputs": [
        {
          "name": "_mr",
          "type": "bytes32"
        },
        {
          "name": "_bhash",
          "type": "bytes32"
        }
      ],
      "name": "calcLotteryWinNumber",
      "outputs": [
        {
          "name": "",
          "type": "bytes32"
        }
      ],
      "payable": false,
      "stateMutability": "pure",
      "type": "function",
      "signature": "0x513536c1"
    },
    {
      "constant": true,
      "inputs": [
        {
          "name": "_ticket",
          "type": "bytes32"
        },
        {
          "name": "_digit",
          "type": "uint8"
        }
      ],
      "name": "_getBytes32HexNthDigit",
      "outputs": [
        {
          "name": "",
          "type": "bytes1"
        }
      ],
      "payable": false,
      "stateMutability": "pure",
      "type": "function",
      "signature": "0xd17eaa47"
    },
    {
      "constant": true,
      "inputs": [
        {
          "name": "_winHex",
          "type": "bytes32"
        },
        {
          "name": "_ticket",
          "type": "bytes32"
        },
        {
          "name": "_numRange",
          "type": "uint8"
        }
      ],
      "name": "lotteryWins",
      "outputs": [
        {
          "name": "",
          "type": "bool"
        }
      ],
      "payable": false,
      "stateMutability": "pure",
      "type": "function",
      "signature": "0x1b9d40ba"
    },
    {
      "constant": false,
      "inputs": [
        {
          "name": "_numRange",
          "type": "uint8"
        }
      ],
      "name": "setNumRange",
      "outputs": [],
      "payable": false,
      "stateMutability": "nonpayable",
      "type": "function",
      "signature": "0x19305d85"
    },
    {
      "constant": true,
      "inputs": [
        {
          "name": "_opRound",
          "type": "uint256"
        },
        {
          "name": "_ticket",
          "type": "bytes32"
        }
      ],
      "name": "isWinningTicket",
      "outputs": [
        {
          "name": "",
          "type": "bool"
        },
        {
          "name": "",
          "type": "uint256"
        }
      ],
      "payable": false,
      "stateMutability": "view",
      "type": "function",
      "signature": "0x53311f95"
    },
    {
      "constant": true,
      "inputs": [
        {
          "name": "proof",
          "type": "bytes32[]"
        },
        {
          "name": "isLeft",
          "type": "bool[]"
        },
        {
          "name": "txHash",
          "type": "bytes32"
        },
        {
          "name": "_sblockNo",
          "type": "uint256"
        }
      ],
      "name": "txExist",
      "outputs": [
        {
          "name": "",
          "type": "bool"
        }
      ],
      "payable": false,
      "stateMutability": "view",
      "type": "function",
      "signature": "0x316f0d84"
    },
    {
      "constant": true,
      "inputs": [
        {
          "name": "proof",
          "type": "bytes32[]"
        },
        {
          "name": "isLeft",
          "type": "bool[]"
        },
        {
          "name": "aid",
          "type": "bytes32"
        },
        {
          "name": "_sblockNo",
          "type": "uint256"
        }
      ],
      "name": "aidExist",
      "outputs": [
        {
          "name": "",
          "type": "bool"
        }
      ],
      "payable": false,
      "stateMutability": "view",
      "type": "function",
      "signature": "0xc9771591"
    },
    {
      "constant": true,
      "inputs": [
        {
          "name": "_signer",
          "type": "address"
        },
        {
          "name": "_msg",
          "type": "bytes32"
        },
        {
          "name": "_v",
          "type": "uint8"
        },
        {
          "name": "_r",
          "type": "bytes32"
        },
        {
          "name": "_s",
          "type": "bytes32"
        }
      ],
      "name": "verifySignature",
      "outputs": [
        {
          "name": "",
          "type": "bool"
        }
      ],
      "payable": false,
      "stateMutability": "pure",
      "type": "function",
      "signature": "0x02bf9e7f"
    },
    {
      "constant": false,
      "inputs": [
        {
          "name": "_reward",
          "type": "uint256"
        }
      ],
      "name": "setReward",
      "outputs": [],
      "payable": false,
      "stateMutability": "nonpayable",
      "type": "function",
      "signature": "0x293be456"
    },
    {
      "constant": false,
      "inputs": [
        {
          "name": "_opRound",
          "type": "uint256"
        },
        {
          "name": "proof",
          "type": "bytes32[]"
        },
        {
          "name": "isLeft",
          "type": "bool[]"
        },
        {
          "name": "txHash",
          "type": "bytes32"
        },
        {
          "name": "_sblockNo",
          "type": "uint256"
        },
        {
          "name": "_payload",
          "type": "bytes32"
        },
        {
          "name": "_v",
          "type": "uint8"
        },
        {
          "name": "_r",
          "type": "bytes32"
        },
        {
          "name": "_s",
          "type": "bytes32"
        }
      ],
      "name": "claimReward",
      "outputs": [
        {
          "name": "",
          "type": "bool"
        }
      ],
      "payable": false,
      "stateMutability": "nonpayable",
      "type": "function",
      "signature": "0xfd2e4a40"
    },
    {
      "constant": true,
      "inputs": [
        {
          "name": "proof",
          "type": "bytes32[]"
        },
        {
          "name": "isLeft",
          "type": "bool[]"
        },
        {
          "name": "targetLeaf",
          "type": "bytes32"
        },
        {
          "name": "_merkleRoot",
          "type": "bytes32"
        }
      ],
      "name": "merkleTreeValidator",
      "outputs": [
        {
          "name": "",
          "type": "bool"
        }
      ],
      "payable": false,
      "stateMutability": "pure",
      "type": "function",
      "signature": "0xb8f69e37"
    },
    {
      "constant": true,
      "inputs": [],
      "name": "getBlockNo",
      "outputs": [
        {
          "name": "",
          "type": "uint256"
        }
      ],
      "payable": false,
      "stateMutability": "view",
      "type": "function",
      "signature": "0xfba0e4bb"
    },
    {
      "constant": true,
      "inputs": [
        {
          "name": "_sblockNo",
          "type": "uint256"
        }
      ],
      "name": "getBlockInfo",
      "outputs": [
        {
          "name": "",
          "type": "uint256"
        },
        {
          "name": "",
          "type": "bytes32"
        },
        {
          "name": "",
          "type": "bytes32"
        },
        {
          "name": "",
          "type": "bytes32"
        },
        {
          "name": "",
          "type": "bytes32"
        },
        {
          "name": "",
          "type": "bytes32"
        },
        {
          "name": "",
          "type": "address"
        }
      ],
      "payable": false,
      "stateMutability": "view",
      "type": "function",
      "signature": "0xbb141cf4"
    },
    {
      "constant": true,
      "inputs": [
        {
          "name": "_idx",
          "type": "uint256"
        }
      ],
      "name": "queryValidator",
      "outputs": [
        {
          "name": "",
          "type": "address"
        }
      ],
      "payable": false,
      "stateMutability": "view",
      "type": "function",
      "signature": "0x810e0b20"
    },
    {
      "constant": true,
      "inputs": [
        {
          "name": "_addr",
          "type": "address"
        }
      ],
      "name": "isValidator",
      "outputs": [
        {
          "name": "",
          "type": "bool"
        }
      ],
      "payable": false,
      "stateMutability": "view",
      "type": "function",
      "signature": "0xfacd743b"
    },
    {
      "constant": true,
      "inputs": [],
      "name": "queryManagers",
      "outputs": [
        {
          "name": "",
          "type": "address[4]"
        }
      ],
      "payable": false,
      "stateMutability": "view",
      "type": "function",
      "signature": "0xca48c69d"
    },
    {
      "constant": true,
      "inputs": [],
      "name": "queryOpRound",
      "outputs": [
        {
          "name": "",
          "type": "uint256"
        }
      ],
      "payable": false,
      "stateMutability": "view",
      "type": "function",
      "signature": "0x8ccbaca4"
    },
    {
      "constant": true,
      "inputs": [
        {
          "name": "_opRound",
          "type": "uint256"
        }
      ],
      "name": "queryOpRoundId",
      "outputs": [
        {
          "name": "",
          "type": "bytes32"
        }
      ],
      "payable": false,
      "stateMutability": "view",
      "type": "function",
      "signature": "0xd9eb08f6"
    },
    {
      "constant": true,
      "inputs": [
        {
          "name": "_opRound",
          "type": "uint256"
        }
      ],
      "name": "queryOpRoundLottery",
      "outputs": [
        {
          "name": "",
          "type": "uint256"
        },
        {
          "name": "",
          "type": "uint256"
        },
        {
          "name": "",
          "type": "bytes32"
        }
      ],
      "payable": false,
      "stateMutability": "view",
      "type": "function",
      "signature": "0x7c14de6c"
    },
    {
      "constant": true,
      "inputs": [
        {
          "name": "_opRound",
          "type": "uint256"
        }
      ],
      "name": "queryOpRoundInfo",
      "outputs": [
        {
          "name": "",
          "type": "uint256"
        },
        {
          "name": "",
          "type": "bytes32"
        },
        {
          "name": "",
          "type": "uint256"
        }
      ],
      "payable": false,
      "stateMutability": "view",
      "type": "function",
      "signature": "0x57ee34a6"
    },
    {
      "constant": true,
      "inputs": [
        {
          "name": "_opRound",
          "type": "uint256"
        }
      ],
      "name": "queryOpRoundResult",
      "outputs": [
        {
          "name": "",
          "type": "uint256"
        },
        {
          "name": "",
          "type": "bytes32"
        },
        {
          "name": "",
          "type": "uint256"
        },
        {
          "name": "",
          "type": "uint256"
        },
        {
          "name": "",
          "type": "bytes32"
        },
        {
          "name": "",
          "type": "bytes32"
        },
        {
          "name": "",
          "type": "uint256"
        },
        {
          "name": "",
          "type": "bytes32"
        },
        {
          "name": "",
          "type": "uint256"
        }
      ],
      "payable": false,
      "stateMutability": "view",
      "type": "function",
      "signature": "0xf47dae9a"
    },
    {
      "constant": true,
      "inputs": [],
      "name": "queryOpRoundProgress",
      "outputs": [
        {
          "name": "",
          "type": "uint256"
        },
        {
          "name": "",
          "type": "bool"
        },
        {
          "name": "",
          "type": "uint256"
        },
        {
          "name": "",
          "type": "uint256"
        },
        {
          "name": "",
          "type": "uint256"
        },
        {
          "name": "",
          "type": "uint256"
        }
      ],
      "payable": false,
      "stateMutability": "view",
      "type": "function",
      "signature": "0x2656de1a"
    },
    {
      "constant": true,
      "inputs": [],
      "name": "queryVoteThresholds",
      "outputs": [
        {
          "name": "",
          "type": "uint256"
        },
        {
          "name": "",
          "type": "uint256"
        },
        {
          "name": "",
          "type": "uint256"
        }
      ],
      "payable": false,
      "stateMutability": "view",
      "type": "function",
      "signature": "0x86e18f82"
    },
    {
      "constant": true,
      "inputs": [
        {
          "name": "_opRound",
          "type": "uint256"
        }
      ],
      "name": "queryFinalist",
      "outputs": [
        {
          "name": "",
          "type": "uint256"
        },
        {
          "name": "",
          "type": "uint256"
        },
        {
          "name": "",
          "type": "bytes32"
        }
      ],
      "payable": false,
      "stateMutability": "view",
      "type": "function",
      "signature": "0xec5caf2a"
    },
    {
      "constant": false,
      "inputs": [
        {
          "name": "_newValidator",
          "type": "address"
        },
        {
          "name": "_idx",
          "type": "uint256"
        }
      ],
      "name": "setValidator",
      "outputs": [
        {
          "name": "",
          "type": "bool"
        }
      ],
      "payable": false,
      "stateMutability": "nonpayable",
      "type": "function",
      "signature": "0xabb9406b"
    },
    {
      "constant": false,
      "inputs": [
        {
          "name": "_newManager",
          "type": "address"
        }
      ],
      "name": "setManager",
      "outputs": [
        {
          "name": "",
          "type": "bool"
        }
      ],
      "payable": false,
      "stateMutability": "nonpayable",
      "type": "function",
      "signature": "0xd0ebdbe7"
    }
  ],
  "bytecode": "0x60806040526103846017556028601c556028601d556008602060016101000a81548160ff021916908360ff16021790555061038460215560646022553480156200004857600080fd5b50604051604080620062a3833981018060405260408110156200006a57600080fd5b81019080805190602001909291908051906020019092919050505081601460006101000a81548173ffffffffffffffffffffffffffffffffffffffff021916908373ffffffffffffffffffffffffffffffffffffffff16021790555080601560006101000a81548173ffffffffffffffffffffffffffffffffffffffff021916908373ffffffffffffffffffffffffffffffffffffffff16021790555060806040519081016040528073b440ea2780614b3c6a00e512f432785e7dfafa3e73ffffffffffffffffffffffffffffffffffffffff1673ffffffffffffffffffffffffffffffffffffffff168152602001734ad56641c569c91c64c28a904cda50ae5326da4173ffffffffffffffffffffffffffffffffffffffff1673ffffffffffffffffffffffffffffffffffffffff16815260200173af7400787c54422be8b44154b1273661f1259ccd73ffffffffffffffffffffffffffffffffffffffff1673ffffffffffffffffffffffffffffffffffffffff168152602001600073ffffffffffffffffffffffffffffffffffffffff1673ffffffffffffffffffffffffffffffffffffffff16815250600090600462000228929190620006fe565b506102006040519081016040528073b440ea2780614b3c6a00e512f432785e7dfafa3e73ffffffffffffffffffffffffffffffffffffffff1673ffffffffffffffffffffffffffffffffffffffff168152602001734ad56641c569c91c64c28a904cda50ae5326da4173ffffffffffffffffffffffffffffffffffffffff1673ffffffffffffffffffffffffffffffffffffffff16815260200173af7400787c54422be8b44154b1273661f1259ccd73ffffffffffffffffffffffffffffffffffffffff1673ffffffffffffffffffffffffffffffffffffffff168152602001600073ffffffffffffffffffffffffffffffffffffffff1673ffffffffffffffffffffffffffffffffffffffff168152602001600073ffffffffffffffffffffffffffffffffffffffff1673ffffffffffffffffffffffffffffffffffffffff168152602001600073ffffffffffffffffffffffffffffffffffffffff1673ffffffffffffffffffffffffffffffffffffffff168152602001600073ffffffffffffffffffffffffffffffffffffffff1673ffffffffffffffffffffffffffffffffffffffff168152602001600073ffffffffffffffffffffffffffffffffffffffff1673ffffffffffffffffffffffffffffffffffffffff168152602001600073ffffffffffffffffffffffffffffffffffffffff1673ffffffffffffffffffffffffffffffffffffffff168152602001600073ffffffffffffffffffffffffffffffffffffffff1673ffffffffffffffffffffffffffffffffffffffff168152602001600073ffffffffffffffffffffffffffffffffffffffff1673ffffffffffffffffffffffffffffffffffffffff168152602001600073ffffffffffffffffffffffffffffffffffffffff1673ffffffffffffffffffffffffffffffffffffffff168152602001600073ffffffffffffffffffffffffffffffffffffffff1673ffffffffffffffffffffffffffffffffffffffff168152602001600073ffffffffffffffffffffffffffffffffffffffff1673ffffffffffffffffffffffffffffffffffffffff168152602001600073ffffffffffffffffffffffffffffffffffffffff1673ffffffffffffffffffffffffffffffffffffffff168152602001600073ffffffffffffffffffffffffffffffffffffffff1673ffffffffffffffffffffffffffffffffffffffff168152506004906010620005af92919062000780565b50610160604051908101604052803373ffffffffffffffffffffffffffffffffffffffff1681526020014381526020016000600102815260200160006001028152602001428152602001600081526020016000815260200160008152602001600060010281526020016000600102815260200160006001028152506023600080815260200190815260200160002060008201518160000160006101000a81548173ffffffffffffffffffffffffffffffffffffffff021916908373ffffffffffffffffffffffffffffffffffffffff1602179055506020820151816001015560408201518160020155606082015181600301556080820151816004015560a0820151816005015560c0820151816006015560e082015181600701556101008201518160080155610120820151816009015561014082015181600a01559050506001601681905550505062000848565b82600481019282156200076d579160200282015b828111156200076c5782518260006101000a81548173ffffffffffffffffffffffffffffffffffffffff021916908373ffffffffffffffffffffffffffffffffffffffff1602179055509160200191906001019062000712565b5b5090506200077c919062000802565b5090565b8260108101928215620007ef579160200282015b82811115620007ee5782518260006101000a81548173ffffffffffffffffffffffffffffffffffffffff021916908373ffffffffffffffffffffffffffffffffffffffff1602179055509160200191906001019062000794565b5b509050620007fe919062000802565b5090565b6200084591905b808211156200084157600081816101000a81549073ffffffffffffffffffffffffffffffffffffffff02191690555060010162000809565b5090565b90565b615a4b80620008586000396000f3fe608060405234801561001057600080fd5b50600436106102f3576000357c01000000000000000000000000000000000000000000000000000000009004806386e18f821161019f578063ca48c69d11610106578063deefebc1116100bf578063facd743b11610099578063facd743b14611382578063fba0e4bb146113de578063fd0492b1146113fc578063fd2e4a401461141a576102f3565b8063deefebc11461129a578063ec5caf2a146112b8578063f47dae9a14611308576102f3565b8063ca48c69d14611051578063d0ebdbe714611097578063d17eaa47146110f3578063d64d8c0214611186578063d9eb08f6146111a4578063de250ace146111e6576102f3565b8063b8f69e3711610158578063b8f69e3714610c29578063b9c3620914610da1578063b9fedac714610dd9578063bb141cf414610df7578063c170f35614610e8f578063c977159114610ed9576102f3565b806386e18f8214610b0b5780638ccbaca414610b375780639786007a14610b555780639bb71caa14610b83578063a3629b0414610ba5578063abb9406b14610bc3576102f3565b80633d39c2601161025e57806353311f95116102175780637376faf2116101f15780637376faf214610a115780637c14de6c14610a2f578063810e0b2014610a7f57806382eea47a14610aed576102f3565b806353311f951461092457806357ee34a61461097b5780636cb0999b146109cb576102f3565b80633d39c26014610750578063414e28b0146107be578063417d63e9146107dc5780635080ad26146107fa578063510864501461081e578063513536c1146108d8576102f3565b806321a8770d116102b057806321a8770d1461048f578063228cb733146104d95780632656de1a146104f7578063293be4561461053c578063316f0d841461056a57806335aa2e44146106e2576102f3565b80630137aca4146102f857806302bf9e7f1461033e57806306937af5146103c557806317ca3256146103e357806319305d85146104015780631b9d40ba14610432575b600080fd5b6103246004803603602081101561030e57600080fd5b810190808035906020019092919050505061154a565b604051808215151515815260200191505060405180910390f35b6103ab600480360360a081101561035457600080fd5b81019080803573ffffffffffffffffffffffffffffffffffffffff16906020019092919080359060200190929190803560ff169060200190929190803590602001909291908035906020019092919050505061164f565b604051808215151515815260200191505060405180910390f35b6103cd6116f6565b6040518082815260200191505060405180910390f35b6103eb6116fc565b6040518082815260200191505060405180910390f35b6104306004803603602081101561041757600080fd5b81019080803560ff169060200190929190505050611702565b005b6104756004803603606081101561044857600080fd5b810190808035906020019092919080359060200190929190803560ff16906020019092919050505061191e565b604051808215151515815260200191505060405180910390f35b610497611a81565b604051808273ffffffffffffffffffffffffffffffffffffffff1673ffffffffffffffffffffffffffffffffffffffff16815260200191505060405180910390f35b6104e1611aa7565b6040518082815260200191505060405180910390f35b6104ff611aad565b6040518087815260200186151515158152602001858152602001848152602001838152602001828152602001965050505050505060405180910390f35b6105686004803603602081101561055257600080fd5b8101908080359060200190929190505050611ae9565b005b6106c86004803603608081101561058057600080fd5b810190808035906020019064010000000081111561059d57600080fd5b8201836020820111156105af57600080fd5b803590602001918460208302840111640100000000831117156105d157600080fd5b919080806020026020016040519081016040528093929190818152602001838360200280828437600081840152601f19601f8201169050808301925050505050505091929192908035906020019064010000000081111561063157600080fd5b82018360208201111561064357600080fd5b8035906020019184602083028401116401000000008311171561066557600080fd5b919080806020026020016040519081016040528093929190818152602001838360200280828437600081840152601f19601f8201169050808301925050505050505091929192908035906020019092919080359060200190929190505050611ce1565b604051808215151515815260200191505060405180910390f35b61070e600480360360208110156106f857600080fd5b8101908080359060200190929190505050611d48565b604051808273ffffffffffffffffffffffffffffffffffffffff1673ffffffffffffffffffffffffffffffffffffffff16815260200191505060405180910390f35b61077c6004803603602081101561076657600080fd5b8101908080359060200190929190505050611d7d565b604051808273ffffffffffffffffffffffffffffffffffffffff1673ffffffffffffffffffffffffffffffffffffffff16815260200191505060405180910390f35b6107c6611db2565b6040518082815260200191505060405180910390f35b6107e4611db8565b6040518082815260200191505060405180910390f35b610802611dbe565b604051808260ff1660ff16815260200191505060405180910390f35b6108be600480360361016081101561083557600080fd5b810190808035906020019092919080359060200190929190803590602001909291908035906020019092919080359060200190929190803590602001909291908060a001906005806020026040519081016040528092919082600560200280828437600081840152601f19601f8201169050808301925050505050509192919290505050611dd1565b604051808215151515815260200191505060405180910390f35b61090e600480360360408110156108ee57600080fd5b810190808035906020019092919080359060200190929190505050613116565b6040518082815260200191505060405180910390f35b61095a6004803603604081101561093a57600080fd5b81019080803590602001909291908035906020019092919050505061314f565b60405180831515151581526020018281526020019250505060405180910390f35b6109a76004803603602081101561099157600080fd5b8101908080359060200190929190505050613181565b60405180848152602001838152602001828152602001935050505060405180910390f35b6109f7600480360360208110156109e157600080fd5b81019080803590602001909291905050506131db565b604051808215151515815260200191505060405180910390f35b610a196132e1565b6040518082815260200191505060405180910390f35b610a5b60048036036020811015610a4557600080fd5b81019080803590602001909291905050506132e7565b60405180848152602001838152602001828152602001935050505060405180910390f35b610aab60048036036020811015610a9557600080fd5b8101908080359060200190929190505050613341565b604051808273ffffffffffffffffffffffffffffffffffffffff1673ffffffffffffffffffffffffffffffffffffffff16815260200191505060405180910390f35b610af5613396565b6040518082815260200191505060405180910390f35b610b1361339c565b60405180848152602001838152602001828152602001935050505060405180910390f35b610b3f6133b5565b6040518082815260200191505060405180910390f35b610b8160048036036020811015610b6b57600080fd5b81019080803590602001909291905050506133bf565b005b610b8b613a95565b604051808215151515815260200191505060405180910390f35b610bad613aa8565b6040518082815260200191505060405180910390f35b610c0f60048036036040811015610bd957600080fd5b81019080803573ffffffffffffffffffffffffffffffffffffffff16906020019092919080359060200190929190505050613aae565b604051808215151515815260200191505060405180910390f35b610d8760048036036080811015610c3f57600080fd5b8101908080359060200190640100000000811115610c5c57600080fd5b820183602082011115610c6e57600080fd5b80359060200191846020830284011164010000000083111715610c9057600080fd5b919080806020026020016040519081016040528093929190818152602001838360200280828437600081840152601f19601f82011690508083019250505050505050919291929080359060200190640100000000811115610cf057600080fd5b820183602082011115610d0257600080fd5b80359060200191846020830284011164010000000083111715610d2457600080fd5b919080806020026020016040519081016040528093929190818152602001838360200280828437600081840152601f19601f8201169050808301925050505050505091929192908035906020019092919080359060200190929190505050613d3b565b604051808215151515815260200191505060405180910390f35b610dd760048036036040811015610db757600080fd5b810190808035906020019092919080359060200190929190505050613e5f565b005b610de161455a565b6040518082815260200191505060405180910390f35b610e2360048036036020811015610e0d57600080fd5b8101908080359060200190929190505050614560565b604051808881526020018781526020018681526020018581526020018481526020018381526020018273ffffffffffffffffffffffffffffffffffffffff1673ffffffffffffffffffffffffffffffffffffffff16815260200197505050505050505060405180910390f35b610e97614645565b604051808273ffffffffffffffffffffffffffffffffffffffff1673ffffffffffffffffffffffffffffffffffffffff16815260200191505060405180910390f35b61103760048036036080811015610eef57600080fd5b8101908080359060200190640100000000811115610f0c57600080fd5b820183602082011115610f1e57600080fd5b80359060200191846020830284011164010000000083111715610f4057600080fd5b919080806020026020016040519081016040528093929190818152602001838360200280828437600081840152601f19601f82011690508083019250505050505050919291929080359060200190640100000000811115610fa057600080fd5b820183602082011115610fb257600080fd5b80359060200191846020830284011164010000000083111715610fd457600080fd5b919080806020026020016040519081016040528093929190818152602001838360200280828437600081840152601f19601f820116905080830192505050505050509192919290803590602001909291908035906020019092919050505061466b565b604051808215151515815260200191505060405180910390f35b6110596146d2565b6040518082600460200280838360005b83811015611084578082015181840152602081019050611069565b5050505090500191505060405180910390f35b6110d9600480360360208110156110ad57600080fd5b81019080803573ffffffffffffffffffffffffffffffffffffffff169060200190929190505050614753565b604051808215151515815260200191505060405180910390f35b61112c6004803603604081101561110957600080fd5b8101908080359060200190929190803560ff169060200190929190505050614988565b60405180827effffffffffffffffffffffffffffffffffffffffffffffffffffffffffffff19167effffffffffffffffffffffffffffffffffffffffffffffffffffffffffffff1916815260200191505060405180910390f35b61118e614b05565b6040518082815260200191505060405180910390f35b6111d0600480360360208110156111ba57600080fd5b8101908080359060200190929190505050614b0b565b6040518082815260200191505060405180910390f35b611212600480360360208110156111fc57600080fd5b8101908080359060200190929190505050614b55565b604051808c73ffffffffffffffffffffffffffffffffffffffff1673ffffffffffffffffffffffffffffffffffffffff1681526020018b81526020018a81526020018981526020018881526020018781526020018681526020018581526020018481526020018381526020018281526020019b50505050505050505050505060405180910390f35b6112a2614bcf565b6040518082815260200191505060405180910390f35b6112e4600480360360208110156112ce57600080fd5b8101908080359060200190929190505050614bd5565b60405180848152602001838152602001828152602001935050505060405180910390f35b6113346004803603602081101561131e57600080fd5b8101908080359060200190929190505050614c2f565b604051808a8152602001898152602001888152602001878152602001868152602001858152602001848152602001838152602001828152602001995050505050505050505060405180910390f35b6113c46004803603602081101561139857600080fd5b81019080803573ffffffffffffffffffffffffffffffffffffffff169060200190929190505050614d3c565b604051808215151515815260200191505060405180910390f35b6113e66153eb565b6040518082815260200191505060405180910390f35b6114046153f5565b6040518082815260200191505060405180910390f35b611530600480360361012081101561143157600080fd5b81019080803590602001909291908035906020019064010000000081111561145857600080fd5b82018360208201111561146a57600080fd5b8035906020019184602083028401116401000000008311171561148c57600080fd5b9091929391929390803590602001906401000000008111156114ad57600080fd5b8201836020820111156114bf57600080fd5b803590602001918460208302840111640100000000831117156114e157600080fd5b9091929391929390803590602001909291908035906020019092919080359060200190929190803560ff16906020019092919080359060200190929190803590602001909291905050506153fb565b604051808215151515815260200191505060405180910390f35b600080601460009054906101000a900473ffffffffffffffffffffffffffffffffffffffff1673ffffffffffffffffffffffffffffffffffffffff166322faa41f6040518163ffffffff167c010000000000000000000000000000000000000000000000000000000002815260040160206040518083038186803b1580156115d157600080fd5b505afa1580156115e5573d6000803e3d6000fd5b505050506040513d60208110156115fb57600080fd5b810190808051906020019092919050505090506003811015151561161e57600080fd5b6000818460640281151561162e57fe5b049050601c54811015156116475760019250505061164a565b50505b919050565b60008060018686868660405160008152602001604052604051808581526020018460ff1660ff1681526020018381526020018281526020019450505050506020604051602081039080840390855afa1580156116af573d6000803e3d6000fd5b5050506020604051035190508073ffffffffffffffffffffffffffffffffffffffff168773ffffffffffffffffffffffffffffffffffffffff161491505095945050505050565b60215481565b60175481565b600073ffffffffffffffffffffffffffffffffffffffff163373ffffffffffffffffffffffffffffffffffffffff161415151561173e57600080fd5b60008060048110151561174d57fe5b0160009054906101000a900473ffffffffffffffffffffffffffffffffffffffff1673ffffffffffffffffffffffffffffffffffffffff163373ffffffffffffffffffffffffffffffffffffffff1614806118045750600060016004811015156117b357fe5b0160009054906101000a900473ffffffffffffffffffffffffffffffffffffffff1673ffffffffffffffffffffffffffffffffffffffff163373ffffffffffffffffffffffffffffffffffffffff16145b8061186b57506000600260048110151561181a57fe5b0160009054906101000a900473ffffffffffffffffffffffffffffffffffffffff1673ffffffffffffffffffffffffffffffffffffffff163373ffffffffffffffffffffffffffffffffffffffff16145b806118d257506000600360048110151561188157fe5b0160009054906101000a900473ffffffffffffffffffffffffffffffffffffffff1673ffffffffffffffffffffffffffffffffffffffff163373ffffffffffffffffffffffffffffffffffffffff16145b15156118dd57600080fd5b60018160ff16101580156118f55750600f8160ff1611155b151561190057600080fd5b80602060016101000a81548160ff021916908360ff16021790555050565b600060018260ff1610158015611938575060108260ff1611155b151561194357600080fd5b60006004611952866000614988565b7f0100000000000000000000000000000000000000000000000000000000000000900460ff1681151561198157fe5b069050600061199186603f614988565b90506000817f0100000000000000000000000000000000000000000000000000000000000000900490506000601086830160ff168115156119ce57fe5b06905060006119e08886603f03614988565b7f0100000000000000000000000000000000000000000000000000000000000000900490508260ff168260ff161115611a46578260ff168160ff1610158015611a2e57508160ff168160ff16105b15611a4157600195505050505050611a7a565b611a74565b8260ff168160ff16101580611a6057508160ff168160ff16105b15611a7357600195505050505050611a7a565b5b50505050505b9392505050565b601560009054906101000a900473ffffffffffffffffffffffffffffffffffffffff1681565b60225481565b600080600080600080601954602060009054906101000a900460ff16601e54601f54601a54601b54955095509550955095509550909192939495565b600073ffffffffffffffffffffffffffffffffffffffff163373ffffffffffffffffffffffffffffffffffffffff1614151515611b2557600080fd5b600080600481101515611b3457fe5b0160009054906101000a900473ffffffffffffffffffffffffffffffffffffffff1673ffffffffffffffffffffffffffffffffffffffff163373ffffffffffffffffffffffffffffffffffffffff161480611beb575060006001600481101515611b9a57fe5b0160009054906101000a900473ffffffffffffffffffffffffffffffffffffffff1673ffffffffffffffffffffffffffffffffffffffff163373ffffffffffffffffffffffffffffffffffffffff16145b80611c52575060006002600481101515611c0157fe5b0160009054906101000a900473ffffffffffffffffffffffffffffffffffffffff1673ffffffffffffffffffffffffffffffffffffffff163373ffffffffffffffffffffffffffffffffffffffff16145b80611cb9575060006003600481101515611c6857fe5b0160009054906101000a900473ffffffffffffffffffffffffffffffffffffffff1673ffffffffffffffffffffffffffffffffffffffff163373ffffffffffffffffffffffffffffffffffffffff16145b1515611cc457600080fd5b600a6022540281101515611cd757600080fd5b8060228190555050565b600060165482101515611cf357600080fd5b6000600102602360008481526020019081526020016000206002015414151515611d1c57600080fd5b611d3e8585856023600087815260200190815260200160002060020154613d3b565b9050949350505050565b600481601081101515611d5757fe5b016000915054906101000a900473ffffffffffffffffffffffffffffffffffffffff1681565b600081600481101515611d8c57fe5b016000915054906101000a900473ffffffffffffffffffffffffffffffffffffffff1681565b60195481565b601c5481565b602060019054906101000a900460ff1681565b60008073ffffffffffffffffffffffffffffffffffffffff163373ffffffffffffffffffffffffffffffffffffffff1614151515611e0e57600080fd5b60046000601081101515611e1e57fe5b0160009054906101000a900473ffffffffffffffffffffffffffffffffffffffff1673ffffffffffffffffffffffffffffffffffffffff163373ffffffffffffffffffffffffffffffffffffffff161480611ed5575060046001601081101515611e8457fe5b0160009054906101000a900473ffffffffffffffffffffffffffffffffffffffff1673ffffffffffffffffffffffffffffffffffffffff163373ffffffffffffffffffffffffffffffffffffffff16145b80611f3c575060046002601081101515611eeb57fe5b0160009054906101000a900473ffffffffffffffffffffffffffffffffffffffff1673ffffffffffffffffffffffffffffffffffffffff163373ffffffffffffffffffffffffffffffffffffffff16145b80611fa3575060046003601081101515611f5257fe5b0160009054906101000a900473ffffffffffffffffffffffffffffffffffffffff1673ffffffffffffffffffffffffffffffffffffffff163373ffffffffffffffffffffffffffffffffffffffff16145b806120095750600480601081101515611fb857fe5b0160009054906101000a900473ffffffffffffffffffffffffffffffffffffffff1673ffffffffffffffffffffffffffffffffffffffff163373ffffffffffffffffffffffffffffffffffffffff16145b8061207057506004600560108110151561201f57fe5b0160009054906101000a900473ffffffffffffffffffffffffffffffffffffffff1673ffffffffffffffffffffffffffffffffffffffff163373ffffffffffffffffffffffffffffffffffffffff16145b806120d757506004600660108110151561208657fe5b0160009054906101000a900473ffffffffffffffffffffffffffffffffffffffff1673ffffffffffffffffffffffffffffffffffffffff163373ffffffffffffffffffffffffffffffffffffffff16145b8061213e5750600460076010811015156120ed57fe5b0160009054906101000a900473ffffffffffffffffffffffffffffffffffffffff1673ffffffffffffffffffffffffffffffffffffffff163373ffffffffffffffffffffffffffffffffffffffff16145b806121a557506004600860108110151561215457fe5b0160009054906101000a900473ffffffffffffffffffffffffffffffffffffffff1673ffffffffffffffffffffffffffffffffffffffff163373ffffffffffffffffffffffffffffffffffffffff16145b8061220c5750600460096010811015156121bb57fe5b0160009054906101000a900473ffffffffffffffffffffffffffffffffffffffff1673ffffffffffffffffffffffffffffffffffffffff163373ffffffffffffffffffffffffffffffffffffffff16145b8061227357506004600a60108110151561222257fe5b0160009054906101000a900473ffffffffffffffffffffffffffffffffffffffff1673ffffffffffffffffffffffffffffffffffffffff163373ffffffffffffffffffffffffffffffffffffffff16145b806122da57506004600b60108110151561228957fe5b0160009054906101000a900473ffffffffffffffffffffffffffffffffffffffff1673ffffffffffffffffffffffffffffffffffffffff163373ffffffffffffffffffffffffffffffffffffffff16145b8061234157506004600c6010811015156122f057fe5b0160009054906101000a900473ffffffffffffffffffffffffffffffffffffffff1673ffffffffffffffffffffffffffffffffffffffff163373ffffffffffffffffffffffffffffffffffffffff16145b806123a857506004600d60108110151561235757fe5b0160009054906101000a900473ffffffffffffffffffffffffffffffffffffffff1673ffffffffffffffffffffffffffffffffffffffff163373ffffffffffffffffffffffffffffffffffffffff16145b8061240f57506004600e6010811015156123be57fe5b0160009054906101000a900473ffffffffffffffffffffffffffffffffffffffff1673ffffffffffffffffffffffffffffffffffffffff163373ffffffffffffffffffffffffffffffffffffffff16145b8061247657506004600f60108110151561242557fe5b0160009054906101000a900473ffffffffffffffffffffffffffffffffffffffff1673ffffffffffffffffffffffffffffffffffffffff163373ffffffffffffffffffffffffffffffffffffffff16145b151561248157600080fd5b6078602360006001601654038152602001908152602001600020600401540142101515156124ae57600080fd5b6005602360006001601654038152602001908152602001600020600101540143101515156124db57600080fd5b600060010288141580156124f3575060006001028714155b15156124fe57600080fd5b8760236000600160165403815260200190815260200160002060020154141580156125445750866023600060016016540381526020019081526020016000206003015414155b151561254f57600080fd5b6000602360006016548152602001908152602001600020600101541480156125925750600060010260236000601654815260200190815260200160002060020154145b80156125b95750600060010260236000601654815260200190815260200160002060030154145b80156125dd5750600060236000601654815260200190815260200160002060040154145b15156125e857600080fd5b60006001028614158015612600575060006001028514155b151561260b57600080fd5b600082600060058110151561261c57fe5b60200201519050600083600160058110151561263457fe5b60200201519050600084600260058110151561264c57fe5b60200201519050600085600360058110151561266457fe5b60200201519050600086600460058110151561267c57fe5b60200201519050600082101580156126945750606482105b151561269f57600080fd5b60006018541480156126b657506007856019540110155b1561281e57610160604051908101604052803373ffffffffffffffffffffffffffffffffffffffff1681526020014381526020018e81526020018d81526020014281526020018681526020018581526020018481526020016024600060185481526020019081526020016000206000015481526020018c81526020018b81525060236000601654815260200190815260200160002060008201518160000160006101000a81548173ffffffffffffffffffffffffffffffffffffffff021916908373ffffffffffffffffffffffffffffffffffffffff1602179055506020820151816001015560408201518160020155606082015181600301556080820151816004015560a0820151816005015560c0820151816006015560e082015181600701556101008201518160080155610120820151816009015561014082015181600a015590505042601f819055506128198d60008060006001026000600102615740565b6130f1565b60006018541415801561283d5750602060009054906101000a900460ff165b801561284e5750602154601f544203115b156129c857610160604051908101604052803373ffffffffffffffffffffffffffffffffffffffff1681526020014381526020018e81526020018d81526020014281526020018681526020018581526020018481526020016024600060185481526020019081526020016000206000015481526020018c81526020018b81525060236000601654815260200190815260200160002060008201518160000160006101000a81548173ffffffffffffffffffffffffffffffffffffffff021916908373ffffffffffffffffffffffffffffffffffffffff1602179055506020820151816001015560408201518160020155606082015181600301556080820151816004015560a0820151816005015560c0820151816006015560e082015181600701556101008201518160080155610120820151816009015561014082015181600a015590505060014203601e8190555042601f819055506129b0601c54615906565b601c819055506129c38d83838c8c615740565b6130f0565b6000601854141580156129e75750602060009054906101000a900460ff165b80156129fc57506129fb84601a540161154a565b5b15612c1957600060246000601854815260200190815260200160002060020154148015612a445750600060010260246000601854815260200190815260200160002060030154145b1515612a4f57600080fd5b610160604051908101604052803373ffffffffffffffffffffffffffffffffffffffff1681526020014381526020018e81526020018d81526020014281526020018681526020018581526020018481526020016024600060185481526020019081526020016000206000015481526020018c81526020018b81525060236000601654815260200190815260200160002060008201518160000160006101000a81548173ffffffffffffffffffffffffffffffffffffffff021916908373ffffffffffffffffffffffffffffffffffffffff1602179055506020820151816001015560408201518160020155606082015181600301556080820151816004015560a0820151816005015560c0820151816006015560e082015181600701556101008201518160080155610120820151816009015561014082015181600a015590505042601e81905550612ba2601c5461593a565b601c8190555060165460246000601854815260200190815260200160002060020181905550612bd58d6001430340613116565b602460006018548152602001908152602001600020600301819055506000601b819055506000602060006101000a81548160ff0219169083151502179055506130ef565b600060185414158015612c3f575060001515602060009054906101000a900460ff161515145b8015612c505750602154601e544203115b15612dc057610160604051908101604052803373ffffffffffffffffffffffffffffffffffffffff1681526020014381526020018e81526020018d81526020014281526020018681526020018581526020018481526020016024600060185481526020019081526020016000206000015481526020018c81526020018b81525060236000601654815260200190815260200160002060008201518160000160006101000a81548173ffffffffffffffffffffffffffffffffffffffff021916908373ffffffffffffffffffffffffffffffffffffffff1602179055506020820151816001015560408201518160020155606082015181600301556080820151816004015560a0820151816005015560c0820151816006015560e082015181600701556101008201518160080155610120820151816009015561014082015181600a0155905050612da1601d54615906565b601d8190555042601f81905550612dbb8d83838c8c615740565b6130ee565b600060185414158015612de6575060001515602060009054906101000a900460ff161515145b8015612dfb5750612dfa83601b54016131db565b5b15612f7b5760018110151515612e1057600080fd5b610160604051908101604052803373ffffffffffffffffffffffffffffffffffffffff1681526020014381526020018e81526020018d81526020014281526020018681526020018581526020018481526020016024600060185481526020019081526020016000206000015481526020018c81526020018b81525060236000601654815260200190815260200160002060008201518160000160006101000a81548173ffffffffffffffffffffffffffffffffffffffff021916908373ffffffffffffffffffffffffffffffffffffffff1602179055506020820151816001015560408201518160020155606082015181600301556080820151816004015560a0820151816005015560c0820151816006015560e082015181600701556101008201518160080155610120820151816009015561014082015181600a0155905050612f5c601d5461593a565b601d8190555042601f81905550612f768d83838c8c615740565b6130ed565b83601a6000828254019250508190555082601b6000828254019250508190555084601960008282540192505081905550610160604051908101604052803373ffffffffffffffffffffffffffffffffffffffff1681526020014381526020018e81526020018d81526020014281526020018681526020018581526020018481526020016024600060185481526020019081526020016000206000015481526020018c81526020018b81525060236000601654815260200190815260200160002060008201518160000160006101000a81548173ffffffffffffffffffffffffffffffffffffffff021916908373ffffffffffffffffffffffffffffffffffffffff1602179055506020820151816001015560408201518160020155606082015181600301556080820151816004015560a0820151816005015560c0820151816006015560e082015181600701556101008201518160080155610120820151816009015561014082015181600a01559050505b5b5b5b5b6001601660008282540192505081905550600195505050505050979650505050505050565b60008282604051602001808381526020018281526020019250505060405160208183030381529060405280519060200120905092915050565b60008061315c848461595b565b6024600060018703815260200190815260200160002060040154915091509250929050565b600080600080600085141561319a57601854905061319e565b8490505b8060246000838152602001908152602001600020600001546024600084815260200190815260200160002060010154935093509350509193909250565b600080601460009054906101000a900473ffffffffffffffffffffffffffffffffffffffff1673ffffffffffffffffffffffffffffffffffffffff166322faa41f6040518163ffffffff167c010000000000000000000000000000000000000000000000000000000002815260040160206040518083038186803b15801561326257600080fd5b505afa158015613276573d6000803e3d6000fd5b505050506040513d602081101561328c57600080fd5b81019080805190602001909291905050509050600381101515156132af57600080fd5b60008184610320028115156132c057fe5b049050601d54811015156132d9576001925050506132dc565b50505b919050565b601b5481565b6000806000806000851415613300576018549050613304565b8490505b8060246000838152602001908152602001600020600201546024600084815260200190815260200160002060030154935093509350509193909250565b60008082101580156133535750601082105b151561335e57600080fd5b60048260108110151561336d57fe5b0160009054906101000a900473ffffffffffffffffffffffffffffffffffffffff169050919050565b601d5481565b6000806000601854601c54601d54925092509250909192565b6000601854905090565b600073ffffffffffffffffffffffffffffffffffffffff163373ffffffffffffffffffffffffffffffffffffffff16141515156133fb57600080fd5b6004600060108110151561340b57fe5b0160009054906101000a900473ffffffffffffffffffffffffffffffffffffffff1673ffffffffffffffffffffffffffffffffffffffff163373ffffffffffffffffffffffffffffffffffffffff1614806134c257506004600160108110151561347157fe5b0160009054906101000a900473ffffffffffffffffffffffffffffffffffffffff1673ffffffffffffffffffffffffffffffffffffffff163373ffffffffffffffffffffffffffffffffffffffff16145b806135295750600460026010811015156134d857fe5b0160009054906101000a900473ffffffffffffffffffffffffffffffffffffffff1673ffffffffffffffffffffffffffffffffffffffff163373ffffffffffffffffffffffffffffffffffffffff16145b8061359057506004600360108110151561353f57fe5b0160009054906101000a900473ffffffffffffffffffffffffffffffffffffffff1673ffffffffffffffffffffffffffffffffffffffff163373ffffffffffffffffffffffffffffffffffffffff16145b806135f657506004806010811015156135a557fe5b0160009054906101000a900473ffffffffffffffffffffffffffffffffffffffff1673ffffffffffffffffffffffffffffffffffffffff163373ffffffffffffffffffffffffffffffffffffffff16145b8061365d57506004600560108110151561360c57fe5b0160009054906101000a900473ffffffffffffffffffffffffffffffffffffffff1673ffffffffffffffffffffffffffffffffffffffff163373ffffffffffffffffffffffffffffffffffffffff16145b806136c457506004600660108110151561367357fe5b0160009054906101000a900473ffffffffffffffffffffffffffffffffffffffff1673ffffffffffffffffffffffffffffffffffffffff163373ffffffffffffffffffffffffffffffffffffffff16145b8061372b5750600460076010811015156136da57fe5b0160009054906101000a900473ffffffffffffffffffffffffffffffffffffffff1673ffffffffffffffffffffffffffffffffffffffff163373ffffffffffffffffffffffffffffffffffffffff16145b8061379257506004600860108110151561374157fe5b0160009054906101000a900473ffffffffffffffffffffffffffffffffffffffff1673ffffffffffffffffffffffffffffffffffffffff163373ffffffffffffffffffffffffffffffffffffffff16145b806137f95750600460096010811015156137a857fe5b0160009054906101000a900473ffffffffffffffffffffffffffffffffffffffff1673ffffffffffffffffffffffffffffffffffffffff163373ffffffffffffffffffffffffffffffffffffffff16145b8061386057506004600a60108110151561380f57fe5b0160009054906101000a900473ffffffffffffffffffffffffffffffffffffffff1673ffffffffffffffffffffffffffffffffffffffff163373ffffffffffffffffffffffffffffffffffffffff16145b806138c757506004600b60108110151561387657fe5b0160009054906101000a900473ffffffffffffffffffffffffffffffffffffffff1673ffffffffffffffffffffffffffffffffffffffff163373ffffffffffffffffffffffffffffffffffffffff16145b8061392e57506004600c6010811015156138dd57fe5b0160009054906101000a900473ffffffffffffffffffffffffffffffffffffffff1673ffffffffffffffffffffffffffffffffffffffff163373ffffffffffffffffffffffffffffffffffffffff16145b8061399557506004600d60108110151561394457fe5b0160009054906101000a900473ffffffffffffffffffffffffffffffffffffffff1673ffffffffffffffffffffffffffffffffffffffff163373ffffffffffffffffffffffffffffffffffffffff16145b806139fc57506004600e6010811015156139ab57fe5b0160009054906101000a900473ffffffffffffffffffffffffffffffffffffffff1673ffffffffffffffffffffffffffffffffffffffff163373ffffffffffffffffffffffffffffffffffffffff16145b80613a6357506004600f601081101515613a1257fe5b0160009054906101000a900473ffffffffffffffffffffffffffffffffffffffff1673ffffffffffffffffffffffffffffffffffffffff163373ffffffffffffffffffffffffffffffffffffffff16145b1515613a6e57600080fd5b60b481118015613a8057506201518081105b1515613a8b57600080fd5b8060218190555050565b602060009054906101000a900460ff1681565b601e5481565b60008073ffffffffffffffffffffffffffffffffffffffff163373ffffffffffffffffffffffffffffffffffffffff1614151515613aeb57600080fd5b600080600481101515613afa57fe5b0160009054906101000a900473ffffffffffffffffffffffffffffffffffffffff1673ffffffffffffffffffffffffffffffffffffffff163373ffffffffffffffffffffffffffffffffffffffff161480613bb1575060006001600481101515613b6057fe5b0160009054906101000a900473ffffffffffffffffffffffffffffffffffffffff1673ffffffffffffffffffffffffffffffffffffffff163373ffffffffffffffffffffffffffffffffffffffff16145b80613c18575060006002600481101515613bc757fe5b0160009054906101000a900473ffffffffffffffffffffffffffffffffffffffff1673ffffffffffffffffffffffffffffffffffffffff163373ffffffffffffffffffffffffffffffffffffffff16145b80613c7f575060006003600481101515613c2e57fe5b0160009054906101000a900473ffffffffffffffffffffffffffffffffffffffff1673ffffffffffffffffffffffffffffffffffffffff163373ffffffffffffffffffffffffffffffffffffffff16145b1515613c8a57600080fd5b600073ffffffffffffffffffffffffffffffffffffffff168373ffffffffffffffffffffffffffffffffffffffff1614151515613cc657600080fd5b60008210158015613cd75750601082105b1515613ce257600080fd5b82600483601081101515613cf257fe5b0160006101000a81548173ffffffffffffffffffffffffffffffffffffffff021916908373ffffffffffffffffffffffffffffffffffffffff1602179055506001905092915050565b600060208551101515613d4d57600080fd5b83518551141515613d5d57600080fd5b600083905060008090505b8651811015613e4f5760008782815181101515613d8157fe5b9060200190602002015190508682815181101515613d9b57fe5b9060200190602002015115613de05780836040516020018083815260200182815260200192505050604051602081830303815290604052805190602001209250613e41565b8682815181101515613dee57fe5b906020019060200201511515613e345782816040516020018083815260200182815260200192505050604051602081830303815290604052805190602001209250613e40565b60009350505050613e57565b5b508080600101915050613d68565b508281149150505b949350505050565b600073ffffffffffffffffffffffffffffffffffffffff163373ffffffffffffffffffffffffffffffffffffffff1614151515613e9b57600080fd5b60046000601081101515613eab57fe5b0160009054906101000a900473ffffffffffffffffffffffffffffffffffffffff1673ffffffffffffffffffffffffffffffffffffffff163373ffffffffffffffffffffffffffffffffffffffff161480613f62575060046001601081101515613f1157fe5b0160009054906101000a900473ffffffffffffffffffffffffffffffffffffffff1673ffffffffffffffffffffffffffffffffffffffff163373ffffffffffffffffffffffffffffffffffffffff16145b80613fc9575060046002601081101515613f7857fe5b0160009054906101000a900473ffffffffffffffffffffffffffffffffffffffff1673ffffffffffffffffffffffffffffffffffffffff163373ffffffffffffffffffffffffffffffffffffffff16145b80614030575060046003601081101515613fdf57fe5b0160009054906101000a900473ffffffffffffffffffffffffffffffffffffffff1673ffffffffffffffffffffffffffffffffffffffff163373ffffffffffffffffffffffffffffffffffffffff16145b80614096575060048060108110151561404557fe5b0160009054906101000a900473ffffffffffffffffffffffffffffffffffffffff1673ffffffffffffffffffffffffffffffffffffffff163373ffffffffffffffffffffffffffffffffffffffff16145b806140fd5750600460056010811015156140ac57fe5b0160009054906101000a900473ffffffffffffffffffffffffffffffffffffffff1673ffffffffffffffffffffffffffffffffffffffff163373ffffffffffffffffffffffffffffffffffffffff16145b8061416457506004600660108110151561411357fe5b0160009054906101000a900473ffffffffffffffffffffffffffffffffffffffff1673ffffffffffffffffffffffffffffffffffffffff163373ffffffffffffffffffffffffffffffffffffffff16145b806141cb57506004600760108110151561417a57fe5b0160009054906101000a900473ffffffffffffffffffffffffffffffffffffffff1673ffffffffffffffffffffffffffffffffffffffff163373ffffffffffffffffffffffffffffffffffffffff16145b806142325750600460086010811015156141e157fe5b0160009054906101000a900473ffffffffffffffffffffffffffffffffffffffff1673ffffffffffffffffffffffffffffffffffffffff163373ffffffffffffffffffffffffffffffffffffffff16145b8061429957506004600960108110151561424857fe5b0160009054906101000a900473ffffffffffffffffffffffffffffffffffffffff1673ffffffffffffffffffffffffffffffffffffffff163373ffffffffffffffffffffffffffffffffffffffff16145b8061430057506004600a6010811015156142af57fe5b0160009054906101000a900473ffffffffffffffffffffffffffffffffffffffff1673ffffffffffffffffffffffffffffffffffffffff163373ffffffffffffffffffffffffffffffffffffffff16145b8061436757506004600b60108110151561431657fe5b0160009054906101000a900473ffffffffffffffffffffffffffffffffffffffff1673ffffffffffffffffffffffffffffffffffffffff163373ffffffffffffffffffffffffffffffffffffffff16145b806143ce57506004600c60108110151561437d57fe5b0160009054906101000a900473ffffffffffffffffffffffffffffffffffffffff1673ffffffffffffffffffffffffffffffffffffffff163373ffffffffffffffffffffffffffffffffffffffff16145b8061443557506004600d6010811015156143e457fe5b0160009054906101000a900473ffffffffffffffffffffffffffffffffffffffff1673ffffffffffffffffffffffffffffffffffffffff163373ffffffffffffffffffffffffffffffffffffffff16145b8061449c57506004600e60108110151561444b57fe5b0160009054906101000a900473ffffffffffffffffffffffffffffffffffffffff1673ffffffffffffffffffffffffffffffffffffffff163373ffffffffffffffffffffffffffffffffffffffff16145b8061450357506004600f6010811015156144b257fe5b0160009054906101000a900473ffffffffffffffffffffffffffffffffffffffff1673ffffffffffffffffffffffffffffffffffffffff163373ffffffffffffffffffffffffffffffffffffffff16145b151561450e57600080fd5b600582101580156145205750605f8211155b151561452b57600080fd5b6005811015801561453d5750605f8111155b151561454857600080fd5b81601c8190555080601d819055505050565b60185481565b60008060008060008060006023600089815260200190815260200160002060010154602360008a815260200190815260200160002060020154602360008b815260200190815260200160002060030154602360008c815260200190815260200160002060090154602360008d8152602001908152602001600020600a0154602360008e815260200190815260200160002060080154602360008f815260200190815260200160002060000160009054906101000a900473ffffffffffffffffffffffffffffffffffffffff169650965096509650965096509650919395979092949650565b601460009054906101000a900473ffffffffffffffffffffffffffffffffffffffff1681565b60006016548210151561467d57600080fd5b60006001026023600084815260200190815260200160002060090154141515156146a657600080fd5b6146c88585856023600087815260200190815260200160002060090154613d3b565b9050949350505050565b6146da6159d2565b6000600480602002604051908101604052809291908260048015614749576020028201915b8160009054906101000a900473ffffffffffffffffffffffffffffffffffffffff1673ffffffffffffffffffffffffffffffffffffffff16815260200190600101908083116146ff575b5050505050905090565b60008073ffffffffffffffffffffffffffffffffffffffff163373ffffffffffffffffffffffffffffffffffffffff161415151561479057600080fd5b60008060048110151561479f57fe5b0160009054906101000a900473ffffffffffffffffffffffffffffffffffffffff1673ffffffffffffffffffffffffffffffffffffffff163373ffffffffffffffffffffffffffffffffffffffff16148061485657506000600160048110151561480557fe5b0160009054906101000a900473ffffffffffffffffffffffffffffffffffffffff1673ffffffffffffffffffffffffffffffffffffffff163373ffffffffffffffffffffffffffffffffffffffff16145b806148bd57506000600260048110151561486c57fe5b0160009054906101000a900473ffffffffffffffffffffffffffffffffffffffff1673ffffffffffffffffffffffffffffffffffffffff163373ffffffffffffffffffffffffffffffffffffffff16145b806149245750600060036004811015156148d357fe5b0160009054906101000a900473ffffffffffffffffffffffffffffffffffffffff1673ffffffffffffffffffffffffffffffffffffffff163373ffffffffffffffffffffffffffffffffffffffff16145b151561492f57600080fd5b816000600360048110151561494057fe5b0160006101000a81548173ffffffffffffffffffffffffffffffffffffffff021916908373ffffffffffffffffffffffffffffffffffffffff16021790555060019050919050565b6000808260ff16101580156149a15750603f8260ff1611155b15156149ac57600080fd5b600160028360ff168115156149bd57fe5b0660ff161415614a655760108360028460ff168115156149d957fe5b0460ff166020811015156149e957fe5b1a7f0100000000000000000000000000000000000000000000000000000000000000027f0100000000000000000000000000000000000000000000000000000000000000900460ff16811515614a3b57fe5b067f0100000000000000000000000000000000000000000000000000000000000000029050614aff565b60108360028460ff16811515614a7757fe5b0460ff16602081101515614a8757fe5b1a7f0100000000000000000000000000000000000000000000000000000000000000027f0100000000000000000000000000000000000000000000000000000000000000900460ff16811515614ad957fe5b047f01000000000000000000000000000000000000000000000000000000000000000290505b92915050565b601a5481565b60008082141515614b345760246000838152602001908152602001600020600001549050614b50565b6024600060185481526020019081526020016000206000015490505b919050565b60236020528060005260406000206000915090508060000160009054906101000a900473ffffffffffffffffffffffffffffffffffffffff169080600101549080600201549080600301549080600401549080600501549080600601549080600701549080600801549080600901549080600a015490508b565b60165481565b6000806000806000851415614bee576018549050614bf2565b8490505b8060246000838152602001908152602001600020600501546024600084815260200190815260200160002060070154935093509350509193909250565b60008060008060008060008060008060006018548c1415614c5b57600090506002601854019150614c62565b8b90508b91505b80602460008481526020019081526020016000206000015460246000858152602001908152602001600020600101546024600086815260200190815260200160002060040154602460008781526020019081526020016000206006015460246000888152602001908152602001600020600701546024600089815260200190815260200160002060020154602460008a815260200190815260200160002060030154602460008b8152602001908152602001600020600501549a509a509a509a509a509a509a509a509a5050509193959799909294969850565b60008073ffffffffffffffffffffffffffffffffffffffff168273ffffffffffffffffffffffffffffffffffffffff161415614d7b57600090506153e6565b60046000601081101515614d8b57fe5b0160009054906101000a900473ffffffffffffffffffffffffffffffffffffffff1673ffffffffffffffffffffffffffffffffffffffff168273ffffffffffffffffffffffffffffffffffffffff161480614e42575060046001601081101515614df157fe5b0160009054906101000a900473ffffffffffffffffffffffffffffffffffffffff1673ffffffffffffffffffffffffffffffffffffffff168273ffffffffffffffffffffffffffffffffffffffff16145b80614ea9575060046002601081101515614e5857fe5b0160009054906101000a900473ffffffffffffffffffffffffffffffffffffffff1673ffffffffffffffffffffffffffffffffffffffff168273ffffffffffffffffffffffffffffffffffffffff16145b80614f10575060046003601081101515614ebf57fe5b0160009054906101000a900473ffffffffffffffffffffffffffffffffffffffff1673ffffffffffffffffffffffffffffffffffffffff168273ffffffffffffffffffffffffffffffffffffffff16145b80614f765750600480601081101515614f2557fe5b0160009054906101000a900473ffffffffffffffffffffffffffffffffffffffff1673ffffffffffffffffffffffffffffffffffffffff168273ffffffffffffffffffffffffffffffffffffffff16145b80614fdd575060046005601081101515614f8c57fe5b0160009054906101000a900473ffffffffffffffffffffffffffffffffffffffff1673ffffffffffffffffffffffffffffffffffffffff168273ffffffffffffffffffffffffffffffffffffffff16145b80615044575060046006601081101515614ff357fe5b0160009054906101000a900473ffffffffffffffffffffffffffffffffffffffff1673ffffffffffffffffffffffffffffffffffffffff168273ffffffffffffffffffffffffffffffffffffffff16145b806150ab57506004600760108110151561505a57fe5b0160009054906101000a900473ffffffffffffffffffffffffffffffffffffffff1673ffffffffffffffffffffffffffffffffffffffff168273ffffffffffffffffffffffffffffffffffffffff16145b806151125750600460086010811015156150c157fe5b0160009054906101000a900473ffffffffffffffffffffffffffffffffffffffff1673ffffffffffffffffffffffffffffffffffffffff168273ffffffffffffffffffffffffffffffffffffffff16145b8061517957506004600960108110151561512857fe5b0160009054906101000a900473ffffffffffffffffffffffffffffffffffffffff1673ffffffffffffffffffffffffffffffffffffffff168273ffffffffffffffffffffffffffffffffffffffff16145b806151e057506004600a60108110151561518f57fe5b0160009054906101000a900473ffffffffffffffffffffffffffffffffffffffff1673ffffffffffffffffffffffffffffffffffffffff168273ffffffffffffffffffffffffffffffffffffffff16145b8061524757506004600b6010811015156151f657fe5b0160009054906101000a900473ffffffffffffffffffffffffffffffffffffffff1673ffffffffffffffffffffffffffffffffffffffff168273ffffffffffffffffffffffffffffffffffffffff16145b806152ae57506004600c60108110151561525d57fe5b0160009054906101000a900473ffffffffffffffffffffffffffffffffffffffff1673ffffffffffffffffffffffffffffffffffffffff168273ffffffffffffffffffffffffffffffffffffffff16145b8061531557506004600d6010811015156152c457fe5b0160009054906101000a900473ffffffffffffffffffffffffffffffffffffffff1673ffffffffffffffffffffffffffffffffffffffff168273ffffffffffffffffffffffffffffffffffffffff16145b8061537c57506004600e60108110151561532b57fe5b0160009054906101000a900473ffffffffffffffffffffffffffffffffffffffff1673ffffffffffffffffffffffffffffffffffffffff168273ffffffffffffffffffffffffffffffffffffffff16145b806153e357506004600f60108110151561539257fe5b0160009054906101000a900473ffffffffffffffffffffffffffffffffffffffff1673ffffffffffffffffffffffffffffffffffffffff168273ffffffffffffffffffffffffffffffffffffffff16145b90505b919050565b6000601654905090565b601f5481565b600061548b8b8b80806020026020016040519081016040528093929190818152602001838360200280828437600081840152601f19601f820116905080830192505050505050508a8a80806020026020016040519081016040528093929190818152602001838360200280828437600081840152601f19601f820116905080830192505050505050508989611ce1565b151561549657600080fd5b602460008d81526020019081526020016000206002015486111515156154bb57600080fd5b6154c8338686868661164f565b15156154d357600080fd5b6154dd8c8861595b565b15156154e857600080fd5b6018548c14806154fc57506001601854018c145b151561550757600080fd5b60001515602660008e815260200190815260200160002060003373ffffffffffffffffffffffffffffffffffffffff1673ffffffffffffffffffffffffffffffffffffffff16815260200190815260200160002060009054906101000a900460ff1615151415156155c3576040517f08c379a000000000000000000000000000000000000000000000000000000000815260040180806020018281038252602a8152602001806159f6602a913960400191505060405180910390fd5b600160266000601854815260200190815260200160002060003373ffffffffffffffffffffffffffffffffffffffff1673ffffffffffffffffffffffffffffffffffffffff16815260200190815260200160002060006101000a81548160ff021916908315150217905550601560009054906101000a900473ffffffffffffffffffffffffffffffffffffffff1673ffffffffffffffffffffffffffffffffffffffff166340c10f19336022546040518363ffffffff167c0100000000000000000000000000000000000000000000000000000000028152600401808373ffffffffffffffffffffffffffffffffffffffff1673ffffffffffffffffffffffffffffffffffffffff16815260200182815260200192505050602060405180830381600087803b1580156156f557600080fd5b505af1158015615709573d6000803e3d6000fd5b505050506040513d602081101561571f57600080fd5b8101908080519060200190929190505050509b9a5050505050505050505050565b6000601a819055506000601b81905550600060198190555083602460006018548152602001908152602001600020600401819055508260246000601854815260200190815260200160002060050181905550816024600060185481526020019081526020016000206006018190555080602460006018548152602001908152602001600020600701819055506001602060006101000a81548160ff0219169083151502179055506001601860008282540192505081905550600085601854604051602001808381526020018281526020019250505060405160208183030381529060405280519060200120905061010060405190810160405280828152602001600160165401815260200160008152602001600060010281526020016000815260200160008152602001600060010281526020016000600102815250602460006018548152602001908152602001600020600082015181600001556020820151816001015560408201518160020155606082015181600301556080820151816004015560a0820151816005015560c0820151816006015560e082015181600701559050506018546025600083815260200190815260200160002081905550505050505050565b600060648210151561591b57605f9050615935565b600a8210151561593057600582039050615935565b600590505b919050565b6000605a8211151561595157600582019050615956565b605f90505b919050565b6000601854831015801561598957506000600102602460008581526020019081526020016000206003015414155b151561599457600080fd5b6000602460008581526020019081526020016000206003015490506159c98184602060019054906101000a900460ff1661191e565b91505092915050565b60806040519081016040528060049060208202803883398082019150509050509056fe416e206163636f756e742063616e206f6e6c7920636c61696d206f6e636520706572206f70526f756e64a165627a7a7230582094696f7a14cec97432bcf815fa68e9c236462188e8b8a0b2f82681713ba7fb9a0029",
  "source": "pragma solidity ^0.5.2;\nimport \"./lib/safe-math.sol\";\nimport \"./Interfaces/MemberShipInterface.sol\";\nimport \"./Interfaces/QOTInterface.sol\";\n\n// TODO: use safemath\n\ncontract BlockRegistry{\n    using SafeMath for uint256;\n\n    // Variables\n    address[4] public managers;  // use \"coreManagers\" and \"managers\" as in \"MemberShip.sol\"?\n    address[16] public validators;\n    address public memberContractAddr;\n    address public QOTAddr;\n    uint public nowSblockNo;  // start from 1\n    uint public sblockTimeStep = 15 minutes;  // it's a minimum timestep\n    // bool public opRoundStatus = true;  // need `true` for 1st round; or simply use \"pause/unpause\"?\n    uint public opRound;\n    uint public articleCount;\n    // variables with `v1` or `vote1`: lottery; with `v2` or `vote2`: claim\n    uint public roundVote1Count;\n    uint public roundVote2Count;\n    uint public vote1Threshold = 40;  // between 5 and 95, step 5\n    uint public vote2Threshold = 40;  // between 5 and 95, step 5\n    uint public v1EndTime;\n    uint public v2EndTime;\n    bool public atV1;\n    uint8 public numRange = 8;  // it means pick x out of 16 numbers; should eventually make it constant\n    uint public maxVoteTime = 15 minutes;  // an Opround cannot longer than 2*maxVoteTime; use small values for debug\n    uint public reward = 100;  // should be a global (constant) variable. Or fix a value in QOT\n\n    struct blockStat{\n        address validator;\n        uint blockHeight;  // block.number while submission\n        bytes32 merkleRoot;  // IPFs hash string to bytes32: \n        bytes32 ipfsAddr;  // string to hex (in js): ethUtils.bufferToHex(bs58.decode(ipfsHash).slice(2));\n        uint timestamp;\n        uint uniqArticleCount;\n        uint vote1Count;\n        uint vote2Count;\n        bytes32 opRoundId;\n        bytes32 aidMerkleRoot;\n        bytes32 aidIpfsAddr;\n    }\n    mapping (uint => blockStat) public blockHistory;  // sblockNo to blockStat\n\n    struct opRoundStruct{\n        // update during creation of this opRound\n        bytes32 id;\n        uint initBlockNo;\n        // update in lottery-sblock\n        uint lotteryBlockNo;\n        bytes32 lotteryWinNumber;\n        // update in final-sblock\n        uint minSuccessRate;  // shoud be an integer between 0 and 100; this is used in next opRound\n        uint baseline;  // i.e, the total votes of the vote2 winner\n        bytes32 succesRateDB;  // IPFS contain success rate\n        bytes32 finalListIpfs;\n    }\n    mapping (uint => opRoundStruct) opRoundHistory;\n    mapping (bytes32 => uint) opRoundIdToNum;  // opRound id to opRound number\n    // mapping (uint => uint) public lotterySblockNo;  // give `opRound`, return the corresponding `sblock_no` while lottery happened\n    // mapping (uint => bytes32) public opRoundLog;  // opRound index to opRound id\n    mapping (uint => mapping(address => bool)) opRoundClaimed;\n\n    constructor(address _memberContractAddr, address _QOTAddr) public {\n        memberContractAddr = _memberContractAddr;\n        QOTAddr = _QOTAddr;\n        managers = [ 0xB440ea2780614b3c6a00e512f432785E7dfAFA3E,\n                     0x4AD56641C569C91C64C28a904cda50AE5326Da41,\n                     0xaF7400787c54422Be8B44154B1273661f1259CcD,\n                     address(0)];\n        validators = [ 0xB440ea2780614b3c6a00e512f432785E7dfAFA3E,\n                       0x4AD56641C569C91C64C28a904cda50AE5326Da41,\n                       0xaF7400787c54422Be8B44154B1273661f1259CcD,\n                       address(0), address(0), address(0), address(0), address(0),\n                       address(0), address(0), address(0), address(0), address(0),\n                       address(0), address(0), address(0)];\n        blockHistory[0] = blockStat(msg.sender, block.number, 0x0, 0x0, block.timestamp,\n                                    0, 0, 0, 0x0, 0x0, 0x0);\n        // opRoundHistory[0] = opRoundStruct(0x0000000000000000000000000000000000000000000000000000000000000001,\n        //                                   nowSblockNo, 0, 0x0, 0, 0, 0x0, 0x0);\n        nowSblockNo = 1;\n    }\n\n    // Modifiers\n    modifier managerOnly() {\n        require(msg.sender != address(0));\n        require(msg.sender == managers[0] || msg.sender == managers[1] || msg.sender == managers[2] || msg.sender == managers[3]);\n        _;\n    }\n\n    modifier validatorOnly() {\n        require(msg.sender != address(0));\n        require(msg.sender == validators[0] || msg.sender == validators[1] || msg.sender == validators[2] ||\n                msg.sender == validators[3] || msg.sender == validators[4] || msg.sender == validators[5] ||\n                msg.sender == validators[6] || msg.sender == validators[7] || msg.sender == validators[8] ||\n                msg.sender == validators[9] || msg.sender == validators[10] || msg.sender == validators[11] ||\n                msg.sender == validators[12] || msg.sender == validators[13] || msg.sender == validators[14] ||\n                msg.sender == validators[15]);\n        _;\n    }\n\n    // some adjustable functions only for developing phase\n    function updateMaxVoteTime(uint _seconds) public validatorOnly {\n        require(_seconds > 180 && _seconds < 86400);  // restrict to a range\n        maxVoteTime = _seconds;\n    }\n\n    function setThreshold(uint _x, uint _y) public validatorOnly{\n        require(_x >= 5 && _x <=95);\n        require(_y >= 5 && _y <=95);\n        vote1Threshold = _x;\n        vote2Threshold = _y;\n    }\n\n    // some internal functions\n    function _increaseThreshold(uint _x) internal pure returns(uint) {\n        if (_x <= 90) {\n            return _x + 5;\n        } else {\n            return 95;\n        }\n    }\n\n    function _decreaseThreshold(uint _x) internal pure returns(uint) {\n        if (_x >= 100) {\n            return 95;\n        } else if (_x >= 10) {\n            return _x - 5;\n        } else {\n            return 5;\n        }\n    }\n\n    function _toNextOpRound(bytes32 _mr, uint _minSuccessRate, uint _baseline, bytes32 _successRateDB, bytes32 _finalListIpfs) internal {\n        roundVote1Count = 0;\n        roundVote2Count = 0;\n        articleCount = 0;\n        // MemberShipInterface(memberContractAddr).updateActiveMemberCount(false);  // note: if too frequent, it will not update unless set 'forced=true'\n\n        // update current opRoundHistory\n        opRoundHistory[opRound].minSuccessRate = _minSuccessRate;  // next opRound need this\n        opRoundHistory[opRound].baseline = _baseline;\n        opRoundHistory[opRound].succesRateDB = _successRateDB;\n        opRoundHistory[opRound].finalListIpfs = _finalListIpfs;\n\n        // for next opRound\n        atV1 = true;\n        opRound += 1;\n        bytes32 _oid = bytes32(keccak256(abi.encodePacked(_mr, opRound)));\n        opRoundHistory[opRound] = opRoundStruct(_oid, nowSblockNo+1, 0, 0x0, 0, 0, 0x0, 0x0);\n        opRoundIdToNum[_oid] = opRound;\n    }\n\n    // create a new sblock\n    function submitMerkleRoot(\n        bytes32 _merkleRoot,\n        bytes32 _ipfsAddr,\n        bytes32 _aidMerkleRoot,\n        bytes32 _aidIpfsAddr,\n        bytes32 _successRateDB,\n        bytes32 _finalListIpfs,\n        uint[5] memory _ints // uint _uniqArticleCount, uint _vote1Count, uint _vote2Count, uint _minSuccessRate, uint _baseline\n    ) public validatorOnly returns (bool) {\n        // Note: a `opRound` contains two parts: `(v1)vote` and `(v2)claim`,\n        //       (v2) may not happen if (v1) takes more than maxVoteTime.\n        // comment some \"require\"s for test purpose\n        // require(block.timestamp >= blockHistory[nowSblockNo] + sblockTimeStep, 'too soon');\n        require(block.timestamp >= blockHistory[nowSblockNo-1].timestamp + 2 minutes);  // 2 min is for test purpose, should be 1 hour(?)\n        require(block.number >= blockHistory[nowSblockNo-1].blockHeight + 5);  // 5 is for test purpose, should be ?\n        require(_merkleRoot != 0x0 && _ipfsAddr != 0x0);\n        require(blockHistory[nowSblockNo-1].merkleRoot != _merkleRoot && blockHistory[nowSblockNo-1].ipfsAddr != _ipfsAddr);  // prevent re-submission\n        require(blockHistory[nowSblockNo].blockHeight == 0 && blockHistory[nowSblockNo].merkleRoot == 0x0 &&\n                blockHistory[nowSblockNo].ipfsAddr == 0x0 && blockHistory[nowSblockNo].timestamp == 0);\n        require(_aidMerkleRoot != 0x0 && _aidIpfsAddr != 0x0);\n        uint _uniqArticleCount = _ints[0];\n        uint _vote1Count = _ints[1];\n        uint _vote2Count = _ints[2];\n        uint _minSuccessRate = _ints[3];\n        uint _baseline = _ints[4];\n        require(_minSuccessRate >= 0 && _minSuccessRate < 100);  // need the equal for genesis round\n        // require: ...\n\n        // a sblock in a opRound cound be of type: genesis, lottery, lottery-NDR, finalist, finalist-NDR, or regular\n        // (NDR = no-draw-round)\n        if (opRound == 0 && articleCount + _uniqArticleCount >= 7) {  // genesis; set small number for test purpose\n            blockHistory[nowSblockNo] = blockStat(\n                msg.sender, block.number, _merkleRoot, _ipfsAddr, block.timestamp,\n                _uniqArticleCount, _vote1Count, _vote2Count, opRoundHistory[opRound].id,\n                _aidMerkleRoot, _aidIpfsAddr\n            );\n            v2EndTime = block.timestamp;  // although no 'claiming', still need to record a time\n            _toNextOpRound(_merkleRoot, 0, 0, 0x0, 0x0);\n        } else if (opRound != 0 && atV1 && (block.timestamp - v2EndTime > maxVoteTime)) {  // A \"no-draw-round\"! Proceed to next OpRound\n            // TODO: uncomment following lines?\n            // require(minSuccessRate == opRoundHistory[opRound-1].minSuccessRate);\n            // require(_baseline == 0);\n            // require(_finalListIpfs == '0x0');\n            // require(_successRateDB == opRoundHistory[opRound-1].succesRateDB);\n            blockHistory[nowSblockNo] = blockStat(\n                msg.sender, block.number, _merkleRoot, _ipfsAddr, block.timestamp,\n                _uniqArticleCount, _vote1Count, _vote2Count, opRoundHistory[opRound].id,\n                _aidMerkleRoot, _aidIpfsAddr\n            );\n            v1EndTime = block.timestamp-1;  // or don't update? BTW, subtract by 1 to make sure v2EndTime > v1Endtime (or no need?)\n            v2EndTime = block.timestamp;  // in case next submit() fall into this if-statement again\n            vote1Threshold = _decreaseThreshold(vote1Threshold);\n            // opRoundHistory[opRound].lotteryBlockNo = nowSblockNo;  // should keep it 0\n            _toNextOpRound(_merkleRoot, _minSuccessRate, _baseline, _successRateDB, _finalListIpfs);\n        } else if (opRound != 0 && atV1 && isEnoughV1(roundVote1Count+_vote1Count)) {  // lottery\n            require(opRoundHistory[opRound].lotteryBlockNo == 0 && opRoundHistory[opRound].lotteryWinNumber == 0x0);\n            blockHistory[nowSblockNo] = blockStat(\n                msg.sender, block.number, _merkleRoot, _ipfsAddr, block.timestamp,\n                _uniqArticleCount, _vote1Count, _vote2Count, opRoundHistory[opRound].id,\n                _aidMerkleRoot, _aidIpfsAddr\n            );\n            v1EndTime = block.timestamp;\n            vote1Threshold = _increaseThreshold(vote1Threshold);\n            opRoundHistory[opRound].lotteryBlockNo = nowSblockNo;\n            opRoundHistory[opRound].lotteryWinNumber = calcLotteryWinNumber(_merkleRoot, blockhash(block.number-1));\n            roundVote2Count = 0;  // should be 0 already but reset anyway\n            atV1 = false;\n        } else if (opRound != 0 && atV1 == false && (block.timestamp - v1EndTime > maxVoteTime)) {  // too long! End this Opround-v2 and proceed to next OpRound\n            // TODO: uncomment following lines?\n            // require(minSuccessRate == opRoundHistory[opRound-1].minSuccessRate);\n            // require(_baseline == 0);\n            // require(_finalListIpfs == '0x0');\n            // require(_successRateDB == opRoundHistory[opRound-1].succesRateDB);\n            blockHistory[nowSblockNo] = blockStat(\n                msg.sender, block.number, _merkleRoot, _ipfsAddr, block.timestamp,\n                _uniqArticleCount, _vote1Count, _vote2Count, opRoundHistory[opRound].id,\n                _aidMerkleRoot, _aidIpfsAddr\n            );\n            vote2Threshold = _decreaseThreshold(vote2Threshold);\n            v2EndTime = block.timestamp;\n            // should validator update new _successRateDB in NDR? should _baseline and finalListIpfs have values?\n            _toNextOpRound(_merkleRoot, _minSuccessRate, _baseline, _successRateDB, _finalListIpfs);\n        } else if (opRound != 0 && atV1 == false && isEnoughV2(roundVote2Count+_vote2Count)) { // finalist\n            // require(_finalListIpfs != 0x0 && _successRateDB != 0x0);\n            require(_baseline >= 1);  // what else reasonable value?\n            blockHistory[nowSblockNo] = blockStat(\n                msg.sender, block.number, _merkleRoot, _ipfsAddr, block.timestamp,\n                _uniqArticleCount, _vote1Count, _vote2Count, opRoundHistory[opRound].id,\n                _aidMerkleRoot, _aidIpfsAddr\n            );\n            vote2Threshold = _increaseThreshold(vote2Threshold);\n            v2EndTime = block.timestamp;\n            _toNextOpRound(_merkleRoot, _minSuccessRate, _baseline, _successRateDB, _finalListIpfs);\n        } else {  // regular sblock, only accumulate votes\n            roundVote1Count += _vote1Count;\n            roundVote2Count += _vote2Count;\n            articleCount += _uniqArticleCount;  // right now, this is only used in genesis\n            blockHistory[nowSblockNo] = blockStat(\n                msg.sender, block.number, _merkleRoot, _ipfsAddr, block.timestamp,\n                _uniqArticleCount, _vote1Count, _vote2Count, opRoundHistory[opRound].id,\n                _aidMerkleRoot, _aidIpfsAddr\n            );\n        }\n\n        nowSblockNo += 1;\n\n        return true;\n    }\n\n    function isEnoughV1(uint v1Count) public view returns (bool) {\n        uint activeMemberCount = MemberShipInterface(memberContractAddr).getActiveMemberCount();\n        require(activeMemberCount >= 3);  // '3' is num of coreManagers, or use 1? 100?\n        uint vote1Rate = (100 * v1Count) / activeMemberCount;\n        // assert(vote1Rate <= 100);  // not true if every can vote multiple times\n        if (vote1Rate >= vote1Threshold) {\n            return true;\n        }\n    }\n\n    function isEnoughV2(uint v2Count) public view returns (bool) {\n        uint activeMemberCount = MemberShipInterface(memberContractAddr).getActiveMemberCount();\n        require(activeMemberCount >= 3);  // '3' is num of coreManagers, or use 1? 100?\n        // vote2Rate select ABOUT 25% of people from 50% of member, i.e., ~1/8 of total members\n        // Here try to keep vote2Rate roughly in the range of 0 and 100, so multiply 8 back.\n        // Note that the '1/8' factor is uncertain, could either over or underestimated\n        uint vote2Rate = (8 * 100 * v2Count) / activeMemberCount;\n        if (vote2Rate >= vote2Threshold) {\n            return true;\n        }\n    }\n\n    // Lottery related\n    function calcLotteryWinNumber(bytes32 _mr, bytes32 _bhash) public pure returns(bytes32) {\n        // require(_mr != 0x0 && _bhash != 0x0);  // leave these checks to other function\n        return keccak256(abi.encodePacked(_mr, _bhash));\n    }\n\n    function _getBytes32HexNthDigit(bytes32 _ticket, uint8 _digit) public pure returns(bytes1){\n        require(_digit >=0 && _digit <=63);  // treat bytes32 as 64 hex characters\n        if (_digit % 2 == 1) {\n            return bytes1(uint8(_ticket[_digit/2])%16);  // _digit/2 = Math.floor(digit/2)\n        } else {\n            return bytes1(uint8(_ticket[_digit/2])/16);\n        }\n    }\n\n    function lotteryWins(bytes32 _winHex, bytes32 _ticket, uint8 _numRange) public pure returns(bool) {\n        // NOTE: in real product, should either record _numRange or make it constant\n        // Rule: A ticket wins if: it's X-th digit (count from behind) is Y\n        // where `X` is determined by first digit of `lotteryWinNumber` (in the range of 0 and 3)\n        // and `Y` is the last digit of `winHex`\n        // the rule of determining `X` and `Y` should sync with 'libSampleTicket.js' in 'OptractP2PCli'\n        require(_numRange >= 1 && _numRange <= 16);\n        uint8 refDigit = uint8(_getBytes32HexNthDigit(_winHex, 0)) % 4;\n        bytes1 winHexChar1 = _getBytes32HexNthDigit(_winHex, 63);  // last digit\n        uint8 w1 = uint8(winHexChar1);\n        uint8 w2 = (w1 + _numRange) % 16;\n        uint8 t = uint8(_getBytes32HexNthDigit(_ticket, 63 - refDigit));\n        if (w2 > w1)  {\n            if (t >= w1 && t < w2) {\n                return true;\n            }\n        } else {\n            if (t >= w1 || t < w2) {\n                return true;\n            }\n        }\n    }\n\n    function _isWinningTicket(uint _opRound, bytes32 _ticket) internal view returns(bool) {\n        require(_opRound >= opRound && opRoundHistory[_opRound].lotteryWinNumber != 0x0);\n        bytes32 winHex = opRoundHistory[_opRound].lotteryWinNumber;\n        return lotteryWins(winHex, _ticket, numRange);\n    }\n\n    function setNumRange(uint8 _numRange) public managerOnly {  // for test only\n        require(_numRange >= 1 && _numRange <=15);\n        numRange = _numRange;\n    }\n\n    function isWinningTicket(uint _opRound, bytes32 _ticket) public view returns(bool, uint) {\n        // TODO: add all merkle validation arguments in order to verify the txHash is BEFORE the lottery\n        return (_isWinningTicket(_opRound, _ticket), opRoundHistory[_opRound-1].minSuccessRate);\n    }\n\n    // claim reward\n    function txExist(bytes32[] memory proof, bool[] memory isLeft, bytes32 txHash, uint _sblockNo) public view returns (bool){\n        require(_sblockNo < nowSblockNo);\n        require(blockHistory[_sblockNo].merkleRoot != 0x0);\n        return merkleTreeValidator(proof, isLeft, txHash, blockHistory[_sblockNo].merkleRoot);\n    }\n\n    function aidExist(bytes32[] memory proof, bool[] memory isLeft, bytes32 aid, uint _sblockNo) public view returns (bool){\n        require(_sblockNo < nowSblockNo);\n        require(blockHistory[_sblockNo].aidMerkleRoot != 0x0);\n        return merkleTreeValidator(proof, isLeft, aid, blockHistory[_sblockNo].aidMerkleRoot);\n    }\n\n    function verifySignature(address _signer, bytes32 _msg, uint8 _v, bytes32 _r, bytes32 _s) public pure returns(bool){\n        // Looks like the default prefix (of ethereum) is not used; should we introduce our own prefix?\n        // bytes memory prefix = \"\\x19Ethereum Signed Message:\\n32\";\n        // bytes32 prefixedHash = keccak256(abi.encodePacked(prefix, _msg));\n        // address signer = ecrecover(prefixedHash, _v, _r, _s);\n        address signer = ecrecover(_msg, _v, _r, _s);\n        return _signer == signer;\n    }\n\n    function setReward(uint _reward) public managerOnly {\n        require(_reward < reward*10);  // other better restrictions?\n        reward = _reward;\n    }\n\n    function claimReward(\n        uint _opRound, bytes32[] calldata proof, bool[] calldata isLeft, bytes32 txHash, uint _sblockNo,\n        bytes32 _payload, uint8 _v, bytes32 _r, bytes32 _s\n    ) external returns(bool) {\n        // requirements:\n        // * the txHash is in the tree\n        // * the txHash happen before the lottery round of that _opRound\n        // * the txHash is submitted by the msg.sender (it should be a v1 vote)\n        // * the txHash is a WinningTicket\n        // * claim in in same opRound (or maybe next opRound is still acceptable?)\n        // * require(opRoundClaimed[opRound][msg.sender] == false, \"Only one claim per opRound\");\n        require(txExist(proof, isLeft, txHash, _sblockNo));\n        require(_sblockNo <= opRoundHistory[_opRound].lotteryBlockNo);\n        require(verifySignature(msg.sender, _payload, _v, _r, _s));  // from v1vote\n        require(_isWinningTicket(_opRound, txHash));\n        require(_opRound == opRound || _opRound == opRound + 1);  // or only in same opRound?\n        require(opRoundClaimed[_opRound][msg.sender] == false, \"An account can only claim once per opRound\");\n\n        opRoundClaimed[opRound][msg.sender] = true;\n        QOTInterface(QOTAddr).mint(msg.sender, reward);\n    }\n\n    // merkle tree and leaves\n    function merkleTreeValidator(\n        bytes32[] memory proof,\n        bool[] memory isLeft,\n        bytes32 targetLeaf,\n        bytes32 _merkleRoot\n    ) public pure returns (bool) {\n        require(proof.length < 32);  // 2**32 ~ 4.3e9 leaves!\n        require(proof.length == isLeft.length);\n\n        bytes32 targetHash = targetLeaf;\n        for (uint256 i = 0; i < proof.length; i++) {\n            bytes32 proofEle = proof[i];\n            if (isLeft[i]) {\n                targetHash = keccak256(abi.encodePacked(proofEle, targetHash));\n            } else if (!isLeft[i]) {\n                targetHash = keccak256(abi.encodePacked(targetHash, proofEle));\n            } else {\n                return false;\n            }\n        }\n        return targetHash == _merkleRoot;\n    }\n\n    // TODO: update these calcLeaf()\n    // function calcLeaf(\n    //     uint _nonce,\n    //     bytes32 _ipfs,\n    //     uint _since,\n    //     uint _agree,\n    //     uint _disagree,\n    //     bytes32 _reply,\n    //     bytes32 _comment\n    // ) external view returns (bytes32) {\n    //     // note: the \"category\" field is not here yet\n    //     return keccak256(abi.encodePacked(_nonce, msg.sender, _ipfs, _since, _agree, _disagree, _reply, _comment));\n    // }\n\n\n    // query\n    function getBlockNo() external view returns (uint) {\n        return nowSblockNo;\n    }\n\n    function getBlockInfo(uint _sblockNo) external view returns (uint, bytes32, bytes32, bytes32, bytes32, bytes32, address) {\n        // TODO: update the results\n        return (blockHistory[_sblockNo].blockHeight,\n                blockHistory[_sblockNo].merkleRoot,\n                blockHistory[_sblockNo].ipfsAddr,\n                blockHistory[_sblockNo].aidMerkleRoot,\n                blockHistory[_sblockNo].aidIpfsAddr,\n                blockHistory[_sblockNo].opRoundId,\n                blockHistory[_sblockNo].validator\n               );\n    }\n\n    function queryValidator(uint _idx) external view returns (address) {\n        require(_idx>=0 && _idx < 16);\n        return validators[_idx];\n    }\n\n    function isValidator(address _addr) external view returns (bool) {\n        if (_addr == address(0)) {\n            return false;\n        } else {\n            return (_addr == validators[0] || _addr == validators[1] || _addr == validators[2] ||\n                    _addr == validators[3] || _addr == validators[4] || _addr == validators[5] ||\n                    _addr == validators[6] || _addr == validators[7] || _addr == validators[8] ||\n                    _addr == validators[9] || _addr == validators[10] || _addr == validators[11] ||\n                    _addr == validators[12] || _addr == validators[13] || _addr == validators[14] ||\n                    _addr == validators[15]);\n        }\n    }\n\n    function queryManagers() external view returns (address[4] memory) {\n        return managers;\n    }\n\n    function queryOpRound() external view returns (uint) {\n        return opRound;\n    }\n\n    function queryOpRoundId(uint _opRound) external view returns (bytes32) {\n        if (_opRound != 0) {\n            return opRoundHistory[_opRound].id;\n        } else {\n            return opRoundHistory[opRound].id;  // current opRound\n        }\n    }\n\n    function queryOpRoundLottery(uint _opRound) external view returns (uint, uint, bytes32) {\n        uint i;\n        if (_opRound == 0) {\n            i = opRound;\n        } else {\n            i = _opRound;\n        }\n        return (i, opRoundHistory[i].lotteryBlockNo, opRoundHistory[i].lotteryWinNumber);\n    }\n\n    function queryOpRoundInfo(uint _opRound) external view returns (uint, bytes32, uint) {\n        uint i;\n        if (_opRound == 0) {\n            i = opRound;\n        } else {\n            i = _opRound;\n        }\n        return (i, opRoundHistory[i].id, opRoundHistory[i].initBlockNo);\n    }\n\n    function queryOpRoundResult(uint _opRound) external view returns (uint, bytes32, uint, uint, bytes32, bytes32, uint, bytes32, uint) {\n        // this function returns default values (0 and 0x0) for current pending opRound\n        // this function is different from other `queryOpRound*()` in that a input of 0 does not mean query current opRound\n        // For opRoundHistory[0], the id is '0x1' and the initBlockNo is the block.height during construction\n        uint i;\n        uint op;\n        if (_opRound == opRound) {  // return (0, 0x0, 0, 0, 0x0, 0x0, 0, 0x0, 0);\n            op = 0;\n            i = opRound + 2;\n            // 'stack too deep' if return (0, 0x0, ...) here and also return in next else-block!?\n        } else {\n            op = _opRound;\n            i = _opRound;\n        }\n        return (op,\n                opRoundHistory[i].id,\n                opRoundHistory[i].initBlockNo,\n                opRoundHistory[i].minSuccessRate,\n                opRoundHistory[i].succesRateDB,\n                opRoundHistory[i].finalListIpfs,\n                opRoundHistory[i].lotteryBlockNo,\n                opRoundHistory[i].lotteryWinNumber,\n                opRoundHistory[i].baseline\n               );\n    }\n\n    function queryOpRoundProgress() external view returns (uint, bool, uint, uint, uint, uint) {\n        return(articleCount, atV1, v1EndTime, v2EndTime, roundVote1Count, roundVote2Count);\n    }\n\n    function queryVoteThresholds() external view returns(uint, uint, uint) {\n        return (opRound, vote1Threshold, vote2Threshold);\n    }\n\n    function queryFinalist(uint _opRound) external view returns(uint, uint, bytes32){\n        uint i;\n        if (_opRound == 0) {\n            i = opRound;\n        } else {\n            i = _opRound;\n        }\n        return (i, opRoundHistory[i].baseline, opRoundHistory[i].finalListIpfs);\n    }\n\n    // upgradable\n    function setValidator(address _newValidator, uint _idx) public managerOnly returns (bool) {\n        require(_newValidator != address(0));\n        require(_idx >=0 && _idx < 16);\n        validators[_idx] = _newValidator;\n        return true;\n    }\n\n    function setManager(address _newManager) public managerOnly returns (bool) {\n        // assume no need to change first 3 managers\n        managers[3] = _newManager;\n        return true;\n    }\n\n}\n",
  "sourcePath": "/home/kai/Work/project/OptractContract/contracts/BlockRegistry.sol",
  "compiler": {
    "name": "solc",
    "version": "0.5.2+commit.1df8f40c.Linux.g++"
  },
  "schemaVersion": "3.0.1",
  "updatedAt": "2019-08-10T04:33:42.150Z",
  "devdoc": {
    "methods": {}
  },
  "userdoc": {
    "methods": {}
  }
}