{
  "contractName": "BlockRegistry",
  "abi": [
    {
      "constant": true,
      "inputs": [],
      "name": "sblockTimeStep",
      "outputs": [
        {
          "name": "",
          "type": "uint256"
        }
      ],
      "payable": false,
      "stateMutability": "view",
      "type": "function"
    },
    {
      "constant": true,
      "inputs": [],
      "name": "QOTAddr",
      "outputs": [
        {
          "name": "",
          "type": "address"
        }
      ],
      "payable": false,
      "stateMutability": "view",
      "type": "function"
    },
    {
      "constant": true,
      "inputs": [],
      "name": "reward",
      "outputs": [
        {
          "name": "",
          "type": "uint256"
        }
      ],
      "payable": false,
      "stateMutability": "view",
      "type": "function"
    },
    {
      "constant": true,
      "inputs": [
        {
          "name": "",
          "type": "uint256"
        }
      ],
      "name": "validators",
      "outputs": [
        {
          "name": "",
          "type": "address"
        }
      ],
      "payable": false,
      "stateMutability": "view",
      "type": "function"
    },
    {
      "constant": true,
      "inputs": [
        {
          "name": "",
          "type": "uint256"
        }
      ],
      "name": "managers",
      "outputs": [
        {
          "name": "",
          "type": "address"
        }
      ],
      "payable": false,
      "stateMutability": "view",
      "type": "function"
    },
    {
      "constant": true,
      "inputs": [],
      "name": "articleCount",
      "outputs": [
        {
          "name": "",
          "type": "uint256"
        }
      ],
      "payable": false,
      "stateMutability": "view",
      "type": "function"
    },
    {
      "constant": true,
      "inputs": [],
      "name": "vote1Threshold",
      "outputs": [
        {
          "name": "",
          "type": "uint256"
        }
      ],
      "payable": false,
      "stateMutability": "view",
      "type": "function"
    },
    {
      "constant": true,
      "inputs": [],
      "name": "numRange",
      "outputs": [
        {
          "name": "",
          "type": "uint8"
        }
      ],
      "payable": false,
      "stateMutability": "view",
      "type": "function"
    },
    {
      "constant": true,
      "inputs": [],
      "name": "roundVote2Count",
      "outputs": [
        {
          "name": "",
          "type": "uint256"
        }
      ],
      "payable": false,
      "stateMutability": "view",
      "type": "function"
    },
    {
      "constant": true,
      "inputs": [],
      "name": "maxVoteTime2",
      "outputs": [
        {
          "name": "",
          "type": "uint256"
        }
      ],
      "payable": false,
      "stateMutability": "view",
      "type": "function"
    },
    {
      "constant": true,
      "inputs": [],
      "name": "vote2Threshold",
      "outputs": [
        {
          "name": "",
          "type": "uint256"
        }
      ],
      "payable": false,
      "stateMutability": "view",
      "type": "function"
    },
    {
      "constant": true,
      "inputs": [],
      "name": "atV1",
      "outputs": [
        {
          "name": "",
          "type": "bool"
        }
      ],
      "payable": false,
      "stateMutability": "view",
      "type": "function"
    },
    {
      "constant": true,
      "inputs": [],
      "name": "v1EndTime",
      "outputs": [
        {
          "name": "",
          "type": "uint256"
        }
      ],
      "payable": false,
      "stateMutability": "view",
      "type": "function"
    },
    {
      "constant": true,
      "inputs": [],
      "name": "opRound",
      "outputs": [
        {
          "name": "",
          "type": "uint256"
        }
      ],
      "payable": false,
      "stateMutability": "view",
      "type": "function"
    },
    {
      "constant": true,
      "inputs": [],
      "name": "memberContractAddr",
      "outputs": [
        {
          "name": "",
          "type": "address"
        }
      ],
      "payable": false,
      "stateMutability": "view",
      "type": "function"
    },
    {
      "constant": true,
      "inputs": [],
      "name": "roundVote1Count",
      "outputs": [
        {
          "name": "",
          "type": "uint256"
        }
      ],
      "payable": false,
      "stateMutability": "view",
      "type": "function"
    },
    {
      "constant": true,
      "inputs": [
        {
          "name": "",
          "type": "uint256"
        }
      ],
      "name": "blockHistory",
      "outputs": [
        {
          "name": "validator",
          "type": "address"
        },
        {
          "name": "blockHeight",
          "type": "uint256"
        },
        {
          "name": "merkleRoot",
          "type": "bytes32"
        },
        {
          "name": "ipfsAddr",
          "type": "bytes32"
        },
        {
          "name": "timestamp",
          "type": "uint256"
        },
        {
          "name": "uniqArticleCount",
          "type": "uint256"
        },
        {
          "name": "vote1Count",
          "type": "uint256"
        },
        {
          "name": "vote2Count",
          "type": "uint256"
        },
        {
          "name": "opRoundId",
          "type": "bytes32"
        },
        {
          "name": "aidMerkleRoot",
          "type": "bytes32"
        },
        {
          "name": "aidIpfsAddr",
          "type": "bytes32"
        }
      ],
      "payable": false,
      "stateMutability": "view",
      "type": "function"
    },
    {
      "constant": true,
      "inputs": [],
      "name": "nowSblockNo",
      "outputs": [
        {
          "name": "",
          "type": "uint256"
        }
      ],
      "payable": false,
      "stateMutability": "view",
      "type": "function"
    },
    {
      "constant": true,
      "inputs": [],
      "name": "maxVoteTime1",
      "outputs": [
        {
          "name": "",
          "type": "uint256"
        }
      ],
      "payable": false,
      "stateMutability": "view",
      "type": "function"
    },
    {
      "constant": true,
      "inputs": [],
      "name": "v2EndTime",
      "outputs": [
        {
          "name": "",
          "type": "uint256"
        }
      ],
      "payable": false,
      "stateMutability": "view",
      "type": "function"
    },
    {
      "inputs": [
        {
          "name": "_memberContractAddr",
          "type": "address"
        },
        {
          "name": "_QOTAddr",
          "type": "address"
        }
      ],
      "payable": false,
      "stateMutability": "nonpayable",
      "type": "constructor"
    },
    {
      "constant": false,
      "inputs": [
        {
          "name": "_seconds",
          "type": "uint256"
        }
      ],
      "name": "updateMaxVoteTime1",
      "outputs": [],
      "payable": false,
      "stateMutability": "nonpayable",
      "type": "function"
    },
    {
      "constant": false,
      "inputs": [
        {
          "name": "_seconds",
          "type": "uint256"
        }
      ],
      "name": "updateMaxVoteTime2",
      "outputs": [],
      "payable": false,
      "stateMutability": "nonpayable",
      "type": "function"
    },
    {
      "constant": false,
      "inputs": [
        {
          "name": "_x",
          "type": "uint256"
        },
        {
          "name": "_y",
          "type": "uint256"
        }
      ],
      "name": "setThreshold",
      "outputs": [],
      "payable": false,
      "stateMutability": "nonpayable",
      "type": "function"
    },
    {
      "constant": false,
      "inputs": [
        {
          "name": "_merkleRoot",
          "type": "bytes32"
        },
        {
          "name": "_ipfsAddr",
          "type": "bytes32"
        },
        {
          "name": "_aidMerkleRoot",
          "type": "bytes32"
        },
        {
          "name": "_aidIpfsAddr",
          "type": "bytes32"
        },
        {
          "name": "_successRateDB",
          "type": "bytes32"
        },
        {
          "name": "_finalListIpfs",
          "type": "bytes32"
        },
        {
          "name": "_ints",
          "type": "uint256[5]"
        }
      ],
      "name": "submitMerkleRoot",
      "outputs": [
        {
          "name": "",
          "type": "bool"
        }
      ],
      "payable": false,
      "stateMutability": "nonpayable",
      "type": "function"
    },
    {
      "constant": true,
      "inputs": [
        {
          "name": "v1Count",
          "type": "uint256"
        }
      ],
      "name": "isEnoughV1",
      "outputs": [
        {
          "name": "",
          "type": "bool"
        }
      ],
      "payable": false,
      "stateMutability": "view",
      "type": "function"
    },
    {
      "constant": true,
      "inputs": [
        {
          "name": "v2Count",
          "type": "uint256"
        }
      ],
      "name": "isEnoughV2",
      "outputs": [
        {
          "name": "",
          "type": "bool"
        }
      ],
      "payable": false,
      "stateMutability": "view",
      "type": "function"
    },
    {
      "constant": true,
      "inputs": [
        {
          "name": "_mr",
          "type": "bytes32"
        },
        {
          "name": "_bhash",
          "type": "bytes32"
        }
      ],
      "name": "calcLotteryWinNumber",
      "outputs": [
        {
          "name": "",
          "type": "bytes32"
        }
      ],
      "payable": false,
      "stateMutability": "pure",
      "type": "function"
    },
    {
      "constant": true,
      "inputs": [
        {
          "name": "_ticket",
          "type": "bytes32"
        },
        {
          "name": "_digit",
          "type": "uint8"
        }
      ],
      "name": "_getBytes32HexNthDigit",
      "outputs": [
        {
          "name": "",
          "type": "bytes1"
        }
      ],
      "payable": false,
      "stateMutability": "pure",
      "type": "function"
    },
    {
      "constant": true,
      "inputs": [
        {
          "name": "_winHex",
          "type": "bytes32"
        },
        {
          "name": "_ticket",
          "type": "bytes32"
        },
        {
          "name": "_numRange",
          "type": "uint8"
        }
      ],
      "name": "lotteryWins",
      "outputs": [
        {
          "name": "",
          "type": "bool"
        }
      ],
      "payable": false,
      "stateMutability": "pure",
      "type": "function"
    },
    {
      "constant": false,
      "inputs": [
        {
          "name": "_numRange",
          "type": "uint8"
        }
      ],
      "name": "setNumRange",
      "outputs": [],
      "payable": false,
      "stateMutability": "nonpayable",
      "type": "function"
    },
    {
      "constant": true,
      "inputs": [
        {
          "name": "_opRound",
          "type": "uint256"
        },
        {
          "name": "_ticket",
          "type": "bytes32"
        }
      ],
      "name": "isWinningTicket",
      "outputs": [
        {
          "name": "",
          "type": "bool"
        },
        {
          "name": "",
          "type": "uint256"
        }
      ],
      "payable": false,
      "stateMutability": "view",
      "type": "function"
    },
    {
      "constant": false,
      "inputs": [
        {
          "name": "_reward",
          "type": "uint256"
        }
      ],
      "name": "setReward",
      "outputs": [],
      "payable": false,
      "stateMutability": "nonpayable",
      "type": "function"
    },
    {
      "constant": true,
      "inputs": [
        {
          "name": "proof",
          "type": "bytes32[]"
        },
        {
          "name": "isLeft",
          "type": "bool[]"
        },
        {
          "name": "txHash",
          "type": "bytes32"
        },
        {
          "name": "_sblockNo",
          "type": "uint256"
        }
      ],
      "name": "txExist",
      "outputs": [
        {
          "name": "",
          "type": "bool"
        }
      ],
      "payable": false,
      "stateMutability": "view",
      "type": "function"
    },
    {
      "constant": true,
      "inputs": [
        {
          "name": "proof",
          "type": "bytes32[]"
        },
        {
          "name": "isLeft",
          "type": "bool[]"
        },
        {
          "name": "aid",
          "type": "bytes32"
        },
        {
          "name": "_sblockNo",
          "type": "uint256"
        }
      ],
      "name": "aidExist",
      "outputs": [
        {
          "name": "",
          "type": "bool"
        }
      ],
      "payable": false,
      "stateMutability": "view",
      "type": "function"
    },
    {
      "constant": true,
      "inputs": [
        {
          "name": "_signer",
          "type": "address"
        },
        {
          "name": "b32s",
          "type": "bytes32[6]"
        },
        {
          "name": "_v",
          "type": "uint8"
        }
      ],
      "name": "verifySignatureWithPrefix",
      "outputs": [
        {
          "name": "",
          "type": "bool"
        }
      ],
      "payable": false,
      "stateMutability": "pure",
      "type": "function"
    },
    {
      "constant": false,
      "inputs": [
        {
          "name": "b32s",
          "type": "bytes32[6]"
        },
        {
          "name": "uints",
          "type": "uint256[5]"
        },
        {
          "name": "claimProof",
          "type": "bytes32[]"
        },
        {
          "name": "proof1",
          "type": "bytes32[]"
        },
        {
          "name": "proof2",
          "type": "bytes32[]"
        },
        {
          "name": "uintIsLeft",
          "type": "uint24[3]"
        },
        {
          "name": "_v",
          "type": "uint8"
        }
      ],
      "name": "withdraw",
      "outputs": [
        {
          "name": "",
          "type": "bool"
        }
      ],
      "payable": false,
      "stateMutability": "nonpayable",
      "type": "function"
    },
    {
      "constant": true,
      "inputs": [
        {
          "name": "_sender",
          "type": "address"
        },
        {
          "name": "_opRound",
          "type": "uint256"
        },
        {
          "name": "_comment",
          "type": "bytes32"
        },
        {
          "name": "v1block",
          "type": "uint256"
        },
        {
          "name": "v1leaf",
          "type": "bytes32"
        },
        {
          "name": "v2block",
          "type": "uint256"
        },
        {
          "name": "v2leaf",
          "type": "bytes32"
        },
        {
          "name": "since",
          "type": "uint256"
        },
        {
          "name": "_v",
          "type": "uint8"
        },
        {
          "name": "_r",
          "type": "bytes32"
        },
        {
          "name": "_s",
          "type": "bytes32"
        }
      ],
      "name": "genV2Txhash",
      "outputs": [
        {
          "name": "",
          "type": "bytes32"
        }
      ],
      "payable": false,
      "stateMutability": "view",
      "type": "function"
    },
    {
      "constant": true,
      "inputs": [
        {
          "name": "proof",
          "type": "bytes32[]"
        },
        {
          "name": "isLeftInt",
          "type": "uint24"
        },
        {
          "name": "txHash",
          "type": "bytes32"
        },
        {
          "name": "_sblockNo",
          "type": "uint256"
        }
      ],
      "name": "txExistUintSide",
      "outputs": [
        {
          "name": "",
          "type": "bool"
        }
      ],
      "payable": false,
      "stateMutability": "view",
      "type": "function"
    },
    {
      "constant": true,
      "inputs": [
        {
          "name": "x",
          "type": "uint24"
        },
        {
          "name": "length",
          "type": "uint8"
        }
      ],
      "name": "_uintToBoolArr",
      "outputs": [
        {
          "name": "isLeft",
          "type": "bool[]"
        }
      ],
      "payable": false,
      "stateMutability": "pure",
      "type": "function"
    },
    {
      "constant": true,
      "inputs": [
        {
          "name": "proof",
          "type": "bytes32[]"
        },
        {
          "name": "isLeft",
          "type": "bool[]"
        },
        {
          "name": "targetLeaf",
          "type": "bytes32"
        },
        {
          "name": "_merkleRoot",
          "type": "bytes32"
        }
      ],
      "name": "merkleTreeValidator",
      "outputs": [
        {
          "name": "",
          "type": "bool"
        }
      ],
      "payable": false,
      "stateMutability": "pure",
      "type": "function"
    },
    {
      "constant": true,
      "inputs": [],
      "name": "getBlockNo",
      "outputs": [
        {
          "name": "",
          "type": "uint256"
        }
      ],
      "payable": false,
      "stateMutability": "view",
      "type": "function"
    },
    {
      "constant": true,
      "inputs": [
        {
          "name": "_sblockNo",
          "type": "uint256"
        }
      ],
      "name": "getBlockInfo",
      "outputs": [
        {
          "name": "",
          "type": "uint256"
        },
        {
          "name": "",
          "type": "bytes32"
        },
        {
          "name": "",
          "type": "bytes32"
        },
        {
          "name": "",
          "type": "bytes32"
        },
        {
          "name": "",
          "type": "bytes32"
        },
        {
          "name": "",
          "type": "bytes32"
        },
        {
          "name": "",
          "type": "address"
        }
      ],
      "payable": false,
      "stateMutability": "view",
      "type": "function"
    },
    {
      "constant": true,
      "inputs": [
        {
          "name": "_idx",
          "type": "uint256"
        }
      ],
      "name": "queryValidator",
      "outputs": [
        {
          "name": "",
          "type": "address"
        }
      ],
      "payable": false,
      "stateMutability": "view",
      "type": "function"
    },
    {
      "constant": true,
      "inputs": [
        {
          "name": "_addr",
          "type": "address"
        }
      ],
      "name": "isValidator",
      "outputs": [
        {
          "name": "",
          "type": "bool"
        }
      ],
      "payable": false,
      "stateMutability": "view",
      "type": "function"
    },
    {
      "constant": true,
      "inputs": [],
      "name": "queryManagers",
      "outputs": [
        {
          "name": "",
          "type": "address[4]"
        }
      ],
      "payable": false,
      "stateMutability": "view",
      "type": "function"
    },
    {
      "constant": true,
      "inputs": [],
      "name": "queryOpRound",
      "outputs": [
        {
          "name": "",
          "type": "uint256"
        }
      ],
      "payable": false,
      "stateMutability": "view",
      "type": "function"
    },
    {
      "constant": true,
      "inputs": [
        {
          "name": "_opRound",
          "type": "uint256"
        }
      ],
      "name": "queryOpRoundId",
      "outputs": [
        {
          "name": "",
          "type": "bytes32"
        }
      ],
      "payable": false,
      "stateMutability": "view",
      "type": "function"
    },
    {
      "constant": true,
      "inputs": [
        {
          "name": "_opRound",
          "type": "uint256"
        }
      ],
      "name": "queryOpRoundLottery",
      "outputs": [
        {
          "name": "",
          "type": "uint256"
        },
        {
          "name": "",
          "type": "uint256"
        },
        {
          "name": "",
          "type": "bytes32"
        }
      ],
      "payable": false,
      "stateMutability": "view",
      "type": "function"
    },
    {
      "constant": true,
      "inputs": [
        {
          "name": "_opRound",
          "type": "uint256"
        }
      ],
      "name": "queryOpRoundInfo",
      "outputs": [
        {
          "name": "",
          "type": "uint256"
        },
        {
          "name": "",
          "type": "bytes32"
        },
        {
          "name": "",
          "type": "uint256"
        }
      ],
      "payable": false,
      "stateMutability": "view",
      "type": "function"
    },
    {
      "constant": true,
      "inputs": [
        {
          "name": "_opRound",
          "type": "uint256"
        }
      ],
      "name": "queryOpRoundResult",
      "outputs": [
        {
          "name": "",
          "type": "uint256"
        },
        {
          "name": "",
          "type": "bytes32"
        },
        {
          "name": "",
          "type": "uint256"
        },
        {
          "name": "",
          "type": "uint256"
        },
        {
          "name": "",
          "type": "bytes32"
        },
        {
          "name": "",
          "type": "bytes32"
        },
        {
          "name": "",
          "type": "uint256"
        },
        {
          "name": "",
          "type": "bytes32"
        },
        {
          "name": "",
          "type": "uint256"
        }
      ],
      "payable": false,
      "stateMutability": "view",
      "type": "function"
    },
    {
      "constant": true,
      "inputs": [],
      "name": "queryOpRoundProgress",
      "outputs": [
        {
          "name": "",
          "type": "uint256"
        },
        {
          "name": "",
          "type": "bool"
        },
        {
          "name": "",
          "type": "uint256"
        },
        {
          "name": "",
          "type": "uint256"
        },
        {
          "name": "",
          "type": "uint256"
        },
        {
          "name": "",
          "type": "uint256"
        }
      ],
      "payable": false,
      "stateMutability": "view",
      "type": "function"
    },
    {
      "constant": true,
      "inputs": [],
      "name": "queryVoteThresholds",
      "outputs": [
        {
          "name": "",
          "type": "uint256"
        },
        {
          "name": "",
          "type": "uint256"
        },
        {
          "name": "",
          "type": "uint256"
        }
      ],
      "payable": false,
      "stateMutability": "view",
      "type": "function"
    },
    {
      "constant": true,
      "inputs": [
        {
          "name": "_opRound",
          "type": "uint256"
        }
      ],
      "name": "queryFinalist",
      "outputs": [
        {
          "name": "",
          "type": "uint256"
        },
        {
          "name": "",
          "type": "uint256"
        },
        {
          "name": "",
          "type": "bytes32"
        }
      ],
      "payable": false,
      "stateMutability": "view",
      "type": "function"
    },
    {
      "constant": false,
      "inputs": [
        {
          "name": "_newValidator",
          "type": "address"
        },
        {
          "name": "_idx",
          "type": "uint256"
        }
      ],
      "name": "setValidator",
      "outputs": [
        {
          "name": "",
          "type": "bool"
        }
      ],
      "payable": false,
      "stateMutability": "nonpayable",
      "type": "function"
    },
    {
      "constant": false,
      "inputs": [
        {
          "name": "_newManager",
          "type": "address"
        }
      ],
      "name": "setManager",
      "outputs": [
        {
          "name": "",
          "type": "bool"
        }
      ],
      "payable": false,
      "stateMutability": "nonpayable",
      "type": "function"
    }
  ],
  "bytecode": "0x60806040526103846017556028601c819055601d556020805461ff00191661080017905561a8c0602181905560225560646023553480156200004057600080fd5b5060405160408062003d70833981018060405260408110156200006257600080fd5b50805160209182015160148054600160a060020a03808516600160a060020a03199283161790925560158054928416929091169190911790556040805160808101825273b440ea2780614b3c6a00e512f432785e7dfafa3e8152734ad56641c569c91c64c28a904cda50ae5326da419481019490945273af7400787c54422be8b44154b1273661f1259ccd90840152600060608401819052919290916200010b916004620003eb565b50604080516102008101825273b440ea2780614b3c6a00e512f432785e7dfafa3e8152734ad56641c569c91c64c28a904cda50ae5326da41602082015273af7400787c54422be8b44154b1273661f1259ccd918101919091526000606082018190526080820181905260a0820181905260c0820181905260e08201819052610100820181905261012082018190526101408201819052610160820181905261018082018190526101a082018190526101c082018190526101e0820152620001d790600490601062000448565b50506040805161016081018252338152436020808301918252600093830184815260608401858152426080860190815260a0860187815260c0870188815260e0880189815261010089018a81526101208a018b81526101408b018c81529b8052602490985298517fb7634ec2165a7280a285aac3ec10cf370eca86d8aa9d3243c90b2151434091ad8054600160a060020a031916600160a060020a0390921691909117905596517fb7634ec2165a7280a285aac3ec10cf370eca86d8aa9d3243c90b2151434091ae5593517fb7634ec2165a7280a285aac3ec10cf370eca86d8aa9d3243c90b2151434091af5591517fb7634ec2165a7280a285aac3ec10cf370eca86d8aa9d3243c90b2151434091b055517fb7634ec2165a7280a285aac3ec10cf370eca86d8aa9d3243c90b2151434091b155517fb7634ec2165a7280a285aac3ec10cf370eca86d8aa9d3243c90b2151434091b255517fb7634ec2165a7280a285aac3ec10cf370eca86d8aa9d3243c90b2151434091b35590517fb7634ec2165a7280a285aac3ec10cf370eca86d8aa9d3243c90b2151434091b45590517fb7634ec2165a7280a285aac3ec10cf370eca86d8aa9d3243c90b2151434091b555517fb7634ec2165a7280a285aac3ec10cf370eca86d8aa9d3243c90b2151434091b655517fb7634ec2165a7280a285aac3ec10cf370eca86d8aa9d3243c90b2151434091b755506001601655620004bc565b826004810192821562000436579160200282015b82811115620004365782518254600160a060020a031916600160a060020a03909116178255602090920191600190910190620003ff565b506200044492915062000492565b5090565b8260108101928215620004365791602002820182811115620004365782518254600160a060020a031916600160a060020a03909116178255602090920191600190910190620003ff565b620004b991905b8082111562000444578054600160a060020a031916815560010162000499565b90565b6138a480620004cc6000396000f3fe608060405234801561001057600080fd5b50600436106103615760003560e060020a9004806382eea47a116101d7578063ca48c69d11610108578063deefebc1116100a6578063f47dae9a11610080578063f47dae9a14610fb3578063facd743b14611017578063fba0e4bb1461103d578063fd0492b11461104557610361565b8063deefebc114610f86578063e4f0d15f14610f8e578063ec5caf2a14610f9657610361565b8063d36a72ea116100e2578063d36a72ea14610e7b578063d64d8c0214610ee4578063d9eb08f614610eec578063de250ace14610f0957610361565b8063ca48c69d14610dba578063d0ebdbe714610dfa578063d17eaa4714610e2057610361565b8063b87f140711610175578063b9fedac71161014f578063b9fedac714610c20578063bb141cf414610c28578063c170f35614610c86578063c977159114610c8e57610361565b8063b87f140714610ab4578063b8f69e3714610ad1578063b9c3620914610bfd57610361565b80639bb71caa116101b15780639bb71caa146109c5578063a3629b04146109cd578063abb9406b146109d5578063ae52832314610a0157610361565b806382eea47a146109ad57806386e18f82146109b55780638ccbaca4146109bd57610361565b8063417d63e9116102b15780635b9e211c1161024f5780637376faf2116102295780637376faf2146109635780637c14de6c1461096b5780637eb5740514610988578063810e0b201461099057610361565b80635b9e211c146108035780635fa029d1146109295780636cb0999b1461094657610361565b8063513536c11161028b578063513536c11461070457806353311f951461072757806357ee34a6146107655780635809fd57146107a057610361565b8063417d63e91461066c5780635080ad2614610674578063510864501461069257610361565b8063228cb7331161031e578063316f0d84116102f8578063316f0d84146104fe57806335aa2e441461062a5780633d39c26014610647578063414e28b01461066457610361565b8063228cb7331461049e5780632656de1a146104a6578063293be456146104e157610361565b80630137aca41461036657806317ca32561461039757806319305d85146103b15780631b9d40ba146103d35780631c75862a146103ff57806321a8770d1461047a575b600080fd5b6103836004803603602081101561037c57600080fd5b503561104d565b604080519115158252519081900360200190f35b61039f61110e565b60408051918252519081900360200190f35b6103d1600480360360208110156103c757600080fd5b503560ff16611114565b005b610383600480360360608110156103e957600080fd5b508035906020810135906040013560ff166111c2565b61042a6004803603604081101561041557600080fd5b50803562ffffff16906020013560ff166112bc565b60408051602080825283518183015283519192839290830191858101910280838360005b8381101561046657818101518382015260200161044e565b505050509050019250505060405180910390f35b610482611370565b60408051600160a060020a039092168252519081900360200190f35b61039f61137f565b6104ae611385565b604080519687529415156020870152858501939093526060850191909152608084015260a0830152519081900360c00190f35b6103d1600480360360208110156104f757600080fd5b50356113a5565b6103836004803603608081101561051457600080fd5b81019060208101813564010000000081111561052f57600080fd5b82018360208201111561054157600080fd5b8035906020019184602083028401116401000000008311171561056357600080fd5b91908080602002602001604051908101604052809392919081815260200183836020028082843760009201919091525092959493602081019350359150506401000000008111156105b357600080fd5b8201836020820111156105c557600080fd5b803590602001918460208302840111640100000000831117156105e757600080fd5b919080806020026020016040519081016040528093929190818152602001838360200280828437600092019190915250929550508235935050506020013561142a565b6104826004803603602081101561064057600080fd5b5035611485565b6104826004803603602081101561065d57600080fd5b50356114a2565b61039f6114af565b61039f6114b5565b61067c6114bb565b6040805160ff9092168252519081900360200190f35b61038360048036036101608110156106a957600080fd5b6040805160a0818101835284359460208101359493810135936060820135936080830135938084013593928301929161016083019160c084019060059083908390808284376000920191909152509194506114c99350505050565b61039f6004803603604081101561071a57600080fd5b50803590602001356120b0565b61074a6004803603604081101561073d57600080fd5b50803590602001356120dc565b60408051921515835260208301919091528051918290030190f35b6107826004803603602081101561077b57600080fd5b503561210a565b60408051938452602084019290925282820152519081900360600190f35b61038360048036036101008110156107b757600080fd5b6040805160c0818101909252600160a060020a0384351693928301929160e0830191906020840190600690839083908082843760009201919091525091945050503560ff169050612145565b610383600480360361024081101561081a57600080fd5b60c0820190820182610180810161016082013564010000000081111561083f57600080fd5b82018360208201111561085157600080fd5b8035906020019184602083028401116401000000008311171561087357600080fd5b91939092909160208101903564010000000081111561089157600080fd5b8201836020820111156108a357600080fd5b803590602001918460208302840111640100000000831117156108c557600080fd5b9193909290916020810190356401000000008111156108e357600080fd5b8201836020820111156108f557600080fd5b8035906020019184602083028401116401000000008311171561091757600080fd5b919350915060ff6060820135166121d3565b6103d16004803603602081101561093f57600080fd5b50356125b2565b6103836004803603602081101561095c57600080fd5b5035612763565b61039f61281d565b6107826004803603602081101561098157600080fd5b5035612823565b61039f612861565b610482600480360360208110156109a657600080fd5b5035612867565b61039f6128a2565b6107826128a8565b61039f6128b6565b6103836128bc565b61039f6128c5565b610383600480360360408110156109eb57600080fd5b50600160a060020a0381351690602001356128cb565b61038360048036036080811015610a1757600080fd5b810190602081018135640100000000811115610a3257600080fd5b820183602082011115610a4457600080fd5b80359060200191846020830284011164010000000083111715610a6657600080fd5b9190808060200260200160405190810160405280939291908181526020018383602002808284376000920191909152509295505062ffffff83351693505050602081013590604001356129b0565b6103d160048036036020811015610aca57600080fd5b5035612a19565b61038360048036036080811015610ae757600080fd5b810190602081018135640100000000811115610b0257600080fd5b820183602082011115610b1457600080fd5b80359060200191846020830284011164010000000083111715610b3657600080fd5b9190808060200260200160405190810160405280939291908181526020018383602002808284376000920191909152509295949360208101935035915050640100000000811115610b8657600080fd5b820183602082011115610b9857600080fd5b80359060200191846020830284011164010000000083111715610bba57600080fd5b9190808060200260200160405190810160405280939291908181526020018383602002808284376000920191909152509295505082359350505060200135612bca565b6103d160048036036040811015610c1357600080fd5b5080359060200135612cdb565b61039f612eaf565b610c4560048036036020811015610c3e57600080fd5b5035612eb5565b604080519788526020880196909652868601949094526060860192909252608085015260a0840152600160a060020a031660c0830152519081900360e00190f35b610482612efa565b61038360048036036080811015610ca457600080fd5b810190602081018135640100000000811115610cbf57600080fd5b820183602082011115610cd157600080fd5b80359060200191846020830284011164010000000083111715610cf357600080fd5b9190808060200260200160405190810160405280939291908181526020018383602002808284376000920191909152509295949360208101935035915050640100000000811115610d4357600080fd5b820183602082011115610d5557600080fd5b80359060200191846020830284011164010000000083111715610d7757600080fd5b9190808060200260200160405190810160405280939291908181526020018383602002808284376000920191909152509295505082359350505060200135612f09565b610dc2612f59565b6040518082608080838360005b83811015610de7578181015183820152602001610dcf565b5050505090500191505060405180910390f35b61038360048036036020811015610e1057600080fd5b5035600160a060020a0316612f9e565b610e4660048036036040811015610e3657600080fd5b508035906020013560ff16613042565b604080517fff000000000000000000000000000000000000000000000000000000000000009092168252519081900360200190f35b61039f6004803603610160811015610e9257600080fd5b50600160a060020a038135169060208101359060408101359060608101359060808101359060a08101359060c08101359060e08101359060ff61010082013516906101208101359061014001356130f3565b61039f6131d9565b61039f60048036036020811015610f0257600080fd5b50356131df565b610f2660048036036020811015610f1f57600080fd5b5035613214565b60408051600160a060020a03909c168c5260208c019a909a528a8a019890985260608a0196909652608089019490945260a088019290925260c087015260e086015261010085015261012084015261014083015251908190036101600190f35b61039f613277565b61039f61327d565b61078260048036036020811015610fac57600080fd5b5035613283565b610fd060048036036020811015610fc957600080fd5b50356132c1565b60408051998a5260208a0198909852888801969096526060880194909452608087019290925260a086015260c085015260e084015261010083015251908190036101200190f35b6103836004803603602081101561102d57600080fd5b5035600160a060020a03166133cb565b61039f613565565b61039f61356b565b600080601460009054906101000a9004600160a060020a0316600160a060020a03166322faa41f6040518163ffffffff1660e060020a02815260040160206040518083038186803b1580156110a157600080fd5b505afa1580156110b5573d6000803e3d6000fd5b505050506040513d60208110156110cb57600080fd5b5051905060038110156110dd57600080fd5b600081846064028115156110ed57fe5b049050601c548110151561110657600192505050611109565b50505b919050565b60175481565b33151561112057600080fd5b6000800154600160a060020a03163314806111485750600060010154600160a060020a031633145b806111605750600060020154600160a060020a031633145b806111785750600060030154600160a060020a031633145b151561118357600080fd5b60018160ff161015801561119b5750600f8160ff1611155b15156111a657600080fd5b6020805460ff9092166101000261ff0019909216919091179055565b600060018260ff16101580156111dc575060108260ff1611155b15156111e757600080fd5b600060046111f6866000613042565b60f860020a900460ff1681151561120957fe5b069050600061121986603f613042565b905060f860020a8104600f85820116600061123888603f879003613042565b60f860020a900490508260ff168260ff161115611282578260ff168160ff161015801561126a57508160ff168160ff16105b1561127d576001955050505050506112b5565b6112af565b8260ff168160ff1610158061129c57508160ff168160ff16105b156112af576001955050505050506112b5565b50505050505b9392505050565b606060018260ff16101580156112d6575060188260ff1611155b15156112e157600080fd5b8160ff1660405190808252806020026020018201604052801561130e578160200160208202803883390190505b50905060005b8260ff168110156113685760018085161415611352576001826001838660ff16030381518110151561134257fe5b9115156020928302909101909101525b600262ffffff9094169390930492600101611314565b505b92915050565b601554600160a060020a031681565b60235481565b601954602054601e54601f54601a54601b5460ff90941693909192939495565b3315156113b157600080fd5b6000800154600160a060020a03163314806113d95750600060010154600160a060020a031633145b806113f15750600060020154600160a060020a031633145b806114095750600060030154600160a060020a031633145b151561141457600080fd5b602354600a02811061142557600080fd5b602355565b601654600090821061143b57600080fd5b600082815260246020526040902060020154151561145857600080fd5b61147a8585856024600087815260200190815260200160002060020154612bca565b90505b949350505050565b6004816010811061149257fe5b0154600160a060020a0316905081565b6000816004811061149257fe5b60195481565b601c5481565b602054610100900460ff1681565b60003315156114d757600080fd5b600460000154600160a060020a03163314806115005750600460010154600160a060020a031633145b806115185750600460020154600160a060020a031633145b806115305750600460030154600160a060020a031633145b8061154757506004800154600160a060020a031633145b8061155f5750600460050154600160a060020a031633145b806115775750600460060154600160a060020a031633145b8061158f5750600460070154600160a060020a031633145b806115a75750600460080154600160a060020a031633145b806115bf5750600460090154600160a060020a031633145b806115d757506004600a0154600160a060020a031633145b806115ef57506004600b0154600160a060020a031633145b8061160757506004600c0154600160a060020a031633145b8061161f57506004600d0154600160a060020a031633145b8061163757506004600e0154600160a060020a031633145b8061164f57506004600f0154600160a060020a031633145b151561165a57600080fd5b601654600019016000908152602460205260409020600401546103840142101561168357600080fd5b60165460001901600090815260246020526040902060010154600f014310156116ab57600080fd5b87158015906116b957508615155b15156116c457600080fd5b6016546000190160009081526024602052604090206002015488148015906117045750601654600019016000908152602460205260409020600301548714155b151561170f57600080fd5b6016546000908152602460205260409020600101541580156117435750601654600090815260246020526040902060020154155b80156117615750601654600090815260246020526040902060030154155b801561177f5750601654600090815260246020526040902060040154155b151561178a57600080fd5b851580159061179857508415155b15156117a357600080fd5b81516020830151604084015160608501516080860151600082108015906117ca5750606482105b15156117d557600080fd5b6018541580156117ea57506007856019540110155b1561192b576101606040519081016040528033600160a060020a031681526020014381526020018e81526020018d81526020014281526020018681526020018581526020018481526020016025600060185481526020019081526020016000206000015481526020018c81526020018b81525060246000601654815260200190815260200160002060008201518160000160006101000a815481600160a060020a030219169083600160a060020a031602179055506020820151816001015560408201518160020155606082015181600301556080820151816004015560a0820151816005015560c0820151816006015560e082015181600701556101008201518160080155610120820151816009015561014082015181600a015590505042601f819055506119268d60008060006001026000600102613571565b612093565b6018541580159061193e575060205460ff165b801561194f5750602154601f544203115b15611a9a576101606040519081016040528033600160a060020a031681526020014381526020018e81526020018d81526020014281526020018681526020018581526020018481526020016025600060185481526020019081526020016000206000015481526020018c81526020018b81525060246000601654815260200190815260200160002060008201518160000160006101000a815481600160a060020a030219169083600160a060020a031602179055506020820151816001015560408201518160020155606082015181600301556080820151816004015560a0820151816005015560c0820151816006015560e082015181600701556101008201518160080155610120820151816009015561014082015181600a015590505060014203601e8190555042601f81905550611a8a601c54613737565b601c556119268d83838c8c613571565b60185415801590611aad575060205460ff165b8015611ac15750611ac184601a540161104d565b15611c8557601854600090815260256020526040902060020154158015611afa5750601854600090815260256020526040902060030154155b1515611b0557600080fd5b6101606040519081016040528033600160a060020a031681526020014381526020018e81526020018d81526020014281526020018681526020018581526020018481526020016025600060185481526020019081526020016000206000015481526020018c81526020018b81525060246000601654815260200190815260200160002060008201518160000160006101000a815481600160a060020a030219169083600160a060020a031602179055506020820151816001015560408201518160020155606082015181600301556080820151816004015560a0820151816005015560c0820151816006015560e082015181600701556101008201518160080155610120820151816009015561014082015181600a015590505042601e81905550611c31601c54613764565b601c55601654601854600090815260256020526040902060020155611c5b8d6000194301406120b0565b6018546000908152602560209081526040822060030192909255601b55805460ff19169055612093565b60185415801590611c99575060205460ff16155b8015611caa5750602254601e544203115b15611de8576101606040519081016040528033600160a060020a031681526020014381526020018e81526020018d81526020014281526020018681526020018581526020018481526020016025600060185481526020019081526020016000206000015481526020018c81526020018b81525060246000601654815260200190815260200160002060008201518160000160006101000a815481600160a060020a030219169083600160a060020a031602179055506020820151816001015560408201518160020155606082015181600301556080820151816004015560a0820151816005015560c0820151816006015560e082015181600701556101008201518160080155610120820151816009015561014082015181600a0155905050611dd4601d54613737565b601d5542601f556119268d83838c8c613571565b60185415801590611dfc575060205460ff16155b8015611e105750611e1083601b5401612763565b15611f48576001811015611e2357600080fd5b6101606040519081016040528033600160a060020a031681526020014381526020018e81526020018d81526020014281526020018681526020018581526020018481526020016025600060185481526020019081526020016000206000015481526020018c81526020018b81525060246000601654815260200190815260200160002060008201518160000160006101000a815481600160a060020a030219169083600160a060020a031602179055506020820151816001015560408201518160020155606082015181600301556080820151816004015560a0820151816005015560c0820151816006015560e082015181600701556101008201518160080155610120820151816009015561014082015181600a0155905050611dd4601d54613764565b83601a6000828254019250508190555082601b60008282540192505081905550846019600082825401925050819055506101606040519081016040528033600160a060020a031681526020014381526020018e81526020018d81526020014281526020018681526020018581526020018481526020016025600060185481526020019081526020016000206000015481526020018c81526020018b81525060246000601654815260200190815260200160002060008201518160000160006101000a815481600160a060020a030219169083600160a060020a031602179055506020820151816001015560408201518160020155606082015181600301556080820151816004015560a0820151816005015560c0820151816006015560e082015181600701556101008201518160080155610120820151816009015561014082015181600a01559050505b50506016805460019081019091559b9a5050505050505050505050565b604080516020808201949094528082019290925280518083038201815260609092019052805191012090565b6000806120e98484613780565b60001994909401600090815260256020526040902060040154939492505050565b600080808084151561211f5750601854612122565b50835b600081815260256020526040902080546001909101549196909550909350915050565b60608083015160808085015160a08087015160408051600080825260208281018085529890985260ff8a168284015297810194909452938301529151600193828401939092601f198301929081900390910190855afa1580156121ac573d6000803e3d6000fd5b50505060206040510351600160a060020a031684600160a060020a03161490509392505050565b88356000908152602560205260408120600201548a6001602002013511156121fa57600080fd5b89356000908152602560205260409081902060020154908b01351161221e57600080fd5b61223460208b01358c60015b6020020135613780565b151561223f57600080fd5b61224f60408b01358c600261222a565b151561225a57600080fd5b6018548a3511801590612272575060185460108b3501115b151561227d57600080fd5b6122b2338c60068060200260405190810160405280929190826006602002808284376000920191909152508691506121459050565b15156122bd57600080fd5b6000612319338d6006806020026040519081016040528092919082600660200280828437600092019190915250506040805160a081810190925291508f9060059083908390808284376000920191909152508891506137db9050565b905061237d8a8a80806020026020016040519081016040528093929190818152602001838360200280828437600092018290525089935091506123599050565b602002013562ffffff16838e600360058110151561237357fe5b60200201356129b0565b151561238857600080fd5b6123ef888880806020026020016040519081016040528093929190818152602001838360200280828437600092019190915250889250600191506123c99050565b602002013562ffffff168e60016006811015156123e257fe5b60200201358e6001612373565b15156123fa57600080fd5b6124618686808060200260200160405190810160405280939291908181526020018383602002808284376000920191909152508892506002915061243b9050565b602002013562ffffff168e600260068110151561245457fe5b60200201358e6002612373565b151561246c57600080fd5b8a35600090815260276020908152604080832033845290915290205460ff16156124e1576040517f08c379a000000000000000000000000000000000000000000000000000000000815260040180806020018281038252603a81526020018061383f603a913960400191505060405180910390fd5b8a35600090815260276020908152604080832033808552908352818420805460ff1916600117905560155460235483517f40c10f19000000000000000000000000000000000000000000000000000000008152600481019390935260248301529151600160a060020a03909216936340c10f199360448084019491939192918390030190829087803b15801561257657600080fd5b505af115801561258a573d6000803e3d6000fd5b505050506040513d60208110156125a057600080fd5b50919c9b505050505050505050505050565b3315156125be57600080fd5b600460000154600160a060020a03163314806125e75750600460010154600160a060020a031633145b806125ff5750600460020154600160a060020a031633145b806126175750600460030154600160a060020a031633145b8061262e57506004800154600160a060020a031633145b806126465750600460050154600160a060020a031633145b8061265e5750600460060154600160a060020a031633145b806126765750600460070154600160a060020a031633145b8061268e5750600460080154600160a060020a031633145b806126a65750600460090154600160a060020a031633145b806126be57506004600a0154600160a060020a031633145b806126d657506004600b0154600160a060020a031633145b806126ee57506004600c0154600160a060020a031633145b8061270657506004600d0154600160a060020a031633145b8061271e57506004600e0154600160a060020a031633145b8061273657506004600f0154600160a060020a031633145b151561274157600080fd5b60b48111801561275357506201518081105b151561275e57600080fd5b602155565b600080601460009054906101000a9004600160a060020a0316600160a060020a03166322faa41f6040518163ffffffff1660e060020a02815260040160206040518083038186803b1580156127b757600080fd5b505afa1580156127cb573d6000803e3d6000fd5b505050506040513d60208110156127e157600080fd5b5051905060038110156127f357600080fd5b600081846103200281151561280457fe5b049050601d548110151561110657600192505050611109565b601b5481565b6000808080841515612838575060185461283b565b50835b600081815260256020526040902060028101546003909101549196909550909350915050565b60225481565b60008082101580156128795750601082105b151561288457600080fd5b6004826010811061289157fe5b0154600160a060020a031692915050565b601d5481565b601854601c54601d54909192565b60185490565b60205460ff1681565b601e5481565b60003315156128d957600080fd5b6000800154600160a060020a03163314806129015750600060010154600160a060020a031633145b806129195750600060020154600160a060020a031633145b806129315750600060030154600160a060020a031633145b151561293c57600080fd5b600160a060020a038316151561295157600080fd5b600082101580156129625750601082105b151561296d57600080fd5b826004836010811061297b57fe5b01805473ffffffffffffffffffffffffffffffffffffffff1916600160a060020a039290921691909117905550600192915050565b60165460009082106129c157600080fd5b60008281526024602052604090206002015415156129de57600080fd5b60606129eb8587516112bc565b9050612a0f8682866024600088815260200190815260200160002060020154612bca565b9695505050505050565b331515612a2557600080fd5b600460000154600160a060020a0316331480612a4e5750600460010154600160a060020a031633145b80612a665750600460020154600160a060020a031633145b80612a7e5750600460030154600160a060020a031633145b80612a9557506004800154600160a060020a031633145b80612aad5750600460050154600160a060020a031633145b80612ac55750600460060154600160a060020a031633145b80612add5750600460070154600160a060020a031633145b80612af55750600460080154600160a060020a031633145b80612b0d5750600460090154600160a060020a031633145b80612b2557506004600a0154600160a060020a031633145b80612b3d57506004600b0154600160a060020a031633145b80612b5557506004600c0154600160a060020a031633145b80612b6d57506004600d0154600160a060020a031633145b80612b8557506004600e0154600160a060020a031633145b80612b9d57506004600f0154600160a060020a031633145b1515612ba857600080fd5b60b481118015612bba57506201518081105b1515612bc557600080fd5b602255565b600060208551101515612bdc57600080fd5b8351855114612bea57600080fd5b8260005b8651811015612ccf5760008782815181101515612c0757fe5b9060200190602002015190508682815181101515612c2157fe5b9060200190602002015115612c665780836040516020018083815260200182815260200192505050604051602081830303815290604052805190602001209250612cc6565b8682815181101515612c7457fe5b906020019060200201511515612cba5782816040516020018083815260200182815260200192505050604051602081830303815290604052805190602001209250612cc6565b6000935050505061147d565b50600101612bee565b50909114949350505050565b331515612ce757600080fd5b600460000154600160a060020a0316331480612d105750600460010154600160a060020a031633145b80612d285750600460020154600160a060020a031633145b80612d405750600460030154600160a060020a031633145b80612d5757506004800154600160a060020a031633145b80612d6f5750600460050154600160a060020a031633145b80612d875750600460060154600160a060020a031633145b80612d9f5750600460070154600160a060020a031633145b80612db75750600460080154600160a060020a031633145b80612dcf5750600460090154600160a060020a031633145b80612de757506004600a0154600160a060020a031633145b80612dff57506004600b0154600160a060020a031633145b80612e1757506004600c0154600160a060020a031633145b80612e2f57506004600d0154600160a060020a031633145b80612e4757506004600e0154600160a060020a031633145b80612e5f57506004600f0154600160a060020a031633145b1515612e6a57600080fd5b60058210158015612e7c5750605f8211155b1515612e8757600080fd5b60058110158015612e995750605f8111155b1515612ea457600080fd5b601c91909155601d55565b60185481565b60009081526024602052604090206001810154600282015460038301546009840154600a850154600886015495549496939592949193909291600160a060020a031690565b601454600160a060020a031681565b6016546000908210612f1a57600080fd5b6000828152602460205260409020600901541515612f3757600080fd5b61147a8585856024600087815260200190815260200160002060090154612bca565b612f6161381f565b6040805160808101918290529060009060049082845b8154600160a060020a03168152600190910190602001808311612f77575050505050905090565b6000331515612fac57600080fd5b6000800154600160a060020a0316331480612fd45750600060010154600160a060020a031633145b80612fec5750600060020154600160a060020a031633145b806130045750600060030154600160a060020a031633145b151561300f57600080fd5b506003805473ffffffffffffffffffffffffffffffffffffffff1916600160a060020a0392909216919091179055600190565b6000808260ff161015801561305b5750603f8260ff1611155b151561306657600080fd5b600180831614156130b257601083600260ff85160460ff1660208110151561308a57fe5b1a60f860020a0260f860020a900460ff168115156130a457fe5b0660f860020a02905061136a565b601083600260ff85160460ff166020811015156130cb57fe5b1a60f860020a0260f860020a900460ff168115156130e557fe5b0460f860020a02905061136a565b60008a81526025602090815260408083205481518084019e909e528d8201849052600160a060020a039e909e166c0100000000000000000000000002604c8e015260608d019b909b527f11be02000000000000000000000000000000000000000000000000000000000060808d015260a08c019c909c5260c08b019890985260e08a019690965261010089019490945261012088019290925261014087015261016086019390935260ff90921660f860020a0261017f8501526101808401919091526101a080840191909152815180840390910181526101c09092019052805191012090565b601a5481565b600081156131fc5750600081815260256020526040902054611109565b50601854600090815260256020526040902054611109565b602460205260009081526040902080546001820154600283015460038401546004850154600586015460068701546007880154600889015460098a0154600a909a0154600160a060020a039099169997989697959694959394929391929091908b565b60165481565b60215481565b6000808080841515613298575060185461329b565b50835b600081815260256020526040902060058101546007909101549196909550909350915050565b60008060008060008060008060008060006018548c14156132eb57505060185460020160006132f1565b508a9050805b80602560008481526020019081526020016000206000015460256000858152602001908152602001600020600101546025600086815260200190815260200160002060040154602560008781526020019081526020016000206006015460256000888152602001908152602001600020600701546025600089815260200190815260200160002060020154602560008a815260200190815260200160002060030154602560008b8152602001908152602001600020600501549a509a509a509a509a509a509a509a509a5050509193959799909294969850565b6000600160a060020a03821615156133e557506000611109565b600454600160a060020a038381169116148061340e5750600554600160a060020a038381169116145b806134265750600654600160a060020a038381169116145b8061343e5750600754600160a060020a038381169116145b806134565750600854600160a060020a038381169116145b8061346e5750600954600160a060020a038381169116145b806134865750600a54600160a060020a038381169116145b8061349e5750600b54600160a060020a038381169116145b806134b65750600c54600160a060020a038381169116145b806134ce5750600d54600160a060020a038381169116145b806134e65750600e54600160a060020a038381169116145b806134fe5750600f54600160a060020a038381169116145b806135165750601054600160a060020a038381169116145b8061352e5750601154600160a060020a038381169116145b806135465750601254600160a060020a038381169116145b8061355e5750601354600160a060020a038381169116145b9050611109565b60165490565b601f5481565b6000601a819055506000601b81905550600060198190555083602560006018548152602001908152602001600020600401819055508260256000601854815260200190815260200160002060050181905550816025600060185481526020019081526020016000206006018190555080602560006018548152602001908152602001600020600701819055506001602060006101000a81548160ff0219169083151502179055506001601860008282540192505081905550600085601854604051602001808381526020018281526020019250505060405160208183030381529060405280519060200120905061010060405190810160405280828152602001601654600101815260200160008152602001600060010281526020016000815260200160008152602001600060010281526020016000600102815250602560006018548152602001908152602001600020600082015181600001556020820151816001015560408201518160020155606082015181600301556080820151816004015560a0820151816005015560c0820151816006015560e082015181600701559050506018546026600083815260200190815260200160002081905550505050505050565b6000606482106137495750605f611109565b600a821061375c57506004198101611109565b506005611109565b6000605a8211613778575060058101611109565b50605f611109565b600060185483101580156137a4575060008381526025602052604090206003015415155b15156137af57600080fd5b600083815260256020908152604090912060030154905461147d9082908590610100900460ff166111c2565b815183516020808501519086015160408087015190880151608080890151908a015160a08b015160009861147a988e989197909691959094919390928c91906130f3565b608060405190810160405280600490602082028038833950919291505056fe416e206163636f756e742063616e206f6e6c79207769746864726177206f6e636520706572206f70526f756e64206966207175616c6966696564a165627a7a723058204925faf98c27a41a863ac832486207a17e9ec2e36a701f954e7945464385e0de0029",
  "source": "pragma solidity ^0.5.2;\n// import \"./lib/safe-math.sol\";\nimport \"./Interfaces/MemberShipInterface.sol\";\nimport \"./Interfaces/QOTInterface.sol\";\n\n// TODO: use safemath\n\ncontract BlockRegistry{\n    // using SafeMath for uint256;\n\n    // Variables\n    address[4] public managers;  // use \"coreManagers\" and \"managers\" as in \"MemberShip.sol\"?\n    address[16] public validators;\n    address public memberContractAddr;\n    address public QOTAddr;\n    uint public nowSblockNo;  // start from 1\n    uint public sblockTimeStep = 15 minutes;  // it's a minimum timestep\n    // bool public opRoundStatus = true;  // need `true` for 1st round; or simply use \"pause/unpause\"?\n    uint public opRound;\n    uint public articleCount;\n    // variables with `v1` or `vote1`: lottery; with `v2` or `vote2`: claim\n    uint public roundVote1Count;\n    uint public roundVote2Count;\n    uint public vote1Threshold = 40;  // between 5 and 95, step 5\n    uint public vote2Threshold = 40;  // between 5 and 95, step 5\n    uint public v1EndTime;\n    uint public v2EndTime;\n    bool public atV1;\n    uint8 public numRange = 8;  // it means pick x out of 16 numbers; should eventually make it constant\n    uint public maxVoteTime1 = 12 hours;  // duration of v1-vote\n    uint public maxVoteTime2 = 12 hours;  // duration of v2-claim\n    uint public reward = 100;  // should be a global (constant) variable. Or fix a value in QOT\n\n    struct blockStat{\n        address validator;\n        uint blockHeight;  // block.number while submission\n        bytes32 merkleRoot;  // IPFs hash string to bytes32: \n        bytes32 ipfsAddr;  // string to hex (in js): ethUtils.bufferToHex(bs58.decode(ipfsHash).slice(2));\n        uint timestamp;\n        uint uniqArticleCount;\n        uint vote1Count;\n        uint vote2Count;\n        bytes32 opRoundId;\n        bytes32 aidMerkleRoot;\n        bytes32 aidIpfsAddr;\n    }\n    mapping (uint => blockStat) public blockHistory;  // sblockNo to blockStat\n\n    struct opRoundStruct{\n        // update during creation of this opRound\n        bytes32 id;\n        uint initBlockNo;\n        // update in lottery-sblock\n        uint lotteryBlockNo;\n        bytes32 lotteryWinNumber;\n        // update in final-sblock\n        uint minSuccessRate;  // shoud be an integer between 0 and 100; this is used in next opRound\n        uint baseline;  // i.e, the total votes of the vote2 winner\n        bytes32 succesRateDB;  // IPFS contain success rate\n        bytes32 finalListIpfs;\n    }\n    mapping (uint => opRoundStruct) opRoundHistory;\n    mapping (bytes32 => uint) opRoundIdToNum;  // opRound id to opRound number\n    // mapping (uint => uint) public lotterySblockNo;  // give `opRound`, return the corresponding `sblock_no` while lottery happened\n    // mapping (uint => bytes32) public opRoundLog;  // opRound index to opRound id\n    mapping (uint => mapping(address => bool)) opRoundClaimed;\n\n    constructor(address _memberContractAddr, address _QOTAddr) public {\n        memberContractAddr = _memberContractAddr;\n        QOTAddr = _QOTAddr;\n        managers = [ 0xB440ea2780614b3c6a00e512f432785E7dfAFA3E,\n                     0x4AD56641C569C91C64C28a904cda50AE5326Da41,\n                     0xaF7400787c54422Be8B44154B1273661f1259CcD,\n                     address(0)];\n        validators = [ 0xB440ea2780614b3c6a00e512f432785E7dfAFA3E,\n                       0x4AD56641C569C91C64C28a904cda50AE5326Da41,\n                       0xaF7400787c54422Be8B44154B1273661f1259CcD,\n                       address(0), address(0), address(0), address(0), address(0),\n                       address(0), address(0), address(0), address(0), address(0),\n                       address(0), address(0), address(0)];\n        blockHistory[0] = blockStat(msg.sender, block.number, 0x0, 0x0, block.timestamp,\n                                    0, 0, 0, 0x0, 0x0, 0x0);\n        // opRoundHistory[0] = opRoundStruct(0x0000000000000000000000000000000000000000000000000000000000000001,\n        //                                   nowSblockNo, 0, 0x0, 0, 0, 0x0, 0x0);\n        nowSblockNo = 1;\n    }\n\n    // Modifiers\n    modifier managerOnly() {\n        require(msg.sender != address(0));\n        require(msg.sender == managers[0] || msg.sender == managers[1] || msg.sender == managers[2] || msg.sender == managers[3]);\n        _;\n    }\n\n    modifier validatorOnly() {\n        require(msg.sender != address(0));\n        require(msg.sender == validators[0] || msg.sender == validators[1] || msg.sender == validators[2] ||\n                msg.sender == validators[3] || msg.sender == validators[4] || msg.sender == validators[5] ||\n                msg.sender == validators[6] || msg.sender == validators[7] || msg.sender == validators[8] ||\n                msg.sender == validators[9] || msg.sender == validators[10] || msg.sender == validators[11] ||\n                msg.sender == validators[12] || msg.sender == validators[13] || msg.sender == validators[14] ||\n                msg.sender == validators[15]);\n        _;\n    }\n\n    // some adjustable functions only for developing phase\n    function updateMaxVoteTime1(uint _seconds) public validatorOnly {\n        require(_seconds > 180 && _seconds < 86400);  // restrict to a range\n        maxVoteTime1 = _seconds;\n    }\n\n    function updateMaxVoteTime2(uint _seconds) public validatorOnly {\n        require(_seconds > 180 && _seconds < 86400);  // restrict to a range\n        maxVoteTime2 = _seconds;\n    }\n\n\n    function setThreshold(uint _x, uint _y) public validatorOnly{\n        require(_x >= 5 && _x <=95);\n        require(_y >= 5 && _y <=95);\n        vote1Threshold = _x;\n        vote2Threshold = _y;\n    }\n\n    // some internal functions\n    function _increaseThreshold(uint _x) internal pure returns(uint) {\n        if (_x <= 90) {\n            return _x + 5;\n        } else {\n            return 95;\n        }\n    }\n\n    function _decreaseThreshold(uint _x) internal pure returns(uint) {\n        if (_x >= 100) {\n            return 95;\n        } else if (_x >= 10) {\n            return _x - 5;\n        } else {\n            return 5;\n        }\n    }\n\n    function _toNextOpRound(bytes32 _mr, uint _minSuccessRate, uint _baseline, bytes32 _successRateDB, bytes32 _finalListIpfs) internal {\n        roundVote1Count = 0;\n        roundVote2Count = 0;\n        articleCount = 0;\n        // MemberShipInterface(memberContractAddr).updateActiveMemberCount(false);  // note: if too frequent, it will not update unless set 'forced=true'\n\n        // update current opRoundHistory\n        opRoundHistory[opRound].minSuccessRate = _minSuccessRate;  // next opRound need this\n        opRoundHistory[opRound].baseline = _baseline;\n        opRoundHistory[opRound].succesRateDB = _successRateDB;\n        opRoundHistory[opRound].finalListIpfs = _finalListIpfs;\n\n        // for next opRound\n        atV1 = true;\n        opRound += 1;\n        bytes32 _oid = bytes32(keccak256(abi.encodePacked(_mr, opRound)));\n        opRoundHistory[opRound] = opRoundStruct(_oid, nowSblockNo+1, 0, 0x0, 0, 0, 0x0, 0x0);\n        opRoundIdToNum[_oid] = opRound;\n    }\n\n    // create a new sblock\n    function submitMerkleRoot(\n        bytes32 _merkleRoot,\n        bytes32 _ipfsAddr,\n        bytes32 _aidMerkleRoot,\n        bytes32 _aidIpfsAddr,\n        bytes32 _successRateDB,\n        bytes32 _finalListIpfs,\n        uint[5] memory _ints // uint _uniqArticleCount, uint _vote1Count, uint _vote2Count, uint _minSuccessRate, uint _baseline\n    ) public validatorOnly returns (bool) {\n        // Note: a `opRound` contains two parts: `(v1)vote` and `(v2)claim`,\n        //       (v2) may not happen if (v1) takes more than maxVoteTime.\n        // comment some \"require\"s for test purpose\n        // require(block.timestamp >= blockHistory[nowSblockNo] + sblockTimeStep, 'too soon');\n        require(block.timestamp >= blockHistory[nowSblockNo-1].timestamp + 15 minutes);  // 2 min is for test purpose, should be 1 hour(?)\n        require(block.number >= blockHistory[nowSblockNo-1].blockHeight + 15);  // 5 is for test purpose, should be ?\n        require(_merkleRoot != 0x0 && _ipfsAddr != 0x0);\n        require(blockHistory[nowSblockNo-1].merkleRoot != _merkleRoot && blockHistory[nowSblockNo-1].ipfsAddr != _ipfsAddr);  // prevent re-submission\n        require(blockHistory[nowSblockNo].blockHeight == 0 && blockHistory[nowSblockNo].merkleRoot == 0x0 &&\n                blockHistory[nowSblockNo].ipfsAddr == 0x0 && blockHistory[nowSblockNo].timestamp == 0);\n        require(_aidMerkleRoot != 0x0 && _aidIpfsAddr != 0x0);\n        uint _uniqArticleCount = _ints[0];\n        uint _vote1Count = _ints[1];\n        uint _vote2Count = _ints[2];\n        uint _minSuccessRate = _ints[3];\n        uint _baseline = _ints[4];\n        require(_minSuccessRate >= 0 && _minSuccessRate < 100);  // need the equal for genesis round\n        // require: ...\n\n        // a sblock in a opRound cound be of type: genesis, lottery, lottery-NDR, finalist, finalist-NDR, or regular\n        // (NDR = no-draw-round)\n        if (opRound == 0 && articleCount + _uniqArticleCount >= 7) {  // genesis; set small number for test purpose\n            blockHistory[nowSblockNo] = blockStat(\n                msg.sender, block.number, _merkleRoot, _ipfsAddr, block.timestamp,\n                _uniqArticleCount, _vote1Count, _vote2Count, opRoundHistory[opRound].id,\n                _aidMerkleRoot, _aidIpfsAddr\n            );\n            v2EndTime = block.timestamp;  // although no 'claiming', still need to record a time\n            _toNextOpRound(_merkleRoot, 0, 0, 0x0, 0x0);\n        } else if (opRound != 0 && atV1 && (block.timestamp - v2EndTime > maxVoteTime1)) {  // A \"no-draw-round\"! Proceed to next OpRound\n            // TODO: uncomment following lines?\n            // require(minSuccessRate == opRoundHistory[opRound-1].minSuccessRate);\n            // require(_baseline == 0);\n            // require(_finalListIpfs == '0x0');\n            // require(_successRateDB == opRoundHistory[opRound-1].succesRateDB);\n            blockHistory[nowSblockNo] = blockStat(\n                msg.sender, block.number, _merkleRoot, _ipfsAddr, block.timestamp,\n                _uniqArticleCount, _vote1Count, _vote2Count, opRoundHistory[opRound].id,\n                _aidMerkleRoot, _aidIpfsAddr\n            );\n            v1EndTime = block.timestamp-1;  // or don't update? BTW, subtract by 1 to make sure v2EndTime > v1Endtime (or no need?)\n            v2EndTime = block.timestamp;  // in case next submit() fall into this if-statement again\n            vote1Threshold = _decreaseThreshold(vote1Threshold);\n            // opRoundHistory[opRound].lotteryBlockNo = nowSblockNo;  // should keep it 0\n            _toNextOpRound(_merkleRoot, _minSuccessRate, _baseline, _successRateDB, _finalListIpfs);\n        } else if (opRound != 0 && atV1 && isEnoughV1(roundVote1Count+_vote1Count)) {  // lottery\n            require(opRoundHistory[opRound].lotteryBlockNo == 0 && opRoundHistory[opRound].lotteryWinNumber == 0x0);\n            blockHistory[nowSblockNo] = blockStat(\n                msg.sender, block.number, _merkleRoot, _ipfsAddr, block.timestamp,\n                _uniqArticleCount, _vote1Count, _vote2Count, opRoundHistory[opRound].id,\n                _aidMerkleRoot, _aidIpfsAddr\n            );\n            v1EndTime = block.timestamp;\n            vote1Threshold = _increaseThreshold(vote1Threshold);\n            opRoundHistory[opRound].lotteryBlockNo = nowSblockNo;\n            opRoundHistory[opRound].lotteryWinNumber = calcLotteryWinNumber(_merkleRoot, blockhash(block.number-1));\n            roundVote2Count = 0;  // should be 0 already but reset anyway\n            atV1 = false;\n        } else if (opRound != 0 && atV1 == false && (block.timestamp - v1EndTime > maxVoteTime2)) {  // too long! End this Opround-v2 and proceed to next OpRound\n            // TODO: uncomment following lines?\n            // require(minSuccessRate == opRoundHistory[opRound-1].minSuccessRate);\n            // require(_baseline == 0);\n            // require(_finalListIpfs == '0x0');\n            // require(_successRateDB == opRoundHistory[opRound-1].succesRateDB);\n            blockHistory[nowSblockNo] = blockStat(\n                msg.sender, block.number, _merkleRoot, _ipfsAddr, block.timestamp,\n                _uniqArticleCount, _vote1Count, _vote2Count, opRoundHistory[opRound].id,\n                _aidMerkleRoot, _aidIpfsAddr\n            );\n            vote2Threshold = _decreaseThreshold(vote2Threshold);\n            v2EndTime = block.timestamp;\n            // should validator update new _successRateDB in NDR? should _baseline and finalListIpfs have values?\n            _toNextOpRound(_merkleRoot, _minSuccessRate, _baseline, _successRateDB, _finalListIpfs);\n        } else if (opRound != 0 && atV1 == false && isEnoughV2(roundVote2Count+_vote2Count)) { // finalist\n            // require(_finalListIpfs != 0x0 && _successRateDB != 0x0);\n            require(_baseline >= 1);  // what else reasonable value?\n            blockHistory[nowSblockNo] = blockStat(\n                msg.sender, block.number, _merkleRoot, _ipfsAddr, block.timestamp,\n                _uniqArticleCount, _vote1Count, _vote2Count, opRoundHistory[opRound].id,\n                _aidMerkleRoot, _aidIpfsAddr\n            );\n            vote2Threshold = _increaseThreshold(vote2Threshold);\n            v2EndTime = block.timestamp;\n            _toNextOpRound(_merkleRoot, _minSuccessRate, _baseline, _successRateDB, _finalListIpfs);\n        } else {  // regular sblock, only accumulate votes\n            roundVote1Count += _vote1Count;\n            roundVote2Count += _vote2Count;\n            articleCount += _uniqArticleCount;  // right now, this is only used in genesis\n            blockHistory[nowSblockNo] = blockStat(\n                msg.sender, block.number, _merkleRoot, _ipfsAddr, block.timestamp,\n                _uniqArticleCount, _vote1Count, _vote2Count, opRoundHistory[opRound].id,\n                _aidMerkleRoot, _aidIpfsAddr\n            );\n        }\n\n        nowSblockNo += 1;\n\n        return true;\n    }\n\n    function isEnoughV1(uint v1Count) public view returns (bool) {\n        uint activeMemberCount = MemberShipInterface(memberContractAddr).getActiveMemberCount();\n        require(activeMemberCount >= 3);  // '3' is num of coreManagers, or use 1? 100?\n        uint vote1Rate = (100 * v1Count) / activeMemberCount;\n        // assert(vote1Rate <= 100);  // not true if every can vote multiple times\n        if (vote1Rate >= vote1Threshold) {\n            return true;\n        }\n    }\n\n    function isEnoughV2(uint v2Count) public view returns (bool) {\n        uint activeMemberCount = MemberShipInterface(memberContractAddr).getActiveMemberCount();\n        require(activeMemberCount >= 3);  // '3' is num of coreManagers, or use 1? 100?\n        // vote2Rate select ABOUT 25% of people from 50% of member, i.e., ~1/8 of total members\n        // Here try to keep vote2Rate roughly in the range of 0 and 100, so multiply 8 back.\n        // Note that the '1/8' factor is uncertain, could either over or underestimated\n        uint vote2Rate = (8 * 100 * v2Count) / activeMemberCount;\n        if (vote2Rate >= vote2Threshold) {\n            return true;\n        }\n    }\n\n    // Lottery related\n    function calcLotteryWinNumber(bytes32 _mr, bytes32 _bhash) public pure returns(bytes32) {\n        // require(_mr != 0x0 && _bhash != 0x0);  // leave these checks to other function\n        return keccak256(abi.encodePacked(_mr, _bhash));\n    }\n\n    function _getBytes32HexNthDigit(bytes32 _ticket, uint8 _digit) public pure returns(bytes1){\n        require(_digit >=0 && _digit <=63);  // treat bytes32 as 64 hex characters\n        if (_digit % 2 == 1) {\n            return bytes1(uint8(_ticket[_digit/2])%16);  // _digit/2 = Math.floor(digit/2)\n        } else {\n            return bytes1(uint8(_ticket[_digit/2])/16);\n        }\n    }\n\n    function lotteryWins(bytes32 _winHex, bytes32 _ticket, uint8 _numRange) public pure returns(bool) {\n        // NOTE: in real product, should either record _numRange or make it constant\n        // Rule: A ticket wins if: it's X-th digit (count from behind) is Y\n        // where `X` is determined by first digit of `lotteryWinNumber` (in the range of 0 and 3)\n        // and `Y` is the last digit of `winHex`\n        // the rule of determining `X` and `Y` should sync with 'libSampleTicket.js' in 'OptractP2PCli'\n        require(_numRange >= 1 && _numRange <= 16);\n        uint8 refDigit = uint8(_getBytes32HexNthDigit(_winHex, 0)) % 4;\n        bytes1 winHexChar1 = _getBytes32HexNthDigit(_winHex, 63);  // last digit\n        uint8 w1 = uint8(winHexChar1);\n        uint8 w2 = (w1 + _numRange) % 16;\n        uint8 t = uint8(_getBytes32HexNthDigit(_ticket, 63 - refDigit));\n        if (w2 > w1)  {\n            if (t >= w1 && t < w2) {\n                return true;\n            }\n        } else {\n            if (t >= w1 || t < w2) {\n                return true;\n            }\n        }\n    }\n\n    function _isWinningTicket(uint _opRound, bytes32 _ticket) internal view returns(bool) {\n        require(_opRound >= opRound && opRoundHistory[_opRound].lotteryWinNumber != 0x0);\n        bytes32 winHex = opRoundHistory[_opRound].lotteryWinNumber;\n        return lotteryWins(winHex, _ticket, numRange);\n    }\n\n    function setNumRange(uint8 _numRange) public managerOnly {  // for test only\n        require(_numRange >= 1 && _numRange <=15);\n        numRange = _numRange;\n    }\n\n    function isWinningTicket(uint _opRound, bytes32 _ticket) public view returns(bool, uint) {\n        // TODO: add all merkle validation arguments in order to verify the txHash is BEFORE the lottery\n        return (_isWinningTicket(_opRound, _ticket), opRoundHistory[_opRound-1].minSuccessRate);\n    }\n\n    // claim reward\n    function setReward(uint _reward) public managerOnly {\n        require(_reward < reward*10);  // other better restrictions?\n        reward = _reward;\n    }\n\n    function txExist(bytes32[] memory proof, bool[] memory isLeft, bytes32 txHash, uint _sblockNo) public view returns (bool){\n        require(_sblockNo < nowSblockNo);\n        require(blockHistory[_sblockNo].merkleRoot != 0x0);\n        return merkleTreeValidator(proof, isLeft, txHash, blockHistory[_sblockNo].merkleRoot);\n    }\n\n    function aidExist(bytes32[] memory proof, bool[] memory isLeft, bytes32 aid, uint _sblockNo) public view returns (bool){\n        require(_sblockNo < nowSblockNo);\n        require(blockHistory[_sblockNo].aidMerkleRoot != 0x0);\n        return merkleTreeValidator(proof, isLeft, aid, blockHistory[_sblockNo].aidMerkleRoot);\n    }\n\n    function verifySignatureWithPrefix(address _signer, bytes32[6] memory b32s, uint8 _v) public pure returns(bool){\n        // assume the \"payload\" (b32s[3]) already contain prefix. Otherwise need to add prefix:\n        //      bytes memory prefix = \"\\x19Ethereum Signed Message:\\n32\";\n        //      bytes32 prefixedHash = keccak256(abi.encodePacked(prefix, _msg));\n        //      return _signer == ecrecover(prefixedHash, _v, _r, _s);\n        return _signer == ecrecover(b32s[3], _v, b32s[4], b32s[5]);\n    }\n\n    function withdraw(\n        bytes32[6] calldata b32s, uint[5] calldata uints,\n        bytes32[] calldata claimProof, bytes32[] calldata proof1, bytes32[] calldata proof2,\n        uint24[3] calldata uintIsLeft,\n        uint8 _v\n    ) external returns(bool) {\n        // note: v1 is vote by the user in _opRound, v2 is the article used for claim\n        // note: \"b32s\" and \"uints\" are also used in \"verifySignatureWithPrefix()\" and \"genV2Txhash()\":\n        //     b32s = [_comment, v1leaf, v2leaf, _payload, _r, _s]\n        //     uints = [_opRound, v1block, v2block, claimBlock, since]\n        //     uintIsLeft =  [claimIsLeft, v1IsLeft, v2IsLeft]\n        // note about restrictions: the total amount of tx per block is restricted to 2**24, it means\n        //     `0 < proof.length <= 24` and `0 < isLeft.length <= 24`; the bool array `isLeft` of length\n        //     24 can convert to a uint24 (see `_uintToBoolArr()`)\n\n        require(uints[1] <= opRoundHistory[uints[0]].lotteryBlockNo);\n        require(uints[2] > opRoundHistory[uints[0]].lotteryBlockNo);\n        require(_isWinningTicket(uints[1], b32s[1]));\n        require(_isWinningTicket(uints[2], b32s[2]));\n        require(opRound >= uints[0] && opRound < uints[0] + 16);  // can withdraw at this and some opRounds later\n\n        // verify signature, generate txHash and proof the existence of all txHashes\n        require(verifySignatureWithPrefix(msg.sender, b32s, _v));\n        bytes32 txhash = genV2TxhashWrapper(msg.sender, b32s, uints, _v);\n        require(txExistUintSide(claimProof, uintIsLeft[0], txhash, uints[3]));\n        require(txExistUintSide(proof1, uintIsLeft[1], b32s[1], uints[1]));\n        require(txExistUintSide(proof2, uintIsLeft[2], b32s[2], uints[2]));\n\n        require(opRoundClaimed[uints[0]][msg.sender] == false, \"An account can only withdraw once per opRound if qualified\");\n        opRoundClaimed[uints[0]][msg.sender] = true;\n\n        QOTInterface(QOTAddr).mint(msg.sender, reward);\n    }\n\n    function genV2TxhashWrapper(address _sender, bytes32[6] memory b32s, uint[5] memory uints, uint8 _v) internal view returns(bytes32) {\n        return genV2Txhash(_sender, uints[0], b32s[0], uints[1], b32s[1], uints[2], b32s[2], uints[4], _v, b32s[4], b32s[5]);\n    }\n\n    function genV2Txhash(\n        address _sender, uint _opRound, bytes32 _comment, uint v1block, bytes32 v1leaf, uint v2block, bytes32 v2leaf, uint since,\n        uint8 _v, bytes32 _r, bytes32 _s\n    ) public view returns(bytes32) {\n        //   ['uint', 'address', 'bytes32', 'bytes32', 'bytes32', 'uint', 'bytes32', 'uint', 'bytes32', 'uint', 'uint8', 'bytes32', 'bytes32]],\n        //   [opround,  account,  comment,        aid,       oid, v1block,   v1leaf, v2block,   v2leaf,  since, v, r, s]\n        return(keccak256(abi.encodePacked(  // TODO: in daemon.js, also use keccak256\n                _opRound,\n                hex\"000000000000000000000000\", _sender,  // nodejs abi.encodeParameter append zeros to make it 32 bytes\n                _comment,\n                hex\"11be020000000000000000000000000000000000000000000000000000000000\",  // aid\n                opRoundHistory[_opRound].id,  // oid\n                v1block,\n                v1leaf,\n                v2block,\n                v2leaf,\n                since,\n                hex\"00000000000000000000000000000000000000000000000000000000000000\",  _v,\n                _r, _s\n        )));\n    }\n\n    function txExistUintSide(bytes32[] memory proof, uint24 isLeftInt, bytes32 txHash, uint _sblockNo) public view returns (bool){\n        require(_sblockNo < nowSblockNo);\n        require(blockHistory[_sblockNo].merkleRoot != 0x0);\n        bool[] memory isLeft = _uintToBoolArr(isLeftInt, uint8(proof.length));\n        return merkleTreeValidator(proof, isLeft, txHash, blockHistory[_sblockNo].merkleRoot);\n    }\n\n    function _uintToBoolArr(uint24 x, uint8 length) public pure returns (bool[] memory isLeft){\n        // for example, if x=10, length=6 => x in binary is '001010' => bool array [f, f, t, f, t, f]\n        require(length >= 1 && length <= 24);\n        isLeft = new bool[](length);\n        for (uint i=0; i<length; i++){\n            if (x%2 == 1) {\n                isLeft[length-i-1] = true;\n            }\n            x = x >> 1;\n        }\n        return(isLeft);\n    }\n\n    // merkle tree and leaves\n    function merkleTreeValidator(\n        bytes32[] memory proof,\n        bool[] memory isLeft,\n        bytes32 targetLeaf,\n        bytes32 _merkleRoot\n    ) public pure returns (bool) {\n        require(proof.length < 32);  // 2**32 ~ 4.3e9 leaves!\n        require(proof.length == isLeft.length);\n\n        bytes32 targetHash = targetLeaf;\n        for (uint256 i = 0; i < proof.length; i++) {\n            bytes32 proofEle = proof[i];\n            if (isLeft[i]) {\n                targetHash = keccak256(abi.encodePacked(proofEle, targetHash));\n            } else if (!isLeft[i]) {\n                targetHash = keccak256(abi.encodePacked(targetHash, proofEle));\n            } else {\n                return false;\n            }\n        }\n        return targetHash == _merkleRoot;\n    }\n\n    // query\n    function getBlockNo() external view returns (uint) {\n        return nowSblockNo;\n    }\n\n    function getBlockInfo(uint _sblockNo) external view returns (uint, bytes32, bytes32, bytes32, bytes32, bytes32, address) {\n        // TODO: update the results\n        return (blockHistory[_sblockNo].blockHeight,\n                blockHistory[_sblockNo].merkleRoot,\n                blockHistory[_sblockNo].ipfsAddr,\n                blockHistory[_sblockNo].aidMerkleRoot,\n                blockHistory[_sblockNo].aidIpfsAddr,\n                blockHistory[_sblockNo].opRoundId,\n                blockHistory[_sblockNo].validator\n               );\n    }\n\n    function queryValidator(uint _idx) external view returns (address) {\n        require(_idx>=0 && _idx < 16);\n        return validators[_idx];\n    }\n\n    function isValidator(address _addr) external view returns (bool) {\n        if (_addr == address(0)) {\n            return false;\n        } else {\n            return (_addr == validators[0] || _addr == validators[1] || _addr == validators[2] ||\n                    _addr == validators[3] || _addr == validators[4] || _addr == validators[5] ||\n                    _addr == validators[6] || _addr == validators[7] || _addr == validators[8] ||\n                    _addr == validators[9] || _addr == validators[10] || _addr == validators[11] ||\n                    _addr == validators[12] || _addr == validators[13] || _addr == validators[14] ||\n                    _addr == validators[15]);\n        }\n    }\n\n    function queryManagers() external view returns (address[4] memory) {\n        return managers;\n    }\n\n    function queryOpRound() external view returns (uint) {\n        return opRound;\n    }\n\n    function queryOpRoundId(uint _opRound) external view returns (bytes32) {\n        if (_opRound != 0) {\n            return opRoundHistory[_opRound].id;\n        } else {\n            return opRoundHistory[opRound].id;  // current opRound\n        }\n    }\n\n    function queryOpRoundLottery(uint _opRound) external view returns (uint, uint, bytes32) {\n        uint i;\n        if (_opRound == 0) {\n            i = opRound;\n        } else {\n            i = _opRound;\n        }\n        return (i, opRoundHistory[i].lotteryBlockNo, opRoundHistory[i].lotteryWinNumber);\n    }\n\n    function queryOpRoundInfo(uint _opRound) external view returns (uint, bytes32, uint) {\n        uint i;\n        if (_opRound == 0) {\n            i = opRound;\n        } else {\n            i = _opRound;\n        }\n        return (i, opRoundHistory[i].id, opRoundHistory[i].initBlockNo);\n    }\n\n    function queryOpRoundResult(uint _opRound) external view returns (uint, bytes32, uint, uint, bytes32, bytes32, uint, bytes32, uint) {\n        // this function returns default values (0 and 0x0) for current pending opRound\n        // this function is different from other `queryOpRound*()` in that a input of 0 does not mean query current opRound\n        // For opRoundHistory[0], the id is '0x1' and the initBlockNo is the block.height during construction\n        uint i;\n        uint op;\n        if (_opRound == opRound) {  // return (0, 0x0, 0, 0, 0x0, 0x0, 0, 0x0, 0);\n            op = 0;\n            i = opRound + 2;\n            // 'stack too deep' if return (0, 0x0, ...) here and also return in next else-block!?\n        } else {\n            op = _opRound;\n            i = _opRound;\n        }\n        return (op,\n                opRoundHistory[i].id,\n                opRoundHistory[i].initBlockNo,\n                opRoundHistory[i].minSuccessRate,\n                opRoundHistory[i].succesRateDB,\n                opRoundHistory[i].finalListIpfs,\n                opRoundHistory[i].lotteryBlockNo,\n                opRoundHistory[i].lotteryWinNumber,\n                opRoundHistory[i].baseline\n               );\n    }\n\n    function queryOpRoundProgress() external view returns (uint, bool, uint, uint, uint, uint) {\n        return(articleCount, atV1, v1EndTime, v2EndTime, roundVote1Count, roundVote2Count);\n    }\n\n    function queryVoteThresholds() external view returns(uint, uint, uint) {\n        return (opRound, vote1Threshold, vote2Threshold);\n    }\n\n    function queryFinalist(uint _opRound) external view returns(uint, uint, bytes32){\n        uint i;\n        if (_opRound == 0) {\n            i = opRound;\n        } else {\n            i = _opRound;\n        }\n        return (i, opRoundHistory[i].baseline, opRoundHistory[i].finalListIpfs);\n    }\n\n    // upgradable\n    function setValidator(address _newValidator, uint _idx) public managerOnly returns (bool) {\n        require(_newValidator != address(0));\n        require(_idx >=0 && _idx < 16);\n        validators[_idx] = _newValidator;\n        return true;\n    }\n\n    function setManager(address _newManager) public managerOnly returns (bool) {\n        // assume no need to change first 3 managers\n        managers[3] = _newManager;\n        return true;\n    }\n\n}\n",
  "sourcePath": "/home/kai/Work/project/OptractContract/contracts/BlockRegistry.sol",
  "compiler": {
    "name": "solc",
    "version": "0.5.2+commit.1df8f40c.Linux.g++"
  },
  "schemaVersion": "3.0.16",
  "updatedAt": "2019-10-16T09:13:35.736Z",
  "devdoc": {
    "methods": {}
  },
  "userdoc": {
    "methods": {}
  }
}