{
  "contractName": "BlockRegistry",
  "abi": [
    {
      "constant": true,
      "inputs": [],
      "name": "maxVoteTime",
      "outputs": [
        {
          "name": "",
          "type": "uint256"
        }
      ],
      "payable": false,
      "stateMutability": "view",
      "type": "function",
      "signature": "0x06937af5"
    },
    {
      "constant": true,
      "inputs": [],
      "name": "sblockTimeStep",
      "outputs": [
        {
          "name": "",
          "type": "uint256"
        }
      ],
      "payable": false,
      "stateMutability": "view",
      "type": "function",
      "signature": "0x17ca3256"
    },
    {
      "constant": true,
      "inputs": [
        {
          "name": "",
          "type": "uint256"
        }
      ],
      "name": "validators",
      "outputs": [
        {
          "name": "",
          "type": "address"
        }
      ],
      "payable": false,
      "stateMutability": "view",
      "type": "function",
      "signature": "0x35aa2e44"
    },
    {
      "constant": true,
      "inputs": [
        {
          "name": "",
          "type": "uint256"
        }
      ],
      "name": "managers",
      "outputs": [
        {
          "name": "",
          "type": "address"
        }
      ],
      "payable": false,
      "stateMutability": "view",
      "type": "function",
      "signature": "0x3d39c260"
    },
    {
      "constant": true,
      "inputs": [],
      "name": "articleCount",
      "outputs": [
        {
          "name": "",
          "type": "uint256"
        }
      ],
      "payable": false,
      "stateMutability": "view",
      "type": "function",
      "signature": "0x414e28b0"
    },
    {
      "constant": true,
      "inputs": [],
      "name": "vote1Threshold",
      "outputs": [
        {
          "name": "",
          "type": "uint256"
        }
      ],
      "payable": false,
      "stateMutability": "view",
      "type": "function",
      "signature": "0x417d63e9"
    },
    {
      "constant": true,
      "inputs": [
        {
          "name": "",
          "type": "uint256"
        }
      ],
      "name": "lotterySblockNo",
      "outputs": [
        {
          "name": "",
          "type": "uint256"
        }
      ],
      "payable": false,
      "stateMutability": "view",
      "type": "function",
      "signature": "0x50cd04e7"
    },
    {
      "constant": true,
      "inputs": [],
      "name": "roundVote2Count",
      "outputs": [
        {
          "name": "",
          "type": "uint256"
        }
      ],
      "payable": false,
      "stateMutability": "view",
      "type": "function",
      "signature": "0x7376faf2"
    },
    {
      "constant": true,
      "inputs": [],
      "name": "vote2Threshold",
      "outputs": [
        {
          "name": "",
          "type": "uint256"
        }
      ],
      "payable": false,
      "stateMutability": "view",
      "type": "function",
      "signature": "0x82eea47a"
    },
    {
      "constant": true,
      "inputs": [],
      "name": "atV1",
      "outputs": [
        {
          "name": "",
          "type": "bool"
        }
      ],
      "payable": false,
      "stateMutability": "view",
      "type": "function",
      "signature": "0x9bb71caa"
    },
    {
      "constant": true,
      "inputs": [
        {
          "name": "",
          "type": "uint256"
        }
      ],
      "name": "opRoundLog",
      "outputs": [
        {
          "name": "",
          "type": "bytes32"
        }
      ],
      "payable": false,
      "stateMutability": "view",
      "type": "function",
      "signature": "0xa32852fc"
    },
    {
      "constant": true,
      "inputs": [],
      "name": "v1EndTime",
      "outputs": [
        {
          "name": "",
          "type": "uint256"
        }
      ],
      "payable": false,
      "stateMutability": "view",
      "type": "function",
      "signature": "0xa3629b04"
    },
    {
      "constant": true,
      "inputs": [],
      "name": "opRound",
      "outputs": [
        {
          "name": "",
          "type": "uint256"
        }
      ],
      "payable": false,
      "stateMutability": "view",
      "type": "function",
      "signature": "0xb9fedac7"
    },
    {
      "constant": true,
      "inputs": [],
      "name": "memberContractAddr",
      "outputs": [
        {
          "name": "",
          "type": "address"
        }
      ],
      "payable": false,
      "stateMutability": "view",
      "type": "function",
      "signature": "0xc170f356"
    },
    {
      "constant": true,
      "inputs": [],
      "name": "roundVote1Count",
      "outputs": [
        {
          "name": "",
          "type": "uint256"
        }
      ],
      "payable": false,
      "stateMutability": "view",
      "type": "function",
      "signature": "0xd64d8c02"
    },
    {
      "constant": true,
      "inputs": [
        {
          "name": "",
          "type": "uint256"
        }
      ],
      "name": "blockHistory",
      "outputs": [
        {
          "name": "validator",
          "type": "address"
        },
        {
          "name": "blockHeight",
          "type": "uint256"
        },
        {
          "name": "merkleRoot",
          "type": "bytes32"
        },
        {
          "name": "ipfsAddr",
          "type": "bytes32"
        },
        {
          "name": "timestamp",
          "type": "uint256"
        },
        {
          "name": "uniqArticleCount",
          "type": "uint256"
        },
        {
          "name": "vote1Count",
          "type": "uint256"
        },
        {
          "name": "vote2Count",
          "type": "uint256"
        },
        {
          "name": "opRoundId",
          "type": "bytes32"
        },
        {
          "name": "lotteryWinNumber",
          "type": "bytes32"
        },
        {
          "name": "lotteryIpfs",
          "type": "bytes32"
        },
        {
          "name": "minSuccessRate",
          "type": "uint256"
        },
        {
          "name": "succesRateDB",
          "type": "bytes32"
        },
        {
          "name": "finanListIpfs",
          "type": "bytes32"
        }
      ],
      "payable": false,
      "stateMutability": "view",
      "type": "function",
      "signature": "0xde250ace"
    },
    {
      "constant": true,
      "inputs": [],
      "name": "nowSblockNo",
      "outputs": [
        {
          "name": "",
          "type": "uint256"
        }
      ],
      "payable": false,
      "stateMutability": "view",
      "type": "function",
      "signature": "0xdeefebc1"
    },
    {
      "constant": true,
      "inputs": [],
      "name": "v2EndTime",
      "outputs": [
        {
          "name": "",
          "type": "uint256"
        }
      ],
      "payable": false,
      "stateMutability": "view",
      "type": "function",
      "signature": "0xfd0492b1"
    },
    {
      "inputs": [
        {
          "name": "_memberContractAddr",
          "type": "address"
        }
      ],
      "payable": false,
      "stateMutability": "nonpayable",
      "type": "constructor",
      "signature": "constructor"
    },
    {
      "constant": false,
      "inputs": [
        {
          "name": "_seconds",
          "type": "uint256"
        }
      ],
      "name": "updateMaxVoteTime",
      "outputs": [],
      "payable": false,
      "stateMutability": "nonpayable",
      "type": "function",
      "signature": "0x9786007a"
    },
    {
      "constant": false,
      "inputs": [
        {
          "name": "_x",
          "type": "uint256"
        },
        {
          "name": "_y",
          "type": "uint256"
        }
      ],
      "name": "setThreshold",
      "outputs": [],
      "payable": false,
      "stateMutability": "nonpayable",
      "type": "function",
      "signature": "0xb9c36209"
    },
    {
      "constant": false,
      "inputs": [
        {
          "name": "_merkleRoot",
          "type": "bytes32"
        },
        {
          "name": "_ipfsAddr",
          "type": "bytes32"
        },
        {
          "name": "_uniqArticleCount",
          "type": "uint256"
        },
        {
          "name": "_vote1Count",
          "type": "uint256"
        },
        {
          "name": "_vote2Count",
          "type": "uint256"
        },
        {
          "name": "_lotteryIpfs",
          "type": "bytes32"
        },
        {
          "name": "_minSuccessRate",
          "type": "uint256"
        },
        {
          "name": "_successRateDB",
          "type": "bytes32"
        },
        {
          "name": "_finalListIpfs",
          "type": "bytes32"
        }
      ],
      "name": "submitMerkleRoot",
      "outputs": [
        {
          "name": "",
          "type": "bool"
        }
      ],
      "payable": false,
      "stateMutability": "nonpayable",
      "type": "function",
      "signature": "0xa991f6c2"
    },
    {
      "constant": true,
      "inputs": [
        {
          "name": "v1Count",
          "type": "uint256"
        }
      ],
      "name": "isEnoughV1",
      "outputs": [
        {
          "name": "",
          "type": "bool"
        }
      ],
      "payable": false,
      "stateMutability": "view",
      "type": "function",
      "signature": "0x0137aca4"
    },
    {
      "constant": true,
      "inputs": [
        {
          "name": "v2Count",
          "type": "uint256"
        }
      ],
      "name": "isEnoughV2",
      "outputs": [
        {
          "name": "",
          "type": "bool"
        }
      ],
      "payable": false,
      "stateMutability": "view",
      "type": "function",
      "signature": "0x6cb0999b"
    },
    {
      "constant": true,
      "inputs": [
        {
          "name": "_sblockNo",
          "type": "uint256"
        },
        {
          "name": "_bhash",
          "type": "bytes32"
        }
      ],
      "name": "calcWinNumber",
      "outputs": [
        {
          "name": "",
          "type": "bytes32"
        }
      ],
      "payable": false,
      "stateMutability": "view",
      "type": "function",
      "signature": "0x7e490018"
    },
    {
      "constant": true,
      "inputs": [
        {
          "name": "_ticket",
          "type": "bytes32"
        },
        {
          "name": "_digit",
          "type": "uint8"
        }
      ],
      "name": "_getBytes32HexNthDigit",
      "outputs": [
        {
          "name": "",
          "type": "bytes1"
        }
      ],
      "payable": false,
      "stateMutability": "pure",
      "type": "function",
      "signature": "0xd17eaa47"
    },
    {
      "constant": true,
      "inputs": [
        {
          "name": "_sblockNo",
          "type": "uint256"
        },
        {
          "name": "_ticket",
          "type": "bytes32"
        }
      ],
      "name": "isWinningTicket",
      "outputs": [
        {
          "name": "",
          "type": "bool"
        }
      ],
      "payable": false,
      "stateMutability": "view",
      "type": "function",
      "signature": "0x53311f95"
    },
    {
      "constant": true,
      "inputs": [
        {
          "name": "proof",
          "type": "bytes32[]"
        },
        {
          "name": "isLeft",
          "type": "bool[]"
        },
        {
          "name": "txHash",
          "type": "bytes32"
        },
        {
          "name": "_sblockNo",
          "type": "uint256"
        }
      ],
      "name": "txExist",
      "outputs": [
        {
          "name": "",
          "type": "bool"
        }
      ],
      "payable": false,
      "stateMutability": "view",
      "type": "function",
      "signature": "0x316f0d84"
    },
    {
      "constant": true,
      "inputs": [
        {
          "name": "proof1",
          "type": "bytes32[]"
        },
        {
          "name": "isLeft1",
          "type": "bool[]"
        },
        {
          "name": "txHash1",
          "type": "bytes32"
        },
        {
          "name": "sblockNo1",
          "type": "uint256"
        },
        {
          "name": "proof2",
          "type": "bytes32[]"
        },
        {
          "name": "isLeft2",
          "type": "bool[]"
        },
        {
          "name": "txHash2",
          "type": "bytes32"
        },
        {
          "name": "sblockNo2",
          "type": "uint256"
        }
      ],
      "name": "claimReward",
      "outputs": [
        {
          "name": "",
          "type": "bool"
        }
      ],
      "payable": false,
      "stateMutability": "view",
      "type": "function",
      "signature": "0x09c7a12c"
    },
    {
      "constant": true,
      "inputs": [
        {
          "name": "proof",
          "type": "bytes32[]"
        },
        {
          "name": "isLeft",
          "type": "bool[]"
        },
        {
          "name": "targetLeaf",
          "type": "bytes32"
        },
        {
          "name": "_merkleRoot",
          "type": "bytes32"
        }
      ],
      "name": "merkleTreeValidator",
      "outputs": [
        {
          "name": "",
          "type": "bool"
        }
      ],
      "payable": false,
      "stateMutability": "pure",
      "type": "function",
      "signature": "0xb8f69e37"
    },
    {
      "constant": true,
      "inputs": [],
      "name": "getBlockNo",
      "outputs": [
        {
          "name": "",
          "type": "uint256"
        }
      ],
      "payable": false,
      "stateMutability": "view",
      "type": "function",
      "signature": "0xfba0e4bb"
    },
    {
      "constant": true,
      "inputs": [
        {
          "name": "_sblockNo",
          "type": "uint256"
        }
      ],
      "name": "getBlockInfo",
      "outputs": [
        {
          "name": "",
          "type": "uint256"
        },
        {
          "name": "",
          "type": "bytes32"
        },
        {
          "name": "",
          "type": "bytes32"
        }
      ],
      "payable": false,
      "stateMutability": "view",
      "type": "function",
      "signature": "0xbb141cf4"
    },
    {
      "constant": true,
      "inputs": [
        {
          "name": "_idx",
          "type": "uint256"
        }
      ],
      "name": "queryValidator",
      "outputs": [
        {
          "name": "",
          "type": "address"
        }
      ],
      "payable": false,
      "stateMutability": "view",
      "type": "function",
      "signature": "0x810e0b20"
    },
    {
      "constant": true,
      "inputs": [],
      "name": "isValidator",
      "outputs": [
        {
          "name": "",
          "type": "bool"
        }
      ],
      "payable": false,
      "stateMutability": "view",
      "type": "function",
      "signature": "0x330e9e3d"
    },
    {
      "constant": true,
      "inputs": [],
      "name": "queryManagers",
      "outputs": [
        {
          "name": "",
          "type": "address[4]"
        }
      ],
      "payable": false,
      "stateMutability": "view",
      "type": "function",
      "signature": "0xca48c69d"
    },
    {
      "constant": true,
      "inputs": [],
      "name": "queryOpRound",
      "outputs": [
        {
          "name": "",
          "type": "uint256"
        }
      ],
      "payable": false,
      "stateMutability": "view",
      "type": "function",
      "signature": "0x8ccbaca4"
    },
    {
      "constant": true,
      "inputs": [
        {
          "name": "_opRound",
          "type": "uint256"
        }
      ],
      "name": "queryOpRoundId",
      "outputs": [
        {
          "name": "",
          "type": "bytes32"
        }
      ],
      "payable": false,
      "stateMutability": "view",
      "type": "function",
      "signature": "0xd9eb08f6"
    },
    {
      "constant": false,
      "inputs": [
        {
          "name": "_newValidator",
          "type": "address"
        },
        {
          "name": "_idx",
          "type": "uint256"
        }
      ],
      "name": "setValidator",
      "outputs": [
        {
          "name": "",
          "type": "bool"
        }
      ],
      "payable": false,
      "stateMutability": "nonpayable",
      "type": "function",
      "signature": "0xabb9406b"
    },
    {
      "constant": false,
      "inputs": [
        {
          "name": "_newManager",
          "type": "address"
        }
      ],
      "name": "setManager",
      "outputs": [
        {
          "name": "",
          "type": "bool"
        }
      ],
      "payable": false,
      "stateMutability": "nonpayable",
      "type": "function",
      "signature": "0xd0ebdbe7"
    }
  ],
  "bytecode": "0x60806040526107086016556028601b556028601c55611c206020553480156200002757600080fd5b506040516020806200557e833981018060405260208110156200004957600080fd5b810190808051906020019092919050505080601460006101000a81548173ffffffffffffffffffffffffffffffffffffffff021916908373ffffffffffffffffffffffffffffffffffffffff16021790555060806040519081016040528073b440ea2780614b3c6a00e512f432785e7dfafa3e73ffffffffffffffffffffffffffffffffffffffff1673ffffffffffffffffffffffffffffffffffffffff168152602001734ad56641c569c91c64c28a904cda50ae5326da4173ffffffffffffffffffffffffffffffffffffffff1673ffffffffffffffffffffffffffffffffffffffff16815260200173af7400787c54422be8b44154b1273661f1259ccd73ffffffffffffffffffffffffffffffffffffffff1673ffffffffffffffffffffffffffffffffffffffff168152602001600073ffffffffffffffffffffffffffffffffffffffff1673ffffffffffffffffffffffffffffffffffffffff168152506000906004620001bc929190620006cd565b506102006040519081016040528073b440ea2780614b3c6a00e512f432785e7dfafa3e73ffffffffffffffffffffffffffffffffffffffff1673ffffffffffffffffffffffffffffffffffffffff168152602001734ad56641c569c91c64c28a904cda50ae5326da4173ffffffffffffffffffffffffffffffffffffffff1673ffffffffffffffffffffffffffffffffffffffff16815260200173af7400787c54422be8b44154b1273661f1259ccd73ffffffffffffffffffffffffffffffffffffffff1673ffffffffffffffffffffffffffffffffffffffff168152602001600073ffffffffffffffffffffffffffffffffffffffff1673ffffffffffffffffffffffffffffffffffffffff168152602001600073ffffffffffffffffffffffffffffffffffffffff1673ffffffffffffffffffffffffffffffffffffffff168152602001600073ffffffffffffffffffffffffffffffffffffffff1673ffffffffffffffffffffffffffffffffffffffff168152602001600073ffffffffffffffffffffffffffffffffffffffff1673ffffffffffffffffffffffffffffffffffffffff168152602001600073ffffffffffffffffffffffffffffffffffffffff1673ffffffffffffffffffffffffffffffffffffffff168152602001600073ffffffffffffffffffffffffffffffffffffffff1673ffffffffffffffffffffffffffffffffffffffff168152602001600073ffffffffffffffffffffffffffffffffffffffff1673ffffffffffffffffffffffffffffffffffffffff168152602001600073ffffffffffffffffffffffffffffffffffffffff1673ffffffffffffffffffffffffffffffffffffffff168152602001600073ffffffffffffffffffffffffffffffffffffffff1673ffffffffffffffffffffffffffffffffffffffff168152602001600073ffffffffffffffffffffffffffffffffffffffff1673ffffffffffffffffffffffffffffffffffffffff168152602001600073ffffffffffffffffffffffffffffffffffffffff1673ffffffffffffffffffffffffffffffffffffffff168152602001600073ffffffffffffffffffffffffffffffffffffffff1673ffffffffffffffffffffffffffffffffffffffff168152602001600073ffffffffffffffffffffffffffffffffffffffff1673ffffffffffffffffffffffffffffffffffffffff168152506004906010620005439291906200074f565b506101c0604051908101604052803373ffffffffffffffffffffffffffffffffffffffff1681526020014381526020016000600102815260200160006001028152602001428152602001600081526020016000815260200160008152602001600060010281526020016000600102815260200160006001028152602001600081526020016000600102815260200160006001028152506021600080815260200190815260200160002060008201518160000160006101000a81548173ffffffffffffffffffffffffffffffffffffffff021916908373ffffffffffffffffffffffffffffffffffffffff1602179055506020820151816001015560408201518160020155606082015181600301556080820151816004015560a0820151816005015560c0820151816006015560e082015181600701556101008201518160080155610120820151816009015561014082015181600a015561016082015181600b015561018082015181600c01556101a082015181600d015590505060016015819055505062000817565b82600481019282156200073c579160200282015b828111156200073b5782518260006101000a81548173ffffffffffffffffffffffffffffffffffffffff021916908373ffffffffffffffffffffffffffffffffffffffff16021790555091602001919060010190620006e1565b5b5090506200074b9190620007d1565b5090565b8260108101928215620007be579160200282015b82811115620007bd5782518260006101000a81548173ffffffffffffffffffffffffffffffffffffffff021916908373ffffffffffffffffffffffffffffffffffffffff1602179055509160200191906001019062000763565b5b509050620007cd9190620007d1565b5090565b6200081491905b808211156200081057600081816101000a81549073ffffffffffffffffffffffffffffffffffffffff021916905550600101620007d8565b5090565b90565b614d5780620008276000396000f3fe608060405234801561001057600080fd5b506004361061024f576000357c0100000000000000000000000000000000000000000000000000000000900480639bb71caa1161014d578063c170f356116100d5578063d9eb08f611610099578063d9eb08f614610e95578063de250ace14610ed7578063deefebc114610fa0578063fba0e4bb14610fbe578063fd0492b114610fdc5761024f565b8063c170f35614610cf8578063ca48c69d14610d42578063d0ebdbe714610d88578063d17eaa4714610de4578063d64d8c0214610e775761024f565b8063abb9406b1161011c578063abb9406b14610a74578063b8f69e3714610ada578063b9c3620914610c52578063b9fedac714610c8a578063bb141cf414610ca85761024f565b80639bb71caa1461095b578063a32852fc1461097d578063a3629b04146109bf578063a991f6c2146109dd5761024f565b8063417d63e9116101db5780637e4900181161019f5780637e49001814610837578063810e0b201461088357806382eea47a146108f15780638ccbaca41461090f5780639786007a1461092d5761024f565b8063417d63e91461072357806350cd04e71461074157806353311f95146107835780636cb0999b146107d35780637376faf2146108195761024f565b8063316f0d8411610222578063316f0d841461048f578063330e9e3d1461060757806335aa2e44146106295780633d39c26014610697578063414e28b0146107055761024f565b80630137aca41461025457806306937af51461029a57806309c7a12c146102b857806317ca325614610471575b600080fd5b6102806004803603602081101561026a57600080fd5b8101908080359060200190929190505050610ffa565b604051808215151515815260200191505060405180910390f35b6102a261110b565b6040518082815260200191505060405180910390f35b61045760048036036101008110156102cf57600080fd5b81019080803590602001906401000000008111156102ec57600080fd5b8201836020820111156102fe57600080fd5b8035906020019184602083028401116401000000008311171561032057600080fd5b90919293919293908035906020019064010000000081111561034157600080fd5b82018360208201111561035357600080fd5b8035906020019184602083028401116401000000008311171561037557600080fd5b90919293919293908035906020019092919080359060200190929190803590602001906401000000008111156103aa57600080fd5b8201836020820111156103bc57600080fd5b803590602001918460208302840111640100000000831117156103de57600080fd5b9091929391929390803590602001906401000000008111156103ff57600080fd5b82018360208201111561041157600080fd5b8035906020019184602083028401116401000000008311171561043357600080fd5b90919293919293908035906020019092919080359060200190929190505050611111565b604051808215151515815260200191505060405180910390f35b610479611272565b6040518082815260200191505060405180910390f35b6105ed600480360360808110156104a557600080fd5b81019080803590602001906401000000008111156104c257600080fd5b8201836020820111156104d457600080fd5b803590602001918460208302840111640100000000831117156104f657600080fd5b919080806020026020016040519081016040528093929190818152602001838360200280828437600081840152601f19601f8201169050808301925050505050505091929192908035906020019064010000000081111561055657600080fd5b82018360208201111561056857600080fd5b8035906020019184602083028401116401000000008311171561058a57600080fd5b919080806020026020016040519081016040528093929190818152602001838360200280828437600081840152601f19601f8201169050808301925050505050505091929192908035906020019092919080359060200190929190505050611278565b604051808215151515815260200191505060405180910390f35b61060f6112df565b604051808215151515815260200191505060405180910390f35b6106556004803603602081101561063f57600080fd5b810190808035906020019092919050505061198c565b604051808273ffffffffffffffffffffffffffffffffffffffff1673ffffffffffffffffffffffffffffffffffffffff16815260200191505060405180910390f35b6106c3600480360360208110156106ad57600080fd5b81019080803590602001909291905050506119c1565b604051808273ffffffffffffffffffffffffffffffffffffffff1673ffffffffffffffffffffffffffffffffffffffff16815260200191505060405180910390f35b61070d6119f6565b6040518082815260200191505060405180910390f35b61072b6119fc565b6040518082815260200191505060405180910390f35b61076d6004803603602081101561075757600080fd5b8101908080359060200190929190505050611a02565b6040518082815260200191505060405180910390f35b6107b96004803603604081101561079957600080fd5b810190808035906020019092919080359060200190929190505050611a1a565b604051808215151515815260200191505060405180910390f35b6107ff600480360360208110156107e957600080fd5b8101908080359060200190929190505050611d28565b604051808215151515815260200191505060405180910390f35b610821611e2d565b6040518082815260200191505060405180910390f35b61086d6004803603604081101561084d57600080fd5b810190808035906020019092919080359060200190929190505050611e33565b6040518082815260200191505060405180910390f35b6108af6004803603602081101561089957600080fd5b8101908080359060200190929190505050611f39565b604051808273ffffffffffffffffffffffffffffffffffffffff1673ffffffffffffffffffffffffffffffffffffffff16815260200191505060405180910390f35b6108f9611f8e565b6040518082815260200191505060405180910390f35b610917611f94565b6040518082815260200191505060405180910390f35b6109596004803603602081101561094357600080fd5b8101908080359060200190929190505050611f9e565b005b610963612674565b604051808215151515815260200191505060405180910390f35b6109a96004803603602081101561099357600080fd5b8101908080359060200190929190505050612687565b6040518082815260200191505060405180910390f35b6109c761269f565b6040518082815260200191505060405180910390f35b610a5a60048036036101208110156109f457600080fd5b810190808035906020019092919080359060200190929190803590602001909291908035906020019092919080359060200190929190803590602001909291908035906020019092919080359060200190929190803590602001909291905050506126a5565b604051808215151515815260200191505060405180910390f35b610ac060048036036040811015610a8a57600080fd5b81019080803573ffffffffffffffffffffffffffffffffffffffff16906020019092919080359060200190929190505050613b2d565b604051808215151515815260200191505060405180910390f35b610c3860048036036080811015610af057600080fd5b8101908080359060200190640100000000811115610b0d57600080fd5b820183602082011115610b1f57600080fd5b80359060200191846020830284011164010000000083111715610b4157600080fd5b919080806020026020016040519081016040528093929190818152602001838360200280828437600081840152601f19601f82011690508083019250505050505050919291929080359060200190640100000000811115610ba157600080fd5b820183602082011115610bb357600080fd5b80359060200191846020830284011164010000000083111715610bd557600080fd5b919080806020026020016040519081016040528093929190818152602001838360200280828437600081840152601f19601f8201169050808301925050505050505091929192908035906020019092919080359060200190929190505050613dba565b604051808215151515815260200191505060405180910390f35b610c8860048036036040811015610c6857600080fd5b810190808035906020019092919080359060200190929190505050613ede565b005b610c926145d9565b6040518082815260200191505060405180910390f35b610cd460048036036020811015610cbe57600080fd5b81019080803590602001909291905050506145df565b60405180848152602001838152602001828152602001935050505060405180910390f35b610d00614636565b604051808273ffffffffffffffffffffffffffffffffffffffff1673ffffffffffffffffffffffffffffffffffffffff16815260200191505060405180910390f35b610d4a61465c565b6040518082600460200280838360005b83811015610d75578082015181840152602081019050610d5a565b5050505090500191505060405180910390f35b610dca60048036036020811015610d9e57600080fd5b81019080803573ffffffffffffffffffffffffffffffffffffffff1690602001909291905050506146dd565b604051808215151515815260200191505060405180910390f35b610e1d60048036036040811015610dfa57600080fd5b8101908080359060200190929190803560ff169060200190929190505050614912565b60405180827effffffffffffffffffffffffffffffffffffffffffffffffffffffffffffff19167effffffffffffffffffffffffffffffffffffffffffffffffffffffffffffff1916815260200191505060405180910390f35b610e7f614a8f565b6040518082815260200191505060405180910390f35b610ec160048036036020811015610eab57600080fd5b8101908080359060200190929190505050614a95565b6040518082815260200191505060405180910390f35b610f0360048036036020811015610eed57600080fd5b8101908080359060200190929190505050614ad9565b604051808f73ffffffffffffffffffffffffffffffffffffffff1673ffffffffffffffffffffffffffffffffffffffff1681526020018e81526020018d81526020018c81526020018b81526020018a81526020018981526020018881526020018781526020018681526020018581526020018481526020018381526020018281526020019e50505050505050505050505050505060405180910390f35b610fa8614b65565b6040518082815260200191505060405180910390f35b610fc6614b6b565b6040518082815260200191505060405180910390f35b610fe4614b75565b6040518082815260200191505060405180910390f35b600080601460009054906101000a900473ffffffffffffffffffffffffffffffffffffffff1673ffffffffffffffffffffffffffffffffffffffff166322faa41f6040518163ffffffff167c010000000000000000000000000000000000000000000000000000000002815260040160206040518083038186803b15801561108157600080fd5b505afa158015611095573d6000803e3d6000fd5b505050506040513d60208110156110ab57600080fd5b81019080805190602001909291905050509050600381101515156110ce57600080fd5b600081846064028115156110de57fe5b049050606481111515156110ee57fe5b601b5481111561110357600192505050611106565b50505b919050565b60205481565b6000601554881180156111285750600c6015540188105b151561113357600080fd5b6111c18d8d80806020026020016040519081016040528093929190818152602001838360200280828437600081840152601f19601f820116905080830192505050505050508c8c80806020026020016040519081016040528093929190818152602001838360200280828437600081840152601f19601f820116905080830192505050505050508b8b611278565b80156112575750611256878780806020026020016040519081016040528093929190818152602001838360200280828437600081840152601f19601f82011690508083019250505050505050868680806020026020016040519081016040528093929190818152602001838360200280828437600081840152601f19601f820116905080830192505050505050508585611278565b5b151561126257600080fd5b9c9b505050505050505050505050565b60165481565b60006015548210151561128a57600080fd5b60006001026021600084815260200190815260200160002060020154141515156112b357600080fd5b6112d58585856021600087815260200190815260200160002060020154613dba565b9050949350505050565b60008073ffffffffffffffffffffffffffffffffffffffff163373ffffffffffffffffffffffffffffffffffffffff16141561131e5760009050611989565b6004600060108110151561132e57fe5b0160009054906101000a900473ffffffffffffffffffffffffffffffffffffffff1673ffffffffffffffffffffffffffffffffffffffff163373ffffffffffffffffffffffffffffffffffffffff1614806113e557506004600160108110151561139457fe5b0160009054906101000a900473ffffffffffffffffffffffffffffffffffffffff1673ffffffffffffffffffffffffffffffffffffffff163373ffffffffffffffffffffffffffffffffffffffff16145b8061144c5750600460026010811015156113fb57fe5b0160009054906101000a900473ffffffffffffffffffffffffffffffffffffffff1673ffffffffffffffffffffffffffffffffffffffff163373ffffffffffffffffffffffffffffffffffffffff16145b806114b357506004600360108110151561146257fe5b0160009054906101000a900473ffffffffffffffffffffffffffffffffffffffff1673ffffffffffffffffffffffffffffffffffffffff163373ffffffffffffffffffffffffffffffffffffffff16145b8061151957506004806010811015156114c857fe5b0160009054906101000a900473ffffffffffffffffffffffffffffffffffffffff1673ffffffffffffffffffffffffffffffffffffffff163373ffffffffffffffffffffffffffffffffffffffff16145b8061158057506004600560108110151561152f57fe5b0160009054906101000a900473ffffffffffffffffffffffffffffffffffffffff1673ffffffffffffffffffffffffffffffffffffffff163373ffffffffffffffffffffffffffffffffffffffff16145b806115e757506004600660108110151561159657fe5b0160009054906101000a900473ffffffffffffffffffffffffffffffffffffffff1673ffffffffffffffffffffffffffffffffffffffff163373ffffffffffffffffffffffffffffffffffffffff16145b8061164e5750600460076010811015156115fd57fe5b0160009054906101000a900473ffffffffffffffffffffffffffffffffffffffff1673ffffffffffffffffffffffffffffffffffffffff163373ffffffffffffffffffffffffffffffffffffffff16145b806116b557506004600860108110151561166457fe5b0160009054906101000a900473ffffffffffffffffffffffffffffffffffffffff1673ffffffffffffffffffffffffffffffffffffffff163373ffffffffffffffffffffffffffffffffffffffff16145b8061171c5750600460096010811015156116cb57fe5b0160009054906101000a900473ffffffffffffffffffffffffffffffffffffffff1673ffffffffffffffffffffffffffffffffffffffff163373ffffffffffffffffffffffffffffffffffffffff16145b8061178357506004600a60108110151561173257fe5b0160009054906101000a900473ffffffffffffffffffffffffffffffffffffffff1673ffffffffffffffffffffffffffffffffffffffff163373ffffffffffffffffffffffffffffffffffffffff16145b806117ea57506004600b60108110151561179957fe5b0160009054906101000a900473ffffffffffffffffffffffffffffffffffffffff1673ffffffffffffffffffffffffffffffffffffffff163373ffffffffffffffffffffffffffffffffffffffff16145b8061185157506004600c60108110151561180057fe5b0160009054906101000a900473ffffffffffffffffffffffffffffffffffffffff1673ffffffffffffffffffffffffffffffffffffffff163373ffffffffffffffffffffffffffffffffffffffff16145b806118b857506004600d60108110151561186757fe5b0160009054906101000a900473ffffffffffffffffffffffffffffffffffffffff1673ffffffffffffffffffffffffffffffffffffffff163373ffffffffffffffffffffffffffffffffffffffff16145b8061191f57506004600e6010811015156118ce57fe5b0160009054906101000a900473ffffffffffffffffffffffffffffffffffffffff1673ffffffffffffffffffffffffffffffffffffffff163373ffffffffffffffffffffffffffffffffffffffff16145b8061198657506004600f60108110151561193557fe5b0160009054906101000a900473ffffffffffffffffffffffffffffffffffffffff1673ffffffffffffffffffffffffffffffffffffffff163373ffffffffffffffffffffffffffffffffffffffff16145b90505b90565b60048160108110151561199b57fe5b016000915054906101000a900473ffffffffffffffffffffffffffffffffffffffff1681565b6000816004811015156119d057fe5b016000915054906101000a900473ffffffffffffffffffffffffffffffffffffffff1681565b60185481565b601b5481565b60226020528060005260406000206000915090505481565b600080600102602160008581526020019081526020016000206009015414151515611a4457600080fd5b60006021600085815260200190815260200160002060090154905060006004611a6e836000614912565b7f0100000000000000000000000000000000000000000000000000000000000000900460ff16811515611a9d57fe5b0690506000611aad83603f614912565b9050600060106001837f010000000000000000000000000000000000000000000000000000000000000090040160ff16811515611ae657fe5b067f0100000000000000000000000000000000000000000000000000000000000000029050600060106001837f010000000000000000000000000000000000000000000000000000000000000090040160ff16811515611b4257fe5b067f0100000000000000000000000000000000000000000000000000000000000000029050600060106001837f010000000000000000000000000000000000000000000000000000000000000090040160ff16811515611b9e57fe5b067f01000000000000000000000000000000000000000000000000000000000000000290506000611bd28987603f03614912565b9050847effffffffffffffffffffffffffffffffffffffffffffffffffffffffffffff1916817effffffffffffffffffffffffffffffffffffffffffffffffffffffffffffff19161480611c695750837effffffffffffffffffffffffffffffffffffffffffffffffffffffffffffff1916817effffffffffffffffffffffffffffffffffffffffffffffffffffffffffffff1916145b80611cb75750827effffffffffffffffffffffffffffffffffffffffffffffffffffffffffffff1916817effffffffffffffffffffffffffffffffffffffffffffffffffffffffffffff1916145b80611d055750817effffffffffffffffffffffffffffffffffffffffffffffffffffffffffffff1916817effffffffffffffffffffffffffffffffffffffffffffffffffffffffffffff1916145b15611d1a576001975050505050505050611d22565b505050505050505b92915050565b600080601460009054906101000a900473ffffffffffffffffffffffffffffffffffffffff1673ffffffffffffffffffffffffffffffffffffffff166322faa41f6040518163ffffffff167c010000000000000000000000000000000000000000000000000000000002815260040160206040518083038186803b158015611daf57600080fd5b505afa158015611dc3573d6000803e3d6000fd5b505050506040513d6020811015611dd957600080fd5b8101908080519060200190929190505050905060038110151515611dfc57600080fd5b6000818461032002811515611e0d57fe5b049050601c54811115611e2557600192505050611e28565b50505b919050565b601a5481565b60008083118015611e45575060155483105b1515611e5057600080fd5b6000600102602160008581526020019081526020016000206002015414151515611e7957600080fd5b602160008481526020019081526020016000206001015443111515611e9d57600080fd5b6000600102821415611eec5761010060216000858152602001908152602001600020600101544303101515611ed157600080fd5b60216000848152602001908152602001600020600101544091505b602160008481526020019081526020016000206002015482604051602001808381526020018281526020019250505060405160208183030381529060405280519060200120905092915050565b6000808210158015611f4b5750601082105b1515611f5657600080fd5b600482601081101515611f6557fe5b0160009054906101000a900473ffffffffffffffffffffffffffffffffffffffff169050919050565b601c5481565b6000601754905090565b600073ffffffffffffffffffffffffffffffffffffffff163373ffffffffffffffffffffffffffffffffffffffff1614151515611fda57600080fd5b60046000601081101515611fea57fe5b0160009054906101000a900473ffffffffffffffffffffffffffffffffffffffff1673ffffffffffffffffffffffffffffffffffffffff163373ffffffffffffffffffffffffffffffffffffffff1614806120a157506004600160108110151561205057fe5b0160009054906101000a900473ffffffffffffffffffffffffffffffffffffffff1673ffffffffffffffffffffffffffffffffffffffff163373ffffffffffffffffffffffffffffffffffffffff16145b806121085750600460026010811015156120b757fe5b0160009054906101000a900473ffffffffffffffffffffffffffffffffffffffff1673ffffffffffffffffffffffffffffffffffffffff163373ffffffffffffffffffffffffffffffffffffffff16145b8061216f57506004600360108110151561211e57fe5b0160009054906101000a900473ffffffffffffffffffffffffffffffffffffffff1673ffffffffffffffffffffffffffffffffffffffff163373ffffffffffffffffffffffffffffffffffffffff16145b806121d5575060048060108110151561218457fe5b0160009054906101000a900473ffffffffffffffffffffffffffffffffffffffff1673ffffffffffffffffffffffffffffffffffffffff163373ffffffffffffffffffffffffffffffffffffffff16145b8061223c5750600460056010811015156121eb57fe5b0160009054906101000a900473ffffffffffffffffffffffffffffffffffffffff1673ffffffffffffffffffffffffffffffffffffffff163373ffffffffffffffffffffffffffffffffffffffff16145b806122a357506004600660108110151561225257fe5b0160009054906101000a900473ffffffffffffffffffffffffffffffffffffffff1673ffffffffffffffffffffffffffffffffffffffff163373ffffffffffffffffffffffffffffffffffffffff16145b8061230a5750600460076010811015156122b957fe5b0160009054906101000a900473ffffffffffffffffffffffffffffffffffffffff1673ffffffffffffffffffffffffffffffffffffffff163373ffffffffffffffffffffffffffffffffffffffff16145b8061237157506004600860108110151561232057fe5b0160009054906101000a900473ffffffffffffffffffffffffffffffffffffffff1673ffffffffffffffffffffffffffffffffffffffff163373ffffffffffffffffffffffffffffffffffffffff16145b806123d857506004600960108110151561238757fe5b0160009054906101000a900473ffffffffffffffffffffffffffffffffffffffff1673ffffffffffffffffffffffffffffffffffffffff163373ffffffffffffffffffffffffffffffffffffffff16145b8061243f57506004600a6010811015156123ee57fe5b0160009054906101000a900473ffffffffffffffffffffffffffffffffffffffff1673ffffffffffffffffffffffffffffffffffffffff163373ffffffffffffffffffffffffffffffffffffffff16145b806124a657506004600b60108110151561245557fe5b0160009054906101000a900473ffffffffffffffffffffffffffffffffffffffff1673ffffffffffffffffffffffffffffffffffffffff163373ffffffffffffffffffffffffffffffffffffffff16145b8061250d57506004600c6010811015156124bc57fe5b0160009054906101000a900473ffffffffffffffffffffffffffffffffffffffff1673ffffffffffffffffffffffffffffffffffffffff163373ffffffffffffffffffffffffffffffffffffffff16145b8061257457506004600d60108110151561252357fe5b0160009054906101000a900473ffffffffffffffffffffffffffffffffffffffff1673ffffffffffffffffffffffffffffffffffffffff163373ffffffffffffffffffffffffffffffffffffffff16145b806125db57506004600e60108110151561258a57fe5b0160009054906101000a900473ffffffffffffffffffffffffffffffffffffffff1673ffffffffffffffffffffffffffffffffffffffff163373ffffffffffffffffffffffffffffffffffffffff16145b8061264257506004600f6010811015156125f157fe5b0160009054906101000a900473ffffffffffffffffffffffffffffffffffffffff1673ffffffffffffffffffffffffffffffffffffffff163373ffffffffffffffffffffffffffffffffffffffff16145b151561264d57600080fd5b60b48111801561265f57506201518081105b151561266a57600080fd5b8060208190555050565b601f60009054906101000a900460ff1681565b60236020528060005260406000206000915090505481565b601d5481565b60008073ffffffffffffffffffffffffffffffffffffffff163373ffffffffffffffffffffffffffffffffffffffff16141515156126e257600080fd5b600460006010811015156126f257fe5b0160009054906101000a900473ffffffffffffffffffffffffffffffffffffffff1673ffffffffffffffffffffffffffffffffffffffff163373ffffffffffffffffffffffffffffffffffffffff1614806127a957506004600160108110151561275857fe5b0160009054906101000a900473ffffffffffffffffffffffffffffffffffffffff1673ffffffffffffffffffffffffffffffffffffffff163373ffffffffffffffffffffffffffffffffffffffff16145b806128105750600460026010811015156127bf57fe5b0160009054906101000a900473ffffffffffffffffffffffffffffffffffffffff1673ffffffffffffffffffffffffffffffffffffffff163373ffffffffffffffffffffffffffffffffffffffff16145b8061287757506004600360108110151561282657fe5b0160009054906101000a900473ffffffffffffffffffffffffffffffffffffffff1673ffffffffffffffffffffffffffffffffffffffff163373ffffffffffffffffffffffffffffffffffffffff16145b806128dd575060048060108110151561288c57fe5b0160009054906101000a900473ffffffffffffffffffffffffffffffffffffffff1673ffffffffffffffffffffffffffffffffffffffff163373ffffffffffffffffffffffffffffffffffffffff16145b806129445750600460056010811015156128f357fe5b0160009054906101000a900473ffffffffffffffffffffffffffffffffffffffff1673ffffffffffffffffffffffffffffffffffffffff163373ffffffffffffffffffffffffffffffffffffffff16145b806129ab57506004600660108110151561295a57fe5b0160009054906101000a900473ffffffffffffffffffffffffffffffffffffffff1673ffffffffffffffffffffffffffffffffffffffff163373ffffffffffffffffffffffffffffffffffffffff16145b80612a125750600460076010811015156129c157fe5b0160009054906101000a900473ffffffffffffffffffffffffffffffffffffffff1673ffffffffffffffffffffffffffffffffffffffff163373ffffffffffffffffffffffffffffffffffffffff16145b80612a79575060046008601081101515612a2857fe5b0160009054906101000a900473ffffffffffffffffffffffffffffffffffffffff1673ffffffffffffffffffffffffffffffffffffffff163373ffffffffffffffffffffffffffffffffffffffff16145b80612ae0575060046009601081101515612a8f57fe5b0160009054906101000a900473ffffffffffffffffffffffffffffffffffffffff1673ffffffffffffffffffffffffffffffffffffffff163373ffffffffffffffffffffffffffffffffffffffff16145b80612b4757506004600a601081101515612af657fe5b0160009054906101000a900473ffffffffffffffffffffffffffffffffffffffff1673ffffffffffffffffffffffffffffffffffffffff163373ffffffffffffffffffffffffffffffffffffffff16145b80612bae57506004600b601081101515612b5d57fe5b0160009054906101000a900473ffffffffffffffffffffffffffffffffffffffff1673ffffffffffffffffffffffffffffffffffffffff163373ffffffffffffffffffffffffffffffffffffffff16145b80612c1557506004600c601081101515612bc457fe5b0160009054906101000a900473ffffffffffffffffffffffffffffffffffffffff1673ffffffffffffffffffffffffffffffffffffffff163373ffffffffffffffffffffffffffffffffffffffff16145b80612c7c57506004600d601081101515612c2b57fe5b0160009054906101000a900473ffffffffffffffffffffffffffffffffffffffff1673ffffffffffffffffffffffffffffffffffffffff163373ffffffffffffffffffffffffffffffffffffffff16145b80612ce357506004600e601081101515612c9257fe5b0160009054906101000a900473ffffffffffffffffffffffffffffffffffffffff1673ffffffffffffffffffffffffffffffffffffffff163373ffffffffffffffffffffffffffffffffffffffff16145b80612d4a57506004600f601081101515612cf957fe5b0160009054906101000a900473ffffffffffffffffffffffffffffffffffffffff1673ffffffffffffffffffffffffffffffffffffffff163373ffffffffffffffffffffffffffffffffffffffff16145b1515612d5557600080fd5b607860216000601554815260200190815260200160002060040154014210151515612d7f57600080fd5b600560216000601554815260200190815260200160002060010154014310151515612da957600080fd5b60006001028a14158015612dc1575060006001028914155b1515612dcc57600080fd5b896021600060016015540381526020019081526020016000206002015414158015612e125750886021600060016015540381526020019081526020016000206003015414155b1515612e1d57600080fd5b600060216000601554815260200190815260200160002060010154148015612e605750600060010260216000601554815260200190815260200160002060020154145b8015612e875750600060010260216000601554815260200190815260200160002060030154145b8015612eab5750600060216000601554815260200190815260200160002060040154145b1515612eb657600080fd5b60008410158015612ec75750606484105b1515612ed257600080fd5b6000601754148015612ee957506014886018540110155b156130a0576101c0604051908101604052803373ffffffffffffffffffffffffffffffffffffffff1681526020014381526020018b81526020018a815260200142815260200189815260200188815260200187815260200160236000601754815260200190815260200160002054815260200160006001028152602001600060010281526020016000815260200160006001028152602001600060010281525060216000601554815260200190815260200160002060008201518160000160006101000a81548173ffffffffffffffffffffffffffffffffffffffff021916908373ffffffffffffffffffffffffffffffffffffffff1602179055506020820151816001015560408201518160020155606082015181600301556080820151816004015560a0820151816005015560c0820151816006015560e082015181600701556101008201518160080155610120820151816009015561014082015181600a015561016082015181600b015561018082015181600c01556101a082015181600d015590505042601e819055506001601f60006101000a81548160ff02191690831515021790555061309b8a614b7b565b613b0b565b6000601754141580156130bf5750601f60009054906101000a900460ff165b80156130d457506130d38760195401610ffa565b5b1561331d576000602260006017548152602001908152602001600020541415156130fd57600080fd5b6000600102851415151561311057600080fd5b60008a600143034060405160200180838152602001828152602001925050506040516020818303038152906040528051906020012090506101c0604051908101604052803373ffffffffffffffffffffffffffffffffffffffff1681526020014381526020018c81526020018b81526020014281526020018a815260200189815260200188815260200160236000601754815260200190815260200160002054815260200182815260200187815260200186815260200160006001028152602001600060010281525060216000601554815260200190815260200160002060008201518160000160006101000a81548173ffffffffffffffffffffffffffffffffffffffff021916908373ffffffffffffffffffffffffffffffffffffffff1602179055506020820151816001015560408201518160020155606082015181600301556080820151816004015560a0820151816005015560c0820151816006015560e082015181600701556101008201518160080155610120820151816009015561014082015181600a015561016082015181600b015561018082015181600c01556101a082015181600d015590505042601d819055506132d2601b54614cb3565b601b81905550601554602260006017548152602001908152602001600020819055506000601a819055506000601f60006101000a81548160ff02191690831515021790555050613b0a565b60006017541415801561333c5750601f60009054906101000a900460ff165b801561334d5750602054601e544203115b1561353b576101c0604051908101604052803373ffffffffffffffffffffffffffffffffffffffff1681526020014381526020018b81526020018a815260200142815260200189815260200188815260200187815260200160236000601754815260200190815260200160002054815260200160006001028152602001600060010281526020016000815260200160006001028152602001600060010281525060216000601554815260200190815260200160002060008201518160000160006101000a81548173ffffffffffffffffffffffffffffffffffffffff021916908373ffffffffffffffffffffffffffffffffffffffff1602179055506020820151816001015560408201518160020155606082015181600301556080820151816004015560a0820151816005015560c0820151816006015560e082015181600701556101008201518160080155610120820151816009015561014082015181600a015561016082015181600b015561018082015181600c01556101a082015181600d015590505060014203601d8190555042601e819055506134f0601b54614cd4565b601b81905550601554602260006017548152602001908152602001600020819055506001601f60006101000a81548160ff0219169083151502179055506135368a614b7b565b613b09565b600060175414158015613561575060001515601f60009054906101000a900460ff161515145b8015613576575061357586601a5401611d28565b5b156137595760006001028314158015613593575060006001028214155b151561359e57600080fd5b6101c0604051908101604052803373ffffffffffffffffffffffffffffffffffffffff1681526020014381526020018b81526020018a81526020014281526020018981526020018881526020018781526020016023600060175481526020019081526020016000205481526020016000600102815260200160006001028152602001600081526020018481526020018381525060216000601554815260200190815260200160002060008201518160000160006101000a81548173ffffffffffffffffffffffffffffffffffffffff021916908373ffffffffffffffffffffffffffffffffffffffff1602179055506020820151816001015560408201518160020155606082015181600301556080820151816004015560a0820151816005015560c0820151816006015560e082015181600701556101008201518160080155610120820151816009015561014082015181600a015561016082015181600b015561018082015181600c01556101a082015181600d015590505042601e8190555061372a601c54614cb3565b601c819055506001601f60006101000a81548160ff0219169083151502179055506137548a614b7b565b613b08565b60006017541415801561377f575060001515601f60009054906101000a900460ff161515145b80156137905750602054601d544203115b15613954576101c0604051908101604052803373ffffffffffffffffffffffffffffffffffffffff1681526020014381526020018b81526020018a8152602001428152602001898152602001888152602001878152602001602360006017548152602001908152602001600020548152602001600060010281526020016000600102815260200160008152602001848152602001600060010281525060216000601554815260200190815260200160002060008201518160000160006101000a81548173ffffffffffffffffffffffffffffffffffffffff021916908373ffffffffffffffffffffffffffffffffffffffff1602179055506020820151816001015560408201518160020155606082015181600301556080820151816004015560a0820151816005015560c0820151816006015560e082015181600701556101008201518160080155610120820151816009015561014082015181600a015561016082015181600b015561018082015181600c01556101a082015181600d015590505061391e601c54614cd4565b601c8190555042601e819055506001601f60006101000a81548160ff02191690831515021790555061394f8a614b7b565b613b07565b8660196000828254019250508190555085601a60008282540192505081905550876018600082825401925050819055506101c0604051908101604052803373ffffffffffffffffffffffffffffffffffffffff1681526020014381526020018b81526020018a815260200142815260200189815260200188815260200187815260200160236000601754815260200190815260200160002054815260200160006001028152602001600060010281526020016000815260200160006001028152602001600060010281525060216000601554815260200190815260200160002060008201518160000160006101000a81548173ffffffffffffffffffffffffffffffffffffffff021916908373ffffffffffffffffffffffffffffffffffffffff1602179055506020820151816001015560408201518160020155606082015181600301556080820151816004015560a0820151816005015560c0820151816006015560e082015181600701556101008201518160080155610120820151816009015561014082015181600a015561016082015181600b015561018082015181600c01556101a082015181600d01559050505b5b5b5b5b6001601560008282540192505081905550600190509998505050505050505050565b60008073ffffffffffffffffffffffffffffffffffffffff163373ffffffffffffffffffffffffffffffffffffffff1614151515613b6a57600080fd5b600080600481101515613b7957fe5b0160009054906101000a900473ffffffffffffffffffffffffffffffffffffffff1673ffffffffffffffffffffffffffffffffffffffff163373ffffffffffffffffffffffffffffffffffffffff161480613c30575060006001600481101515613bdf57fe5b0160009054906101000a900473ffffffffffffffffffffffffffffffffffffffff1673ffffffffffffffffffffffffffffffffffffffff163373ffffffffffffffffffffffffffffffffffffffff16145b80613c97575060006002600481101515613c4657fe5b0160009054906101000a900473ffffffffffffffffffffffffffffffffffffffff1673ffffffffffffffffffffffffffffffffffffffff163373ffffffffffffffffffffffffffffffffffffffff16145b80613cfe575060006003600481101515613cad57fe5b0160009054906101000a900473ffffffffffffffffffffffffffffffffffffffff1673ffffffffffffffffffffffffffffffffffffffff163373ffffffffffffffffffffffffffffffffffffffff16145b1515613d0957600080fd5b600073ffffffffffffffffffffffffffffffffffffffff168373ffffffffffffffffffffffffffffffffffffffff1614151515613d4557600080fd5b60008210158015613d565750601082105b1515613d6157600080fd5b82600483601081101515613d7157fe5b0160006101000a81548173ffffffffffffffffffffffffffffffffffffffff021916908373ffffffffffffffffffffffffffffffffffffffff1602179055506001905092915050565b600060208551101515613dcc57600080fd5b83518551141515613ddc57600080fd5b600083905060008090505b8651811015613ece5760008782815181101515613e0057fe5b9060200190602002015190508682815181101515613e1a57fe5b9060200190602002015115613e5f5780836040516020018083815260200182815260200192505050604051602081830303815290604052805190602001209250613ec0565b8682815181101515613e6d57fe5b906020019060200201511515613eb35782816040516020018083815260200182815260200192505050604051602081830303815290604052805190602001209250613ebf565b60009350505050613ed6565b5b508080600101915050613de7565b508281149150505b949350505050565b600073ffffffffffffffffffffffffffffffffffffffff163373ffffffffffffffffffffffffffffffffffffffff1614151515613f1a57600080fd5b60046000601081101515613f2a57fe5b0160009054906101000a900473ffffffffffffffffffffffffffffffffffffffff1673ffffffffffffffffffffffffffffffffffffffff163373ffffffffffffffffffffffffffffffffffffffff161480613fe1575060046001601081101515613f9057fe5b0160009054906101000a900473ffffffffffffffffffffffffffffffffffffffff1673ffffffffffffffffffffffffffffffffffffffff163373ffffffffffffffffffffffffffffffffffffffff16145b80614048575060046002601081101515613ff757fe5b0160009054906101000a900473ffffffffffffffffffffffffffffffffffffffff1673ffffffffffffffffffffffffffffffffffffffff163373ffffffffffffffffffffffffffffffffffffffff16145b806140af57506004600360108110151561405e57fe5b0160009054906101000a900473ffffffffffffffffffffffffffffffffffffffff1673ffffffffffffffffffffffffffffffffffffffff163373ffffffffffffffffffffffffffffffffffffffff16145b8061411557506004806010811015156140c457fe5b0160009054906101000a900473ffffffffffffffffffffffffffffffffffffffff1673ffffffffffffffffffffffffffffffffffffffff163373ffffffffffffffffffffffffffffffffffffffff16145b8061417c57506004600560108110151561412b57fe5b0160009054906101000a900473ffffffffffffffffffffffffffffffffffffffff1673ffffffffffffffffffffffffffffffffffffffff163373ffffffffffffffffffffffffffffffffffffffff16145b806141e357506004600660108110151561419257fe5b0160009054906101000a900473ffffffffffffffffffffffffffffffffffffffff1673ffffffffffffffffffffffffffffffffffffffff163373ffffffffffffffffffffffffffffffffffffffff16145b8061424a5750600460076010811015156141f957fe5b0160009054906101000a900473ffffffffffffffffffffffffffffffffffffffff1673ffffffffffffffffffffffffffffffffffffffff163373ffffffffffffffffffffffffffffffffffffffff16145b806142b157506004600860108110151561426057fe5b0160009054906101000a900473ffffffffffffffffffffffffffffffffffffffff1673ffffffffffffffffffffffffffffffffffffffff163373ffffffffffffffffffffffffffffffffffffffff16145b806143185750600460096010811015156142c757fe5b0160009054906101000a900473ffffffffffffffffffffffffffffffffffffffff1673ffffffffffffffffffffffffffffffffffffffff163373ffffffffffffffffffffffffffffffffffffffff16145b8061437f57506004600a60108110151561432e57fe5b0160009054906101000a900473ffffffffffffffffffffffffffffffffffffffff1673ffffffffffffffffffffffffffffffffffffffff163373ffffffffffffffffffffffffffffffffffffffff16145b806143e657506004600b60108110151561439557fe5b0160009054906101000a900473ffffffffffffffffffffffffffffffffffffffff1673ffffffffffffffffffffffffffffffffffffffff163373ffffffffffffffffffffffffffffffffffffffff16145b8061444d57506004600c6010811015156143fc57fe5b0160009054906101000a900473ffffffffffffffffffffffffffffffffffffffff1673ffffffffffffffffffffffffffffffffffffffff163373ffffffffffffffffffffffffffffffffffffffff16145b806144b457506004600d60108110151561446357fe5b0160009054906101000a900473ffffffffffffffffffffffffffffffffffffffff1673ffffffffffffffffffffffffffffffffffffffff163373ffffffffffffffffffffffffffffffffffffffff16145b8061451b57506004600e6010811015156144ca57fe5b0160009054906101000a900473ffffffffffffffffffffffffffffffffffffffff1673ffffffffffffffffffffffffffffffffffffffff163373ffffffffffffffffffffffffffffffffffffffff16145b8061458257506004600f60108110151561453157fe5b0160009054906101000a900473ffffffffffffffffffffffffffffffffffffffff1673ffffffffffffffffffffffffffffffffffffffff163373ffffffffffffffffffffffffffffffffffffffff16145b151561458d57600080fd5b6005821015801561459f5750605f8211155b15156145aa57600080fd5b600581101580156145bc5750605f8111155b15156145c757600080fd5b81601b8190555080601c819055505050565b60175481565b60008060006021600085815260200190815260200160002060010154602160008681526020019081526020016000206002015460216000878152602001908152602001600020600301549250925092509193909250565b601460009054906101000a900473ffffffffffffffffffffffffffffffffffffffff1681565b614664614d08565b60006004806020026040519081016040528092919082600480156146d3576020028201915b8160009054906101000a900473ffffffffffffffffffffffffffffffffffffffff1673ffffffffffffffffffffffffffffffffffffffff1681526020019060010190808311614689575b5050505050905090565b60008073ffffffffffffffffffffffffffffffffffffffff163373ffffffffffffffffffffffffffffffffffffffff161415151561471a57600080fd5b60008060048110151561472957fe5b0160009054906101000a900473ffffffffffffffffffffffffffffffffffffffff1673ffffffffffffffffffffffffffffffffffffffff163373ffffffffffffffffffffffffffffffffffffffff1614806147e057506000600160048110151561478f57fe5b0160009054906101000a900473ffffffffffffffffffffffffffffffffffffffff1673ffffffffffffffffffffffffffffffffffffffff163373ffffffffffffffffffffffffffffffffffffffff16145b806148475750600060026004811015156147f657fe5b0160009054906101000a900473ffffffffffffffffffffffffffffffffffffffff1673ffffffffffffffffffffffffffffffffffffffff163373ffffffffffffffffffffffffffffffffffffffff16145b806148ae57506000600360048110151561485d57fe5b0160009054906101000a900473ffffffffffffffffffffffffffffffffffffffff1673ffffffffffffffffffffffffffffffffffffffff163373ffffffffffffffffffffffffffffffffffffffff16145b15156148b957600080fd5b81600060036004811015156148ca57fe5b0160006101000a81548173ffffffffffffffffffffffffffffffffffffffff021916908373ffffffffffffffffffffffffffffffffffffffff16021790555060019050919050565b6000808260ff161015801561492b5750603f8260ff1611155b151561493657600080fd5b600160028360ff1681151561494757fe5b0660ff1614156149ef5760108360028460ff1681151561496357fe5b0460ff1660208110151561497357fe5b1a7f0100000000000000000000000000000000000000000000000000000000000000027f0100000000000000000000000000000000000000000000000000000000000000900460ff168115156149c557fe5b067f0100000000000000000000000000000000000000000000000000000000000000029050614a89565b60108360028460ff16811515614a0157fe5b0460ff16602081101515614a1157fe5b1a7f0100000000000000000000000000000000000000000000000000000000000000027f0100000000000000000000000000000000000000000000000000000000000000900460ff16811515614a6357fe5b047f01000000000000000000000000000000000000000000000000000000000000000290505b92915050565b60195481565b60008082141515614abb5760236000838152602001908152602001600020549050614ad4565b6023600060175481526020019081526020016000205490505b919050565b60216020528060005260406000206000915090508060000160009054906101000a900473ffffffffffffffffffffffffffffffffffffffff169080600101549080600201549080600301549080600401549080600501549080600601549080600701549080600801549080600901549080600a01549080600b01549080600c01549080600d015490508e565b60155481565b6000601554905090565b601e5481565b60006019819055506000601a819055506000601881905550601460009054906101000a900473ffffffffffffffffffffffffffffffffffffffff1673ffffffffffffffffffffffffffffffffffffffff1663c5bc38616040518163ffffffff167c0100000000000000000000000000000000000000000000000000000000028152600401602060405180830381600087803b158015614c1957600080fd5b505af1158015614c2d573d6000803e3d6000fd5b505050506040513d6020811015614c4357600080fd5b8101908080519060200190929190505050506001601760008282540192505081905550806017546040516020018083815260200182815260200192505050604051602081830303815290604052805190602001206023600060175481526020019081526020016000208190555050565b6000605a82111515614cca57600582019050614ccf565b605f90505b919050565b6000606482101515614ce957605f9050614d03565b600a82101515614cfe57600582039050614d03565b600590505b919050565b60806040519081016040528060049060208202803883398082019150509050509056fea165627a7a7230582089489599bd4c62f26431a9f9c15cea21fe711de0a55e69936f1060a41ca6ac010029",
  "source": "pragma solidity ^0.5.2;\nimport \"./lib/safe-math.sol\";\nimport \"./Interfaces/MemberShipInterface.sol\";\n\n// TODO: use safemath\n\ncontract BlockRegistry{\n    using SafeMath for uint256;\n\n    // Variables\n    address[4] public managers;  // use \"coreManagers\" and \"managers\" as in \"MemberShip.sol\"?\n    address[16] public validators;\n    address public memberContractAddr;\n    uint public nowSblockNo;  // start from 1\n    uint public sblockTimeStep = 30 minutes;  // it's a minimum timestep\n    // bool public opRoundStatus = true;  // need `true` for 1st round; or simply use \"pause/unpause\"?\n    uint public opRound;\n    uint public articleCount;\n    // variables with `v1` or `vote1`: lottery; with `v2` or `vote2`: claim\n    uint public roundVote1Count;\n    uint public roundVote2Count;\n    uint public vote1Threshold = 40;  // between 5 and 95, step 5\n    uint public vote2Threshold = 40;  // between 5 and 95, step 5\n    uint public v1EndTime;\n    uint public v2EndTime;\n    bool public atV1;\n\n    uint public maxVoteTime = 120 minutes;  // an Opround cannot longer than 2*maxVoteTime; use smaller values for debug\n\n    struct blockStat{\n        address validator;\n        uint blockHeight;  // block.number while submission\n        bytes32 merkleRoot;  // IPFs hash string to bytes32: \n        bytes32 ipfsAddr;  // string to hex (in js): ethUtils.bufferToHex(bs58.decode(ipfsHash).slice(2));\n        uint timestamp;\n        uint uniqArticleCount;\n        uint vote1Count;\n        uint vote2Count;\n        bytes32 opRoundId;\n        // the following could have no values other than default\n        bytes32 lotteryWinNumber;\n        bytes32 lotteryIpfs;\n        uint minSuccessRate;  // shoud be an integer between 0 and 100\n        bytes32 succesRateDB;  // IPFS contain success rate\n        bytes32 finanListIpfs;\n    }\n    mapping (uint => blockStat) public blockHistory;  // sblockNo to blockStat\n    mapping (uint => uint) public lotterySblockNo;  // give `opRound`, return the corresponding `sblock_no` while lottery happened\n    mapping (uint => bytes32) public opRoundLog;  // opRound index to opRound id\n\n    constructor(address _memberContractAddr) public {\n        memberContractAddr = _memberContractAddr;\n        managers = [ 0xB440ea2780614b3c6a00e512f432785E7dfAFA3E,\n                     0x4AD56641C569C91C64C28a904cda50AE5326Da41,\n                     0xaF7400787c54422Be8B44154B1273661f1259CcD,\n                     address(0)];\n        validators = [ 0xB440ea2780614b3c6a00e512f432785E7dfAFA3E,\n                       0x4AD56641C569C91C64C28a904cda50AE5326Da41,\n                       0xaF7400787c54422Be8B44154B1273661f1259CcD,\n                       address(0), address(0), address(0), address(0), address(0),\n                       address(0), address(0), address(0), address(0), address(0),\n                       address(0), address(0), address(0)];\n        // prevTimeStamp = block.timestamp - sblockTimeStep;\n        blockHistory[0] = blockStat(msg.sender, block.number, 0x0, 0x0, block.timestamp,\n                                    0, 0, 0, 0x0,\n                                    0x0, 0x0, 0, 0x0, 0x0);\n        nowSblockNo = 1;\n    }\n\n    // Modifiers\n    modifier managerOnly() {\n        require(msg.sender != address(0));\n        require(msg.sender == managers[0] || msg.sender == managers[1] || msg.sender == managers[2] || msg.sender == managers[3]);\n        _;\n    }\n\n    modifier validatorOnly() {\n        require(msg.sender != address(0));\n        require(msg.sender == validators[0] || msg.sender == validators[1] || msg.sender == validators[2] ||\n                msg.sender == validators[3] || msg.sender == validators[4] || msg.sender == validators[5] ||\n                msg.sender == validators[6] || msg.sender == validators[7] || msg.sender == validators[8] ||\n                msg.sender == validators[9] || msg.sender == validators[10] || msg.sender == validators[11] ||\n                msg.sender == validators[12] || msg.sender == validators[13] || msg.sender == validators[14] ||\n                msg.sender == validators[15]);\n        _;\n    }\n\n    // some adjustable functions only for developing phase\n    // function toggleGame() public validatorOnly returns(uint) {\n    //     opRoundStatus = !opRoundStatus;\n    //     return opRound;\n    // }\n\n    function updateMaxVoteTime(uint _seconds) public validatorOnly {\n        require(_seconds > 180 && _seconds < 86400);  // restrict to a range\n        maxVoteTime = _seconds;\n    }\n\n    function setThreshold(uint _x, uint _y) public validatorOnly{\n        require(_x >= 5 && _x <=95);\n        require(_y >= 5 && _y <=95);\n        vote1Threshold = _x;\n        vote2Threshold = _y;\n    }\n\n    // some internal functions\n    function _increaseThreshold(uint _x) internal pure returns(uint) {\n        if (_x <= 90) {\n            return _x + 5;\n        } else {\n            return 95;\n        }\n    }\n\n    function _decreaseThreshold(uint _x) internal pure returns(uint) {\n        if (_x >= 100) {\n            return 95;\n        } else if (_x >= 10) {\n            return _x - 5;\n        } else {\n            return 5;\n        }\n    }\n\n    function _toNextOpRound(bytes32 _seed) internal {\n        roundVote1Count = 0;\n        roundVote2Count = 0;\n        articleCount = 0;\n        MemberShipInterface(memberContractAddr).updateActiveMembers();\n        opRound += 1;\n        opRoundLog[opRound] = bytes32(keccak256(abi.encodePacked(_seed, opRound)));\n    }\n\n    // create a new sblock\n    function submitMerkleRoot(\n        bytes32 _merkleRoot,\n        bytes32 _ipfsAddr,\n        uint _uniqArticleCount,\n        uint _vote1Count,\n        uint _vote2Count,\n        bytes32 _lotteryIpfs,\n        uint _minSuccessRate,\n        bytes32 _successRateDB,\n        bytes32 _finalListIpfs\n    ) public validatorOnly returns (bool) {\n        // Note: a `opRound` contains two parts: `(v1)vote` and `(v2)claim`,\n        //       (v2) may not happen if (v1) takes more than maxVoteTime.\n        // comment some \"require\"s for test purpose\n        // require(block.timestamp >= blockHistory[nowSblockNo] + sblockTimeStep, 'too soon');\n        require(block.timestamp >= blockHistory[nowSblockNo].timestamp + 2 minutes);  // 2 min is for test purpose, should be 1 hour(?)\n        require(block.number >= blockHistory[nowSblockNo].blockHeight + 5);  // 5 is for test purpose, should be ?\n        require(_merkleRoot != 0x0 && _ipfsAddr != 0x0);\n        require(blockHistory[nowSblockNo-1].merkleRoot != _merkleRoot && blockHistory[nowSblockNo-1].ipfsAddr != _ipfsAddr);  // prevent re-submission\n        require(blockHistory[nowSblockNo].blockHeight == 0 && blockHistory[nowSblockNo].merkleRoot == 0x0 &&\n                blockHistory[nowSblockNo].ipfsAddr == 0x0 && blockHistory[nowSblockNo].timestamp == 0);\n        require(_minSuccessRate >= 0 && _minSuccessRate < 100);\n        // require: ...\n\n        // a sblock in a opRound cound be of type: genesis, lottery, lottery-NDR, finalist, finalist-NDR, or regular\n        // (NDR = no-draw-round)\n        if (opRound == 0 && articleCount + _uniqArticleCount >= 20) {  // genesis; set 20 for test purpose\n            blockHistory[nowSblockNo] = blockStat(\n                msg.sender, block.number, _merkleRoot, _ipfsAddr, block.timestamp,\n                _uniqArticleCount, _vote1Count, _vote2Count, opRoundLog[opRound],\n                0x0, 0x0, 0, 0x0, 0x0\n            );\n            v2EndTime = block.timestamp;  // although no 'claiming', still record a time\n            atV1 = true;\n            _toNextOpRound(_merkleRoot);\n        } else if (opRound != 0 && atV1 && isEnoughV1(roundVote1Count+_vote1Count)) {  // lottery\n            require(lotterySblockNo[opRound] == 0);\n            require(_lotteryIpfs != 0x0);\n            // check: this winNumber equal to result of calcWinNumber()\n            bytes32 winNumber = keccak256(abi.encodePacked(_merkleRoot, blockhash(block.number-1)));\n            blockHistory[nowSblockNo] = blockStat(\n                msg.sender, block.number, _merkleRoot, _ipfsAddr, block.timestamp,\n                _uniqArticleCount, _vote1Count, _vote2Count, opRoundLog[opRound],\n                winNumber, _lotteryIpfs, _minSuccessRate, 0x0, 0x0\n            );\n            v1EndTime = block.timestamp;\n            vote1Threshold = _increaseThreshold(vote1Threshold);\n            lotterySblockNo[opRound] = nowSblockNo;\n            // roundVote1Count = 0;  // need to reset otherwise next call will fall into this if-statement again\n            roundVote2Count = 0;  // should be 0 already but reset anyway\n            atV1 = false;\n        } else if (opRound != 0 && atV1 && (block.timestamp - v2EndTime > maxVoteTime)) {  // too long! This OpRound-v1 is a \"no-draw-round\"! Proceed to next OpRound\n            blockHistory[nowSblockNo] = blockStat(\n                msg.sender, block.number, _merkleRoot, _ipfsAddr, block.timestamp,\n                _uniqArticleCount, _vote1Count, _vote2Count, opRoundLog[opRound],\n                0x0, 0x0, 0, 0x0, 0x0\n            );\n            v1EndTime = block.timestamp-1;  // or don't update? BTW, subtract by 1 to make sure v2EndTime > v1Endtime (or no need?)\n            v2EndTime = block.timestamp;  // in case next submit() fall into this if-statement again\n            vote1Threshold = _decreaseThreshold(vote1Threshold);\n            lotterySblockNo[opRound] = nowSblockNo;  // or don't record a on-draw-round?\n            atV1 = true;  // end this OpRound-v1, proceed to next OpRound-v1\n            _toNextOpRound(_merkleRoot);\n        } else if (opRound != 0 && atV1 == false && isEnoughV2(roundVote2Count+_vote2Count)) { // finalist\n            require(_successRateDB != 0x0 && _finalListIpfs != 0x0);\n            blockHistory[nowSblockNo] = blockStat(\n                msg.sender, block.number, _merkleRoot, _ipfsAddr, block.timestamp,\n                _uniqArticleCount, _vote1Count, _vote2Count, opRoundLog[opRound],\n                0x0, 0x0, 0, _successRateDB, _finalListIpfs\n            );\n            v2EndTime = block.timestamp;\n            vote2Threshold = _increaseThreshold(vote2Threshold);\n            atV1 = true;\n            _toNextOpRound(_merkleRoot);\n        } else if (opRound != 0 && atV1 == false && (block.timestamp - v1EndTime > maxVoteTime)) {  // too long! End this Opround-v2 and proceed to next OpRound\n            blockHistory[nowSblockNo] = blockStat(\n                msg.sender, block.number, _merkleRoot, _ipfsAddr, block.timestamp,\n                _uniqArticleCount, _vote1Count, _vote2Count, opRoundLog[opRound],\n                0x0, 0x0, 0, _successRateDB, 0x0\n            );  // should validator update new _successRateDB here?\n            vote2Threshold = _decreaseThreshold(vote2Threshold);\n            v2EndTime = block.timestamp;\n            atV1 = true;\n            _toNextOpRound(_merkleRoot);\n        } else {  // regular sblock, only accumulate votes\n            roundVote1Count += _vote1Count;\n            roundVote2Count += _vote2Count;\n            articleCount += _uniqArticleCount;  // right now, this is only used in genesis\n            blockHistory[nowSblockNo] = blockStat(\n                msg.sender, block.number, _merkleRoot, _ipfsAddr, block.timestamp,\n                _uniqArticleCount, _vote1Count, _vote2Count, opRoundLog[opRound],\n                0x0, 0x0, 0, 0x0, 0x0\n            );\n        }\n\n        nowSblockNo += 1;\n\n        return true;\n    }\n\n    function isEnoughV1(uint v1Count) public view returns (bool) {\n        uint activeMemberCount = MemberShipInterface(memberContractAddr).getActiveMemberCount();\n        require(activeMemberCount >= 3);  // '3' is num of coreManagers, or use 1? 100?\n        uint vote1Rate = (100 * v1Count) / activeMemberCount;\n        assert(vote1Rate <= 100);\n        if (vote1Rate > vote1Threshold) {\n            return true;\n        }\n    }\n\n    function isEnoughV2(uint v2Count) public view returns (bool) {\n        uint activeMemberCount = MemberShipInterface(memberContractAddr).getActiveMemberCount();\n        require(activeMemberCount >= 3);  // '3' is num of coreManagers, or use 1? 100?\n        // vote2Rate select ABOUT 25% of people from 50% of member, i.e., ~1/8 of total members\n        // Here try to keep vote2Rate roughly in the range of 0 and 100, so multiply 8 back.\n        // Note that the '1/8' factor is uncertain, so 'vote2Rate' could be larger than 100\n        uint vote2Rate = (8 * 100 * v2Count) / activeMemberCount;\n        if (vote2Rate > vote2Threshold) {\n            return true;\n        }\n    }\n\n    // Lottery related\n    function calcWinNumber(uint _sblockNo, bytes32 _bhash) public view returns(bytes32) {\n        require(_sblockNo > 0 && _sblockNo < nowSblockNo);\n        require(blockHistory[_sblockNo].merkleRoot != 0x0);\n        require(block.number > blockHistory[_sblockNo].blockHeight);  // if equal, then there's no blockhash(_sblockNo)\n        // require: ...\n        // *merkle root of K+y*, as well as *defense of block K+y* and latest *Eth block hash at the time of block K+y committed*\n        if (_bhash == 0x0) {\n            require(block.number - blockHistory[_sblockNo].blockHeight < 256);  // if >256, then the blockhash is not on chain\n            _bhash = blockhash(blockHistory[_sblockNo].blockHeight);\n        }\n        return keccak256(abi.encodePacked(blockHistory[_sblockNo].merkleRoot, _bhash));\n    }\n\n    function _getBytes32HexNthDigit(bytes32 _ticket, uint8 _digit) public pure returns(bytes1){\n        require(_digit >=0 && _digit <=63);  // treat bytes32 as 64 hex characters\n        if (_digit % 2 == 1) {\n            return bytes1(uint8(_ticket[_digit/2])%16);  // _digit/2 = Math.floor(digit/2)\n        } else {\n            return bytes1(uint8(_ticket[_digit/2])/16);\n        }\n    }\n\n    function isWinningTicket(uint _sblockNo, bytes32 _ticket) public view returns(bool) {  // TODO: change _sblockNo to opRound?\n        // a ticket is a winning ticket if: it's X-th digit (count from behind) is Y\n        // where `X` is determined by first digit of `lotteryWinNumber` (in the range of 0 and 3)\n        // and `Y` is the last digit of `winHex`\n        // the rule of determining `X` and `Y` should sync with 'libSampleTicket.js' in 'OptractP2PCli'\n        // require(blockHistory[_sblockNo].lotteryWinNumber != 0x0 && blockHistory[_sblockNo+1].lotteryWinNumber != 0);\n        require(blockHistory[_sblockNo].lotteryWinNumber != 0x0);\n        bytes32 winHex = blockHistory[_sblockNo].lotteryWinNumber;\n        uint8 refDigit = uint8(_getBytes32HexNthDigit(winHex, 0)) % 4;\n        bytes1 winHexChar1 = _getBytes32HexNthDigit(winHex, 63);  // last digit\n        bytes1 winHexChar2 = bytes1((uint8(winHexChar1) + 1) % 16);\n        bytes1 winHexChar3 = bytes1((uint8(winHexChar2) + 1) % 16);\n        bytes1 winHexChar4 = bytes1((uint8(winHexChar3) + 1) % 16);\n        bytes1 ticketChar = _getBytes32HexNthDigit(_ticket, 63 - refDigit);\n        if (ticketChar == winHexChar1 || ticketChar == winHexChar2 || ticketChar == winHexChar3 || ticketChar == winHexChar4) {\n            return true;\n        }\n    }\n\n    // claim reward\n    function txExist(bytes32[] memory proof, bool[] memory isLeft, bytes32 txHash, uint _sblockNo) public view returns (bool){\n        require(_sblockNo < nowSblockNo);\n        require(blockHistory[_sblockNo].merkleRoot != 0x0);\n        return merkleTreeValidator(proof, isLeft, txHash, blockHistory[_sblockNo].merkleRoot);\n    }\n\n    function claimReward(\n        bytes32[] calldata proof1, bool[] calldata isLeft1, bytes32 txHash1, uint sblockNo1,\n        bytes32[] calldata proof2, bool[] calldata isLeft2, bytes32 txHash2, uint sblockNo2\n    ) external view returns(bool) {\n        // need to proof both articles are in the tree and both submitted by the msg.sender (using calcLeaf() below)\n        require(sblockNo1 > nowSblockNo && sblockNo1 < nowSblockNo + 12);\n        // require txHash1 = generateTxHash(msg.sender, ...)\n        require(txExist(proof1, isLeft1, txHash1, sblockNo1) && txExist(proof2, isLeft2, txHash2, sblockNo2));\n    }\n\n    // merkle tree and leaves\n    function merkleTreeValidator(\n        bytes32[] memory proof,\n        bool[] memory isLeft,\n        bytes32 targetLeaf,\n        bytes32 _merkleRoot\n    ) public pure returns (bool) {\n        require(proof.length < 32);  // 2**32 ~ 4.3e9 leaves!\n        require(proof.length == isLeft.length);\n\n        bytes32 targetHash = targetLeaf;\n        for (uint256 i = 0; i < proof.length; i++) {\n            bytes32 proofEle = proof[i];\n            if (isLeft[i]) {\n                targetHash = keccak256(abi.encodePacked(proofEle, targetHash));\n            } else if (!isLeft[i]) {\n                targetHash = keccak256(abi.encodePacked(targetHash, proofEle));\n            } else {\n                return false;\n            }\n        }\n        return targetHash == _merkleRoot;\n    }\n\n    // TODO: update these calcLeaf()\n    // function calcLeaf(\n    //     uint _nonce,\n    //     bytes32 _ipfs,\n    //     uint _since,\n    //     uint _agree,\n    //     uint _disagree,\n    //     bytes32 _reply,\n    //     bytes32 _comment\n    // ) external view returns (bytes32) {\n    //     // note: the \"category\" field is not here yet\n    //     return keccak256(abi.encodePacked(_nonce, msg.sender, _ipfs, _since, _agree, _disagree, _reply, _comment));\n    // }\n\n\n    // query\n    function getBlockNo() external view returns (uint) {\n        return nowSblockNo;\n    }\n\n    function getBlockInfo(uint _sblockNo) external view returns (uint, bytes32, bytes32) {\n        // TODO: update the results\n        return (blockHistory[_sblockNo].blockHeight, blockHistory[_sblockNo].merkleRoot, blockHistory[_sblockNo].ipfsAddr);\n    }\n\n    function queryValidator(uint _idx) external view returns (address) {\n        require(_idx>=0 && _idx < 16);\n        return validators[_idx];\n    }\n\n    function isValidator() external view returns (bool) {\n        if (msg.sender == address(0)) {\n            return false;\n        } else {\n            return (msg.sender == validators[0] || msg.sender == validators[1] || msg.sender == validators[2] ||\n                    msg.sender == validators[3] || msg.sender == validators[4] || msg.sender == validators[5] ||\n                    msg.sender == validators[6] || msg.sender == validators[7] || msg.sender == validators[8] ||\n                    msg.sender == validators[9] || msg.sender == validators[10] || msg.sender == validators[11] ||\n                    msg.sender == validators[12] || msg.sender == validators[13] || msg.sender == validators[14] ||\n                    msg.sender == validators[15]);\n        }\n    }\n\n    function queryManagers() external view returns (address[4] memory) {\n        return managers;\n    }\n\n    function queryOpRound() external view returns (uint) {\n        return opRound;\n    }\n\n    function queryOpRoundId(uint _opRound) external view returns (bytes32) {\n        if (_opRound != 0) {\n            return opRoundLog[_opRound];\n        } else {\n            return opRoundLog[opRound];  // current opRound\n        }\n    }\n\n    // upgradable\n    function setValidator(address _newValidator, uint _idx) public managerOnly returns (bool) {\n        require(_newValidator != address(0));\n        require(_idx >=0 && _idx < 16);\n        validators[_idx] = _newValidator;\n        return true;\n    }\n\n    function setManager(address _newManager) public managerOnly returns (bool) {\n        // assume no need to change first 3 managers\n        managers[3] = _newManager;\n        return true;\n    }\n\n}\n",
  "sourcePath": "/home/kai/Work/project/OptractContract/contracts/BlockRegistry.sol",
  "compiler": {
    "name": "solc",
    "version": "0.5.2+commit.1df8f40c.Linux.g++"
  },
  "schemaVersion": "3.0.1",
  "updatedAt": "2019-06-25T01:28:16.791Z",
  "devdoc": {
    "methods": {}
  },
  "userdoc": {
    "methods": {}
  }
}