{
  "contractName": "BlockRegistry",
  "abi": [
    {
      "constant": true,
      "inputs": [],
      "name": "sblockTimeStep",
      "outputs": [
        {
          "name": "",
          "type": "uint256"
        }
      ],
      "payable": false,
      "stateMutability": "view",
      "type": "function"
    },
    {
      "constant": true,
      "inputs": [],
      "name": "QOTAddr",
      "outputs": [
        {
          "name": "",
          "type": "address"
        }
      ],
      "payable": false,
      "stateMutability": "view",
      "type": "function"
    },
    {
      "constant": true,
      "inputs": [],
      "name": "reward",
      "outputs": [
        {
          "name": "",
          "type": "uint256"
        }
      ],
      "payable": false,
      "stateMutability": "view",
      "type": "function"
    },
    {
      "constant": true,
      "inputs": [
        {
          "name": "",
          "type": "uint256"
        }
      ],
      "name": "validators",
      "outputs": [
        {
          "name": "",
          "type": "address"
        }
      ],
      "payable": false,
      "stateMutability": "view",
      "type": "function"
    },
    {
      "constant": true,
      "inputs": [
        {
          "name": "",
          "type": "uint256"
        }
      ],
      "name": "managers",
      "outputs": [
        {
          "name": "",
          "type": "address"
        }
      ],
      "payable": false,
      "stateMutability": "view",
      "type": "function"
    },
    {
      "constant": true,
      "inputs": [],
      "name": "articleCount",
      "outputs": [
        {
          "name": "",
          "type": "uint256"
        }
      ],
      "payable": false,
      "stateMutability": "view",
      "type": "function"
    },
    {
      "constant": true,
      "inputs": [],
      "name": "vote1Threshold",
      "outputs": [
        {
          "name": "",
          "type": "uint256"
        }
      ],
      "payable": false,
      "stateMutability": "view",
      "type": "function"
    },
    {
      "constant": true,
      "inputs": [],
      "name": "numRange",
      "outputs": [
        {
          "name": "",
          "type": "uint8"
        }
      ],
      "payable": false,
      "stateMutability": "view",
      "type": "function"
    },
    {
      "constant": true,
      "inputs": [],
      "name": "roundVote2Count",
      "outputs": [
        {
          "name": "",
          "type": "uint256"
        }
      ],
      "payable": false,
      "stateMutability": "view",
      "type": "function"
    },
    {
      "constant": true,
      "inputs": [],
      "name": "maxVoteTime2",
      "outputs": [
        {
          "name": "",
          "type": "uint256"
        }
      ],
      "payable": false,
      "stateMutability": "view",
      "type": "function"
    },
    {
      "constant": true,
      "inputs": [],
      "name": "vote2Threshold",
      "outputs": [
        {
          "name": "",
          "type": "uint256"
        }
      ],
      "payable": false,
      "stateMutability": "view",
      "type": "function"
    },
    {
      "constant": true,
      "inputs": [],
      "name": "flagContractAddr",
      "outputs": [
        {
          "name": "",
          "type": "address"
        }
      ],
      "payable": false,
      "stateMutability": "view",
      "type": "function"
    },
    {
      "constant": true,
      "inputs": [],
      "name": "atV1",
      "outputs": [
        {
          "name": "",
          "type": "bool"
        }
      ],
      "payable": false,
      "stateMutability": "view",
      "type": "function"
    },
    {
      "constant": true,
      "inputs": [],
      "name": "v1EndTime",
      "outputs": [
        {
          "name": "",
          "type": "uint256"
        }
      ],
      "payable": false,
      "stateMutability": "view",
      "type": "function"
    },
    {
      "constant": true,
      "inputs": [],
      "name": "opRound",
      "outputs": [
        {
          "name": "",
          "type": "uint256"
        }
      ],
      "payable": false,
      "stateMutability": "view",
      "type": "function"
    },
    {
      "constant": true,
      "inputs": [],
      "name": "memberContractAddr",
      "outputs": [
        {
          "name": "",
          "type": "address"
        }
      ],
      "payable": false,
      "stateMutability": "view",
      "type": "function"
    },
    {
      "constant": true,
      "inputs": [],
      "name": "roundVote1Count",
      "outputs": [
        {
          "name": "",
          "type": "uint256"
        }
      ],
      "payable": false,
      "stateMutability": "view",
      "type": "function"
    },
    {
      "constant": true,
      "inputs": [
        {
          "name": "",
          "type": "uint256"
        }
      ],
      "name": "blockHistory",
      "outputs": [
        {
          "name": "validator",
          "type": "address"
        },
        {
          "name": "blockHeight",
          "type": "uint256"
        },
        {
          "name": "merkleRoot",
          "type": "bytes32"
        },
        {
          "name": "ipfsAddr",
          "type": "bytes32"
        },
        {
          "name": "timestamp",
          "type": "uint256"
        },
        {
          "name": "uniqArticleCount",
          "type": "uint256"
        },
        {
          "name": "vote1Count",
          "type": "uint256"
        },
        {
          "name": "vote2Count",
          "type": "uint256"
        },
        {
          "name": "opRoundId",
          "type": "bytes32"
        },
        {
          "name": "aidMerkleRoot",
          "type": "bytes32"
        },
        {
          "name": "aidIpfsAddr",
          "type": "bytes32"
        }
      ],
      "payable": false,
      "stateMutability": "view",
      "type": "function"
    },
    {
      "constant": true,
      "inputs": [],
      "name": "nowSblockNo",
      "outputs": [
        {
          "name": "",
          "type": "uint256"
        }
      ],
      "payable": false,
      "stateMutability": "view",
      "type": "function"
    },
    {
      "constant": true,
      "inputs": [],
      "name": "maxVoteTime1",
      "outputs": [
        {
          "name": "",
          "type": "uint256"
        }
      ],
      "payable": false,
      "stateMutability": "view",
      "type": "function"
    },
    {
      "constant": true,
      "inputs": [],
      "name": "v2EndTime",
      "outputs": [
        {
          "name": "",
          "type": "uint256"
        }
      ],
      "payable": false,
      "stateMutability": "view",
      "type": "function"
    },
    {
      "inputs": [
        {
          "name": "_memberContractAddr",
          "type": "address"
        },
        {
          "name": "_QOTAddr",
          "type": "address"
        }
      ],
      "payable": false,
      "stateMutability": "nonpayable",
      "type": "constructor"
    },
    {
      "constant": false,
      "inputs": [
        {
          "name": "_seconds",
          "type": "uint256"
        }
      ],
      "name": "updateMaxVoteTime1",
      "outputs": [],
      "payable": false,
      "stateMutability": "nonpayable",
      "type": "function"
    },
    {
      "constant": false,
      "inputs": [
        {
          "name": "_seconds",
          "type": "uint256"
        }
      ],
      "name": "updateMaxVoteTime2",
      "outputs": [],
      "payable": false,
      "stateMutability": "nonpayable",
      "type": "function"
    },
    {
      "constant": false,
      "inputs": [
        {
          "name": "_x",
          "type": "uint256"
        },
        {
          "name": "_y",
          "type": "uint256"
        }
      ],
      "name": "setThreshold",
      "outputs": [],
      "payable": false,
      "stateMutability": "nonpayable",
      "type": "function"
    },
    {
      "constant": false,
      "inputs": [
        {
          "name": "_merkleRoot",
          "type": "bytes32"
        },
        {
          "name": "_ipfsAddr",
          "type": "bytes32"
        },
        {
          "name": "_aidMerkleRoot",
          "type": "bytes32"
        },
        {
          "name": "_aidIpfsAddr",
          "type": "bytes32"
        },
        {
          "name": "_successRateDB",
          "type": "bytes32"
        },
        {
          "name": "_finalListIpfs",
          "type": "bytes32"
        },
        {
          "name": "_ints",
          "type": "uint256[5]"
        }
      ],
      "name": "submitMerkleRoot",
      "outputs": [
        {
          "name": "",
          "type": "bool"
        }
      ],
      "payable": false,
      "stateMutability": "nonpayable",
      "type": "function"
    },
    {
      "constant": true,
      "inputs": [
        {
          "name": "v1Count",
          "type": "uint256"
        }
      ],
      "name": "isEnoughV1",
      "outputs": [
        {
          "name": "",
          "type": "bool"
        }
      ],
      "payable": false,
      "stateMutability": "view",
      "type": "function"
    },
    {
      "constant": true,
      "inputs": [
        {
          "name": "v2Count",
          "type": "uint256"
        }
      ],
      "name": "isEnoughV2",
      "outputs": [
        {
          "name": "",
          "type": "bool"
        }
      ],
      "payable": false,
      "stateMutability": "view",
      "type": "function"
    },
    {
      "constant": true,
      "inputs": [
        {
          "name": "_mr",
          "type": "bytes32"
        },
        {
          "name": "_bhash",
          "type": "bytes32"
        }
      ],
      "name": "calcLotteryWinNumber",
      "outputs": [
        {
          "name": "",
          "type": "bytes32"
        }
      ],
      "payable": false,
      "stateMutability": "pure",
      "type": "function"
    },
    {
      "constant": true,
      "inputs": [
        {
          "name": "_ticket",
          "type": "bytes32"
        },
        {
          "name": "_digit",
          "type": "uint8"
        }
      ],
      "name": "_getBytes32HexNthDigit",
      "outputs": [
        {
          "name": "",
          "type": "bytes1"
        }
      ],
      "payable": false,
      "stateMutability": "pure",
      "type": "function"
    },
    {
      "constant": true,
      "inputs": [
        {
          "name": "_winHex",
          "type": "bytes32"
        },
        {
          "name": "_ticket",
          "type": "bytes32"
        },
        {
          "name": "_numRange",
          "type": "uint8"
        }
      ],
      "name": "lotteryWins",
      "outputs": [
        {
          "name": "",
          "type": "bool"
        }
      ],
      "payable": false,
      "stateMutability": "pure",
      "type": "function"
    },
    {
      "constant": false,
      "inputs": [
        {
          "name": "_numRange",
          "type": "uint8"
        }
      ],
      "name": "setNumRange",
      "outputs": [],
      "payable": false,
      "stateMutability": "nonpayable",
      "type": "function"
    },
    {
      "constant": true,
      "inputs": [
        {
          "name": "_opRound",
          "type": "uint256"
        },
        {
          "name": "_ticket",
          "type": "bytes32"
        }
      ],
      "name": "isWinningTicket",
      "outputs": [
        {
          "name": "",
          "type": "bool"
        },
        {
          "name": "",
          "type": "uint256"
        }
      ],
      "payable": false,
      "stateMutability": "view",
      "type": "function"
    },
    {
      "constant": false,
      "inputs": [
        {
          "name": "_reward",
          "type": "uint256"
        }
      ],
      "name": "setReward",
      "outputs": [],
      "payable": false,
      "stateMutability": "nonpayable",
      "type": "function"
    },
    {
      "constant": true,
      "inputs": [
        {
          "name": "proof",
          "type": "bytes32[]"
        },
        {
          "name": "isLeft",
          "type": "bool[]"
        },
        {
          "name": "txHash",
          "type": "bytes32"
        },
        {
          "name": "_sblockNo",
          "type": "uint256"
        }
      ],
      "name": "txExist",
      "outputs": [
        {
          "name": "",
          "type": "bool"
        }
      ],
      "payable": false,
      "stateMutability": "view",
      "type": "function"
    },
    {
      "constant": true,
      "inputs": [
        {
          "name": "proof",
          "type": "bytes32[]"
        },
        {
          "name": "isLeft",
          "type": "bool[]"
        },
        {
          "name": "aid",
          "type": "bytes32"
        },
        {
          "name": "_sblockNo",
          "type": "uint256"
        }
      ],
      "name": "aidExist",
      "outputs": [
        {
          "name": "",
          "type": "bool"
        }
      ],
      "payable": false,
      "stateMutability": "view",
      "type": "function"
    },
    {
      "constant": true,
      "inputs": [
        {
          "name": "_signer",
          "type": "address"
        },
        {
          "name": "b32s",
          "type": "bytes32[6]"
        },
        {
          "name": "_v",
          "type": "uint8"
        }
      ],
      "name": "verifySignatureWithPrefix",
      "outputs": [
        {
          "name": "",
          "type": "bool"
        }
      ],
      "payable": false,
      "stateMutability": "pure",
      "type": "function"
    },
    {
      "constant": false,
      "inputs": [
        {
          "name": "b32s",
          "type": "bytes32[6]"
        },
        {
          "name": "uints",
          "type": "uint256[5]"
        },
        {
          "name": "claimProof",
          "type": "bytes32[]"
        },
        {
          "name": "proof1",
          "type": "bytes32[]"
        },
        {
          "name": "proof2",
          "type": "bytes32[]"
        },
        {
          "name": "uintIsLeft",
          "type": "uint24[3]"
        },
        {
          "name": "_v",
          "type": "uint8"
        }
      ],
      "name": "withdraw",
      "outputs": [
        {
          "name": "",
          "type": "bool"
        }
      ],
      "payable": false,
      "stateMutability": "nonpayable",
      "type": "function"
    },
    {
      "constant": true,
      "inputs": [
        {
          "name": "_sender",
          "type": "address"
        },
        {
          "name": "_opRound",
          "type": "uint256"
        },
        {
          "name": "_comment",
          "type": "bytes32"
        },
        {
          "name": "v1block",
          "type": "uint256"
        },
        {
          "name": "v1leaf",
          "type": "bytes32"
        },
        {
          "name": "v2block",
          "type": "uint256"
        },
        {
          "name": "v2leaf",
          "type": "bytes32"
        },
        {
          "name": "since",
          "type": "uint256"
        },
        {
          "name": "_v",
          "type": "uint8"
        },
        {
          "name": "_r",
          "type": "bytes32"
        },
        {
          "name": "_s",
          "type": "bytes32"
        }
      ],
      "name": "genV2Txhash",
      "outputs": [
        {
          "name": "",
          "type": "bytes32"
        }
      ],
      "payable": false,
      "stateMutability": "view",
      "type": "function"
    },
    {
      "constant": true,
      "inputs": [
        {
          "name": "proof",
          "type": "bytes32[]"
        },
        {
          "name": "isLeftInt",
          "type": "uint24"
        },
        {
          "name": "txHash",
          "type": "bytes32"
        },
        {
          "name": "_sblockNo",
          "type": "uint256"
        }
      ],
      "name": "txExistUintSide",
      "outputs": [
        {
          "name": "",
          "type": "bool"
        }
      ],
      "payable": false,
      "stateMutability": "view",
      "type": "function"
    },
    {
      "constant": true,
      "inputs": [
        {
          "name": "x",
          "type": "uint24"
        },
        {
          "name": "length",
          "type": "uint8"
        }
      ],
      "name": "_uintToBoolArr",
      "outputs": [
        {
          "name": "isLeft",
          "type": "bool[]"
        }
      ],
      "payable": false,
      "stateMutability": "pure",
      "type": "function"
    },
    {
      "constant": true,
      "inputs": [
        {
          "name": "proof",
          "type": "bytes32[]"
        },
        {
          "name": "isLeft",
          "type": "bool[]"
        },
        {
          "name": "targetLeaf",
          "type": "bytes32"
        },
        {
          "name": "_merkleRoot",
          "type": "bytes32"
        }
      ],
      "name": "merkleTreeValidator",
      "outputs": [
        {
          "name": "",
          "type": "bool"
        }
      ],
      "payable": false,
      "stateMutability": "pure",
      "type": "function"
    },
    {
      "constant": true,
      "inputs": [],
      "name": "getBlockNo",
      "outputs": [
        {
          "name": "",
          "type": "uint256"
        }
      ],
      "payable": false,
      "stateMutability": "view",
      "type": "function"
    },
    {
      "constant": true,
      "inputs": [
        {
          "name": "_sblockNo",
          "type": "uint256"
        }
      ],
      "name": "getBlockInfo",
      "outputs": [
        {
          "name": "",
          "type": "uint256"
        },
        {
          "name": "",
          "type": "bytes32"
        },
        {
          "name": "",
          "type": "bytes32"
        },
        {
          "name": "",
          "type": "bytes32"
        },
        {
          "name": "",
          "type": "bytes32"
        },
        {
          "name": "",
          "type": "bytes32"
        },
        {
          "name": "",
          "type": "address"
        }
      ],
      "payable": false,
      "stateMutability": "view",
      "type": "function"
    },
    {
      "constant": true,
      "inputs": [
        {
          "name": "_idx",
          "type": "uint256"
        }
      ],
      "name": "queryValidator",
      "outputs": [
        {
          "name": "",
          "type": "address"
        }
      ],
      "payable": false,
      "stateMutability": "view",
      "type": "function"
    },
    {
      "constant": true,
      "inputs": [
        {
          "name": "_addr",
          "type": "address"
        }
      ],
      "name": "isValidator",
      "outputs": [
        {
          "name": "",
          "type": "bool"
        }
      ],
      "payable": false,
      "stateMutability": "view",
      "type": "function"
    },
    {
      "constant": true,
      "inputs": [],
      "name": "queryManagers",
      "outputs": [
        {
          "name": "",
          "type": "address[4]"
        }
      ],
      "payable": false,
      "stateMutability": "view",
      "type": "function"
    },
    {
      "constant": true,
      "inputs": [],
      "name": "queryOpRound",
      "outputs": [
        {
          "name": "",
          "type": "uint256"
        }
      ],
      "payable": false,
      "stateMutability": "view",
      "type": "function"
    },
    {
      "constant": true,
      "inputs": [
        {
          "name": "_opRound",
          "type": "uint256"
        }
      ],
      "name": "queryOpRoundId",
      "outputs": [
        {
          "name": "",
          "type": "bytes32"
        }
      ],
      "payable": false,
      "stateMutability": "view",
      "type": "function"
    },
    {
      "constant": true,
      "inputs": [
        {
          "name": "_opRound",
          "type": "uint256"
        }
      ],
      "name": "queryOpRoundLottery",
      "outputs": [
        {
          "name": "",
          "type": "uint256"
        },
        {
          "name": "",
          "type": "uint256"
        },
        {
          "name": "",
          "type": "bytes32"
        }
      ],
      "payable": false,
      "stateMutability": "view",
      "type": "function"
    },
    {
      "constant": true,
      "inputs": [
        {
          "name": "_opRound",
          "type": "uint256"
        }
      ],
      "name": "queryOpRoundInfo",
      "outputs": [
        {
          "name": "",
          "type": "uint256"
        },
        {
          "name": "",
          "type": "bytes32"
        },
        {
          "name": "",
          "type": "uint256"
        }
      ],
      "payable": false,
      "stateMutability": "view",
      "type": "function"
    },
    {
      "constant": true,
      "inputs": [
        {
          "name": "_opRound",
          "type": "uint256"
        }
      ],
      "name": "queryOpRoundResult",
      "outputs": [
        {
          "name": "",
          "type": "uint256"
        },
        {
          "name": "",
          "type": "bytes32"
        },
        {
          "name": "",
          "type": "uint256"
        },
        {
          "name": "",
          "type": "uint256"
        },
        {
          "name": "",
          "type": "bytes32"
        },
        {
          "name": "",
          "type": "bytes32"
        },
        {
          "name": "",
          "type": "uint256"
        },
        {
          "name": "",
          "type": "bytes32"
        },
        {
          "name": "",
          "type": "uint256"
        }
      ],
      "payable": false,
      "stateMutability": "view",
      "type": "function"
    },
    {
      "constant": true,
      "inputs": [],
      "name": "queryOpRoundProgress",
      "outputs": [
        {
          "name": "",
          "type": "uint256"
        },
        {
          "name": "",
          "type": "bool"
        },
        {
          "name": "",
          "type": "uint256"
        },
        {
          "name": "",
          "type": "uint256"
        },
        {
          "name": "",
          "type": "uint256"
        },
        {
          "name": "",
          "type": "uint256"
        }
      ],
      "payable": false,
      "stateMutability": "view",
      "type": "function"
    },
    {
      "constant": true,
      "inputs": [],
      "name": "queryVoteThresholds",
      "outputs": [
        {
          "name": "",
          "type": "uint256"
        },
        {
          "name": "",
          "type": "uint256"
        },
        {
          "name": "",
          "type": "uint256"
        }
      ],
      "payable": false,
      "stateMutability": "view",
      "type": "function"
    },
    {
      "constant": true,
      "inputs": [
        {
          "name": "_opRound",
          "type": "uint256"
        }
      ],
      "name": "queryFinalist",
      "outputs": [
        {
          "name": "",
          "type": "uint256"
        },
        {
          "name": "",
          "type": "uint256"
        },
        {
          "name": "",
          "type": "bytes32"
        }
      ],
      "payable": false,
      "stateMutability": "view",
      "type": "function"
    },
    {
      "constant": false,
      "inputs": [
        {
          "name": "_addr",
          "type": "address"
        }
      ],
      "name": "setFlagContractAddr",
      "outputs": [
        {
          "name": "",
          "type": "bool"
        }
      ],
      "payable": false,
      "stateMutability": "nonpayable",
      "type": "function"
    },
    {
      "constant": false,
      "inputs": [
        {
          "name": "_newValidator",
          "type": "address"
        },
        {
          "name": "_idx",
          "type": "uint256"
        }
      ],
      "name": "setValidator",
      "outputs": [
        {
          "name": "",
          "type": "bool"
        }
      ],
      "payable": false,
      "stateMutability": "nonpayable",
      "type": "function"
    },
    {
      "constant": false,
      "inputs": [
        {
          "name": "_newManager",
          "type": "address"
        }
      ],
      "name": "setManager",
      "outputs": [
        {
          "name": "",
          "type": "bool"
        }
      ],
      "payable": false,
      "stateMutability": "nonpayable",
      "type": "function"
    }
  ],
  "bytecode": "0x60806040526103846018556028601d819055601e556021805461ff00191661080017905561a8c0602281905560235560646024553480156200004057600080fd5b5060405160408062003e74833981018060405260408110156200006257600080fd5b50805160209182015160148054600160a060020a03808516600160a060020a03199283161790925560158054928416929091169190911790556040805160808101825273b440ea2780614b3c6a00e512f432785e7dfafa3e8152734ad56641c569c91c64c28a904cda50ae5326da419481019490945273af7400787c54422be8b44154b1273661f1259ccd90840152600060608401819052919290916200010b916004620003eb565b50604080516102008101825273b440ea2780614b3c6a00e512f432785e7dfafa3e8152734ad56641c569c91c64c28a904cda50ae5326da41602082015273af7400787c54422be8b44154b1273661f1259ccd918101919091526000606082018190526080820181905260a0820181905260c0820181905260e08201819052610100820181905261012082018190526101408201819052610160820181905261018082018190526101a082018190526101c082018190526101e0820152620001d790600490601062000448565b50506040805161016081018252338152436020808301918252600093830184815260608401858152426080860190815260a0860187815260c0870188815260e0880189815261010089018a81526101208a018b81526101408b018c81529b8052602590985298517fa54b3e90672405a607381bd4d34034a12c5aad31607067a7ad26573f504ad6e28054600160a060020a031916600160a060020a0390921691909117905596517fa54b3e90672405a607381bd4d34034a12c5aad31607067a7ad26573f504ad6e35593517fa54b3e90672405a607381bd4d34034a12c5aad31607067a7ad26573f504ad6e45591517fa54b3e90672405a607381bd4d34034a12c5aad31607067a7ad26573f504ad6e555517fa54b3e90672405a607381bd4d34034a12c5aad31607067a7ad26573f504ad6e655517fa54b3e90672405a607381bd4d34034a12c5aad31607067a7ad26573f504ad6e755517fa54b3e90672405a607381bd4d34034a12c5aad31607067a7ad26573f504ad6e85590517fa54b3e90672405a607381bd4d34034a12c5aad31607067a7ad26573f504ad6e95590517fa54b3e90672405a607381bd4d34034a12c5aad31607067a7ad26573f504ad6ea55517fa54b3e90672405a607381bd4d34034a12c5aad31607067a7ad26573f504ad6eb55517fa54b3e90672405a607381bd4d34034a12c5aad31607067a7ad26573f504ad6ec55506001601755620004bc565b826004810192821562000436579160200282015b82811115620004365782518254600160a060020a031916600160a060020a03909116178255602090920191600190910190620003ff565b506200044492915062000492565b5090565b8260108101928215620004365791602002820182811115620004365782518254600160a060020a031916600160a060020a03909116178255602090920191600190910190620003ff565b620004b991905b8082111562000444578054600160a060020a031916815560010162000499565b90565b6139a880620004cc6000396000f3fe608060405234801561001057600080fd5b50600436106103875760003560e060020a9004806382eea47a116101e2578063c977159111610113578063de250ace116100b1578063f47dae9a11610080578063f47dae9a14611007578063facd743b1461106b578063fba0e4bb14611091578063fd0492b11461109957610387565b8063de250ace14610f5d578063deefebc114610fda578063e4f0d15f14610fe2578063ec5caf2a14610fea57610387565b8063d17eaa47116100ed578063d17eaa4714610e74578063d36a72ea14610ecf578063d64d8c0214610f38578063d9eb08f614610f4057610387565b8063c977159114610ce2578063ca48c69d14610e0e578063d0ebdbe714610e4e57610387565b8063ae52832311610180578063b9c362091161015a578063b9c3620914610c51578063b9fedac714610c74578063bb141cf414610c7c578063c170f35614610cda57610387565b8063ae52832314610a55578063b87f140714610b08578063b8f69e3714610b2557610387565b806396bb0fde116101bc57806396bb0fde14610a115780639bb71caa14610a19578063a3629b0414610a21578063abb9406b14610a2957610387565b806382eea47a146109f957806386e18f8214610a015780638ccbaca414610a0957610387565b80635080ad26116102bc5780635b9e211c1161025a5780637376faf2116102345780637376faf2146109af5780637c14de6c146109b75780637eb57405146109d4578063810e0b20146109dc57610387565b80635b9e211c1461084f5780635fa029d1146109755780636cb0999b1461099257610387565b806353311f951161029657806353311f951461074d57806357ee34a61461078b5780635809fd57146107c6578063581e16371461082957610387565b80635080ad261461069a57806351086450146106b8578063513536c11461072a57610387565b80632656de1a1161032957806335aa2e441161030357806335aa2e44146106505780633d39c2601461066d578063414e28b01461068a578063417d63e91461069257610387565b80632656de1a146104cc578063293be45614610507578063316f0d841461052457610387565b80631b9d40ba116103655780631b9d40ba146103f95780631c75862a1461042557806321a8770d146104a0578063228cb733146104c457610387565b80630137aca41461038c57806317ca3256146103bd57806319305d85146103d7575b600080fd5b6103a9600480360360208110156103a257600080fd5b50356110a1565b604080519115158252519081900360200190f35b6103c5611162565b60408051918252519081900360200190f35b6103f7600480360360208110156103ed57600080fd5b503560ff16611168565b005b6103a96004803603606081101561040f57600080fd5b508035906020810135906040013560ff16611216565b6104506004803603604081101561043b57600080fd5b50803562ffffff16906020013560ff16611310565b60408051602080825283518183015283519192839290830191858101910280838360005b8381101561048c578181015183820152602001610474565b505050509050019250505060405180910390f35b6104a86113c4565b60408051600160a060020a039092168252519081900360200190f35b6103c56113d3565b6104d46113d9565b604080519687529415156020870152858501939093526060850191909152608084015260a0830152519081900360c00190f35b6103f76004803603602081101561051d57600080fd5b50356113f9565b6103a96004803603608081101561053a57600080fd5b81019060208101813564010000000081111561055557600080fd5b82018360208201111561056757600080fd5b8035906020019184602083028401116401000000008311171561058957600080fd5b91908080602002602001604051908101604052809392919081815260200183836020028082843760009201919091525092959493602081019350359150506401000000008111156105d957600080fd5b8201836020820111156105eb57600080fd5b8035906020019184602083028401116401000000008311171561060d57600080fd5b919080806020026020016040519081016040528093929190818152602001838360200280828437600092019190915250929550508235935050506020013561147e565b6104a86004803603602081101561066657600080fd5b50356114d9565b6104a86004803603602081101561068357600080fd5b50356114f6565b6103c5611503565b6103c5611509565b6106a261150f565b6040805160ff9092168252519081900360200190f35b6103a960048036036101608110156106cf57600080fd5b6040805160a0818101835284359460208101359493810135936060820135936080830135938084013593928301929161016083019160c0840190600590839083908082843760009201919091525091945061151d9350505050565b6103c56004803603604081101561074057600080fd5b5080359060200135612104565b6107706004803603604081101561076357600080fd5b5080359060200135612130565b60408051921515835260208301919091528051918290030190f35b6107a8600480360360208110156107a157600080fd5b503561215e565b60408051938452602084019290925282820152519081900360600190f35b6103a960048036036101008110156107dd57600080fd5b6040805160c0818101909252600160a060020a0384351693928301929160e0830191906020840190600690839083908082843760009201919091525091945050503560ff169050612199565b6103a96004803603602081101561083f57600080fd5b5035600160a060020a0316612227565b6103a9600480360361024081101561086657600080fd5b60c0820190820182610180810161016082013564010000000081111561088b57600080fd5b82018360208201111561089d57600080fd5b803590602001918460208302840111640100000000831117156108bf57600080fd5b9193909290916020810190356401000000008111156108dd57600080fd5b8201836020820111156108ef57600080fd5b8035906020019184602083028401116401000000008311171561091157600080fd5b91939092909160208101903564010000000081111561092f57600080fd5b82018360208201111561094157600080fd5b8035906020019184602083028401116401000000008311171561096357600080fd5b919350915060ff6060820135166122ca565b6103f76004803603602081101561098b57600080fd5b50356126a9565b6103a9600480360360208110156109a857600080fd5b503561285a565b6103c5612914565b6107a8600480360360208110156109cd57600080fd5b503561291a565b6103c5612958565b6104a8600480360360208110156109f257600080fd5b503561295e565b6103c5612999565b6107a861299f565b6103c56129ad565b6104a86129b3565b6103a96129c2565b6103c56129cb565b6103a960048036036040811015610a3f57600080fd5b50600160a060020a0381351690602001356129d1565b6103a960048036036080811015610a6b57600080fd5b810190602081018135640100000000811115610a8657600080fd5b820183602082011115610a9857600080fd5b80359060200191846020830284011164010000000083111715610aba57600080fd5b9190808060200260200160405190810160405280939291908181526020018383602002808284376000920191909152509295505062ffffff8335169350505060208101359060400135612ab6565b6103f760048036036020811015610b1e57600080fd5b5035612b1f565b6103a960048036036080811015610b3b57600080fd5b810190602081018135640100000000811115610b5657600080fd5b820183602082011115610b6857600080fd5b80359060200191846020830284011164010000000083111715610b8a57600080fd5b9190808060200260200160405190810160405280939291908181526020018383602002808284376000920191909152509295949360208101935035915050640100000000811115610bda57600080fd5b820183602082011115610bec57600080fd5b80359060200191846020830284011164010000000083111715610c0e57600080fd5b9190808060200260200160405190810160405280939291908181526020018383602002808284376000920191909152509295505082359350505060200135612cd0565b6103f760048036036040811015610c6757600080fd5b5080359060200135612de1565b6103c5612fb5565b610c9960048036036020811015610c9257600080fd5b5035612fbb565b604080519788526020880196909652868601949094526060860192909252608085015260a0840152600160a060020a031660c0830152519081900360e00190f35b6104a8613000565b6103a960048036036080811015610cf857600080fd5b810190602081018135640100000000811115610d1357600080fd5b820183602082011115610d2557600080fd5b80359060200191846020830284011164010000000083111715610d4757600080fd5b9190808060200260200160405190810160405280939291908181526020018383602002808284376000920191909152509295949360208101935035915050640100000000811115610d9757600080fd5b820183602082011115610da957600080fd5b80359060200191846020830284011164010000000083111715610dcb57600080fd5b919080806020026020016040519081016040528093929190818152602001838360200280828437600092019190915250929550508235935050506020013561300f565b610e1661305f565b6040518082608080838360005b83811015610e3b578181015183820152602001610e23565b5050505090500191505060405180910390f35b6103a960048036036020811015610e6457600080fd5b5035600160a060020a03166130a4565b610e9a60048036036040811015610e8a57600080fd5b508035906020013560ff16613148565b604080517fff000000000000000000000000000000000000000000000000000000000000009092168252519081900360200190f35b6103c56004803603610160811015610ee657600080fd5b50600160a060020a038135169060208101359060408101359060608101359060808101359060a08101359060c08101359060e08101359060ff61010082013516906101208101359061014001356131f9565b6103c56132df565b6103c560048036036020811015610f5657600080fd5b50356132e5565b610f7a60048036036020811015610f7357600080fd5b503561331a565b60408051600160a060020a03909c168c5260208c019a909a528a8a019890985260608a0196909652608089019490945260a088019290925260c087015260e086015261010085015261012084015261014083015251908190036101600190f35b6103c561337d565b6103c5613383565b6107a86004803603602081101561100057600080fd5b5035613389565b6110246004803603602081101561101d57600080fd5b50356133c7565b60408051998a5260208a0198909852888801969096526060880194909452608087019290925260a086015260c085015260e084015261010083015251908190036101200190f35b6103a96004803603602081101561108157600080fd5b5035600160a060020a03166134d1565b6103c561366b565b6103c5613671565b600080601460009054906101000a9004600160a060020a0316600160a060020a03166322faa41f6040518163ffffffff1660e060020a02815260040160206040518083038186803b1580156110f557600080fd5b505afa158015611109573d6000803e3d6000fd5b505050506040513d602081101561111f57600080fd5b50519050600381101561113157600080fd5b6000818460640281151561114157fe5b049050601d548110151561115a5760019250505061115d565b50505b919050565b60185481565b33151561117457600080fd5b6000800154600160a060020a031633148061119c5750600060010154600160a060020a031633145b806111b45750600060020154600160a060020a031633145b806111cc5750600060030154600160a060020a031633145b15156111d757600080fd5b60018160ff16101580156111ef5750600f8160ff1611155b15156111fa57600080fd5b6021805460ff9092166101000261ff0019909216919091179055565b600060018260ff1610158015611230575060108260ff1611155b151561123b57600080fd5b6000600461124a866000613148565b60f860020a900460ff1681151561125d57fe5b069050600061126d86603f613148565b905060f860020a8104600f85820116600061128c88603f879003613148565b60f860020a900490508260ff168260ff1611156112d6578260ff168160ff16101580156112be57508160ff168160ff16105b156112d157600195505050505050611309565b611303565b8260ff168160ff161015806112f057508160ff168160ff16105b1561130357600195505050505050611309565b50505050505b9392505050565b606060018260ff161015801561132a575060188260ff1611155b151561133557600080fd5b8160ff16604051908082528060200260200182016040528015611362578160200160208202803883390190505b50905060005b8260ff168110156113bc57600180851614156113a6576001826001838660ff16030381518110151561139657fe5b9115156020928302909101909101525b600262ffffff9094169390930492600101611368565b505b92915050565b601554600160a060020a031681565b60245481565b601a54602154601f54602054601b54601c5460ff90941693909192939495565b33151561140557600080fd5b6000800154600160a060020a031633148061142d5750600060010154600160a060020a031633145b806114455750600060020154600160a060020a031633145b8061145d5750600060030154600160a060020a031633145b151561146857600080fd5b602454600a02811061147957600080fd5b602455565b601754600090821061148f57600080fd5b60008281526025602052604090206002015415156114ac57600080fd5b6114ce8585856025600087815260200190815260200160002060020154612cd0565b90505b949350505050565b600481601081106114e657fe5b0154600160a060020a0316905081565b600081600481106114e657fe5b601a5481565b601d5481565b602154610100900460ff1681565b600033151561152b57600080fd5b600460000154600160a060020a03163314806115545750600460010154600160a060020a031633145b8061156c5750600460020154600160a060020a031633145b806115845750600460030154600160a060020a031633145b8061159b57506004800154600160a060020a031633145b806115b35750600460050154600160a060020a031633145b806115cb5750600460060154600160a060020a031633145b806115e35750600460070154600160a060020a031633145b806115fb5750600460080154600160a060020a031633145b806116135750600460090154600160a060020a031633145b8061162b57506004600a0154600160a060020a031633145b8061164357506004600b0154600160a060020a031633145b8061165b57506004600c0154600160a060020a031633145b8061167357506004600d0154600160a060020a031633145b8061168b57506004600e0154600160a060020a031633145b806116a357506004600f0154600160a060020a031633145b15156116ae57600080fd5b60175460001901600090815260256020526040902060040154610384014210156116d757600080fd5b60175460001901600090815260256020526040902060010154600f014310156116ff57600080fd5b871580159061170d57508615155b151561171857600080fd5b6017546000190160009081526025602052604090206002015488148015906117585750601754600019016000908152602560205260409020600301548714155b151561176357600080fd5b6017546000908152602560205260409020600101541580156117975750601754600090815260256020526040902060020154155b80156117b55750601754600090815260256020526040902060030154155b80156117d35750601754600090815260256020526040902060040154155b15156117de57600080fd5b85158015906117ec57508415155b15156117f757600080fd5b815160208301516040840151606085015160808601516000821080159061181e5750606482105b151561182957600080fd5b60195415801561183e5750600785601a540110155b1561197f576101606040519081016040528033600160a060020a031681526020014381526020018e81526020018d81526020014281526020018681526020018581526020018481526020016026600060195481526020019081526020016000206000015481526020018c81526020018b81525060256000601754815260200190815260200160002060008201518160000160006101000a815481600160a060020a030219169083600160a060020a031602179055506020820151816001015560408201518160020155606082015181600301556080820151816004015560a0820151816005015560c0820151816006015560e082015181600701556101008201518160080155610120820151816009015561014082015181600a01559050504260208190555061197a8d60008060006001026000600102613677565b6120e7565b60195415801590611992575060215460ff165b80156119a357506022546020544203115b15611aee576101606040519081016040528033600160a060020a031681526020014381526020018e81526020018d81526020014281526020018681526020018581526020018481526020016026600060195481526020019081526020016000206000015481526020018c81526020018b81525060256000601754815260200190815260200160002060008201518160000160006101000a815481600160a060020a030219169083600160a060020a031602179055506020820151816001015560408201518160020155606082015181600301556080820151816004015560a0820151816005015560c0820151816006015560e082015181600701556101008201518160080155610120820151816009015561014082015181600a015590505060014203601f8190555042602081905550611ade601d5461383d565b601d5561197a8d83838c8c613677565b60195415801590611b01575060215460ff165b8015611b155750611b1584601b54016110a1565b15611cd957601954600090815260266020526040902060020154158015611b4e5750601954600090815260266020526040902060030154155b1515611b5957600080fd5b6101606040519081016040528033600160a060020a031681526020014381526020018e81526020018d81526020014281526020018681526020018581526020018481526020016026600060195481526020019081526020016000206000015481526020018c81526020018b81525060256000601754815260200190815260200160002060008201518160000160006101000a815481600160a060020a030219169083600160a060020a031602179055506020820151816001015560408201518160020155606082015181600301556080820151816004015560a0820151816005015560c0820151816006015560e082015181600701556101008201518160080155610120820151816009015561014082015181600a015590505042601f81905550611c85601d5461386a565b601d55601754601954600090815260266020526040902060020155611caf8d600019430140612104565b601954600090815260266020526040812060030191909155601c556021805460ff191690556120e7565b60195415801590611ced575060215460ff16155b8015611cfe5750602354601f544203115b15611e3c576101606040519081016040528033600160a060020a031681526020014381526020018e81526020018d81526020014281526020018681526020018581526020018481526020016026600060195481526020019081526020016000206000015481526020018c81526020018b81525060256000601754815260200190815260200160002060008201518160000160006101000a815481600160a060020a030219169083600160a060020a031602179055506020820151816001015560408201518160020155606082015181600301556080820151816004015560a0820151816005015560c0820151816006015560e082015181600701556101008201518160080155610120820151816009015561014082015181600a0155905050611e28601e5461383d565b601e554260205561197a8d83838c8c613677565b60195415801590611e50575060215460ff16155b8015611e645750611e6483601c540161285a565b15611f9c576001811015611e7757600080fd5b6101606040519081016040528033600160a060020a031681526020014381526020018e81526020018d81526020014281526020018681526020018581526020018481526020016026600060195481526020019081526020016000206000015481526020018c81526020018b81525060256000601754815260200190815260200160002060008201518160000160006101000a815481600160a060020a030219169083600160a060020a031602179055506020820151816001015560408201518160020155606082015181600301556080820151816004015560a0820151816005015560c0820151816006015560e082015181600701556101008201518160080155610120820151816009015561014082015181600a0155905050611e28601e5461386a565b83601b6000828254019250508190555082601c6000828254019250508190555084601a600082825401925050819055506101606040519081016040528033600160a060020a031681526020014381526020018e81526020018d81526020014281526020018681526020018581526020018481526020016026600060195481526020019081526020016000206000015481526020018c81526020018b81525060256000601754815260200190815260200160002060008201518160000160006101000a815481600160a060020a030219169083600160a060020a031602179055506020820151816001015560408201518160020155606082015181600301556080820151816004015560a0820151816005015560c0820151816006015560e082015181600701556101008201518160080155610120820151816009015561014082015181600a01559050505b50506017805460019081019091559b9a5050505050505050505050565b604080516020808201949094528082019290925280518083038201815260609092019052805191012090565b60008061213d8484613886565b60001994909401600090815260266020526040902060040154939492505050565b60008080808415156121735750601954612176565b50835b600081815260266020526040902080546001909101549196909550909350915050565b60608083015160808085015160a08087015160408051600080825260208281018085529890985260ff8a168284015297810194909452938301529151600193828401939092601f198301929081900390910190855afa158015612200573d6000803e3d6000fd5b50505060206040510351600160a060020a031684600160a060020a03161490509392505050565b600033151561223557600080fd5b6000800154600160a060020a031633148061225d5750600060010154600160a060020a031633145b806122755750600060020154600160a060020a031633145b8061228d5750600060030154600160a060020a031633145b151561229857600080fd5b5060168054600160a060020a03831673ffffffffffffffffffffffffffffffffffffffff199091161790556001919050565b88356000908152602660205260408120600201548a6001602002013511156122f157600080fd5b89356000908152602660205260409081902060020154908b01351161231557600080fd5b61232b60208b01358c60015b6020020135613886565b151561233657600080fd5b61234660408b01358c6002612321565b151561235157600080fd5b6019548a3511801590612369575060195460108b3501115b151561237457600080fd5b6123a9338c60068060200260405190810160405280929190826006602002808284376000920191909152508691506121999050565b15156123b457600080fd5b6000612410338d6006806020026040519081016040528092919082600660200280828437600092019190915250506040805160a081810190925291508f9060059083908390808284376000920191909152508891506138df9050565b90506124748a8a80806020026020016040519081016040528093929190818152602001838360200280828437600092018290525089935091506124509050565b602002013562ffffff16838e600360058110151561246a57fe5b6020020135612ab6565b151561247f57600080fd5b6124e6888880806020026020016040519081016040528093929190818152602001838360200280828437600092019190915250889250600191506124c09050565b602002013562ffffff168e60016006811015156124d957fe5b60200201358e600161246a565b15156124f157600080fd5b612558868680806020026020016040519081016040528093929190818152602001838360200280828437600092019190915250889250600291506125329050565b602002013562ffffff168e600260068110151561254b57fe5b60200201358e600261246a565b151561256357600080fd5b8a35600090815260286020908152604080832033845290915290205460ff16156125d8576040517f08c379a000000000000000000000000000000000000000000000000000000000815260040180806020018281038252603a815260200180613943603a913960400191505060405180910390fd5b8a35600090815260286020908152604080832033808552908352818420805460ff191660011790556015546024805484517f40c10f190000000000000000000000000000000000000000000000000000000081526004810194909452908301529151600160a060020a03909216936340c10f199360448084019491939192918390030190829087803b15801561266d57600080fd5b505af1158015612681573d6000803e3d6000fd5b505050506040513d602081101561269757600080fd5b50919c9b505050505050505050505050565b3315156126b557600080fd5b600460000154600160a060020a03163314806126de5750600460010154600160a060020a031633145b806126f65750600460020154600160a060020a031633145b8061270e5750600460030154600160a060020a031633145b8061272557506004800154600160a060020a031633145b8061273d5750600460050154600160a060020a031633145b806127555750600460060154600160a060020a031633145b8061276d5750600460070154600160a060020a031633145b806127855750600460080154600160a060020a031633145b8061279d5750600460090154600160a060020a031633145b806127b557506004600a0154600160a060020a031633145b806127cd57506004600b0154600160a060020a031633145b806127e557506004600c0154600160a060020a031633145b806127fd57506004600d0154600160a060020a031633145b8061281557506004600e0154600160a060020a031633145b8061282d57506004600f0154600160a060020a031633145b151561283857600080fd5b60b48111801561284a57506201518081105b151561285557600080fd5b602255565b600080601460009054906101000a9004600160a060020a0316600160a060020a03166322faa41f6040518163ffffffff1660e060020a02815260040160206040518083038186803b1580156128ae57600080fd5b505afa1580156128c2573d6000803e3d6000fd5b505050506040513d60208110156128d857600080fd5b5051905060038110156128ea57600080fd5b60008184610320028115156128fb57fe5b049050601e548110151561115a5760019250505061115d565b601c5481565b600080808084151561292f5750601954612932565b50835b600081815260266020526040902060028101546003909101549196909550909350915050565b60235481565b60008082101580156129705750601082105b151561297b57600080fd5b6004826010811061298857fe5b0154600160a060020a031692915050565b601e5481565b601954601d54601e54909192565b60195490565b601654600160a060020a031681565b60215460ff1681565b601f5481565b60003315156129df57600080fd5b6000800154600160a060020a0316331480612a075750600060010154600160a060020a031633145b80612a1f5750600060020154600160a060020a031633145b80612a375750600060030154600160a060020a031633145b1515612a4257600080fd5b600160a060020a0383161515612a5757600080fd5b60008210158015612a685750601082105b1515612a7357600080fd5b8260048360108110612a8157fe5b01805473ffffffffffffffffffffffffffffffffffffffff1916600160a060020a039290921691909117905550600192915050565b6017546000908210612ac757600080fd5b6000828152602560205260409020600201541515612ae457600080fd5b6060612af1858751611310565b9050612b158682866025600088815260200190815260200160002060020154612cd0565b9695505050505050565b331515612b2b57600080fd5b600460000154600160a060020a0316331480612b545750600460010154600160a060020a031633145b80612b6c5750600460020154600160a060020a031633145b80612b845750600460030154600160a060020a031633145b80612b9b57506004800154600160a060020a031633145b80612bb35750600460050154600160a060020a031633145b80612bcb5750600460060154600160a060020a031633145b80612be35750600460070154600160a060020a031633145b80612bfb5750600460080154600160a060020a031633145b80612c135750600460090154600160a060020a031633145b80612c2b57506004600a0154600160a060020a031633145b80612c4357506004600b0154600160a060020a031633145b80612c5b57506004600c0154600160a060020a031633145b80612c7357506004600d0154600160a060020a031633145b80612c8b57506004600e0154600160a060020a031633145b80612ca357506004600f0154600160a060020a031633145b1515612cae57600080fd5b60b481118015612cc057506201518081105b1515612ccb57600080fd5b602355565b600060208551101515612ce257600080fd5b8351855114612cf057600080fd5b8260005b8651811015612dd55760008782815181101515612d0d57fe5b9060200190602002015190508682815181101515612d2757fe5b9060200190602002015115612d6c5780836040516020018083815260200182815260200192505050604051602081830303815290604052805190602001209250612dcc565b8682815181101515612d7a57fe5b906020019060200201511515612dc05782816040516020018083815260200182815260200192505050604051602081830303815290604052805190602001209250612dcc565b600093505050506114d1565b50600101612cf4565b50909114949350505050565b331515612ded57600080fd5b600460000154600160a060020a0316331480612e165750600460010154600160a060020a031633145b80612e2e5750600460020154600160a060020a031633145b80612e465750600460030154600160a060020a031633145b80612e5d57506004800154600160a060020a031633145b80612e755750600460050154600160a060020a031633145b80612e8d5750600460060154600160a060020a031633145b80612ea55750600460070154600160a060020a031633145b80612ebd5750600460080154600160a060020a031633145b80612ed55750600460090154600160a060020a031633145b80612eed57506004600a0154600160a060020a031633145b80612f0557506004600b0154600160a060020a031633145b80612f1d57506004600c0154600160a060020a031633145b80612f3557506004600d0154600160a060020a031633145b80612f4d57506004600e0154600160a060020a031633145b80612f6557506004600f0154600160a060020a031633145b1515612f7057600080fd5b60058210158015612f825750605f8211155b1515612f8d57600080fd5b60058110158015612f9f5750605f8111155b1515612faa57600080fd5b601d91909155601e55565b60195481565b60009081526025602052604090206001810154600282015460038301546009840154600a850154600886015495549496939592949193909291600160a060020a031690565b601454600160a060020a031681565b601754600090821061302057600080fd5b600082815260256020526040902060090154151561303d57600080fd5b6114ce8585856025600087815260200190815260200160002060090154612cd0565b613067613923565b6040805160808101918290529060009060049082845b8154600160a060020a0316815260019091019060200180831161307d575050505050905090565b60003315156130b257600080fd5b6000800154600160a060020a03163314806130da5750600060010154600160a060020a031633145b806130f25750600060020154600160a060020a031633145b8061310a5750600060030154600160a060020a031633145b151561311557600080fd5b506003805473ffffffffffffffffffffffffffffffffffffffff1916600160a060020a0392909216919091179055600190565b6000808260ff16101580156131615750603f8260ff1611155b151561316c57600080fd5b600180831614156131b857601083600260ff85160460ff1660208110151561319057fe5b1a60f860020a0260f860020a900460ff168115156131aa57fe5b0660f860020a0290506113be565b601083600260ff85160460ff166020811015156131d157fe5b1a60f860020a0260f860020a900460ff168115156131eb57fe5b0460f860020a0290506113be565b60008a81526026602090815260408083205481518084019e909e528d8201849052600160a060020a039e909e166c0100000000000000000000000002604c8e015260608d019b909b527f11be02000000000000000000000000000000000000000000000000000000000060808d015260a08c019c909c5260c08b019890985260e08a019690965261010089019490945261012088019290925261014087015261016086019390935260ff90921660f860020a0261017f8501526101808401919091526101a080840191909152815180840390910181526101c09092019052805191012090565b601b5481565b60008115613302575060008181526026602052604090205461115d565b5060195460009081526026602052604090205461115d565b602560205260009081526040902080546001820154600283015460038401546004850154600586015460068701546007880154600889015460098a0154600a909a0154600160a060020a039099169997989697959694959394929391929091908b565b60175481565b60225481565b600080808084151561339e57506019546133a1565b50835b600081815260266020526040902060058101546007909101549196909550909350915050565b60008060008060008060008060008060006019548c14156133f157505060195460020160006133f7565b508a9050805b80602660008481526020019081526020016000206000015460266000858152602001908152602001600020600101546026600086815260200190815260200160002060040154602660008781526020019081526020016000206006015460266000888152602001908152602001600020600701546026600089815260200190815260200160002060020154602660008a815260200190815260200160002060030154602660008b8152602001908152602001600020600501549a509a509a509a509a509a509a509a509a5050509193959799909294969850565b6000600160a060020a03821615156134eb5750600061115d565b600454600160a060020a03838116911614806135145750600554600160a060020a038381169116145b8061352c5750600654600160a060020a038381169116145b806135445750600754600160a060020a038381169116145b8061355c5750600854600160a060020a038381169116145b806135745750600954600160a060020a038381169116145b8061358c5750600a54600160a060020a038381169116145b806135a45750600b54600160a060020a038381169116145b806135bc5750600c54600160a060020a038381169116145b806135d45750600d54600160a060020a038381169116145b806135ec5750600e54600160a060020a038381169116145b806136045750600f54600160a060020a038381169116145b8061361c5750601054600160a060020a038381169116145b806136345750601154600160a060020a038381169116145b8061364c5750601254600160a060020a038381169116145b806136645750601354600160a060020a038381169116145b905061115d565b60175490565b60205481565b6000601b819055506000601c819055506000601a8190555083602660006019548152602001908152602001600020600401819055508260266000601954815260200190815260200160002060050181905550816026600060195481526020019081526020016000206006018190555080602660006019548152602001908152602001600020600701819055506001602160006101000a81548160ff0219169083151502179055506001601960008282540192505081905550600085601954604051602001808381526020018281526020019250505060405160208183030381529060405280519060200120905061010060405190810160405280828152602001601754600101815260200160008152602001600060010281526020016000815260200160008152602001600060010281526020016000600102815250602660006019548152602001908152602001600020600082015181600001556020820151816001015560408201518160020155606082015181600301556080820151816004015560a0820151816005015560c0820151816006015560e082015181600701559050506019546027600083815260200190815260200160002081905550505050505050565b60006064821061384f5750605f61115d565b600a82106138625750600419810161115d565b50600561115d565b6000605a821161387e57506005810161115d565b50605f61115d565b600060195483101580156138aa575060008381526026602052604090206003015415155b15156138b557600080fd5b6000838152602660205260409020600301546021546114d19082908590610100900460ff16611216565b815183516020808501519086015160408087015190880151608080890151908a015160a08b01516000986114ce988e989197909691959094919390928c91906131f9565b608060405190810160405280600490602082028038833950919291505056fe416e206163636f756e742063616e206f6e6c79207769746864726177206f6e636520706572206f70526f756e64206966207175616c6966696564a165627a7a723058200ad0b6bb5608f418cf15a558a4c9e576771d997f33a731026f280e0d49210d140029",
  "source": "pragma solidity ^0.5.2;\n// import \"./lib/safe-math.sol\";\nimport \"./Interfaces/MemberShipInterface.sol\";\nimport \"./Interfaces/QOTInterface.sol\";\n\n// TODO: use safemath\n\ncontract BlockRegistry{\n    // using SafeMath for uint256;\n\n    // Variables\n    address[4] public managers;  // use \"coreManagers\" and \"managers\" as in \"MemberShip.sol\"?\n    address[16] public validators;\n    address public memberContractAddr;\n    address public QOTAddr;\n    address public flagContractAddr;\n    uint public nowSblockNo;  // start from 1\n    uint public sblockTimeStep = 15 minutes;  // it's a minimum timestep\n    // bool public opRoundStatus = true;  // need `true` for 1st round; or simply use \"pause/unpause\"?\n    uint public opRound;\n    uint public articleCount;\n    // variables with `v1` or `vote1`: lottery; with `v2` or `vote2`: claim\n    uint public roundVote1Count;\n    uint public roundVote2Count;\n    uint public vote1Threshold = 40;  // between 5 and 95, step 5\n    uint public vote2Threshold = 40;  // between 5 and 95, step 5\n    uint public v1EndTime;\n    uint public v2EndTime;\n    bool public atV1;\n    uint8 public numRange = 8;  // it means pick x out of 16 numbers; should eventually make it constant\n    uint public maxVoteTime1 = 12 hours;  // duration of v1-vote\n    uint public maxVoteTime2 = 12 hours;  // duration of v2-claim\n    uint public reward = 100;  // should be a global (constant) variable. Or fix a value in QOT\n\n    struct blockStat{\n        address validator;\n        uint blockHeight;  // block.number while submission\n        bytes32 merkleRoot;  // IPFs hash string to bytes32: \n        bytes32 ipfsAddr;  // string to hex (in js): ethUtils.bufferToHex(bs58.decode(ipfsHash).slice(2));\n        uint timestamp;\n        uint uniqArticleCount;\n        uint vote1Count;\n        uint vote2Count;\n        bytes32 opRoundId;\n        bytes32 aidMerkleRoot;\n        bytes32 aidIpfsAddr;\n    }\n    mapping (uint => blockStat) public blockHistory;  // sblockNo to blockStat\n\n    struct opRoundStruct{\n        // update during creation of this opRound\n        bytes32 id;\n        uint initBlockNo;\n        // update in lottery-sblock\n        uint lotteryBlockNo;\n        bytes32 lotteryWinNumber;\n        // update in final-sblock\n        uint minSuccessRate;  // shoud be an integer between 0 and 100; this is used in next opRound\n        uint baseline;  // i.e, the total votes of the vote2 winner\n        bytes32 succesRateDB;  // IPFS contain success rate\n        bytes32 finalListIpfs;\n    }\n    mapping (uint => opRoundStruct) opRoundHistory;\n    mapping (bytes32 => uint) opRoundIdToNum;  // opRound id to opRound number\n    // mapping (uint => uint) public lotterySblockNo;  // give `opRound`, return the corresponding `sblock_no` while lottery happened\n    // mapping (uint => bytes32) public opRoundLog;  // opRound index to opRound id\n    mapping (uint => mapping(address => bool)) opRoundClaimed;\n\n    constructor(address _memberContractAddr, address _QOTAddr) public {\n        memberContractAddr = _memberContractAddr;\n        QOTAddr = _QOTAddr;\n        managers = [ 0xB440ea2780614b3c6a00e512f432785E7dfAFA3E,\n                     0x4AD56641C569C91C64C28a904cda50AE5326Da41,\n                     0xaF7400787c54422Be8B44154B1273661f1259CcD,\n                     address(0)];\n        validators = [ 0xB440ea2780614b3c6a00e512f432785E7dfAFA3E,\n                       0x4AD56641C569C91C64C28a904cda50AE5326Da41,\n                       0xaF7400787c54422Be8B44154B1273661f1259CcD,\n                       address(0), address(0), address(0), address(0), address(0),\n                       address(0), address(0), address(0), address(0), address(0),\n                       address(0), address(0), address(0)];\n        blockHistory[0] = blockStat(msg.sender, block.number, 0x0, 0x0, block.timestamp,\n                                    0, 0, 0, 0x0, 0x0, 0x0);\n        // opRoundHistory[0] = opRoundStruct(0x0000000000000000000000000000000000000000000000000000000000000001,\n        //                                   nowSblockNo, 0, 0x0, 0, 0, 0x0, 0x0);\n        nowSblockNo = 1;\n    }\n\n    // Modifiers\n    modifier managerOnly() {\n        require(msg.sender != address(0));\n        require(msg.sender == managers[0] || msg.sender == managers[1] || msg.sender == managers[2] || msg.sender == managers[3]);\n        _;\n    }\n\n    modifier validatorOnly() {\n        require(msg.sender != address(0));\n        require(msg.sender == validators[0] || msg.sender == validators[1] || msg.sender == validators[2] ||\n                msg.sender == validators[3] || msg.sender == validators[4] || msg.sender == validators[5] ||\n                msg.sender == validators[6] || msg.sender == validators[7] || msg.sender == validators[8] ||\n                msg.sender == validators[9] || msg.sender == validators[10] || msg.sender == validators[11] ||\n                msg.sender == validators[12] || msg.sender == validators[13] || msg.sender == validators[14] ||\n                msg.sender == validators[15]);\n        _;\n    }\n\n    // some adjustable functions only for developing phase\n    function updateMaxVoteTime1(uint _seconds) public validatorOnly {\n        require(_seconds > 180 && _seconds < 86400);  // restrict to a range\n        maxVoteTime1 = _seconds;\n    }\n\n    function updateMaxVoteTime2(uint _seconds) public validatorOnly {\n        require(_seconds > 180 && _seconds < 86400);  // restrict to a range\n        maxVoteTime2 = _seconds;\n    }\n\n\n    function setThreshold(uint _x, uint _y) public validatorOnly{\n        require(_x >= 5 && _x <=95);\n        require(_y >= 5 && _y <=95);\n        vote1Threshold = _x;\n        vote2Threshold = _y;\n    }\n\n    // some internal functions\n    function _increaseThreshold(uint _x) internal pure returns(uint) {\n        if (_x <= 90) {\n            return _x + 5;\n        } else {\n            return 95;\n        }\n    }\n\n    function _decreaseThreshold(uint _x) internal pure returns(uint) {\n        if (_x >= 100) {\n            return 95;\n        } else if (_x >= 10) {\n            return _x - 5;\n        } else {\n            return 5;\n        }\n    }\n\n    function _toNextOpRound(bytes32 _mr, uint _minSuccessRate, uint _baseline, bytes32 _successRateDB, bytes32 _finalListIpfs) internal {\n        roundVote1Count = 0;\n        roundVote2Count = 0;\n        articleCount = 0;\n        // MemberShipInterface(memberContractAddr).updateActiveMemberCount(false);  // note: if too frequent, it will not update unless set 'forced=true'\n\n        // update current opRoundHistory\n        opRoundHistory[opRound].minSuccessRate = _minSuccessRate;  // next opRound need this\n        opRoundHistory[opRound].baseline = _baseline;\n        opRoundHistory[opRound].succesRateDB = _successRateDB;\n        opRoundHistory[opRound].finalListIpfs = _finalListIpfs;\n\n        // for next opRound\n        atV1 = true;\n        opRound += 1;\n        bytes32 _oid = bytes32(keccak256(abi.encodePacked(_mr, opRound)));\n        opRoundHistory[opRound] = opRoundStruct(_oid, nowSblockNo+1, 0, 0x0, 0, 0, 0x0, 0x0);\n        opRoundIdToNum[_oid] = opRound;\n    }\n\n    // create a new sblock\n    function submitMerkleRoot(\n        bytes32 _merkleRoot,\n        bytes32 _ipfsAddr,\n        bytes32 _aidMerkleRoot,\n        bytes32 _aidIpfsAddr,\n        bytes32 _successRateDB,\n        bytes32 _finalListIpfs,\n        uint[5] memory _ints // uint _uniqArticleCount, uint _vote1Count, uint _vote2Count, uint _minSuccessRate, uint _baseline\n    ) public validatorOnly returns (bool) {\n        // Note: a `opRound` contains two parts: `(v1)vote` and `(v2)claim`,\n        //       (v2) may not happen if (v1) takes more than maxVoteTime.\n        // comment some \"require\"s for test purpose\n        // require(block.timestamp >= blockHistory[nowSblockNo] + sblockTimeStep, 'too soon');\n        require(block.timestamp >= blockHistory[nowSblockNo-1].timestamp + 15 minutes);  // 2 min is for test purpose, should be 1 hour(?)\n        require(block.number >= blockHistory[nowSblockNo-1].blockHeight + 15);  // 5 is for test purpose, should be ?\n        require(_merkleRoot != 0x0 && _ipfsAddr != 0x0);\n        require(blockHistory[nowSblockNo-1].merkleRoot != _merkleRoot && blockHistory[nowSblockNo-1].ipfsAddr != _ipfsAddr);  // prevent re-submission\n        require(blockHistory[nowSblockNo].blockHeight == 0 && blockHistory[nowSblockNo].merkleRoot == 0x0 &&\n                blockHistory[nowSblockNo].ipfsAddr == 0x0 && blockHistory[nowSblockNo].timestamp == 0);\n        require(_aidMerkleRoot != 0x0 && _aidIpfsAddr != 0x0);\n        uint _uniqArticleCount = _ints[0];\n        uint _vote1Count = _ints[1];\n        uint _vote2Count = _ints[2];\n        uint _minSuccessRate = _ints[3];\n        uint _baseline = _ints[4];\n        require(_minSuccessRate >= 0 && _minSuccessRate < 100);  // need the equal for genesis round\n        // require: ...\n\n        // a sblock in a opRound cound be of type: genesis, lottery, lottery-NDR, finalist, finalist-NDR, or regular\n        // (NDR = no-draw-round)\n        if (opRound == 0 && articleCount + _uniqArticleCount >= 7) {  // genesis; set small number for test purpose\n            blockHistory[nowSblockNo] = blockStat(\n                msg.sender, block.number, _merkleRoot, _ipfsAddr, block.timestamp,\n                _uniqArticleCount, _vote1Count, _vote2Count, opRoundHistory[opRound].id,\n                _aidMerkleRoot, _aidIpfsAddr\n            );\n            v2EndTime = block.timestamp;  // although no 'claiming', still need to record a time\n            _toNextOpRound(_merkleRoot, 0, 0, 0x0, 0x0);\n        } else if (opRound != 0 && atV1 && (block.timestamp - v2EndTime > maxVoteTime1)) {  // A \"no-draw-round\"! Proceed to next OpRound\n            // TODO: uncomment following lines?\n            // require(minSuccessRate == opRoundHistory[opRound-1].minSuccessRate);\n            // require(_baseline == 0);\n            // require(_finalListIpfs == '0x0');\n            // require(_successRateDB == opRoundHistory[opRound-1].succesRateDB);\n            blockHistory[nowSblockNo] = blockStat(\n                msg.sender, block.number, _merkleRoot, _ipfsAddr, block.timestamp,\n                _uniqArticleCount, _vote1Count, _vote2Count, opRoundHistory[opRound].id,\n                _aidMerkleRoot, _aidIpfsAddr\n            );\n            v1EndTime = block.timestamp-1;  // or don't update? BTW, subtract by 1 to make sure v2EndTime > v1Endtime (or no need?)\n            v2EndTime = block.timestamp;  // in case next submit() fall into this if-statement again\n            vote1Threshold = _decreaseThreshold(vote1Threshold);\n            // opRoundHistory[opRound].lotteryBlockNo = nowSblockNo;  // should keep it 0\n            _toNextOpRound(_merkleRoot, _minSuccessRate, _baseline, _successRateDB, _finalListIpfs);\n        } else if (opRound != 0 && atV1 && isEnoughV1(roundVote1Count+_vote1Count)) {  // lottery\n            require(opRoundHistory[opRound].lotteryBlockNo == 0 && opRoundHistory[opRound].lotteryWinNumber == 0x0);\n            blockHistory[nowSblockNo] = blockStat(\n                msg.sender, block.number, _merkleRoot, _ipfsAddr, block.timestamp,\n                _uniqArticleCount, _vote1Count, _vote2Count, opRoundHistory[opRound].id,\n                _aidMerkleRoot, _aidIpfsAddr\n            );\n            v1EndTime = block.timestamp;\n            vote1Threshold = _increaseThreshold(vote1Threshold);\n            opRoundHistory[opRound].lotteryBlockNo = nowSblockNo;\n            opRoundHistory[opRound].lotteryWinNumber = calcLotteryWinNumber(_merkleRoot, blockhash(block.number-1));\n            roundVote2Count = 0;  // should be 0 already but reset anyway\n            atV1 = false;\n        } else if (opRound != 0 && atV1 == false && (block.timestamp - v1EndTime > maxVoteTime2)) {  // too long! End this Opround-v2 and proceed to next OpRound\n            // TODO: uncomment following lines?\n            // require(minSuccessRate == opRoundHistory[opRound-1].minSuccessRate);\n            // require(_baseline == 0);\n            // require(_finalListIpfs == '0x0');\n            // require(_successRateDB == opRoundHistory[opRound-1].succesRateDB);\n            blockHistory[nowSblockNo] = blockStat(\n                msg.sender, block.number, _merkleRoot, _ipfsAddr, block.timestamp,\n                _uniqArticleCount, _vote1Count, _vote2Count, opRoundHistory[opRound].id,\n                _aidMerkleRoot, _aidIpfsAddr\n            );\n            vote2Threshold = _decreaseThreshold(vote2Threshold);\n            v2EndTime = block.timestamp;\n            // should validator update new _successRateDB in NDR? should _baseline and finalListIpfs have values?\n            _toNextOpRound(_merkleRoot, _minSuccessRate, _baseline, _successRateDB, _finalListIpfs);\n        } else if (opRound != 0 && atV1 == false && isEnoughV2(roundVote2Count+_vote2Count)) { // finalist\n            // require(_finalListIpfs != 0x0 && _successRateDB != 0x0);\n            require(_baseline >= 1);  // what else reasonable value?\n            blockHistory[nowSblockNo] = blockStat(\n                msg.sender, block.number, _merkleRoot, _ipfsAddr, block.timestamp,\n                _uniqArticleCount, _vote1Count, _vote2Count, opRoundHistory[opRound].id,\n                _aidMerkleRoot, _aidIpfsAddr\n            );\n            vote2Threshold = _increaseThreshold(vote2Threshold);\n            v2EndTime = block.timestamp;\n            _toNextOpRound(_merkleRoot, _minSuccessRate, _baseline, _successRateDB, _finalListIpfs);\n        } else {  // regular sblock, only accumulate votes\n            roundVote1Count += _vote1Count;\n            roundVote2Count += _vote2Count;\n            articleCount += _uniqArticleCount;  // right now, this is only used in genesis\n            blockHistory[nowSblockNo] = blockStat(\n                msg.sender, block.number, _merkleRoot, _ipfsAddr, block.timestamp,\n                _uniqArticleCount, _vote1Count, _vote2Count, opRoundHistory[opRound].id,\n                _aidMerkleRoot, _aidIpfsAddr\n            );\n        }\n\n        nowSblockNo += 1;\n\n        return true;\n    }\n\n    function isEnoughV1(uint v1Count) public view returns (bool) {\n        uint activeMemberCount = MemberShipInterface(memberContractAddr).getActiveMemberCount();\n        require(activeMemberCount >= 3);  // '3' is num of coreManagers, or use 1? 100?\n        uint vote1Rate = (100 * v1Count) / activeMemberCount;\n        // assert(vote1Rate <= 100);  // not true if every can vote multiple times\n        if (vote1Rate >= vote1Threshold) {\n            return true;\n        }\n    }\n\n    function isEnoughV2(uint v2Count) public view returns (bool) {\n        uint activeMemberCount = MemberShipInterface(memberContractAddr).getActiveMemberCount();\n        require(activeMemberCount >= 3);  // '3' is num of coreManagers, or use 1? 100?\n        // vote2Rate select ABOUT 25% of people from 50% of member, i.e., ~1/8 of total members\n        // Here try to keep vote2Rate roughly in the range of 0 and 100, so multiply 8 back.\n        // Note that the '1/8' factor is uncertain, could either over or underestimated\n        uint vote2Rate = (8 * 100 * v2Count) / activeMemberCount;\n        if (vote2Rate >= vote2Threshold) {\n            return true;\n        }\n    }\n\n    // Lottery related\n    function calcLotteryWinNumber(bytes32 _mr, bytes32 _bhash) public pure returns(bytes32) {\n        // require(_mr != 0x0 && _bhash != 0x0);  // leave these checks to other function\n        return keccak256(abi.encodePacked(_mr, _bhash));\n    }\n\n    function _getBytes32HexNthDigit(bytes32 _ticket, uint8 _digit) public pure returns(bytes1){\n        require(_digit >=0 && _digit <=63);  // treat bytes32 as 64 hex characters\n        if (_digit % 2 == 1) {\n            return bytes1(uint8(_ticket[_digit/2])%16);  // _digit/2 = Math.floor(digit/2)\n        } else {\n            return bytes1(uint8(_ticket[_digit/2])/16);\n        }\n    }\n\n    function lotteryWins(bytes32 _winHex, bytes32 _ticket, uint8 _numRange) public pure returns(bool) {\n        // NOTE: in real product, should either record _numRange or make it constant\n        // Rule: A ticket wins if: it's X-th digit (count from behind) is Y\n        // where `X` is determined by first digit of `lotteryWinNumber` (in the range of 0 and 3)\n        // and `Y` is the last digit of `winHex`\n        // the rule of determining `X` and `Y` should sync with 'libSampleTicket.js' in 'OptractP2PCli'\n        require(_numRange >= 1 && _numRange <= 16);\n        uint8 refDigit = uint8(_getBytes32HexNthDigit(_winHex, 0)) % 4;\n        bytes1 winHexChar1 = _getBytes32HexNthDigit(_winHex, 63);  // last digit\n        uint8 w1 = uint8(winHexChar1);\n        uint8 w2 = (w1 + _numRange) % 16;\n        uint8 t = uint8(_getBytes32HexNthDigit(_ticket, 63 - refDigit));\n        if (w2 > w1)  {\n            if (t >= w1 && t < w2) {\n                return true;\n            }\n        } else {\n            if (t >= w1 || t < w2) {\n                return true;\n            }\n        }\n    }\n\n    function _isWinningTicket(uint _opRound, bytes32 _ticket) internal view returns(bool) {\n        require(_opRound >= opRound && opRoundHistory[_opRound].lotteryWinNumber != 0x0);\n        bytes32 winHex = opRoundHistory[_opRound].lotteryWinNumber;\n        return lotteryWins(winHex, _ticket, numRange);\n    }\n\n    function setNumRange(uint8 _numRange) public managerOnly {  // for test only\n        require(_numRange >= 1 && _numRange <=15);\n        numRange = _numRange;\n    }\n\n    function isWinningTicket(uint _opRound, bytes32 _ticket) public view returns(bool, uint) {\n        // TODO: add all merkle validation arguments in order to verify the txHash is BEFORE the lottery\n        return (_isWinningTicket(_opRound, _ticket), opRoundHistory[_opRound-1].minSuccessRate);\n    }\n\n    // claim reward\n    function setReward(uint _reward) public managerOnly {\n        require(_reward < reward*10);  // other better restrictions?\n        reward = _reward;\n    }\n\n    function txExist(bytes32[] memory proof, bool[] memory isLeft, bytes32 txHash, uint _sblockNo) public view returns (bool){\n        require(_sblockNo < nowSblockNo);\n        require(blockHistory[_sblockNo].merkleRoot != 0x0);\n        return merkleTreeValidator(proof, isLeft, txHash, blockHistory[_sblockNo].merkleRoot);\n    }\n\n    function aidExist(bytes32[] memory proof, bool[] memory isLeft, bytes32 aid, uint _sblockNo) public view returns (bool){\n        require(_sblockNo < nowSblockNo);\n        require(blockHistory[_sblockNo].aidMerkleRoot != 0x0);\n        return merkleTreeValidator(proof, isLeft, aid, blockHistory[_sblockNo].aidMerkleRoot);\n    }\n\n    function verifySignatureWithPrefix(address _signer, bytes32[6] memory b32s, uint8 _v) public pure returns(bool){\n        // assume the \"payload\" (b32s[3]) already contain prefix. Otherwise need to add prefix:\n        //      bytes memory prefix = \"\\x19Ethereum Signed Message:\\n32\";\n        //      bytes32 prefixedHash = keccak256(abi.encodePacked(prefix, _msg));\n        //      return _signer == ecrecover(prefixedHash, _v, _r, _s);\n        return _signer == ecrecover(b32s[3], _v, b32s[4], b32s[5]);\n    }\n\n    function withdraw(\n        bytes32[6] calldata b32s, uint[5] calldata uints,\n        bytes32[] calldata claimProof, bytes32[] calldata proof1, bytes32[] calldata proof2,\n        uint24[3] calldata uintIsLeft,\n        uint8 _v\n    ) external returns(bool) {\n        // note: v1 is vote by the user in _opRound, v2 is the article used for claim\n        // note: \"b32s\" and \"uints\" are also used in \"verifySignatureWithPrefix()\" and \"genV2Txhash()\":\n        //     b32s = [_comment, v1leaf, v2leaf, _payload, _r, _s]\n        //     uints = [_opRound, v1block, v2block, claimBlock, since]\n        //     uintIsLeft =  [claimIsLeft, v1IsLeft, v2IsLeft]\n        // note about restrictions: the total amount of tx per block is restricted to 2**24, it means\n        //     `0 < proof.length <= 24` and `0 < isLeft.length <= 24`; the bool array `isLeft` of length\n        //     24 can convert to a uint24 (see `_uintToBoolArr()`)\n\n        require(uints[1] <= opRoundHistory[uints[0]].lotteryBlockNo);\n        require(uints[2] > opRoundHistory[uints[0]].lotteryBlockNo);\n        require(_isWinningTicket(uints[1], b32s[1]));\n        require(_isWinningTicket(uints[2], b32s[2]));\n        require(opRound >= uints[0] && opRound < uints[0] + 16);  // can withdraw at this and some opRounds later\n\n        // verify signature, generate txHash and proof the existence of all txHashes\n        require(verifySignatureWithPrefix(msg.sender, b32s, _v));\n        bytes32 txhash = genV2TxhashWrapper(msg.sender, b32s, uints, _v);\n        require(txExistUintSide(claimProof, uintIsLeft[0], txhash, uints[3]));\n        require(txExistUintSide(proof1, uintIsLeft[1], b32s[1], uints[1]));\n        require(txExistUintSide(proof2, uintIsLeft[2], b32s[2], uints[2]));\n\n        require(opRoundClaimed[uints[0]][msg.sender] == false, \"An account can only withdraw once per opRound if qualified\");\n        opRoundClaimed[uints[0]][msg.sender] = true;\n\n        QOTInterface(QOTAddr).mint(msg.sender, reward);\n    }\n\n    function genV2TxhashWrapper(address _sender, bytes32[6] memory b32s, uint[5] memory uints, uint8 _v) internal view returns(bytes32) {\n        return genV2Txhash(_sender, uints[0], b32s[0], uints[1], b32s[1], uints[2], b32s[2], uints[4], _v, b32s[4], b32s[5]);\n    }\n\n    function genV2Txhash(\n        address _sender, uint _opRound, bytes32 _comment, uint v1block, bytes32 v1leaf, uint v2block, bytes32 v2leaf, uint since,\n        uint8 _v, bytes32 _r, bytes32 _s\n    ) public view returns(bytes32) {\n        //   ['uint', 'address', 'bytes32', 'bytes32', 'bytes32', 'uint', 'bytes32', 'uint', 'bytes32', 'uint', 'uint8', 'bytes32', 'bytes32]],\n        //   [opround,  account,  comment,        aid,       oid, v1block,   v1leaf, v2block,   v2leaf,  since, v, r, s]\n        return(keccak256(abi.encodePacked(  // TODO: in daemon.js, also use keccak256\n                _opRound,\n                hex\"000000000000000000000000\", _sender,  // nodejs abi.encodeParameter append zeros to make it 32 bytes\n                _comment,\n                hex\"11be020000000000000000000000000000000000000000000000000000000000\",  // aid\n                opRoundHistory[_opRound].id,  // oid\n                v1block,\n                v1leaf,\n                v2block,\n                v2leaf,\n                since,\n                hex\"00000000000000000000000000000000000000000000000000000000000000\",  _v,\n                _r, _s\n        )));\n    }\n\n    function txExistUintSide(bytes32[] memory proof, uint24 isLeftInt, bytes32 txHash, uint _sblockNo) public view returns (bool){\n        require(_sblockNo < nowSblockNo);\n        require(blockHistory[_sblockNo].merkleRoot != 0x0);\n        bool[] memory isLeft = _uintToBoolArr(isLeftInt, uint8(proof.length));\n        return merkleTreeValidator(proof, isLeft, txHash, blockHistory[_sblockNo].merkleRoot);\n    }\n\n    function _uintToBoolArr(uint24 x, uint8 length) public pure returns (bool[] memory isLeft){\n        // for example, if x=10, length=6 => x in binary is '001010' => bool array [f, f, t, f, t, f]\n        require(length >= 1 && length <= 24);\n        isLeft = new bool[](length);\n        for (uint i=0; i<length; i++){\n            if (x%2 == 1) {\n                isLeft[length-i-1] = true;\n            }\n            x = x >> 1;\n        }\n        return(isLeft);\n    }\n\n    // merkle tree and leaves\n    function merkleTreeValidator(\n        bytes32[] memory proof,\n        bool[] memory isLeft,\n        bytes32 targetLeaf,\n        bytes32 _merkleRoot\n    ) public pure returns (bool) {\n        require(proof.length < 32);  // 2**32 ~ 4.3e9 leaves!\n        require(proof.length == isLeft.length);\n\n        bytes32 targetHash = targetLeaf;\n        for (uint256 i = 0; i < proof.length; i++) {\n            bytes32 proofEle = proof[i];\n            if (isLeft[i]) {\n                targetHash = keccak256(abi.encodePacked(proofEle, targetHash));\n            } else if (!isLeft[i]) {\n                targetHash = keccak256(abi.encodePacked(targetHash, proofEle));\n            } else {\n                return false;\n            }\n        }\n        return targetHash == _merkleRoot;\n    }\n\n    // query\n    function getBlockNo() external view returns (uint) {\n        return nowSblockNo;\n    }\n\n    function getBlockInfo(uint _sblockNo) external view returns (uint, bytes32, bytes32, bytes32, bytes32, bytes32, address) {\n        // TODO: update the results\n        return (blockHistory[_sblockNo].blockHeight,\n                blockHistory[_sblockNo].merkleRoot,\n                blockHistory[_sblockNo].ipfsAddr,\n                blockHistory[_sblockNo].aidMerkleRoot,\n                blockHistory[_sblockNo].aidIpfsAddr,\n                blockHistory[_sblockNo].opRoundId,\n                blockHistory[_sblockNo].validator\n               );\n    }\n\n    function queryValidator(uint _idx) external view returns (address) {\n        require(_idx>=0 && _idx < 16);\n        return validators[_idx];\n    }\n\n    function isValidator(address _addr) external view returns (bool) {\n        if (_addr == address(0)) {\n            return false;\n        } else {\n            return (_addr == validators[0] || _addr == validators[1] || _addr == validators[2] ||\n                    _addr == validators[3] || _addr == validators[4] || _addr == validators[5] ||\n                    _addr == validators[6] || _addr == validators[7] || _addr == validators[8] ||\n                    _addr == validators[9] || _addr == validators[10] || _addr == validators[11] ||\n                    _addr == validators[12] || _addr == validators[13] || _addr == validators[14] ||\n                    _addr == validators[15]);\n        }\n    }\n\n    function queryManagers() external view returns (address[4] memory) {\n        return managers;\n    }\n\n    function queryOpRound() external view returns (uint) {\n        return opRound;\n    }\n\n    function queryOpRoundId(uint _opRound) external view returns (bytes32) {\n        if (_opRound != 0) {\n            return opRoundHistory[_opRound].id;\n        } else {\n            return opRoundHistory[opRound].id;  // current opRound\n        }\n    }\n\n    function queryOpRoundLottery(uint _opRound) external view returns (uint, uint, bytes32) {\n        uint i;\n        if (_opRound == 0) {\n            i = opRound;\n        } else {\n            i = _opRound;\n        }\n        return (i, opRoundHistory[i].lotteryBlockNo, opRoundHistory[i].lotteryWinNumber);\n    }\n\n    function queryOpRoundInfo(uint _opRound) external view returns (uint, bytes32, uint) {\n        uint i;\n        if (_opRound == 0) {\n            i = opRound;\n        } else {\n            i = _opRound;\n        }\n        return (i, opRoundHistory[i].id, opRoundHistory[i].initBlockNo);\n    }\n\n    function queryOpRoundResult(uint _opRound) external view returns (uint, bytes32, uint, uint, bytes32, bytes32, uint, bytes32, uint) {\n        // this function returns default values (0 and 0x0) for current pending opRound\n        // this function is different from other `queryOpRound*()` in that a input of 0 does not mean query current opRound\n        // For opRoundHistory[0], the id is '0x1' and the initBlockNo is the block.height during construction\n        uint i;\n        uint op;\n        if (_opRound == opRound) {  // return (0, 0x0, 0, 0, 0x0, 0x0, 0, 0x0, 0);\n            op = 0;\n            i = opRound + 2;\n            // 'stack too deep' if return (0, 0x0, ...) here and also return in next else-block!?\n        } else {\n            op = _opRound;\n            i = _opRound;\n        }\n        return (op,\n                opRoundHistory[i].id,\n                opRoundHistory[i].initBlockNo,\n                opRoundHistory[i].minSuccessRate,\n                opRoundHistory[i].succesRateDB,\n                opRoundHistory[i].finalListIpfs,\n                opRoundHistory[i].lotteryBlockNo,\n                opRoundHistory[i].lotteryWinNumber,\n                opRoundHistory[i].baseline\n               );\n    }\n\n    function queryOpRoundProgress() external view returns (uint, bool, uint, uint, uint, uint) {\n        return(articleCount, atV1, v1EndTime, v2EndTime, roundVote1Count, roundVote2Count);\n    }\n\n    function queryVoteThresholds() external view returns(uint, uint, uint) {\n        return (opRound, vote1Threshold, vote2Threshold);\n    }\n\n    function queryFinalist(uint _opRound) external view returns(uint, uint, bytes32){\n        uint i;\n        if (_opRound == 0) {\n            i = opRound;\n        } else {\n            i = _opRound;\n        }\n        return (i, opRoundHistory[i].baseline, opRoundHistory[i].finalListIpfs);\n    }\n\n    // upgradable\n    function setFlagContractAddr(address _addr) public managerOnly returns(bool) {\n        // require(_addr != 0); // can be address(0) in the beginning\n        flagContractAddr = _addr;\n        return true;\n    }\n\n    function setValidator(address _newValidator, uint _idx) public managerOnly returns (bool) {\n        require(_newValidator != address(0));\n        require(_idx >=0 && _idx < 16);\n        validators[_idx] = _newValidator;\n        return true;\n    }\n\n    function setManager(address _newManager) public managerOnly returns (bool) {\n        // assume no need to change first 3 managers\n        managers[3] = _newManager;\n        return true;\n    }\n\n}\n",
  "sourcePath": "/home/kai/Work/project/OptractContract/contracts/BlockRegistry.sol",
  "compiler": {
    "name": "solc",
    "version": "0.5.2+commit.1df8f40c.Linux.g++"
  },
  "schemaVersion": "3.0.16",
  "updatedAt": "2019-10-15T15:22:47.714Z",
  "devdoc": {
    "methods": {}
  },
  "userdoc": {
    "methods": {}
  }
}