{
  "contractName": "BlockRegistry",
  "abi": [
    {
      "constant": true,
      "inputs": [],
      "name": "maxVoteTime",
      "outputs": [
        {
          "name": "",
          "type": "uint256"
        }
      ],
      "payable": false,
      "stateMutability": "view",
      "type": "function",
      "signature": "0x06937af5"
    },
    {
      "constant": true,
      "inputs": [],
      "name": "sblockTimeStep",
      "outputs": [
        {
          "name": "",
          "type": "uint256"
        }
      ],
      "payable": false,
      "stateMutability": "view",
      "type": "function",
      "signature": "0x17ca3256"
    },
    {
      "constant": true,
      "inputs": [
        {
          "name": "",
          "type": "uint256"
        }
      ],
      "name": "validators",
      "outputs": [
        {
          "name": "",
          "type": "address"
        }
      ],
      "payable": false,
      "stateMutability": "view",
      "type": "function",
      "signature": "0x35aa2e44"
    },
    {
      "constant": true,
      "inputs": [
        {
          "name": "",
          "type": "uint256"
        }
      ],
      "name": "managers",
      "outputs": [
        {
          "name": "",
          "type": "address"
        }
      ],
      "payable": false,
      "stateMutability": "view",
      "type": "function",
      "signature": "0x3d39c260"
    },
    {
      "constant": true,
      "inputs": [],
      "name": "articleCount",
      "outputs": [
        {
          "name": "",
          "type": "uint256"
        }
      ],
      "payable": false,
      "stateMutability": "view",
      "type": "function",
      "signature": "0x414e28b0"
    },
    {
      "constant": true,
      "inputs": [],
      "name": "vote1Threshold",
      "outputs": [
        {
          "name": "",
          "type": "uint256"
        }
      ],
      "payable": false,
      "stateMutability": "view",
      "type": "function",
      "signature": "0x417d63e9"
    },
    {
      "constant": true,
      "inputs": [],
      "name": "numRange",
      "outputs": [
        {
          "name": "",
          "type": "uint8"
        }
      ],
      "payable": false,
      "stateMutability": "view",
      "type": "function",
      "signature": "0x5080ad26"
    },
    {
      "constant": true,
      "inputs": [],
      "name": "roundVote2Count",
      "outputs": [
        {
          "name": "",
          "type": "uint256"
        }
      ],
      "payable": false,
      "stateMutability": "view",
      "type": "function",
      "signature": "0x7376faf2"
    },
    {
      "constant": true,
      "inputs": [],
      "name": "vote2Threshold",
      "outputs": [
        {
          "name": "",
          "type": "uint256"
        }
      ],
      "payable": false,
      "stateMutability": "view",
      "type": "function",
      "signature": "0x82eea47a"
    },
    {
      "constant": true,
      "inputs": [],
      "name": "atV1",
      "outputs": [
        {
          "name": "",
          "type": "bool"
        }
      ],
      "payable": false,
      "stateMutability": "view",
      "type": "function",
      "signature": "0x9bb71caa"
    },
    {
      "constant": true,
      "inputs": [],
      "name": "v1EndTime",
      "outputs": [
        {
          "name": "",
          "type": "uint256"
        }
      ],
      "payable": false,
      "stateMutability": "view",
      "type": "function",
      "signature": "0xa3629b04"
    },
    {
      "constant": true,
      "inputs": [],
      "name": "opRound",
      "outputs": [
        {
          "name": "",
          "type": "uint256"
        }
      ],
      "payable": false,
      "stateMutability": "view",
      "type": "function",
      "signature": "0xb9fedac7"
    },
    {
      "constant": true,
      "inputs": [],
      "name": "memberContractAddr",
      "outputs": [
        {
          "name": "",
          "type": "address"
        }
      ],
      "payable": false,
      "stateMutability": "view",
      "type": "function",
      "signature": "0xc170f356"
    },
    {
      "constant": true,
      "inputs": [],
      "name": "roundVote1Count",
      "outputs": [
        {
          "name": "",
          "type": "uint256"
        }
      ],
      "payable": false,
      "stateMutability": "view",
      "type": "function",
      "signature": "0xd64d8c02"
    },
    {
      "constant": true,
      "inputs": [
        {
          "name": "",
          "type": "uint256"
        }
      ],
      "name": "blockHistory",
      "outputs": [
        {
          "name": "validator",
          "type": "address"
        },
        {
          "name": "blockHeight",
          "type": "uint256"
        },
        {
          "name": "merkleRoot",
          "type": "bytes32"
        },
        {
          "name": "ipfsAddr",
          "type": "bytes32"
        },
        {
          "name": "timestamp",
          "type": "uint256"
        },
        {
          "name": "uniqArticleCount",
          "type": "uint256"
        },
        {
          "name": "vote1Count",
          "type": "uint256"
        },
        {
          "name": "vote2Count",
          "type": "uint256"
        },
        {
          "name": "opRoundId",
          "type": "bytes32"
        }
      ],
      "payable": false,
      "stateMutability": "view",
      "type": "function",
      "signature": "0xde250ace"
    },
    {
      "constant": true,
      "inputs": [],
      "name": "nowSblockNo",
      "outputs": [
        {
          "name": "",
          "type": "uint256"
        }
      ],
      "payable": false,
      "stateMutability": "view",
      "type": "function",
      "signature": "0xdeefebc1"
    },
    {
      "constant": true,
      "inputs": [],
      "name": "v2EndTime",
      "outputs": [
        {
          "name": "",
          "type": "uint256"
        }
      ],
      "payable": false,
      "stateMutability": "view",
      "type": "function",
      "signature": "0xfd0492b1"
    },
    {
      "inputs": [
        {
          "name": "_memberContractAddr",
          "type": "address"
        }
      ],
      "payable": false,
      "stateMutability": "nonpayable",
      "type": "constructor",
      "signature": "constructor"
    },
    {
      "constant": false,
      "inputs": [
        {
          "name": "_seconds",
          "type": "uint256"
        }
      ],
      "name": "updateMaxVoteTime",
      "outputs": [],
      "payable": false,
      "stateMutability": "nonpayable",
      "type": "function",
      "signature": "0x9786007a"
    },
    {
      "constant": false,
      "inputs": [
        {
          "name": "_x",
          "type": "uint256"
        },
        {
          "name": "_y",
          "type": "uint256"
        }
      ],
      "name": "setThreshold",
      "outputs": [],
      "payable": false,
      "stateMutability": "nonpayable",
      "type": "function",
      "signature": "0xb9c36209"
    },
    {
      "constant": false,
      "inputs": [
        {
          "name": "_merkleRoot",
          "type": "bytes32"
        },
        {
          "name": "_ipfsAddr",
          "type": "bytes32"
        },
        {
          "name": "_uniqArticleCount",
          "type": "uint256"
        },
        {
          "name": "_vote1Count",
          "type": "uint256"
        },
        {
          "name": "_vote2Count",
          "type": "uint256"
        },
        {
          "name": "_minSuccessRate",
          "type": "uint8"
        },
        {
          "name": "_baseline",
          "type": "uint256"
        },
        {
          "name": "_successRateDB",
          "type": "bytes32"
        },
        {
          "name": "_finalListIpfs",
          "type": "bytes32"
        }
      ],
      "name": "submitMerkleRoot",
      "outputs": [
        {
          "name": "",
          "type": "bool"
        }
      ],
      "payable": false,
      "stateMutability": "nonpayable",
      "type": "function",
      "signature": "0xc1006b8a"
    },
    {
      "constant": true,
      "inputs": [
        {
          "name": "v1Count",
          "type": "uint256"
        }
      ],
      "name": "isEnoughV1",
      "outputs": [
        {
          "name": "",
          "type": "bool"
        }
      ],
      "payable": false,
      "stateMutability": "view",
      "type": "function",
      "signature": "0x0137aca4"
    },
    {
      "constant": true,
      "inputs": [
        {
          "name": "v2Count",
          "type": "uint256"
        }
      ],
      "name": "isEnoughV2",
      "outputs": [
        {
          "name": "",
          "type": "bool"
        }
      ],
      "payable": false,
      "stateMutability": "view",
      "type": "function",
      "signature": "0x6cb0999b"
    },
    {
      "constant": true,
      "inputs": [
        {
          "name": "_mr",
          "type": "bytes32"
        },
        {
          "name": "_bhash",
          "type": "bytes32"
        }
      ],
      "name": "calcLotteryWinNumber",
      "outputs": [
        {
          "name": "",
          "type": "bytes32"
        }
      ],
      "payable": false,
      "stateMutability": "pure",
      "type": "function",
      "signature": "0x513536c1"
    },
    {
      "constant": true,
      "inputs": [
        {
          "name": "_ticket",
          "type": "bytes32"
        },
        {
          "name": "_digit",
          "type": "uint8"
        }
      ],
      "name": "_getBytes32HexNthDigit",
      "outputs": [
        {
          "name": "",
          "type": "bytes1"
        }
      ],
      "payable": false,
      "stateMutability": "pure",
      "type": "function",
      "signature": "0xd17eaa47"
    },
    {
      "constant": true,
      "inputs": [
        {
          "name": "_winHex",
          "type": "bytes32"
        },
        {
          "name": "_ticket",
          "type": "bytes32"
        },
        {
          "name": "_numRange",
          "type": "uint8"
        }
      ],
      "name": "lotteryWins",
      "outputs": [
        {
          "name": "",
          "type": "bool"
        }
      ],
      "payable": false,
      "stateMutability": "pure",
      "type": "function",
      "signature": "0x1b9d40ba"
    },
    {
      "constant": false,
      "inputs": [
        {
          "name": "_numRange",
          "type": "uint8"
        }
      ],
      "name": "setNumRange",
      "outputs": [],
      "payable": false,
      "stateMutability": "nonpayable",
      "type": "function",
      "signature": "0x19305d85"
    },
    {
      "constant": true,
      "inputs": [
        {
          "name": "_opRound",
          "type": "uint256"
        },
        {
          "name": "_ticket",
          "type": "bytes32"
        }
      ],
      "name": "isWinningTicket",
      "outputs": [
        {
          "name": "",
          "type": "bool"
        },
        {
          "name": "",
          "type": "uint8"
        }
      ],
      "payable": false,
      "stateMutability": "view",
      "type": "function",
      "signature": "0x53311f95"
    },
    {
      "constant": true,
      "inputs": [
        {
          "name": "proof",
          "type": "bytes32[]"
        },
        {
          "name": "isLeft",
          "type": "bool[]"
        },
        {
          "name": "txHash",
          "type": "bytes32"
        },
        {
          "name": "_sblockNo",
          "type": "uint256"
        }
      ],
      "name": "txExist",
      "outputs": [
        {
          "name": "",
          "type": "bool"
        }
      ],
      "payable": false,
      "stateMutability": "view",
      "type": "function",
      "signature": "0x316f0d84"
    },
    {
      "constant": true,
      "inputs": [
        {
          "name": "_signer",
          "type": "address"
        },
        {
          "name": "_msg",
          "type": "bytes32"
        },
        {
          "name": "_v",
          "type": "uint8"
        },
        {
          "name": "_r",
          "type": "bytes32"
        },
        {
          "name": "_s",
          "type": "bytes32"
        }
      ],
      "name": "verifySignature",
      "outputs": [
        {
          "name": "",
          "type": "bool"
        }
      ],
      "payable": false,
      "stateMutability": "pure",
      "type": "function",
      "signature": "0x02bf9e7f"
    },
    {
      "constant": false,
      "inputs": [
        {
          "name": "_opRound",
          "type": "uint256"
        },
        {
          "name": "proof",
          "type": "bytes32[]"
        },
        {
          "name": "isLeft",
          "type": "bool[]"
        },
        {
          "name": "txHash",
          "type": "bytes32"
        },
        {
          "name": "_sblockNo",
          "type": "uint256"
        }
      ],
      "name": "claimReward",
      "outputs": [
        {
          "name": "",
          "type": "bool"
        }
      ],
      "payable": false,
      "stateMutability": "nonpayable",
      "type": "function",
      "signature": "0xf3297aa3"
    },
    {
      "constant": true,
      "inputs": [
        {
          "name": "proof",
          "type": "bytes32[]"
        },
        {
          "name": "isLeft",
          "type": "bool[]"
        },
        {
          "name": "targetLeaf",
          "type": "bytes32"
        },
        {
          "name": "_merkleRoot",
          "type": "bytes32"
        }
      ],
      "name": "merkleTreeValidator",
      "outputs": [
        {
          "name": "",
          "type": "bool"
        }
      ],
      "payable": false,
      "stateMutability": "pure",
      "type": "function",
      "signature": "0xb8f69e37"
    },
    {
      "constant": true,
      "inputs": [],
      "name": "getBlockNo",
      "outputs": [
        {
          "name": "",
          "type": "uint256"
        }
      ],
      "payable": false,
      "stateMutability": "view",
      "type": "function",
      "signature": "0xfba0e4bb"
    },
    {
      "constant": true,
      "inputs": [
        {
          "name": "_sblockNo",
          "type": "uint256"
        }
      ],
      "name": "getBlockInfo",
      "outputs": [
        {
          "name": "",
          "type": "uint256"
        },
        {
          "name": "",
          "type": "bytes32"
        },
        {
          "name": "",
          "type": "bytes32"
        }
      ],
      "payable": false,
      "stateMutability": "view",
      "type": "function",
      "signature": "0xbb141cf4"
    },
    {
      "constant": true,
      "inputs": [
        {
          "name": "_idx",
          "type": "uint256"
        }
      ],
      "name": "queryValidator",
      "outputs": [
        {
          "name": "",
          "type": "address"
        }
      ],
      "payable": false,
      "stateMutability": "view",
      "type": "function",
      "signature": "0x810e0b20"
    },
    {
      "constant": true,
      "inputs": [
        {
          "name": "_addr",
          "type": "address"
        }
      ],
      "name": "isValidator",
      "outputs": [
        {
          "name": "",
          "type": "bool"
        }
      ],
      "payable": false,
      "stateMutability": "view",
      "type": "function",
      "signature": "0xfacd743b"
    },
    {
      "constant": true,
      "inputs": [],
      "name": "queryManagers",
      "outputs": [
        {
          "name": "",
          "type": "address[4]"
        }
      ],
      "payable": false,
      "stateMutability": "view",
      "type": "function",
      "signature": "0xca48c69d"
    },
    {
      "constant": true,
      "inputs": [],
      "name": "queryOpRound",
      "outputs": [
        {
          "name": "",
          "type": "uint256"
        }
      ],
      "payable": false,
      "stateMutability": "view",
      "type": "function",
      "signature": "0x8ccbaca4"
    },
    {
      "constant": true,
      "inputs": [
        {
          "name": "_opRound",
          "type": "uint256"
        }
      ],
      "name": "queryOpRoundId",
      "outputs": [
        {
          "name": "",
          "type": "bytes32"
        }
      ],
      "payable": false,
      "stateMutability": "view",
      "type": "function",
      "signature": "0xd9eb08f6"
    },
    {
      "constant": true,
      "inputs": [
        {
          "name": "_opRound",
          "type": "uint256"
        }
      ],
      "name": "queryOpRoundLottery",
      "outputs": [
        {
          "name": "",
          "type": "uint256"
        },
        {
          "name": "",
          "type": "uint256"
        },
        {
          "name": "",
          "type": "bytes32"
        }
      ],
      "payable": false,
      "stateMutability": "view",
      "type": "function",
      "signature": "0x7c14de6c"
    },
    {
      "constant": true,
      "inputs": [
        {
          "name": "_opRound",
          "type": "uint256"
        }
      ],
      "name": "queryOpRoundInfo",
      "outputs": [
        {
          "name": "",
          "type": "uint256"
        },
        {
          "name": "",
          "type": "bytes32"
        },
        {
          "name": "",
          "type": "uint256"
        }
      ],
      "payable": false,
      "stateMutability": "view",
      "type": "function",
      "signature": "0x57ee34a6"
    },
    {
      "constant": true,
      "inputs": [
        {
          "name": "_opRound",
          "type": "uint256"
        }
      ],
      "name": "queryOpRoundResult",
      "outputs": [
        {
          "name": "",
          "type": "uint256"
        },
        {
          "name": "",
          "type": "bytes32"
        },
        {
          "name": "",
          "type": "uint256"
        },
        {
          "name": "",
          "type": "uint8"
        },
        {
          "name": "",
          "type": "bytes32"
        },
        {
          "name": "",
          "type": "bytes32"
        },
        {
          "name": "",
          "type": "uint256"
        },
        {
          "name": "",
          "type": "bytes32"
        },
        {
          "name": "",
          "type": "uint256"
        }
      ],
      "payable": false,
      "stateMutability": "view",
      "type": "function",
      "signature": "0xf47dae9a"
    },
    {
      "constant": true,
      "inputs": [],
      "name": "queryOpRoundProgress",
      "outputs": [
        {
          "name": "",
          "type": "uint256"
        },
        {
          "name": "",
          "type": "bool"
        },
        {
          "name": "",
          "type": "uint256"
        },
        {
          "name": "",
          "type": "uint256"
        },
        {
          "name": "",
          "type": "uint256"
        },
        {
          "name": "",
          "type": "uint256"
        }
      ],
      "payable": false,
      "stateMutability": "view",
      "type": "function",
      "signature": "0x2656de1a"
    },
    {
      "constant": true,
      "inputs": [],
      "name": "queryVoteThresholds",
      "outputs": [
        {
          "name": "",
          "type": "uint256"
        },
        {
          "name": "",
          "type": "uint256"
        },
        {
          "name": "",
          "type": "uint256"
        }
      ],
      "payable": false,
      "stateMutability": "view",
      "type": "function",
      "signature": "0x86e18f82"
    },
    {
      "constant": true,
      "inputs": [
        {
          "name": "_opRound",
          "type": "uint256"
        }
      ],
      "name": "queryFinalist",
      "outputs": [
        {
          "name": "",
          "type": "uint256"
        },
        {
          "name": "",
          "type": "uint256"
        },
        {
          "name": "",
          "type": "bytes32"
        }
      ],
      "payable": false,
      "stateMutability": "view",
      "type": "function",
      "signature": "0xec5caf2a"
    },
    {
      "constant": false,
      "inputs": [
        {
          "name": "_newValidator",
          "type": "address"
        },
        {
          "name": "_idx",
          "type": "uint256"
        }
      ],
      "name": "setValidator",
      "outputs": [
        {
          "name": "",
          "type": "bool"
        }
      ],
      "payable": false,
      "stateMutability": "nonpayable",
      "type": "function",
      "signature": "0xabb9406b"
    },
    {
      "constant": false,
      "inputs": [
        {
          "name": "_newManager",
          "type": "address"
        }
      ],
      "name": "setManager",
      "outputs": [
        {
          "name": "",
          "type": "bool"
        }
      ],
      "payable": false,
      "stateMutability": "nonpayable",
      "type": "function",
      "signature": "0xd0ebdbe7"
    }
  ],
  "bytecode": "0x60806040526103846016556028601b556028601c556008601f60016101000a81548160ff021916908360ff1602179055506103846020553480156200004357600080fd5b5060405160208062005aaa833981018060405260208110156200006557600080fd5b810190808051906020019092919050505080601460006101000a81548173ffffffffffffffffffffffffffffffffffffffff021916908373ffffffffffffffffffffffffffffffffffffffff16021790555060806040519081016040528073b440ea2780614b3c6a00e512f432785e7dfafa3e73ffffffffffffffffffffffffffffffffffffffff1673ffffffffffffffffffffffffffffffffffffffff168152602001734ad56641c569c91c64c28a904cda50ae5326da4173ffffffffffffffffffffffffffffffffffffffff1673ffffffffffffffffffffffffffffffffffffffff16815260200173af7400787c54422be8b44154b1273661f1259ccd73ffffffffffffffffffffffffffffffffffffffff1673ffffffffffffffffffffffffffffffffffffffff168152602001600073ffffffffffffffffffffffffffffffffffffffff1673ffffffffffffffffffffffffffffffffffffffff168152506000906004620001d892919062000683565b506102006040519081016040528073b440ea2780614b3c6a00e512f432785e7dfafa3e73ffffffffffffffffffffffffffffffffffffffff1673ffffffffffffffffffffffffffffffffffffffff168152602001734ad56641c569c91c64c28a904cda50ae5326da4173ffffffffffffffffffffffffffffffffffffffff1673ffffffffffffffffffffffffffffffffffffffff16815260200173af7400787c54422be8b44154b1273661f1259ccd73ffffffffffffffffffffffffffffffffffffffff1673ffffffffffffffffffffffffffffffffffffffff168152602001600073ffffffffffffffffffffffffffffffffffffffff1673ffffffffffffffffffffffffffffffffffffffff168152602001600073ffffffffffffffffffffffffffffffffffffffff1673ffffffffffffffffffffffffffffffffffffffff168152602001600073ffffffffffffffffffffffffffffffffffffffff1673ffffffffffffffffffffffffffffffffffffffff168152602001600073ffffffffffffffffffffffffffffffffffffffff1673ffffffffffffffffffffffffffffffffffffffff168152602001600073ffffffffffffffffffffffffffffffffffffffff1673ffffffffffffffffffffffffffffffffffffffff168152602001600073ffffffffffffffffffffffffffffffffffffffff1673ffffffffffffffffffffffffffffffffffffffff168152602001600073ffffffffffffffffffffffffffffffffffffffff1673ffffffffffffffffffffffffffffffffffffffff168152602001600073ffffffffffffffffffffffffffffffffffffffff1673ffffffffffffffffffffffffffffffffffffffff168152602001600073ffffffffffffffffffffffffffffffffffffffff1673ffffffffffffffffffffffffffffffffffffffff168152602001600073ffffffffffffffffffffffffffffffffffffffff1673ffffffffffffffffffffffffffffffffffffffff168152602001600073ffffffffffffffffffffffffffffffffffffffff1673ffffffffffffffffffffffffffffffffffffffff168152602001600073ffffffffffffffffffffffffffffffffffffffff1673ffffffffffffffffffffffffffffffffffffffff168152602001600073ffffffffffffffffffffffffffffffffffffffff1673ffffffffffffffffffffffffffffffffffffffff1681525060049060106200055f92919062000705565b50610120604051908101604052803373ffffffffffffffffffffffffffffffffffffffff168152602001438152602001600060010281526020016000600102815260200142815260200160008152602001600081526020016000815260200160006001028152506021600080815260200190815260200160002060008201518160000160006101000a81548173ffffffffffffffffffffffffffffffffffffffff021916908373ffffffffffffffffffffffffffffffffffffffff1602179055506020820151816001015560408201518160020155606082015181600301556080820151816004015560a0820151816005015560c0820151816006015560e082015181600701556101008201518160080155905050600160158190555050620007cd565b8260048101928215620006f2579160200282015b82811115620006f15782518260006101000a81548173ffffffffffffffffffffffffffffffffffffffff021916908373ffffffffffffffffffffffffffffffffffffffff1602179055509160200191906001019062000697565b5b50905062000701919062000787565b5090565b826010810192821562000774579160200282015b82811115620007735782518260006101000a81548173ffffffffffffffffffffffffffffffffffffffff021916908373ffffffffffffffffffffffffffffffffffffffff1602179055509160200191906001019062000719565b5b50905062000783919062000787565b5090565b620007ca91905b80821115620007c657600081816101000a81549073ffffffffffffffffffffffffffffffffffffffff0219169055506001016200078e565b5090565b90565b6152cd80620007dd6000396000f3fe608060405234801561001057600080fd5b50600436106102a7576000357c0100000000000000000000000000000000000000000000000000000000900480639786007a11610179578063d0ebdbe7116100eb578063ec5caf2a116100a4578063ec5caf2a14610fee578063f3297aa31461103e578063f47dae9a14611142578063facd743b146111c2578063fba0e4bb1461121e578063fd0492b11461123c576102a7565b8063d0ebdbe714610ddb578063d17eaa4714610e37578063d64d8c0214610eca578063d9eb08f614610ee8578063de250ace14610f2a578063deefebc114610fd0576102a7565b8063b9c362091161013d578063b9c3620914610c0b578063b9fedac714610c43578063bb141cf414610c61578063c1006b8a14610cb1578063c170f35614610d4b578063ca48c69d14610d95576102a7565b80639786007a146109bf5780639bb71caa146109ed578063a3629b0414610a0f578063abb9406b14610a2d578063b8f69e3714610a93576102a7565b8063417d63e91161021d5780637376faf2116101d65780637376faf21461087b5780637c14de6c14610899578063810e0b20146108e957806382eea47a1461095757806386e18f82146109755780638ccbaca4146109a1576102a7565b8063417d63e9146106fa5780635080ad2614610718578063513536c11461073c57806353311f951461078857806357ee34a6146107e55780636cb0999b14610835576102a7565b80631b9d40ba1161026f5780631b9d40ba146103e65780632656de1a14610443578063316f0d841461048857806335aa2e44146106005780633d39c2601461066e578063414e28b0146106dc576102a7565b80630137aca4146102ac57806302bf9e7f146102f257806306937af51461037957806317ca32561461039757806319305d85146103b5575b600080fd5b6102d8600480360360208110156102c257600080fd5b810190808035906020019092919050505061125a565b604051808215151515815260200191505060405180910390f35b61035f600480360360a081101561030857600080fd5b81019080803573ffffffffffffffffffffffffffffffffffffffff16906020019092919080359060200190929190803560ff169060200190929190803590602001909291908035906020019092919050505061135f565b604051808215151515815260200191505060405180910390f35b610381611406565b6040518082815260200191505060405180910390f35b61039f61140c565b6040518082815260200191505060405180910390f35b6103e4600480360360208110156103cb57600080fd5b81019080803560ff169060200190929190505050611412565b005b610429600480360360608110156103fc57600080fd5b810190808035906020019092919080359060200190929190803560ff16906020019092919050505061162e565b604051808215151515815260200191505060405180910390f35b61044b611791565b6040518087815260200186151515158152602001858152602001848152602001838152602001828152602001965050505050505060405180910390f35b6105e66004803603608081101561049e57600080fd5b81019080803590602001906401000000008111156104bb57600080fd5b8201836020820111156104cd57600080fd5b803590602001918460208302840111640100000000831117156104ef57600080fd5b919080806020026020016040519081016040528093929190818152602001838360200280828437600081840152601f19601f8201169050808301925050505050505091929192908035906020019064010000000081111561054f57600080fd5b82018360208201111561056157600080fd5b8035906020019184602083028401116401000000008311171561058357600080fd5b919080806020026020016040519081016040528093929190818152602001838360200280828437600081840152601f19601f82011690508083019250505050505050919291929080359060200190929190803590602001909291905050506117cd565b604051808215151515815260200191505060405180910390f35b61062c6004803603602081101561061657600080fd5b8101908080359060200190929190505050611834565b604051808273ffffffffffffffffffffffffffffffffffffffff1673ffffffffffffffffffffffffffffffffffffffff16815260200191505060405180910390f35b61069a6004803603602081101561068457600080fd5b8101908080359060200190929190505050611869565b604051808273ffffffffffffffffffffffffffffffffffffffff1673ffffffffffffffffffffffffffffffffffffffff16815260200191505060405180910390f35b6106e461189e565b6040518082815260200191505060405180910390f35b6107026118a4565b6040518082815260200191505060405180910390f35b6107206118aa565b604051808260ff1660ff16815260200191505060405180910390f35b6107726004803603604081101561075257600080fd5b8101908080359060200190929190803590602001909291905050506118bd565b6040518082815260200191505060405180910390f35b6107be6004803603604081101561079e57600080fd5b8101908080359060200190929190803590602001909291905050506118f6565b60405180831515151581526020018260ff1660ff1681526020019250505060405180910390f35b610811600480360360208110156107fb57600080fd5b8101908080359060200190929190505050611935565b60405180848152602001838152602001828152602001935050505060405180910390f35b6108616004803603602081101561084b57600080fd5b810190808035906020019092919050505061198f565b604051808215151515815260200191505060405180910390f35b610883611a95565b6040518082815260200191505060405180910390f35b6108c5600480360360208110156108af57600080fd5b8101908080359060200190929190505050611a9b565b60405180848152602001838152602001828152602001935050505060405180910390f35b610915600480360360208110156108ff57600080fd5b8101908080359060200190929190505050611af5565b604051808273ffffffffffffffffffffffffffffffffffffffff1673ffffffffffffffffffffffffffffffffffffffff16815260200191505060405180910390f35b61095f611b4a565b6040518082815260200191505060405180910390f35b61097d611b50565b60405180848152602001838152602001828152602001935050505060405180910390f35b6109a9611b69565b6040518082815260200191505060405180910390f35b6109eb600480360360208110156109d557600080fd5b8101908080359060200190929190505050611b73565b005b6109f5612249565b604051808215151515815260200191505060405180910390f35b610a1761225c565b6040518082815260200191505060405180910390f35b610a7960048036036040811015610a4357600080fd5b81019080803573ffffffffffffffffffffffffffffffffffffffff16906020019092919080359060200190929190505050612262565b604051808215151515815260200191505060405180910390f35b610bf160048036036080811015610aa957600080fd5b8101908080359060200190640100000000811115610ac657600080fd5b820183602082011115610ad857600080fd5b80359060200191846020830284011164010000000083111715610afa57600080fd5b919080806020026020016040519081016040528093929190818152602001838360200280828437600081840152601f19601f82011690508083019250505050505050919291929080359060200190640100000000811115610b5a57600080fd5b820183602082011115610b6c57600080fd5b80359060200191846020830284011164010000000083111715610b8e57600080fd5b919080806020026020016040519081016040528093929190818152602001838360200280828437600081840152601f19601f82011690508083019250505050505050919291929080359060200190929190803590602001909291905050506124ef565b604051808215151515815260200191505060405180910390f35b610c4160048036036040811015610c2157600080fd5b810190808035906020019092919080359060200190929190505050612613565b005b610c4b612d0e565b6040518082815260200191505060405180910390f35b610c8d60048036036020811015610c7757600080fd5b8101908080359060200190929190505050612d14565b60405180848152602001838152602001828152602001935050505060405180910390f35b610d316004803603610120811015610cc857600080fd5b810190808035906020019092919080359060200190929190803590602001909291908035906020019092919080359060200190929190803560ff169060200190929190803590602001909291908035906020019092919080359060200190929190505050612d6b565b604051808215151515815260200191505060405180910390f35b610d53613f4c565b604051808273ffffffffffffffffffffffffffffffffffffffff1673ffffffffffffffffffffffffffffffffffffffff16815260200191505060405180910390f35b610d9d613f72565b6040518082600460200280838360005b83811015610dc8578082015181840152602081019050610dad565b5050505090500191505060405180910390f35b610e1d60048036036020811015610df157600080fd5b81019080803573ffffffffffffffffffffffffffffffffffffffff169060200190929190505050613ff3565b604051808215151515815260200191505060405180910390f35b610e7060048036036040811015610e4d57600080fd5b8101908080359060200190929190803560ff169060200190929190505050614228565b60405180827effffffffffffffffffffffffffffffffffffffffffffffffffffffffffffff19167effffffffffffffffffffffffffffffffffffffffffffffffffffffffffffff1916815260200191505060405180910390f35b610ed26143a5565b6040518082815260200191505060405180910390f35b610f1460048036036020811015610efe57600080fd5b81019080803590602001909291905050506143ab565b6040518082815260200191505060405180910390f35b610f5660048036036020811015610f4057600080fd5b81019080803590602001909291905050506143f5565b604051808a73ffffffffffffffffffffffffffffffffffffffff1673ffffffffffffffffffffffffffffffffffffffff168152602001898152602001888152602001878152602001868152602001858152602001848152602001838152602001828152602001995050505050505050505060405180910390f35b610fd8614463565b6040518082815260200191505060405180910390f35b61101a6004803603602081101561100457600080fd5b8101908080359060200190929190505050614469565b60405180848152602001838152602001828152602001935050505060405180910390f35b611128600480360360a081101561105457600080fd5b81019080803590602001909291908035906020019064010000000081111561107b57600080fd5b82018360208201111561108d57600080fd5b803590602001918460208302840111640100000000831117156110af57600080fd5b9091929391929390803590602001906401000000008111156110d057600080fd5b8201836020820111156110e257600080fd5b8035906020019184602083028401116401000000008311171561110457600080fd5b909192939192939080359060200190929190803590602001909291905050506144c3565b604051808215151515815260200191505060405180910390f35b61116e6004803603602081101561115857600080fd5b81019080803590602001909291905050506146e9565b604051808a81526020018981526020018881526020018760ff1660ff168152602001868152602001858152602001848152602001838152602001828152602001995050505050505050505060405180910390f35b611204600480360360208110156111d857600080fd5b81019080803573ffffffffffffffffffffffffffffffffffffffff169060200190929190505050614803565b604051808215151515815260200191505060405180910390f35b611226614eb2565b6040518082815260200191505060405180910390f35b611244614ebc565b6040518082815260200191505060405180910390f35b600080601460009054906101000a900473ffffffffffffffffffffffffffffffffffffffff1673ffffffffffffffffffffffffffffffffffffffff166322faa41f6040518163ffffffff167c010000000000000000000000000000000000000000000000000000000002815260040160206040518083038186803b1580156112e157600080fd5b505afa1580156112f5573d6000803e3d6000fd5b505050506040513d602081101561130b57600080fd5b810190808051906020019092919050505090506003811015151561132e57600080fd5b6000818460640281151561133e57fe5b049050601b54811015156113575760019250505061135a565b50505b919050565b60008060018686868660405160008152602001604052604051808581526020018460ff1660ff1681526020018381526020018281526020019450505050506020604051602081039080840390855afa1580156113bf573d6000803e3d6000fd5b5050506020604051035190508073ffffffffffffffffffffffffffffffffffffffff168773ffffffffffffffffffffffffffffffffffffffff161491505095945050505050565b60205481565b60165481565b600073ffffffffffffffffffffffffffffffffffffffff163373ffffffffffffffffffffffffffffffffffffffff161415151561144e57600080fd5b60008060048110151561145d57fe5b0160009054906101000a900473ffffffffffffffffffffffffffffffffffffffff1673ffffffffffffffffffffffffffffffffffffffff163373ffffffffffffffffffffffffffffffffffffffff1614806115145750600060016004811015156114c357fe5b0160009054906101000a900473ffffffffffffffffffffffffffffffffffffffff1673ffffffffffffffffffffffffffffffffffffffff163373ffffffffffffffffffffffffffffffffffffffff16145b8061157b57506000600260048110151561152a57fe5b0160009054906101000a900473ffffffffffffffffffffffffffffffffffffffff1673ffffffffffffffffffffffffffffffffffffffff163373ffffffffffffffffffffffffffffffffffffffff16145b806115e257506000600360048110151561159157fe5b0160009054906101000a900473ffffffffffffffffffffffffffffffffffffffff1673ffffffffffffffffffffffffffffffffffffffff163373ffffffffffffffffffffffffffffffffffffffff16145b15156115ed57600080fd5b60018160ff16101580156116055750600f8160ff1611155b151561161057600080fd5b80601f60016101000a81548160ff021916908360ff16021790555050565b600060018260ff1610158015611648575060108260ff1611155b151561165357600080fd5b60006004611662866000614228565b7f0100000000000000000000000000000000000000000000000000000000000000900460ff1681151561169157fe5b06905060006116a186603f614228565b90506000817f0100000000000000000000000000000000000000000000000000000000000000900490506000601086830160ff168115156116de57fe5b06905060006116f08886603f03614228565b7f0100000000000000000000000000000000000000000000000000000000000000900490508260ff168260ff161115611756578260ff168160ff161015801561173e57508160ff168160ff16105b156117515760019550505050505061178a565b611784565b8260ff168160ff1610158061177057508160ff168160ff16105b156117835760019550505050505061178a565b5b50505050505b9392505050565b600080600080600080601854601f60009054906101000a900460ff16601d54601e54601954601a54955095509550955095509550909192939495565b6000601554821015156117df57600080fd5b600060010260216000848152602001908152602001600020600201541415151561180857600080fd5b61182a85858560216000878152602001908152602001600020600201546124ef565b9050949350505050565b60048160108110151561184357fe5b016000915054906101000a900473ffffffffffffffffffffffffffffffffffffffff1681565b60008160048110151561187857fe5b016000915054906101000a900473ffffffffffffffffffffffffffffffffffffffff1681565b60185481565b601b5481565b601f60019054906101000a900460ff1681565b60008282604051602001808381526020018281526020019250505060405160208183030381529060405280519060200120905092915050565b6000806119038484614ec2565b6022600060018703815260200190815260200160002060040160009054906101000a900460ff16915091509250929050565b600080600080600085141561194e576017549050611952565b8490505b8060226000838152602001908152602001600020600001546022600084815260200190815260200160002060010154935093509350509193909250565b600080601460009054906101000a900473ffffffffffffffffffffffffffffffffffffffff1673ffffffffffffffffffffffffffffffffffffffff166322faa41f6040518163ffffffff167c010000000000000000000000000000000000000000000000000000000002815260040160206040518083038186803b158015611a1657600080fd5b505afa158015611a2a573d6000803e3d6000fd5b505050506040513d6020811015611a4057600080fd5b8101908080519060200190929190505050905060038110151515611a6357600080fd5b6000818461032002811515611a7457fe5b049050601c5481101515611a8d57600192505050611a90565b50505b919050565b601a5481565b6000806000806000851415611ab4576017549050611ab8565b8490505b8060226000838152602001908152602001600020600201546022600084815260200190815260200160002060030154935093509350509193909250565b6000808210158015611b075750601082105b1515611b1257600080fd5b600482601081101515611b2157fe5b0160009054906101000a900473ffffffffffffffffffffffffffffffffffffffff169050919050565b601c5481565b6000806000601754601b54601c54925092509250909192565b6000601754905090565b600073ffffffffffffffffffffffffffffffffffffffff163373ffffffffffffffffffffffffffffffffffffffff1614151515611baf57600080fd5b60046000601081101515611bbf57fe5b0160009054906101000a900473ffffffffffffffffffffffffffffffffffffffff1673ffffffffffffffffffffffffffffffffffffffff163373ffffffffffffffffffffffffffffffffffffffff161480611c76575060046001601081101515611c2557fe5b0160009054906101000a900473ffffffffffffffffffffffffffffffffffffffff1673ffffffffffffffffffffffffffffffffffffffff163373ffffffffffffffffffffffffffffffffffffffff16145b80611cdd575060046002601081101515611c8c57fe5b0160009054906101000a900473ffffffffffffffffffffffffffffffffffffffff1673ffffffffffffffffffffffffffffffffffffffff163373ffffffffffffffffffffffffffffffffffffffff16145b80611d44575060046003601081101515611cf357fe5b0160009054906101000a900473ffffffffffffffffffffffffffffffffffffffff1673ffffffffffffffffffffffffffffffffffffffff163373ffffffffffffffffffffffffffffffffffffffff16145b80611daa5750600480601081101515611d5957fe5b0160009054906101000a900473ffffffffffffffffffffffffffffffffffffffff1673ffffffffffffffffffffffffffffffffffffffff163373ffffffffffffffffffffffffffffffffffffffff16145b80611e11575060046005601081101515611dc057fe5b0160009054906101000a900473ffffffffffffffffffffffffffffffffffffffff1673ffffffffffffffffffffffffffffffffffffffff163373ffffffffffffffffffffffffffffffffffffffff16145b80611e78575060046006601081101515611e2757fe5b0160009054906101000a900473ffffffffffffffffffffffffffffffffffffffff1673ffffffffffffffffffffffffffffffffffffffff163373ffffffffffffffffffffffffffffffffffffffff16145b80611edf575060046007601081101515611e8e57fe5b0160009054906101000a900473ffffffffffffffffffffffffffffffffffffffff1673ffffffffffffffffffffffffffffffffffffffff163373ffffffffffffffffffffffffffffffffffffffff16145b80611f46575060046008601081101515611ef557fe5b0160009054906101000a900473ffffffffffffffffffffffffffffffffffffffff1673ffffffffffffffffffffffffffffffffffffffff163373ffffffffffffffffffffffffffffffffffffffff16145b80611fad575060046009601081101515611f5c57fe5b0160009054906101000a900473ffffffffffffffffffffffffffffffffffffffff1673ffffffffffffffffffffffffffffffffffffffff163373ffffffffffffffffffffffffffffffffffffffff16145b8061201457506004600a601081101515611fc357fe5b0160009054906101000a900473ffffffffffffffffffffffffffffffffffffffff1673ffffffffffffffffffffffffffffffffffffffff163373ffffffffffffffffffffffffffffffffffffffff16145b8061207b57506004600b60108110151561202a57fe5b0160009054906101000a900473ffffffffffffffffffffffffffffffffffffffff1673ffffffffffffffffffffffffffffffffffffffff163373ffffffffffffffffffffffffffffffffffffffff16145b806120e257506004600c60108110151561209157fe5b0160009054906101000a900473ffffffffffffffffffffffffffffffffffffffff1673ffffffffffffffffffffffffffffffffffffffff163373ffffffffffffffffffffffffffffffffffffffff16145b8061214957506004600d6010811015156120f857fe5b0160009054906101000a900473ffffffffffffffffffffffffffffffffffffffff1673ffffffffffffffffffffffffffffffffffffffff163373ffffffffffffffffffffffffffffffffffffffff16145b806121b057506004600e60108110151561215f57fe5b0160009054906101000a900473ffffffffffffffffffffffffffffffffffffffff1673ffffffffffffffffffffffffffffffffffffffff163373ffffffffffffffffffffffffffffffffffffffff16145b8061221757506004600f6010811015156121c657fe5b0160009054906101000a900473ffffffffffffffffffffffffffffffffffffffff1673ffffffffffffffffffffffffffffffffffffffff163373ffffffffffffffffffffffffffffffffffffffff16145b151561222257600080fd5b60b48111801561223457506201518081105b151561223f57600080fd5b8060208190555050565b601f60009054906101000a900460ff1681565b601d5481565b60008073ffffffffffffffffffffffffffffffffffffffff163373ffffffffffffffffffffffffffffffffffffffff161415151561229f57600080fd5b6000806004811015156122ae57fe5b0160009054906101000a900473ffffffffffffffffffffffffffffffffffffffff1673ffffffffffffffffffffffffffffffffffffffff163373ffffffffffffffffffffffffffffffffffffffff16148061236557506000600160048110151561231457fe5b0160009054906101000a900473ffffffffffffffffffffffffffffffffffffffff1673ffffffffffffffffffffffffffffffffffffffff163373ffffffffffffffffffffffffffffffffffffffff16145b806123cc57506000600260048110151561237b57fe5b0160009054906101000a900473ffffffffffffffffffffffffffffffffffffffff1673ffffffffffffffffffffffffffffffffffffffff163373ffffffffffffffffffffffffffffffffffffffff16145b806124335750600060036004811015156123e257fe5b0160009054906101000a900473ffffffffffffffffffffffffffffffffffffffff1673ffffffffffffffffffffffffffffffffffffffff163373ffffffffffffffffffffffffffffffffffffffff16145b151561243e57600080fd5b600073ffffffffffffffffffffffffffffffffffffffff168373ffffffffffffffffffffffffffffffffffffffff161415151561247a57600080fd5b6000821015801561248b5750601082105b151561249657600080fd5b826004836010811015156124a657fe5b0160006101000a81548173ffffffffffffffffffffffffffffffffffffffff021916908373ffffffffffffffffffffffffffffffffffffffff1602179055506001905092915050565b60006020855110151561250157600080fd5b8351855114151561251157600080fd5b600083905060008090505b8651811015612603576000878281518110151561253557fe5b906020019060200201519050868281518110151561254f57fe5b906020019060200201511561259457808360405160200180838152602001828152602001925050506040516020818303038152906040528051906020012092506125f5565b86828151811015156125a257fe5b9060200190602002015115156125e857828160405160200180838152602001828152602001925050506040516020818303038152906040528051906020012092506125f4565b6000935050505061260b565b5b50808060010191505061251c565b508281149150505b949350505050565b600073ffffffffffffffffffffffffffffffffffffffff163373ffffffffffffffffffffffffffffffffffffffff161415151561264f57600080fd5b6004600060108110151561265f57fe5b0160009054906101000a900473ffffffffffffffffffffffffffffffffffffffff1673ffffffffffffffffffffffffffffffffffffffff163373ffffffffffffffffffffffffffffffffffffffff1614806127165750600460016010811015156126c557fe5b0160009054906101000a900473ffffffffffffffffffffffffffffffffffffffff1673ffffffffffffffffffffffffffffffffffffffff163373ffffffffffffffffffffffffffffffffffffffff16145b8061277d57506004600260108110151561272c57fe5b0160009054906101000a900473ffffffffffffffffffffffffffffffffffffffff1673ffffffffffffffffffffffffffffffffffffffff163373ffffffffffffffffffffffffffffffffffffffff16145b806127e457506004600360108110151561279357fe5b0160009054906101000a900473ffffffffffffffffffffffffffffffffffffffff1673ffffffffffffffffffffffffffffffffffffffff163373ffffffffffffffffffffffffffffffffffffffff16145b8061284a57506004806010811015156127f957fe5b0160009054906101000a900473ffffffffffffffffffffffffffffffffffffffff1673ffffffffffffffffffffffffffffffffffffffff163373ffffffffffffffffffffffffffffffffffffffff16145b806128b157506004600560108110151561286057fe5b0160009054906101000a900473ffffffffffffffffffffffffffffffffffffffff1673ffffffffffffffffffffffffffffffffffffffff163373ffffffffffffffffffffffffffffffffffffffff16145b806129185750600460066010811015156128c757fe5b0160009054906101000a900473ffffffffffffffffffffffffffffffffffffffff1673ffffffffffffffffffffffffffffffffffffffff163373ffffffffffffffffffffffffffffffffffffffff16145b8061297f57506004600760108110151561292e57fe5b0160009054906101000a900473ffffffffffffffffffffffffffffffffffffffff1673ffffffffffffffffffffffffffffffffffffffff163373ffffffffffffffffffffffffffffffffffffffff16145b806129e657506004600860108110151561299557fe5b0160009054906101000a900473ffffffffffffffffffffffffffffffffffffffff1673ffffffffffffffffffffffffffffffffffffffff163373ffffffffffffffffffffffffffffffffffffffff16145b80612a4d5750600460096010811015156129fc57fe5b0160009054906101000a900473ffffffffffffffffffffffffffffffffffffffff1673ffffffffffffffffffffffffffffffffffffffff163373ffffffffffffffffffffffffffffffffffffffff16145b80612ab457506004600a601081101515612a6357fe5b0160009054906101000a900473ffffffffffffffffffffffffffffffffffffffff1673ffffffffffffffffffffffffffffffffffffffff163373ffffffffffffffffffffffffffffffffffffffff16145b80612b1b57506004600b601081101515612aca57fe5b0160009054906101000a900473ffffffffffffffffffffffffffffffffffffffff1673ffffffffffffffffffffffffffffffffffffffff163373ffffffffffffffffffffffffffffffffffffffff16145b80612b8257506004600c601081101515612b3157fe5b0160009054906101000a900473ffffffffffffffffffffffffffffffffffffffff1673ffffffffffffffffffffffffffffffffffffffff163373ffffffffffffffffffffffffffffffffffffffff16145b80612be957506004600d601081101515612b9857fe5b0160009054906101000a900473ffffffffffffffffffffffffffffffffffffffff1673ffffffffffffffffffffffffffffffffffffffff163373ffffffffffffffffffffffffffffffffffffffff16145b80612c5057506004600e601081101515612bff57fe5b0160009054906101000a900473ffffffffffffffffffffffffffffffffffffffff1673ffffffffffffffffffffffffffffffffffffffff163373ffffffffffffffffffffffffffffffffffffffff16145b80612cb757506004600f601081101515612c6657fe5b0160009054906101000a900473ffffffffffffffffffffffffffffffffffffffff1673ffffffffffffffffffffffffffffffffffffffff163373ffffffffffffffffffffffffffffffffffffffff16145b1515612cc257600080fd5b60058210158015612cd45750605f8211155b1515612cdf57600080fd5b60058110158015612cf15750605f8111155b1515612cfc57600080fd5b81601b8190555080601c819055505050565b60175481565b60008060006021600085815260200190815260200160002060010154602160008681526020019081526020016000206002015460216000878152602001908152602001600020600301549250925092509193909250565b60008073ffffffffffffffffffffffffffffffffffffffff163373ffffffffffffffffffffffffffffffffffffffff1614151515612da857600080fd5b60046000601081101515612db857fe5b0160009054906101000a900473ffffffffffffffffffffffffffffffffffffffff1673ffffffffffffffffffffffffffffffffffffffff163373ffffffffffffffffffffffffffffffffffffffff161480612e6f575060046001601081101515612e1e57fe5b0160009054906101000a900473ffffffffffffffffffffffffffffffffffffffff1673ffffffffffffffffffffffffffffffffffffffff163373ffffffffffffffffffffffffffffffffffffffff16145b80612ed6575060046002601081101515612e8557fe5b0160009054906101000a900473ffffffffffffffffffffffffffffffffffffffff1673ffffffffffffffffffffffffffffffffffffffff163373ffffffffffffffffffffffffffffffffffffffff16145b80612f3d575060046003601081101515612eec57fe5b0160009054906101000a900473ffffffffffffffffffffffffffffffffffffffff1673ffffffffffffffffffffffffffffffffffffffff163373ffffffffffffffffffffffffffffffffffffffff16145b80612fa35750600480601081101515612f5257fe5b0160009054906101000a900473ffffffffffffffffffffffffffffffffffffffff1673ffffffffffffffffffffffffffffffffffffffff163373ffffffffffffffffffffffffffffffffffffffff16145b8061300a575060046005601081101515612fb957fe5b0160009054906101000a900473ffffffffffffffffffffffffffffffffffffffff1673ffffffffffffffffffffffffffffffffffffffff163373ffffffffffffffffffffffffffffffffffffffff16145b8061307157506004600660108110151561302057fe5b0160009054906101000a900473ffffffffffffffffffffffffffffffffffffffff1673ffffffffffffffffffffffffffffffffffffffff163373ffffffffffffffffffffffffffffffffffffffff16145b806130d857506004600760108110151561308757fe5b0160009054906101000a900473ffffffffffffffffffffffffffffffffffffffff1673ffffffffffffffffffffffffffffffffffffffff163373ffffffffffffffffffffffffffffffffffffffff16145b8061313f5750600460086010811015156130ee57fe5b0160009054906101000a900473ffffffffffffffffffffffffffffffffffffffff1673ffffffffffffffffffffffffffffffffffffffff163373ffffffffffffffffffffffffffffffffffffffff16145b806131a657506004600960108110151561315557fe5b0160009054906101000a900473ffffffffffffffffffffffffffffffffffffffff1673ffffffffffffffffffffffffffffffffffffffff163373ffffffffffffffffffffffffffffffffffffffff16145b8061320d57506004600a6010811015156131bc57fe5b0160009054906101000a900473ffffffffffffffffffffffffffffffffffffffff1673ffffffffffffffffffffffffffffffffffffffff163373ffffffffffffffffffffffffffffffffffffffff16145b8061327457506004600b60108110151561322357fe5b0160009054906101000a900473ffffffffffffffffffffffffffffffffffffffff1673ffffffffffffffffffffffffffffffffffffffff163373ffffffffffffffffffffffffffffffffffffffff16145b806132db57506004600c60108110151561328a57fe5b0160009054906101000a900473ffffffffffffffffffffffffffffffffffffffff1673ffffffffffffffffffffffffffffffffffffffff163373ffffffffffffffffffffffffffffffffffffffff16145b8061334257506004600d6010811015156132f157fe5b0160009054906101000a900473ffffffffffffffffffffffffffffffffffffffff1673ffffffffffffffffffffffffffffffffffffffff163373ffffffffffffffffffffffffffffffffffffffff16145b806133a957506004600e60108110151561335857fe5b0160009054906101000a900473ffffffffffffffffffffffffffffffffffffffff1673ffffffffffffffffffffffffffffffffffffffff163373ffffffffffffffffffffffffffffffffffffffff16145b8061341057506004600f6010811015156133bf57fe5b0160009054906101000a900473ffffffffffffffffffffffffffffffffffffffff1673ffffffffffffffffffffffffffffffffffffffff163373ffffffffffffffffffffffffffffffffffffffff16145b151561341b57600080fd5b60786021600060016015540381526020019081526020016000206004015401421015151561344857600080fd5b60056021600060016015540381526020019081526020016000206001015401431015151561347557600080fd5b60006001028a1415801561348d575060006001028914155b151561349857600080fd5b8960216000600160155403815260200190815260200160002060020154141580156134de5750886021600060016015540381526020019081526020016000206003015414155b15156134e957600080fd5b60006021600060155481526020019081526020016000206001015414801561352c5750600060010260216000601554815260200190815260200160002060020154145b80156135535750600060010260216000601554815260200190815260200160002060030154145b80156135775750600060216000601554815260200190815260200160002060040154145b151561358257600080fd5b60008560ff1610158015613599575060648560ff16105b15156135a457600080fd5b60006017541480156135bb57506007886018540110155b1561370157610120604051908101604052803373ffffffffffffffffffffffffffffffffffffffff1681526020014381526020018b81526020018a81526020014281526020018981526020018881526020018781526020016022600060175481526020019081526020016000206000015481525060216000601554815260200190815260200160002060008201518160000160006101000a81548173ffffffffffffffffffffffffffffffffffffffff021916908373ffffffffffffffffffffffffffffffffffffffff1602179055506020820151816001015560408201518160020155606082015181600301556080820151816004015560a0820151816005015560c0820151816006015560e08201518160070155610100820151816008015590505042601e819055506136fc8a60008060006001026000600102614f39565b613f2a565b6000601754141580156137205750601f60009054906101000a900460ff165b80156137315750602054601e544203115b1561388957610120604051908101604052803373ffffffffffffffffffffffffffffffffffffffff1681526020014381526020018b81526020018a81526020014281526020018981526020018881526020018781526020016022600060175481526020019081526020016000206000015481525060216000601554815260200190815260200160002060008201518160000160006101000a81548173ffffffffffffffffffffffffffffffffffffffff021916908373ffffffffffffffffffffffffffffffffffffffff1602179055506020820151816001015560408201518160020155606082015181600301556080820151816004015560a0820151816005015560c0820151816006015560e08201518160070155610100820151816008015590505060014203601d8190555042601e81905550613871601b546151ff565b601b819055506138848a86868686614f39565b613f29565b6000601754141580156138a85750601f60009054906101000a900460ff165b80156138bd57506138bc876019540161125a565b5b15613ab8576000602260006017548152602001908152602001600020600201541480156139055750600060010260226000601754815260200190815260200160002060030154145b151561391057600080fd5b610120604051908101604052803373ffffffffffffffffffffffffffffffffffffffff1681526020014381526020018b81526020018a81526020014281526020018981526020018881526020018781526020016022600060175481526020019081526020016000206000015481525060216000601554815260200190815260200160002060008201518160000160006101000a81548173ffffffffffffffffffffffffffffffffffffffff021916908373ffffffffffffffffffffffffffffffffffffffff1602179055506020820151816001015560408201518160020155606082015181600301556080820151816004015560a0820151816005015560c0820151816006015560e08201518160070155610100820151816008015590505042601d81905550613a41601b54615233565b601b8190555060155460226000601754815260200190815260200160002060020181905550613a748a60014303406118bd565b602260006017548152602001908152602001600020600301819055506000601a819055506000601f60006101000a81548160ff021916908315150217905550613f28565b600060175414158015613ade575060001515601f60009054906101000a900460ff161515145b8015613aef5750602054601d544203115b15613c3d57610120604051908101604052803373ffffffffffffffffffffffffffffffffffffffff1681526020014381526020018b81526020018a81526020014281526020018981526020018881526020018781526020016022600060175481526020019081526020016000206000015481525060216000601554815260200190815260200160002060008201518160000160006101000a81548173ffffffffffffffffffffffffffffffffffffffff021916908373ffffffffffffffffffffffffffffffffffffffff1602179055506020820151816001015560408201518160020155606082015181600301556080820151816004015560a0820151816005015560c0820151816006015560e082015181600701556101008201518160080155905050613c1e601c546151ff565b601c8190555042601e81905550613c388a86868686614f39565b613f27565b600060175414158015613c63575060001515601f60009054906101000a900460ff161515145b8015613c785750613c7786601a540161198f565b5b15613dd65760018410151515613c8d57600080fd5b610120604051908101604052803373ffffffffffffffffffffffffffffffffffffffff1681526020014381526020018b81526020018a81526020014281526020018981526020018881526020018781526020016022600060175481526020019081526020016000206000015481525060216000601554815260200190815260200160002060008201518160000160006101000a81548173ffffffffffffffffffffffffffffffffffffffff021916908373ffffffffffffffffffffffffffffffffffffffff1602179055506020820151816001015560408201518160020155606082015181600301556080820151816004015560a0820151816005015560c0820151816006015560e082015181600701556101008201518160080155905050613db7601c54615233565b601c8190555042601e81905550613dd18a86868686614f39565b613f26565b8660196000828254019250508190555085601a6000828254019250508190555087601860008282540192505081905550610120604051908101604052803373ffffffffffffffffffffffffffffffffffffffff1681526020014381526020018b81526020018a81526020014281526020018981526020018881526020018781526020016022600060175481526020019081526020016000206000015481525060216000601554815260200190815260200160002060008201518160000160006101000a81548173ffffffffffffffffffffffffffffffffffffffff021916908373ffffffffffffffffffffffffffffffffffffffff1602179055506020820151816001015560408201518160020155606082015181600301556080820151816004015560a0820151816005015560c0820151816006015560e0820151816007015561010082015181600801559050505b5b5b5b5b6001601560008282540192505081905550600190509998505050505050505050565b601460009054906101000a900473ffffffffffffffffffffffffffffffffffffffff1681565b613f7a615254565b6000600480602002604051908101604052809291908260048015613fe9576020028201915b8160009054906101000a900473ffffffffffffffffffffffffffffffffffffffff1673ffffffffffffffffffffffffffffffffffffffff1681526020019060010190808311613f9f575b5050505050905090565b60008073ffffffffffffffffffffffffffffffffffffffff163373ffffffffffffffffffffffffffffffffffffffff161415151561403057600080fd5b60008060048110151561403f57fe5b0160009054906101000a900473ffffffffffffffffffffffffffffffffffffffff1673ffffffffffffffffffffffffffffffffffffffff163373ffffffffffffffffffffffffffffffffffffffff1614806140f65750600060016004811015156140a557fe5b0160009054906101000a900473ffffffffffffffffffffffffffffffffffffffff1673ffffffffffffffffffffffffffffffffffffffff163373ffffffffffffffffffffffffffffffffffffffff16145b8061415d57506000600260048110151561410c57fe5b0160009054906101000a900473ffffffffffffffffffffffffffffffffffffffff1673ffffffffffffffffffffffffffffffffffffffff163373ffffffffffffffffffffffffffffffffffffffff16145b806141c457506000600360048110151561417357fe5b0160009054906101000a900473ffffffffffffffffffffffffffffffffffffffff1673ffffffffffffffffffffffffffffffffffffffff163373ffffffffffffffffffffffffffffffffffffffff16145b15156141cf57600080fd5b81600060036004811015156141e057fe5b0160006101000a81548173ffffffffffffffffffffffffffffffffffffffff021916908373ffffffffffffffffffffffffffffffffffffffff16021790555060019050919050565b6000808260ff16101580156142415750603f8260ff1611155b151561424c57600080fd5b600160028360ff1681151561425d57fe5b0660ff1614156143055760108360028460ff1681151561427957fe5b0460ff1660208110151561428957fe5b1a7f0100000000000000000000000000000000000000000000000000000000000000027f0100000000000000000000000000000000000000000000000000000000000000900460ff168115156142db57fe5b067f010000000000000000000000000000000000000000000000000000000000000002905061439f565b60108360028460ff1681151561431757fe5b0460ff1660208110151561432757fe5b1a7f0100000000000000000000000000000000000000000000000000000000000000027f0100000000000000000000000000000000000000000000000000000000000000900460ff1681151561437957fe5b047f01000000000000000000000000000000000000000000000000000000000000000290505b92915050565b60195481565b600080821415156143d457602260008381526020019081526020016000206000015490506143f0565b6022600060175481526020019081526020016000206000015490505b919050565b60216020528060005260406000206000915090508060000160009054906101000a900473ffffffffffffffffffffffffffffffffffffffff16908060010154908060020154908060030154908060040154908060050154908060060154908060070154908060080154905089565b60155481565b6000806000806000851415614482576017549050614486565b8490505b8060226000838152602001908152602001600020600501546022600084815260200190815260200160002060070154935093509350509193909250565b6000602260008981526020019081526020016000206002015482111515156144ea57600080fd5b614578878780806020026020016040519081016040528093929190818152602001838360200280828437600081840152601f19601f82011690508083019250505050505050868680806020026020016040519081016040528093929190818152602001838360200280828437600081840152601f19601f8201169050808301925050505050505085856117cd565b151561458357600080fd5b61458d8884614ec2565b151561459857600080fd5b6017548814806145ac575060016017540188145b15156145b757600080fd5b60001515602460008a815260200190815260200160002060003373ffffffffffffffffffffffffffffffffffffffff1673ffffffffffffffffffffffffffffffffffffffff16815260200190815260200160002060009054906101000a900460ff161515141515614673576040517f08c379a000000000000000000000000000000000000000000000000000000000815260040180806020018281038252602a815260200180615278602a913960400191505060405180910390fd5b600160246000601754815260200190815260200160002060003373ffffffffffffffffffffffffffffffffffffffff1673ffffffffffffffffffffffffffffffffffffffff16815260200190815260200160002060006101000a81548160ff021916908315150217905550979650505050505050565b60008060008060008060008060008060006017548c14156147155760009050600260175401915061471c565b8b90508b91505b80602260008481526020019081526020016000206000015460226000858152602001908152602001600020600101546022600086815260200190815260200160002060040160009054906101000a900460ff16602260008781526020019081526020016000206006015460226000888152602001908152602001600020600701546022600089815260200190815260200160002060020154602260008a815260200190815260200160002060030154602260008b8152602001908152602001600020600501549a509a509a509a509a509a509a509a509a5050509193959799909294969850565b60008073ffffffffffffffffffffffffffffffffffffffff168273ffffffffffffffffffffffffffffffffffffffff1614156148425760009050614ead565b6004600060108110151561485257fe5b0160009054906101000a900473ffffffffffffffffffffffffffffffffffffffff1673ffffffffffffffffffffffffffffffffffffffff168273ffffffffffffffffffffffffffffffffffffffff1614806149095750600460016010811015156148b857fe5b0160009054906101000a900473ffffffffffffffffffffffffffffffffffffffff1673ffffffffffffffffffffffffffffffffffffffff168273ffffffffffffffffffffffffffffffffffffffff16145b8061497057506004600260108110151561491f57fe5b0160009054906101000a900473ffffffffffffffffffffffffffffffffffffffff1673ffffffffffffffffffffffffffffffffffffffff168273ffffffffffffffffffffffffffffffffffffffff16145b806149d757506004600360108110151561498657fe5b0160009054906101000a900473ffffffffffffffffffffffffffffffffffffffff1673ffffffffffffffffffffffffffffffffffffffff168273ffffffffffffffffffffffffffffffffffffffff16145b80614a3d57506004806010811015156149ec57fe5b0160009054906101000a900473ffffffffffffffffffffffffffffffffffffffff1673ffffffffffffffffffffffffffffffffffffffff168273ffffffffffffffffffffffffffffffffffffffff16145b80614aa4575060046005601081101515614a5357fe5b0160009054906101000a900473ffffffffffffffffffffffffffffffffffffffff1673ffffffffffffffffffffffffffffffffffffffff168273ffffffffffffffffffffffffffffffffffffffff16145b80614b0b575060046006601081101515614aba57fe5b0160009054906101000a900473ffffffffffffffffffffffffffffffffffffffff1673ffffffffffffffffffffffffffffffffffffffff168273ffffffffffffffffffffffffffffffffffffffff16145b80614b72575060046007601081101515614b2157fe5b0160009054906101000a900473ffffffffffffffffffffffffffffffffffffffff1673ffffffffffffffffffffffffffffffffffffffff168273ffffffffffffffffffffffffffffffffffffffff16145b80614bd9575060046008601081101515614b8857fe5b0160009054906101000a900473ffffffffffffffffffffffffffffffffffffffff1673ffffffffffffffffffffffffffffffffffffffff168273ffffffffffffffffffffffffffffffffffffffff16145b80614c40575060046009601081101515614bef57fe5b0160009054906101000a900473ffffffffffffffffffffffffffffffffffffffff1673ffffffffffffffffffffffffffffffffffffffff168273ffffffffffffffffffffffffffffffffffffffff16145b80614ca757506004600a601081101515614c5657fe5b0160009054906101000a900473ffffffffffffffffffffffffffffffffffffffff1673ffffffffffffffffffffffffffffffffffffffff168273ffffffffffffffffffffffffffffffffffffffff16145b80614d0e57506004600b601081101515614cbd57fe5b0160009054906101000a900473ffffffffffffffffffffffffffffffffffffffff1673ffffffffffffffffffffffffffffffffffffffff168273ffffffffffffffffffffffffffffffffffffffff16145b80614d7557506004600c601081101515614d2457fe5b0160009054906101000a900473ffffffffffffffffffffffffffffffffffffffff1673ffffffffffffffffffffffffffffffffffffffff168273ffffffffffffffffffffffffffffffffffffffff16145b80614ddc57506004600d601081101515614d8b57fe5b0160009054906101000a900473ffffffffffffffffffffffffffffffffffffffff1673ffffffffffffffffffffffffffffffffffffffff168273ffffffffffffffffffffffffffffffffffffffff16145b80614e4357506004600e601081101515614df257fe5b0160009054906101000a900473ffffffffffffffffffffffffffffffffffffffff1673ffffffffffffffffffffffffffffffffffffffff168273ffffffffffffffffffffffffffffffffffffffff16145b80614eaa57506004600f601081101515614e5957fe5b0160009054906101000a900473ffffffffffffffffffffffffffffffffffffffff1673ffffffffffffffffffffffffffffffffffffffff168273ffffffffffffffffffffffffffffffffffffffff16145b90505b919050565b6000601554905090565b601e5481565b60006017548310158015614ef057506000600102602260008581526020019081526020016000206003015414155b1515614efb57600080fd5b600060226000858152602001908152602001600020600301549050614f308184601f60019054906101000a900460ff1661162e565b91505092915050565b60006019819055506000601a819055506000601881905550601460009054906101000a900473ffffffffffffffffffffffffffffffffffffffff1673ffffffffffffffffffffffffffffffffffffffff166347bda3d960006040518263ffffffff167c01000000000000000000000000000000000000000000000000000000000281526004018082151515158152602001915050602060405180830381600087803b158015614fe757600080fd5b505af1158015614ffb573d6000803e3d6000fd5b505050506040513d602081101561501157600080fd5b8101908080519060200190929190505050508360226000601754815260200190815260200160002060040160006101000a81548160ff021916908360ff1602179055508260226000601754815260200190815260200160002060050181905550816022600060175481526020019081526020016000206006018190555080602260006017548152602001908152602001600020600701819055506001601f60006101000a81548160ff021916908315150217905550600160176000828254019250508190555060008560175460405160200180838152602001828152602001925050506040516020818303038152906040528051906020012090506101006040519081016040528082815260200160016015540181526020016000815260200160006001028152602001600060ff168152602001600081526020016000600102815260200160006001028152506022600060175481526020019081526020016000206000820151816000015560208201518160010155604082015181600201556060820151816003015560808201518160040160006101000a81548160ff021916908360ff16021790555060a0820151816005015560c0820151816006015560e082015181600701559050506017546023600083815260200190815260200160002081905550505050505050565b600060648210151561521457605f905061522e565b600a821015156152295760058203905061522e565b600590505b919050565b6000605a8211151561524a5760058201905061524f565b605f90505b919050565b60806040519081016040528060049060208202803883398082019150509050509056fe416e206163636f756e742063616e206f6e6c7920636c61696d206f6e636520706572206f70526f756e64a165627a7a72305820e2d6ae8f11be7123384b8d42c0c5de054971b210ec9243933038b457b7a86fa00029",
  "source": "pragma solidity ^0.5.2;\nimport \"./lib/safe-math.sol\";\nimport \"./Interfaces/MemberShipInterface.sol\";\n\n// TODO: use safemath\n\ncontract BlockRegistry{\n    using SafeMath for uint256;\n\n    // Variables\n    address[4] public managers;  // use \"coreManagers\" and \"managers\" as in \"MemberShip.sol\"?\n    address[16] public validators;\n    address public memberContractAddr;\n    uint public nowSblockNo;  // start from 1\n    uint public sblockTimeStep = 15 minutes;  // it's a minimum timestep\n    // bool public opRoundStatus = true;  // need `true` for 1st round; or simply use \"pause/unpause\"?\n    uint public opRound;\n    uint public articleCount;\n    // variables with `v1` or `vote1`: lottery; with `v2` or `vote2`: claim\n    uint public roundVote1Count;\n    uint public roundVote2Count;\n    uint public vote1Threshold = 40;  // between 5 and 95, step 5\n    uint public vote2Threshold = 40;  // between 5 and 95, step 5\n    uint public v1EndTime;\n    uint public v2EndTime;\n    bool public atV1;\n    uint8 public numRange = 8;  // it means pick x out of 16 numbers; should eventually make it constant\n\n    uint public maxVoteTime = 15 minutes;  // an Opround cannot longer than 2*maxVoteTime; use small values for debug\n\n    struct blockStat{\n        address validator;\n        uint blockHeight;  // block.number while submission\n        bytes32 merkleRoot;  // IPFs hash string to bytes32: \n        bytes32 ipfsAddr;  // string to hex (in js): ethUtils.bufferToHex(bs58.decode(ipfsHash).slice(2));\n        uint timestamp;\n        uint uniqArticleCount;\n        uint vote1Count;\n        uint vote2Count;\n        bytes32 opRoundId;\n    }\n    mapping (uint => blockStat) public blockHistory;  // sblockNo to blockStat\n\n    struct opRoundStruct{\n        // update during creation of this opRound\n        bytes32 id;\n        uint initBlockNo;\n        // update in lottery-sblock\n        uint lotteryBlockNo;\n        bytes32 lotteryWinNumber;\n        // update in final-sblock\n        uint8 minSuccessRate;  // shoud be an integer between 0 and 100; this is used in next opRound\n        uint baseline;  // i.e, the total votes of the vote2 winner\n        bytes32 succesRateDB;  // IPFS contain success rate\n        bytes32 finalListIpfs;\n    }\n    mapping (uint => opRoundStruct) opRoundHistory;\n    mapping (bytes32 => uint) opRoundIdToNum;  // opRound id to opRound number\n    // mapping (uint => uint) public lotterySblockNo;  // give `opRound`, return the corresponding `sblock_no` while lottery happened\n    // mapping (uint => bytes32) public opRoundLog;  // opRound index to opRound id\n    mapping (uint => mapping(address => bool)) opRoundClaimed;\n\n    constructor(address _memberContractAddr) public {\n        memberContractAddr = _memberContractAddr;\n        managers = [ 0xB440ea2780614b3c6a00e512f432785E7dfAFA3E,\n                     0x4AD56641C569C91C64C28a904cda50AE5326Da41,\n                     0xaF7400787c54422Be8B44154B1273661f1259CcD,\n                     address(0)];\n        validators = [ 0xB440ea2780614b3c6a00e512f432785E7dfAFA3E,\n                       0x4AD56641C569C91C64C28a904cda50AE5326Da41,\n                       0xaF7400787c54422Be8B44154B1273661f1259CcD,\n                       address(0), address(0), address(0), address(0), address(0),\n                       address(0), address(0), address(0), address(0), address(0),\n                       address(0), address(0), address(0)];\n        // prevTimeStamp = block.timestamp - sblockTimeStep;\n        blockHistory[0] = blockStat(msg.sender, block.number, 0x0, 0x0, block.timestamp,\n                                    0, 0, 0, 0x0);\n        // opRoundHistory[0] = opRoundStruct(0x0000000000000000000000000000000000000000000000000000000000000001,\n        //                                   nowSblockNo, 0, 0x0, 0, 0, 0x0, 0x0);\n        nowSblockNo = 1;\n    }\n\n    // Modifiers\n    modifier managerOnly() {\n        require(msg.sender != address(0));\n        require(msg.sender == managers[0] || msg.sender == managers[1] || msg.sender == managers[2] || msg.sender == managers[3]);\n        _;\n    }\n\n    modifier validatorOnly() {\n        require(msg.sender != address(0));\n        require(msg.sender == validators[0] || msg.sender == validators[1] || msg.sender == validators[2] ||\n                msg.sender == validators[3] || msg.sender == validators[4] || msg.sender == validators[5] ||\n                msg.sender == validators[6] || msg.sender == validators[7] || msg.sender == validators[8] ||\n                msg.sender == validators[9] || msg.sender == validators[10] || msg.sender == validators[11] ||\n                msg.sender == validators[12] || msg.sender == validators[13] || msg.sender == validators[14] ||\n                msg.sender == validators[15]);\n        _;\n    }\n\n    // some adjustable functions only for developing phase\n    function updateMaxVoteTime(uint _seconds) public validatorOnly {\n        require(_seconds > 180 && _seconds < 86400);  // restrict to a range\n        maxVoteTime = _seconds;\n    }\n\n    function setThreshold(uint _x, uint _y) public validatorOnly{\n        require(_x >= 5 && _x <=95);\n        require(_y >= 5 && _y <=95);\n        vote1Threshold = _x;\n        vote2Threshold = _y;\n    }\n\n    // some internal functions\n    function _increaseThreshold(uint _x) internal pure returns(uint) {\n        if (_x <= 90) {\n            return _x + 5;\n        } else {\n            return 95;\n        }\n    }\n\n    function _decreaseThreshold(uint _x) internal pure returns(uint) {\n        if (_x >= 100) {\n            return 95;\n        } else if (_x >= 10) {\n            return _x - 5;\n        } else {\n            return 5;\n        }\n    }\n\n    function _toNextOpRound(bytes32 _mr, uint8 _minSuccessRate, uint _baseline, bytes32 _successRateDB, bytes32 _finalListIpfs) internal {\n        roundVote1Count = 0;\n        roundVote2Count = 0;\n        articleCount = 0;\n        MemberShipInterface(memberContractAddr).updateActiveMemberCount(false);  // note: if too frequent, it will not update unless set 'forced=true'\n\n        // update current opRoundHistory\n        opRoundHistory[opRound].minSuccessRate = _minSuccessRate;  // next opRound need this\n        opRoundHistory[opRound].baseline = _baseline;\n        opRoundHistory[opRound].succesRateDB = _successRateDB;\n        opRoundHistory[opRound].finalListIpfs = _finalListIpfs;\n\n        // for next opRound\n        atV1 = true;\n        opRound += 1;\n        bytes32 _oid = bytes32(keccak256(abi.encodePacked(_mr, opRound)));\n        opRoundHistory[opRound] = opRoundStruct(_oid, nowSblockNo+1, 0, 0x0, 0, 0, 0x0, 0x0);\n        opRoundIdToNum[_oid] = opRound;\n    }\n\n    // create a new sblock\n    function submitMerkleRoot(\n        bytes32 _merkleRoot,\n        bytes32 _ipfsAddr,\n        uint _uniqArticleCount,\n        uint _vote1Count,\n        uint _vote2Count,\n        uint8 _minSuccessRate,\n        uint _baseline,\n        bytes32 _successRateDB,\n        bytes32 _finalListIpfs\n    ) public validatorOnly returns (bool) {\n        // Note: a `opRound` contains two parts: `(v1)vote` and `(v2)claim`,\n        //       (v2) may not happen if (v1) takes more than maxVoteTime.\n        // comment some \"require\"s for test purpose\n        // require(block.timestamp >= blockHistory[nowSblockNo] + sblockTimeStep, 'too soon');\n        require(block.timestamp >= blockHistory[nowSblockNo-1].timestamp + 2 minutes);  // 2 min is for test purpose, should be 1 hour(?)\n        require(block.number >= blockHistory[nowSblockNo-1].blockHeight + 5);  // 5 is for test purpose, should be ?\n        require(_merkleRoot != 0x0 && _ipfsAddr != 0x0);\n        require(blockHistory[nowSblockNo-1].merkleRoot != _merkleRoot && blockHistory[nowSblockNo-1].ipfsAddr != _ipfsAddr);  // prevent re-submission\n        require(blockHistory[nowSblockNo].blockHeight == 0 && blockHistory[nowSblockNo].merkleRoot == 0x0 &&\n                blockHistory[nowSblockNo].ipfsAddr == 0x0 && blockHistory[nowSblockNo].timestamp == 0);\n        require(_minSuccessRate >= 0 && _minSuccessRate < 100);  // need the equal for genesis round\n        // require: ...\n\n        // a sblock in a opRound cound be of type: genesis, lottery, lottery-NDR, finalist, finalist-NDR, or regular\n        // (NDR = no-draw-round)\n        if (opRound == 0 && articleCount + _uniqArticleCount >= 7) {  // genesis; set small number for test purpose\n            blockHistory[nowSblockNo] = blockStat(\n                msg.sender, block.number, _merkleRoot, _ipfsAddr, block.timestamp,\n                _uniqArticleCount, _vote1Count, _vote2Count, opRoundHistory[opRound].id\n            );\n            v2EndTime = block.timestamp;  // although no 'claiming', still need to record a time\n            _toNextOpRound(_merkleRoot, 0, 0, 0x0, 0x0);\n        } else if (opRound != 0 && atV1 && (block.timestamp - v2EndTime > maxVoteTime)) {  // A \"no-draw-round\"! Proceed to next OpRound\n            // TODO: uncomment following lines?\n            // require(minSuccessRate == opRoundHistory[opRound-1].minSuccessRate);\n            // require(_baseline == 0);\n            // require(_finalListIpfs == '0x0');\n            // require(_successRateDB == opRoundHistory[opRound-1].succesRateDB);\n            blockHistory[nowSblockNo] = blockStat(\n                msg.sender, block.number, _merkleRoot, _ipfsAddr, block.timestamp,\n                _uniqArticleCount, _vote1Count, _vote2Count, opRoundHistory[opRound].id\n            );\n            v1EndTime = block.timestamp-1;  // or don't update? BTW, subtract by 1 to make sure v2EndTime > v1Endtime (or no need?)\n            v2EndTime = block.timestamp;  // in case next submit() fall into this if-statement again\n            vote1Threshold = _decreaseThreshold(vote1Threshold);\n            // opRoundHistory[opRound].lotteryBlockNo = nowSblockNo;  // should keep it 0\n            _toNextOpRound(_merkleRoot, _minSuccessRate, _baseline, _successRateDB, _finalListIpfs);\n        } else if (opRound != 0 && atV1 && isEnoughV1(roundVote1Count+_vote1Count)) {  // lottery\n            require(opRoundHistory[opRound].lotteryBlockNo == 0 && opRoundHistory[opRound].lotteryWinNumber == 0x0);\n            blockHistory[nowSblockNo] = blockStat(\n                msg.sender, block.number, _merkleRoot, _ipfsAddr, block.timestamp,\n                _uniqArticleCount, _vote1Count, _vote2Count, opRoundHistory[opRound].id\n            );\n            v1EndTime = block.timestamp;\n            vote1Threshold = _increaseThreshold(vote1Threshold);\n            opRoundHistory[opRound].lotteryBlockNo = nowSblockNo;\n            opRoundHistory[opRound].lotteryWinNumber = calcLotteryWinNumber(_merkleRoot, blockhash(block.number-1));\n            roundVote2Count = 0;  // should be 0 already but reset anyway\n            atV1 = false;\n        } else if (opRound != 0 && atV1 == false && (block.timestamp - v1EndTime > maxVoteTime)) {  // too long! End this Opround-v2 and proceed to next OpRound\n            // TODO: uncomment following lines?\n            // require(minSuccessRate == opRoundHistory[opRound-1].minSuccessRate);\n            // require(_baseline == 0);\n            // require(_finalListIpfs == '0x0');\n            // require(_successRateDB == opRoundHistory[opRound-1].succesRateDB);\n            blockHistory[nowSblockNo] = blockStat(\n                msg.sender, block.number, _merkleRoot, _ipfsAddr, block.timestamp,\n                _uniqArticleCount, _vote1Count, _vote2Count, opRoundHistory[opRound].id\n            );\n            vote2Threshold = _decreaseThreshold(vote2Threshold);\n            v2EndTime = block.timestamp;\n            // should validator update new _successRateDB in NDR? should _baseline and finalListIpfs have values?\n            _toNextOpRound(_merkleRoot, _minSuccessRate, _baseline, _successRateDB, _finalListIpfs);\n        } else if (opRound != 0 && atV1 == false && isEnoughV2(roundVote2Count+_vote2Count)) { // finalist\n            // require(_finalListIpfs != 0x0 && _successRateDB != 0x0);\n            require(_baseline >= 1);  // what else reasonable value?\n            blockHistory[nowSblockNo] = blockStat(\n                msg.sender, block.number, _merkleRoot, _ipfsAddr, block.timestamp,\n                _uniqArticleCount, _vote1Count, _vote2Count, opRoundHistory[opRound].id\n            );\n            vote2Threshold = _increaseThreshold(vote2Threshold);\n            v2EndTime = block.timestamp;\n            _toNextOpRound(_merkleRoot, _minSuccessRate, _baseline, _successRateDB, _finalListIpfs);\n        } else {  // regular sblock, only accumulate votes\n            roundVote1Count += _vote1Count;\n            roundVote2Count += _vote2Count;\n            articleCount += _uniqArticleCount;  // right now, this is only used in genesis\n            blockHistory[nowSblockNo] = blockStat(\n                msg.sender, block.number, _merkleRoot, _ipfsAddr, block.timestamp,\n                _uniqArticleCount, _vote1Count, _vote2Count, opRoundHistory[opRound].id\n            );\n        }\n\n        nowSblockNo += 1;\n\n        return true;\n    }\n\n    function isEnoughV1(uint v1Count) public view returns (bool) {\n        uint activeMemberCount = MemberShipInterface(memberContractAddr).getActiveMemberCount();\n        require(activeMemberCount >= 3);  // '3' is num of coreManagers, or use 1? 100?\n        uint vote1Rate = (100 * v1Count) / activeMemberCount;\n        // assert(vote1Rate <= 100);  // not true if every can vote multiple times\n        if (vote1Rate >= vote1Threshold) {\n            return true;\n        }\n    }\n\n    function isEnoughV2(uint v2Count) public view returns (bool) {\n        uint activeMemberCount = MemberShipInterface(memberContractAddr).getActiveMemberCount();\n        require(activeMemberCount >= 3);  // '3' is num of coreManagers, or use 1? 100?\n        // vote2Rate select ABOUT 25% of people from 50% of member, i.e., ~1/8 of total members\n        // Here try to keep vote2Rate roughly in the range of 0 and 100, so multiply 8 back.\n        // Note that the '1/8' factor is uncertain, so 'vote2Rate' could be larger than 100\n        uint vote2Rate = (8 * 100 * v2Count) / activeMemberCount;\n        if (vote2Rate >= vote2Threshold) {\n            return true;\n        }\n    }\n\n    // Lottery related\n    function calcLotteryWinNumber(bytes32 _mr, bytes32 _bhash) public pure returns(bytes32) {\n        // require(_mr != 0x0 && _bhash != 0x0);  // leave these checks to other function\n        return keccak256(abi.encodePacked(_mr, _bhash));\n    }\n\n    function _getBytes32HexNthDigit(bytes32 _ticket, uint8 _digit) public pure returns(bytes1){\n        require(_digit >=0 && _digit <=63);  // treat bytes32 as 64 hex characters\n        if (_digit % 2 == 1) {\n            return bytes1(uint8(_ticket[_digit/2])%16);  // _digit/2 = Math.floor(digit/2)\n        } else {\n            return bytes1(uint8(_ticket[_digit/2])/16);\n        }\n    }\n\n    function lotteryWins(bytes32 _winHex, bytes32 _ticket, uint8 _numRange) public pure returns(bool) {\n        // NOTE: in real product, should either record _numRange or make it constant\n        // Rule: A ticket wins if: it's X-th digit (count from behind) is Y\n        // where `X` is determined by first digit of `lotteryWinNumber` (in the range of 0 and 3)\n        // and `Y` is the last digit of `winHex`\n        // the rule of determining `X` and `Y` should sync with 'libSampleTicket.js' in 'OptractP2PCli'\n        require(_numRange >= 1 && _numRange <= 16);\n        uint8 refDigit = uint8(_getBytes32HexNthDigit(_winHex, 0)) % 4;\n        bytes1 winHexChar1 = _getBytes32HexNthDigit(_winHex, 63);  // last digit\n        uint8 w1 = uint8(winHexChar1);\n        uint8 w2 = (w1 + _numRange) % 16;\n        uint8 t = uint8(_getBytes32HexNthDigit(_ticket, 63 - refDigit));\n        if (w2 > w1)  {\n            if (t >= w1 && t < w2) {\n                return true;\n            }\n        } else {\n            if (t >= w1 || t < w2) {\n                return true;\n            }\n        }\n    }\n\n    function _isWinningTicket(uint _opRound, bytes32 _ticket) internal view returns(bool) {\n        require(_opRound >= opRound && opRoundHistory[_opRound].lotteryWinNumber != 0x0);\n        bytes32 winHex = opRoundHistory[_opRound].lotteryWinNumber;\n        return lotteryWins(winHex, _ticket, numRange);\n    }\n\n    function setNumRange(uint8 _numRange) public managerOnly {  // for test only\n        require(_numRange >= 1 && _numRange <=15);\n        numRange = _numRange;\n    }\n\n    function isWinningTicket(uint _opRound, bytes32 _ticket) public view returns(bool, uint8) {\n        // TODO: add all merkle validation arguments in order to verify the txHash is BEFORE the lottery\n        return (_isWinningTicket(_opRound, _ticket), opRoundHistory[_opRound-1].minSuccessRate);\n    }\n\n    // claim reward\n    function txExist(bytes32[] memory proof, bool[] memory isLeft, bytes32 txHash, uint _sblockNo) public view returns (bool){\n        require(_sblockNo < nowSblockNo);\n        require(blockHistory[_sblockNo].merkleRoot != 0x0);\n        return merkleTreeValidator(proof, isLeft, txHash, blockHistory[_sblockNo].merkleRoot);\n    }\n\n    function verifySignature(address _signer, bytes32 _msg, uint8 _v, bytes32 _r, bytes32 _s) public pure returns(bool){\n        // Looks like the default prefix (of ethereum) is not used; should we introduce our own prefix?\n        // bytes memory prefix = \"\\x19Ethereum Signed Message:\\n32\";\n        // bytes32 prefixedHash = keccak256(abi.encodePacked(prefix, _msg));\n        // address signer = ecrecover(prefixedHash, _v, _r, _s);\n        address signer = ecrecover(_msg, _v, _r, _s);\n        return _signer == signer;\n    }\n\n    function claimReward(\n        uint _opRound, bytes32[] calldata proof, bool[] calldata isLeft, bytes32 txHash, uint _sblockNo\n    ) external returns(bool) {\n        // requirements:\n        // * the txHash is in the tree\n        // * the txHash happen before the lottery round of that _opRound\n        // * the txHash is submitted by the msg.sender\n        //   - is \"verifySignature()\" enough? Can the \"_msg\" in verifySignature() related to this txHash?\n        //   - alternatively, use the following to verify txHash: [msg.sender, opround, aid, v1block, v1leaf, v2block, v2leaf, since, ...]\n        // * require(isWinningTicket(opround, txHash))\n        // * current time is not too far from sblockNo (how far is acceptable?)\n        //   - can the \"_opRound\" easily calculated from \"sblockNo\"?\n        //   - or, if no \"_opRound\" as input argument, only check recent N opRound, if the \"sblockNo\" is still\n        //     earlier than the opRoundHistory[opRound-N].blockHeight, then reject. N should between 1 and 5, or?\n        // * require(opRoundClaimed[opRound][msg.sender] == false, \"Only one claim per opRound\");\n        require(_sblockNo <= opRoundHistory[_opRound].lotteryBlockNo);\n        require(txExist(proof, isLeft, txHash, _sblockNo));\n        // how to proof the txhash is from this msg.sender?\n        // require(\n        require(_isWinningTicket(_opRound, txHash));\n        require(_opRound == opRound || _opRound == opRound + 1);  // or only in same opRound?\n        require(opRoundClaimed[_opRound][msg.sender] == false, \"An account can only claim once per opRound\");\n        // bool _win;\n        // uint _msr;\n        // (_win, _msr) = isWinningTicket(_opRound, txHash);\n        // require(_win);\n\n        opRoundClaimed[opRound][msg.sender] = true;\n        // uint _amount = 100;  // should be a global (constant) variable. Or fix a value in QOT\n        // QOTInterface(QOTAddr).mint(_toAddr, _amount);\n    }\n\n    // merkle tree and leaves\n    function merkleTreeValidator(\n        bytes32[] memory proof,\n        bool[] memory isLeft,\n        bytes32 targetLeaf,\n        bytes32 _merkleRoot\n    ) public pure returns (bool) {\n        require(proof.length < 32);  // 2**32 ~ 4.3e9 leaves!\n        require(proof.length == isLeft.length);\n\n        bytes32 targetHash = targetLeaf;\n        for (uint256 i = 0; i < proof.length; i++) {\n            bytes32 proofEle = proof[i];\n            if (isLeft[i]) {\n                targetHash = keccak256(abi.encodePacked(proofEle, targetHash));\n            } else if (!isLeft[i]) {\n                targetHash = keccak256(abi.encodePacked(targetHash, proofEle));\n            } else {\n                return false;\n            }\n        }\n        return targetHash == _merkleRoot;\n    }\n\n    // TODO: update these calcLeaf()\n    // function calcLeaf(\n    //     uint _nonce,\n    //     bytes32 _ipfs,\n    //     uint _since,\n    //     uint _agree,\n    //     uint _disagree,\n    //     bytes32 _reply,\n    //     bytes32 _comment\n    // ) external view returns (bytes32) {\n    //     // note: the \"category\" field is not here yet\n    //     return keccak256(abi.encodePacked(_nonce, msg.sender, _ipfs, _since, _agree, _disagree, _reply, _comment));\n    // }\n\n\n    // query\n    function getBlockNo() external view returns (uint) {\n        return nowSblockNo;\n    }\n\n    function getBlockInfo(uint _sblockNo) external view returns (uint, bytes32, bytes32) {\n        // TODO: update the results\n        return (blockHistory[_sblockNo].blockHeight, blockHistory[_sblockNo].merkleRoot, blockHistory[_sblockNo].ipfsAddr);\n    }\n\n    function queryValidator(uint _idx) external view returns (address) {\n        require(_idx>=0 && _idx < 16);\n        return validators[_idx];\n    }\n\n    function isValidator(address _addr) external view returns (bool) {\n        if (_addr == address(0)) {\n            return false;\n        } else {\n            return (_addr == validators[0] || _addr == validators[1] || _addr == validators[2] ||\n                    _addr == validators[3] || _addr == validators[4] || _addr == validators[5] ||\n                    _addr == validators[6] || _addr == validators[7] || _addr == validators[8] ||\n                    _addr == validators[9] || _addr == validators[10] || _addr == validators[11] ||\n                    _addr == validators[12] || _addr == validators[13] || _addr == validators[14] ||\n                    _addr == validators[15]);\n        }\n    }\n\n    function queryManagers() external view returns (address[4] memory) {\n        return managers;\n    }\n\n    function queryOpRound() external view returns (uint) {\n        return opRound;\n    }\n\n    function queryOpRoundId(uint _opRound) external view returns (bytes32) {\n        if (_opRound != 0) {\n            return opRoundHistory[_opRound].id;\n        } else {\n            return opRoundHistory[opRound].id;  // current opRound\n        }\n    }\n\n    function queryOpRoundLottery(uint _opRound) external view returns (uint, uint, bytes32) {\n        uint i;\n        if (_opRound == 0) {\n            i = opRound;\n        } else {\n            i = _opRound;\n        }\n        return (i, opRoundHistory[i].lotteryBlockNo, opRoundHistory[i].lotteryWinNumber);\n    }\n\n    function queryOpRoundInfo(uint _opRound) external view returns (uint, bytes32, uint) {\n        uint i;\n        if (_opRound == 0) {\n            i = opRound;\n        } else {\n            i = _opRound;\n        }\n        return (i, opRoundHistory[i].id, opRoundHistory[i].initBlockNo);\n    }\n\n    function queryOpRoundResult(uint _opRound) external view returns (uint, bytes32, uint, uint8, bytes32, bytes32, uint, bytes32, uint) {\n        // this function returns default values (0 and 0x0) for current pending opRound\n        // this function is different from other `queryOpRound*()` in that a input of 0 does not mean query current opRound\n        // For opRoundHistory[0], the id is '0x1' and the initBlockNo is the block.height during construction\n        uint i;\n        uint op;\n        if (_opRound == opRound) {  // return (0, 0x0, 0, 0, 0x0, 0x0, 0, 0x0, 0);\n            op = 0;\n            i = opRound + 2;\n            // 'stack too deep' if return (0, 0x0, ...) here and also return in next else-block!?\n        } else {\n            op = _opRound;\n            i = _opRound;\n        }\n        return (op,\n                opRoundHistory[i].id,\n                opRoundHistory[i].initBlockNo,\n                opRoundHistory[i].minSuccessRate,\n                opRoundHistory[i].succesRateDB,\n                opRoundHistory[i].finalListIpfs,\n                opRoundHistory[i].lotteryBlockNo,\n                opRoundHistory[i].lotteryWinNumber,\n                opRoundHistory[i].baseline\n               );\n    }\n\n    function queryOpRoundProgress() external view returns (uint, bool, uint, uint, uint, uint) {\n        return(articleCount, atV1, v1EndTime, v2EndTime, roundVote1Count, roundVote2Count);\n    }\n\n    function queryVoteThresholds() external view returns(uint, uint, uint) {\n        return (opRound, vote1Threshold, vote2Threshold);\n    }\n\n    function queryFinalist(uint _opRound) external view returns(uint, uint, bytes32){\n        uint i;\n        if (_opRound == 0) {\n            i = opRound;\n        } else {\n            i = _opRound;\n        }\n        return (i, opRoundHistory[i].baseline, opRoundHistory[i].finalListIpfs);\n    }\n\n    // upgradable\n    function setValidator(address _newValidator, uint _idx) public managerOnly returns (bool) {\n        require(_newValidator != address(0));\n        require(_idx >=0 && _idx < 16);\n        validators[_idx] = _newValidator;\n        return true;\n    }\n\n    function setManager(address _newManager) public managerOnly returns (bool) {\n        // assume no need to change first 3 managers\n        managers[3] = _newManager;\n        return true;\n    }\n\n}\n",
  "sourcePath": "/home/kai/Work/project/OptractContract/contracts/BlockRegistry.sol",
  "compiler": {
    "name": "solc",
    "version": "0.5.2+commit.1df8f40c.Linux.g++"
  },
  "schemaVersion": "3.0.1",
  "updatedAt": "2019-07-26T14:16:18.305Z",
  "devdoc": {
    "methods": {}
  },
  "userdoc": {
    "methods": {}
  }
}