{
  "contractName": "BlockRegistry",
  "abi": [
    {
      "constant": true,
      "inputs": [],
      "name": "sblockTimeStep",
      "outputs": [
        {
          "name": "",
          "type": "uint256"
        }
      ],
      "payable": false,
      "stateMutability": "view",
      "type": "function",
      "signature": "0x17ca3256"
    },
    {
      "constant": true,
      "inputs": [
        {
          "name": "",
          "type": "uint256"
        }
      ],
      "name": "validators",
      "outputs": [
        {
          "name": "",
          "type": "address"
        }
      ],
      "payable": false,
      "stateMutability": "view",
      "type": "function",
      "signature": "0x35aa2e44"
    },
    {
      "constant": true,
      "inputs": [
        {
          "name": "",
          "type": "uint256"
        }
      ],
      "name": "managers",
      "outputs": [
        {
          "name": "",
          "type": "address"
        }
      ],
      "payable": false,
      "stateMutability": "view",
      "type": "function",
      "signature": "0x3d39c260"
    },
    {
      "constant": true,
      "inputs": [],
      "name": "initHeight",
      "outputs": [
        {
          "name": "",
          "type": "uint256"
        }
      ],
      "payable": false,
      "stateMutability": "view",
      "type": "function",
      "signature": "0xa78eacdb"
    },
    {
      "constant": true,
      "inputs": [],
      "name": "sblockNo",
      "outputs": [
        {
          "name": "",
          "type": "uint256"
        }
      ],
      "payable": false,
      "stateMutability": "view",
      "type": "function",
      "signature": "0xca0ebb56"
    },
    {
      "constant": true,
      "inputs": [
        {
          "name": "",
          "type": "uint256"
        }
      ],
      "name": "blockHistory",
      "outputs": [
        {
          "name": "blockHeight",
          "type": "uint256"
        },
        {
          "name": "merkleRoot",
          "type": "bytes32"
        },
        {
          "name": "ipfsAddr",
          "type": "bytes32"
        },
        {
          "name": "timestamp",
          "type": "uint256"
        }
      ],
      "payable": false,
      "stateMutability": "view",
      "type": "function",
      "signature": "0xde250ace"
    },
    {
      "inputs": [],
      "payable": false,
      "stateMutability": "nonpayable",
      "type": "constructor",
      "signature": "constructor"
    },
    {
      "constant": false,
      "inputs": [
        {
          "name": "_initHeight",
          "type": "uint256"
        },
        {
          "name": "_merkleRoot",
          "type": "bytes32"
        },
        {
          "name": "_ipfsAddr",
          "type": "bytes32"
        }
      ],
      "name": "submitMerkleRoot",
      "outputs": [
        {
          "name": "",
          "type": "bool"
        }
      ],
      "payable": false,
      "stateMutability": "nonpayable",
      "type": "function",
      "signature": "0x41a88b9d"
    },
    {
      "constant": true,
      "inputs": [
        {
          "name": "proof",
          "type": "bytes32[]"
        },
        {
          "name": "isLeft",
          "type": "bool[]"
        },
        {
          "name": "targetLeaf",
          "type": "bytes32"
        },
        {
          "name": "_merkleRoot",
          "type": "bytes32"
        }
      ],
      "name": "merkleTreeValidator",
      "outputs": [
        {
          "name": "",
          "type": "bool"
        }
      ],
      "payable": false,
      "stateMutability": "pure",
      "type": "function",
      "signature": "0xb8f69e37"
    },
    {
      "constant": true,
      "inputs": [
        {
          "name": "_nonce",
          "type": "uint256"
        },
        {
          "name": "_ipfs",
          "type": "bytes32"
        },
        {
          "name": "_since",
          "type": "uint256"
        },
        {
          "name": "_agree",
          "type": "uint256"
        },
        {
          "name": "_disagree",
          "type": "uint256"
        },
        {
          "name": "_reply",
          "type": "bytes32"
        },
        {
          "name": "_comment",
          "type": "bytes32"
        }
      ],
      "name": "calcLeaf",
      "outputs": [
        {
          "name": "",
          "type": "bytes32"
        }
      ],
      "payable": false,
      "stateMutability": "view",
      "type": "function",
      "signature": "0xb07cceb4"
    },
    {
      "constant": true,
      "inputs": [
        {
          "name": "_nonce",
          "type": "uint256"
        },
        {
          "name": "_sender",
          "type": "address"
        },
        {
          "name": "_ipfs",
          "type": "bytes32"
        },
        {
          "name": "_since",
          "type": "uint256"
        },
        {
          "name": "_agree",
          "type": "uint256"
        },
        {
          "name": "_disagree",
          "type": "uint256"
        },
        {
          "name": "_reply",
          "type": "bytes32"
        },
        {
          "name": "_comment",
          "type": "bytes32"
        }
      ],
      "name": "calcLeaf2",
      "outputs": [
        {
          "name": "",
          "type": "bytes32"
        }
      ],
      "payable": false,
      "stateMutability": "view",
      "type": "function",
      "signature": "0x84a3c1b8"
    },
    {
      "constant": true,
      "inputs": [
        {
          "name": "_account",
          "type": "address"
        },
        {
          "name": "_start",
          "type": "uint256"
        },
        {
          "name": "_end",
          "type": "uint256"
        },
        {
          "name": "_gain",
          "type": "uint256"
        },
        {
          "name": "_apUsed",
          "type": "uint256"
        },
        {
          "name": "_accReward",
          "type": "uint256"
        }
      ],
      "name": "calcAccountStateSummaryLeaf",
      "outputs": [
        {
          "name": "",
          "type": "bytes32"
        }
      ],
      "payable": false,
      "stateMutability": "view",
      "type": "function",
      "signature": "0x60e6c8c7"
    },
    {
      "constant": true,
      "inputs": [],
      "name": "getBlockNo",
      "outputs": [
        {
          "name": "",
          "type": "uint256"
        }
      ],
      "payable": false,
      "stateMutability": "view",
      "type": "function",
      "signature": "0xfba0e4bb"
    },
    {
      "constant": true,
      "inputs": [
        {
          "name": "_sblockNo",
          "type": "uint256"
        }
      ],
      "name": "getBlockInfo",
      "outputs": [
        {
          "name": "",
          "type": "uint256"
        },
        {
          "name": "",
          "type": "bytes32"
        },
        {
          "name": "",
          "type": "bytes32"
        }
      ],
      "payable": false,
      "stateMutability": "view",
      "type": "function",
      "signature": "0xbb141cf4"
    },
    {
      "constant": true,
      "inputs": [
        {
          "name": "_idx",
          "type": "uint256"
        }
      ],
      "name": "queryValidator",
      "outputs": [
        {
          "name": "",
          "type": "address"
        }
      ],
      "payable": false,
      "stateMutability": "view",
      "type": "function",
      "signature": "0x810e0b20"
    },
    {
      "constant": true,
      "inputs": [],
      "name": "queryManagers",
      "outputs": [
        {
          "name": "",
          "type": "address[4]"
        }
      ],
      "payable": false,
      "stateMutability": "view",
      "type": "function",
      "signature": "0xca48c69d"
    },
    {
      "constant": false,
      "inputs": [
        {
          "name": "_newValidator",
          "type": "address"
        },
        {
          "name": "_idx",
          "type": "uint256"
        }
      ],
      "name": "setValidator",
      "outputs": [
        {
          "name": "",
          "type": "bool"
        }
      ],
      "payable": false,
      "stateMutability": "nonpayable",
      "type": "function",
      "signature": "0xabb9406b"
    },
    {
      "constant": false,
      "inputs": [
        {
          "name": "_newManager",
          "type": "address"
        }
      ],
      "name": "setManager",
      "outputs": [
        {
          "name": "",
          "type": "bool"
        }
      ],
      "payable": false,
      "stateMutability": "nonpayable",
      "type": "function",
      "signature": "0xd0ebdbe7"
    }
  ],
  "bytecode": "0x6080604052610e106016553480156200001757600080fd5b5060806040519081016040528073b440ea2780614b3c6a00e512f432785e7dfafa3e73ffffffffffffffffffffffffffffffffffffffff1673ffffffffffffffffffffffffffffffffffffffff168152602001734ad56641c569c91c64c28a904cda50ae5326da4173ffffffffffffffffffffffffffffffffffffffff1673ffffffffffffffffffffffffffffffffffffffff16815260200173af7400787c54422be8b44154b1273661f1259ccd73ffffffffffffffffffffffffffffffffffffffff1673ffffffffffffffffffffffffffffffffffffffff168152602001600073ffffffffffffffffffffffffffffffffffffffff1673ffffffffffffffffffffffffffffffffffffffff168152506000906004620001399291906200056f565b506102006040519081016040528073b440ea2780614b3c6a00e512f432785e7dfafa3e73ffffffffffffffffffffffffffffffffffffffff1673ffffffffffffffffffffffffffffffffffffffff168152602001734ad56641c569c91c64c28a904cda50ae5326da4173ffffffffffffffffffffffffffffffffffffffff1673ffffffffffffffffffffffffffffffffffffffff16815260200173af7400787c54422be8b44154b1273661f1259ccd73ffffffffffffffffffffffffffffffffffffffff1673ffffffffffffffffffffffffffffffffffffffff168152602001600073ffffffffffffffffffffffffffffffffffffffff1673ffffffffffffffffffffffffffffffffffffffff168152602001600073ffffffffffffffffffffffffffffffffffffffff1673ffffffffffffffffffffffffffffffffffffffff168152602001600073ffffffffffffffffffffffffffffffffffffffff1673ffffffffffffffffffffffffffffffffffffffff168152602001600073ffffffffffffffffffffffffffffffffffffffff1673ffffffffffffffffffffffffffffffffffffffff168152602001600073ffffffffffffffffffffffffffffffffffffffff1673ffffffffffffffffffffffffffffffffffffffff168152602001600073ffffffffffffffffffffffffffffffffffffffff1673ffffffffffffffffffffffffffffffffffffffff168152602001600073ffffffffffffffffffffffffffffffffffffffff1673ffffffffffffffffffffffffffffffffffffffff168152602001600073ffffffffffffffffffffffffffffffffffffffff1673ffffffffffffffffffffffffffffffffffffffff168152602001600073ffffffffffffffffffffffffffffffffffffffff1673ffffffffffffffffffffffffffffffffffffffff168152602001600073ffffffffffffffffffffffffffffffffffffffff1673ffffffffffffffffffffffffffffffffffffffff168152602001600073ffffffffffffffffffffffffffffffffffffffff1673ffffffffffffffffffffffffffffffffffffffff168152602001600073ffffffffffffffffffffffffffffffffffffffff1673ffffffffffffffffffffffffffffffffffffffff168152602001600073ffffffffffffffffffffffffffffffffffffffff1673ffffffffffffffffffffffffffffffffffffffff168152506004906010620004c0929190620005f1565b506080604051908101604052804381526020017f307830000000000000000000000000000000000000000000000000000000000081526020017f307830000000000000000000000000000000000000000000000000000000000081526020014281525060176000808152602001908152602001600020600082015181600001556020820151816001015560408201518160020155606082015181600301559050506001601581905550620006b9565b8260048101928215620005de579160200282015b82811115620005dd5782518260006101000a81548173ffffffffffffffffffffffffffffffffffffffff021916908373ffffffffffffffffffffffffffffffffffffffff1602179055509160200191906001019062000583565b5b509050620005ed919062000673565b5090565b826010810192821562000660579160200282015b828111156200065f5782518260006101000a81548173ffffffffffffffffffffffffffffffffffffffff021916908373ffffffffffffffffffffffffffffffffffffffff1602179055509160200191906001019062000605565b5b5090506200066f919062000673565b5090565b620006b691905b80821115620006b257600081816101000a81549073ffffffffffffffffffffffffffffffffffffffff0219169055506001016200067a565b5090565b90565b61221580620006c96000396000f3fe608060405234801561001057600080fd5b5060043610610128576000357c010000000000000000000000000000000000000000000000000000000090048063abb9406b116100bf578063ca0ebb561161008e578063ca0ebb5614610664578063ca48c69d14610682578063d0ebdbe7146106c8578063de250ace14610724578063fba0e4bb1461077b57610128565b8063abb9406b14610436578063b07cceb41461049c578063b8f69e371461051a578063bb141cf41461061457610128565b806360e6c8c7116100fb57806360e6c8c714610281578063810e0b201461030b57806384a3c1b814610379578063a78eacdb1461041857610128565b806317ca32561461012d57806335aa2e441461014b5780633d39c260146101b957806341a88b9d14610227575b600080fd5b610135610799565b6040518082815260200191505060405180910390f35b6101776004803603602081101561016157600080fd5b810190808035906020019092919050505061079f565b604051808273ffffffffffffffffffffffffffffffffffffffff1673ffffffffffffffffffffffffffffffffffffffff16815260200191505060405180910390f35b6101e5600480360360208110156101cf57600080fd5b81019080803590602001909291905050506107d4565b604051808273ffffffffffffffffffffffffffffffffffffffff1673ffffffffffffffffffffffffffffffffffffffff16815260200191505060405180910390f35b6102676004803603606081101561023d57600080fd5b81019080803590602001909291908035906020019092919080359060200190929190505050610809565b604051808215151515815260200191505060405180910390f35b6102f5600480360360c081101561029757600080fd5b81019080803573ffffffffffffffffffffffffffffffffffffffff1690602001909291908035906020019092919080359060200190929190803590602001909291908035906020019092919080359060200190929190505050610fb2565b6040518082815260200191505060405180910390f35b6103376004803603602081101561032157600080fd5b810190808035906020019092919050505061173b565b604051808273ffffffffffffffffffffffffffffffffffffffff1673ffffffffffffffffffffffffffffffffffffffff16815260200191505060405180910390f35b610402600480360361010081101561039057600080fd5b8101908080359060200190929190803573ffffffffffffffffffffffffffffffffffffffff169060200190929190803590602001909291908035906020019092919080359060200190929190803590602001909291908035906020019092919080359060200190929190505050611790565b6040518082815260200191505060405180910390f35b610420611a14565b6040518082815260200191505060405180910390f35b6104826004803603604081101561044c57600080fd5b81019080803573ffffffffffffffffffffffffffffffffffffffff16906020019092919080359060200190929190505050611a1a565b604051808215151515815260200191505060405180910390f35b610504600480360360e08110156104b257600080fd5b8101908080359060200190929190803590602001909291908035906020019092919080359060200190929190803590602001909291908035906020019092919080359060200190929190505050611ca7565b6040518082815260200191505060405180910390f35b6105fa6004803603608081101561053057600080fd5b810190808035906020019064010000000081111561054d57600080fd5b82018360208201111561055f57600080fd5b8035906020019184602083028401116401000000008311171561058157600080fd5b9091929391929390803590602001906401000000008111156105a257600080fd5b8201836020820111156105b457600080fd5b803590602001918460208302840111640100000000831117156105d657600080fd5b90919293919293908035906020019092919080359060200190929190505050611d50565b604051808215151515815260200191505060405180910390f35b6106406004803603602081101561062a57600080fd5b8101908080359060200190929190505050611e79565b60405180848152602001838152602001828152602001935050505060405180910390f35b61066c611ed0565b6040518082815260200191505060405180910390f35b61068a611ed6565b6040518082600460200280838360005b838110156106b557808201518184015260208101905061069a565b5050505090500191505060405180910390f35b61070a600480360360208110156106de57600080fd5b81019080803573ffffffffffffffffffffffffffffffffffffffff169060200190929190505050611f57565b604051808215151515815260200191505060405180910390f35b6107506004803603602081101561073a57600080fd5b810190808035906020019092919050505061218c565b6040518085815260200184815260200183815260200182815260200194505050505060405180910390f35b6107836121bc565b6040518082815260200191505060405180910390f35b60165481565b6004816010811015156107ae57fe5b016000915054906101000a900473ffffffffffffffffffffffffffffffffffffffff1681565b6000816004811015156107e357fe5b016000915054906101000a900473ffffffffffffffffffffffffffffffffffffffff1681565b60008073ffffffffffffffffffffffffffffffffffffffff163373ffffffffffffffffffffffffffffffffffffffff161415151561084657600080fd5b6004600060108110151561085657fe5b0160009054906101000a900473ffffffffffffffffffffffffffffffffffffffff1673ffffffffffffffffffffffffffffffffffffffff163373ffffffffffffffffffffffffffffffffffffffff16148061090d5750600460016010811015156108bc57fe5b0160009054906101000a900473ffffffffffffffffffffffffffffffffffffffff1673ffffffffffffffffffffffffffffffffffffffff163373ffffffffffffffffffffffffffffffffffffffff16145b8061097457506004600260108110151561092357fe5b0160009054906101000a900473ffffffffffffffffffffffffffffffffffffffff1673ffffffffffffffffffffffffffffffffffffffff163373ffffffffffffffffffffffffffffffffffffffff16145b806109db57506004600360108110151561098a57fe5b0160009054906101000a900473ffffffffffffffffffffffffffffffffffffffff1673ffffffffffffffffffffffffffffffffffffffff163373ffffffffffffffffffffffffffffffffffffffff16145b80610a4157506004806010811015156109f057fe5b0160009054906101000a900473ffffffffffffffffffffffffffffffffffffffff1673ffffffffffffffffffffffffffffffffffffffff163373ffffffffffffffffffffffffffffffffffffffff16145b80610aa8575060046005601081101515610a5757fe5b0160009054906101000a900473ffffffffffffffffffffffffffffffffffffffff1673ffffffffffffffffffffffffffffffffffffffff163373ffffffffffffffffffffffffffffffffffffffff16145b80610b0f575060046006601081101515610abe57fe5b0160009054906101000a900473ffffffffffffffffffffffffffffffffffffffff1673ffffffffffffffffffffffffffffffffffffffff163373ffffffffffffffffffffffffffffffffffffffff16145b80610b76575060046007601081101515610b2557fe5b0160009054906101000a900473ffffffffffffffffffffffffffffffffffffffff1673ffffffffffffffffffffffffffffffffffffffff163373ffffffffffffffffffffffffffffffffffffffff16145b80610bdd575060046008601081101515610b8c57fe5b0160009054906101000a900473ffffffffffffffffffffffffffffffffffffffff1673ffffffffffffffffffffffffffffffffffffffff163373ffffffffffffffffffffffffffffffffffffffff16145b80610c44575060046009601081101515610bf357fe5b0160009054906101000a900473ffffffffffffffffffffffffffffffffffffffff1673ffffffffffffffffffffffffffffffffffffffff163373ffffffffffffffffffffffffffffffffffffffff16145b80610cab57506004600a601081101515610c5a57fe5b0160009054906101000a900473ffffffffffffffffffffffffffffffffffffffff1673ffffffffffffffffffffffffffffffffffffffff163373ffffffffffffffffffffffffffffffffffffffff16145b80610d1257506004600b601081101515610cc157fe5b0160009054906101000a900473ffffffffffffffffffffffffffffffffffffffff1673ffffffffffffffffffffffffffffffffffffffff163373ffffffffffffffffffffffffffffffffffffffff16145b80610d7957506004600c601081101515610d2857fe5b0160009054906101000a900473ffffffffffffffffffffffffffffffffffffffff1673ffffffffffffffffffffffffffffffffffffffff163373ffffffffffffffffffffffffffffffffffffffff16145b80610de057506004600d601081101515610d8f57fe5b0160009054906101000a900473ffffffffffffffffffffffffffffffffffffffff1673ffffffffffffffffffffffffffffffffffffffff163373ffffffffffffffffffffffffffffffffffffffff16145b80610e4757506004600e601081101515610df657fe5b0160009054906101000a900473ffffffffffffffffffffffffffffffffffffffff1673ffffffffffffffffffffffffffffffffffffffff163373ffffffffffffffffffffffffffffffffffffffff16145b80610eae57506004600f601081101515610e5d57fe5b0160009054906101000a900473ffffffffffffffffffffffffffffffffffffffff1673ffffffffffffffffffffffffffffffffffffffff163373ffffffffffffffffffffffffffffffffffffffff16145b1515610eb957600080fd5b607860176000601554815260200190815260200160002060030154014210151515610ee357600080fd5b600060176000600160155401815260200190815260200160002060000154148015610f295750600060176000600160155401815260200190815260200160002060030154145b1515610f3457600080fd5b60806040519081016040528085815260200184815260200183815260200142815250601760006015548152602001908152602001600020600082015181600001556020820151816001015560408201518160020155606082015181600301559050506001601560008282540192505081905550600190509392505050565b60008073ffffffffffffffffffffffffffffffffffffffff163373ffffffffffffffffffffffffffffffffffffffff1614151515610fef57600080fd5b60046000601081101515610fff57fe5b0160009054906101000a900473ffffffffffffffffffffffffffffffffffffffff1673ffffffffffffffffffffffffffffffffffffffff163373ffffffffffffffffffffffffffffffffffffffff1614806110b657506004600160108110151561106557fe5b0160009054906101000a900473ffffffffffffffffffffffffffffffffffffffff1673ffffffffffffffffffffffffffffffffffffffff163373ffffffffffffffffffffffffffffffffffffffff16145b8061111d5750600460026010811015156110cc57fe5b0160009054906101000a900473ffffffffffffffffffffffffffffffffffffffff1673ffffffffffffffffffffffffffffffffffffffff163373ffffffffffffffffffffffffffffffffffffffff16145b8061118457506004600360108110151561113357fe5b0160009054906101000a900473ffffffffffffffffffffffffffffffffffffffff1673ffffffffffffffffffffffffffffffffffffffff163373ffffffffffffffffffffffffffffffffffffffff16145b806111ea575060048060108110151561119957fe5b0160009054906101000a900473ffffffffffffffffffffffffffffffffffffffff1673ffffffffffffffffffffffffffffffffffffffff163373ffffffffffffffffffffffffffffffffffffffff16145b8061125157506004600560108110151561120057fe5b0160009054906101000a900473ffffffffffffffffffffffffffffffffffffffff1673ffffffffffffffffffffffffffffffffffffffff163373ffffffffffffffffffffffffffffffffffffffff16145b806112b857506004600660108110151561126757fe5b0160009054906101000a900473ffffffffffffffffffffffffffffffffffffffff1673ffffffffffffffffffffffffffffffffffffffff163373ffffffffffffffffffffffffffffffffffffffff16145b8061131f5750600460076010811015156112ce57fe5b0160009054906101000a900473ffffffffffffffffffffffffffffffffffffffff1673ffffffffffffffffffffffffffffffffffffffff163373ffffffffffffffffffffffffffffffffffffffff16145b8061138657506004600860108110151561133557fe5b0160009054906101000a900473ffffffffffffffffffffffffffffffffffffffff1673ffffffffffffffffffffffffffffffffffffffff163373ffffffffffffffffffffffffffffffffffffffff16145b806113ed57506004600960108110151561139c57fe5b0160009054906101000a900473ffffffffffffffffffffffffffffffffffffffff1673ffffffffffffffffffffffffffffffffffffffff163373ffffffffffffffffffffffffffffffffffffffff16145b8061145457506004600a60108110151561140357fe5b0160009054906101000a900473ffffffffffffffffffffffffffffffffffffffff1673ffffffffffffffffffffffffffffffffffffffff163373ffffffffffffffffffffffffffffffffffffffff16145b806114bb57506004600b60108110151561146a57fe5b0160009054906101000a900473ffffffffffffffffffffffffffffffffffffffff1673ffffffffffffffffffffffffffffffffffffffff163373ffffffffffffffffffffffffffffffffffffffff16145b8061152257506004600c6010811015156114d157fe5b0160009054906101000a900473ffffffffffffffffffffffffffffffffffffffff1673ffffffffffffffffffffffffffffffffffffffff163373ffffffffffffffffffffffffffffffffffffffff16145b8061158957506004600d60108110151561153857fe5b0160009054906101000a900473ffffffffffffffffffffffffffffffffffffffff1673ffffffffffffffffffffffffffffffffffffffff163373ffffffffffffffffffffffffffffffffffffffff16145b806115f057506004600e60108110151561159f57fe5b0160009054906101000a900473ffffffffffffffffffffffffffffffffffffffff1673ffffffffffffffffffffffffffffffffffffffff163373ffffffffffffffffffffffffffffffffffffffff16145b8061165757506004600f60108110151561160657fe5b0160009054906101000a900473ffffffffffffffffffffffffffffffffffffffff1673ffffffffffffffffffffffffffffffffffffffff163373ffffffffffffffffffffffffffffffffffffffff16145b151561166257600080fd5b33878787878787604051602001808873ffffffffffffffffffffffffffffffffffffffff1673ffffffffffffffffffffffffffffffffffffffff166c010000000000000000000000000281526014018773ffffffffffffffffffffffffffffffffffffffff1673ffffffffffffffffffffffffffffffffffffffff166c010000000000000000000000000281526014018681526020018581526020018481526020018381526020018281526020019750505050505050506040516020818303038152906040528051906020012090509695505050505050565b600080821015801561174d5750601082105b151561175857600080fd5b60048260108110151561176757fe5b0160009054906101000a900473ffffffffffffffffffffffffffffffffffffffff169050919050565b60008073ffffffffffffffffffffffffffffffffffffffff163373ffffffffffffffffffffffffffffffffffffffff16141515156117cd57600080fd5b6000806004811015156117dc57fe5b0160009054906101000a900473ffffffffffffffffffffffffffffffffffffffff1673ffffffffffffffffffffffffffffffffffffffff163373ffffffffffffffffffffffffffffffffffffffff16148061189357506000600160048110151561184257fe5b0160009054906101000a900473ffffffffffffffffffffffffffffffffffffffff1673ffffffffffffffffffffffffffffffffffffffff163373ffffffffffffffffffffffffffffffffffffffff16145b806118fa5750600060026004811015156118a957fe5b0160009054906101000a900473ffffffffffffffffffffffffffffffffffffffff1673ffffffffffffffffffffffffffffffffffffffff163373ffffffffffffffffffffffffffffffffffffffff16145b8061196157506000600360048110151561191057fe5b0160009054906101000a900473ffffffffffffffffffffffffffffffffffffffff1673ffffffffffffffffffffffffffffffffffffffff163373ffffffffffffffffffffffffffffffffffffffff16145b151561196c57600080fd5b8888888888888888604051602001808981526020018873ffffffffffffffffffffffffffffffffffffffff1673ffffffffffffffffffffffffffffffffffffffff166c010000000000000000000000000281526014018781526020018681526020018581526020018481526020018381526020018281526020019850505050505050505060405160208183030381529060405280519060200120905098975050505050505050565b60145481565b60008073ffffffffffffffffffffffffffffffffffffffff163373ffffffffffffffffffffffffffffffffffffffff1614151515611a5757600080fd5b600080600481101515611a6657fe5b0160009054906101000a900473ffffffffffffffffffffffffffffffffffffffff1673ffffffffffffffffffffffffffffffffffffffff163373ffffffffffffffffffffffffffffffffffffffff161480611b1d575060006001600481101515611acc57fe5b0160009054906101000a900473ffffffffffffffffffffffffffffffffffffffff1673ffffffffffffffffffffffffffffffffffffffff163373ffffffffffffffffffffffffffffffffffffffff16145b80611b84575060006002600481101515611b3357fe5b0160009054906101000a900473ffffffffffffffffffffffffffffffffffffffff1673ffffffffffffffffffffffffffffffffffffffff163373ffffffffffffffffffffffffffffffffffffffff16145b80611beb575060006003600481101515611b9a57fe5b0160009054906101000a900473ffffffffffffffffffffffffffffffffffffffff1673ffffffffffffffffffffffffffffffffffffffff163373ffffffffffffffffffffffffffffffffffffffff16145b1515611bf657600080fd5b600073ffffffffffffffffffffffffffffffffffffffff168373ffffffffffffffffffffffffffffffffffffffff1614151515611c3257600080fd5b60008210158015611c435750601082105b1515611c4e57600080fd5b82600483601081101515611c5e57fe5b0160006101000a81548173ffffffffffffffffffffffffffffffffffffffff021916908373ffffffffffffffffffffffffffffffffffffffff1602179055506001905092915050565b60008733888888888888604051602001808981526020018873ffffffffffffffffffffffffffffffffffffffff1673ffffffffffffffffffffffffffffffffffffffff166c0100000000000000000000000002815260140187815260200186815260200185815260200184815260200183815260200182815260200198505050505050505050604051602081830303815290604052805190602001209050979650505050505050565b6000602087879050101515611d6457600080fd5b8484905087879050141515611d7857600080fd5b600083905060008090505b88889050811015611e675760008989838181101515611d9e57fe5b9050602002013590508787838181101515611db557fe5b90506020020135151515611df95780836040516020018083815260200182815260200192505050604051602081830303815290604052805190602001209250611e59565b8787838181101515611e0757fe5b9050602002013515151515611e4c5782816040516020018083815260200182815260200192505050604051602081830303815290604052805190602001209250611e58565b60009350505050611e6f565b5b508080600101915050611d83565b508281149150505b9695505050505050565b60008060006017600085815260200190815260200160002060000154601760008681526020019081526020016000206001015460176000878152602001908152602001600020600201549250925092509193909250565b60155481565b611ede6121c6565b6000600480602002604051908101604052809291908260048015611f4d576020028201915b8160009054906101000a900473ffffffffffffffffffffffffffffffffffffffff1673ffffffffffffffffffffffffffffffffffffffff1681526020019060010190808311611f03575b5050505050905090565b60008073ffffffffffffffffffffffffffffffffffffffff163373ffffffffffffffffffffffffffffffffffffffff1614151515611f9457600080fd5b600080600481101515611fa357fe5b0160009054906101000a900473ffffffffffffffffffffffffffffffffffffffff1673ffffffffffffffffffffffffffffffffffffffff163373ffffffffffffffffffffffffffffffffffffffff16148061205a57506000600160048110151561200957fe5b0160009054906101000a900473ffffffffffffffffffffffffffffffffffffffff1673ffffffffffffffffffffffffffffffffffffffff163373ffffffffffffffffffffffffffffffffffffffff16145b806120c157506000600260048110151561207057fe5b0160009054906101000a900473ffffffffffffffffffffffffffffffffffffffff1673ffffffffffffffffffffffffffffffffffffffff163373ffffffffffffffffffffffffffffffffffffffff16145b806121285750600060036004811015156120d757fe5b0160009054906101000a900473ffffffffffffffffffffffffffffffffffffffff1673ffffffffffffffffffffffffffffffffffffffff163373ffffffffffffffffffffffffffffffffffffffff16145b151561213357600080fd5b816000600360048110151561214457fe5b0160006101000a81548173ffffffffffffffffffffffffffffffffffffffff021916908373ffffffffffffffffffffffffffffffffffffffff16021790555060019050919050565b60176020528060005260406000206000915090508060000154908060010154908060020154908060030154905084565b6000601554905090565b60806040519081016040528060049060208202803883398082019150509050509056fea165627a7a723058201797bb67bb7b0d326fca551c35ba651beef61601e8e15127aca9086a9d19612c0029",
  "source": "pragma solidity ^0.5.2;\nimport \"./ERC721/math/safe-math.sol\";\n\n\ncontract BlockRegistry{\n    using SafeMath for uint256;\n\n    // Variables\n    address[4] public managers;  // use \"coreManagers\" and \"managers\" as in \"MemberShip.sol\"?\n    address[16] public validators;\n    uint public initHeight;\n    uint public sblockNo;  // start from 1\n    // uint public prevTimeStamp;\n    uint public sblockTimeStep = 60 minutes;  // what's the balance between UX and cost-control?\n\n    struct blockStat{\n        uint blockHeight;\n        bytes32 merkleRoot;\n        // string ipfsAddr;\n        // save ipfsAddr in bytes32 (instead of string) to save storage; to convert ipfsAddr from\n        // string to hex: 1. strip the 'Qm', 2. convert to hex\n        bytes32 ipfsAddr;\n        uint timestamp;\n    }\n    mapping (uint => blockStat) public blockHistory;\n\n    // struct articleStatStruct{\n    //     address authorAddr;\n    //     uint since;\n    //     uint8 status;  // should contain: unknown / active / archived / flagged / debate /  ...\n    //     uint8 category;  // contain politics / blockchain / ...? or?\n    //     uint32 agree;  // uint32 ~ 4e9\n    //     uint32 disagree;\n    // }\n    // mapping (bytes32 => articleStatStruct) public articleStat;\n\n\n    constructor() public {\n        // always INITIALIZE ARRAY VALUES!!!\n        managers = [ 0xB440ea2780614b3c6a00e512f432785E7dfAFA3E,\n            0x4AD56641C569C91C64C28a904cda50AE5326Da41,\n            0xaF7400787c54422Be8B44154B1273661f1259CcD,\n            address(0)];\n        validators = [ 0xB440ea2780614b3c6a00e512f432785E7dfAFA3E,\n            0x4AD56641C569C91C64C28a904cda50AE5326Da41,\n            0xaF7400787c54422Be8B44154B1273661f1259CcD,\n            address(0), address(0), address(0), address(0), address(0),\n            address(0), address(0), address(0), address(0), address(0),\n            address(0), address(0), address(0)];\n        // prevTimeStamp = block.timestamp - sblockTimeStep;\n        blockHistory[0] = blockStat(block.number, '0x0', '0x0', block.timestamp);  // or some more \"meaningful\" data?\n        sblockNo = 1;\n    }\n\n    // Modifiers\n    modifier managerOnly() {\n        require(msg.sender != address(0));\n        require(msg.sender == managers[0] || msg.sender == managers[1] || msg.sender == managers[2] || msg.sender == managers[3]);\n        _;\n    }\n\n    modifier validatorOnly() {\n        require(msg.sender != address(0));\n        require(msg.sender == validators[0] || msg.sender == validators[1] || msg.sender == validators[2] || \n                msg.sender == validators[3] || msg.sender == validators[4] || msg.sender == validators[5] || \n                msg.sender == validators[6] || msg.sender == validators[7] || msg.sender == validators[8] || \n                msg.sender == validators[9] || msg.sender == validators[10] || msg.sender == validators[11] || \n                msg.sender == validators[12] || msg.sender == validators[13] || msg.sender == validators[14] ||\n                msg.sender == validators[15]);\n        _;\n    }\n\n    function submitMerkleRoot(uint _initHeight, bytes32 _merkleRoot, bytes32 _ipfsAddr) public validatorOnly returns (bool) {\n        // require(block.timestamp >= blockHistory[sblockNo] + sblockTimeStep, 'too soon');\n        require(block.timestamp >= blockHistory[sblockNo].timestamp + 2 minutes);  // for test purpose, use 2 min instead of sblockTimeStep\n        require(blockHistory[sblockNo+1].blockHeight == 0 && blockHistory[sblockNo+1].timestamp == 0);\n        // comment following lines for debug purpose\n        // require(blockHistory[_initHeight].blockHeight == 0 &&\n        //         blockHistory[_initHeight].merkleRoot == 0x0 &&\n        //         keccak256(abi.encodePacked(blockHistory[_initHeight].ipfsAddr)) == keccak256(abi.encodePacked('')),\n        //         'side-block exists');\n        // require(blockHistory[sblockNo-1].blockHeight < _initHeight);\n        blockHistory[sblockNo] = blockStat(_initHeight, _merkleRoot, _ipfsAddr, block.timestamp);\n        // Q: or blockHistory[block.number]?\n        // Q: is it worth to add the field such as \"prevInitHeight\" in the struct?\n        sblockNo += 1;\n        return true;\n    }\n\n    // merkle tree and leaves\n    function merkleTreeValidator(\n        bytes32[] calldata proof,\n        bool[] calldata isLeft,\n        bytes32 targetLeaf,\n        bytes32 _merkleRoot\n    ) external pure returns (bool) {\n        require(proof.length < 32);  // 2**32 ~ 4.3e9 leaves!\n        require(proof.length == isLeft.length);\n\n        bytes32 targetHash = targetLeaf;\n        for (uint256 i = 0; i < proof.length; i++) {\n            bytes32 proofEle = proof[i];\n            if (isLeft[i]) {\n                    targetHash = keccak256(abi.encodePacked(proofEle, targetHash));\n            } else if (!isLeft[i]) {\n                    targetHash = keccak256(abi.encodePacked(targetHash, proofEle));\n            } else {\n                    return false;\n            }\n        }\n        return targetHash == _merkleRoot;\n    }\n\n    function calcLeaf(\n        uint _nonce,\n        bytes32 _ipfs,\n        uint _since,\n        uint _agree,\n        uint _disagree,\n        bytes32 _reply,\n        bytes32 _comment\n    ) external view returns (bytes32) {\n        // note: the \"category\" field is not here yet\n        return keccak256(abi.encodePacked(_nonce, msg.sender, _ipfs, _since, _agree, _disagree, _reply, _comment));\n    }\n\n    function calcLeaf2(\n        uint _nonce,\n        address _sender,\n        bytes32 _ipfs,\n        uint _since,\n        uint _agree,\n        uint _disagree,\n        bytes32 _reply,\n        bytes32 _comment\n    ) external view managerOnly returns (bytes32) {\n        return keccak256(abi.encodePacked(_nonce, _sender, _ipfs, _since, _agree, _disagree, _reply, _comment));\n    }\n\n    // function getActiveArticles() external view returns (bytes32[] memory) {\n    //     bytes32[] memory articles;\n    //     return articles;\n    // }\n\n    function calcAccountStateSummaryLeaf(\n        address _account,\n        uint _start,\n        uint _end,\n        uint _gain,\n        uint _apUsed,\n        uint _accReward\n    ) external view validatorOnly returns (bytes32){\n        return keccak256(abi.encodePacked(msg.sender, _account, _start, _end, _gain, _apUsed, _accReward));\n    }\n\n    // query\n    function getBlockNo() external view returns (uint) {\n        return sblockNo;\n    }\n\n    function getBlockInfo(uint _sblockNo) external view returns (uint, bytes32, bytes32) {\n        return (blockHistory[_sblockNo].blockHeight, blockHistory[_sblockNo].merkleRoot, blockHistory[_sblockNo].ipfsAddr);\n    }\n\n    function queryValidator(uint _idx) external view returns (address) {\n        require(_idx>=0 && _idx < 16);\n        return validators[_idx];\n    }\n\n    function queryManagers() external view returns (address[4] memory) {\n        return managers;\n    }\n\n    // upgradable\n    function setValidator(address _newValidator, uint _idx) public managerOnly returns (bool) {\n        require(_newValidator != address(0));\n        require(_idx >=0 && _idx < 16);\n        validators[_idx] = _newValidator;\n        return true;\n    }\n\n    function setManager(address _newManager) public managerOnly returns (bool) {\n        // assume no need to change first 3 managers\n        managers[3] = _newManager;\n        return true;\n    }\n\n}\n",
  "sourcePath": "/home/kai/Work/project/OptractContract/contracts/BlockRegistry.sol",
  "compiler": {
    "name": "solc",
    "version": "0.5.2+commit.1df8f40c.Linux.g++"
  },
  "schemaVersion": "3.0.1",
  "updatedAt": "2019-05-16T13:37:30.791Z",
  "devdoc": {
    "methods": {}
  },
  "userdoc": {
    "methods": {}
  }
}