{
  "contractName": "Erebor",
  "abi": [
    {
      "constant": true,
      "inputs": [],
      "name": "ticketsToWinNFT",
      "outputs": [
        {
          "name": "",
          "type": "uint256"
        }
      ],
      "payable": false,
      "stateMutability": "view",
      "type": "function",
      "signature": "0x0c391659"
    },
    {
      "constant": true,
      "inputs": [],
      "name": "difficulty",
      "outputs": [
        {
          "name": "",
          "type": "bytes32"
        }
      ],
      "payable": false,
      "stateMutability": "view",
      "type": "function",
      "signature": "0x19cae462"
    },
    {
      "constant": true,
      "inputs": [],
      "name": "QOTAddr",
      "outputs": [
        {
          "name": "",
          "type": "address"
        }
      ],
      "payable": false,
      "stateMutability": "view",
      "type": "function",
      "signature": "0x21a8770d"
    },
    {
      "constant": true,
      "inputs": [],
      "name": "validator",
      "outputs": [
        {
          "name": "",
          "type": "address"
        }
      ],
      "payable": false,
      "stateMutability": "view",
      "type": "function",
      "signature": "0x3a5381b5"
    },
    {
      "constant": true,
      "inputs": [
        {
          "name": "",
          "type": "uint256"
        }
      ],
      "name": "battleHistory",
      "outputs": [
        {
          "name": "merkleRoot",
          "type": "bytes32"
        },
        {
          "name": "ipfsAddr",
          "type": "string"
        }
      ],
      "payable": false,
      "stateMutability": "view",
      "type": "function",
      "signature": "0x4ccc616d"
    },
    {
      "constant": true,
      "inputs": [],
      "name": "debug2",
      "outputs": [
        {
          "name": "",
          "type": "bool"
        }
      ],
      "payable": false,
      "stateMutability": "view",
      "type": "function",
      "signature": "0x5ba88c28"
    },
    {
      "constant": true,
      "inputs": [],
      "name": "debug3",
      "outputs": [
        {
          "name": "",
          "type": "bool"
        }
      ],
      "payable": false,
      "stateMutability": "view",
      "type": "function",
      "signature": "0x610da891"
    },
    {
      "constant": true,
      "inputs": [],
      "name": "maxPlayer",
      "outputs": [
        {
          "name": "",
          "type": "uint256"
        }
      ],
      "payable": false,
      "stateMutability": "view",
      "type": "function",
      "signature": "0x6426b1e4"
    },
    {
      "constant": true,
      "inputs": [],
      "name": "playercount",
      "outputs": [
        {
          "name": "",
          "type": "uint256"
        }
      ],
      "payable": false,
      "stateMutability": "view",
      "type": "function",
      "signature": "0x6b180b59"
    },
    {
      "constant": true,
      "inputs": [],
      "name": "board",
      "outputs": [
        {
          "name": "",
          "type": "bytes32"
        }
      ],
      "payable": false,
      "stateMutability": "view",
      "type": "function",
      "signature": "0x7cd3229a"
    },
    {
      "constant": true,
      "inputs": [],
      "name": "debug1",
      "outputs": [
        {
          "name": "",
          "type": "bool"
        }
      ],
      "payable": false,
      "stateMutability": "view",
      "type": "function",
      "signature": "0x7dc7c5a5"
    },
    {
      "constant": true,
      "inputs": [],
      "name": "defender",
      "outputs": [
        {
          "name": "",
          "type": "address"
        }
      ],
      "payable": false,
      "stateMutability": "view",
      "type": "function",
      "signature": "0x7f4c91c5"
    },
    {
      "constant": true,
      "inputs": [],
      "name": "ticketSeed",
      "outputs": [
        {
          "name": "",
          "type": "bytes32"
        }
      ],
      "payable": false,
      "stateMutability": "view",
      "type": "function",
      "signature": "0x8186a8f9"
    },
    {
      "constant": true,
      "inputs": [],
      "name": "ELEMAddr",
      "outputs": [
        {
          "name": "",
          "type": "address"
        }
      ],
      "payable": false,
      "stateMutability": "view",
      "type": "function",
      "signature": "0x885869dc"
    },
    {
      "constant": true,
      "inputs": [],
      "name": "period_all",
      "outputs": [
        {
          "name": "",
          "type": "uint256"
        }
      ],
      "payable": false,
      "stateMutability": "view",
      "type": "function",
      "signature": "0xa4dd1d7d"
    },
    {
      "constant": true,
      "inputs": [],
      "name": "initHeight",
      "outputs": [
        {
          "name": "",
          "type": "uint256"
        }
      ],
      "payable": false,
      "stateMutability": "view",
      "type": "function",
      "signature": "0xa78eacdb"
    },
    {
      "constant": true,
      "inputs": [],
      "name": "setup",
      "outputs": [
        {
          "name": "",
          "type": "bool"
        }
      ],
      "payable": false,
      "stateMutability": "view",
      "type": "function",
      "signature": "0xba0bba40"
    },
    {
      "constant": true,
      "inputs": [],
      "name": "memberContractAddr",
      "outputs": [
        {
          "name": "",
          "type": "address"
        }
      ],
      "payable": false,
      "stateMutability": "view",
      "type": "function",
      "signature": "0xc170f356"
    },
    {
      "constant": true,
      "inputs": [],
      "name": "prevboard",
      "outputs": [
        {
          "name": "",
          "type": "bytes32"
        }
      ],
      "payable": false,
      "stateMutability": "view",
      "type": "function",
      "signature": "0xcff483b9"
    },
    {
      "constant": true,
      "inputs": [],
      "name": "fee",
      "outputs": [
        {
          "name": "",
          "type": "uint256"
        }
      ],
      "payable": false,
      "stateMutability": "view",
      "type": "function",
      "signature": "0xddca3f43"
    },
    {
      "constant": true,
      "inputs": [],
      "name": "winner",
      "outputs": [
        {
          "name": "",
          "type": "address"
        }
      ],
      "payable": false,
      "stateMutability": "view",
      "type": "function",
      "signature": "0xdfbf53ae"
    },
    {
      "constant": true,
      "inputs": [
        {
          "name": "",
          "type": "address"
        }
      ],
      "name": "playerDB",
      "outputs": [
        {
          "name": "initHeightJoined",
          "type": "uint256"
        },
        {
          "name": "scoreHash",
          "type": "bytes32"
        },
        {
          "name": "claimed",
          "type": "bool"
        }
      ],
      "payable": false,
      "stateMutability": "view",
      "type": "function",
      "signature": "0xfa3cb11f"
    },
    {
      "inputs": [
        {
          "name": "_init",
          "type": "bytes32"
        },
        {
          "name": "_QOTAddr",
          "type": "address"
        },
        {
          "name": "_ELEMAddr",
          "type": "address"
        },
        {
          "name": "_memberContracAddr",
          "type": "address"
        }
      ],
      "payable": false,
      "stateMutability": "nonpayable",
      "type": "constructor",
      "signature": "constructor"
    },
    {
      "payable": false,
      "stateMutability": "nonpayable",
      "type": "fallback"
    },
    {
      "constant": false,
      "inputs": [
        {
          "name": "_debug1",
          "type": "bool"
        },
        {
          "name": "_debug2",
          "type": "bool"
        },
        {
          "name": "_debug3",
          "type": "bool"
        }
      ],
      "name": "debugParams",
      "outputs": [],
      "payable": false,
      "stateMutability": "nonpayable",
      "type": "function",
      "signature": "0xe9039b07"
    },
    {
      "constant": false,
      "inputs": [
        {
          "name": "secret",
          "type": "bytes32"
        },
        {
          "name": "slots",
          "type": "string"
        },
        {
          "name": "blockNo",
          "type": "uint256"
        },
        {
          "name": "submitBlocks",
          "type": "uint256[]"
        },
        {
          "name": "winningTickets",
          "type": "uint256[]"
        },
        {
          "name": "proof",
          "type": "bytes32[]"
        },
        {
          "name": "isLeft",
          "type": "bool[]"
        },
        {
          "name": "score",
          "type": "bytes32"
        }
      ],
      "name": "claimLotteReward",
      "outputs": [
        {
          "name": "",
          "type": "bool"
        }
      ],
      "payable": false,
      "stateMutability": "nonpayable",
      "type": "function",
      "signature": "0x76125212"
    },
    {
      "constant": true,
      "inputs": [
        {
          "name": "submitBlocks",
          "type": "uint256[]"
        },
        {
          "name": "winningTickets",
          "type": "uint256[]"
        },
        {
          "name": "genTickets",
          "type": "bytes32[]"
        }
      ],
      "name": "getClaimHash",
      "outputs": [
        {
          "name": "claimHash",
          "type": "bytes32"
        }
      ],
      "payable": false,
      "stateMutability": "view",
      "type": "function",
      "signature": "0x6903be12"
    },
    {
      "constant": false,
      "inputs": [
        {
          "name": "_board",
          "type": "bytes32"
        },
        {
          "name": "submitBlocks",
          "type": "uint256[]"
        },
        {
          "name": "winningTickets",
          "type": "uint256[]"
        },
        {
          "name": "genTickets",
          "type": "bytes32[]"
        }
      ],
      "name": "verifyWinnumber",
      "outputs": [
        {
          "name": "",
          "type": "bool"
        }
      ],
      "payable": false,
      "stateMutability": "nonpayable",
      "type": "function",
      "signature": "0x113097ad"
    },
    {
      "constant": true,
      "inputs": [
        {
          "name": "score",
          "type": "bytes32"
        },
        {
          "name": "numTickets",
          "type": "uint256"
        }
      ],
      "name": "generateTickets",
      "outputs": [
        {
          "name": "",
          "type": "bytes32[]"
        }
      ],
      "payable": false,
      "stateMutability": "view",
      "type": "function",
      "signature": "0xc13375db"
    },
    {
      "constant": true,
      "inputs": [
        {
          "name": "score",
          "type": "bytes32"
        }
      ],
      "name": "getNumOfTickets",
      "outputs": [
        {
          "name": "",
          "type": "uint256"
        }
      ],
      "payable": false,
      "stateMutability": "pure",
      "type": "function",
      "signature": "0x5c0effb2"
    },
    {
      "constant": true,
      "inputs": [
        {
          "name": "_addr",
          "type": "address"
        }
      ],
      "name": "getPlayerInfo",
      "outputs": [
        {
          "name": "",
          "type": "uint256"
        },
        {
          "name": "",
          "type": "bytes32"
        },
        {
          "name": "",
          "type": "bool"
        }
      ],
      "payable": false,
      "stateMutability": "view",
      "type": "function",
      "signature": "0x59328401"
    },
    {
      "constant": false,
      "inputs": [
        {
          "name": "defense",
          "type": "bytes32"
        }
      ],
      "name": "fortify",
      "outputs": [
        {
          "name": "",
          "type": "bool"
        }
      ],
      "payable": true,
      "stateMutability": "payable",
      "type": "function",
      "signature": "0x58533612"
    },
    {
      "constant": false,
      "inputs": [
        {
          "name": "scoreHash",
          "type": "bytes32"
        }
      ],
      "name": "challenge",
      "outputs": [
        {
          "name": "",
          "type": "bool"
        }
      ],
      "payable": true,
      "stateMutability": "payable",
      "type": "function",
      "signature": "0xcffd46dc"
    },
    {
      "constant": true,
      "inputs": [
        {
          "name": "secret",
          "type": "bytes32"
        },
        {
          "name": "blockNo",
          "type": "uint256"
        }
      ],
      "name": "testOutcome",
      "outputs": [
        {
          "name": "_board",
          "type": "bytes32"
        },
        {
          "name": "_slots",
          "type": "bool[32]"
        }
      ],
      "payable": false,
      "stateMutability": "view",
      "type": "function",
      "signature": "0x1cb9409f"
    },
    {
      "constant": true,
      "inputs": [
        {
          "name": "blockNo",
          "type": "uint256"
        },
        {
          "name": "_board",
          "type": "bytes32"
        }
      ],
      "name": "winningNumber",
      "outputs": [
        {
          "name": "",
          "type": "bytes32"
        }
      ],
      "payable": false,
      "stateMutability": "view",
      "type": "function",
      "signature": "0xafde797c"
    },
    {
      "constant": true,
      "inputs": [
        {
          "name": "proof",
          "type": "bytes32[]"
        },
        {
          "name": "isLeft",
          "type": "bool[]"
        },
        {
          "name": "targetLeaf",
          "type": "bytes32"
        },
        {
          "name": "_merkleRoot",
          "type": "bytes32"
        }
      ],
      "name": "merkleTreeValidator",
      "outputs": [
        {
          "name": "",
          "type": "bool"
        }
      ],
      "payable": false,
      "stateMutability": "pure",
      "type": "function",
      "signature": "0xb8f69e37"
    },
    {
      "constant": false,
      "inputs": [
        {
          "name": "_initHeight",
          "type": "uint256"
        },
        {
          "name": "_merkleRoot",
          "type": "bytes32"
        },
        {
          "name": "_ipfsAddr",
          "type": "string"
        }
      ],
      "name": "submitMerkleRoot",
      "outputs": [
        {
          "name": "",
          "type": "bool"
        }
      ],
      "payable": false,
      "stateMutability": "nonpayable",
      "type": "function",
      "signature": "0xb04cd588"
    },
    {
      "constant": true,
      "inputs": [
        {
          "name": "_initHeight",
          "type": "uint256"
        }
      ],
      "name": "getBlockInfo",
      "outputs": [
        {
          "name": "",
          "type": "bytes32"
        },
        {
          "name": "",
          "type": "string"
        }
      ],
      "payable": false,
      "stateMutability": "view",
      "type": "function",
      "signature": "0xbb141cf4"
    },
    {
      "constant": true,
      "inputs": [
        {
          "name": "blockNo",
          "type": "uint256"
        }
      ],
      "name": "getBlockhash",
      "outputs": [
        {
          "name": "",
          "type": "bytes32"
        }
      ],
      "payable": false,
      "stateMutability": "view",
      "type": "function",
      "signature": "0xe9413d38"
    },
    {
      "constant": true,
      "inputs": [
        {
          "name": "secret",
          "type": "bytes32"
        },
        {
          "name": "slotString",
          "type": "string"
        },
        {
          "name": "blockNo",
          "type": "uint256"
        },
        {
          "name": "_board",
          "type": "bytes32"
        },
        {
          "name": "score",
          "type": "bytes32"
        }
      ],
      "name": "compareScore",
      "outputs": [
        {
          "name": "",
          "type": "bool"
        }
      ],
      "payable": false,
      "stateMutability": "view",
      "type": "function",
      "signature": "0x81787864"
    },
    {
      "constant": true,
      "inputs": [
        {
          "name": "secret",
          "type": "bytes32"
        },
        {
          "name": "slotString",
          "type": "string"
        },
        {
          "name": "blockNo",
          "type": "uint256"
        },
        {
          "name": "_board",
          "type": "bytes32"
        }
      ],
      "name": "computeScore",
      "outputs": [
        {
          "name": "out",
          "type": "bytes32"
        }
      ],
      "payable": false,
      "stateMutability": "view",
      "type": "function",
      "signature": "0xa1ef91d8"
    },
    {
      "constant": true,
      "inputs": [
        {
          "name": "b32",
          "type": "bytes32"
        }
      ],
      "name": "bytes32ToString",
      "outputs": [
        {
          "name": "out",
          "type": "string"
        }
      ],
      "payable": false,
      "stateMutability": "pure",
      "type": "function",
      "signature": "0x9201de55"
    },
    {
      "constant": false,
      "inputs": [
        {
          "name": "_newValidator",
          "type": "address"
        }
      ],
      "name": "newValidator",
      "outputs": [
        {
          "name": "",
          "type": "bool"
        }
      ],
      "payable": false,
      "stateMutability": "nonpayable",
      "type": "function",
      "signature": "0x065c11cc"
    },
    {
      "constant": false,
      "inputs": [
        {
          "name": "_newDefender",
          "type": "address"
        }
      ],
      "name": "newDefender",
      "outputs": [
        {
          "name": "",
          "type": "bool"
        }
      ],
      "payable": false,
      "stateMutability": "nonpayable",
      "type": "function",
      "signature": "0xed958671"
    },
    {
      "constant": false,
      "inputs": [
        {
          "name": "_newAddr",
          "type": "address"
        }
      ],
      "name": "newQOTAddr",
      "outputs": [
        {
          "name": "",
          "type": "bool"
        }
      ],
      "payable": false,
      "stateMutability": "nonpayable",
      "type": "function",
      "signature": "0xc724b0d6"
    },
    {
      "constant": false,
      "inputs": [
        {
          "name": "_newAddr",
          "type": "address"
        }
      ],
      "name": "newELEMAddr",
      "outputs": [
        {
          "name": "",
          "type": "bool"
        }
      ],
      "payable": false,
      "stateMutability": "nonpayable",
      "type": "function",
      "signature": "0x9fe7758a"
    },
    {
      "constant": false,
      "inputs": [
        {
          "name": "_addr",
          "type": "address"
        }
      ],
      "name": "newMemberAddr",
      "outputs": [
        {
          "name": "",
          "type": "bool"
        }
      ],
      "payable": false,
      "stateMutability": "nonpayable",
      "type": "function",
      "signature": "0x6cf6d757"
    },
    {
      "constant": false,
      "inputs": [
        {
          "name": "_n",
          "type": "uint256"
        }
      ],
      "name": "renewTicketsToWinNFT",
      "outputs": [
        {
          "name": "",
          "type": "bool"
        }
      ],
      "payable": false,
      "stateMutability": "nonpayable",
      "type": "function",
      "signature": "0x51b6abbc"
    }
  ],
  "bytecode": "0x60806040527c0fffffffffffffffffffffffffffffffffffffffffffffffffffffffff600102600755662386f26fc100006008556000600960006101000a81548160ff0219169083151502179055506000600a556002600b556000601160006101000a81548160ff0219169083151502179055506001601160016101000a81548160ff0219169083151502179055506001601160026101000a81548160ff021916908315150217905550348015620000b657600080fd5b5060405160808062004f5083398101806040526080811015620000d857600080fd5b8101908080519060200190929190805190602001909291908051906020019092919080519060200190929190505050336000806101000a81548173ffffffffffffffffffffffffffffffffffffffff021916908373ffffffffffffffffffffffffffffffffffffffff16021790555033600260006101000a81548173ffffffffffffffffffffffffffffffffffffffff021916908373ffffffffffffffffffffffffffffffffffffffff16021790555082600360006101000a81548173ffffffffffffffffffffffffffffffffffffffff021916908373ffffffffffffffffffffffffffffffffffffffff16021790555081600460006101000a81548173ffffffffffffffffffffffffffffffffffffffff021916908373ffffffffffffffffffffffffffffffffffffffff16021790555080600560006101000a81548173ffffffffffffffffffffffffffffffffffffffff021916908373ffffffffffffffffffffffffffffffffffffffff16021790555060011515620002698562000282640100000000026401000000009004565b15151415156200027857600080fd5b50505050620003fb565b60008060009054906101000a900473ffffffffffffffffffffffffffffffffffffffff1673ffffffffffffffffffffffffffffffffffffffff163373ffffffffffffffffffffffffffffffffffffffff16141515620002e057600080fd5b60001515600960009054906101000a900460ff1615151415156200030357600080fd5b600754821115156200031457600080fd5b4360068190555060606040519081016040528060065481526020016000600102815260200160001515815250600f60003373ffffffffffffffffffffffffffffffffffffffff1673ffffffffffffffffffffffffffffffffffffffff168152602001908152602001600020600082015181600001556020820151816001015560408201518160020160006101000a81548160ff0219169083151502179055509050506001600a600082825401925050819055506001600960006101000a81548160ff021916908315150217905550600d54600e8190555081600d8190555060019050919050565b614b45806200040b6000396000f3fe60806040526004361061029a576000357c0100000000000000000000000000000000000000000000000000000000900480638186a8f91161016c578063bb141cf4116100de578063ddca3f4311610097578063ddca3f4314611aae578063dfbf53ae14611ad9578063e9039b0714611b30578063e9413d3814611b85578063ed95867114611bd4578063fa3cb11f14611c3d5761029a565b8063bb141cf414611828578063c13375db146118e3578063c170f3561461197d578063c724b0d6146119d4578063cff483b914611a3d578063cffd46dc14611a685761029a565b8063a4dd1d7d11610130578063a4dd1d7d146114d1578063a78eacdb146114fc578063afde797c14611527578063b04cd58814611580578063b8f69e3714611674578063ba0bba40146117f95761029a565b80638186a8f914611238578063885869dc146112635780639201de55146112ba5780639fe7758a1461136e578063a1ef91d8146113d75761029a565b80635ba88c28116102105780636cf6d757116101c95780636cf6d75714610cc75780637612521214610d305780637cd3229a1461107f5780637dc7c5a5146110aa5780637f4c91c5146110d957806381787864146111305761029a565b80635ba88c28146109c35780635c0effb2146109f2578063610da89114610a415780636426b1e414610a705780636903be1214610a9b5780636b180b5914610c9c5761029a565b806321a8770d1161026257806321a8770d1461074a5780633a5381b5146107a15780634ccc616d146107f857806351b6abbc146108b35780635853361214610906578063593284011461094c5761029a565b8063065c11cc146103f55780630c3916591461045e578063113097ad1461048957806319cae462146106985780631cb9409f146106c3575b3480156102a657600080fd5b506000809054906101000a900473ffffffffffffffffffffffffffffffffffffffff1673ffffffffffffffffffffffffffffffffffffffff163373ffffffffffffffffffffffffffffffffffffffff1614151561030257600080fd5b60011515600960009054906101000a900460ff1615151480156103295750600a6006540143115b80156103835750600073ffffffffffffffffffffffffffffffffffffffff16600160009054906101000a900473ffffffffffffffffffffffffffffffffffffffff1673ffffffffffffffffffffffffffffffffffffffff16145b151561038e57600080fd5b6000600160006101000a81548173ffffffffffffffffffffffffffffffffffffffff021916908373ffffffffffffffffffffffffffffffffffffffff1602179055506000600960006101000a81548160ff0219169083151502179055506000600a81905550005b34801561040157600080fd5b506104446004803603602081101561041857600080fd5b81019080803573ffffffffffffffffffffffffffffffffffffffff169060200190929190505050611cb4565b604051808215151515815260200191505060405180910390f35b34801561046a57600080fd5b50610473611d97565b6040518082815260200191505060405180910390f35b34801561049557600080fd5b5061067e600480360360808110156104ac57600080fd5b8101908080359060200190929190803590602001906401000000008111156104d357600080fd5b8201836020820111156104e557600080fd5b8035906020019184602083028401116401000000008311171561050757600080fd5b919080806020026020016040519081016040528093929190818152602001838360200280828437600081840152601f19601f8201169050808301925050505050505091929192908035906020019064010000000081111561056757600080fd5b82018360208201111561057957600080fd5b8035906020019184602083028401116401000000008311171561059b57600080fd5b919080806020026020016040519081016040528093929190818152602001838360200280828437600081840152601f19601f820116905080830192505050505050509192919290803590602001906401000000008111156105fb57600080fd5b82018360208201111561060d57600080fd5b8035906020019184602083028401116401000000008311171561062f57600080fd5b919080806020026020016040519081016040528093929190818152602001838360200280828437600081840152601f19601f820116905080830192505050505050509192919290505050611d9d565b604051808215151515815260200191505060405180910390f35b3480156106a457600080fd5b506106ad6120db565b6040518082815260200191505060405180910390f35b3480156106cf57600080fd5b50610706600480360360408110156106e657600080fd5b8101908080359060200190929190803590602001909291905050506120e1565b60405180838152602001826020800280838360005b8381101561073657808201518184015260208101905061071b565b505050509050019250505060405180910390f35b34801561075657600080fd5b5061075f61241e565b604051808273ffffffffffffffffffffffffffffffffffffffff1673ffffffffffffffffffffffffffffffffffffffff16815260200191505060405180910390f35b3480156107ad57600080fd5b506107b6612444565b604051808273ffffffffffffffffffffffffffffffffffffffff1673ffffffffffffffffffffffffffffffffffffffff16815260200191505060405180910390f35b34801561080457600080fd5b506108316004803603602081101561081b57600080fd5b810190808035906020019092919050505061246a565b6040518083815260200180602001828103825283818151815260200191508051906020019080838360005b8381101561087757808201518184015260208101905061085c565b50505050905090810190601f1680156108a45780820380516001836020036101000a031916815260200191505b50935050505060405180910390f35b3480156108bf57600080fd5b506108ec600480360360208110156108d657600080fd5b8101908080359060200190929190505050612526565b604051808215151515815260200191505060405180910390f35b6109326004803603602081101561091c57600080fd5b81019080803590602001909291905050506125ae565b604051808215151515815260200191505060405180910390f35b34801561095857600080fd5b5061099b6004803603602081101561096f57600080fd5b81019080803573ffffffffffffffffffffffffffffffffffffffff169060200190929190505050612724565b6040518084815260200183815260200182151515158152602001935050505060405180910390f35b3480156109cf57600080fd5b506109d861280c565b604051808215151515815260200191505060405180910390f35b3480156109fe57600080fd5b50610a2b60048036036020811015610a1557600080fd5b810190808035906020019092919050505061281f565b6040518082815260200191505060405180910390f35b348015610a4d57600080fd5b50610a566128f5565b604051808215151515815260200191505060405180910390f35b348015610a7c57600080fd5b50610a85612908565b6040518082815260200191505060405180910390f35b348015610aa757600080fd5b50610c8660048036036060811015610abe57600080fd5b8101908080359060200190640100000000811115610adb57600080fd5b820183602082011115610aed57600080fd5b80359060200191846020830284011164010000000083111715610b0f57600080fd5b919080806020026020016040519081016040528093929190818152602001838360200280828437600081840152601f19601f82011690508083019250505050505050919291929080359060200190640100000000811115610b6f57600080fd5b820183602082011115610b8157600080fd5b80359060200191846020830284011164010000000083111715610ba357600080fd5b919080806020026020016040519081016040528093929190818152602001838360200280828437600081840152601f19601f82011690508083019250505050505050919291929080359060200190640100000000811115610c0357600080fd5b820183602082011115610c1557600080fd5b80359060200191846020830284011164010000000083111715610c3757600080fd5b919080806020026020016040519081016040528093929190818152602001838360200280828437600081840152601f19601f82011690508083019250505050505050919291929050505061290e565b6040518082815260200191505060405180910390f35b348015610ca857600080fd5b50610cb1612a3d565b6040518082815260200191505060405180910390f35b348015610cd357600080fd5b50610d1660048036036020811015610cea57600080fd5b81019080803573ffffffffffffffffffffffffffffffffffffffff169060200190929190505050612a43565b604051808215151515815260200191505060405180910390f35b348015610d3c57600080fd5b506110656004803603610100811015610d5457600080fd5b810190808035906020019092919080359060200190640100000000811115610d7b57600080fd5b820183602082011115610d8d57600080fd5b80359060200191846001830284011164010000000083111715610daf57600080fd5b91908080601f016020809104026020016040519081016040528093929190818152602001838380828437600081840152601f19601f8201169050808301925050505050505091929192908035906020019092919080359060200190640100000000811115610e1c57600080fd5b820183602082011115610e2e57600080fd5b80359060200191846020830284011164010000000083111715610e5057600080fd5b919080806020026020016040519081016040528093929190818152602001838360200280828437600081840152601f19601f82011690508083019250505050505050919291929080359060200190640100000000811115610eb057600080fd5b820183602082011115610ec257600080fd5b80359060200191846020830284011164010000000083111715610ee457600080fd5b919080806020026020016040519081016040528093929190818152602001838360200280828437600081840152601f19601f82011690508083019250505050505050919291929080359060200190640100000000811115610f4457600080fd5b820183602082011115610f5657600080fd5b80359060200191846020830284011164010000000083111715610f7857600080fd5b919080806020026020016040519081016040528093929190818152602001838360200280828437600081840152601f19601f82011690508083019250505050505050919291929080359060200190640100000000811115610fd857600080fd5b820183602082011115610fea57600080fd5b8035906020019184602083028401116401000000008311171561100c57600080fd5b919080806020026020016040519081016040528093929190818152602001838360200280828437600081840152601f19601f82011690508083019250505050505050919291929080359060200190929190505050612aea565b604051808215151515815260200191505060405180910390f35b34801561108b57600080fd5b506110946133f5565b6040518082815260200191505060405180910390f35b3480156110b657600080fd5b506110bf6133fb565b604051808215151515815260200191505060405180910390f35b3480156110e557600080fd5b506110ee61340e565b604051808273ffffffffffffffffffffffffffffffffffffffff1673ffffffffffffffffffffffffffffffffffffffff16815260200191505060405180910390f35b34801561113c57600080fd5b5061121e600480360360a081101561115357600080fd5b81019080803590602001909291908035906020019064010000000081111561117a57600080fd5b82018360208201111561118c57600080fd5b803590602001918460018302840111640100000000831117156111ae57600080fd5b91908080601f016020809104026020016040519081016040528093929190818152602001838380828437600081840152601f19601f820116905080830192505050505050509192919290803590602001909291908035906020019092919080359060200190929190505050613433565b604051808215151515815260200191505060405180910390f35b34801561124457600080fd5b5061124d613745565b6040518082815260200191505060405180910390f35b34801561126f57600080fd5b5061127861374b565b604051808273ffffffffffffffffffffffffffffffffffffffff1673ffffffffffffffffffffffffffffffffffffffff16815260200191505060405180910390f35b3480156112c657600080fd5b506112f3600480360360208110156112dd57600080fd5b8101908080359060200190929190505050613771565b6040518080602001828103825283818151815260200191508051906020019080838360005b83811015611333578082015181840152602081019050611318565b50505050905090810190601f1680156113605780820380516001836020036101000a031916815260200191505b509250505060405180910390f35b34801561137a57600080fd5b506113bd6004803603602081101561139157600080fd5b81019080803573ffffffffffffffffffffffffffffffffffffffff169060200190929190505050613976565b604051808215151515815260200191505060405180910390f35b3480156113e357600080fd5b506114bb600480360360808110156113fa57600080fd5b81019080803590602001909291908035906020019064010000000081111561142157600080fd5b82018360208201111561143357600080fd5b8035906020019184600183028401116401000000008311171561145557600080fd5b91908080601f016020809104026020016040519081016040528093929190818152602001838380828437600081840152601f19601f8201169050808301925050505050505091929192908035906020019092919080359060200190929190505050613a1d565b6040518082815260200191505060405180910390f35b3480156114dd57600080fd5b506114e6613dfc565b6040518082815260200191505060405180910390f35b34801561150857600080fd5b50611511613e01565b6040518082815260200191505060405180910390f35b34801561153357600080fd5b5061156a6004803603604081101561154a57600080fd5b810190808035906020019092919080359060200190929190505050613e07565b6040518082815260200191505060405180910390f35b34801561158c57600080fd5b5061165a600480360360608110156115a357600080fd5b810190808035906020019092919080359060200190929190803590602001906401000000008111156115d457600080fd5b8201836020820111156115e657600080fd5b8035906020019184600183028401116401000000008311171561160857600080fd5b91908080601f016020809104026020016040519081016040528093929190818152602001838380828437600081840152601f19601f820116905080830192505050505050509192919290505050613e53565b604051808215151515815260200191505060405180910390f35b34801561168057600080fd5b506117df6004803603608081101561169757600080fd5b81019080803590602001906401000000008111156116b457600080fd5b8201836020820111156116c657600080fd5b803590602001918460208302840111640100000000831117156116e857600080fd5b919080806020026020016040519081016040528093929190818152602001838360200280828437600081840152601f19601f8201169050808301925050505050505091929192908035906020019064010000000081111561174857600080fd5b82018360208201111561175a57600080fd5b8035906020019184602083028401116401000000008311171561177c57600080fd5b919080806020026020016040519081016040528093929190818152602001838360200280828437600081840152601f19601f8201169050808301925050505050505091929192908035906020019092919080359060200190929190505050613fd9565b604051808215151515815260200191505060405180910390f35b34801561180557600080fd5b5061180e6140fd565b604051808215151515815260200191505060405180910390f35b34801561183457600080fd5b506118616004803603602081101561184b57600080fd5b8101908080359060200190929190505050614110565b6040518083815260200180602001828103825283818151815260200191508051906020019080838360005b838110156118a757808201518184015260208101905061188c565b50505050905090810190601f1680156118d45780820380516001836020036101000a031916815260200191505b50935050505060405180910390f35b3480156118ef57600080fd5b506119266004803603604081101561190657600080fd5b8101908080359060200190929190803590602001909291905050506141e6565b6040518080602001828103825283818151815260200191508051906020019060200280838360005b8381101561196957808201518184015260208101905061194e565b505050509050019250505060405180910390f35b34801561198957600080fd5b50611992614299565b604051808273ffffffffffffffffffffffffffffffffffffffff1673ffffffffffffffffffffffffffffffffffffffff16815260200191505060405180910390f35b3480156119e057600080fd5b50611a23600480360360208110156119f757600080fd5b81019080803573ffffffffffffffffffffffffffffffffffffffff1690602001909291905050506142bf565b604051808215151515815260200191505060405180910390f35b348015611a4957600080fd5b50611a52614366565b6040518082815260200191505060405180910390f35b611a9460048036036020811015611a7e57600080fd5b810190808035906020019092919050505061436c565b604051808215151515815260200191505060405180910390f35b348015611aba57600080fd5b50611ac3614765565b6040518082815260200191505060405180910390f35b348015611ae557600080fd5b50611aee61476b565b604051808273ffffffffffffffffffffffffffffffffffffffff1673ffffffffffffffffffffffffffffffffffffffff16815260200191505060405180910390f35b348015611b3c57600080fd5b50611b8360048036036060811015611b5357600080fd5b81019080803515159060200190929190803515159060200190929190803515159060200190929190505050614791565b005b348015611b9157600080fd5b50611bbe60048036036020811015611ba857600080fd5b81019080803590602001909291905050506147e4565b6040518082815260200191505060405180910390f35b348015611be057600080fd5b50611c2360048036036020811015611bf757600080fd5b81019080803573ffffffffffffffffffffffffffffffffffffffff1690602001909291905050506147ef565b604051808215151515815260200191505060405180910390f35b348015611c4957600080fd5b50611c8c60048036036020811015611c6057600080fd5b81019080803573ffffffffffffffffffffffffffffffffffffffff1690602001909291905050506148f3565b6040518084815260200183815260200182151515158152602001935050505060405180910390f35b60008060009054906101000a900473ffffffffffffffffffffffffffffffffffffffff1673ffffffffffffffffffffffffffffffffffffffff163373ffffffffffffffffffffffffffffffffffffffff16141515611d1157600080fd5b600073ffffffffffffffffffffffffffffffffffffffff168273ffffffffffffffffffffffffffffffffffffffff1614151515611d4d57600080fd5b81600260006101000a81548173ffffffffffffffffffffffffffffffffffffffff021916908373ffffffffffffffffffffffffffffffffffffffff16021790555060019050919050565b600b5481565b60008060008060008090505b87518110156120ca57828882815181101515611dc157fe5b9060200190602002015110151515611dd857600080fd5b828882815181101515611de757fe5b906020019060200201511415611e1d57818782815181101515611e0657fe5b90602001906020020151111515611e1c57600080fd5b5b888882815181101515611e2c57fe5b906020019060200201514060405160200180838152602001828152602001925050506040516020818303038152906040528051906020012093506010868883815181101515611e7757fe5b90602001906020020151815181101515611e8d57fe5b90602001906020020151601f602081101515611ea557fe5b1a7f0100000000000000000000000000000000000000000000000000000000000000027f0100000000000000000000000000000000000000000000000000000000000000900460ff16811515611ef757fe5b0660ff16601085601f602081101515611f0c57fe5b1a7f0100000000000000000000000000000000000000000000000000000000000000027f0100000000000000000000000000000000000000000000000000000000000000900460ff16811515611f5e57fe5b0660ff16141515611f765760009450505050506120d3565b60011515600360009054906101000a900473ffffffffffffffffffffffffffffffffffffffff1673ffffffffffffffffffffffffffffffffffffffff166340c10f193360966040518363ffffffff167c0100000000000000000000000000000000000000000000000000000000028152600401808373ffffffffffffffffffffffffffffffffffffffff1673ffffffffffffffffffffffffffffffffffffffff16815260200182815260200192505050602060405180830381600087803b15801561204057600080fd5b505af1158015612054573d6000803e3d6000fd5b505050506040513d602081101561206a57600080fd5b8101908080519060200190929190505050151514151561208957600080fd5b878181518110151561209757fe5b90602001906020020151925086818151811015156120b157fe5b9060200190602002015191508080600101915050611da9565b50600193505050505b949350505050565b60075481565b60006120eb6149fc565b60011515600960009054906101000a900460ff16151514151561210d57600080fd5b600760065401431180156121265750600a600654014311155b151561219a576040517f08c379a000000000000000000000000000000000000000000000000000000000815260040180806020018281038252600e8152602001807f746573746f7574636f6d653a203100000000000000000000000000000000000081525060200191505060405180910390fd5b6007834303101515612214576040517f08c379a000000000000000000000000000000000000000000000000000000000815260040180806020018281038252600e8152602001807f746573746f7574636f6d653a203200000000000000000000000000000000000081525060200191505060405180910390fd5b60014303831115801561222c57506007600654018310155b801561223c5750600a6006540183105b15156122b0576040517f08c379a000000000000000000000000000000000000000000000000000000000815260040180806020018281038252600e8152602001807f746573746f7574636f6d653a203300000000000000000000000000000000000081525060200191505060405180910390fd5b33848440604051602001808473ffffffffffffffffffffffffffffffffffffffff1673ffffffffffffffffffffffffffffffffffffffff166c01000000000000000000000000028152601401838152602001828152602001935050505060405160208183030381529060405280519060200120915060008090505b601f8111151561241057600d548160208110151561234557fe5b1a7f0100000000000000000000000000000000000000000000000000000000000000027effffffffffffffffffffffffffffffffffffffffffffffffffffffffffffff1916838260208110151561239857fe5b1a7f0100000000000000000000000000000000000000000000000000000000000000027effffffffffffffffffffffffffffffffffffffffffffffffffffffffffffff1916101561240357600182826020811015156123f357fe5b6020020190151590811515815250505b808060010191505061232b565b508181915091509250929050565b600360009054906101000a900473ffffffffffffffffffffffffffffffffffffffff1681565b600260009054906101000a900473ffffffffffffffffffffffffffffffffffffffff1681565b6010602052806000526040600020600091509050806000015490806001018054600181600116156101000203166002900480601f01602080910402602001604051908101604052809291908181526020018280546001816001161561010002031660029004801561251c5780601f106124f15761010080835404028352916020019161251c565b820191906000526020600020905b8154815290600101906020018083116124ff57829003601f168201915b5050505050905082565b60008060009054906101000a900473ffffffffffffffffffffffffffffffffffffffff1673ffffffffffffffffffffffffffffffffffffffff163373ffffffffffffffffffffffffffffffffffffffff1614151561258357600080fd5b6001821180156125935750600a82105b151561259e57600080fd5b81600b8190555060019050919050565b60008060009054906101000a900473ffffffffffffffffffffffffffffffffffffffff1673ffffffffffffffffffffffffffffffffffffffff163373ffffffffffffffffffffffffffffffffffffffff1614151561260b57600080fd5b60001515600960009054906101000a900460ff16151514151561262d57600080fd5b6007548211151561263d57600080fd5b4360068190555060606040519081016040528060065481526020016000600102815260200160001515815250600f60003373ffffffffffffffffffffffffffffffffffffffff1673ffffffffffffffffffffffffffffffffffffffff168152602001908152602001600020600082015181600001556020820151816001015560408201518160020160006101000a81548160ff0219169083151502179055509050506001600a600082825401925050819055506001600960006101000a81548160ff021916908315150217905550600d54600e8190555081600d8190555060019050919050565b6000806000600f60008573ffffffffffffffffffffffffffffffffffffffff1673ffffffffffffffffffffffffffffffffffffffff16815260200190815260200160002060000154600f60008673ffffffffffffffffffffffffffffffffffffffff1673ffffffffffffffffffffffffffffffffffffffff16815260200190815260200160002060010154600f60008773ffffffffffffffffffffffffffffffffffffffff1673ffffffffffffffffffffffffffffffffffffffff16815260200190815260200160002060020160009054906101000a900460ff169250925092509193909250565b601160019054906101000a900460ff1681565b60007effffffffffffffffffffffffffffffffffffffffffffffffffffffffffffff60010282111561285457600190506128f0565b7e0fffffffffffffffffffffffffffffffffffffffffffffffffffffffffffff60010282111561288757600290506128f0565b7dffffffffffffffffffffffffffffffffffffffffffffffffffffffffffff6001028211156128b957600390506128f0565b7d0fffffffffffffffffffffffffffffffffffffffffffffffffffffffffff6001028211156128eb57600490506128f0565b600590505b919050565b601160029054906101000a900460ff1681565b6103e881565b600060603373ffffffffffffffffffffffffffffffffffffffff1660405160200180828152602001915050604051602081830303815290604052905060008090505b8451811015612a2a5781868281518110151561296857fe5b9060200190602002015185878481518110151561298157fe5b9060200190602002015181518110151561299757fe5b906020019060200201516040516020018084805190602001908083835b6020831015156129d957805182526020820191506020810190506020830392506129b4565b6001836020036101000a038019825116818451168082178552505050505050905001838152602001828152602001935050505060405160208183030381529060405291508080600101915050612950565b5080805190602001209150509392505050565b600a5481565b60008060009054906101000a900473ffffffffffffffffffffffffffffffffffffffff1673ffffffffffffffffffffffffffffffffffffffff163373ffffffffffffffffffffffffffffffffffffffff16141515612aa057600080fd5b81600560006101000a81548173ffffffffffffffffffffffffffffffffffffffff021916908373ffffffffffffffffffffffffffffffffffffffff16021790555060019050919050565b6000600a855111151515612b66576040517f08c379a000000000000000000000000000000000000000000000000000000000815260040180806020018281038252601d8152602001807f796f752063616e6e6f7420636c61696d206d6f7265207469636b65747300000081525060200191505060405180910390fd5b82518451141515612bdf576040517f08c379a000000000000000000000000000000000000000000000000000000000815260040180806020018281038252601c8152602001807f6c656e206f662070726f6f662f69734c656674206d69736d617463680000000081525060200191505060405180910390fd5b85518551141515612c3b576040517f08c379a0000000000000000000000000000000000000000000000000000000008152600401808060200182810382526028815260200180614af26028913960400191505060405180910390fd5b600060010260106000600f60003373ffffffffffffffffffffffffffffffffffffffff1673ffffffffffffffffffffffffffffffffffffffff1681526020019081526020016000206000015481526020019081526020016000206000015414151515612d0f576040517f08c379a00000000000000000000000000000000000000000000000000000000081526004018080602001828103825260128152602001807f6e6f206d65726b6c6520726f6f7420796574000000000000000000000000000081525060200191505060405180910390fd5b601160009054906101000a900460ff1615612ea35760016014600f60003373ffffffffffffffffffffffffffffffffffffffff1673ffffffffffffffffffffffffffffffffffffffff16815260200190815260200160002060000154010143111515612de3576040517f08c379a00000000000000000000000000000000000000000000000000000000081526004018080602001828103825260098152602001807f746f6f206561726c79000000000000000000000000000000000000000000000081525060200191505060405180910390fd5b60076014600f60003373ffffffffffffffffffffffffffffffffffffffff1673ffffffffffffffffffffffffffffffffffffffff16815260200190815260200160002060000154010143101515612ea2576040517f08c379a00000000000000000000000000000000000000000000000000000000081526004018080602001828103825260088152602001807f746f6f206c61746500000000000000000000000000000000000000000000000081525060200191505060405180910390fd5b5b6000600654600f60003373ffffffffffffffffffffffffffffffffffffffff1673ffffffffffffffffffffffffffffffffffffffff168152602001908152602001600020600001541415612efb57600d549050612f5a565b6014600f60003373ffffffffffffffffffffffffffffffffffffffff1673ffffffffffffffffffffffffffffffffffffffff16815260200190815260200160002060000154600654031115612f5457600e549050612f59565b600080fd5b5b6000600f60003373ffffffffffffffffffffffffffffffffffffffff1673ffffffffffffffffffffffffffffffffffffffff16815260200190815260200160002060020160006101000a81548160ff021916908315150217905550612fc28a8a8a8487613433565b1515612fcd57600080fd5b600f60003373ffffffffffffffffffffffffffffffffffffffff1673ffffffffffffffffffffffffffffffffffffffff1681526020019081526020016000206001015483604051602001808281526020019150506040516020818303038152906040528051906020012014151561308f576040517f08c379a000000000000000000000000000000000000000000000000000000000815260040180806020018281038252602c815260200180614ac6602c913960400191505060405180910390fd5b606061309a8461281f565b6040519080825280602002602001820160405280156130c85781602001602082028038833980820191505090505b5090506130dd846130d88661281f565b6141e6565b905060006130ec89898461290e565b905061315287878360106000600f60003373ffffffffffffffffffffffffffffffffffffffff1673ffffffffffffffffffffffffffffffffffffffff16815260200190815260200160002060000154815260200190815260200160002060000154613fd9565b15156131c6576040517f08c379a00000000000000000000000000000000000000000000000000000000081526004018080602001828103825260138152602001807f6d65726b6c652070726f6f66206661696c65640000000000000000000000000081525060200191505060405180910390fd5b601160019054906101000a900460ff161561326357600115156131eb848b8b86611d9d565b1515141515613262576040517f08c379a00000000000000000000000000000000000000000000000000000000081526004018080602001828103825260148152602001807f666f756e6420612077726f6e67207469636b657400000000000000000000000081525060200191505060405180910390fd5b5b601160029054906101000a900460ff16156133e257600b5488511015156133e157606061328f82613771565b9050600460009054906101000a900473ffffffffffffffffffffffffffffffffffffffff1673ffffffffffffffffffffffffffffffffffffffff1663d3fc9864338460019004846040518463ffffffff167c0100000000000000000000000000000000000000000000000000000000028152600401808473ffffffffffffffffffffffffffffffffffffffff1673ffffffffffffffffffffffffffffffffffffffff16815260200183815260200180602001828103825283818151815260200191508051906020019080838360005b8381101561337957808201518184015260208101905061335e565b50505050905090810190601f1680156133a65780820380516001836020036101000a031916815260200191505b50945050505050600060405180830381600087803b1580156133c757600080fd5b505af11580156133db573d6000803e3d6000fd5b50505050505b5b6001935050505098975050505050505050565b600d5481565b601160009054906101000a900460ff1681565b6000809054906101000a900473ffffffffffffffffffffffffffffffffffffffff1681565b60008033878640604051602001808473ffffffffffffffffffffffffffffffffffffffff1673ffffffffffffffffffffffffffffffffffffffff166c0100000000000000000000000002815260140183815260200182815260200193505050506040516020818303038152906040528051906020012090506060869050600080600090505b60208110156137335760307f01000000000000000000000000000000000000000000000000000000000000000283828151811015156134f357fe5b9060200101517f010000000000000000000000000000000000000000000000000000000000000090047f0100000000000000000000000000000000000000000000000000000000000000027effffffffffffffffffffffffffffffffffffffffffffffffffffffffffffff191614156135f5576008810260ff7f010000000000000000000000000000000000000000000000000000000000000002888360208110151561359c57fe5b1a7f010000000000000000000000000000000000000000000000000000000000000002167effffffffffffffffffffffffffffffffffffffffffffffffffffffffffffff1916908060020a820491505082179150613726565b60317f010000000000000000000000000000000000000000000000000000000000000002838281518110151561362757fe5b9060200101517f010000000000000000000000000000000000000000000000000000000000000090047f0100000000000000000000000000000000000000000000000000000000000000027effffffffffffffffffffffffffffffffffffffffffffffffffffffffffffff19161415613725576008810260ff7f01000000000000000000000000000000000000000000000000000000000000000285836020811015156136d057fe5b1a7f010000000000000000000000000000000000000000000000000000000000000002167effffffffffffffffffffffffffffffffffffffffffffffffffffffffffffff1916908060020a8204915050821791505b5b80806001019150506134b8565b50848114935050505095945050505050565b600c5481565b600460009054906101000a900473ffffffffffffffffffffffffffffffffffffffff1681565b606080604080519080825280601f01601f1916602001820160405280156137a75781602001600182028038833980820191505090505b50905060008090505b60208160ff16101561396c576000848260ff166020811015156137cf57fe5b1a7f010000000000000000000000000000000000000000000000000000000000000002905060006010827f0100000000000000000000000000000000000000000000000000000000000000900460ff1681151561382857fe5b047f01000000000000000000000000000000000000000000000000000000000000000290506000817f01000000000000000000000000000000000000000000000000000000000000009004601002837f01000000000000000000000000000000000000000000000000000000000000009004037f01000000000000000000000000000000000000000000000000000000000000000290506138c88261492a565b856002860260ff168151811015156138dc57fe5b9060200101907effffffffffffffffffffffffffffffffffffffffffffffffffffffffffffff1916908160001a9053506139158161492a565b856001600287020160ff1681518110151561392c57fe5b9060200101907effffffffffffffffffffffffffffffffffffffffffffffffffffffffffffff1916908160001a90535050505080806001019150506137b0565b5080915050919050565b60008060009054906101000a900473ffffffffffffffffffffffffffffffffffffffff1673ffffffffffffffffffffffffffffffffffffffff163373ffffffffffffffffffffffffffffffffffffffff161415156139d357600080fd5b81600460006101000a81548173ffffffffffffffffffffffffffffffffffffffff021916908373ffffffffffffffffffffffffffffffffffffffff16021790555060019050919050565b60008033868540604051602001808473ffffffffffffffffffffffffffffffffffffffff1673ffffffffffffffffffffffffffffffffffffffff166c0100000000000000000000000002815260140183815260200182815260200193505050506040516020818303038152906040528051906020012090506060859050606060206040519080825280601f01601f191660200182016040528015613ad05781602001600182028038833980820191505090505b50905060008090505b6020811015613d1e5760307f0100000000000000000000000000000000000000000000000000000000000000028382815181101515613b1457fe5b9060200101517f010000000000000000000000000000000000000000000000000000000000000090047f0100000000000000000000000000000000000000000000000000000000000000027effffffffffffffffffffffffffffffffffffffffffffffffffffffffffffff19161415613bfb578581602081101515613b9557fe5b1a7f0100000000000000000000000000000000000000000000000000000000000000028282815181101515613bc657fe5b9060200101907effffffffffffffffffffffffffffffffffffffffffffffffffffffffffffff1916908160001a905350613d11565b60317f0100000000000000000000000000000000000000000000000000000000000000028382815181101515613c2d57fe5b9060200101517f010000000000000000000000000000000000000000000000000000000000000090047f0100000000000000000000000000000000000000000000000000000000000000027effffffffffffffffffffffffffffffffffffffffffffffffffffffffffffff19161415613d10578381602081101515613cae57fe5b1a7f0100000000000000000000000000000000000000000000000000000000000000028282815181101515613cdf57fe5b9060200101907effffffffffffffffffffffffffffffffffffffffffffffffffffffffffffff1916908160001a9053505b5b8080600101915050613ad9565b5060008090505b6020811015613ded576008810260ff7f0100000000000000000000000000000000000000000000000000000000000000028383815181101515613d6457fe5b9060200101517f010000000000000000000000000000000000000000000000000000000000000090047f010000000000000000000000000000000000000000000000000000000000000002167effffffffffffffffffffffffffffffffffffffffffffffffffffffffffffff1916908060020a8204915050851794508080600101915050613d25565b50839350505050949350505050565b601481565b60065481565b6000600143038311151515613e1b57600080fd5b818340604051602001808381526020018281526020019250505060405160208183030381529060405280519060200120905092915050565b60008073ffffffffffffffffffffffffffffffffffffffff16600260009054906101000a900473ffffffffffffffffffffffffffffffffffffffff1673ffffffffffffffffffffffffffffffffffffffff1614158015613f005750600260009054906101000a900473ffffffffffffffffffffffffffffffffffffffff1673ffffffffffffffffffffffffffffffffffffffff163373ffffffffffffffffffffffffffffffffffffffff16145b1515613f0b57600080fd5b601484014310158015613f245750600460148501014311155b1515613f2f57600080fd5b60408051908101604052808481526020018381525060106000868152602001908152602001600020600082015181600001556020820151816001019080519060200190613f7d929190614a20565b509050506008840140600c819055506000600160006101000a81548173ffffffffffffffffffffffffffffffffffffffff021916908373ffffffffffffffffffffffffffffffffffffffff160217905550600190509392505050565b600060208551101515613feb57600080fd5b83518551141515613ffb57600080fd5b600083905060008090505b86518110156140ed576000878281518110151561401f57fe5b906020019060200201519050868281518110151561403957fe5b906020019060200201511561407e57808360405160200180838152602001828152602001925050506040516020818303038152906040528051906020012092506140df565b868281518110151561408c57fe5b9060200190602002015115156140d257828160405160200180838152602001828152602001925050506040516020818303038152906040528051906020012092506140de565b600093505050506140f5565b5b508080600101915050614006565b508281149150505b949350505050565b600960009054906101000a900460ff1681565b60006060601060008481526020019081526020016000206000015460106000858152602001908152602001600020600101808054600181600116156101000203166002900480601f0160208091040260200160405190810160405280929190818152602001828054600181600116156101000203166002900480156141d65780601f106141ab576101008083540402835291602001916141d6565b820191906000526020600020905b8154815290600101906020018083116141b957829003601f168201915b5050505050905091509150915091565b606080826040519080825280602002602001820160405280156142185781602001602082028038833980820191505090505b50905060008090505b8381101561428e5784600c546001830160405160200180848152602001838152602001828152602001935050505060405160208183030381529060405280519060200120828281518110151561427357fe5b90602001906020020181815250508080600101915050614221565b508091505092915050565b600560009054906101000a900473ffffffffffffffffffffffffffffffffffffffff1681565b60008060009054906101000a900473ffffffffffffffffffffffffffffffffffffffff1673ffffffffffffffffffffffffffffffffffffffff163373ffffffffffffffffffffffffffffffffffffffff1614151561431c57600080fd5b81600360006101000a81548173ffffffffffffffffffffffffffffffffffffffff021916908373ffffffffffffffffffffffffffffffffffffffff16021790555060019050919050565b600e5481565b6000600560009054906101000a900473ffffffffffffffffffffffffffffffffffffffff1673ffffffffffffffffffffffffffffffffffffffff1663c41a32ec336040518263ffffffff167c0100000000000000000000000000000000000000000000000000000000028152600401808273ffffffffffffffffffffffffffffffffffffffff1673ffffffffffffffffffffffffffffffffffffffff16815260200191505060206040518083038186803b15801561442957600080fd5b505afa15801561443d573d6000803e3d6000fd5b505050506040513d602081101561445357600080fd5b8101908080519060200190929190505050151561446f57600080fd5b6000809054906101000a900473ffffffffffffffffffffffffffffffffffffffff1673ffffffffffffffffffffffffffffffffffffffff163373ffffffffffffffffffffffffffffffffffffffff16141515156144cb57600080fd5b60011515600960009054906101000a900460ff1615151415156144ed57600080fd5b600654600f60003373ffffffffffffffffffffffffffffffffffffffff1673ffffffffffffffffffffffffffffffffffffffff168152602001908152602001600020600001541015156145a8576040517f08c379a000000000000000000000000000000000000000000000000000000000815260040180806020018281038252600c8152602001807f6368616c6c616e67653a2031000000000000000000000000000000000000000081525060200191505060405180910390fd5b600760065401431180156145c15750600a600654014311155b1515614635576040517f08c379a000000000000000000000000000000000000000000000000000000000815260040180806020018281038252600c8152602001807f6368616c6c616e67653a2032000000000000000000000000000000000000000081525060200191505060405180910390fd5b6103e86001600a5401111515156146b4576040517f08c379a000000000000000000000000000000000000000000000000000000000815260040180806020018281038252600c8152602001807f6368616c6c616e67653a2033000000000000000000000000000000000000000081525060200191505060405180910390fd5b606060405190810160405280600654815260200183815260200160001515815250600f60003373ffffffffffffffffffffffffffffffffffffffff1673ffffffffffffffffffffffffffffffffffffffff168152602001908152602001600020600082015181600001556020820151816001015560408201518160020160006101000a81548160ff0219169083151502179055509050506001600a6000828254019250508190555060019050919050565b60085481565b600160009054906101000a900473ffffffffffffffffffffffffffffffffffffffff1681565b82601160006101000a81548160ff02191690831515021790555081601160016101000a81548160ff02191690831515021790555080601160026101000a81548160ff021916908315150217905550505050565b600081409050919050565b60008060009054906101000a900473ffffffffffffffffffffffffffffffffffffffff1673ffffffffffffffffffffffffffffffffffffffff163373ffffffffffffffffffffffffffffffffffffffff1614151561484c57600080fd5b600073ffffffffffffffffffffffffffffffffffffffff168273ffffffffffffffffffffffffffffffffffffffff161415151561488857600080fd5b60001515600960009054906101000a900460ff1615151415156148aa57600080fd5b816000806101000a81548173ffffffffffffffffffffffffffffffffffffffff021916908373ffffffffffffffffffffffffffffffffffffffff16021790555060019050919050565b600f6020528060005260406000206000915090508060000154908060010154908060020160009054906101000a900460ff16905083565b6000600a827f0100000000000000000000000000000000000000000000000000000000000000900460ff1610156149ab576030827f01000000000000000000000000000000000000000000000000000000000000009004017f01000000000000000000000000000000000000000000000000000000000000000290506149f7565b6057827f01000000000000000000000000000000000000000000000000000000000000009004017f01000000000000000000000000000000000000000000000000000000000000000290505b919050565b61040060405190810160405280602090602082028038833980820191505090505090565b828054600181600116156101000203166002900490600052602060002090601f016020900481019282601f10614a6157805160ff1916838001178555614a8f565b82800160010185558215614a8f579182015b82811115614a8e578251825591602001919060010190614a73565b5b509050614a9c9190614aa0565b5090565b614ac291905b80821115614abe576000816000905550600101614aa6565b5090565b9056fe77726f6e672073636f72652062617365206f6e2074686520676976656e207365637265742f626c6f636b4e6f7375626d6974426c6f636b7320616e642077696e6e696e675469636b657473206d69736d61746368a165627a7a72305820c61e52c6a312ac32fec4375b200a37a171843e219b81412a54d66eecd7c822f70029",
  "source": "pragma solidity ^0.5.2;\n\nimport \"./ERC721/math/safe-math.sol\";\nimport \"./QOTInterface.sol\";\nimport \"./ElemmireInterface.sol\";\nimport \"./MemberShip.sol\";\n\n// Comments for the adaption for OptractContract\n// * The main purpose of this \"game\" is to output random numbers AND give NFT (for endorsement in Optract)\n// * What if there are no sufficient players? Use bots to ensure the game is running?\n// * What's the cost to join the game apart from become a member?\n\n\n// About the game\n// # Roles\n//  * defender : setup the game (only the fee)\n//  * player : join the game, max 1000 players, pay 0.01 eth and may win some QOT\n//  * validator: provide merkle proof at `end` block\n//\n// # time line of a game:\n//    start ------------ n ------- m -------------------------------- end --------\n//          calc           reg to    lottery, each round: 0-n winners     mr submit to chain;\n//                         sc        (only on sc)                         withdraw eth/claim QOT in several blks\n//          (period1)      (period2) (period3)                            could start next round\n//\n//  * sc: state channel; mr: merkle root\n//  * period_all = period1 + period2 + period3\n//  * during period2 (btw. `n` and `m`) players get tickets on sc\n//  * player obtain ticket in the form `ticket[i] = hash(score + bn[m-1] + i)` where 0<=i<5, depend on score\n//\ncontract Erebor{\n\tusing SafeMath for uint256;\n\t// Variables\n\taddress public defender;\n\taddress public winner;\n\taddress public validator;\n\taddress public QOTAddr;\n\taddress public ELEMAddr;\n\taddress public memberContractAddr;\n\tuint constant public maxPlayer = 1000;\n\tuint constant public period_all = 20;  // 7 + 3 + 10\n\tuint public initHeight;\n\tbytes32 public difficulty = 0x0000000fffffffffffffffffffffffffffffffffffffffffffffffffffffffff;\n\tuint public fee = 10000000000000000;\n\tbool public setup = false;\n\tuint public playercount = 0;\n        uint public ticketsToWinNFT = 2;  // use small number for debug only\n\n\tstruct playerInfo {\n\t\t// uint since;     // block height when joined\n\t\tuint initHeightJoined;\n\t\tbytes32 scoreHash;\n\t\tbool claimed;\n\t}\n\n        struct battleStat{\n            bytes32 merkleRoot;\n            string ipfsAddr;\n        }\n\n        bytes32 public ticketSeed;  // blockhash(initHeight+8) of each game\n        bytes32 public board;\n        bytes32 public prevboard;\n\n\tmapping (address => playerInfo) public playerDB;\n\tmapping (uint => battleStat) public battleHistory;\n\n\t// Modifiers\n\tmodifier defenderOnly() {\n\t\trequire(msg.sender == defender);\n\t\t_;\n\t}\n\n\tmodifier WinnerOnly() {\n\t\trequire(winner != address(0) && msg.sender == winner);\n\t\t_;\n\t}\n\n\tmodifier ValidatorOnly() {\n\t        require(validator != address(0) && msg.sender == validator);\n\t        _;\n        }\n\n\tmodifier NewGameOnly() {\n\t\trequire(setup == false);\n\t\t_;\n\t}\n\n\tmodifier feePaid() {\n\t\trequire(msg.value >= fee);\n\t\t_;\n\t}\n\n\tmodifier isActiveMember(){\n                require(MemberShip(memberContractAddr).addrIsActiveMember(msg.sender));\n                _;\n        }\n\n\tmodifier gameStarted() {\n\t\trequire(setup == true);\n\t\t_;\n\t}\n\n\tmodifier gameStalled() {\n\t\t// require(setup == true && block.number > initHeight + period_all && winner == address(0));\n\t\trequire(setup == true && block.number > initHeight + 10 && winner == address(0));  // for debug\n\t\t_;\n\t}\n\n\tmodifier notDefender() {\n\t\trequire(msg.sender != defender);\n\t\t_;\n\t}\n\n\t// Contract constructor\n\tconstructor(bytes32 _init, address _QOTAddr, address _ELEMAddr, address _memberContracAddr) public {\n\t\t// require(msg.value >= fee);\n\t\tdefender = msg.sender;\n\t\tvalidator = msg.sender;\n\t\tQOTAddr  = _QOTAddr;\n                ELEMAddr = _ELEMAddr;\n                memberContractAddr = _memberContracAddr;\n\n\t\trequire(fortify(_init) == true);\n\t}\n\n\t// WinnerOnly\n\t// function withdraw(uint _tokenId) internal WinnerOnly returns (bool) {\n\t//         // only one player win NFT; make sure winner can claim the reward after next game started\n\t// \trequire(block.number > playerDB[msg.sender].initHeightJoined + period_all);\n\t// \trequire(block.number < playerDB[msg.sender].initHeightJoined + period_all + 7);\n\n\t// \t// uint256 reward = uint256(address(this).balance).mul(uint256(6)) / uint256(10);\n\t// \t// require(QOTInterface(QOTAddr).mint(msg.sender) == true);\n\t// \t// require(msg.sender.send(reward) == true);\n                // winner = msg.sender;\n                // // NFTClaimed = true;\n                // require(iELEM(ELEMAddr).mint(msg.sender, _tokenId, uri) == true);\n\t// \treturn true;\n\t// }\n\n        // for debug purpose\n\tbool public debug1 = false;\n\tbool public debug2 = true;\n\tbool public debug3 = true;\n\tfunction debugParams(bool _debug1, bool _debug2, bool _debug3) public{\n                debug1 = _debug1;\n                debug2 = _debug2;\n                debug3 = _debug3;\n        }\n\n\tfunction claimLotteReward( // this happens after end of a game, next round may started\n\t    bytes32 secret,\n\t    string memory slots,\n\t    uint blockNo,\n\t    uint[] memory submitBlocks,  // the winning blocks the player claimed\n\t    uint[] memory winningTickets, // the idx of generateTickets. same order as submitBlocks.\n\t    bytes32[] memory proof,\n\t    bool[] memory isLeft,\n\t    bytes32 score\n\t) public returns (bool) {\n\t\t// require(playerDB[msg.sender].claimed == false, \"already claimed\");  // for debug\n\t\trequire(winningTickets.length <= 10, \"you cannot claim more tickets\");\n\t        require(proof.length == isLeft.length, \"len of proof/isLeft mismatch\");\n\t        require(winningTickets.length == submitBlocks.length, \"submitBlocks and winningTickets mismatch\");\n                require(battleHistory[playerDB[msg.sender].initHeightJoined].merkleRoot != bytes32(0), \"no merkle root yet\");\n\t\tif (debug1){  // set debug1 to flase to have more time to debug\n                        require(block.number > playerDB[msg.sender].initHeightJoined + period_all + 1, \"too early\");\n                        require(block.number < playerDB[msg.sender].initHeightJoined + period_all + 7, \"too late\");\n                }\n\n                bytes32 _board;\n                if (playerDB[msg.sender].initHeightJoined == initHeight) {\n                        _board = board;\n                } else if (initHeight - playerDB[msg.sender].initHeightJoined > period_all) {\n                        _board = prevboard;\n                } else {  // should not happen\n                        revert();\n                }\n\n                // No second chance: if one of the following verification failed, the player cannot call this function again.\n                playerDB[msg.sender].claimed = false;  // set to false for debug only\n\n                // verify score\n                require(compareScore(secret, slots, blockNo, _board, score));\n                require(keccak256(abi.encodePacked(score)) == playerDB[msg.sender].scoreHash,\n                        \"wrong score base on the given secret/blockNo\");\n\n\t\tbytes32[] memory genTickets = new bytes32[](getNumOfTickets(score));\n\t\tgenTickets = generateTickets(score, getNumOfTickets(score));\n\n                // generate \"claimHash\", which is hash(msg.sender, submitBlocks[i], winningTickets[i], ...) where i=0,1,2,...\n\t\t// bytes32[5] memory genTickets = generateTickets(score);\n\t\tbytes32 claimHash;\n                claimHash = getClaimHash(submitBlocks, winningTickets, genTickets);\n\n                require(merkleTreeValidator(proof, isLeft, claimHash,\n                                            battleHistory[playerDB[msg.sender].initHeightJoined].merkleRoot),\n                        \"merkle proof failed\");\n\n                // count number of winning tickets and mint QOT\n                if (debug2) {\n                    require(verifyWinnumber(_board, submitBlocks, winningTickets, genTickets) == true, \"found a wrong ticket\");\n                }\n\n                // determine the only winner who win a Elemire\n                // TODO: better ways to determine the only winner of NFT\n                if (debug3) {\n                    if (winningTickets.length >= ticketsToWinNFT) {  // use small number for debug only\n                            string memory uri = bytes32ToString(claimHash);\n                            ElemmireInterface(ELEMAddr).mint(msg.sender, uint(claimHash), uri);\n                    }\n                }\n\n\t\treturn true;\n        }\n\n\tfunction getClaimHash(uint[] memory submitBlocks, uint[] memory winningTickets, bytes32[] memory genTickets) public view returns(bytes32 claimHash){\n                bytes memory packed = abi.encodePacked(uint256(msg.sender));\n                for (uint i=0; i<winningTickets.length; i++){\n                        packed = abi.encodePacked(packed, submitBlocks[i], genTickets[winningTickets[i]]);\n                }\n                claimHash = keccak256(packed);\n        }\n\n        function verifyWinnumber(bytes32 _board, uint[] memory submitBlocks, uint[] memory winningTickets, bytes32[] memory genTickets) public returns(bool){\n                bytes32 winNumber;\n                uint prevBlock;\n                uint prevWinningTicket;\n                for (uint i=0; i<submitBlocks.length; i++){\n                            require(submitBlocks[i] >= prevBlock);\n                            if (submitBlocks[i] == prevBlock){\n                                    require(winningTickets[i] > prevWinningTicket);\n                            }\n                            winNumber = keccak256(abi.encodePacked(_board, blockhash(submitBlocks[i])));\n                            if (uint8(winNumber[31])%16 != uint8(genTickets[winningTickets[i]][31])%16 ){\n                                    return false;\n                            }\n                            // require(winNumber[31] == genTickets[winningTickets[i]][31]);  // last 1 byte = 2 digits of hex\n                            // require(winNumber[31] == genTickets[winningTickets[i]][31] &&\n                            //         uint(winNumber[30])%16 == uint(genTickets[winningTickets[i]][30])%16 );  // last 3 digits of hex\n                            // require(winNumber[31] == genTickets[winningTickets[i]][31] &&\n                            //         winNumber[30] == genTickets[winningTickets[i]][30]);  // last 4 digits of hex\n\n                            require(QOTInterface(QOTAddr).mint(msg.sender, 150) == true);  // DEBUG: use 150 for now\n                            prevBlock = submitBlocks[i];\n                            prevWinningTicket = winningTickets[i];\n                }\n                return true;\n        }\n\n        function generateTickets(bytes32 score, uint numTickets) public view returns (bytes32[] memory){\n                // require(score != bytes32(0));\n                bytes32[] memory tickets = new bytes32[](numTickets);\n\t\tfor (uint i = 0; i < numTickets; i++) {\n\t\t        tickets[i] = keccak256(abi.encodePacked(score, ticketSeed, i+1));  // idx of ticket start from 1\n                }\n                return tickets;\n        }\n\n        function getNumOfTickets(bytes32 score) public pure returns(uint){\n                if (score > 0x00ffffffffffffffffffffffffffffffffffffffffffffffffffffffffffffff) {\n                        return 1;  // min: 1 ticket\n                } else if (score > 0x000fffffffffffffffffffffffffffffffffffffffffffffffffffffffffffff) {\n                        return 2;\n                } else if (score > 0x0000ffffffffffffffffffffffffffffffffffffffffffffffffffffffffffff) {\n                        return 3;\n                } else if (score > 0x00000fffffffffffffffffffffffffffffffffffffffffffffffffffffffffff) {\n                        return 4;\n                } else {\n                        return 5;  // max: 5 tickets\n                }\n        }\n\n\tfunction getPlayerInfo(address _addr) public view returns (uint, bytes32, bool) {\n\t\treturn (playerDB[_addr].initHeightJoined, playerDB[_addr].scoreHash, playerDB[_addr].claimed);\n\t}\n\n\tfunction fortify(bytes32 defense) public payable defenderOnly NewGameOnly returns (bool) {\n\t\trequire(defense > difficulty);\n\n\t\tinitHeight = block.number;\n\n                playerDB[msg.sender] = playerInfo(initHeight, bytes32(0), false);\n\t\tplayercount += 1;\n\t\tsetup = true;\n\n\t        prevboard = board;\n\t        board = defense;\n\n\t\treturn true;\n\t}\n\n\t// Join game\n\tfunction challenge(bytes32 scoreHash) public payable isActiveMember notDefender gameStarted returns (bool) {\n\t\trequire(playerDB[msg.sender].initHeightJoined < initHeight, \"challange: 1\");\n\t\trequire(block.number > initHeight + 7 && block.number <= initHeight + 10, \"challange: 2\");\n\t\trequire(playercount + 1 <= maxPlayer, \"challange: 3\");\n\n\t\tplayerDB[msg.sender] = playerInfo(initHeight, scoreHash, false);\n\n\t\tplayercount += 1;\n\n\t\treturn true;\n\t}\n\n\tfunction testOutcome(bytes32 secret, uint blockNo) public gameStarted view returns (bytes32 _board, bool[32] memory _slots) {\n\t\trequire(block.number > initHeight + 7 && block.number <= initHeight + 10, 'testoutcome: 1');\n\t\trequire(block.number - blockNo < 7, 'testoutcome: 2');\n\t\trequire(blockNo <= block.number - 1 && blockNo >= initHeight + 7 && blockNo < initHeight + 10, 'testoutcome: 3');\n\n\t\t_board = keccak256(abi.encodePacked(msg.sender, secret, blockhash(blockNo)));\n\n\t\tfor (uint i = 0; i <= 31; i++) {\n\t\t\tif(_board[i] < board[i]) {\n\t\t\t\t_slots[i] = true;\n\t\t\t}\n\t\t}\n\n\t\treturn (_board, _slots);\n\t}\n\n\tfunction winningNumber(uint blockNo, bytes32 _board) public view returns (bytes32) {\n\t        require(blockNo <= block.number - 1);\n\t        return keccak256(abi.encodePacked(_board, blockhash(blockNo)));\n        }\n\n        function merkleTreeValidator(bytes32[] memory proof, bool[] memory isLeft, bytes32 targetLeaf, bytes32 _merkleRoot) public pure returns (bool) {\n                require(proof.length < 32);  // 2**32 ~ 4.3e9 leaves!\n                require(proof.length == isLeft.length);\n\n                bytes32 targetHash = targetLeaf;\n                for (uint256 i = 0; i < proof.length; i++) {\n                        bytes32 proofEle = proof[i];\n                        if (isLeft[i]) {\n                                targetHash = keccak256(abi.encodePacked(proofEle, targetHash));\n                        } else if (!isLeft[i]) {\n                                targetHash = keccak256(abi.encodePacked(targetHash, proofEle));\n                        } else {\n                                return false;\n                        }\n                }\n                return targetHash == _merkleRoot;\n        }\n\n\tfunction submitMerkleRoot(uint _initHeight, bytes32 _merkleRoot, string memory _ipfsAddr) public ValidatorOnly returns (bool) {\n\t\trequire(block.number >= _initHeight + period_all && block.number <= _initHeight + period_all + 4);\n\t        battleHistory[_initHeight]= battleStat(_merkleRoot, _ipfsAddr);\n\t        ticketSeed = blockhash(_initHeight+8);\n\n                // reset the status of previous game (or put it in challange?)\n\t        // NFTClaimed = false;   // reset the status of previous game\n\t        winner = address(0);\n\t        return true;\n        }\n\n        function getBlockInfo(uint _initHeight) public view returns(bytes32, string memory){\n\t        return (battleHistory[_initHeight].merkleRoot, battleHistory[_initHeight].ipfsAddr);\n        }\n\n        function getBlockhash(uint blockNo) external view returns (bytes32) {\n                return blockhash(blockNo);\n        }\n\n        function compareScore(bytes32 secret, string memory slotString, uint blockNo, bytes32 _board, bytes32 score) public view returns (bool){\n\t        // verification: the secret belongs to the player\n\t\tbytes32 myboard = keccak256(abi.encodePacked(msg.sender, secret, blockhash(blockNo))); // initialize for the loop below\n                bytes memory slots = bytes(slotString);\n                bytes32 out;\n                for (uint i = 0; i < 32; i++) {\n\t\t        if(slots[i] == 0x30) {  // see decimal ascii chart, '0' = 48 (decimal) = 0x30 (hex)\n\t\t                out |= bytes32(_board[i] & 0xff ) >> (i*8);\n                        } else if (slots[i] == 0x31) {\n\t\t                out |= bytes32(myboard[i] & 0xff ) >> (i*8);\n\t\t\t}\n                }\n\n\t\treturn out == score;\n\t}\n\n        function computeScore(bytes32 secret, string memory slotString, uint blockNo, bytes32 _board) public view returns (bytes32 out){\n\t\tbytes32 myboard = keccak256(abi.encodePacked(msg.sender, secret, blockhash(blockNo))); // initialize for the loop below\n                bytes memory slots = bytes(slotString);\n                bytes memory outscore = new bytes(32);\n                for (uint i = 0; i < 32; i++) {\n\t\t        if(slots[i] == 0x30) {  // see decimal ascii chart, '0' = 48 (decimal) = 0x30 (hex)\n\t\t                outscore[i] = _board[i];\n                        } else if (slots[i] == 0x31) {\n                                outscore[i] = myboard[i];\n\t\t\t}\n                }\n\n                // bytes to bytes32\n                for (uint i=0; i<32; i++){\n                        out |= bytes32( outscore[i] & 0xff ) >> (i * 8);\n                }\n\t\treturn out;\n\t}\n\n        function hexToChar(byte _b) internal pure returns (byte c) {\n                // convert a hex value (0-f) to it's corresponding string\n                if (uint8(_b) < 10) {\n                        return byte(uint8(_b) + 0x30);  // '0' to '9'\n                } else {\n                        return byte(uint8(_b) + 0x57);  // 'a' to 'z'\n                }\n        }\n\n        // convert bytes32 to hex \"string\"\n        function bytes32ToString(bytes32 b32) public pure returns (string memory out) {\n                bytes memory s = new bytes(64);\n                for (uint8 i = 0; i < 32; i++) {\n                        byte _b = byte(b32[i]);\n                        byte hi = byte(uint8(_b) / 16);\n                        byte lo = byte(uint8(_b) - 16 * uint8(hi));\n                        s[i*2] = hexToChar(hi);\n                        s[i*2+1] = hexToChar(lo);\n                }\n                out = string(s);\n        }\n\n        // upgrade and ownership\n        function newValidator(address _newValidator) public defenderOnly returns (bool){\n                require(_newValidator != address(0));\n                validator = _newValidator;\n                return true;\n        }\n\n        function newDefender(address _newDefender) public defenderOnly returns (bool){\n                require(_newDefender != address(0));\n                require(setup == false);\n\t\tdefender = _newDefender;\n                return true;\n        }\n\n        function newQOTAddr(address _newAddr) public defenderOnly returns (bool){\n                QOTAddr = _newAddr;\n                return true;\n        }\n\n        function newELEMAddr(address _newAddr) public defenderOnly returns (bool){\n                ELEMAddr = _newAddr;\n                return true;\n        }\n\n        function newMemberAddr(address _addr) public defenderOnly returns (bool){\n                memberContractAddr = _addr;\n                return true;\n        }\n\n        function renewTicketsToWinNFT(uint _n) public defenderOnly returns (bool){\n                require(_n > 1 && _n < 10);\n                ticketsToWinNFT = _n;\n                return true;\n        }\n\n        // fallback\n        function () defenderOnly gameStalled external {\n            winner = address(0);\n            setup = false;\n            // board = bytes32(0);\n            playercount = 0;\n            // require(withdraw());\n\t    // require(msg.sender.send(address(this).balance) == true);  // for debug\n        }\n}\n",
  "sourcePath": "/home/kai/Work/project/OptractContract/contracts/Erebor.sol",
  "compiler": {
    "name": "solc",
    "version": "0.5.2+commit.1df8f40c.Linux.g++"
  },
  "schemaVersion": "3.0.1",
  "updatedAt": "2019-05-16T13:37:30.822Z",
  "devdoc": {
    "methods": {}
  },
  "userdoc": {
    "methods": {}
  }
}