{
  "contractName": "flag",
  "abi": [
    {
      "constant": true,
      "inputs": [
        {
          "name": "",
          "type": "bytes32"
        }
      ],
      "name": "aid2Flag",
      "outputs": [
        {
          "name": "",
          "type": "uint256"
        }
      ],
      "payable": false,
      "stateMutability": "view",
      "type": "function"
    },
    {
      "constant": true,
      "inputs": [
        {
          "name": "",
          "type": "uint256"
        },
        {
          "name": "",
          "type": "address"
        }
      ],
      "name": "voted",
      "outputs": [
        {
          "name": "",
          "type": "bool"
        }
      ],
      "payable": false,
      "stateMutability": "view",
      "type": "function"
    },
    {
      "constant": true,
      "inputs": [],
      "name": "voteMinQOTholding",
      "outputs": [
        {
          "name": "",
          "type": "uint256"
        }
      ],
      "payable": false,
      "stateMutability": "view",
      "type": "function"
    },
    {
      "constant": true,
      "inputs": [],
      "name": "QOTaddr",
      "outputs": [
        {
          "name": "",
          "type": "address"
        }
      ],
      "payable": false,
      "stateMutability": "view",
      "type": "function"
    },
    {
      "constant": true,
      "inputs": [],
      "name": "memberContractAddr",
      "outputs": [
        {
          "name": "",
          "type": "address"
        }
      ],
      "payable": false,
      "stateMutability": "view",
      "type": "function"
    },
    {
      "constant": true,
      "inputs": [],
      "name": "thresholdOpenCase",
      "outputs": [
        {
          "name": "",
          "type": "uint256"
        }
      ],
      "payable": false,
      "stateMutability": "view",
      "type": "function"
    },
    {
      "constant": true,
      "inputs": [],
      "name": "caseNo",
      "outputs": [
        {
          "name": "",
          "type": "uint256"
        }
      ],
      "payable": false,
      "stateMutability": "view",
      "type": "function"
    },
    {
      "constant": true,
      "inputs": [
        {
          "name": "",
          "type": "uint256"
        }
      ],
      "name": "flagReports",
      "outputs": [
        {
          "name": "sender",
          "type": "address"
        },
        {
          "name": "aid",
          "type": "bytes32"
        },
        {
          "name": "aidSblockNo",
          "type": "uint256"
        },
        {
          "name": "inProgress",
          "type": "bool"
        },
        {
          "name": "since",
          "type": "uint256"
        },
        {
          "name": "agreeFlag",
          "type": "uint256"
        },
        {
          "name": "disagreeFlag",
          "type": "uint256"
        },
        {
          "name": "guilty",
          "type": "bool"
        },
        {
          "name": "reward",
          "type": "uint256"
        },
        {
          "name": "watermark",
          "type": "uint256"
        }
      ],
      "payable": false,
      "stateMutability": "view",
      "type": "function"
    },
    {
      "constant": true,
      "inputs": [],
      "name": "blockRegistryAddr",
      "outputs": [
        {
          "name": "",
          "type": "address"
        }
      ],
      "payable": false,
      "stateMutability": "view",
      "type": "function"
    },
    {
      "inputs": [
        {
          "name": "_member",
          "type": "address"
        },
        {
          "name": "_block",
          "type": "address"
        },
        {
          "name": "_QOT",
          "type": "address"
        }
      ],
      "payable": false,
      "stateMutability": "nonpayable",
      "type": "constructor"
    },
    {
      "constant": false,
      "inputs": [
        {
          "name": "aid",
          "type": "bytes32"
        },
        {
          "name": "sblockNo",
          "type": "uint256"
        }
      ],
      "name": "openCase",
      "outputs": [
        {
          "name": "",
          "type": "bool"
        }
      ],
      "payable": false,
      "stateMutability": "nonpayable",
      "type": "function"
    },
    {
      "constant": true,
      "inputs": [
        {
          "name": "_id",
          "type": "uint256"
        }
      ],
      "name": "queryCase",
      "outputs": [
        {
          "name": "",
          "type": "address"
        },
        {
          "name": "",
          "type": "bytes32"
        },
        {
          "name": "",
          "type": "uint256"
        },
        {
          "name": "",
          "type": "bool"
        },
        {
          "name": "",
          "type": "uint256"
        }
      ],
      "payable": false,
      "stateMutability": "view",
      "type": "function"
    },
    {
      "constant": true,
      "inputs": [
        {
          "name": "_id",
          "type": "uint256"
        }
      ],
      "name": "queryCaseResult",
      "outputs": [
        {
          "name": "",
          "type": "bytes32"
        },
        {
          "name": "",
          "type": "bool"
        },
        {
          "name": "",
          "type": "uint256"
        },
        {
          "name": "",
          "type": "uint256"
        },
        {
          "name": "",
          "type": "bool"
        },
        {
          "name": "",
          "type": "uint256"
        },
        {
          "name": "",
          "type": "uint256"
        }
      ],
      "payable": false,
      "stateMutability": "view",
      "type": "function"
    },
    {
      "constant": false,
      "inputs": [
        {
          "name": "agree",
          "type": "bool"
        },
        {
          "name": "_caseNo",
          "type": "uint256"
        }
      ],
      "name": "juryVote",
      "outputs": [
        {
          "name": "",
          "type": "bool"
        }
      ],
      "payable": false,
      "stateMutability": "nonpayable",
      "type": "function"
    },
    {
      "constant": false,
      "inputs": [
        {
          "name": "_caseNo",
          "type": "uint256"
        },
        {
          "name": "reward",
          "type": "uint256"
        },
        {
          "name": "watermark",
          "type": "uint256"
        }
      ],
      "name": "closeCase",
      "outputs": [
        {
          "name": "",
          "type": "bool"
        }
      ],
      "payable": false,
      "stateMutability": "nonpayable",
      "type": "function"
    },
    {
      "constant": false,
      "inputs": [
        {
          "name": "_x",
          "type": "uint256"
        }
      ],
      "name": "setVoteMinQOTholding",
      "outputs": [
        {
          "name": "",
          "type": "bool"
        }
      ],
      "payable": false,
      "stateMutability": "nonpayable",
      "type": "function"
    }
  ],
  "bytecode": "0x6080604052600a60045534801561001557600080fd5b50604051606080610bb18339810180604052606081101561003557600080fd5b508051602082015160409092015160008054600160a060020a03938416600160a060020a0319918216179091556001805494841694821694909417909355600280549290911691909216179055610b20806100916000396000f3fe608060405234801561001057600080fd5b5060043610610112576000357c010000000000000000000000000000000000000000000000000000000090048063b64410aa116100b4578063ce7a99d411610083578063ce7a99d4146102de578063e45130b9146102e6578063ecb6572314610303578063fb0087d81461037c57610112565b8063b64410aa14610223578063c04ae3e41461027a578063c170f356146102ce578063c894bd5b146102d657610112565b806377c7396c116100f057806377c7396c1461018e5780639efe448b146101b3578063a16fd4d0146101d6578063aa20896f146101fa57610112565b80634a7a3036146101175780635277b4ae14610146578063674f698514610186575b600080fd5b6101346004803603602081101561012d57600080fd5b5035610384565b60408051918252519081900360200190f35b6101726004803603604081101561015c57600080fd5b5080359060200135600160a060020a0316610396565b604080519115158252519081900360200190f35b6101346103b6565b610172600480360360408110156101a457600080fd5b508035151590602001356103bc565b610172600480360360408110156101c957600080fd5b50803590602001356105af565b6101de6107eb565b60408051600160a060020a039092168252519081900360200190f35b6101726004803603606081101561021057600080fd5b50803590602081013590604001356107fa565b6102406004803603602081101561023957600080fd5b5035610998565b6040805197885295151560208801528686019490945260608601929092521515608085015260a084015260c0830152519081900360e00190f35b6102976004803603602081101561029057600080fd5b5035610a04565b60408051600160a060020a039096168652602086019490945284840192909252151560608401526080830152519081900360a00190f35b6101de610a5f565b610134610a6e565b610134610a74565b610172600480360360208110156102fc57600080fd5b5035610a7a565b6103206004803603602081101561031957600080fd5b5035610a82565b60408051600160a060020a03909b168b5260208b0199909952898901979097529415156060890152608088019390935260a087019190915260c0860152151560e085015261010084015261012083015251908190036101400190f35b6101de610ae5565b60086020526000908152604090205481565b600760209081526000928352604080842090915290825290205460ff1681565b60045481565b60008054604080517f7a7d32e50000000000000000000000000000000000000000000000000000000081523360048201529051600160a060020a0390921691637a7d32e591602480820192602092909190829003018186803b15801561042157600080fd5b505afa158015610435573d6000803e3d6000fd5b505050506040513d602081101561044b57600080fd5b5051151561045857600080fd5b60008281526005602052604090206003015460ff16151561047857600080fd5b60048054600254604080517f70a082310000000000000000000000000000000000000000000000000000000081523394810194909452519192600160a060020a03909116916370a0823191602480820192602092909190829003018186803b1580156104e357600080fd5b505afa1580156104f7573d6000803e3d6000fd5b505050506040513d602081101561050d57600080fd5b50511161051957600080fd5b600082815260076020908152604080832033845290915290205460ff161561054057600080fd5b60008281526007602090815260408083203384529091529020805460ff19166001179055821561058b57600654600090815260056020819052604090912001805460010190556105a6565b60068054600090815260056020526040902001805460010190555b50600192915050565b60008054604080517f7a7d32e50000000000000000000000000000000000000000000000000000000081523360048201529051600160a060020a0390921691637a7d32e591602480820192602092909190829003018186803b15801561061457600080fd5b505afa158015610628573d6000803e3d6000fd5b505050506040513d602081101561063e57600080fd5b5051151561064b57600080fd5b600354600254604080517f70a082310000000000000000000000000000000000000000000000000000000081523360048201529051600160a060020a03909216916370a0823191602480820192602092909190829003018186803b1580156106b257600080fd5b505afa1580156106c6573d6000803e3d6000fd5b505050506040513d60208110156106dc57600080fd5b5051116106e857600080fd5b506006805460019081018083556040805161014081018252338152602080820188815282840197885260608301868152426080850190815260a08501888152600060c0870181815260e0880182815261010089018381526101208a018481529b84526005808a528b85209a518b5473ffffffffffffffffffffffffffffffffffffffff1916600160a060020a03909116178b5597518a8e01559d5160028a0155945160038901805460ff199081169215159290921790559351600489015591519487019490945551858a01559051600785018054909216901515179055965160088084019190915593516009909201919091559354958552925291209190915590565b600254600160a060020a031681565b600154604080517ffacd743b0000000000000000000000000000000000000000000000000000000081523360048201529051600092600160a060020a03169163facd743b916024808301926020929190829003018186803b15801561085e57600080fd5b505afa158015610872573d6000803e3d6000fd5b505050506040513d602081101561088857600080fd5b5051151561089557600080fd5b436103e801431115156108a757600080fd5b600182116108b457600080fd5b600084815260056020819052604090912060038101805460ff19169055600681015491015411156108fc576000848152600560205260409020600701805460ff191660011790555b60008481526005602052604080822060088101869055600901849055815481517f099405fd000000000000000000000000000000000000000000000000000000008152600481018690529151600160a060020a039091169263099405fd926024808201939182900301818387803b15801561097657600080fd5b505af115801561098a573d6000803e3d6000fd5b506001979650505050505050565b600080600080600080600060065488101515156109b457600080fd5b505050600094855250506005602081905260409093206001810154600382015494820154600683015460078401546008850154600990950154939860ff9889169893975091955091909116929190565b60008060008060006006548610151515610a1d57600080fd5b505050600092835250506005602052604090208054600182015460028301546003840154600490940154600160a060020a03909316949193909260ff90911691565b600054600160a060020a031681565b60035481565b60065481565b600455600090565b60056020819052600091825260409091208054600182015460028301546003840154600485015495850154600686015460078701546008880154600990980154600160a060020a03909716989597949660ff94851696959394929391909216918a565b600154600160a060020a03168156fea165627a7a72305820a397bb07f109b39b6389e6ef88867b01f942c9f1a9bbe40f6adddfafa19f58bc0029",
  "source": "pragma solidity ^0.5.2;\n// This is a contract to help determine inappropriate contents in Optract. The procedure of a\n// \"flag-event\" is:\n// * A qualified member open a \"case\"\n// * Qualified members \"jury-vote\"\n// * After sometime (min 72 hours) the validator close the case and make changes if necessary.\n// since in Optract, members has to hold enough QOT to vote. The amount of minumum holding of\n// QOT by a user in order to curate, or \"watermark\", is adjustable through QOTaccessControl.sol\n// and also here while closing a case.\n// \n// \n// import \"./lib/safe-math.sol\";\nimport \"./Interfaces/QOTInterface.sol\";\nimport \"./Interfaces/MemberShipInterface.sol\";\nimport \"./Interfaces/BlockRegistryInterface.sol\";\n\n// TODO: \n\ncontract flag{\n    address public memberContractAddr;\n    address public blockRegistryAddr;\n    address public QOTaddr;\n    uint public thresholdOpenCase;\n    uint public voteMinQOTholding = 10;\n\n    struct flagReport {\n        address sender;\n        bytes32 aid;  // and/or txHash?\n        uint aidSblockNo;\n        bool inProgress;  // true (in progress) or false (closed)\n        uint since;  // current time\n        // result\n        uint agreeFlag;\n        uint disagreeFlag;\n        bool guilty;\n        uint reward;  // TODO: find a mechanism to distribute\n        uint watermark;  // TODO: set this value else where; TODO: find a better name\n    }\n    mapping (uint => flagReport) public flagReports;\n    uint public caseNo;\n\n    mapping (uint => mapping(address=>bool)) public voted;\n    mapping (bytes32 => uint) public aid2Flag;\n    \n    modifier memberOnly() {\n        require(MemberShipInterface(memberContractAddr).addrIsMember(msg.sender));\n        _;\n    }\n\n    modifier activeMemberOnly() {\n        require(MemberShipInterface(memberContractAddr).addrIsActiveMember(msg.sender));\n        _;\n    }\n\n    modifier validatorOnly() {\n        require(BlockRegistryInterface(blockRegistryAddr).isValidator(msg.sender));\n        _;\n    }\n\n    constructor(address _member, address _block, address _QOT) public {\n        memberContractAddr = _member;\n        blockRegistryAddr = _block;\n        QOTaddr = _QOT;\n    }\n    \n    function openCase(bytes32 aid, uint sblockNo) public memberOnly returns(bool) {\n        require(QOTInterface(QOTaddr).balanceOf(msg.sender) > thresholdOpenCase);\n        // require(aid2Flag[aid] == bytes32(0));  // TODO: or?\n        // require: prevent multiple flag in same article (or no need)?\n        // burn QOT\n        caseNo += 1;\n        // assume the opener vote agree by default\n        flagReports[caseNo] = flagReport(msg.sender, aid, sblockNo, true, block.timestamp, 1, 0, false, 0, 0);\n        aid2Flag[aid] = caseNo;\n        return true;\n    }\n\n    function queryCase(uint _id) public view returns(address, bytes32, uint, bool, uint) {\n        require(_id >= caseNo);\n        return (flagReports[_id].sender,\n                flagReports[_id].aid,\n                flagReports[_id].aidSblockNo,\n                flagReports[_id].inProgress,\n                flagReports[_id].since\n               );\n    }\n\n    function queryCaseResult(uint _id) public view returns(bytes32, bool, uint, uint, bool, uint, uint) {\n        require(_id >= caseNo);\n        // stack-too-deep so split some to here\n        return (flagReports[_id].aid,\n                flagReports[_id].inProgress,\n                flagReports[_id].agreeFlag,\n                flagReports[_id].disagreeFlag,\n                flagReports[_id].guilty,\n                flagReports[_id].reward,\n                flagReports[_id].watermark\n               );\n    }\n\n    function juryVote(bool agree, uint _caseNo) public memberOnly returns(bool){\n        require(flagReports[_caseNo].inProgress);\n        require(QOTInterface(QOTaddr).balanceOf(msg.sender) > voteMinQOTholding);\n        require(voted[_caseNo][msg.sender] == false);\n        // burn QOT?\n        voted[_caseNo][msg.sender] = true;\n        if (agree) {\n            flagReports[caseNo].agreeFlag+= 1;\n        } else {\n            flagReports[caseNo].disagreeFlag += 1;\n\n        }\n        return true;\n    }\n\n    function closeCase(uint _caseNo, uint reward, uint watermark) public validatorOnly returns(bool) {\n        require(block.number > block.number + 1000);  // TODO: decide a minimum time\n        // require(reward > 1);\n        require(watermark > 1); // also see updateCurationMinQOTholding() in MemberShip.sol \n        flagReports[_caseNo].inProgress = false;\n        if (flagReports[_caseNo].agreeFlag > flagReports[_caseNo].disagreeFlag) {\n            flagReports[_caseNo].guilty = true;\n        }\n        flagReports[_caseNo].reward = reward;\n        // TODO: reward the winner(s)\n        // QOTInterface(QOTaddr).mint(reward)  // TODO: need to add flagContractAddr to \"mining\" in QOT\n        flagReports[_caseNo].watermark = watermark;\n        MemberShipInterface(memberContractAddr).updateCurationMinQOTholding(watermark);  // or record the \"watermark\" in blockRegistry?\n        \n        return true;\n    }\n\n    function setVoteMinQOTholding(uint _x) public returns(bool){\n        voteMinQOTholding = _x;\n    }\n\n}\n",
  "sourcePath": "/home/kai/Work/project/OptractContract/contracts/flagContract.sol",
  "compiler": {
    "name": "solc",
    "version": "0.5.2+commit.1df8f40c.Linux.g++"
  },
  "schemaVersion": "3.0.16",
  "updatedAt": "2019-10-16T09:13:35.838Z",
  "devdoc": {
    "methods": {}
  },
  "userdoc": {
    "methods": {}
  }
}