{
  "contractName": "MemberShip",
  "abi": [
    {
      "constant": true,
      "inputs": [],
      "name": "specialMemberBonus",
      "outputs": [
        {
          "name": "",
          "type": "uint256"
        }
      ],
      "payable": false,
      "stateMutability": "view",
      "type": "function",
      "signature": "0x05d104f2"
    },
    {
      "constant": true,
      "inputs": [],
      "name": "QOTAddr",
      "outputs": [
        {
          "name": "",
          "type": "address"
        }
      ],
      "payable": false,
      "stateMutability": "view",
      "type": "function",
      "signature": "0x21a8770d"
    },
    {
      "constant": true,
      "inputs": [
        {
          "name": "",
          "type": "uint256"
        }
      ],
      "name": "appWhitelist",
      "outputs": [
        {
          "name": "",
          "type": "address"
        }
      ],
      "payable": false,
      "stateMutability": "view",
      "type": "function",
      "signature": "0x3c94125a"
    },
    {
      "constant": true,
      "inputs": [
        {
          "name": "",
          "type": "uint256"
        }
      ],
      "name": "managers",
      "outputs": [
        {
          "name": "",
          "type": "address"
        }
      ],
      "payable": false,
      "stateMutability": "view",
      "type": "function",
      "signature": "0x3d39c260"
    },
    {
      "constant": true,
      "inputs": [],
      "name": "paused",
      "outputs": [
        {
          "name": "",
          "type": "bool"
        }
      ],
      "payable": false,
      "stateMutability": "view",
      "type": "function",
      "signature": "0x5c975abb"
    },
    {
      "constant": true,
      "inputs": [],
      "name": "activeMemberCount",
      "outputs": [
        {
          "name": "",
          "type": "uint256"
        }
      ],
      "payable": false,
      "stateMutability": "view",
      "type": "function",
      "signature": "0x5fb6c6ed"
    },
    {
      "constant": true,
      "inputs": [],
      "name": "owner",
      "outputs": [
        {
          "name": "",
          "type": "address"
        }
      ],
      "payable": false,
      "stateMutability": "view",
      "type": "function",
      "signature": "0x8da5cb5b"
    },
    {
      "constant": true,
      "inputs": [],
      "name": "memberPeriod",
      "outputs": [
        {
          "name": "",
          "type": "uint256"
        }
      ],
      "payable": false,
      "stateMutability": "view",
      "type": "function",
      "signature": "0xaba35b72"
    },
    {
      "constant": true,
      "inputs": [
        {
          "name": "",
          "type": "uint256"
        }
      ],
      "name": "coreManagers",
      "outputs": [
        {
          "name": "",
          "type": "address"
        }
      ],
      "payable": false,
      "stateMutability": "view",
      "type": "function",
      "signature": "0xcc523d37"
    },
    {
      "constant": true,
      "inputs": [],
      "name": "fee",
      "outputs": [
        {
          "name": "",
          "type": "uint256"
        }
      ],
      "payable": false,
      "stateMutability": "view",
      "type": "function",
      "signature": "0xddca3f43"
    },
    {
      "constant": true,
      "inputs": [],
      "name": "totalId",
      "outputs": [
        {
          "name": "",
          "type": "uint256"
        }
      ],
      "payable": false,
      "stateMutability": "view",
      "type": "function",
      "signature": "0xe8826565"
    },
    {
      "inputs": [
        {
          "name": "_QOTAddr",
          "type": "address"
        }
      ],
      "payable": false,
      "stateMutability": "nonpayable",
      "type": "constructor",
      "signature": "constructor"
    },
    {
      "constant": false,
      "inputs": [],
      "name": "buyMembership",
      "outputs": [
        {
          "name": "",
          "type": "bool"
        }
      ],
      "payable": true,
      "stateMutability": "payable",
      "type": "function",
      "signature": "0x5c581119"
    },
    {
      "constant": false,
      "inputs": [],
      "name": "renewMembership",
      "outputs": [
        {
          "name": "",
          "type": "uint256"
        }
      ],
      "payable": true,
      "stateMutability": "payable",
      "type": "function",
      "signature": "0x0933b939"
    },
    {
      "constant": false,
      "inputs": [
        {
          "name": "_id",
          "type": "uint256"
        },
        {
          "name": "_kycid",
          "type": "bytes32"
        }
      ],
      "name": "assginKYCid",
      "outputs": [
        {
          "name": "",
          "type": "bool"
        }
      ],
      "payable": false,
      "stateMutability": "nonpayable",
      "type": "function",
      "signature": "0xc9a69336"
    },
    {
      "constant": false,
      "inputs": [
        {
          "name": "_addr",
          "type": "address"
        },
        {
          "name": "_idx",
          "type": "uint256"
        }
      ],
      "name": "addAppWhitelist",
      "outputs": [
        {
          "name": "",
          "type": "bool"
        }
      ],
      "payable": false,
      "stateMutability": "nonpayable",
      "type": "function",
      "signature": "0x858288ce"
    },
    {
      "constant": false,
      "inputs": [
        {
          "name": "_addr",
          "type": "address"
        },
        {
          "name": "_idx",
          "type": "uint256"
        }
      ],
      "name": "replaceAppWhitelist",
      "outputs": [
        {
          "name": "",
          "type": "address"
        }
      ],
      "payable": false,
      "stateMutability": "nonpayable",
      "type": "function",
      "signature": "0xd65060a5"
    },
    {
      "constant": false,
      "inputs": [
        {
          "name": "_idx",
          "type": "uint256"
        }
      ],
      "name": "rmAppWhitelist",
      "outputs": [
        {
          "name": "",
          "type": "address"
        }
      ],
      "payable": false,
      "stateMutability": "nonpayable",
      "type": "function",
      "signature": "0x6d27f417"
    },
    {
      "constant": true,
      "inputs": [],
      "name": "getAppWhitelist",
      "outputs": [
        {
          "name": "",
          "type": "address[16]"
        }
      ],
      "payable": false,
      "stateMutability": "view",
      "type": "function",
      "signature": "0x698441f2"
    },
    {
      "constant": false,
      "inputs": [
        {
          "name": "_id",
          "type": "uint256"
        },
        {
          "name": "_penalty",
          "type": "uint256"
        }
      ],
      "name": "addPenalty",
      "outputs": [
        {
          "name": "",
          "type": "uint256"
        }
      ],
      "payable": false,
      "stateMutability": "nonpayable",
      "type": "function",
      "signature": "0xc6906749"
    },
    {
      "constant": true,
      "inputs": [
        {
          "name": "_id",
          "type": "uint256"
        }
      ],
      "name": "readNotes",
      "outputs": [
        {
          "name": "",
          "type": "string"
        }
      ],
      "payable": false,
      "stateMutability": "view",
      "type": "function",
      "signature": "0xc449b262"
    },
    {
      "constant": false,
      "inputs": [
        {
          "name": "_id",
          "type": "uint256"
        },
        {
          "name": "_notes",
          "type": "string"
        }
      ],
      "name": "addNotes",
      "outputs": [],
      "payable": false,
      "stateMutability": "nonpayable",
      "type": "function",
      "signature": "0xd9ed28b7"
    },
    {
      "constant": false,
      "inputs": [
        {
          "name": "_addr",
          "type": "address"
        }
      ],
      "name": "toggleSpeicalMember",
      "outputs": [],
      "payable": false,
      "stateMutability": "nonpayable",
      "type": "function",
      "signature": "0x3c58aa94"
    },
    {
      "constant": true,
      "inputs": [
        {
          "name": "_addr",
          "type": "address"
        }
      ],
      "name": "addrIsMember",
      "outputs": [
        {
          "name": "",
          "type": "bool"
        }
      ],
      "payable": false,
      "stateMutability": "view",
      "type": "function",
      "signature": "0x7a7d32e5"
    },
    {
      "constant": true,
      "inputs": [
        {
          "name": "_addr",
          "type": "address"
        }
      ],
      "name": "addrIsActiveMember",
      "outputs": [
        {
          "name": "",
          "type": "bool"
        }
      ],
      "payable": false,
      "stateMutability": "view",
      "type": "function",
      "signature": "0xc41a32ec"
    },
    {
      "constant": true,
      "inputs": [
        {
          "name": "_id",
          "type": "uint256"
        }
      ],
      "name": "idIsMember",
      "outputs": [
        {
          "name": "",
          "type": "bool"
        }
      ],
      "payable": false,
      "stateMutability": "view",
      "type": "function",
      "signature": "0xf3334ed8"
    },
    {
      "constant": true,
      "inputs": [
        {
          "name": "_id",
          "type": "uint256"
        }
      ],
      "name": "idIsActiveMember",
      "outputs": [
        {
          "name": "",
          "type": "bool"
        }
      ],
      "payable": false,
      "stateMutability": "view",
      "type": "function",
      "signature": "0x9dd9d6d5"
    },
    {
      "constant": true,
      "inputs": [
        {
          "name": "_id",
          "type": "uint256"
        }
      ],
      "name": "idExpireTime",
      "outputs": [
        {
          "name": "",
          "type": "uint256"
        }
      ],
      "payable": false,
      "stateMutability": "view",
      "type": "function",
      "signature": "0x3d9d5a7a"
    },
    {
      "constant": true,
      "inputs": [
        {
          "name": "_addr",
          "type": "address"
        }
      ],
      "name": "addrToId",
      "outputs": [
        {
          "name": "",
          "type": "uint256"
        }
      ],
      "payable": false,
      "stateMutability": "view",
      "type": "function",
      "signature": "0xa33c4df1"
    },
    {
      "constant": true,
      "inputs": [
        {
          "name": "_addr",
          "type": "address"
        }
      ],
      "name": "getMemberInfo",
      "outputs": [
        {
          "name": "",
          "type": "uint256"
        },
        {
          "name": "",
          "type": "bytes32"
        },
        {
          "name": "",
          "type": "uint256"
        },
        {
          "name": "",
          "type": "uint256"
        },
        {
          "name": "",
          "type": "bytes32"
        }
      ],
      "payable": false,
      "stateMutability": "view",
      "type": "function",
      "signature": "0x5f1231ea"
    },
    {
      "constant": true,
      "inputs": [],
      "name": "getActiveMemberCount",
      "outputs": [
        {
          "name": "",
          "type": "uint256"
        }
      ],
      "payable": false,
      "stateMutability": "view",
      "type": "function",
      "signature": "0x22faa41f"
    },
    {
      "constant": false,
      "inputs": [],
      "name": "updateActiveMembers",
      "outputs": [
        {
          "name": "",
          "type": "uint256"
        }
      ],
      "payable": false,
      "stateMutability": "nonpayable",
      "type": "function",
      "signature": "0xc5bc3861"
    },
    {
      "constant": false,
      "inputs": [],
      "name": "pause",
      "outputs": [],
      "payable": false,
      "stateMutability": "nonpayable",
      "type": "function",
      "signature": "0x8456cb59"
    },
    {
      "constant": false,
      "inputs": [],
      "name": "unpause",
      "outputs": [],
      "payable": false,
      "stateMutability": "nonpayable",
      "type": "function",
      "signature": "0x3f4ba83a"
    },
    {
      "constant": false,
      "inputs": [
        {
          "name": "_addr",
          "type": "address"
        },
        {
          "name": "_id",
          "type": "uint256"
        }
      ],
      "name": "updateManager",
      "outputs": [],
      "payable": false,
      "stateMutability": "nonpayable",
      "type": "function",
      "signature": "0xd8de1066"
    },
    {
      "constant": false,
      "inputs": [
        {
          "name": "_addr",
          "type": "address"
        }
      ],
      "name": "updateQOTAddr",
      "outputs": [],
      "payable": false,
      "stateMutability": "nonpayable",
      "type": "function",
      "signature": "0xdb8cd254"
    }
  ],
  "bytecode": "0x6080604052662386f26fc10000600e5562278d00600f5563337f98006015553480156200002b57600080fd5b50604051602080620051f6833981018060405260208110156200004d57600080fd5b8101908080519060200190929190505050336000806101000a81548173ffffffffffffffffffffffffffffffffffffffff021916908373ffffffffffffffffffffffffffffffffffffffff16021790555060606040519081016040528073b440ea2780614b3c6a00e512f432785e7dfafa3e73ffffffffffffffffffffffffffffffffffffffff1673ffffffffffffffffffffffffffffffffffffffff168152602001734ad56641c569c91c64c28a904cda50ae5326da4173ffffffffffffffffffffffffffffffffffffffff1673ffffffffffffffffffffffffffffffffffffffff16815260200173af7400787c54422be8b44154b1273661f1259ccd73ffffffffffffffffffffffffffffffffffffffff1673ffffffffffffffffffffffffffffffffffffffff1681525060019060036200018c929190620009bc565b5061010060405190810160405280600073ffffffffffffffffffffffffffffffffffffffff1673ffffffffffffffffffffffffffffffffffffffff168152602001600073ffffffffffffffffffffffffffffffffffffffff1673ffffffffffffffffffffffffffffffffffffffff168152602001600073ffffffffffffffffffffffffffffffffffffffff1673ffffffffffffffffffffffffffffffffffffffff168152602001600073ffffffffffffffffffffffffffffffffffffffff1673ffffffffffffffffffffffffffffffffffffffff168152602001600073ffffffffffffffffffffffffffffffffffffffff1673ffffffffffffffffffffffffffffffffffffffff168152602001600073ffffffffffffffffffffffffffffffffffffffff1673ffffffffffffffffffffffffffffffffffffffff168152602001600073ffffffffffffffffffffffffffffffffffffffff1673ffffffffffffffffffffffffffffffffffffffff168152602001600073ffffffffffffffffffffffffffffffffffffffff1673ffffffffffffffffffffffffffffffffffffffff1681525060049060086200034292919062000a3e565b5061020060405190810160405280600073ffffffffffffffffffffffffffffffffffffffff1673ffffffffffffffffffffffffffffffffffffffff168152602001600073ffffffffffffffffffffffffffffffffffffffff1673ffffffffffffffffffffffffffffffffffffffff168152602001600073ffffffffffffffffffffffffffffffffffffffff1673ffffffffffffffffffffffffffffffffffffffff168152602001600073ffffffffffffffffffffffffffffffffffffffff1673ffffffffffffffffffffffffffffffffffffffff168152602001600073ffffffffffffffffffffffffffffffffffffffff1673ffffffffffffffffffffffffffffffffffffffff168152602001600073ffffffffffffffffffffffffffffffffffffffff1673ffffffffffffffffffffffffffffffffffffffff168152602001600073ffffffffffffffffffffffffffffffffffffffff1673ffffffffffffffffffffffffffffffffffffffff168152602001600073ffffffffffffffffffffffffffffffffffffffff1673ffffffffffffffffffffffffffffffffffffffff168152602001600073ffffffffffffffffffffffffffffffffffffffff1673ffffffffffffffffffffffffffffffffffffffff168152602001600073ffffffffffffffffffffffffffffffffffffffff1673ffffffffffffffffffffffffffffffffffffffff168152602001600073ffffffffffffffffffffffffffffffffffffffff1673ffffffffffffffffffffffffffffffffffffffff168152602001600073ffffffffffffffffffffffffffffffffffffffff1673ffffffffffffffffffffffffffffffffffffffff168152602001600073ffffffffffffffffffffffffffffffffffffffff1673ffffffffffffffffffffffffffffffffffffffff168152602001600073ffffffffffffffffffffffffffffffffffffffff1673ffffffffffffffffffffffffffffffffffffffff168152602001600073ffffffffffffffffffffffffffffffffffffffff1673ffffffffffffffffffffffffffffffffffffffff168152602001600073ffffffffffffffffffffffffffffffffffffffff1673ffffffffffffffffffffffffffffffffffffffff1681525060169060106200069092919062000ac0565b5080600c60006101000a81548173ffffffffffffffffffffffffffffffffffffffff021916908373ffffffffffffffffffffffffffffffffffffffff16021790555060008090505b60038160ff16101562000854576200073360018260ff16600381101515620006fc57fe5b0160009054906101000a900473ffffffffffffffffffffffffffffffffffffffff1662000873640100000000026401000000009004565b60016014600060018460ff166003811015156200074c57fe5b0160009054906101000a900473ffffffffffffffffffffffffffffffffffffffff1673ffffffffffffffffffffffffffffffffffffffff1673ffffffffffffffffffffffffffffffffffffffff16815260200190815260200160002060006101000a81548160ff02191690831515021790555060018160ff16600381101515620007d257fe5b0160009054906101000a900473ffffffffffffffffffffffffffffffffffffffff1660168260ff166010811015156200080757fe5b0160006101000a81548173ffffffffffffffffffffffffffffffffffffffff021916908373ffffffffffffffffffffffffffffffffffffffff1602179055508080600101915050620006d8565b506003600d541415156200086457fe5b60036011819055505062000c37565b6001600d60008282540192505081905550600d54601360008373ffffffffffffffffffffffffffffffffffffffff1673ffffffffffffffffffffffffffffffffffffffff1681526020019081526020016000208190555060a0604051908101604052808273ffffffffffffffffffffffffffffffffffffffff1681526020014281526020016000815260200160006001028152602001602060405190810160405280600081525081525060126000600d54815260200190815260200160002060008201518160000160006101000a81548173ffffffffffffffffffffffffffffffffffffffff021916908373ffffffffffffffffffffffffffffffffffffffff1602179055506020820151816001015560408201518160020155606082015181600301556080820151816004019080519060200190620009b592919062000b42565b5090505050565b826003810192821562000a2b579160200282015b8281111562000a2a5782518260006101000a81548173ffffffffffffffffffffffffffffffffffffffff021916908373ffffffffffffffffffffffffffffffffffffffff16021790555091602001919060010190620009d0565b5b50905062000a3a919062000bc9565b5090565b826008810192821562000aad579160200282015b8281111562000aac5782518260006101000a81548173ffffffffffffffffffffffffffffffffffffffff021916908373ffffffffffffffffffffffffffffffffffffffff1602179055509160200191906001019062000a52565b5b50905062000abc919062000bc9565b5090565b826010810192821562000b2f579160200282015b8281111562000b2e5782518260006101000a81548173ffffffffffffffffffffffffffffffffffffffff021916908373ffffffffffffffffffffffffffffffffffffffff1602179055509160200191906001019062000ad4565b5b50905062000b3e919062000bc9565b5090565b828054600181600116156101000203166002900490600052602060002090601f016020900481019282601f1062000b8557805160ff191683800117855562000bb6565b8280016001018555821562000bb6579182015b8281111562000bb557825182559160200191906001019062000b98565b5b50905062000bc5919062000c0f565b5090565b62000c0c91905b8082111562000c0857600081816101000a81549073ffffffffffffffffffffffffffffffffffffffff02191690555060010162000bd0565b5090565b90565b62000c3491905b8082111562000c3057600081600090555060010162000c16565b5090565b90565b6145af8062000c476000396000f3fe608060405260043610610221576000357c010000000000000000000000000000000000000000000000000000000090048063858288ce11610135578063c9a69336116100bd578063d9ed28b71161008c578063d9ed28b714610c05578063db8cd25414610c95578063ddca3f4314610ce6578063e882656514610d11578063f3334ed814610d3c57610221565b8063c9a6933614610a37578063cc523d3714610a94578063d65060a514610b0f578063d8de106614610baa57610221565b8063aba35b7211610104578063aba35b721461086b578063c41a32ec14610896578063c449b262146108ff578063c5bc3861146109b3578063c6906749146109de57610221565b8063858288ce146106e95780638da5cb5b1461075c5780639dd9d6d5146107b3578063a33c4df11461080657610221565b80633f4ba83a116101b85780635fb6c6ed116101875780635fb6c6ed14610570578063698441f21461059b5780636d27f417146105ee5780637a7d32e5146106695780638456cb59146106d257610221565b80633f4ba83a146104875780635c5811191461049e5780635c975abb146104c05780635f1231ea146104ef57610221565b80633c58aa94116101f45780633c58aa94146102f15780633c94125a146103425780633d39c260146103bd5780633d9d5a7a1461043857610221565b806305d104f2146102265780630933b9391461025157806321a8770d1461026f57806322faa41f146102c6575b600080fd5b34801561023257600080fd5b5061023b610d8f565b6040518082815260200191505060405180910390f35b610259610d95565b6040518082815260200191505060405180910390f35b34801561027b57600080fd5b50610284610fdf565b604051808273ffffffffffffffffffffffffffffffffffffffff1673ffffffffffffffffffffffffffffffffffffffff16815260200191505060405180910390f35b3480156102d257600080fd5b506102db611005565b6040518082815260200191505060405180910390f35b3480156102fd57600080fd5b506103406004803603602081101561031457600080fd5b81019080803573ffffffffffffffffffffffffffffffffffffffff16906020019092919050505061100f565b005b34801561034e57600080fd5b5061037b6004803603602081101561036557600080fd5b810190808035906020019092919050505061123e565b604051808273ffffffffffffffffffffffffffffffffffffffff1673ffffffffffffffffffffffffffffffffffffffff16815260200191505060405180910390f35b3480156103c957600080fd5b506103f6600480360360208110156103e057600080fd5b8101908080359060200190929190505050611273565b604051808273ffffffffffffffffffffffffffffffffffffffff1673ffffffffffffffffffffffffffffffffffffffff16815260200191505060405180910390f35b34801561044457600080fd5b506104716004803603602081101561045b57600080fd5b81019080803590602001909291905050506112a8565b6040518082815260200191505060405180910390f35b34801561049357600080fd5b5061049c6113ab565b005b6104a661143e565b604051808215151515815260200191505060405180910390f35b3480156104cc57600080fd5b506104d56114cb565b604051808215151515815260200191505060405180910390f35b3480156104fb57600080fd5b5061053e6004803603602081101561051257600080fd5b81019080803573ffffffffffffffffffffffffffffffffffffffff1690602001909291905050506114de565b604051808681526020018581526020018481526020018381526020018281526020019550505050505060405180910390f35b34801561057c57600080fd5b506105856115b8565b6040518082815260200191505060405180910390f35b3480156105a757600080fd5b506105b06115be565b6040518082601060200280838360005b838110156105db5780820151818401526020810190506105c0565b5050505090500191505060405180910390f35b3480156105fa57600080fd5b506106276004803603602081101561061157600080fd5b8101908080359060200190929190505050611aea565b604051808273ffffffffffffffffffffffffffffffffffffffff1673ffffffffffffffffffffffffffffffffffffffff16815260200191505060405180910390f35b34801561067557600080fd5b506106b86004803603602081101561068c57600080fd5b81019080803573ffffffffffffffffffffffffffffffffffffffff169060200190929190505050611d3e565b604051808215151515815260200191505060405180910390f35b3480156106de57600080fd5b506106e7611dca565b005b3480156106f557600080fd5b506107426004803603604081101561070c57600080fd5b81019080803573ffffffffffffffffffffffffffffffffffffffff16906020019092919080359060200190929190505050611f77565b604051808215151515815260200191505060405180910390f35b34801561076857600080fd5b506107716121ec565b604051808273ffffffffffffffffffffffffffffffffffffffff1673ffffffffffffffffffffffffffffffffffffffff16815260200191505060405180910390f35b3480156107bf57600080fd5b506107ec600480360360208110156107d657600080fd5b8101908080359060200190929190505050612211565b604051808215151515815260200191505060405180910390f35b34801561081257600080fd5b506108556004803603602081101561082957600080fd5b81019080803573ffffffffffffffffffffffffffffffffffffffff169060200190929190505050612265565b6040518082815260200191505060405180910390f35b34801561087757600080fd5b506108806122ae565b6040518082815260200191505060405180910390f35b3480156108a257600080fd5b506108e5600480360360208110156108b957600080fd5b81019080803573ffffffffffffffffffffffffffffffffffffffff1690602001909291905050506122b4565b604051808215151515815260200191505060405180910390f35b34801561090b57600080fd5b506109386004803603602081101561092257600080fd5b8101908080359060200190929190505050612340565b6040518080602001828103825283818151815260200191508051906020019080838360005b8381101561097857808201518184015260208101905061095d565b50505050905090810190601f1680156109a55780820380516001836020036101000a031916815260200191505b509250505060405180910390f35b3480156109bf57600080fd5b506109c861241d565b6040518082815260200191505060405180910390f35b3480156109ea57600080fd5b50610a2160048036036040811015610a0157600080fd5b810190808035906020019092919080359060200190929190505050612ae4565b6040518082815260200191505060405180910390f35b348015610a4357600080fd5b50610a7a60048036036040811015610a5a57600080fd5b810190808035906020019092919080359060200190929190505050613234565b604051808215151515815260200191505060405180910390f35b348015610aa057600080fd5b50610acd60048036036020811015610ab757600080fd5b8101908080359060200190929190505050613799565b604051808273ffffffffffffffffffffffffffffffffffffffff1673ffffffffffffffffffffffffffffffffffffffff16815260200191505060405180910390f35b348015610b1b57600080fd5b50610b6860048036036040811015610b3257600080fd5b81019080803573ffffffffffffffffffffffffffffffffffffffff169060200190929190803590602001909291905050506137ce565b604051808273ffffffffffffffffffffffffffffffffffffffff1673ffffffffffffffffffffffffffffffffffffffff16815260200191505060405180910390f35b348015610bb657600080fd5b50610c0360048036036040811015610bcd57600080fd5b81019080803573ffffffffffffffffffffffffffffffffffffffff16906020019092919080359060200190929190505050613a79565b005b348015610c1157600080fd5b50610c9360048036036040811015610c2857600080fd5b810190808035906020019092919080359060200190640100000000811115610c4f57600080fd5b820183602082011115610c6157600080fd5b80359060200191846001830284011164010000000083111715610c8357600080fd5b9091929391929390505050613c7c565b005b348015610ca157600080fd5b50610ce460048036036020811015610cb857600080fd5b81019080803573ffffffffffffffffffffffffffffffffffffffff169060200190929190505050614177565b005b348015610cf257600080fd5b50610cfb614216565b6040518082815260200191505060405180910390f35b348015610d1d57600080fd5b50610d2661421c565b6040518082815260200191505060405180910390f35b348015610d4857600080fd5b50610d7560048036036020811015610d5f57600080fd5b8101908080359060200190929190505050614222565b604051808215151515815260200191505060405180910390f35b60155481565b6000600e543410151515610da857600080fd5b601060009054906101000a900460ff16151515610dc457600080fd5b6000601360003373ffffffffffffffffffffffffffffffffffffffff1673ffffffffffffffffffffffffffffffffffffffff168152602001908152602001600020549050600073ffffffffffffffffffffffffffffffffffffffff163373ffffffffffffffffffffffffffffffffffffffff1614158015610e8557506000601360003373ffffffffffffffffffffffffffffffffffffffff1673ffffffffffffffffffffffffffffffffffffffff1681526020019081526020016000205414155b8015610ef257503373ffffffffffffffffffffffffffffffffffffffff166012600083815260200190815260200160002060000160009054906101000a900473ffffffffffffffffffffffffffffffffffffffff1673ffffffffffffffffffffffffffffffffffffffff16145b1515610efd57600080fd5b6000601460006012600085815260200190815260200160002060000160009054906101000a900473ffffffffffffffffffffffffffffffffffffffff1673ffffffffffffffffffffffffffffffffffffffff1673ffffffffffffffffffffffffffffffffffffffff16815260200190815260200160002060009054906101000a900460ff1615610f8d5760155490505b62093a8081600f54601260008681526020019081526020016000206001015401010342111515610fbc57600080fd5b426012600084815260200190815260200160002060010181905550429250505090565b600c60009054906101000a900473ffffffffffffffffffffffffffffffffffffffff1681565b6000601154905090565b600073ffffffffffffffffffffffffffffffffffffffff163373ffffffffffffffffffffffffffffffffffffffff161415151561104b57600080fd5b6001600060038110151561105b57fe5b0160009054906101000a900473ffffffffffffffffffffffffffffffffffffffff1673ffffffffffffffffffffffffffffffffffffffff163373ffffffffffffffffffffffffffffffffffffffff16148061111157506001806003811015156110c057fe5b0160009054906101000a900473ffffffffffffffffffffffffffffffffffffffff1673ffffffffffffffffffffffffffffffffffffffff163373ffffffffffffffffffffffffffffffffffffffff16145b8061117857506001600260038110151561112757fe5b0160009054906101000a900473ffffffffffffffffffffffffffffffffffffffff1673ffffffffffffffffffffffffffffffffffffffff163373ffffffffffffffffffffffffffffffffffffffff16145b151561118357600080fd5b61118c81611d3e565b151561119757600080fd5b601460008273ffffffffffffffffffffffffffffffffffffffff1673ffffffffffffffffffffffffffffffffffffffff16815260200190815260200160002060009054906101000a900460ff1615601460008373ffffffffffffffffffffffffffffffffffffffff1673ffffffffffffffffffffffffffffffffffffffff16815260200190815260200160002060006101000a81548160ff02191690831515021790555050565b60168160108110151561124d57fe5b016000915054906101000a900473ffffffffffffffffffffffffffffffffffffffff1681565b60048160088110151561128257fe5b016000915054906101000a900473ffffffffffffffffffffffffffffffffffffffff1681565b6000601460006012600085815260200190815260200160002060000160009054906101000a900473ffffffffffffffffffffffffffffffffffffffff1673ffffffffffffffffffffffffffffffffffffffff1673ffffffffffffffffffffffffffffffffffffffff16815260200190815260200160002060009054906101000a900460ff1615611370576015546012600084815260200190815260200160002060020154600f54601260008681526020019081526020016000206001015401030190506113a6565b6012600083815260200190815260200160002060020154600f546012600085815260200190815260200160002060010154010390505b919050565b6000809054906101000a900473ffffffffffffffffffffffffffffffffffffffff1673ffffffffffffffffffffffffffffffffffffffff163373ffffffffffffffffffffffffffffffffffffffff1614151561140657600080fd5b601060009054906101000a900460ff16151561142157600080fd5b6000601060006101000a81548160ff021916908315150217905550565b6000600e54341015151561145157600080fd5b601060009054906101000a900460ff1615151561146d57600080fd5b6000601360003373ffffffffffffffffffffffffffffffffffffffff1673ffffffffffffffffffffffffffffffffffffffff168152602001908152602001600020541415156114bb57600080fd5b6114c4336142af565b6001905090565b601060009054906101000a900460ff1681565b600080600080600080601360008873ffffffffffffffffffffffffffffffffffffffff1673ffffffffffffffffffffffffffffffffffffffff16815260200190815260200160002054905060008082141561153c5760039050611559565b61154582612211565b156115535760019050611558565b600290505b5b808260010260126000858152602001908152602001600020600101546012600086815260200190815260200160002060020154601260008781526020019081526020016000206003015496509650965096509650505091939590929450565b60115481565b6115c661443a565b600073ffffffffffffffffffffffffffffffffffffffff163373ffffffffffffffffffffffffffffffffffffffff161415151561160257600080fd5b6001600060038110151561161257fe5b0160009054906101000a900473ffffffffffffffffffffffffffffffffffffffff1673ffffffffffffffffffffffffffffffffffffffff163373ffffffffffffffffffffffffffffffffffffffff1614806116c8575060018060038110151561167757fe5b0160009054906101000a900473ffffffffffffffffffffffffffffffffffffffff1673ffffffffffffffffffffffffffffffffffffffff163373ffffffffffffffffffffffffffffffffffffffff16145b8061172f5750600160026003811015156116de57fe5b0160009054906101000a900473ffffffffffffffffffffffffffffffffffffffff1673ffffffffffffffffffffffffffffffffffffffff163373ffffffffffffffffffffffffffffffffffffffff16145b8061179657506004600060088110151561174557fe5b0160009054906101000a900473ffffffffffffffffffffffffffffffffffffffff1673ffffffffffffffffffffffffffffffffffffffff163373ffffffffffffffffffffffffffffffffffffffff16145b806117fd5750600460016008811015156117ac57fe5b0160009054906101000a900473ffffffffffffffffffffffffffffffffffffffff1673ffffffffffffffffffffffffffffffffffffffff163373ffffffffffffffffffffffffffffffffffffffff16145b8061186457506004600260088110151561181357fe5b0160009054906101000a900473ffffffffffffffffffffffffffffffffffffffff1673ffffffffffffffffffffffffffffffffffffffff163373ffffffffffffffffffffffffffffffffffffffff16145b806118cb57506004600360088110151561187a57fe5b0160009054906101000a900473ffffffffffffffffffffffffffffffffffffffff1673ffffffffffffffffffffffffffffffffffffffff163373ffffffffffffffffffffffffffffffffffffffff16145b8061193157506004806008811015156118e057fe5b0160009054906101000a900473ffffffffffffffffffffffffffffffffffffffff1673ffffffffffffffffffffffffffffffffffffffff163373ffffffffffffffffffffffffffffffffffffffff16145b8061199857506004600560088110151561194757fe5b0160009054906101000a900473ffffffffffffffffffffffffffffffffffffffff1673ffffffffffffffffffffffffffffffffffffffff163373ffffffffffffffffffffffffffffffffffffffff16145b806119ff5750600460066008811015156119ae57fe5b0160009054906101000a900473ffffffffffffffffffffffffffffffffffffffff1673ffffffffffffffffffffffffffffffffffffffff163373ffffffffffffffffffffffffffffffffffffffff16145b80611a66575060046007600881101515611a1557fe5b0160009054906101000a900473ffffffffffffffffffffffffffffffffffffffff1673ffffffffffffffffffffffffffffffffffffffff163373ffffffffffffffffffffffffffffffffffffffff16145b1515611a7157600080fd5b6016601080602002604051908101604052809291908260108015611ae0576020028201915b8160009054906101000a900473ffffffffffffffffffffffffffffffffffffffff1673ffffffffffffffffffffffffffffffffffffffff1681526020019060010190808311611a96575b5050505050905090565b60008073ffffffffffffffffffffffffffffffffffffffff163373ffffffffffffffffffffffffffffffffffffffff1614151515611b2757600080fd5b60016000600381101515611b3757fe5b0160009054906101000a900473ffffffffffffffffffffffffffffffffffffffff1673ffffffffffffffffffffffffffffffffffffffff163373ffffffffffffffffffffffffffffffffffffffff161480611bed5750600180600381101515611b9c57fe5b0160009054906101000a900473ffffffffffffffffffffffffffffffffffffffff1673ffffffffffffffffffffffffffffffffffffffff163373ffffffffffffffffffffffffffffffffffffffff16145b80611c54575060016002600381101515611c0357fe5b0160009054906101000a900473ffffffffffffffffffffffffffffffffffffffff1673ffffffffffffffffffffffffffffffffffffffff163373ffffffffffffffffffffffffffffffffffffffff16145b1515611c5f57600080fd5b600073ffffffffffffffffffffffffffffffffffffffff16601683601081101515611c8657fe5b0160009054906101000a900473ffffffffffffffffffffffffffffffffffffffff1673ffffffffffffffffffffffffffffffffffffffff1614151515611ccb57600080fd5b6000601683601081101515611cdc57fe5b0160009054906101000a900473ffffffffffffffffffffffffffffffffffffffff169050600073ffffffffffffffffffffffffffffffffffffffff16601684601081101515611d2757fe5b0160009054906101000a9050505080915050919050565b60008073ffffffffffffffffffffffffffffffffffffffff168273ffffffffffffffffffffffffffffffffffffffff1614151515611d7b57600080fd5b611dc3601360008473ffffffffffffffffffffffffffffffffffffffff1673ffffffffffffffffffffffffffffffffffffffff16815260200190815260200160002054614222565b9050919050565b600073ffffffffffffffffffffffffffffffffffffffff163373ffffffffffffffffffffffffffffffffffffffff1614151515611e0657600080fd5b60016000600381101515611e1657fe5b0160009054906101000a900473ffffffffffffffffffffffffffffffffffffffff1673ffffffffffffffffffffffffffffffffffffffff163373ffffffffffffffffffffffffffffffffffffffff161480611ecc5750600180600381101515611e7b57fe5b0160009054906101000a900473ffffffffffffffffffffffffffffffffffffffff1673ffffffffffffffffffffffffffffffffffffffff163373ffffffffffffffffffffffffffffffffffffffff16145b80611f33575060016002600381101515611ee257fe5b0160009054906101000a900473ffffffffffffffffffffffffffffffffffffffff1673ffffffffffffffffffffffffffffffffffffffff163373ffffffffffffffffffffffffffffffffffffffff16145b1515611f3e57600080fd5b601060009054906101000a900460ff16151515611f5a57600080fd5b6001601060006101000a81548160ff021916908315150217905550565b60008073ffffffffffffffffffffffffffffffffffffffff163373ffffffffffffffffffffffffffffffffffffffff1614151515611fb457600080fd5b60016000600381101515611fc457fe5b0160009054906101000a900473ffffffffffffffffffffffffffffffffffffffff1673ffffffffffffffffffffffffffffffffffffffff163373ffffffffffffffffffffffffffffffffffffffff16148061207a575060018060038110151561202957fe5b0160009054906101000a900473ffffffffffffffffffffffffffffffffffffffff1673ffffffffffffffffffffffffffffffffffffffff163373ffffffffffffffffffffffffffffffffffffffff16145b806120e157506001600260038110151561209057fe5b0160009054906101000a900473ffffffffffffffffffffffffffffffffffffffff1673ffffffffffffffffffffffffffffffffffffffff163373ffffffffffffffffffffffffffffffffffffffff16145b15156120ec57600080fd5b600073ffffffffffffffffffffffffffffffffffffffff168373ffffffffffffffffffffffffffffffffffffffff161415151561212857600080fd5b600073ffffffffffffffffffffffffffffffffffffffff1660168360108110151561214f57fe5b0160009054906101000a900473ffffffffffffffffffffffffffffffffffffffff1673ffffffffffffffffffffffffffffffffffffffff1614151561219357600080fd5b826016836010811015156121a357fe5b0160006101000a81548173ffffffffffffffffffffffffffffffffffffffff021916908373ffffffffffffffffffffffffffffffffffffffff1602179055506001905092915050565b6000809054906101000a900473ffffffffffffffffffffffffffffffffffffffff1681565b600080821180612237575060006012600084815260200190815260200160002060010154115b151561224257600080fd5b4261224c836112a8565b111561225b5760019050612260565b600090505b919050565b6000601360008373ffffffffffffffffffffffffffffffffffffffff1673ffffffffffffffffffffffffffffffffffffffff168152602001908152602001600020549050919050565b600f5481565b60008073ffffffffffffffffffffffffffffffffffffffff168273ffffffffffffffffffffffffffffffffffffffff16141515156122f157600080fd5b612339601360008473ffffffffffffffffffffffffffffffffffffffff1673ffffffffffffffffffffffffffffffffffffffff16815260200190815260200160002054612211565b9050919050565b60606000601260008481526020019081526020016000206001015411151561236757600080fd5b601260008381526020019081526020016000206004018054600181600116156101000203166002900480601f0160208091040260200160405190810160405280929190818152602001828054600181600116156101000203166002900480156124115780601f106123e657610100808354040283529160200191612411565b820191906000526020600020905b8154815290600101906020018083116123f457829003601f168201915b50505050509050919050565b60008073ffffffffffffffffffffffffffffffffffffffff163373ffffffffffffffffffffffffffffffffffffffff161415151561245a57600080fd5b6016600060108110151561246a57fe5b0160009054906101000a900473ffffffffffffffffffffffffffffffffffffffff1673ffffffffffffffffffffffffffffffffffffffff163373ffffffffffffffffffffffffffffffffffffffff1614806125215750601660016010811015156124d057fe5b0160009054906101000a900473ffffffffffffffffffffffffffffffffffffffff1673ffffffffffffffffffffffffffffffffffffffff163373ffffffffffffffffffffffffffffffffffffffff16145b8061258857506016600260108110151561253757fe5b0160009054906101000a900473ffffffffffffffffffffffffffffffffffffffff1673ffffffffffffffffffffffffffffffffffffffff163373ffffffffffffffffffffffffffffffffffffffff16145b806125ef57506016600360108110151561259e57fe5b0160009054906101000a900473ffffffffffffffffffffffffffffffffffffffff1673ffffffffffffffffffffffffffffffffffffffff163373ffffffffffffffffffffffffffffffffffffffff16145b8061265657506016600460108110151561260557fe5b0160009054906101000a900473ffffffffffffffffffffffffffffffffffffffff1673ffffffffffffffffffffffffffffffffffffffff163373ffffffffffffffffffffffffffffffffffffffff16145b806126bd57506016600560108110151561266c57fe5b0160009054906101000a900473ffffffffffffffffffffffffffffffffffffffff1673ffffffffffffffffffffffffffffffffffffffff163373ffffffffffffffffffffffffffffffffffffffff16145b806127245750601660066010811015156126d357fe5b0160009054906101000a900473ffffffffffffffffffffffffffffffffffffffff1673ffffffffffffffffffffffffffffffffffffffff163373ffffffffffffffffffffffffffffffffffffffff16145b8061278b57506016600760108110151561273a57fe5b0160009054906101000a900473ffffffffffffffffffffffffffffffffffffffff1673ffffffffffffffffffffffffffffffffffffffff163373ffffffffffffffffffffffffffffffffffffffff16145b806127f25750601660086010811015156127a157fe5b0160009054906101000a900473ffffffffffffffffffffffffffffffffffffffff1673ffffffffffffffffffffffffffffffffffffffff163373ffffffffffffffffffffffffffffffffffffffff16145b8061285957506016600960108110151561280857fe5b0160009054906101000a900473ffffffffffffffffffffffffffffffffffffffff1673ffffffffffffffffffffffffffffffffffffffff163373ffffffffffffffffffffffffffffffffffffffff16145b806128c057506016600a60108110151561286f57fe5b0160009054906101000a900473ffffffffffffffffffffffffffffffffffffffff1673ffffffffffffffffffffffffffffffffffffffff163373ffffffffffffffffffffffffffffffffffffffff16145b8061292757506016600b6010811015156128d657fe5b0160009054906101000a900473ffffffffffffffffffffffffffffffffffffffff1673ffffffffffffffffffffffffffffffffffffffff163373ffffffffffffffffffffffffffffffffffffffff16145b8061298e57506016600c60108110151561293d57fe5b0160009054906101000a900473ffffffffffffffffffffffffffffffffffffffff1673ffffffffffffffffffffffffffffffffffffffff163373ffffffffffffffffffffffffffffffffffffffff16145b806129f557506016600d6010811015156129a457fe5b0160009054906101000a900473ffffffffffffffffffffffffffffffffffffffff1673ffffffffffffffffffffffffffffffffffffffff163373ffffffffffffffffffffffffffffffffffffffff16145b80612a5c57506016600e601081101515612a0b57fe5b0160009054906101000a900473ffffffffffffffffffffffffffffffffffffffff1673ffffffffffffffffffffffffffffffffffffffff163373ffffffffffffffffffffffffffffffffffffffff16145b80612ac357506016600f601081101515612a7257fe5b0160009054906101000a900473ffffffffffffffffffffffffffffffffffffffff1673ffffffffffffffffffffffffffffffffffffffff163373ffffffffffffffffffffffffffffffffffffffff16145b1515612ace57600080fd5b612ad66143f6565b601181905550601154905090565b60008073ffffffffffffffffffffffffffffffffffffffff163373ffffffffffffffffffffffffffffffffffffffff1614151515612b2157600080fd5b60166000601081101515612b3157fe5b0160009054906101000a900473ffffffffffffffffffffffffffffffffffffffff1673ffffffffffffffffffffffffffffffffffffffff163373ffffffffffffffffffffffffffffffffffffffff161480612be8575060166001601081101515612b9757fe5b0160009054906101000a900473ffffffffffffffffffffffffffffffffffffffff1673ffffffffffffffffffffffffffffffffffffffff163373ffffffffffffffffffffffffffffffffffffffff16145b80612c4f575060166002601081101515612bfe57fe5b0160009054906101000a900473ffffffffffffffffffffffffffffffffffffffff1673ffffffffffffffffffffffffffffffffffffffff163373ffffffffffffffffffffffffffffffffffffffff16145b80612cb6575060166003601081101515612c6557fe5b0160009054906101000a900473ffffffffffffffffffffffffffffffffffffffff1673ffffffffffffffffffffffffffffffffffffffff163373ffffffffffffffffffffffffffffffffffffffff16145b80612d1d575060166004601081101515612ccc57fe5b0160009054906101000a900473ffffffffffffffffffffffffffffffffffffffff1673ffffffffffffffffffffffffffffffffffffffff163373ffffffffffffffffffffffffffffffffffffffff16145b80612d84575060166005601081101515612d3357fe5b0160009054906101000a900473ffffffffffffffffffffffffffffffffffffffff1673ffffffffffffffffffffffffffffffffffffffff163373ffffffffffffffffffffffffffffffffffffffff16145b80612deb575060166006601081101515612d9a57fe5b0160009054906101000a900473ffffffffffffffffffffffffffffffffffffffff1673ffffffffffffffffffffffffffffffffffffffff163373ffffffffffffffffffffffffffffffffffffffff16145b80612e52575060166007601081101515612e0157fe5b0160009054906101000a900473ffffffffffffffffffffffffffffffffffffffff1673ffffffffffffffffffffffffffffffffffffffff163373ffffffffffffffffffffffffffffffffffffffff16145b80612eb9575060166008601081101515612e6857fe5b0160009054906101000a900473ffffffffffffffffffffffffffffffffffffffff1673ffffffffffffffffffffffffffffffffffffffff163373ffffffffffffffffffffffffffffffffffffffff16145b80612f20575060166009601081101515612ecf57fe5b0160009054906101000a900473ffffffffffffffffffffffffffffffffffffffff1673ffffffffffffffffffffffffffffffffffffffff163373ffffffffffffffffffffffffffffffffffffffff16145b80612f8757506016600a601081101515612f3657fe5b0160009054906101000a900473ffffffffffffffffffffffffffffffffffffffff1673ffffffffffffffffffffffffffffffffffffffff163373ffffffffffffffffffffffffffffffffffffffff16145b80612fee57506016600b601081101515612f9d57fe5b0160009054906101000a900473ffffffffffffffffffffffffffffffffffffffff1673ffffffffffffffffffffffffffffffffffffffff163373ffffffffffffffffffffffffffffffffffffffff16145b8061305557506016600c60108110151561300457fe5b0160009054906101000a900473ffffffffffffffffffffffffffffffffffffffff1673ffffffffffffffffffffffffffffffffffffffff163373ffffffffffffffffffffffffffffffffffffffff16145b806130bc57506016600d60108110151561306b57fe5b0160009054906101000a900473ffffffffffffffffffffffffffffffffffffffff1673ffffffffffffffffffffffffffffffffffffffff163373ffffffffffffffffffffffffffffffffffffffff16145b8061312357506016600e6010811015156130d257fe5b0160009054906101000a900473ffffffffffffffffffffffffffffffffffffffff1673ffffffffffffffffffffffffffffffffffffffff163373ffffffffffffffffffffffffffffffffffffffff16145b8061318a57506016600f60108110151561313957fe5b0160009054906101000a900473ffffffffffffffffffffffffffffffffffffffff1673ffffffffffffffffffffffffffffffffffffffff163373ffffffffffffffffffffffffffffffffffffffff16145b151561319557600080fd5b600060126000858152602001908152602001600020600101541115156131ba57600080fd5b60006131c5846112a8565b9050828111156131f857826012600086815260200190815260200160002060020160008282540192505081905550613214565b8060126000868152602001908152602001600020600201819055505b601260008581526020019081526020016000206002015491505092915050565b60008073ffffffffffffffffffffffffffffffffffffffff163373ffffffffffffffffffffffffffffffffffffffff161415151561327157600080fd5b6001600060038110151561328157fe5b0160009054906101000a900473ffffffffffffffffffffffffffffffffffffffff1673ffffffffffffffffffffffffffffffffffffffff163373ffffffffffffffffffffffffffffffffffffffff16148061333757506001806003811015156132e657fe5b0160009054906101000a900473ffffffffffffffffffffffffffffffffffffffff1673ffffffffffffffffffffffffffffffffffffffff163373ffffffffffffffffffffffffffffffffffffffff16145b8061339e57506001600260038110151561334d57fe5b0160009054906101000a900473ffffffffffffffffffffffffffffffffffffffff1673ffffffffffffffffffffffffffffffffffffffff163373ffffffffffffffffffffffffffffffffffffffff16145b806134055750600460006008811015156133b457fe5b0160009054906101000a900473ffffffffffffffffffffffffffffffffffffffff1673ffffffffffffffffffffffffffffffffffffffff163373ffffffffffffffffffffffffffffffffffffffff16145b8061346c57506004600160088110151561341b57fe5b0160009054906101000a900473ffffffffffffffffffffffffffffffffffffffff1673ffffffffffffffffffffffffffffffffffffffff163373ffffffffffffffffffffffffffffffffffffffff16145b806134d357506004600260088110151561348257fe5b0160009054906101000a900473ffffffffffffffffffffffffffffffffffffffff1673ffffffffffffffffffffffffffffffffffffffff163373ffffffffffffffffffffffffffffffffffffffff16145b8061353a5750600460036008811015156134e957fe5b0160009054906101000a900473ffffffffffffffffffffffffffffffffffffffff1673ffffffffffffffffffffffffffffffffffffffff163373ffffffffffffffffffffffffffffffffffffffff16145b806135a0575060048060088110151561354f57fe5b0160009054906101000a900473ffffffffffffffffffffffffffffffffffffffff1673ffffffffffffffffffffffffffffffffffffffff163373ffffffffffffffffffffffffffffffffffffffff16145b806136075750600460056008811015156135b657fe5b0160009054906101000a900473ffffffffffffffffffffffffffffffffffffffff1673ffffffffffffffffffffffffffffffffffffffff163373ffffffffffffffffffffffffffffffffffffffff16145b8061366e57506004600660088110151561361d57fe5b0160009054906101000a900473ffffffffffffffffffffffffffffffffffffffff1673ffffffffffffffffffffffffffffffffffffffff163373ffffffffffffffffffffffffffffffffffffffff16145b806136d557506004600760088110151561368457fe5b0160009054906101000a900473ffffffffffffffffffffffffffffffffffffffff1673ffffffffffffffffffffffffffffffffffffffff163373ffffffffffffffffffffffffffffffffffffffff16145b15156136e057600080fd5b600060126000858152602001908152602001600020600101541180156137695750600073ffffffffffffffffffffffffffffffffffffffff166012600085815260200190815260200160002060000160009054906101000a900473ffffffffffffffffffffffffffffffffffffffff1673ffffffffffffffffffffffffffffffffffffffff1614155b151561377457600080fd5b8160126000858152602001908152602001600020600301819055506001905092915050565b6001816003811015156137a857fe5b016000915054906101000a900473ffffffffffffffffffffffffffffffffffffffff1681565b60008073ffffffffffffffffffffffffffffffffffffffff163373ffffffffffffffffffffffffffffffffffffffff161415151561380b57600080fd5b6001600060038110151561381b57fe5b0160009054906101000a900473ffffffffffffffffffffffffffffffffffffffff1673ffffffffffffffffffffffffffffffffffffffff163373ffffffffffffffffffffffffffffffffffffffff1614806138d1575060018060038110151561388057fe5b0160009054906101000a900473ffffffffffffffffffffffffffffffffffffffff1673ffffffffffffffffffffffffffffffffffffffff163373ffffffffffffffffffffffffffffffffffffffff16145b806139385750600160026003811015156138e757fe5b0160009054906101000a900473ffffffffffffffffffffffffffffffffffffffff1673ffffffffffffffffffffffffffffffffffffffff163373ffffffffffffffffffffffffffffffffffffffff16145b151561394357600080fd5b600073ffffffffffffffffffffffffffffffffffffffff168373ffffffffffffffffffffffffffffffffffffffff161415151561397f57600080fd5b600073ffffffffffffffffffffffffffffffffffffffff166016836010811015156139a657fe5b0160009054906101000a900473ffffffffffffffffffffffffffffffffffffffff1673ffffffffffffffffffffffffffffffffffffffff16141515156139eb57600080fd5b60006016836010811015156139fc57fe5b0160009054906101000a900473ffffffffffffffffffffffffffffffffffffffff16905083601684601081101515613a3057fe5b0160006101000a81548173ffffffffffffffffffffffffffffffffffffffff021916908373ffffffffffffffffffffffffffffffffffffffff1602179055508091505092915050565b600073ffffffffffffffffffffffffffffffffffffffff163373ffffffffffffffffffffffffffffffffffffffff1614151515613ab557600080fd5b60016000600381101515613ac557fe5b0160009054906101000a900473ffffffffffffffffffffffffffffffffffffffff1673ffffffffffffffffffffffffffffffffffffffff163373ffffffffffffffffffffffffffffffffffffffff161480613b7b5750600180600381101515613b2a57fe5b0160009054906101000a900473ffffffffffffffffffffffffffffffffffffffff1673ffffffffffffffffffffffffffffffffffffffff163373ffffffffffffffffffffffffffffffffffffffff16145b80613be2575060016002600381101515613b9157fe5b0160009054906101000a900473ffffffffffffffffffffffffffffffffffffffff1673ffffffffffffffffffffffffffffffffffffffff163373ffffffffffffffffffffffffffffffffffffffff16145b1515613bed57600080fd5b600073ffffffffffffffffffffffffffffffffffffffff168273ffffffffffffffffffffffffffffffffffffffff1614151515613c2957600080fd5b81600482600881101515613c3957fe5b0160006101000a81548173ffffffffffffffffffffffffffffffffffffffff021916908373ffffffffffffffffffffffffffffffffffffffff1602179055505050565b600073ffffffffffffffffffffffffffffffffffffffff163373ffffffffffffffffffffffffffffffffffffffff1614151515613cb857600080fd5b60016000600381101515613cc857fe5b0160009054906101000a900473ffffffffffffffffffffffffffffffffffffffff1673ffffffffffffffffffffffffffffffffffffffff163373ffffffffffffffffffffffffffffffffffffffff161480613d7e5750600180600381101515613d2d57fe5b0160009054906101000a900473ffffffffffffffffffffffffffffffffffffffff1673ffffffffffffffffffffffffffffffffffffffff163373ffffffffffffffffffffffffffffffffffffffff16145b80613de5575060016002600381101515613d9457fe5b0160009054906101000a900473ffffffffffffffffffffffffffffffffffffffff1673ffffffffffffffffffffffffffffffffffffffff163373ffffffffffffffffffffffffffffffffffffffff16145b80613e4c575060046000600881101515613dfb57fe5b0160009054906101000a900473ffffffffffffffffffffffffffffffffffffffff1673ffffffffffffffffffffffffffffffffffffffff163373ffffffffffffffffffffffffffffffffffffffff16145b80613eb3575060046001600881101515613e6257fe5b0160009054906101000a900473ffffffffffffffffffffffffffffffffffffffff1673ffffffffffffffffffffffffffffffffffffffff163373ffffffffffffffffffffffffffffffffffffffff16145b80613f1a575060046002600881101515613ec957fe5b0160009054906101000a900473ffffffffffffffffffffffffffffffffffffffff1673ffffffffffffffffffffffffffffffffffffffff163373ffffffffffffffffffffffffffffffffffffffff16145b80613f81575060046003600881101515613f3057fe5b0160009054906101000a900473ffffffffffffffffffffffffffffffffffffffff1673ffffffffffffffffffffffffffffffffffffffff163373ffffffffffffffffffffffffffffffffffffffff16145b80613fe75750600480600881101515613f9657fe5b0160009054906101000a900473ffffffffffffffffffffffffffffffffffffffff1673ffffffffffffffffffffffffffffffffffffffff163373ffffffffffffffffffffffffffffffffffffffff16145b8061404e575060046005600881101515613ffd57fe5b0160009054906101000a900473ffffffffffffffffffffffffffffffffffffffff1673ffffffffffffffffffffffffffffffffffffffff163373ffffffffffffffffffffffffffffffffffffffff16145b806140b557506004600660088110151561406457fe5b0160009054906101000a900473ffffffffffffffffffffffffffffffffffffffff1673ffffffffffffffffffffffffffffffffffffffff163373ffffffffffffffffffffffffffffffffffffffff16145b8061411c5750600460076008811015156140cb57fe5b0160009054906101000a900473ffffffffffffffffffffffffffffffffffffffff1673ffffffffffffffffffffffffffffffffffffffff163373ffffffffffffffffffffffffffffffffffffffff16145b151561412757600080fd5b6000601260008581526020019081526020016000206001015411151561414c57600080fd5b818160126000868152602001908152602001600020600401919061417192919061445e565b50505050565b6000809054906101000a900473ffffffffffffffffffffffffffffffffffffffff1673ffffffffffffffffffffffffffffffffffffffff163373ffffffffffffffffffffffffffffffffffffffff161415156141d257600080fd5b80600c60006101000a81548173ffffffffffffffffffffffffffffffffffffffff021916908373ffffffffffffffffffffffffffffffffffffffff16021790555050565b600e5481565b600d5481565b60008082141580156142975750600073ffffffffffffffffffffffffffffffffffffffff166012600084815260200190815260200160002060000160009054906101000a900473ffffffffffffffffffffffffffffffffffffffff1673ffffffffffffffffffffffffffffffffffffffff1614155b156142a557600190506142aa565b600090505b919050565b6001600d60008282540192505081905550600d54601360008373ffffffffffffffffffffffffffffffffffffffff1673ffffffffffffffffffffffffffffffffffffffff1681526020019081526020016000208190555060a0604051908101604052808273ffffffffffffffffffffffffffffffffffffffff1681526020014281526020016000815260200160006001028152602001602060405190810160405280600081525081525060126000600d54815260200190815260200160002060008201518160000160006101000a81548173ffffffffffffffffffffffffffffffffffffffff021916908373ffffffffffffffffffffffffffffffffffffffff16021790555060208201518160010155604082015181600201556060820151816003015560808201518160040190805190602001906143ef9291906144de565b5090505050565b6000806000905060008090505b600d54811115156144325742614418826112a8565b1115614425576001820191505b8080600101915050614403565b508091505090565b61020060405190810160405280601090602082028038833980820191505090505090565b828054600181600116156101000203166002900490600052602060002090601f016020900481019282601f1061449f57803560ff19168380011785556144cd565b828001600101855582156144cd579182015b828111156144cc5782358255916020019190600101906144b1565b5b5090506144da919061455e565b5090565b828054600181600116156101000203166002900490600052602060002090601f016020900481019282601f1061451f57805160ff191683800117855561454d565b8280016001018555821561454d579182015b8281111561454c578251825591602001919060010190614531565b5b50905061455a919061455e565b5090565b61458091905b8082111561457c576000816000905550600101614564565b5090565b9056fea165627a7a7230582095fec5f81444fd7d5278edf746d8b1df69de0a4c3d6d7887dd703fc2e6de3c760029",
  "source": "pragma solidity ^0.5.2;\n\nimport \"./Interfaces/QOTInterface.sol\";\n\n// TODO: check integer overflow\n\ncontract MemberShip {\n    address public owner;\n    address[3] public coreManagers;\n    address[8] public managers;\n    address public QOTAddr;\n    uint public totalId;  // id 0 is not used and will start from 1\n    uint public fee = 0.01 ether;\n    // uint public memberPeriod = 160000;  // 40000 blocks ~ a week in rinkeby, for test only\n    uint public memberPeriod = 30 days;\n    bool public paused;\n    uint public activeMemberCount;  // need to call function to update this value\n\n    struct MemberInfo {\n        address addr;\n        uint since;  // beginning block.timestamp of previous membership\n        uint penalty;  // the membership is valid until: since + memberPeriod - penalty;\n        bytes32 kycid;  // know your customer id, leave it for future\n        string notes;\n    }\n\n    mapping (uint => MemberInfo) internal memberDB;  // id to MemberInfo\n    mapping (address => uint) internal addressToId;  // address to membership\n\n    mapping (address => bool) internal specialMember;\n    uint public specialMemberBonus = 10000 days;  // value set in constructor\n\n    address[16] public appWhitelist;\n\n    constructor(address _QOTAddr) public {\n        owner = msg.sender;\n        coreManagers = [0xB440ea2780614b3c6a00e512f432785E7dfAFA3E,\n                        0x4AD56641C569C91C64C28a904cda50AE5326Da41,\n                        0xaF7400787c54422Be8B44154B1273661f1259CcD];\n        managers = [address(0), address(0), address(0), address(0), address(0), address(0), address(0), address(0)];\n        appWhitelist = [\n            address(0), address(0), address(0), address(0), address(0), address(0), address(0), address(0),\n            address(0), address(0), address(0), address(0), address(0), address(0), address(0), address(0)\n        ];\n        QOTAddr = _QOTAddr;\n\n        for (uint8 i=0; i<3; i++){\n            _assignMembership(coreManagers[i]);\n            specialMember[coreManagers[i]] = true;\n            appWhitelist[i] = coreManagers[i];\n        }\n        assert(totalId == 3);\n        activeMemberCount = 3;  // manually set an initial value\n    }\n\n    modifier ownerOnly() {\n        require(msg.sender == owner);\n        _;\n    }\n\n    modifier coreManagerOnly() {\n        require(msg.sender != address(0));\n        require(msg.sender == coreManagers[0] || msg.sender == coreManagers[1] || msg.sender == coreManagers[2]);\n        _;\n    }\n\n    modifier managerOnly() {\n        require(msg.sender != address(0));\n        require(msg.sender == coreManagers[0] || msg.sender == coreManagers[1] || msg.sender == coreManagers[2] ||\n                msg.sender == managers[0] || msg.sender == managers[1] || msg.sender == managers[2] ||\n                msg.sender == managers[3] || msg.sender == managers[4] || msg.sender == managers[5] ||\n                msg.sender == managers[6] || msg.sender == managers[7]);\n        _;\n    }\n\n    modifier feePaid() {\n        require(msg.value >= fee);  // or \"==\"?\n        _;\n    }\n\n    modifier isMember() {\n        require(msg.sender != address(0));\n        require(memberDB[addressToId[msg.sender]].since > 0);\n        _;\n    }\n\n    modifier isActiveMember() {\n        require(msg.sender != address(0));\n        uint _id = addressToId[msg.sender];\n        require(_id != 0);\n        require(idExpireTime(_id) > block.timestamp);\n        _;\n    }\n\n    modifier isAppWhitelist() {\n        require(msg.sender != address(0));\n        require(msg.sender == appWhitelist[0] || msg.sender == appWhitelist[1] || msg.sender == appWhitelist[2] ||\n                msg.sender == appWhitelist[3] || msg.sender == appWhitelist[4] || msg.sender == appWhitelist[5] ||\n                msg.sender == appWhitelist[6] || msg.sender == appWhitelist[7] || msg.sender == appWhitelist[8] ||\n                msg.sender == appWhitelist[9] || msg.sender == appWhitelist[10] || msg.sender == appWhitelist[11] ||\n                msg.sender == appWhitelist[12] || msg.sender == appWhitelist[13] || msg.sender == appWhitelist[14] ||\n                msg.sender == appWhitelist[15]\n               );\n        _;\n    }\n\n    modifier whenNotPaused() {\n        require(!paused);\n        _;\n    }\n\n    modifier whenPaused {\n        require(paused);\n        _;\n    }\n\n    // membership\n    function buyMembership() public payable feePaid whenNotPaused returns (bool) {\n        require(addressToId[msg.sender] == 0);  // the user is not yet a member\n        _assignMembership(msg.sender);\n        return true;\n    }\n\n    function _assignMembership(address _addr) internal {\n        totalId += 1;  // make it start from 1\n        addressToId[_addr] = totalId;\n        memberDB[totalId] = MemberInfo(_addr, block.timestamp, 0, bytes32(0), \"\");\n    }\n\n    function renewMembership() public payable feePaid whenNotPaused returns (uint) {\n        uint _id = addressToId[msg.sender];\n        require(msg.sender != address(0) && addressToId[msg.sender] != 0 && memberDB[_id].addr == msg.sender);\n        uint _bonus;\n        if (specialMember[memberDB[_id].addr]) {\n            _bonus = specialMemberBonus;\n        }\n        require(block.timestamp > memberDB[_id].since + memberPeriod + _bonus - 7 days);\n        memberDB[_id].since = block.timestamp;\n        return block.timestamp;\n    }\n\n    function assginKYCid(uint _id, bytes32 _kycid) external managerOnly returns (bool) {\n        // instead of \"managerOnly\", probably add another group to do that\n        require(memberDB[_id].since > 0 && memberDB[_id].addr != address(0));\n        memberDB[_id].kycid = _kycid;\n        return true;\n    }\n\n    function addAppWhitelist(address _addr, uint _idx) public coreManagerOnly returns (bool) {\n        require(_addr != address(0));\n        require(appWhitelist[_idx] == address(0));\n        appWhitelist[_idx] = _addr;\n        return true;\n    }\n\n    function replaceAppWhitelist(address _addr, uint _idx) public coreManagerOnly returns (address) {\n        require(_addr != address(0));\n        require(appWhitelist[_idx] != address(0));\n        address _addrorig = appWhitelist[_idx];\n        appWhitelist[_idx] = _addr;\n        return _addrorig;\n    }\n\n    function rmAppWhitelist(uint _idx) public coreManagerOnly returns (address) {\n        require(appWhitelist[_idx] != address(0));\n        address _addr = appWhitelist[_idx];\n        appWhitelist[_idx] == address(0);\n        return _addr;\n    }\n\n    function getAppWhitelist() external view managerOnly returns (address[16] memory) {\n        return appWhitelist;\n    }\n\n    function addPenalty(uint _id, uint _penalty) external isAppWhitelist returns (uint) {\n        require(memberDB[_id].since > 0);  // is a member\n        // require(_penalty < memberPeriod);  // prevent too much penalty\n\n        // In case of really large _penalty\n        uint expireTime = idExpireTime(_id);\n        if (expireTime > _penalty) {\n            memberDB[_id].penalty += _penalty;\n        } else {\n            memberDB[_id].penalty = expireTime;\n        }\n\n        return memberDB[_id].penalty;\n    }\n\n    function readNotes(uint _id) external view returns (string memory) {\n        require(memberDB[_id].since > 0);\n        return memberDB[_id].notes;\n    }\n\n    function addNotes(uint _id, string calldata _notes) external managerOnly {\n        require(memberDB[_id].since > 0);\n        memberDB[_id].notes = _notes;\n    }\n\n    function toggleSpeicalMember(address _addr) public coreManagerOnly {  // for test only; should remove in future\n        require(addrIsMember(_addr));\n        specialMember[_addr] = !specialMember[_addr];\n    }\n\n    // some query functions\n    function addrIsMember(address _addr) public view returns (bool) {\n        require(_addr != address(0));\n        return idIsMember(addressToId[_addr]);\n    }\n\n    function addrIsActiveMember(address _addr) public view returns (bool) {\n        require(_addr != address(0));\n        return idIsActiveMember(addressToId[_addr]);\n    }\n\n    function idIsMember(uint _id) public view returns (bool) {\n        if (_id != 0 && memberDB[_id].addr != address(0)) {\n            return true;\n        } else {\n            return false;\n        }\n    }\n\n    function idIsActiveMember(uint _id) public view returns (bool) {\n        require (_id > 0 || memberDB[_id].since > 0);\n        if (idExpireTime(_id) > block.timestamp) {\n            return true;  // not yet expire\n        } else {\n            return false;\n        }\n    }\n\n    function idExpireTime(uint _id) public view returns (uint) {\n        if (specialMember[memberDB[_id].addr]) {\n            return memberDB[_id].since + memberPeriod - memberDB[_id].penalty + specialMemberBonus;\n        } else {\n            return memberDB[_id].since + memberPeriod - memberDB[_id].penalty;\n        }\n    }\n\n    function addrToId(address _addr) external view returns (uint) {\n        return addressToId[_addr];\n    }\n\n\n    function getMemberInfo(address _addr) external view returns (uint, bytes32, uint, uint, bytes32){\n        uint _id = addressToId[_addr];\n        uint status;  // 0=connection error, 1=active, 2=inactive, 3=not member\n        if (_id == 0) {\n            status = 3;\n        } else {\n            if (idIsActiveMember(_id)){\n                status = 1;\n            } else {\n                status = 2;\n            }\n        }\n        return (status, bytes32(_id), memberDB[_id].since, memberDB[_id].penalty, memberDB[_id].kycid);\n    }\n\n    function getActiveMemberCount() public view returns (uint){\n        return(activeMemberCount);\n    }\n\n    function updateActiveMembers() public isAppWhitelist returns (uint){\n        activeMemberCount = _countActiveMembers();\n        return(activeMemberCount);\n    }\n\n    function _countActiveMembers() internal view returns (uint) {\n        uint _count = 0;\n        for (uint i = 0; i <= totalId; i++) {\n            if (idExpireTime(i) > block.timestamp) {\n                _count += 1;\n            }\n        }\n        return _count;\n    }\n\n    // upgradable\n    function pause() external coreManagerOnly whenNotPaused {\n        paused = true;\n    }\n\n    function unpause() public ownerOnly whenPaused {\n        // set to ownerOnly in case accounts of other managers are compromised\n        paused = false;\n    }\n\n    function updateManager(address _addr, uint _id) public coreManagerOnly {\n        // \"managers\" can assign KYC id\n        require(_addr != address(0));\n        managers[_id] = _addr;\n    }\n\n    function updateQOTAddr(address _addr) external ownerOnly {\n        QOTAddr = _addr;\n    }\n\n}\n",
  "sourcePath": "/home/kai/Work/project/OptractContract/contracts/MemberShip.sol",
  "compiler": {
    "name": "solc",
    "version": "0.5.2+commit.1df8f40c.Linux.g++"
  },
  "schemaVersion": "3.0.1",
  "updatedAt": "2019-07-10T08:17:50.179Z",
  "devdoc": {
    "methods": {}
  },
  "userdoc": {
    "methods": {}
  }
}