{
  "contractName": "MemberShip",
  "abi": [
    {
      "constant": true,
      "inputs": [],
      "name": "vipMemberBonus",
      "outputs": [
        {
          "name": "",
          "type": "uint256"
        }
      ],
      "payable": false,
      "stateMutability": "view",
      "type": "function"
    },
    {
      "constant": true,
      "inputs": [],
      "name": "QOTAddr",
      "outputs": [
        {
          "name": "",
          "type": "address"
        }
      ],
      "payable": false,
      "stateMutability": "view",
      "type": "function"
    },
    {
      "constant": true,
      "inputs": [
        {
          "name": "",
          "type": "uint256"
        }
      ],
      "name": "appWhitelist",
      "outputs": [
        {
          "name": "",
          "type": "address"
        }
      ],
      "payable": false,
      "stateMutability": "view",
      "type": "function"
    },
    {
      "constant": true,
      "inputs": [
        {
          "name": "",
          "type": "uint256"
        }
      ],
      "name": "managers",
      "outputs": [
        {
          "name": "",
          "type": "address"
        }
      ],
      "payable": false,
      "stateMutability": "view",
      "type": "function"
    },
    {
      "constant": true,
      "inputs": [],
      "name": "paused",
      "outputs": [
        {
          "name": "",
          "type": "bool"
        }
      ],
      "payable": false,
      "stateMutability": "view",
      "type": "function"
    },
    {
      "constant": true,
      "inputs": [],
      "name": "activeMemberCount",
      "outputs": [
        {
          "name": "",
          "type": "uint256"
        }
      ],
      "payable": false,
      "stateMutability": "view",
      "type": "function"
    },
    {
      "constant": true,
      "inputs": [],
      "name": "lastMemberCountUpdateTime",
      "outputs": [
        {
          "name": "",
          "type": "uint256"
        }
      ],
      "payable": false,
      "stateMutability": "view",
      "type": "function"
    },
    {
      "constant": true,
      "inputs": [],
      "name": "owner",
      "outputs": [
        {
          "name": "",
          "type": "address"
        }
      ],
      "payable": false,
      "stateMutability": "view",
      "type": "function"
    },
    {
      "constant": true,
      "inputs": [],
      "name": "memberPeriod",
      "outputs": [
        {
          "name": "",
          "type": "uint256"
        }
      ],
      "payable": false,
      "stateMutability": "view",
      "type": "function"
    },
    {
      "constant": true,
      "inputs": [],
      "name": "curationMinQOTholding",
      "outputs": [
        {
          "name": "",
          "type": "uint256"
        }
      ],
      "payable": false,
      "stateMutability": "view",
      "type": "function"
    },
    {
      "constant": true,
      "inputs": [
        {
          "name": "",
          "type": "uint256"
        }
      ],
      "name": "coreManagers",
      "outputs": [
        {
          "name": "",
          "type": "address"
        }
      ],
      "payable": false,
      "stateMutability": "view",
      "type": "function"
    },
    {
      "constant": true,
      "inputs": [],
      "name": "fee",
      "outputs": [
        {
          "name": "",
          "type": "uint256"
        }
      ],
      "payable": false,
      "stateMutability": "view",
      "type": "function"
    },
    {
      "constant": true,
      "inputs": [],
      "name": "totalId",
      "outputs": [
        {
          "name": "",
          "type": "uint256"
        }
      ],
      "payable": false,
      "stateMutability": "view",
      "type": "function"
    },
    {
      "inputs": [
        {
          "name": "_QOTAddr",
          "type": "address"
        }
      ],
      "payable": false,
      "stateMutability": "nonpayable",
      "type": "constructor"
    },
    {
      "constant": false,
      "inputs": [
        {
          "name": "buyer",
          "type": "address"
        },
        {
          "name": "tier",
          "type": "uint8"
        }
      ],
      "name": "giveMembership",
      "outputs": [
        {
          "name": "",
          "type": "bool"
        }
      ],
      "payable": false,
      "stateMutability": "nonpayable",
      "type": "function"
    },
    {
      "constant": false,
      "inputs": [],
      "name": "buyMembership",
      "outputs": [
        {
          "name": "",
          "type": "bool"
        }
      ],
      "payable": true,
      "stateMutability": "payable",
      "type": "function"
    },
    {
      "constant": false,
      "inputs": [],
      "name": "renewMembership",
      "outputs": [
        {
          "name": "",
          "type": "uint256"
        }
      ],
      "payable": true,
      "stateMutability": "payable",
      "type": "function"
    },
    {
      "constant": false,
      "inputs": [
        {
          "name": "_tier",
          "type": "uint8"
        },
        {
          "name": "_addr",
          "type": "address"
        }
      ],
      "name": "updateTier",
      "outputs": [
        {
          "name": "",
          "type": "bool"
        }
      ],
      "payable": false,
      "stateMutability": "nonpayable",
      "type": "function"
    },
    {
      "constant": true,
      "inputs": [
        {
          "name": "_addr",
          "type": "address"
        }
      ],
      "name": "determineTier",
      "outputs": [
        {
          "name": "",
          "type": "uint8"
        }
      ],
      "payable": false,
      "stateMutability": "view",
      "type": "function"
    },
    {
      "constant": true,
      "inputs": [
        {
          "name": "_id",
          "type": "uint256"
        }
      ],
      "name": "isVipTier",
      "outputs": [
        {
          "name": "",
          "type": "bool"
        }
      ],
      "payable": false,
      "stateMutability": "view",
      "type": "function"
    },
    {
      "constant": true,
      "inputs": [
        {
          "name": "_addr",
          "type": "address"
        }
      ],
      "name": "addrIsVipTier",
      "outputs": [
        {
          "name": "",
          "type": "bool"
        }
      ],
      "payable": false,
      "stateMutability": "view",
      "type": "function"
    },
    {
      "constant": false,
      "inputs": [
        {
          "name": "_id",
          "type": "uint256"
        },
        {
          "name": "_kycid",
          "type": "bytes32"
        }
      ],
      "name": "assginKYCid",
      "outputs": [
        {
          "name": "",
          "type": "bool"
        }
      ],
      "payable": false,
      "stateMutability": "nonpayable",
      "type": "function"
    },
    {
      "constant": false,
      "inputs": [
        {
          "name": "_addr",
          "type": "address"
        },
        {
          "name": "_idx",
          "type": "uint256"
        }
      ],
      "name": "addAppWhitelist",
      "outputs": [
        {
          "name": "",
          "type": "bool"
        }
      ],
      "payable": false,
      "stateMutability": "nonpayable",
      "type": "function"
    },
    {
      "constant": false,
      "inputs": [
        {
          "name": "_addr",
          "type": "address"
        },
        {
          "name": "_idx",
          "type": "uint256"
        }
      ],
      "name": "replaceAppWhitelist",
      "outputs": [
        {
          "name": "",
          "type": "address"
        }
      ],
      "payable": false,
      "stateMutability": "nonpayable",
      "type": "function"
    },
    {
      "constant": false,
      "inputs": [
        {
          "name": "_idx",
          "type": "uint256"
        }
      ],
      "name": "rmAppWhitelist",
      "outputs": [
        {
          "name": "",
          "type": "address"
        }
      ],
      "payable": false,
      "stateMutability": "nonpayable",
      "type": "function"
    },
    {
      "constant": true,
      "inputs": [],
      "name": "getAppWhitelist",
      "outputs": [
        {
          "name": "",
          "type": "address[16]"
        }
      ],
      "payable": false,
      "stateMutability": "view",
      "type": "function"
    },
    {
      "constant": false,
      "inputs": [
        {
          "name": "_id",
          "type": "uint256"
        },
        {
          "name": "_penalty",
          "type": "uint256"
        }
      ],
      "name": "addPenalty",
      "outputs": [
        {
          "name": "",
          "type": "uint256"
        }
      ],
      "payable": false,
      "stateMutability": "nonpayable",
      "type": "function"
    },
    {
      "constant": true,
      "inputs": [
        {
          "name": "_id",
          "type": "uint256"
        }
      ],
      "name": "readNotes",
      "outputs": [
        {
          "name": "",
          "type": "string"
        }
      ],
      "payable": false,
      "stateMutability": "view",
      "type": "function"
    },
    {
      "constant": false,
      "inputs": [
        {
          "name": "_id",
          "type": "uint256"
        },
        {
          "name": "_notes",
          "type": "string"
        }
      ],
      "name": "addNotes",
      "outputs": [],
      "payable": false,
      "stateMutability": "nonpayable",
      "type": "function"
    },
    {
      "constant": true,
      "inputs": [
        {
          "name": "_addr",
          "type": "address"
        }
      ],
      "name": "addrIsMember",
      "outputs": [
        {
          "name": "",
          "type": "bool"
        }
      ],
      "payable": false,
      "stateMutability": "view",
      "type": "function"
    },
    {
      "constant": true,
      "inputs": [
        {
          "name": "_addr",
          "type": "address"
        }
      ],
      "name": "addrIsActiveMember",
      "outputs": [
        {
          "name": "",
          "type": "bool"
        }
      ],
      "payable": false,
      "stateMutability": "view",
      "type": "function"
    },
    {
      "constant": true,
      "inputs": [
        {
          "name": "_id",
          "type": "uint256"
        }
      ],
      "name": "idIsMember",
      "outputs": [
        {
          "name": "",
          "type": "bool"
        }
      ],
      "payable": false,
      "stateMutability": "view",
      "type": "function"
    },
    {
      "constant": true,
      "inputs": [
        {
          "name": "_id",
          "type": "uint256"
        }
      ],
      "name": "idIsActiveMember",
      "outputs": [
        {
          "name": "",
          "type": "bool"
        }
      ],
      "payable": false,
      "stateMutability": "view",
      "type": "function"
    },
    {
      "constant": true,
      "inputs": [
        {
          "name": "_id",
          "type": "uint256"
        }
      ],
      "name": "idExpireTime",
      "outputs": [
        {
          "name": "",
          "type": "uint256"
        }
      ],
      "payable": false,
      "stateMutability": "view",
      "type": "function"
    },
    {
      "constant": true,
      "inputs": [
        {
          "name": "_addr",
          "type": "address"
        }
      ],
      "name": "addrExpireTime",
      "outputs": [
        {
          "name": "",
          "type": "uint256"
        }
      ],
      "payable": false,
      "stateMutability": "view",
      "type": "function"
    },
    {
      "constant": true,
      "inputs": [
        {
          "name": "_addr",
          "type": "address"
        }
      ],
      "name": "addrToId",
      "outputs": [
        {
          "name": "",
          "type": "uint256"
        }
      ],
      "payable": false,
      "stateMutability": "view",
      "type": "function"
    },
    {
      "constant": true,
      "inputs": [
        {
          "name": "_addr",
          "type": "address"
        }
      ],
      "name": "getMemberInfo",
      "outputs": [
        {
          "name": "",
          "type": "uint256"
        },
        {
          "name": "",
          "type": "bytes32"
        },
        {
          "name": "",
          "type": "uint256"
        },
        {
          "name": "",
          "type": "uint256"
        },
        {
          "name": "",
          "type": "bytes32"
        },
        {
          "name": "",
          "type": "uint8"
        },
        {
          "name": "",
          "type": "uint256"
        }
      ],
      "payable": false,
      "stateMutability": "view",
      "type": "function"
    },
    {
      "constant": true,
      "inputs": [],
      "name": "getActiveMemberCount",
      "outputs": [
        {
          "name": "",
          "type": "uint256"
        }
      ],
      "payable": false,
      "stateMutability": "view",
      "type": "function"
    },
    {
      "constant": true,
      "inputs": [],
      "name": "getLastMemberCountUpdateTime",
      "outputs": [
        {
          "name": "",
          "type": "uint256"
        }
      ],
      "payable": false,
      "stateMutability": "view",
      "type": "function"
    },
    {
      "constant": false,
      "inputs": [
        {
          "name": "_count",
          "type": "uint256"
        }
      ],
      "name": "updateActiveMemberCount",
      "outputs": [
        {
          "name": "",
          "type": "uint256"
        }
      ],
      "payable": false,
      "stateMutability": "nonpayable",
      "type": "function"
    },
    {
      "constant": true,
      "inputs": [],
      "name": "countActiveMembers",
      "outputs": [
        {
          "name": "",
          "type": "uint256"
        }
      ],
      "payable": false,
      "stateMutability": "view",
      "type": "function"
    },
    {
      "constant": false,
      "inputs": [],
      "name": "pause",
      "outputs": [],
      "payable": false,
      "stateMutability": "nonpayable",
      "type": "function"
    },
    {
      "constant": false,
      "inputs": [],
      "name": "unpause",
      "outputs": [],
      "payable": false,
      "stateMutability": "nonpayable",
      "type": "function"
    },
    {
      "constant": false,
      "inputs": [
        {
          "name": "_addr",
          "type": "address"
        }
      ],
      "name": "updateOwner",
      "outputs": [],
      "payable": false,
      "stateMutability": "nonpayable",
      "type": "function"
    },
    {
      "constant": false,
      "inputs": [
        {
          "name": "_addr",
          "type": "address"
        },
        {
          "name": "_id",
          "type": "uint256"
        }
      ],
      "name": "updateManager",
      "outputs": [],
      "payable": false,
      "stateMutability": "nonpayable",
      "type": "function"
    },
    {
      "constant": false,
      "inputs": [
        {
          "name": "_addr",
          "type": "address"
        },
        {
          "name": "_id",
          "type": "uint256"
        }
      ],
      "name": "updateCoreManager",
      "outputs": [
        {
          "name": "",
          "type": "address"
        }
      ],
      "payable": false,
      "stateMutability": "nonpayable",
      "type": "function"
    },
    {
      "constant": true,
      "inputs": [],
      "name": "getManagers",
      "outputs": [
        {
          "name": "",
          "type": "address[8]"
        }
      ],
      "payable": false,
      "stateMutability": "view",
      "type": "function"
    },
    {
      "constant": false,
      "inputs": [
        {
          "name": "_addr",
          "type": "address"
        }
      ],
      "name": "updateQOTAddr",
      "outputs": [],
      "payable": false,
      "stateMutability": "nonpayable",
      "type": "function"
    },
    {
      "constant": false,
      "inputs": [
        {
          "name": "_qotAmount",
          "type": "uint256"
        }
      ],
      "name": "updateCurationMinQOTholding",
      "outputs": [],
      "payable": false,
      "stateMutability": "nonpayable",
      "type": "function"
    }
  ],
  "bytecode": "0x6080604052662386f26fc10000600e5562278d00600f5560326013556312cc03006016553480156200003057600080fd5b5060405160208062002726833981018060405260208110156200005257600080fd5b505160008054600160a060020a031916331790556040805160608101825273b440ea2780614b3c6a00e512f432785e7dfafa3e8152734ad56641c569c91c64c28a904cda50ae5326da41602082015273af7400787c54422be8b44154b1273661f1259ccd91810191909152620000cd9060019060036200037a565b506040805161010081018252600080825260208201819052918101829052606081018290526080810182905260a0810182905260c0810182905260e08101919091526200011f906004906008620003d7565b506040805161020081018252600080825260208201819052918101829052606081018290526080810182905260a0810182905260c0810182905260e08101829052610100810182905261012081018290526101408101829052610160810182905261018081018290526101a081018290526101c081018290526101e0810191909152620001b190601790601062000421565b50600c8054600160a060020a031916600160a060020a03831617905560005b60038160ff16101562000263576200020e600160ff831660038110620001f257fe5b0154600160a060020a031660ff64010000000062000281810204565b600160ff8216600381106200021f57fe5b0154600160a060020a0316601760ff8316601081106200023b57fe5b018054600160a060020a031916600160a060020a0392909216919091179055600101620001d0565b50600d546003146200027157fe5b5060036012554260105562000533565b600d8054600190810191829055600160a060020a038481166000818152601560209081526040808320879055805160c08101825293845260ff8881168584019081524286840190815260608701868152608088018781528551808801875288815260a08a019081529b88526014875294909620875181549351600160a060020a031990941699169890981760a060020a60ff021916740100000000000000000000000000000000000000009290931691909102919091178655519585019590955590516002840155925160038301559251805191926200036a926004850192909101906200046b565b5050601280546001019055505050565b8260038101928215620003c5579160200282015b82811115620003c55782518254600160a060020a031916600160a060020a039091161782556020909201916001909101906200038e565b50620003d3929150620004ec565b5090565b8260088101928215620003c55791602002820182811115620003c55782518254600160a060020a031916600160a060020a039091161782556020909201916001909101906200038e565b8260108101928215620003c55791602002820182811115620003c55782518254600160a060020a031916600160a060020a039091161782556020909201916001909101906200038e565b828054600181600116156101000203166002900490600052602060002090601f016020900481019282601f10620004ae57805160ff1916838001178555620004de565b82800160010185558215620004de579182015b82811115620004de578251825591602001919060010190620004c1565b50620003d392915062000516565b6200051391905b80821115620003d3578054600160a060020a0319168155600101620004f3565b90565b6200051391905b80821115620003d357600081556001016200051d565b6121e380620005436000396000f3fe6080604052600436106102b0576000357c010000000000000000000000000000000000000000000000000000000090048063880cdc3111610177578063c6906749116100de578063db8cd25411610097578063db8cd25414610a59578063ddca3f4314610a8c578063e882656514610aa1578063f3334ed814610ab6578063f6c4b4a014610ae0578063fdd9052b14610b13576102b0565b8063c6906749146108d9578063c9a6933614610909578063cc523d3714610939578063d65060a514610963578063d8de10661461099c578063d9ed28b7146109d5576102b0565b8063aa33e4a811610130578063aa33e4a81461079e578063aba35b72146107b3578063b27ee391146107c8578063c41a32ec146107dd578063c449b26214610810578063c48105a3146108af576102b0565b8063880cdc31146106a45780638da5cb5b146106d75780639dd9d6d5146106ec5780639e7151ff14610716578063a33c4df114610740578063a8d088bb14610773576102b0565b80633f4ba83a1161021b578063698441f2116101d4578063698441f2146105965780636d27f417146105e45780636f82a8601461060e5780637a7d32e5146106235780638456cb5914610656578063858288ce1461066b576102b0565b80633f4ba83a146104cc57806352cbc932146104e15780635c581119146104f65780635c975abb146104fe5780635f1231ea146105135780635fb6c6ed14610581576102b0565b806322faa41f1161026d57806322faa41f146103ca57806330bbe91b146103df57806332de35091461041b5780633c94125a1461044e5780633d39c260146104785780633d9d5a7a146104a2576102b0565b80630858f306146102b55780630933b9391461030a578063099405fd14610324578063115a6a481461035057806319c944bb146103a057806321a8770d146103b5575b600080fd5b3480156102c157600080fd5b506102ee600480360360408110156102d857600080fd5b50600160a060020a038135169060200135610b5c565b60408051600160a060020a039092168252519081900360200190f35b610312610be7565b60408051918252519081900360200190f35b34801561033057600080fd5b5061034e6004803603602081101561034757600080fd5b5035610cc3565b005b34801561035c57600080fd5b5061038c6004803603604081101561037357600080fd5b508035600160a060020a0316906020013560ff16610d2f565b604080519115158252519081900360200190f35b3480156103ac57600080fd5b50610312610dbe565b3480156103c157600080fd5b506102ee610dc4565b3480156103d657600080fd5b50610312610dd3565b3480156103eb57600080fd5b5061038c6004803603604081101561040257600080fd5b50803560ff169060200135600160a060020a0316610dd9565b34801561042757600080fd5b506103126004803603602081101561043e57600080fd5b5035600160a060020a0316610ebe565b34801561045a57600080fd5b506102ee6004803603602081101561047157600080fd5b5035610f3f565b34801561048457600080fd5b506102ee6004803603602081101561049b57600080fd5b5035610f5c565b3480156104ae57600080fd5b50610312600480360360208110156104c557600080fd5b5035610f69565b3480156104d857600080fd5b5061034e610fcf565b3480156104ed57600080fd5b50610312611003565b61038c611009565b34801561050a57600080fd5b5061038c611056565b34801561051f57600080fd5b506105466004803603602081101561053657600080fd5b5035600160a060020a031661105f565b604080519788526020880196909652868601949094526060860192909252608085015260ff1660a084015260c0830152519081900360e00190f35b34801561058d57600080fd5b506103126110fc565b3480156105a257600080fd5b506105ab611102565b604051808261020080838360005b838110156105d15781810151838201526020016105b9565b5050505090500191505060405180910390f35b3480156105f057600080fd5b506102ee6004803603602081101561060757600080fd5b503561125e565b34801561061a57600080fd5b5061031261131a565b34801561062f57600080fd5b5061038c6004803603602081101561064657600080fd5b5035600160a060020a0316611320565b34801561066257600080fd5b5061034e61135f565b34801561067757600080fd5b5061038c6004803603604081101561068e57600080fd5b50600160a060020a0381351690602001356113d5565b3480156106b057600080fd5b5061034e600480360360208110156106c757600080fd5b5035600160a060020a031661149d565b3480156106e357600080fd5b506102ee6114ff565b3480156106f857600080fd5b5061038c6004803603602081101561070f57600080fd5b503561150e565b34801561072257600080fd5b5061038c6004803603602081101561073957600080fd5b5035611558565b34801561074c57600080fd5b506103126004803603602081101561076357600080fd5b5035600160a060020a0316611578565b34801561077f57600080fd5b50610788611593565b60405181518152808261010080838360206105b9565b3480156107aa57600080fd5b5061031261162a565b3480156107bf57600080fd5b5061031261165d565b3480156107d457600080fd5b50610312611663565b3480156107e957600080fd5b5061038c6004803603602081101561080057600080fd5b5035600160a060020a0316611669565b34801561081c57600080fd5b5061083a6004803603602081101561083357600080fd5b50356116a2565b6040805160208082528351818301528351919283929083019185019080838360005b8381101561087457818101518382015260200161085c565b50505050905090810190601f1680156108a15780820380516001836020036101000a031916815260200191505b509250505060405180910390f35b3480156108bb57600080fd5b50610312600480360360208110156108d257600080fd5b5035611763565b3480156108e557600080fd5b50610312600480360360408110156108fc57600080fd5b50803590602001356117d7565b34801561091557600080fd5b5061038c6004803603604081101561092c57600080fd5b50803590602001356119bf565b34801561094557600080fd5b506102ee6004803603602081101561095c57600080fd5b5035611b30565b34801561096f57600080fd5b506102ee6004803603604081101561098657600080fd5b50600160a060020a038135169060200135611b3d565b3480156109a857600080fd5b5061034e600480360360408110156109bf57600080fd5b50600160a060020a038135169060200135611bfa565b3480156109e157600080fd5b5061034e600480360360408110156109f857600080fd5b81359190810190604081016020820135640100000000811115610a1a57600080fd5b820183602082011115610a2c57600080fd5b80359060200191846001830284011164010000000083111715610a4e57600080fd5b509092509050611c97565b348015610a6557600080fd5b5061034e60048036036020811015610a7c57600080fd5b5035600160a060020a0316611deb565b348015610a9857600080fd5b50610312611e64565b348015610aad57600080fd5b50610312611e6a565b348015610ac257600080fd5b5061038c60048036036020811015610ad957600080fd5b5035611e70565b348015610aec57600080fd5b5061038c60048036036020811015610b0357600080fd5b5035600160a060020a0316611ea4565b348015610b1f57600080fd5b50610b4660048036036020811015610b3657600080fd5b5035600160a060020a0316611eda565b6040805160ff9092168252519081900360200190f35b60008054600160a060020a03163314610b7457600080fd5b600160a060020a03831615801590610b8c5750600382105b1515610b9757600080fd5b600060018360038110610ba657fe5b0154600160a060020a031690508360018460038110610bc157fe5b018054600160a060020a031916600160a060020a03929092169190911790559392505050565b600e54600090341015610bf957600080fd5b331515610c0557600080fd5b336000908152601560205260409020541515610c2057600080fd5b336000908152601560209081526040808320548352601490915281206001015411610c4a57600080fd5b60115460ff1615610c5a57600080fd5b3360009081526015602052604081205490610c7482611558565b15610c7e57506016545b62093a80610c8b83610f69565b034211610c9757600080fd5b600082815260146020526040902042600190910155610cb582611efb565b50600f544201019150505b90565b331515610ccf57600080fd5b600160000154600160a060020a0316331480610cf757506001800154600160a060020a031633145b80610d0f5750600160020154600160a060020a031633145b1515610d1a57600080fd5b60135460011115610d2a57600080fd5b601355565b6000331515610d3d57600080fd5b600160000154600160a060020a0316331480610d6557506001800154600160a060020a031633145b80610d7d5750600160020154600160a060020a031633145b1515610d8857600080fd5b600160a060020a03831660009081526015602052604090205415610dab57600080fd5b610db58383611f7d565b50600192915050565b60165481565b600c54600160a060020a031681565b60125490565b6000331515610de757600080fd5b600160000154600160a060020a0316331480610e0f57506001800154600160a060020a031633145b80610e275750600160020154600160a060020a031633145b1515610e3257600080fd5b610e3b82611320565b1515610e4657600080fd5b60ff831615801590610e5c57508260ff16608014155b1515610e6757600080fd5b50600160a060020a038116600090815260156020908152604080832054835260149091529020805460ff841660a060020a0274ff000000000000000000000000000000000000000019909116179055600192915050565b600160a060020a03811660009081526015602052604081205481610ee182611558565b15610eeb57506016545b600f54600083815260146020526040902060018101546002909101549101820190811115610f3257600092835260146020526040909220600201549091039150610f3a9050565b600093505050505b919050565b60178160108110610f4c57fe5b0154600160a060020a0316905081565b60048160088110610f4c57fe5b600080610f7583611558565b15610f7f57506016545b600f54600084815260146020526040902060018101546002909101549101820190811115610fc45760008481526014602052604090206002015490039150610f3a9050565b600092505050610f3a565b600054600160a060020a03163314610fe657600080fd5b60115460ff161515610ff757600080fd5b6011805460ff19169055565b60105490565b600e5460009034101561101b57600080fd5b60115460ff161561102b57600080fd5b336000908152601560205260409020541561104557600080fd5b611050336001611f7d565b50600190565b60115460ff1681565b600160a060020a038116600090815260156020526040812054819081908190819081908190818061108f83610f69565b90508215156110a157600391506110bd565b6110aa8361150e565b156110b857600191506110bd565b600291505b60008381526014602052604090206001810154600282015460038301549254949e959d50909b509950975060a060020a90910460ff1695509350915050565b60125481565b61110a612071565b33151561111657600080fd5b600160000154600160a060020a031633148061113e57506001800154600160a060020a031633145b806111565750600160020154600160a060020a031633145b8061116e5750600460000154600160a060020a031633145b806111865750600460010154600160a060020a031633145b8061119e5750600460020154600160a060020a031633145b806111b65750600460030154600160a060020a031633145b806111cd57506004800154600160a060020a031633145b806111e55750600460050154600160a060020a031633145b806111fd5750600460060154600160a060020a031633145b806112155750600460070154600160a060020a031633145b151561122057600080fd5b604080516102008101918290529060179060109082845b8154600160a060020a03168152600190910190602001808311611237575050505050905090565b600033151561126c57600080fd5b600160000154600160a060020a031633148061129457506001800154600160a060020a031633145b806112ac5750600160020154600160a060020a031633145b15156112b757600080fd5b6000601783601081106112c657fe5b0154600160a060020a031614156112dc57600080fd5b6000601783601081106112eb57fe5b0154600160a060020a031690506017836010811061130557fe5b018054600160a060020a031916905592915050565b60105481565b6000600160a060020a038216151561133757600080fd5b600160a060020a03821660009081526015602052604090205461135990611e70565b92915050565b33151561136b57600080fd5b600160000154600160a060020a031633148061139357506001800154600160a060020a031633145b806113ab5750600160020154600160a060020a031633145b15156113b657600080fd5b60115460ff16156113c657600080fd5b6011805460ff19166001179055565b60003315156113e357600080fd5b600160000154600160a060020a031633148061140b57506001800154600160a060020a031633145b806114235750600160020154600160a060020a031633145b151561142e57600080fd5b600160a060020a038316151561144357600080fd5b60006017836010811061145257fe5b0154600160a060020a03161461146757600080fd5b826017836010811061147557fe5b018054600160a060020a031916600160a060020a039290921691909117905550600192915050565b600054600160a060020a031633146114b457600080fd5b600160a060020a03811615156114c957600080fd5b6114d281611669565b15156114dd57600080fd5b60008054600160a060020a031916600160a060020a0392909216919091179055565b600054600160a060020a031681565b60008115158061152d5750600082815260146020526040812060010154115b151561153857600080fd5b4261154283610f69565b111561155057506001610f3a565b506000610f3a565b600090815260146020526040902054608060a060020a90910460ff161190565b600160a060020a031660009081526015602052604090205490565b61159b612091565b3315156115a757600080fd5b600160000154600160a060020a03163314806115cf57506001800154600160a060020a031633145b806115e75750600160020154600160a060020a031633145b15156115f257600080fd5b6040805161010081019182905260048054600160a060020a031682529091600890600560208501808311611237575050505050905090565b600080805b600d548111611657574261164282610f69565b111561164f576001820191505b60010161162f565b50905090565b600f5481565b60135481565b6000600160a060020a038216151561168057600080fd5b600160a060020a0382166000908152601560205260409020546113599061150e565b600081815260146020526040812060010154606091106116c157600080fd5b60008281526014602090815260409182902060040180548351601f6002600019610100600186161502019093169290920491820184900484028101840190945280845290918301828280156117575780601f1061172c57610100808354040283529160200191611757565b820191906000526020600020905b81548152906001019060200180831161173a57829003601f168201915b50505050509050919050565b600033151561177157600080fd5b600160000154600160a060020a031633148061179957506001800154600160a060020a031633145b806117b15750600160020154600160a060020a031633145b15156117bc57600080fd5b60018210156117ca57600080fd5b5060125542601081905590565b60003315156117e557600080fd5b601760000154600160a060020a031633148061180e5750601760010154600160a060020a031633145b806118265750601760020154600160a060020a031633145b8061183e5750601760030154600160a060020a031633145b806118565750601760040154600160a060020a031633145b8061186e5750601760050154600160a060020a031633145b806118865750601760060154600160a060020a031633145b8061189e5750601760070154600160a060020a031633145b806118b65750601760080154600160a060020a031633145b806118ce5750601760090154600160a060020a031633145b806118e657506017600a0154600160a060020a031633145b806118fe57506017600b0154600160a060020a031633145b8061191657506017600c0154600160a060020a031633145b8061192e57506017600d0154600160a060020a031633145b8061194657506017600e0154600160a060020a031633145b8061195e57506017600f0154600160a060020a031633145b151561196957600080fd5b6000838152601460205260408120600101541161198557600080fd5b600f546000848152601460205260409020600101540182106119a657600080fd5b5060009182526014602052604090912060020181905590565b60003315156119cd57600080fd5b600160000154600160a060020a03163314806119f557506001800154600160a060020a031633145b80611a0d5750600160020154600160a060020a031633145b80611a255750600460000154600160a060020a031633145b80611a3d5750600460010154600160a060020a031633145b80611a555750600460020154600160a060020a031633145b80611a6d5750600460030154600160a060020a031633145b80611a8457506004800154600160a060020a031633145b80611a9c5750600460050154600160a060020a031633145b80611ab45750600460060154600160a060020a031633145b80611acc5750600460070154600160a060020a031633145b1515611ad757600080fd5b600083815260146020526040812060010154118015611b0c5750600083815260146020526040902054600160a060020a031615155b1515611b1757600080fd5b5060009182526014602052604090912060030155600190565b60018160038110610f4c57fe5b6000331515611b4b57600080fd5b600160000154600160a060020a0316331480611b7357506001800154600160a060020a031633145b80611b8b5750600160020154600160a060020a031633145b1515611b9657600080fd5b600160a060020a0383161515611bab57600080fd5b600060178360108110611bba57fe5b0154600160a060020a03161415611bd057600080fd5b600060178360108110611bdf57fe5b0154600160a060020a031690508360178460108110610bc157fe5b331515611c0657600080fd5b600160000154600160a060020a0316331480611c2e57506001800154600160a060020a031633145b80611c465750600160020154600160a060020a031633145b1515611c5157600080fd5b600160a060020a0382161515611c6657600080fd5b8160048260088110611c7457fe5b018054600160a060020a031916600160a060020a03929092169190911790555050565b331515611ca357600080fd5b600160000154600160a060020a0316331480611ccb57506001800154600160a060020a031633145b80611ce35750600160020154600160a060020a031633145b80611cfb5750600460000154600160a060020a031633145b80611d135750600460010154600160a060020a031633145b80611d2b5750600460020154600160a060020a031633145b80611d435750600460030154600160a060020a031633145b80611d5a57506004800154600160a060020a031633145b80611d725750600460050154600160a060020a031633145b80611d8a5750600460060154600160a060020a031633145b80611da25750600460070154600160a060020a031633145b1515611dad57600080fd5b60008381526014602052604081206001015411611dc957600080fd5b6000838152601460205260409020611de59060040183836120b1565b50505050565b331515611df757600080fd5b600160000154600160a060020a0316331480611e1f57506001800154600160a060020a031633145b80611e375750600160020154600160a060020a031633145b1515611e4257600080fd5b600c8054600160a060020a031916600160a060020a0392909216919091179055565b600e5481565b600d5481565b60008115801590611e975750600082815260146020526040902054600160a060020a031615155b1561155057506001610f3a565b600160a060020a031660009081526015602090815260408083205483526014909152902054608060a060020a90910460ff161190565b6000611ee582611320565b1515600114611ef357600080fd5b506001919050565b600081815260146020526040812054608060a060020a90910460ff161115611f605760008281526014602052604090208054607f1960ff60a060020a808404821692909201160274ff0000000000000000000000000000000000000000199091161790555b5060009081526014602052604090205460a060020a900460ff1690565b600d8054600190810191829055600160a060020a038481166000818152601560209081526040808320879055805160c08101825293845260ff8881168584019081524286840190815260608701868152608088018781528551808801875288815260a08a019081529b88526014875294909620875181549351600160a060020a031990941699169890981774ff0000000000000000000000000000000000000000191660a060020a9290931691909102919091178655519585019590955590516002840155925160038301559251805191926120619260048501929091019061212f565b5050601280546001019055505050565b610200604051908101604052806010906020820280388339509192915050565b610100604051908101604052806008906020820280388339509192915050565b828054600181600116156101000203166002900490600052602060002090601f016020900481019282601f106120f25782800160ff1982351617855561211f565b8280016001018555821561211f579182015b8281111561211f578235825591602001919060010190612104565b5061212b92915061219d565b5090565b828054600181600116156101000203166002900490600052602060002090601f016020900481019282601f1061217057805160ff191683800117855561211f565b8280016001018555821561211f579182015b8281111561211f578251825591602001919060010190612182565b610cc091905b8082111561212b57600081556001016121a356fea165627a7a723058208063fbdc0296e18a48dbe0d7637ba618edba6ee660f5595f19c40a083cf1d6910029",
  "source": "pragma solidity ^0.5.2;\n\nimport \"./Interfaces/QOTInterface.sol\";\n\n// TODO: check integer overflow\n\ncontract MemberShip {\n    address public owner;\n    address[3] public coreManagers;\n    address[8] public managers;\n    address public QOTAddr;\n    uint public totalId;  // id 0 is not used and will start from 1\n    uint public fee = 0.01 ether;\n    // uint public memberPeriod = 160000;  // 40000 blocks ~ a week in rinkeby, for test only\n    uint public memberPeriod = 30 days;\n    uint public lastMemberCountUpdateTime;  // use this to prevent too frequent update; see updateActiveMemberCount()\n    bool public paused;\n    uint public activeMemberCount;  // need to call function to update this value\n    uint public curationMinQOTholding = 50;\n\n    struct MemberInfo {\n        address addr;\n        uint8 tier;  // 8 bit of choices. Default tier is 1; tier>128 are vip (i.e., highest bit is 1). 0 and 128 are not used\n                     // update 2019 Sep 18: tier 129 and above are now \"publisher\". Keep existing code, so \"vip\" = \"publisher\"\n        uint since;  // beginning block.timestamp of previous membership\n        uint penalty;  // the membership is valid until: since + memberPeriod - penalty;\n        bytes32 kycid;  // know your customer id, leave it for future\n        string notes;\n    }\n\n    mapping (uint => MemberInfo) internal memberDB;  // id to MemberInfo\n    mapping (address => uint) internal addressToId;  // address to membership\n    uint public vipMemberBonus = 3650 days;\n\n    address[16] public appWhitelist;\n\n    constructor(address _QOTAddr) public {\n        owner = msg.sender;\n        coreManagers = [0xB440ea2780614b3c6a00e512f432785E7dfAFA3E,\n                        0x4AD56641C569C91C64C28a904cda50AE5326Da41,\n                        0xaF7400787c54422Be8B44154B1273661f1259CcD];\n        managers = [address(0), address(0), address(0), address(0), address(0), address(0), address(0), address(0)];\n        appWhitelist = [\n            address(0), address(0), address(0), address(0), address(0), address(0), address(0), address(0),\n            address(0), address(0), address(0), address(0), address(0), address(0), address(0), address(0)\n        ];\n        QOTAddr = _QOTAddr;\n\n        for (uint8 i=0; i<3; i++){\n            _assignMembership(coreManagers[i], 255);\n            appWhitelist[i] = coreManagers[i];\n        }\n        assert(totalId == 3);\n        activeMemberCount = 3;  // manually set an initial value\n        lastMemberCountUpdateTime = block.timestamp;\n    }\n\n    modifier ownerOnly() {\n        require(msg.sender == owner);\n        _;\n    }\n\n    modifier coreManagerOnly() {\n        require(msg.sender != address(0));\n        require(msg.sender == coreManagers[0] || msg.sender == coreManagers[1] || msg.sender == coreManagers[2]);\n        _;\n    }\n\n    modifier managerOnly() {\n        require(msg.sender != address(0));\n        require(msg.sender == coreManagers[0] || msg.sender == coreManagers[1] || msg.sender == coreManagers[2] ||\n                msg.sender == managers[0] || msg.sender == managers[1] || msg.sender == managers[2] ||\n                msg.sender == managers[3] || msg.sender == managers[4] || msg.sender == managers[5] ||\n                msg.sender == managers[6] || msg.sender == managers[7]);\n        _;\n    }\n\n    modifier feePaid() {\n        require(msg.value >= fee);  // or \"==\"?\n        _;\n    }\n\n    modifier isMember() {\n        require(msg.sender != address(0));\n        require(addressToId[msg.sender] != 0);\n        require(memberDB[addressToId[msg.sender]].since > 0);\n        _;\n    }\n\n    modifier isActiveMember() {\n        require(msg.sender != address(0));\n        uint _id = addressToId[msg.sender];\n        require(_id != 0);\n        require(idExpireTime(_id) > block.timestamp);\n        _;\n    }\n\n    modifier isAppWhitelist() {\n        require(msg.sender != address(0));\n        require(msg.sender == appWhitelist[0] || msg.sender == appWhitelist[1] || msg.sender == appWhitelist[2] ||\n                msg.sender == appWhitelist[3] || msg.sender == appWhitelist[4] || msg.sender == appWhitelist[5] ||\n                msg.sender == appWhitelist[6] || msg.sender == appWhitelist[7] || msg.sender == appWhitelist[8] ||\n                msg.sender == appWhitelist[9] || msg.sender == appWhitelist[10] || msg.sender == appWhitelist[11] ||\n                msg.sender == appWhitelist[12] || msg.sender == appWhitelist[13] || msg.sender == appWhitelist[14] ||\n                msg.sender == appWhitelist[15]\n               );\n        _;\n    }\n\n    modifier whenNotPaused() {\n        require(!paused);\n        _;\n    }\n\n    modifier whenPaused() {\n        require(paused);\n        _;\n    }\n\n    // membership\n    // TODO: turn buyMembership() off. Leave a toggle to turn it on. Managers help users to do it.\n    // TODO: design in a way that user no need to interact with smart contract (but still can)\n    // TODO: payment and tier. How to design tier and payment and member period and other functions.\n    // TODO: check how to migrate these data from Rinkeby to main chain. Basically read the state,\n    //       semi-automatically generate a deploy file, then write to main chain. Acutually I can\n    //       try it from rinkeby to rinkeby!\n    // TODO: \n\n    function giveMembership(address buyer, uint8 tier) public coreManagerOnly returns(bool) {\n        // no need to pay!\n        require(addressToId[buyer] == 0);  // the user is not yet a member\n        // require tier=?\n        _assignMembership(buyer, tier);\n        return true;\n    }\n\n    function buyMembership() public payable feePaid whenNotPaused returns (bool) {\n        require(addressToId[msg.sender] == 0);  // the user is not yet a member\n        // TODO: uint8 _tier = determineTier(msg.sender); _assignMembership(msg.sender, _tier);\n        _assignMembership(msg.sender, 1);\n        return true;\n    }\n\n    function _assignMembership(address _addr, uint8 _tier) internal {\n        totalId += 1;  // make it start from 1\n        addressToId[_addr] = totalId;\n        memberDB[totalId] = MemberInfo(_addr, _tier, block.timestamp, 0, bytes32(0), \"\");\n        activeMemberCount += 1;\n    }\n\n    function renewMembership() public payable feePaid isMember whenNotPaused returns (uint) {\n        uint _id = addressToId[msg.sender];\n        uint _bonus;\n        if (isVipTier(_id)) {\n            _bonus = vipMemberBonus;\n        }\n        require(block.timestamp > idExpireTime(_id) - 7 days);\n\n        // renew membership (and remove vip tier if possible)\n        memberDB[_id].since = block.timestamp;\n        _removeVipTier(_id);\n        return (block.timestamp + memberPeriod + _bonus);  // return expire time\n    }\n\n    function updateTier(uint8 _tier, address _addr) public coreManagerOnly returns(bool){\n        // should eventually use `determineTier(_addr)` and remove the `_tier` argument\n        require(addrIsMember(_addr));  // or addrIsActiveMember()?\n        require(_tier != 0 && _tier != 128);  // 0 and 128 are not used\n        // TODO: determine tier base on the amount of QOT the member owns;\n        // Q: Users call this function?\n        // Q: should the sufficient amount of QOT \"locked\" in a pool for enough time?\n        // Q: Is downgrade tier happen here? Or only while renewMembership()?\n        uint _id = addressToId[_addr];\n        memberDB[_id].tier = _tier;\n        return true;\n    }\n\n    function determineTier(address _addr) public view returns(uint8) {\n        require(addrIsMember(_addr) == true);\n        uint8 tier=1;  // the basic tier\n        // uint _bal = QOTInterface(QOTAddr).balanceOf(_addr);\n        // TODO: depend of _bal and give a tier?\n        return tier;\n    }\n\n    function isVipTier(uint _id) public view returns(bool){\n        return(memberDB[_id].tier > 128);  // tier 128 should not exist\n    }\n\n    function addrIsVipTier(address _addr) public view returns(bool){\n        return(memberDB[addressToId[_addr]].tier > 128);  // tier 128 should not exist\n    }\n\n    function _removeVipTier(uint _id) internal returns(uint8) {\n        // don't do any check, assume the _id is already member\n        if (memberDB[_id].tier > 128) {\n            memberDB[_id].tier = memberDB[_id].tier - 128;\n        }\n        return memberDB[_id].tier;\n    }\n\n    function assginKYCid(uint _id, bytes32 _kycid) external managerOnly returns (bool) {\n        // instead of \"managerOnly\", probably add another group to do that\n        require(memberDB[_id].since > 0 && memberDB[_id].addr != address(0));\n        memberDB[_id].kycid = _kycid;\n        return true;\n    }\n\n    function addAppWhitelist(address _addr, uint _idx) public coreManagerOnly returns (bool) {\n        require(_addr != address(0));\n        require(appWhitelist[_idx] == address(0));\n        appWhitelist[_idx] = _addr;\n        return true;\n    }\n\n    function replaceAppWhitelist(address _addr, uint _idx) public coreManagerOnly returns (address) {\n        require(_addr != address(0));\n        require(appWhitelist[_idx] != address(0));\n        address _addrorig = appWhitelist[_idx];\n        appWhitelist[_idx] = _addr;\n        return _addrorig;\n    }\n\n    function rmAppWhitelist(uint _idx) public coreManagerOnly returns (address) {\n        require(appWhitelist[_idx] != address(0));\n        address _addr = appWhitelist[_idx];\n        delete appWhitelist[_idx];\n        return _addr;\n    }\n\n    function getAppWhitelist() external view managerOnly returns (address[16] memory) {\n        return appWhitelist;\n    }\n\n    function addPenalty(uint _id, uint _penalty) external isAppWhitelist returns (uint) {\n        require(memberDB[_id].since > 0);  // is a member\n        require(_penalty < memberDB[_id].since + memberPeriod);  // prevent overflow while calculate idExpireTime(_id)\n        // require(_penalty < memberPeriod);  // or, can we ban someone for many memberPeriods?\n        // require(_penalty < 3*memberPeriod);\n        // or, only core manager can set a really large _panalty (like 6 months or more) for extreme case\n        memberDB[_id].penalty = _penalty;\n\n        return memberDB[_id].penalty;\n    }\n\n    function readNotes(uint _id) external view returns (string memory) {\n        require(memberDB[_id].since > 0);\n        return memberDB[_id].notes;\n    }\n\n    function addNotes(uint _id, string calldata _notes) external managerOnly {\n        require(memberDB[_id].since > 0);\n        memberDB[_id].notes = _notes;\n    }\n\n    // some query functions\n    function addrIsMember(address _addr) public view returns (bool) {\n        require(_addr != address(0));\n        return idIsMember(addressToId[_addr]);\n    }\n\n    function addrIsActiveMember(address _addr) public view returns (bool) {\n        require(_addr != address(0));\n        return idIsActiveMember(addressToId[_addr]);\n    }\n\n    function idIsMember(uint _id) public view returns (bool) {\n        if (_id != 0 && memberDB[_id].addr != address(0)) {\n            return true;\n        } else {\n            return false;\n        }\n    }\n\n    function idIsActiveMember(uint _id) public view returns (bool) {\n        require (_id != 0 || memberDB[_id].since > 0);\n        if (idExpireTime(_id) > block.timestamp) {\n            return true;  // not yet expire\n        } else {\n            return false;\n        }\n    }\n\n    function idExpireTime(uint _id) public view returns (uint) {\n        uint _bonus;\n        if (isVipTier(_id)) {\n            _bonus = vipMemberBonus;\n        }\n        uint _expectTime = memberDB[_id].since + memberPeriod + _bonus;\n        if (_expectTime > memberDB[_id].penalty) {\n            return _expectTime - memberDB[_id].penalty;\n        } else {\n            return 0;\n        }\n    }\n\n    function addrExpireTime(address _addr) external view returns (uint) {\n        uint _id = addressToId[_addr];\n        uint _bonus;\n        if (isVipTier(_id)) {\n            _bonus = vipMemberBonus;\n        }\n        uint _expectTime = memberDB[_id].since + memberPeriod + _bonus;\n        if (_expectTime > memberDB[_id].penalty) {\n            return _expectTime - memberDB[_id].penalty;\n        } else {\n            return 0;\n        }\n    }\n\n    function addrToId(address _addr) external view returns (uint) {\n        return addressToId[_addr];\n    }\n\n    function getMemberInfo(address _addr) external view returns (uint, bytes32, uint, uint, bytes32, uint8, uint){\n        uint _id = addressToId[_addr];\n        uint status;  // 0=connection error, 1=active, 2=inactive, 3=not member\n        uint _expireTime = idExpireTime(_id);\n        if (_id == 0) {\n            status = 3;\n        } else {\n            if (idIsActiveMember(_id)){\n                status = 1;\n            } else {\n                status = 2;\n            }\n        }\n        return (status, bytes32(_id), memberDB[_id].since, memberDB[_id].penalty, memberDB[_id].kycid, memberDB[_id].tier, _expireTime);\n    }\n\n    function getActiveMemberCount() external view returns (uint){\n        return activeMemberCount;\n    }\n\n    function getLastMemberCountUpdateTime() external view returns (uint){\n        return lastMemberCountUpdateTime;\n    }\n\n\n    function updateActiveMemberCount(uint _count) public coreManagerOnly returns (uint){\n        // coreManagers should provide values base on countActiveMembers()\n        require(_count >= 1);\n        activeMemberCount = _count;\n        lastMemberCountUpdateTime = block.timestamp;\n        return lastMemberCountUpdateTime;\n    }\n\n    function countActiveMembers() public view returns (uint) {\n        uint _count = 0;\n        for (uint i = 0; i <= totalId; i++) {\n            if (idExpireTime(i) > block.timestamp) {\n                _count += 1;\n            }\n        }\n        return _count;\n    }\n\n    // upgradable\n    function pause() external coreManagerOnly whenNotPaused {\n        paused = true;\n    }\n\n    function unpause() public ownerOnly whenPaused {\n        // set to ownerOnly in case accounts of other managers are compromised\n        paused = false;\n    }\n\n    function updateOwner(address _addr) public ownerOnly {\n        require(_addr != address(0));\n        require(addrIsActiveMember(_addr));\n        owner = _addr;\n    }\n\n    function updateManager(address _addr, uint _id) public coreManagerOnly {\n        // \"managers\" can assign KYC id\n        require(_addr != address(0));\n        managers[_id] = _addr;\n    }\n\n    function updateCoreManager(address _addr, uint _id) public ownerOnly returns(address){\n        require(_addr != address(0) && _id < 3);  // only 3 core managers\n        address prevCM = coreManagers[_id];\n        coreManagers[_id] = _addr;\n        return prevCM;\n    }\n\n    function getManagers() external view coreManagerOnly returns(address[8] memory) {\n        return managers;\n    }\n\n    function updateQOTAddr(address _addr) external coreManagerOnly {\n        QOTAddr = _addr;\n    }\n\n    function updateCurationMinQOTholding(uint _qotAmount) external coreManagerOnly {\n        require(curationMinQOTholding >= 1);\n        curationMinQOTholding = _qotAmount;\n    }\n\n}\n",
  "sourcePath": "/home/kai/Work/project/OptractContract/contracts/MemberShip.sol",
  "compiler": {
    "name": "solc",
    "version": "0.5.2+commit.1df8f40c.Linux.g++"
  },
  "schemaVersion": "3.0.16",
  "updatedAt": "2019-10-15T15:22:47.786Z",
  "devdoc": {
    "methods": {}
  },
  "userdoc": {
    "methods": {}
  }
}