{
  "contractName": "MemberShip",
  "abi": [
    {
      "constant": true,
      "inputs": [],
      "name": "vipMemberBonus",
      "outputs": [
        {
          "name": "",
          "type": "uint256"
        }
      ],
      "payable": false,
      "stateMutability": "view",
      "type": "function"
    },
    {
      "constant": true,
      "inputs": [],
      "name": "QOTAddr",
      "outputs": [
        {
          "name": "",
          "type": "address"
        }
      ],
      "payable": false,
      "stateMutability": "view",
      "type": "function"
    },
    {
      "constant": true,
      "inputs": [
        {
          "name": "",
          "type": "uint256"
        }
      ],
      "name": "appWhitelist",
      "outputs": [
        {
          "name": "",
          "type": "address"
        }
      ],
      "payable": false,
      "stateMutability": "view",
      "type": "function"
    },
    {
      "constant": true,
      "inputs": [
        {
          "name": "",
          "type": "uint256"
        }
      ],
      "name": "managers",
      "outputs": [
        {
          "name": "",
          "type": "address"
        }
      ],
      "payable": false,
      "stateMutability": "view",
      "type": "function"
    },
    {
      "constant": true,
      "inputs": [],
      "name": "paused",
      "outputs": [
        {
          "name": "",
          "type": "bool"
        }
      ],
      "payable": false,
      "stateMutability": "view",
      "type": "function"
    },
    {
      "constant": true,
      "inputs": [],
      "name": "activeMemberCount",
      "outputs": [
        {
          "name": "",
          "type": "uint256"
        }
      ],
      "payable": false,
      "stateMutability": "view",
      "type": "function"
    },
    {
      "constant": true,
      "inputs": [],
      "name": "lastMemberCountUpdateTime",
      "outputs": [
        {
          "name": "",
          "type": "uint256"
        }
      ],
      "payable": false,
      "stateMutability": "view",
      "type": "function"
    },
    {
      "constant": true,
      "inputs": [],
      "name": "owner",
      "outputs": [
        {
          "name": "",
          "type": "address"
        }
      ],
      "payable": false,
      "stateMutability": "view",
      "type": "function"
    },
    {
      "constant": true,
      "inputs": [],
      "name": "flagContractAddr",
      "outputs": [
        {
          "name": "",
          "type": "address"
        }
      ],
      "payable": false,
      "stateMutability": "view",
      "type": "function"
    },
    {
      "constant": true,
      "inputs": [],
      "name": "neverExpire",
      "outputs": [
        {
          "name": "",
          "type": "bool"
        }
      ],
      "payable": false,
      "stateMutability": "view",
      "type": "function"
    },
    {
      "constant": true,
      "inputs": [],
      "name": "memberPeriod",
      "outputs": [
        {
          "name": "",
          "type": "uint256"
        }
      ],
      "payable": false,
      "stateMutability": "view",
      "type": "function"
    },
    {
      "constant": true,
      "inputs": [],
      "name": "curationMinQOTholding",
      "outputs": [
        {
          "name": "",
          "type": "uint256"
        }
      ],
      "payable": false,
      "stateMutability": "view",
      "type": "function"
    },
    {
      "constant": true,
      "inputs": [
        {
          "name": "",
          "type": "uint256"
        }
      ],
      "name": "coreManagers",
      "outputs": [
        {
          "name": "",
          "type": "address"
        }
      ],
      "payable": false,
      "stateMutability": "view",
      "type": "function"
    },
    {
      "constant": true,
      "inputs": [],
      "name": "fee",
      "outputs": [
        {
          "name": "",
          "type": "uint256"
        }
      ],
      "payable": false,
      "stateMutability": "view",
      "type": "function"
    },
    {
      "constant": true,
      "inputs": [],
      "name": "totalId",
      "outputs": [
        {
          "name": "",
          "type": "uint256"
        }
      ],
      "payable": false,
      "stateMutability": "view",
      "type": "function"
    },
    {
      "inputs": [
        {
          "name": "_QOTAddr",
          "type": "address"
        }
      ],
      "payable": false,
      "stateMutability": "nonpayable",
      "type": "constructor"
    },
    {
      "constant": false,
      "inputs": [
        {
          "name": "buyer",
          "type": "address"
        },
        {
          "name": "tier",
          "type": "uint8"
        }
      ],
      "name": "giveMembership",
      "outputs": [
        {
          "name": "",
          "type": "bool"
        }
      ],
      "payable": false,
      "stateMutability": "nonpayable",
      "type": "function"
    },
    {
      "constant": false,
      "inputs": [],
      "name": "buyMembership",
      "outputs": [
        {
          "name": "",
          "type": "bool"
        }
      ],
      "payable": true,
      "stateMutability": "payable",
      "type": "function"
    },
    {
      "constant": false,
      "inputs": [],
      "name": "renewMembership",
      "outputs": [
        {
          "name": "",
          "type": "uint256"
        }
      ],
      "payable": true,
      "stateMutability": "payable",
      "type": "function"
    },
    {
      "constant": false,
      "inputs": [
        {
          "name": "_tier",
          "type": "uint8"
        },
        {
          "name": "_addr",
          "type": "address"
        }
      ],
      "name": "updateTier",
      "outputs": [
        {
          "name": "",
          "type": "bool"
        }
      ],
      "payable": false,
      "stateMutability": "nonpayable",
      "type": "function"
    },
    {
      "constant": true,
      "inputs": [
        {
          "name": "_addr",
          "type": "address"
        }
      ],
      "name": "determineTier",
      "outputs": [
        {
          "name": "",
          "type": "uint8"
        }
      ],
      "payable": false,
      "stateMutability": "view",
      "type": "function"
    },
    {
      "constant": true,
      "inputs": [
        {
          "name": "_id",
          "type": "uint256"
        }
      ],
      "name": "isVipTier",
      "outputs": [
        {
          "name": "",
          "type": "bool"
        }
      ],
      "payable": false,
      "stateMutability": "view",
      "type": "function"
    },
    {
      "constant": true,
      "inputs": [
        {
          "name": "_addr",
          "type": "address"
        }
      ],
      "name": "addrIsVipTier",
      "outputs": [
        {
          "name": "",
          "type": "bool"
        }
      ],
      "payable": false,
      "stateMutability": "view",
      "type": "function"
    },
    {
      "constant": false,
      "inputs": [
        {
          "name": "_id",
          "type": "uint256"
        },
        {
          "name": "_kycid",
          "type": "bytes32"
        }
      ],
      "name": "assginKYCid",
      "outputs": [
        {
          "name": "",
          "type": "bool"
        }
      ],
      "payable": false,
      "stateMutability": "nonpayable",
      "type": "function"
    },
    {
      "constant": false,
      "inputs": [
        {
          "name": "_addr",
          "type": "address"
        },
        {
          "name": "_idx",
          "type": "uint256"
        }
      ],
      "name": "addAppWhitelist",
      "outputs": [
        {
          "name": "",
          "type": "bool"
        }
      ],
      "payable": false,
      "stateMutability": "nonpayable",
      "type": "function"
    },
    {
      "constant": false,
      "inputs": [
        {
          "name": "_addr",
          "type": "address"
        },
        {
          "name": "_idx",
          "type": "uint256"
        }
      ],
      "name": "replaceAppWhitelist",
      "outputs": [
        {
          "name": "",
          "type": "address"
        }
      ],
      "payable": false,
      "stateMutability": "nonpayable",
      "type": "function"
    },
    {
      "constant": false,
      "inputs": [
        {
          "name": "_idx",
          "type": "uint256"
        }
      ],
      "name": "rmAppWhitelist",
      "outputs": [
        {
          "name": "",
          "type": "address"
        }
      ],
      "payable": false,
      "stateMutability": "nonpayable",
      "type": "function"
    },
    {
      "constant": true,
      "inputs": [],
      "name": "getAppWhitelist",
      "outputs": [
        {
          "name": "",
          "type": "address[16]"
        }
      ],
      "payable": false,
      "stateMutability": "view",
      "type": "function"
    },
    {
      "constant": false,
      "inputs": [
        {
          "name": "_id",
          "type": "uint256"
        },
        {
          "name": "_penalty",
          "type": "uint256"
        }
      ],
      "name": "addPenalty",
      "outputs": [
        {
          "name": "",
          "type": "uint256"
        }
      ],
      "payable": false,
      "stateMutability": "nonpayable",
      "type": "function"
    },
    {
      "constant": true,
      "inputs": [
        {
          "name": "_id",
          "type": "uint256"
        }
      ],
      "name": "readNotes",
      "outputs": [
        {
          "name": "",
          "type": "string"
        }
      ],
      "payable": false,
      "stateMutability": "view",
      "type": "function"
    },
    {
      "constant": false,
      "inputs": [
        {
          "name": "_id",
          "type": "uint256"
        },
        {
          "name": "_notes",
          "type": "string"
        }
      ],
      "name": "addNotes",
      "outputs": [],
      "payable": false,
      "stateMutability": "nonpayable",
      "type": "function"
    },
    {
      "constant": true,
      "inputs": [
        {
          "name": "_addr",
          "type": "address"
        }
      ],
      "name": "addrIsMember",
      "outputs": [
        {
          "name": "",
          "type": "bool"
        }
      ],
      "payable": false,
      "stateMutability": "view",
      "type": "function"
    },
    {
      "constant": true,
      "inputs": [
        {
          "name": "_addr",
          "type": "address"
        }
      ],
      "name": "addrIsActiveMember",
      "outputs": [
        {
          "name": "",
          "type": "bool"
        }
      ],
      "payable": false,
      "stateMutability": "view",
      "type": "function"
    },
    {
      "constant": true,
      "inputs": [
        {
          "name": "_id",
          "type": "uint256"
        }
      ],
      "name": "idIsMember",
      "outputs": [
        {
          "name": "",
          "type": "bool"
        }
      ],
      "payable": false,
      "stateMutability": "view",
      "type": "function"
    },
    {
      "constant": true,
      "inputs": [
        {
          "name": "_id",
          "type": "uint256"
        }
      ],
      "name": "idIsActiveMember",
      "outputs": [
        {
          "name": "",
          "type": "bool"
        }
      ],
      "payable": false,
      "stateMutability": "view",
      "type": "function"
    },
    {
      "constant": true,
      "inputs": [
        {
          "name": "_id",
          "type": "uint256"
        }
      ],
      "name": "idExpireTime",
      "outputs": [
        {
          "name": "",
          "type": "uint256"
        }
      ],
      "payable": false,
      "stateMutability": "view",
      "type": "function"
    },
    {
      "constant": true,
      "inputs": [
        {
          "name": "_addr",
          "type": "address"
        }
      ],
      "name": "addrExpireTime",
      "outputs": [
        {
          "name": "",
          "type": "uint256"
        }
      ],
      "payable": false,
      "stateMutability": "view",
      "type": "function"
    },
    {
      "constant": true,
      "inputs": [
        {
          "name": "_addr",
          "type": "address"
        }
      ],
      "name": "addrToId",
      "outputs": [
        {
          "name": "",
          "type": "uint256"
        }
      ],
      "payable": false,
      "stateMutability": "view",
      "type": "function"
    },
    {
      "constant": true,
      "inputs": [
        {
          "name": "_addr",
          "type": "address"
        }
      ],
      "name": "getMemberInfo",
      "outputs": [
        {
          "name": "",
          "type": "uint256"
        },
        {
          "name": "",
          "type": "bytes32"
        },
        {
          "name": "",
          "type": "uint256"
        },
        {
          "name": "",
          "type": "uint256"
        },
        {
          "name": "",
          "type": "bytes32"
        },
        {
          "name": "",
          "type": "uint8"
        },
        {
          "name": "",
          "type": "uint256"
        }
      ],
      "payable": false,
      "stateMutability": "view",
      "type": "function"
    },
    {
      "constant": true,
      "inputs": [],
      "name": "getActiveMemberCount",
      "outputs": [
        {
          "name": "",
          "type": "uint256"
        }
      ],
      "payable": false,
      "stateMutability": "view",
      "type": "function"
    },
    {
      "constant": true,
      "inputs": [],
      "name": "getLastMemberCountUpdateTime",
      "outputs": [
        {
          "name": "",
          "type": "uint256"
        }
      ],
      "payable": false,
      "stateMutability": "view",
      "type": "function"
    },
    {
      "constant": false,
      "inputs": [
        {
          "name": "_count",
          "type": "uint256"
        }
      ],
      "name": "updateActiveMemberCount",
      "outputs": [
        {
          "name": "",
          "type": "uint256"
        }
      ],
      "payable": false,
      "stateMutability": "nonpayable",
      "type": "function"
    },
    {
      "constant": true,
      "inputs": [],
      "name": "countActiveMembers",
      "outputs": [
        {
          "name": "",
          "type": "uint256"
        }
      ],
      "payable": false,
      "stateMutability": "view",
      "type": "function"
    },
    {
      "constant": false,
      "inputs": [],
      "name": "pause",
      "outputs": [],
      "payable": false,
      "stateMutability": "nonpayable",
      "type": "function"
    },
    {
      "constant": false,
      "inputs": [],
      "name": "unpause",
      "outputs": [],
      "payable": false,
      "stateMutability": "nonpayable",
      "type": "function"
    },
    {
      "constant": false,
      "inputs": [
        {
          "name": "_neverExpire",
          "type": "bool"
        }
      ],
      "name": "setNeverExpire",
      "outputs": [
        {
          "name": "",
          "type": "bool"
        }
      ],
      "payable": false,
      "stateMutability": "nonpayable",
      "type": "function"
    },
    {
      "constant": false,
      "inputs": [
        {
          "name": "_addr",
          "type": "address"
        }
      ],
      "name": "updateOwner",
      "outputs": [],
      "payable": false,
      "stateMutability": "nonpayable",
      "type": "function"
    },
    {
      "constant": false,
      "inputs": [
        {
          "name": "_addr",
          "type": "address"
        },
        {
          "name": "_id",
          "type": "uint256"
        }
      ],
      "name": "updateManager",
      "outputs": [],
      "payable": false,
      "stateMutability": "nonpayable",
      "type": "function"
    },
    {
      "constant": false,
      "inputs": [
        {
          "name": "_addr",
          "type": "address"
        },
        {
          "name": "_id",
          "type": "uint256"
        }
      ],
      "name": "updateCoreManager",
      "outputs": [
        {
          "name": "",
          "type": "address"
        }
      ],
      "payable": false,
      "stateMutability": "nonpayable",
      "type": "function"
    },
    {
      "constant": true,
      "inputs": [],
      "name": "getManagers",
      "outputs": [
        {
          "name": "",
          "type": "address[8]"
        }
      ],
      "payable": false,
      "stateMutability": "view",
      "type": "function"
    },
    {
      "constant": false,
      "inputs": [
        {
          "name": "_addr",
          "type": "address"
        }
      ],
      "name": "updateQOTAddr",
      "outputs": [],
      "payable": false,
      "stateMutability": "nonpayable",
      "type": "function"
    },
    {
      "constant": false,
      "inputs": [
        {
          "name": "_qotAmount",
          "type": "uint256"
        }
      ],
      "name": "updateCurationMinQOTholding",
      "outputs": [],
      "payable": false,
      "stateMutability": "nonpayable",
      "type": "function"
    },
    {
      "constant": false,
      "inputs": [
        {
          "name": "_addr",
          "type": "address"
        }
      ],
      "name": "setFlagContractAddr",
      "outputs": [
        {
          "name": "",
          "type": "bool"
        }
      ],
      "payable": false,
      "stateMutability": "nonpayable",
      "type": "function"
    }
  ],
  "bytecode": "0x6080604052662386f26fc10000600f5562278d00601055652d79883d20006014556015805460ff191660011790556312cc03006018553480156200004257600080fd5b5060405160208062002b46833981018060405260208110156200006457600080fd5b505160008054600160a060020a031916331790556040805160608101825273b440ea2780614b3c6a00e512f432785e7dfafa3e8152734ad56641c569c91c64c28a904cda50ae5326da41602082015273af7400787c54422be8b44154b1273661f1259ccd91810191909152620000df9060019060036200038c565b506040805161010081018252600080825260208201819052918101829052606081018290526080810182905260a0810182905260c0810182905260e081019190915262000131906004906008620003e9565b506040805161020081018252600080825260208201819052918101829052606081018290526080810182905260a0810182905260c0810182905260e08101829052610100810182905261012081018290526101408101829052610160810182905261018081018290526101a081018290526101c081018290526101e0810191909152620001c390601990601062000433565b50600c8054600160a060020a031916600160a060020a03831617905560005b60038160ff161015620002755762000220600160ff8316600381106200020457fe5b0154600160a060020a031660ff64010000000062000293810204565b600160ff8216600381106200023157fe5b0154600160a060020a0316601960ff8316601081106200024d57fe5b018054600160a060020a031916600160a060020a0392909216919091179055600101620001e2565b50600e546003146200028357fe5b5060036013554260115562000545565b600e8054600190810191829055600160a060020a038481166000818152601760209081526040808320879055805160c08101825293845260ff8881168584019081524286840190815260608701868152608088018781528551808801875288815260a08a019081529b88526016875294909620875181549351600160a060020a031990941699169890981760a060020a60ff021916740100000000000000000000000000000000000000009290931691909102919091178655519585019590955590516002840155925160038301559251805191926200037c926004850192909101906200047d565b5050601380546001019055505050565b8260038101928215620003d7579160200282015b82811115620003d75782518254600160a060020a031916600160a060020a03909116178255602090920191600190910190620003a0565b50620003e5929150620004fe565b5090565b8260088101928215620003d75791602002820182811115620003d75782518254600160a060020a031916600160a060020a03909116178255602090920191600190910190620003a0565b8260108101928215620003d75791602002820182811115620003d75782518254600160a060020a031916600160a060020a03909116178255602090920191600190910190620003a0565b828054600181600116156101000203166002900490600052602060002090601f016020900481019282601f10620004c057805160ff1916838001178555620004f0565b82800160010185558215620004f0579182015b82811115620004f0578251825591602001919060010190620004d3565b50620003e592915062000528565b6200052591905b80821115620003e5578054600160a060020a031916815560010162000505565b90565b6200052591905b80821115620003e557600081556001016200052f565b6125f180620005556000396000f3fe60806040526004361061031c576000357c010000000000000000000000000000000000000000000000000000000090048063880cdc31116101ad578063c48105a3116100f9578063d9ed28b7116100b2578063e88265651161008c578063e882656514610b96578063f3334ed814610bab578063f6c4b4a014610bd5578063fdd9052b14610c085761031c565b8063d9ed28b714610aca578063db8cd25414610b4e578063ddca3f4314610b815761031c565b8063c48105a3146109a4578063c6906749146109ce578063c9a69336146109fe578063cc523d3714610a2e578063d65060a514610a58578063d8de106614610a915761031c565b8063a88b336911610166578063aba35b7211610140578063aba35b72146108a8578063b27ee391146108bd578063c41a32ec146108d2578063c449b262146109055761031c565b8063a88b336914610853578063a8d088bb14610868578063aa33e4a8146108935761031c565b8063880cdc311461076f5780638da5cb5b146107a257806396bb0fde146107b75780639dd9d6d5146107cc5780639e7151ff146107f6578063a33c4df1146108205761031c565b80633f4ba83a1161026c5780635fb6c6ed116102255780636f82a860116101ff5780636f82a860146106d95780637a7d32e5146106ee5780638456cb5914610721578063858288ce146107365761031c565b80635fb6c6ed1461064c578063698441f2146106615780636d27f417146106af5761031c565b80633f4ba83a1461056457806352cbc93214610579578063581e16371461058e5780635c581119146105c15780635c975abb146105c95780635f1231ea146105de5761031c565b806322faa41f116102d957806332de3509116102b357806332de3509146104b35780633c94125a146104e65780633d39c260146105105780633d9d5a7a1461053a5761031c565b806322faa41f146104365780632bbc4b741461044b57806330bbe91b146104775761031c565b80630858f306146103215780630933b93914610376578063099405fd14610390578063115a6a48146103bc57806319c944bb1461040c57806321a8770d14610421575b600080fd5b34801561032d57600080fd5b5061035a6004803603604081101561034457600080fd5b50600160a060020a038135169060200135610c51565b60408051600160a060020a039092168252519081900360200190f35b61037e610cdc565b60408051918252519081900360200190f35b34801561039c57600080fd5b506103ba600480360360208110156103b357600080fd5b5035610db8565b005b3480156103c857600080fd5b506103f8600480360360408110156103df57600080fd5b508035600160a060020a0316906020013560ff16610e29565b604080519115158252519081900360200190f35b34801561041857600080fd5b5061037e610f56565b34801561042d57600080fd5b5061035a610f5c565b34801561044257600080fd5b5061037e610f6b565b34801561045757600080fd5b506103f86004803603602081101561046e57600080fd5b50351515610f71565b34801561048357600080fd5b506103f86004803603604081101561049a57600080fd5b50803560ff169060200135600160a060020a0316610fe1565b3480156104bf57600080fd5b5061037e600480360360208110156104d657600080fd5b5035600160a060020a03166110c6565b3480156104f257600080fd5b5061035a6004803603602081101561050957600080fd5b5035611146565b34801561051c57600080fd5b5061035a6004803603602081101561053357600080fd5b5035611163565b34801561054657600080fd5b5061037e6004803603602081101561055d57600080fd5b5035611170565b34801561057057600080fd5b506103ba6111d6565b34801561058557600080fd5b5061037e61120a565b34801561059a57600080fd5b506103f8600480360360208110156105b157600080fd5b5035600160a060020a0316611210565b6103f861134d565b3480156105d557600080fd5b506103f8611439565b3480156105ea57600080fd5b506106116004803603602081101561060157600080fd5b5035600160a060020a0316611442565b604080519788526020880196909652868601949094526060860192909252608085015260ff1660a084015260c0830152519081900360e00190f35b34801561065857600080fd5b5061037e6114df565b34801561066d57600080fd5b506106766114e5565b604051808261020080838360005b8381101561069c578181015183820152602001610684565b5050505090500191505060405180910390f35b3480156106bb57600080fd5b5061035a600480360360208110156106d257600080fd5b5035611641565b3480156106e557600080fd5b5061037e6116fd565b3480156106fa57600080fd5b506103f86004803603602081101561071157600080fd5b5035600160a060020a0316611703565b34801561072d57600080fd5b506103ba611742565b34801561074257600080fd5b506103f86004803603604081101561075957600080fd5b50600160a060020a0381351690602001356117b8565b34801561077b57600080fd5b506103ba6004803603602081101561079257600080fd5b5035600160a060020a0316611880565b3480156107ae57600080fd5b5061035a6118e2565b3480156107c357600080fd5b5061035a6118f1565b3480156107d857600080fd5b506103f8600480360360208110156107ef57600080fd5b5035611900565b34801561080257600080fd5b506103f86004803603602081101561081957600080fd5b503561195d565b34801561082c57600080fd5b5061037e6004803603602081101561084357600080fd5b5035600160a060020a031661197d565b34801561085f57600080fd5b506103f8611998565b34801561087457600080fd5b5061087d6119a1565b6040518151815280826101008083836020610684565b34801561089f57600080fd5b5061037e611a38565b3480156108b457600080fd5b5061037e611a6b565b3480156108c957600080fd5b5061037e611a71565b3480156108de57600080fd5b506103f8600480360360208110156108f557600080fd5b5035600160a060020a0316611a77565b34801561091157600080fd5b5061092f6004803603602081101561092857600080fd5b5035611ab0565b6040805160208082528351818301528351919283929083019185019080838360005b83811015610969578181015183820152602001610951565b50505050905090810190601f1680156109965780820380516001836020036101000a031916815260200191505b509250505060405180910390f35b3480156109b057600080fd5b5061037e600480360360208110156109c757600080fd5b5035611b71565b3480156109da57600080fd5b5061037e600480360360408110156109f157600080fd5b5080359060200135611be5565b348015610a0a57600080fd5b506103f860048036036040811015610a2157600080fd5b5080359060200135611dcd565b348015610a3a57600080fd5b5061035a60048036036020811015610a5157600080fd5b5035611f3e565b348015610a6457600080fd5b5061035a60048036036040811015610a7b57600080fd5b50600160a060020a038135169060200135611f4b565b348015610a9d57600080fd5b506103ba60048036036040811015610ab457600080fd5b50600160a060020a038135169060200135612008565b348015610ad657600080fd5b506103ba60048036036040811015610aed57600080fd5b81359190810190604081016020820135640100000000811115610b0f57600080fd5b820183602082011115610b2157600080fd5b80359060200191846001830284011164010000000083111715610b4357600080fd5b5090925090506120a5565b348015610b5a57600080fd5b506103ba60048036036020811015610b7157600080fd5b5035600160a060020a03166121f9565b348015610b8d57600080fd5b5061037e612272565b348015610ba257600080fd5b5061037e612278565b348015610bb757600080fd5b506103f860048036036020811015610bce57600080fd5b503561227e565b348015610be157600080fd5b506103f860048036036020811015610bf857600080fd5b5035600160a060020a03166122b2565b348015610c1457600080fd5b50610c3b60048036036020811015610c2b57600080fd5b5035600160a060020a03166122e8565b6040805160ff9092168252519081900360200190f35b60008054600160a060020a03163314610c6957600080fd5b600160a060020a03831615801590610c815750600382105b1515610c8c57600080fd5b600060018360038110610c9b57fe5b0154600160a060020a031690508360018460038110610cb657fe5b018054600160a060020a031916600160a060020a03929092169190911790559392505050565b600f54600090341015610cee57600080fd5b331515610cfa57600080fd5b336000908152601760205260409020541515610d1557600080fd5b336000908152601760209081526040808320548352601690915281206001015411610d3f57600080fd5b60125460ff1615610d4f57600080fd5b3360009081526017602052604081205490610d698261195d565b15610d7357506018545b62093a80610d8083611170565b034211610d8c57600080fd5b600082815260166020526040902042600190910155610daa82612309565b506010544201019150505b90565b331515610dc457600080fd5b600160000154600160a060020a0316331480610dec57506001800154600160a060020a031633145b80610e045750600160020154600160a060020a031633145b80610e195750600d54600160a060020a031633145b1515610e2457600080fd5b601455565b6000331515610e3757600080fd5b600160000154600160a060020a0316331480610e5f57506001800154600160a060020a031633145b80610e775750600160020154600160a060020a031633145b1515610e8257600080fd5b600160a060020a03831660009081526017602052604090205415610ea557600080fd5b610eaf838361238b565b600c54604080517f40c10f190000000000000000000000000000000000000000000000000000000081523360048201526509184e72a00060248201529051600160a060020a03909216916340c10f19916044808201926020929091908290030181600087803b158015610f2157600080fd5b505af1158015610f35573d6000803e3d6000fd5b505050506040513d6020811015610f4b57600080fd5b506001949350505050565b60185481565b600c54600160a060020a031681565b60135490565b6000331515610f7f57600080fd5b600160000154600160a060020a0316331480610fa757506001800154600160a060020a031633145b80610fbf5750600160020154600160a060020a031633145b1515610fca57600080fd5b506015805460ff191682151517905560015b919050565b6000331515610fef57600080fd5b600160000154600160a060020a031633148061101757506001800154600160a060020a031633145b8061102f5750600160020154600160a060020a031633145b151561103a57600080fd5b61104382611703565b151561104e57600080fd5b60ff83161580159061106457508260ff16608014155b151561106f57600080fd5b50600160a060020a038116600090815260176020908152604080832054835260169091529020805460ff841660a060020a0274ff000000000000000000000000000000000000000019909116179055600192915050565b600160a060020a038116600090815260176020526040812054816110e98261195d565b156110f357506018545b60105460008381526016602052604090206001810154600290910154910182019081111561113a57600092835260166020526040909220600201549091039150610fdc9050565b60009350505050610fdc565b6019816010811061115357fe5b0154600160a060020a0316905081565b6004816008811061115357fe5b60008061117c8361195d565b1561118657506018545b6010546000848152601660205260409020600181015460029091015491018201908111156111cb5760008481526016602052604090206002015490039150610fdc9050565b600092505050610fdc565b600054600160a060020a031633146111ed57600080fd5b60125460ff1615156111fe57600080fd5b6012805460ff19169055565b60115490565b600033151561121e57600080fd5b600160000154600160a060020a031633148061124657506001800154600160a060020a031633145b8061125e5750600160020154600160a060020a031633145b806112765750600460000154600160a060020a031633145b8061128e5750600460010154600160a060020a031633145b806112a65750600460020154600160a060020a031633145b806112be5750600460030154600160a060020a031633145b806112d557506004800154600160a060020a031633145b806112ed5750600460050154600160a060020a031633145b806113055750600460060154600160a060020a031633145b8061131d5750600460070154600160a060020a031633145b151561132857600080fd5b50600d8054600160a060020a038316600160a060020a03199091161790556001919050565b600f5460009034101561135f57600080fd5b60125460ff161561136f57600080fd5b336000908152601760205260409020541561138957600080fd5b61139433600161238b565b600c54604080517f40c10f190000000000000000000000000000000000000000000000000000000081523360048201526509184e72a00060248201529051600160a060020a03909216916340c10f19916044808201926020929091908290030181600087803b15801561140657600080fd5b505af115801561141a573d6000803e3d6000fd5b505050506040513d602081101561143057600080fd5b50600191505090565b60125460ff1681565b600160a060020a038116600090815260176020526040812054819081908190819081908190818061147283611170565b905082151561148457600391506114a0565b61148d83611900565b1561149b57600191506114a0565b600291505b60008381526016602052604090206001810154600282015460038301549254949e959d50909b509950975060a060020a90910460ff1695509350915050565b60135481565b6114ed61247f565b3315156114f957600080fd5b600160000154600160a060020a031633148061152157506001800154600160a060020a031633145b806115395750600160020154600160a060020a031633145b806115515750600460000154600160a060020a031633145b806115695750600460010154600160a060020a031633145b806115815750600460020154600160a060020a031633145b806115995750600460030154600160a060020a031633145b806115b057506004800154600160a060020a031633145b806115c85750600460050154600160a060020a031633145b806115e05750600460060154600160a060020a031633145b806115f85750600460070154600160a060020a031633145b151561160357600080fd5b604080516102008101918290529060199060109082845b8154600160a060020a0316815260019091019060200180831161161a575050505050905090565b600033151561164f57600080fd5b600160000154600160a060020a031633148061167757506001800154600160a060020a031633145b8061168f5750600160020154600160a060020a031633145b151561169a57600080fd5b6000601983601081106116a957fe5b0154600160a060020a031614156116bf57600080fd5b6000601983601081106116ce57fe5b0154600160a060020a03169050601983601081106116e857fe5b018054600160a060020a031916905592915050565b60115481565b6000600160a060020a038216151561171a57600080fd5b600160a060020a03821660009081526017602052604090205461173c9061227e565b92915050565b33151561174e57600080fd5b600160000154600160a060020a031633148061177657506001800154600160a060020a031633145b8061178e5750600160020154600160a060020a031633145b151561179957600080fd5b60125460ff16156117a957600080fd5b6012805460ff19166001179055565b60003315156117c657600080fd5b600160000154600160a060020a03163314806117ee57506001800154600160a060020a031633145b806118065750600160020154600160a060020a031633145b151561181157600080fd5b600160a060020a038316151561182657600080fd5b60006019836010811061183557fe5b0154600160a060020a03161461184a57600080fd5b826019836010811061185857fe5b018054600160a060020a031916600160a060020a039290921691909117905550600192915050565b600054600160a060020a0316331461189757600080fd5b600160a060020a03811615156118ac57600080fd5b6118b581611a77565b15156118c057600080fd5b60008054600160a060020a031916600160a060020a0392909216919091179055565b600054600160a060020a031681565b600d54600160a060020a031681565b60008115158061191f5750600082815260166020526040812060010154115b151561192a57600080fd5b60155460ff161561193d57506001610fdc565b4261194783611170565b111561195557506001610fdc565b506000610fdc565b600090815260166020526040902054608060a060020a90910460ff161190565b600160a060020a031660009081526017602052604090205490565b60155460ff1681565b6119a961249f565b3315156119b557600080fd5b600160000154600160a060020a03163314806119dd57506001800154600160a060020a031633145b806119f55750600160020154600160a060020a031633145b1515611a0057600080fd5b6040805161010081019182905260048054600160a060020a03168252909160089060056020850180831161161a575050505050905090565b600080805b600e548111611a655742611a5082611170565b1115611a5d576001820191505b600101611a3d565b50905090565b60105481565b60145481565b6000600160a060020a0382161515611a8e57600080fd5b600160a060020a03821660009081526017602052604090205461173c90611900565b60008181526016602052604081206001015460609110611acf57600080fd5b60008281526016602090815260409182902060040180548351601f600260001961010060018616150201909316929092049182018490048402810184019094528084529091830182828015611b655780601f10611b3a57610100808354040283529160200191611b65565b820191906000526020600020905b815481529060010190602001808311611b4857829003601f168201915b50505050509050919050565b6000331515611b7f57600080fd5b600160000154600160a060020a0316331480611ba757506001800154600160a060020a031633145b80611bbf5750600160020154600160a060020a031633145b1515611bca57600080fd5b6001821015611bd857600080fd5b5060135542601181905590565b6000331515611bf357600080fd5b601960000154600160a060020a0316331480611c1c5750601960010154600160a060020a031633145b80611c345750601960020154600160a060020a031633145b80611c4c5750601960030154600160a060020a031633145b80611c645750601960040154600160a060020a031633145b80611c7c5750601960050154600160a060020a031633145b80611c945750601960060154600160a060020a031633145b80611cac5750601960070154600160a060020a031633145b80611cc45750601960080154600160a060020a031633145b80611cdc5750601960090154600160a060020a031633145b80611cf457506019600a0154600160a060020a031633145b80611d0c57506019600b0154600160a060020a031633145b80611d2457506019600c0154600160a060020a031633145b80611d3c57506019600d0154600160a060020a031633145b80611d5457506019600e0154600160a060020a031633145b80611d6c57506019600f0154600160a060020a031633145b1515611d7757600080fd5b60008381526016602052604081206001015411611d9357600080fd5b601054600084815260166020526040902060010154018210611db457600080fd5b5060009182526016602052604090912060020181905590565b6000331515611ddb57600080fd5b600160000154600160a060020a0316331480611e0357506001800154600160a060020a031633145b80611e1b5750600160020154600160a060020a031633145b80611e335750600460000154600160a060020a031633145b80611e4b5750600460010154600160a060020a031633145b80611e635750600460020154600160a060020a031633145b80611e7b5750600460030154600160a060020a031633145b80611e9257506004800154600160a060020a031633145b80611eaa5750600460050154600160a060020a031633145b80611ec25750600460060154600160a060020a031633145b80611eda5750600460070154600160a060020a031633145b1515611ee557600080fd5b600083815260166020526040812060010154118015611f1a5750600083815260166020526040902054600160a060020a031615155b1515611f2557600080fd5b5060009182526016602052604090912060030155600190565b6001816003811061115357fe5b6000331515611f5957600080fd5b600160000154600160a060020a0316331480611f8157506001800154600160a060020a031633145b80611f995750600160020154600160a060020a031633145b1515611fa457600080fd5b600160a060020a0383161515611fb957600080fd5b600060198360108110611fc857fe5b0154600160a060020a03161415611fde57600080fd5b600060198360108110611fed57fe5b0154600160a060020a031690508360198460108110610cb657fe5b33151561201457600080fd5b600160000154600160a060020a031633148061203c57506001800154600160a060020a031633145b806120545750600160020154600160a060020a031633145b151561205f57600080fd5b600160a060020a038216151561207457600080fd5b816004826008811061208257fe5b018054600160a060020a031916600160a060020a03929092169190911790555050565b3315156120b157600080fd5b600160000154600160a060020a03163314806120d957506001800154600160a060020a031633145b806120f15750600160020154600160a060020a031633145b806121095750600460000154600160a060020a031633145b806121215750600460010154600160a060020a031633145b806121395750600460020154600160a060020a031633145b806121515750600460030154600160a060020a031633145b8061216857506004800154600160a060020a031633145b806121805750600460050154600160a060020a031633145b806121985750600460060154600160a060020a031633145b806121b05750600460070154600160a060020a031633145b15156121bb57600080fd5b600083815260166020526040812060010154116121d757600080fd5b60008381526016602052604090206121f39060040183836124bf565b50505050565b33151561220557600080fd5b600160000154600160a060020a031633148061222d57506001800154600160a060020a031633145b806122455750600160020154600160a060020a031633145b151561225057600080fd5b600c8054600160a060020a031916600160a060020a0392909216919091179055565b600f5481565b600e5481565b600081158015906122a55750600082815260166020526040902054600160a060020a031615155b1561195557506001610fdc565b600160a060020a031660009081526017602090815260408083205483526016909152902054608060a060020a90910460ff161190565b60006122f382611703565b151560011461230157600080fd5b506001919050565b600081815260166020526040812054608060a060020a90910460ff16111561236e5760008281526016602052604090208054607f1960ff60a060020a808404821692909201160274ff0000000000000000000000000000000000000000199091161790555b5060009081526016602052604090205460a060020a900460ff1690565b600e8054600190810191829055600160a060020a038481166000818152601760209081526040808320879055805160c08101825293845260ff8881168584019081524286840190815260608701868152608088018781528551808801875288815260a08a019081529b88526016875294909620875181549351600160a060020a031990941699169890981774ff0000000000000000000000000000000000000000191660a060020a92909316919091029190911786555195850195909555905160028401559251600383015592518051919261246f9260048501929091019061253d565b5050601380546001019055505050565b610200604051908101604052806010906020820280388339509192915050565b610100604051908101604052806008906020820280388339509192915050565b828054600181600116156101000203166002900490600052602060002090601f016020900481019282601f106125005782800160ff1982351617855561252d565b8280016001018555821561252d579182015b8281111561252d578235825591602001919060010190612512565b506125399291506125ab565b5090565b828054600181600116156101000203166002900490600052602060002090601f016020900481019282601f1061257e57805160ff191683800117855561252d565b8280016001018555821561252d579182015b8281111561252d578251825591602001919060010190612590565b610db591905b8082111561253957600081556001016125b156fea165627a7a723058200c310b7db427b0ca031119fe6645deb20e8409147930de068f91d607144e48260029",
  "source": "pragma solidity ^0.5.2;\n\nimport \"./Interfaces/QOTInterface.sol\";\n\n// TODO: check integer overflow\n\ncontract MemberShip {\n    address public owner;\n    address[3] public coreManagers;\n    address[8] public managers;\n    address public QOTAddr;\n    address public flagContractAddr;\n    uint public totalId;  // id 0 is not used and will start from 1\n    uint public fee = 0.01 ether;\n    // uint public memberPeriod = 160000;  // 40000 blocks ~ a week in rinkeby, for test only\n    uint public memberPeriod = 30 days;\n    uint public lastMemberCountUpdateTime;  // use this to prevent too frequent update; see updateActiveMemberCount()\n    bool public paused;\n    uint public activeMemberCount;  // need to call function to update this value\n    uint public curationMinQOTholding = 50000000000000;\n    bool public neverExpire = true;\n\n    struct MemberInfo {\n        address addr;\n        uint8 tier;  // 8 bit of choices. Default tier is 1; tier>128 are vip (i.e., highest bit is 1). 0 and 128 are not used\n                     // update 2019 Sep 18: tier 129 and above are now \"publisher\". Keep existing code, so \"vip\" = \"publisher\"\n        uint since;  // beginning block.timestamp of previous membership\n        uint penalty;  // the membership is valid until: since + memberPeriod - penalty;\n        bytes32 kycid;  // know your customer id, leave it for future\n        string notes;\n    }\n\n    mapping (uint => MemberInfo) internal memberDB;  // id to MemberInfo\n    mapping (address => uint) internal addressToId;  // address to membership\n    uint public vipMemberBonus = 3650 days;\n\n    address[16] public appWhitelist;\n\n    constructor(address _QOTAddr) public {\n        owner = msg.sender;\n        coreManagers = [0xB440ea2780614b3c6a00e512f432785E7dfAFA3E,\n                        0x4AD56641C569C91C64C28a904cda50AE5326Da41,\n                        0xaF7400787c54422Be8B44154B1273661f1259CcD];\n        managers = [address(0), address(0), address(0), address(0), address(0), address(0), address(0), address(0)];\n        appWhitelist = [\n            address(0), address(0), address(0), address(0), address(0), address(0), address(0), address(0),\n            address(0), address(0), address(0), address(0), address(0), address(0), address(0), address(0)\n        ];\n        QOTAddr = _QOTAddr;\n\n        for (uint8 i=0; i<3; i++){\n            _assignMembership(coreManagers[i], 255);\n            appWhitelist[i] = coreManagers[i];\n        }\n        assert(totalId == 3);\n        activeMemberCount = 3;  // manually set an initial value\n        lastMemberCountUpdateTime = block.timestamp;\n    }\n\n    modifier ownerOnly() {\n        require(msg.sender == owner);\n        _;\n    }\n\n    modifier coreManagerOnly() {\n        require(msg.sender != address(0));\n        require(msg.sender == coreManagers[0] || msg.sender == coreManagers[1] || msg.sender == coreManagers[2]);\n        _;\n    }\n\n    modifier managerOnly() {\n        require(msg.sender != address(0));\n        require(msg.sender == coreManagers[0] || msg.sender == coreManagers[1] || msg.sender == coreManagers[2] ||\n                msg.sender == managers[0] || msg.sender == managers[1] || msg.sender == managers[2] ||\n                msg.sender == managers[3] || msg.sender == managers[4] || msg.sender == managers[5] ||\n                msg.sender == managers[6] || msg.sender == managers[7]);\n        _;\n    }\n\n    modifier feePaid() {\n        require(msg.value >= fee);  // or \"==\"?\n        _;\n    }\n\n    modifier isMember() {\n        require(msg.sender != address(0));\n        require(addressToId[msg.sender] != 0);\n        require(memberDB[addressToId[msg.sender]].since > 0);\n        _;\n    }\n\n    modifier isActiveMember() {\n        require(msg.sender != address(0));\n        uint _id = addressToId[msg.sender];\n        require(_id != 0);\n        require(idExpireTime(_id) > block.timestamp);\n        _;\n    }\n\n    modifier isAppWhitelist() {\n        require(msg.sender != address(0));\n        require(msg.sender == appWhitelist[0] || msg.sender == appWhitelist[1] || msg.sender == appWhitelist[2] ||\n                msg.sender == appWhitelist[3] || msg.sender == appWhitelist[4] || msg.sender == appWhitelist[5] ||\n                msg.sender == appWhitelist[6] || msg.sender == appWhitelist[7] || msg.sender == appWhitelist[8] ||\n                msg.sender == appWhitelist[9] || msg.sender == appWhitelist[10] || msg.sender == appWhitelist[11] ||\n                msg.sender == appWhitelist[12] || msg.sender == appWhitelist[13] || msg.sender == appWhitelist[14] ||\n                msg.sender == appWhitelist[15]\n               );\n        _;\n    }\n\n    modifier whenNotPaused() {\n        require(!paused);\n        _;\n    }\n\n    modifier whenPaused() {\n        require(paused);\n        _;\n    }\n\n    // membership\n    // TODO: turn buyMembership() off. Leave a toggle to turn it on. Managers help users to do it.\n    // TODO: design in a way that user no need to interact with smart contract (but still can)\n    // TODO: payment and tier. How to design tier and payment and member period and other functions.\n    // TODO: check how to migrate these data from Rinkeby to main chain. Basically read the state,\n    //       semi-automatically generate a deploy file, then write to main chain. Acutually I can\n    //       try it from rinkeby to rinkeby!\n    // TODO: \n\n    function giveMembership(address buyer, uint8 tier) public coreManagerOnly returns(bool) {\n        // no need to pay! tier should be 1\n        require(addressToId[buyer] == 0);  // the user is not yet a member\n        _assignMembership(buyer, tier);\n        QOTInterface(QOTAddr).mint(msg.sender, 10000000000000);\n        return true;\n    }\n\n    function buyMembership() public payable feePaid whenNotPaused returns (bool) {\n        require(addressToId[msg.sender] == 0);  // the user is not yet a member\n        // TODO: uint8 _tier = determineTier(msg.sender); _assignMembership(msg.sender, _tier);\n        _assignMembership(msg.sender, 1);\n        QOTInterface(QOTAddr).mint(msg.sender, 10000000000000);\n        return true;\n    }\n\n    function _assignMembership(address _addr, uint8 _tier) internal {\n        totalId += 1;  // make it start from 1\n        addressToId[_addr] = totalId;\n        memberDB[totalId] = MemberInfo(_addr, _tier, block.timestamp, 0, bytes32(0), \"\");\n        activeMemberCount += 1;\n    }\n\n    function renewMembership() public payable feePaid isMember whenNotPaused returns (uint) {\n        uint _id = addressToId[msg.sender];\n        uint _bonus;\n        if (isVipTier(_id)) {\n            _bonus = vipMemberBonus;\n        }\n        require(block.timestamp > idExpireTime(_id) - 7 days);\n\n        // renew membership (and remove vip tier if possible)\n        memberDB[_id].since = block.timestamp;\n        _removeVipTier(_id);\n        return (block.timestamp + memberPeriod + _bonus);  // return expire time\n    }\n\n    function updateTier(uint8 _tier, address _addr) public coreManagerOnly returns(bool){\n        // should eventually use `determineTier(_addr)` and remove the `_tier` argument\n        require(addrIsMember(_addr));  // or addrIsActiveMember()?\n        require(_tier != 0 && _tier != 128);  // 0 and 128 are not used\n        // TODO: determine tier base on the amount of QOT the member owns;\n        // Q: Users call this function?\n        // Q: should the sufficient amount of QOT \"locked\" in a pool for enough time?\n        // Q: Is downgrade tier happen here? Or only while renewMembership()?\n        uint _id = addressToId[_addr];\n        memberDB[_id].tier = _tier;\n        return true;\n    }\n\n    function determineTier(address _addr) public view returns(uint8) {\n        require(addrIsMember(_addr) == true);\n        uint8 tier=1;  // the basic tier\n        // uint _bal = QOTInterface(QOTAddr).balanceOf(_addr);\n        // TODO: depend of _bal and give a tier?\n        return tier;\n    }\n\n    function isVipTier(uint _id) public view returns(bool){\n        return(memberDB[_id].tier > 128);  // tier 128 should not exist\n    }\n\n    function addrIsVipTier(address _addr) public view returns(bool){\n        return(memberDB[addressToId[_addr]].tier > 128);  // tier 128 should not exist\n    }\n\n    function _removeVipTier(uint _id) internal returns(uint8) {\n        // don't do any check, assume the _id is already member\n        if (memberDB[_id].tier > 128) {\n            memberDB[_id].tier = memberDB[_id].tier - 128;\n        }\n        return memberDB[_id].tier;\n    }\n\n    function assginKYCid(uint _id, bytes32 _kycid) external managerOnly returns (bool) {\n        // instead of \"managerOnly\", probably add another group to do that\n        require(memberDB[_id].since > 0 && memberDB[_id].addr != address(0));\n        memberDB[_id].kycid = _kycid;\n        return true;\n    }\n\n    function addAppWhitelist(address _addr, uint _idx) public coreManagerOnly returns (bool) {\n        require(_addr != address(0));\n        require(appWhitelist[_idx] == address(0));\n        appWhitelist[_idx] = _addr;\n        return true;\n    }\n\n    function replaceAppWhitelist(address _addr, uint _idx) public coreManagerOnly returns (address) {\n        require(_addr != address(0));\n        require(appWhitelist[_idx] != address(0));\n        address _addrorig = appWhitelist[_idx];\n        appWhitelist[_idx] = _addr;\n        return _addrorig;\n    }\n\n    function rmAppWhitelist(uint _idx) public coreManagerOnly returns (address) {\n        require(appWhitelist[_idx] != address(0));\n        address _addr = appWhitelist[_idx];\n        delete appWhitelist[_idx];\n        return _addr;\n    }\n\n    function getAppWhitelist() external view managerOnly returns (address[16] memory) {\n        return appWhitelist;\n    }\n\n    function addPenalty(uint _id, uint _penalty) external isAppWhitelist returns (uint) {\n        require(memberDB[_id].since > 0);  // is a member\n        require(_penalty < memberDB[_id].since + memberPeriod);  // prevent overflow while calculate idExpireTime(_id)\n        // require(_penalty < memberPeriod);  // or, can we ban someone for many memberPeriods?\n        // require(_penalty < 3*memberPeriod);\n        // or, only core manager can set a really large _panalty (like 6 months or more) for extreme case\n        memberDB[_id].penalty = _penalty;\n\n        return memberDB[_id].penalty;\n    }\n\n    function readNotes(uint _id) external view returns (string memory) {\n        require(memberDB[_id].since > 0);\n        return memberDB[_id].notes;\n    }\n\n    function addNotes(uint _id, string calldata _notes) external managerOnly {\n        require(memberDB[_id].since > 0);\n        memberDB[_id].notes = _notes;\n    }\n\n    // some query functions\n    function addrIsMember(address _addr) public view returns (bool) {\n        require(_addr != address(0));\n        return idIsMember(addressToId[_addr]);\n    }\n\n    function addrIsActiveMember(address _addr) public view returns (bool) {\n        require(_addr != address(0));\n        return idIsActiveMember(addressToId[_addr]);\n    }\n\n    function idIsMember(uint _id) public view returns (bool) {\n        if (_id != 0 && memberDB[_id].addr != address(0)) {\n            return true;\n        } else {\n            return false;\n        }\n    }\n\n    function idIsActiveMember(uint _id) public view returns (bool) {\n        require (_id != 0 || memberDB[_id].since > 0);\n        if (neverExpire) {\n            return true;\n        } else {\n            if (idExpireTime(_id) > block.timestamp) {\n                return true;  // not yet expire\n            } else {\n                return false;\n            }\n        }\n    }\n\n\n    function idExpireTime(uint _id) public view returns (uint) {\n        uint _bonus;\n        if (isVipTier(_id)) {\n            _bonus = vipMemberBonus;\n        }\n        uint _expectTime = memberDB[_id].since + memberPeriod + _bonus;\n        if (_expectTime > memberDB[_id].penalty) {\n            return _expectTime - memberDB[_id].penalty;\n        } else {\n            return 0;\n        }\n    }\n\n    function addrExpireTime(address _addr) external view returns (uint) {\n        uint _id = addressToId[_addr];\n        uint _bonus;\n        if (isVipTier(_id)) {\n            _bonus = vipMemberBonus;\n        }\n        uint _expectTime = memberDB[_id].since + memberPeriod + _bonus;\n        if (_expectTime > memberDB[_id].penalty) {\n            return _expectTime - memberDB[_id].penalty;\n        } else {\n            return 0;\n        }\n    }\n\n    function addrToId(address _addr) external view returns (uint) {\n        return addressToId[_addr];\n    }\n\n    function getMemberInfo(address _addr) external view returns (uint, bytes32, uint, uint, bytes32, uint8, uint){\n        uint _id = addressToId[_addr];\n        uint status;  // 0=connection error, 1=active, 2=inactive, 3=not member\n        uint _expireTime = idExpireTime(_id);\n        if (_id == 0) {\n            status = 3;\n        } else {\n            if (idIsActiveMember(_id)){\n                status = 1;\n            } else {\n                status = 2;\n            }\n        }\n        return (status, bytes32(_id), memberDB[_id].since, memberDB[_id].penalty, memberDB[_id].kycid, memberDB[_id].tier, _expireTime);\n    }\n\n    function getActiveMemberCount() external view returns (uint){\n        return activeMemberCount;\n    }\n\n    function getLastMemberCountUpdateTime() external view returns (uint){\n        return lastMemberCountUpdateTime;\n    }\n\n    function updateActiveMemberCount(uint _count) public coreManagerOnly returns (uint){\n        // coreManagers should provide values base on countActiveMembers()\n        require(_count >= 1);\n        activeMemberCount = _count;\n        lastMemberCountUpdateTime = block.timestamp;\n        return lastMemberCountUpdateTime;\n    }\n\n    function countActiveMembers() public view returns (uint) {\n        // this is probably meaningless if \"neverExpire\" is true\n        uint _count = 0;\n        for (uint i = 0; i <= totalId; i++) {\n            if (idExpireTime(i) > block.timestamp) {\n                _count += 1;\n            }\n        }\n        return _count;\n    }\n\n    // upgradable\n    function pause() external coreManagerOnly whenNotPaused {\n        paused = true;\n    }\n\n    function unpause() public ownerOnly whenPaused {\n        // set to ownerOnly in case accounts of other managers are compromised\n        paused = false;\n    }\n\n    function setNeverExpire(bool _neverExpire) public coreManagerOnly returns(bool) {\n        neverExpire = _neverExpire;\n        return true;\n    }\n\n    function updateOwner(address _addr) public ownerOnly {\n        require(_addr != address(0));\n        require(addrIsActiveMember(_addr));\n        owner = _addr;\n    }\n\n    function updateManager(address _addr, uint _id) public coreManagerOnly {\n        // \"managers\" can assign KYC id\n        require(_addr != address(0));\n        managers[_id] = _addr;\n    }\n\n    function updateCoreManager(address _addr, uint _id) public ownerOnly returns(address){\n        require(_addr != address(0) && _id < 3);  // only 3 core managers\n        address prevCM = coreManagers[_id];\n        coreManagers[_id] = _addr;\n        return prevCM;\n    }\n\n    function getManagers() external view coreManagerOnly returns(address[8] memory) {\n        return managers;\n    }\n\n    function updateQOTAddr(address _addr) external coreManagerOnly {\n        QOTAddr = _addr;\n    }\n\n    function updateCurationMinQOTholding(uint _qotAmount) external {\n        require(msg.sender != address(0));\n        require((msg.sender == coreManagers[0] || msg.sender == coreManagers[1] || msg.sender == coreManagers[2]) ||\n                msg.sender == flagContractAddr);\n        // require(_qotAmount >= 1000000000000);  // TODO: could it be zero?\n        curationMinQOTholding = _qotAmount;\n    }\n\n    function setFlagContractAddr(address _addr) public managerOnly returns(bool) {\n        // require(_addr != 0); // can be address(0) in the beginning\n        flagContractAddr = _addr;\n        return true;\n    }\n\n}\n",
  "sourcePath": "/home/kai/Work/project/OptractContract/contracts/MemberShip.sol",
  "compiler": {
    "name": "solc",
    "version": "0.5.2+commit.1df8f40c.Linux.g++"
  },
  "schemaVersion": "3.0.16",
  "updatedAt": "2019-10-20T03:34:03.127Z",
  "devdoc": {
    "methods": {}
  },
  "userdoc": {
    "methods": {}
  }
}