{
  "contractName": "MemberShip",
  "abi": [
    {
      "constant": true,
      "inputs": [],
      "name": "vipMemberBonus",
      "outputs": [
        {
          "name": "",
          "type": "uint256"
        }
      ],
      "payable": false,
      "stateMutability": "view",
      "type": "function"
    },
    {
      "constant": true,
      "inputs": [],
      "name": "QOTAddr",
      "outputs": [
        {
          "name": "",
          "type": "address"
        }
      ],
      "payable": false,
      "stateMutability": "view",
      "type": "function"
    },
    {
      "constant": true,
      "inputs": [
        {
          "name": "",
          "type": "uint256"
        }
      ],
      "name": "appWhitelist",
      "outputs": [
        {
          "name": "",
          "type": "address"
        }
      ],
      "payable": false,
      "stateMutability": "view",
      "type": "function"
    },
    {
      "constant": true,
      "inputs": [
        {
          "name": "",
          "type": "uint256"
        }
      ],
      "name": "managers",
      "outputs": [
        {
          "name": "",
          "type": "address"
        }
      ],
      "payable": false,
      "stateMutability": "view",
      "type": "function"
    },
    {
      "constant": true,
      "inputs": [],
      "name": "paused",
      "outputs": [
        {
          "name": "",
          "type": "bool"
        }
      ],
      "payable": false,
      "stateMutability": "view",
      "type": "function"
    },
    {
      "constant": true,
      "inputs": [],
      "name": "activeMemberCount",
      "outputs": [
        {
          "name": "",
          "type": "uint256"
        }
      ],
      "payable": false,
      "stateMutability": "view",
      "type": "function"
    },
    {
      "constant": true,
      "inputs": [],
      "name": "lastMemberCountUpdateTime",
      "outputs": [
        {
          "name": "",
          "type": "uint256"
        }
      ],
      "payable": false,
      "stateMutability": "view",
      "type": "function"
    },
    {
      "constant": true,
      "inputs": [],
      "name": "owner",
      "outputs": [
        {
          "name": "",
          "type": "address"
        }
      ],
      "payable": false,
      "stateMutability": "view",
      "type": "function"
    },
    {
      "constant": true,
      "inputs": [],
      "name": "memberPeriod",
      "outputs": [
        {
          "name": "",
          "type": "uint256"
        }
      ],
      "payable": false,
      "stateMutability": "view",
      "type": "function"
    },
    {
      "constant": true,
      "inputs": [
        {
          "name": "",
          "type": "uint256"
        }
      ],
      "name": "coreManagers",
      "outputs": [
        {
          "name": "",
          "type": "address"
        }
      ],
      "payable": false,
      "stateMutability": "view",
      "type": "function"
    },
    {
      "constant": true,
      "inputs": [],
      "name": "fee",
      "outputs": [
        {
          "name": "",
          "type": "uint256"
        }
      ],
      "payable": false,
      "stateMutability": "view",
      "type": "function"
    },
    {
      "constant": true,
      "inputs": [],
      "name": "totalId",
      "outputs": [
        {
          "name": "",
          "type": "uint256"
        }
      ],
      "payable": false,
      "stateMutability": "view",
      "type": "function"
    },
    {
      "inputs": [
        {
          "name": "_QOTAddr",
          "type": "address"
        }
      ],
      "payable": false,
      "stateMutability": "nonpayable",
      "type": "constructor"
    },
    {
      "constant": false,
      "inputs": [
        {
          "name": "buyer",
          "type": "address"
        },
        {
          "name": "tier",
          "type": "uint8"
        }
      ],
      "name": "giveMembership",
      "outputs": [
        {
          "name": "",
          "type": "bool"
        }
      ],
      "payable": false,
      "stateMutability": "nonpayable",
      "type": "function"
    },
    {
      "constant": false,
      "inputs": [],
      "name": "buyMembership",
      "outputs": [
        {
          "name": "",
          "type": "bool"
        }
      ],
      "payable": true,
      "stateMutability": "payable",
      "type": "function"
    },
    {
      "constant": false,
      "inputs": [],
      "name": "renewMembership",
      "outputs": [
        {
          "name": "",
          "type": "uint256"
        }
      ],
      "payable": true,
      "stateMutability": "payable",
      "type": "function"
    },
    {
      "constant": false,
      "inputs": [
        {
          "name": "_tier",
          "type": "uint8"
        },
        {
          "name": "_addr",
          "type": "address"
        }
      ],
      "name": "updateTier",
      "outputs": [
        {
          "name": "",
          "type": "bool"
        }
      ],
      "payable": false,
      "stateMutability": "nonpayable",
      "type": "function"
    },
    {
      "constant": true,
      "inputs": [
        {
          "name": "_addr",
          "type": "address"
        }
      ],
      "name": "determineTier",
      "outputs": [
        {
          "name": "",
          "type": "uint8"
        }
      ],
      "payable": false,
      "stateMutability": "view",
      "type": "function"
    },
    {
      "constant": true,
      "inputs": [
        {
          "name": "_id",
          "type": "uint256"
        }
      ],
      "name": "isVipTier",
      "outputs": [
        {
          "name": "",
          "type": "bool"
        }
      ],
      "payable": false,
      "stateMutability": "view",
      "type": "function"
    },
    {
      "constant": true,
      "inputs": [
        {
          "name": "_addr",
          "type": "address"
        }
      ],
      "name": "addrIsVipTier",
      "outputs": [
        {
          "name": "",
          "type": "bool"
        }
      ],
      "payable": false,
      "stateMutability": "view",
      "type": "function"
    },
    {
      "constant": false,
      "inputs": [
        {
          "name": "_id",
          "type": "uint256"
        },
        {
          "name": "_kycid",
          "type": "bytes32"
        }
      ],
      "name": "assginKYCid",
      "outputs": [
        {
          "name": "",
          "type": "bool"
        }
      ],
      "payable": false,
      "stateMutability": "nonpayable",
      "type": "function"
    },
    {
      "constant": false,
      "inputs": [
        {
          "name": "_addr",
          "type": "address"
        },
        {
          "name": "_idx",
          "type": "uint256"
        }
      ],
      "name": "addAppWhitelist",
      "outputs": [
        {
          "name": "",
          "type": "bool"
        }
      ],
      "payable": false,
      "stateMutability": "nonpayable",
      "type": "function"
    },
    {
      "constant": false,
      "inputs": [
        {
          "name": "_addr",
          "type": "address"
        },
        {
          "name": "_idx",
          "type": "uint256"
        }
      ],
      "name": "replaceAppWhitelist",
      "outputs": [
        {
          "name": "",
          "type": "address"
        }
      ],
      "payable": false,
      "stateMutability": "nonpayable",
      "type": "function"
    },
    {
      "constant": false,
      "inputs": [
        {
          "name": "_idx",
          "type": "uint256"
        }
      ],
      "name": "rmAppWhitelist",
      "outputs": [
        {
          "name": "",
          "type": "address"
        }
      ],
      "payable": false,
      "stateMutability": "nonpayable",
      "type": "function"
    },
    {
      "constant": true,
      "inputs": [],
      "name": "getAppWhitelist",
      "outputs": [
        {
          "name": "",
          "type": "address[16]"
        }
      ],
      "payable": false,
      "stateMutability": "view",
      "type": "function"
    },
    {
      "constant": false,
      "inputs": [
        {
          "name": "_id",
          "type": "uint256"
        },
        {
          "name": "_penalty",
          "type": "uint256"
        }
      ],
      "name": "addPenalty",
      "outputs": [
        {
          "name": "",
          "type": "uint256"
        }
      ],
      "payable": false,
      "stateMutability": "nonpayable",
      "type": "function"
    },
    {
      "constant": true,
      "inputs": [
        {
          "name": "_id",
          "type": "uint256"
        }
      ],
      "name": "readNotes",
      "outputs": [
        {
          "name": "",
          "type": "string"
        }
      ],
      "payable": false,
      "stateMutability": "view",
      "type": "function"
    },
    {
      "constant": false,
      "inputs": [
        {
          "name": "_id",
          "type": "uint256"
        },
        {
          "name": "_notes",
          "type": "string"
        }
      ],
      "name": "addNotes",
      "outputs": [],
      "payable": false,
      "stateMutability": "nonpayable",
      "type": "function"
    },
    {
      "constant": true,
      "inputs": [
        {
          "name": "_addr",
          "type": "address"
        }
      ],
      "name": "addrIsMember",
      "outputs": [
        {
          "name": "",
          "type": "bool"
        }
      ],
      "payable": false,
      "stateMutability": "view",
      "type": "function"
    },
    {
      "constant": true,
      "inputs": [
        {
          "name": "_addr",
          "type": "address"
        }
      ],
      "name": "addrIsActiveMember",
      "outputs": [
        {
          "name": "",
          "type": "bool"
        }
      ],
      "payable": false,
      "stateMutability": "view",
      "type": "function"
    },
    {
      "constant": true,
      "inputs": [
        {
          "name": "_id",
          "type": "uint256"
        }
      ],
      "name": "idIsMember",
      "outputs": [
        {
          "name": "",
          "type": "bool"
        }
      ],
      "payable": false,
      "stateMutability": "view",
      "type": "function"
    },
    {
      "constant": true,
      "inputs": [
        {
          "name": "_id",
          "type": "uint256"
        }
      ],
      "name": "idIsActiveMember",
      "outputs": [
        {
          "name": "",
          "type": "bool"
        }
      ],
      "payable": false,
      "stateMutability": "view",
      "type": "function"
    },
    {
      "constant": true,
      "inputs": [
        {
          "name": "_id",
          "type": "uint256"
        }
      ],
      "name": "idExpireTime",
      "outputs": [
        {
          "name": "",
          "type": "uint256"
        }
      ],
      "payable": false,
      "stateMutability": "view",
      "type": "function"
    },
    {
      "constant": true,
      "inputs": [
        {
          "name": "_addr",
          "type": "address"
        }
      ],
      "name": "addrExpireTime",
      "outputs": [
        {
          "name": "",
          "type": "uint256"
        }
      ],
      "payable": false,
      "stateMutability": "view",
      "type": "function"
    },
    {
      "constant": true,
      "inputs": [
        {
          "name": "_addr",
          "type": "address"
        }
      ],
      "name": "addrToId",
      "outputs": [
        {
          "name": "",
          "type": "uint256"
        }
      ],
      "payable": false,
      "stateMutability": "view",
      "type": "function"
    },
    {
      "constant": true,
      "inputs": [
        {
          "name": "_addr",
          "type": "address"
        }
      ],
      "name": "getMemberInfo",
      "outputs": [
        {
          "name": "",
          "type": "uint256"
        },
        {
          "name": "",
          "type": "bytes32"
        },
        {
          "name": "",
          "type": "uint256"
        },
        {
          "name": "",
          "type": "uint256"
        },
        {
          "name": "",
          "type": "bytes32"
        },
        {
          "name": "",
          "type": "uint8"
        },
        {
          "name": "",
          "type": "uint256"
        }
      ],
      "payable": false,
      "stateMutability": "view",
      "type": "function"
    },
    {
      "constant": true,
      "inputs": [],
      "name": "getActiveMemberCount",
      "outputs": [
        {
          "name": "",
          "type": "uint256"
        }
      ],
      "payable": false,
      "stateMutability": "view",
      "type": "function"
    },
    {
      "constant": true,
      "inputs": [],
      "name": "getLastMemberCountUpdateTime",
      "outputs": [
        {
          "name": "",
          "type": "uint256"
        }
      ],
      "payable": false,
      "stateMutability": "view",
      "type": "function"
    },
    {
      "constant": false,
      "inputs": [
        {
          "name": "_count",
          "type": "uint256"
        }
      ],
      "name": "updateActiveMemberCount",
      "outputs": [
        {
          "name": "",
          "type": "uint256"
        }
      ],
      "payable": false,
      "stateMutability": "nonpayable",
      "type": "function"
    },
    {
      "constant": true,
      "inputs": [],
      "name": "countActiveMembers",
      "outputs": [
        {
          "name": "",
          "type": "uint256"
        }
      ],
      "payable": false,
      "stateMutability": "view",
      "type": "function"
    },
    {
      "constant": false,
      "inputs": [],
      "name": "pause",
      "outputs": [],
      "payable": false,
      "stateMutability": "nonpayable",
      "type": "function"
    },
    {
      "constant": false,
      "inputs": [],
      "name": "unpause",
      "outputs": [],
      "payable": false,
      "stateMutability": "nonpayable",
      "type": "function"
    },
    {
      "constant": false,
      "inputs": [
        {
          "name": "_addr",
          "type": "address"
        }
      ],
      "name": "updateOwner",
      "outputs": [],
      "payable": false,
      "stateMutability": "nonpayable",
      "type": "function"
    },
    {
      "constant": false,
      "inputs": [
        {
          "name": "_addr",
          "type": "address"
        },
        {
          "name": "_id",
          "type": "uint256"
        }
      ],
      "name": "updateManager",
      "outputs": [],
      "payable": false,
      "stateMutability": "nonpayable",
      "type": "function"
    },
    {
      "constant": false,
      "inputs": [
        {
          "name": "_addr",
          "type": "address"
        },
        {
          "name": "_id",
          "type": "uint256"
        }
      ],
      "name": "updateCoreManager",
      "outputs": [
        {
          "name": "",
          "type": "address"
        }
      ],
      "payable": false,
      "stateMutability": "nonpayable",
      "type": "function"
    },
    {
      "constant": true,
      "inputs": [],
      "name": "getManagers",
      "outputs": [
        {
          "name": "",
          "type": "address[8]"
        }
      ],
      "payable": false,
      "stateMutability": "view",
      "type": "function"
    },
    {
      "constant": false,
      "inputs": [
        {
          "name": "_addr",
          "type": "address"
        }
      ],
      "name": "updateQOTAddr",
      "outputs": [],
      "payable": false,
      "stateMutability": "nonpayable",
      "type": "function"
    }
  ],
  "bytecode": "0x6080604052662386f26fc10000600e5562278d00600f556312cc03006015553480156200002b57600080fd5b5060405160208062002605833981018060405260208110156200004d57600080fd5b505160008054600160a060020a031916331790556040805160608101825273b440ea2780614b3c6a00e512f432785e7dfafa3e8152734ad56641c569c91c64c28a904cda50ae5326da41602082015273af7400787c54422be8b44154b1273661f1259ccd91810191909152620000c890600190600362000375565b506040805161010081018252600080825260208201819052918101829052606081018290526080810182905260a0810182905260c0810182905260e08101919091526200011a906004906008620003d2565b506040805161020081018252600080825260208201819052918101829052606081018290526080810182905260a0810182905260c0810182905260e08101829052610100810182905261012081018290526101408101829052610160810182905261018081018290526101a081018290526101c081018290526101e0810191909152620001ac9060169060106200041c565b50600c8054600160a060020a031916600160a060020a03831617905560005b60038160ff1610156200025e5762000209600160ff831660038110620001ed57fe5b0154600160a060020a031660ff6401000000006200027c810204565b600160ff8216600381106200021a57fe5b0154600160a060020a0316601660ff8316601081106200023657fe5b018054600160a060020a031916600160a060020a0392909216919091179055600101620001cb565b50600d546003146200026c57fe5b506003601255426010556200052e565b600d8054600190810191829055600160a060020a038481166000818152601460209081526040808320879055805160c08101825293845260ff8881168584019081524286840190815260608701868152608088018781528551808801875288815260a08a019081529b88526013875294909620875181549351600160a060020a031990941699169890981760a060020a60ff02191674010000000000000000000000000000000000000000929093169190910291909117865551958501959095559051600284015592516003830155925180519192620003659260048501929091019062000466565b5050601280546001019055505050565b8260038101928215620003c0579160200282015b82811115620003c05782518254600160a060020a031916600160a060020a0390911617825560209092019160019091019062000389565b50620003ce929150620004e7565b5090565b8260088101928215620003c05791602002820182811115620003c05782518254600160a060020a031916600160a060020a0390911617825560209092019160019091019062000389565b8260108101928215620003c05791602002820182811115620003c05782518254600160a060020a031916600160a060020a0390911617825560209092019160019091019062000389565b828054600181600116156101000203166002900490600052602060002090601f016020900481019282601f10620004a957805160ff1916838001178555620004d9565b82800160010185558215620004d9579182015b82811115620004d9578251825591602001919060010190620004bc565b50620003ce92915062000511565b6200050e91905b80821115620003ce578054600160a060020a0319168155600101620004ee565b90565b6200050e91905b80821115620003ce576000815560010162000518565b6120c7806200053e6000396000f3fe60806040526004361061029a576000357c010000000000000000000000000000000000000000000000000000000090048063880cdc311161016c578063c6906749116100de578063db8cd25411610097578063db8cd25414610a04578063ddca3f4314610a37578063e882656514610a4c578063f3334ed814610a61578063f6c4b4a014610a8b578063fdd9052b14610abe5761029a565b8063c690674914610884578063c9a69336146108b4578063cc523d37146108e4578063d65060a51461090e578063d8de106614610947578063d9ed28b7146109805761029a565b8063a8d088bb11610130578063a8d088bb14610733578063aa33e4a81461075e578063aba35b7214610773578063c41a32ec14610788578063c449b262146107bb578063c48105a31461085a5761029a565b8063880cdc31146106645780638da5cb5b146106975780639dd9d6d5146106ac5780639e7151ff146106d6578063a33c4df1146107005761029a565b80633f4ba83a11610210578063698441f2116101c9578063698441f2146105565780636d27f417146105a45780636f82a860146105ce5780637a7d32e5146105e35780638456cb5914610616578063858288ce1461062b5761029a565b80633f4ba83a1461048a57806352cbc932146104a15780635c581119146104b65780635c975abb146104be5780635f1231ea146104d35780635fb6c6ed146105415761029a565b806322faa41f1161026257806322faa41f1461038857806330bbe91b1461039d57806332de3509146103d95780633c94125a1461040c5780633d39c260146104365780633d9d5a7a146104605761029a565b80630858f3061461029f5780630933b939146102f4578063115a6a481461030e57806319c944bb1461035e57806321a8770d14610373575b600080fd5b3480156102ab57600080fd5b506102d8600480360360408110156102c257600080fd5b50600160a060020a038135169060200135610b07565b60408051600160a060020a039092168252519081900360200190f35b6102fc610b92565b60408051918252519081900360200190f35b34801561031a57600080fd5b5061034a6004803603604081101561033157600080fd5b508035600160a060020a0316906020013560ff16610c6e565b604080519115158252519081900360200190f35b34801561036a57600080fd5b506102fc610cfd565b34801561037f57600080fd5b506102d8610d03565b34801561039457600080fd5b506102fc610d12565b3480156103a957600080fd5b5061034a600480360360408110156103c057600080fd5b50803560ff169060200135600160a060020a0316610d18565b3480156103e557600080fd5b506102fc600480360360208110156103fc57600080fd5b5035600160a060020a0316610dfd565b34801561041857600080fd5b506102d86004803603602081101561042f57600080fd5b5035610e7e565b34801561044257600080fd5b506102d86004803603602081101561045957600080fd5b5035610e9b565b34801561046c57600080fd5b506102fc6004803603602081101561048357600080fd5b5035610ea8565b34801561049657600080fd5b5061049f610f0e565b005b3480156104ad57600080fd5b506102fc610f42565b61034a610f48565b3480156104ca57600080fd5b5061034a610f95565b3480156104df57600080fd5b50610506600480360360208110156104f657600080fd5b5035600160a060020a0316610f9e565b604080519788526020880196909652868601949094526060860192909252608085015260ff1660a084015260c0830152519081900360e00190f35b34801561054d57600080fd5b506102fc61103b565b34801561056257600080fd5b5061056b611041565b604051808261020080838360005b83811015610591578181015183820152602001610579565b5050505090500191505060405180910390f35b3480156105b057600080fd5b506102d8600480360360208110156105c757600080fd5b503561119d565b3480156105da57600080fd5b506102fc611259565b3480156105ef57600080fd5b5061034a6004803603602081101561060657600080fd5b5035600160a060020a031661125f565b34801561062257600080fd5b5061049f61129e565b34801561063757600080fd5b5061034a6004803603604081101561064e57600080fd5b50600160a060020a038135169060200135611314565b34801561067057600080fd5b5061049f6004803603602081101561068757600080fd5b5035600160a060020a03166113dc565b3480156106a357600080fd5b506102d8611429565b3480156106b857600080fd5b5061034a600480360360208110156106cf57600080fd5b5035611438565b3480156106e257600080fd5b5061034a600480360360208110156106f957600080fd5b5035611482565b34801561070c57600080fd5b506102fc6004803603602081101561072357600080fd5b5035600160a060020a03166114a2565b34801561073f57600080fd5b506107486114bd565b6040518151815280826101008083836020610579565b34801561076a57600080fd5b506102fc611554565b34801561077f57600080fd5b506102fc611587565b34801561079457600080fd5b5061034a600480360360208110156107ab57600080fd5b5035600160a060020a031661158d565b3480156107c757600080fd5b506107e5600480360360208110156107de57600080fd5b50356115c6565b6040805160208082528351818301528351919283929083019185019080838360005b8381101561081f578181015183820152602001610807565b50505050905090810190601f16801561084c5780820380516001836020036101000a031916815260200191505b509250505060405180910390f35b34801561086657600080fd5b506102fc6004803603602081101561087d57600080fd5b5035611687565b34801561089057600080fd5b506102fc600480360360408110156108a757600080fd5b50803590602001356116fb565b3480156108c057600080fd5b5061034a600480360360408110156108d757600080fd5b50803590602001356118e3565b3480156108f057600080fd5b506102d86004803603602081101561090757600080fd5b5035611a54565b34801561091a57600080fd5b506102d86004803603604081101561093157600080fd5b50600160a060020a038135169060200135611a61565b34801561095357600080fd5b5061049f6004803603604081101561096a57600080fd5b50600160a060020a038135169060200135611b1e565b34801561098c57600080fd5b5061049f600480360360408110156109a357600080fd5b813591908101906040810160208201356401000000008111156109c557600080fd5b8201836020820111156109d757600080fd5b803590602001918460018302840111640100000000831117156109f957600080fd5b509092509050611bbb565b348015610a1057600080fd5b5061049f60048036036020811015610a2757600080fd5b5035600160a060020a0316611d0f565b348015610a4357600080fd5b506102fc611d48565b348015610a5857600080fd5b506102fc611d4e565b348015610a6d57600080fd5b5061034a60048036036020811015610a8457600080fd5b5035611d54565b348015610a9757600080fd5b5061034a60048036036020811015610aae57600080fd5b5035600160a060020a0316611d88565b348015610aca57600080fd5b50610af160048036036020811015610ae157600080fd5b5035600160a060020a0316611dbe565b6040805160ff9092168252519081900360200190f35b60008054600160a060020a03163314610b1f57600080fd5b600160a060020a03831615801590610b375750600382105b1515610b4257600080fd5b600060018360038110610b5157fe5b0154600160a060020a031690508360018460038110610b6c57fe5b018054600160a060020a031916600160a060020a03929092169190911790559392505050565b600e54600090341015610ba457600080fd5b331515610bb057600080fd5b336000908152601460205260409020541515610bcb57600080fd5b336000908152601460209081526040808320548352601390915281206001015411610bf557600080fd5b60115460ff1615610c0557600080fd5b3360009081526014602052604081205490610c1f82611482565b15610c2957506015545b62093a80610c3683610ea8565b034211610c4257600080fd5b600082815260136020526040902042600190910155610c6082611ddf565b50600f544201019150505b90565b6000331515610c7c57600080fd5b600160000154600160a060020a0316331480610ca457506001800154600160a060020a031633145b80610cbc5750600160020154600160a060020a031633145b1515610cc757600080fd5b600160a060020a03831660009081526014602052604090205415610cea57600080fd5b610cf48383611e61565b50600192915050565b60155481565b600c54600160a060020a031681565b60125490565b6000331515610d2657600080fd5b600160000154600160a060020a0316331480610d4e57506001800154600160a060020a031633145b80610d665750600160020154600160a060020a031633145b1515610d7157600080fd5b610d7a8261125f565b1515610d8557600080fd5b60ff831615801590610d9b57508260ff16608014155b1515610da657600080fd5b50600160a060020a038116600090815260146020908152604080832054835260139091529020805460ff841660a060020a0274ff000000000000000000000000000000000000000019909116179055600192915050565b600160a060020a03811660009081526014602052604081205481610e2082611482565b15610e2a57506015545b600f54600083815260136020526040902060018101546002909101549101820190811115610e7157600092835260136020526040909220600201549091039150610e799050565b600093505050505b919050565b60168160108110610e8b57fe5b0154600160a060020a0316905081565b60048160088110610e8b57fe5b600080610eb483611482565b15610ebe57506015545b600f54600084815260136020526040902060018101546002909101549101820190811115610f035760008481526013602052604090206002015490039150610e799050565b600092505050610e79565b600054600160a060020a03163314610f2557600080fd5b60115460ff161515610f3657600080fd5b6011805460ff19169055565b60105490565b600e54600090341015610f5a57600080fd5b60115460ff1615610f6a57600080fd5b3360009081526014602052604090205415610f8457600080fd5b610f8f336001611e61565b50600190565b60115460ff1681565b600160a060020a0381166000908152601460205260408120548190819081908190819081908180610fce83610ea8565b9050821515610fe05760039150610ffc565b610fe983611438565b15610ff75760019150610ffc565b600291505b60008381526013602052604090206001810154600282015460038301549254949e959d50909b509950975060a060020a90910460ff1695509350915050565b60125481565b611049611f55565b33151561105557600080fd5b600160000154600160a060020a031633148061107d57506001800154600160a060020a031633145b806110955750600160020154600160a060020a031633145b806110ad5750600460000154600160a060020a031633145b806110c55750600460010154600160a060020a031633145b806110dd5750600460020154600160a060020a031633145b806110f55750600460030154600160a060020a031633145b8061110c57506004800154600160a060020a031633145b806111245750600460050154600160a060020a031633145b8061113c5750600460060154600160a060020a031633145b806111545750600460070154600160a060020a031633145b151561115f57600080fd5b604080516102008101918290529060169060109082845b8154600160a060020a03168152600190910190602001808311611176575050505050905090565b60003315156111ab57600080fd5b600160000154600160a060020a03163314806111d357506001800154600160a060020a031633145b806111eb5750600160020154600160a060020a031633145b15156111f657600080fd5b60006016836010811061120557fe5b0154600160a060020a0316141561121b57600080fd5b60006016836010811061122a57fe5b0154600160a060020a031690506016836010811061124457fe5b018054600160a060020a031916905592915050565b60105481565b6000600160a060020a038216151561127657600080fd5b600160a060020a03821660009081526014602052604090205461129890611d54565b92915050565b3315156112aa57600080fd5b600160000154600160a060020a03163314806112d257506001800154600160a060020a031633145b806112ea5750600160020154600160a060020a031633145b15156112f557600080fd5b60115460ff161561130557600080fd5b6011805460ff19166001179055565b600033151561132257600080fd5b600160000154600160a060020a031633148061134a57506001800154600160a060020a031633145b806113625750600160020154600160a060020a031633145b151561136d57600080fd5b600160a060020a038316151561138257600080fd5b60006016836010811061139157fe5b0154600160a060020a0316146113a657600080fd5b82601683601081106113b457fe5b018054600160a060020a031916600160a060020a039290921691909117905550600192915050565b600054600160a060020a031633146113f357600080fd5b6113fc8161158d565b151561140757600080fd5b60008054600160a060020a031916600160a060020a0392909216919091179055565b600054600160a060020a031681565b6000811515806114575750600082815260136020526040812060010154115b151561146257600080fd5b4261146c83610ea8565b111561147a57506001610e79565b506000610e79565b600090815260136020526040902054608060a060020a90910460ff161190565b600160a060020a031660009081526014602052604090205490565b6114c5611f75565b3315156114d157600080fd5b600160000154600160a060020a03163314806114f957506001800154600160a060020a031633145b806115115750600160020154600160a060020a031633145b151561151c57600080fd5b6040805161010081019182905260048054600160a060020a031682529091600890600560208501808311611176575050505050905090565b600080805b600d548111611581574261156c82610ea8565b1115611579576001820191505b600101611559565b50905090565b600f5481565b6000600160a060020a03821615156115a457600080fd5b600160a060020a03821660009081526014602052604090205461129890611438565b600081815260136020526040812060010154606091106115e557600080fd5b60008281526013602090815260409182902060040180548351601f60026000196101006001861615020190931692909204918201849004840281018401909452808452909183018282801561167b5780601f106116505761010080835404028352916020019161167b565b820191906000526020600020905b81548152906001019060200180831161165e57829003601f168201915b50505050509050919050565b600033151561169557600080fd5b600160000154600160a060020a03163314806116bd57506001800154600160a060020a031633145b806116d55750600160020154600160a060020a031633145b15156116e057600080fd5b60018210156116ee57600080fd5b5060125542601081905590565b600033151561170957600080fd5b601660000154600160a060020a03163314806117325750601660010154600160a060020a031633145b8061174a5750601660020154600160a060020a031633145b806117625750601660030154600160a060020a031633145b8061177a5750601660040154600160a060020a031633145b806117925750601660050154600160a060020a031633145b806117aa5750601660060154600160a060020a031633145b806117c25750601660070154600160a060020a031633145b806117da5750601660080154600160a060020a031633145b806117f25750601660090154600160a060020a031633145b8061180a57506016600a0154600160a060020a031633145b8061182257506016600b0154600160a060020a031633145b8061183a57506016600c0154600160a060020a031633145b8061185257506016600d0154600160a060020a031633145b8061186a57506016600e0154600160a060020a031633145b8061188257506016600f0154600160a060020a031633145b151561188d57600080fd5b600083815260136020526040812060010154116118a957600080fd5b600f546000848152601360205260409020600101540182106118ca57600080fd5b5060009182526013602052604090912060020181905590565b60003315156118f157600080fd5b600160000154600160a060020a031633148061191957506001800154600160a060020a031633145b806119315750600160020154600160a060020a031633145b806119495750600460000154600160a060020a031633145b806119615750600460010154600160a060020a031633145b806119795750600460020154600160a060020a031633145b806119915750600460030154600160a060020a031633145b806119a857506004800154600160a060020a031633145b806119c05750600460050154600160a060020a031633145b806119d85750600460060154600160a060020a031633145b806119f05750600460070154600160a060020a031633145b15156119fb57600080fd5b600083815260136020526040812060010154118015611a305750600083815260136020526040902054600160a060020a031615155b1515611a3b57600080fd5b5060009182526013602052604090912060030155600190565b60018160038110610e8b57fe5b6000331515611a6f57600080fd5b600160000154600160a060020a0316331480611a9757506001800154600160a060020a031633145b80611aaf5750600160020154600160a060020a031633145b1515611aba57600080fd5b600160a060020a0383161515611acf57600080fd5b600060168360108110611ade57fe5b0154600160a060020a03161415611af457600080fd5b600060168360108110611b0357fe5b0154600160a060020a031690508360168460108110610b6c57fe5b331515611b2a57600080fd5b600160000154600160a060020a0316331480611b5257506001800154600160a060020a031633145b80611b6a5750600160020154600160a060020a031633145b1515611b7557600080fd5b600160a060020a0382161515611b8a57600080fd5b8160048260088110611b9857fe5b018054600160a060020a031916600160a060020a03929092169190911790555050565b331515611bc757600080fd5b600160000154600160a060020a0316331480611bef57506001800154600160a060020a031633145b80611c075750600160020154600160a060020a031633145b80611c1f5750600460000154600160a060020a031633145b80611c375750600460010154600160a060020a031633145b80611c4f5750600460020154600160a060020a031633145b80611c675750600460030154600160a060020a031633145b80611c7e57506004800154600160a060020a031633145b80611c965750600460050154600160a060020a031633145b80611cae5750600460060154600160a060020a031633145b80611cc65750600460070154600160a060020a031633145b1515611cd157600080fd5b60008381526013602052604081206001015411611ced57600080fd5b6000838152601360205260409020611d09906004018383611f95565b50505050565b600054600160a060020a03163314611d2657600080fd5b600c8054600160a060020a031916600160a060020a0392909216919091179055565b600e5481565b600d5481565b60008115801590611d7b5750600082815260136020526040902054600160a060020a031615155b1561147a57506001610e79565b600160a060020a031660009081526014602090815260408083205483526013909152902054608060a060020a90910460ff161190565b6000611dc98261125f565b1515600114611dd757600080fd5b506001919050565b600081815260136020526040812054608060a060020a90910460ff161115611e445760008281526013602052604090208054607f1960ff60a060020a808404821692909201160274ff0000000000000000000000000000000000000000199091161790555b5060009081526013602052604090205460a060020a900460ff1690565b600d8054600190810191829055600160a060020a038481166000818152601460209081526040808320879055805160c08101825293845260ff8881168584019081524286840190815260608701868152608088018781528551808801875288815260a08a019081529b88526013875294909620875181549351600160a060020a031990941699169890981774ff0000000000000000000000000000000000000000191660a060020a929093169190910291909117865551958501959095559051600284015592516003830155925180519192611f4592600485019290910190612013565b5050601280546001019055505050565b610200604051908101604052806010906020820280388339509192915050565b610100604051908101604052806008906020820280388339509192915050565b828054600181600116156101000203166002900490600052602060002090601f016020900481019282601f10611fd65782800160ff19823516178555612003565b82800160010185558215612003579182015b82811115612003578235825591602001919060010190611fe8565b5061200f929150612081565b5090565b828054600181600116156101000203166002900490600052602060002090601f016020900481019282601f1061205457805160ff1916838001178555612003565b82800160010185558215612003579182015b82811115612003578251825591602001919060010190612066565b610c6b91905b8082111561200f576000815560010161208756fea165627a7a7230582062b1581f29e41bc25ad0993758fd86c8f5ad6a759ef068af31ceb3133c3c9c540029",
  "source": "pragma solidity ^0.5.2;\n\nimport \"./Interfaces/QOTInterface.sol\";\n\n// TODO: check integer overflow\n\ncontract MemberShip {\n    address public owner;\n    address[3] public coreManagers;\n    address[8] public managers;\n    address public QOTAddr;\n    uint public totalId;  // id 0 is not used and will start from 1\n    uint public fee = 0.01 ether;\n    // uint public memberPeriod = 160000;  // 40000 blocks ~ a week in rinkeby, for test only\n    uint public memberPeriod = 30 days;\n    uint public lastMemberCountUpdateTime;  // use this to prevent too frequent update; see updateActiveMemberCount()\n    bool public paused;\n    uint public activeMemberCount;  // need to call function to update this value\n\n    struct MemberInfo {\n        address addr;\n        uint8 tier;  // 8 bit of choices. Default tier is 1; tier>128 are vip (i.e., highest bit is 1). 0 and 128 are not used\n                     // update 2019 Sep 18: tier 129 and above are now \"publisher\". Keep existing code, so \"vip\" = \"publisher\"\n        uint since;  // beginning block.timestamp of previous membership\n        uint penalty;  // the membership is valid until: since + memberPeriod - penalty;\n        bytes32 kycid;  // know your customer id, leave it for future\n        string notes;\n    }\n\n    mapping (uint => MemberInfo) internal memberDB;  // id to MemberInfo\n    mapping (address => uint) internal addressToId;  // address to membership\n    uint public vipMemberBonus = 3650 days;\n\n    address[16] public appWhitelist;\n\n    constructor(address _QOTAddr) public {\n        owner = msg.sender;\n        coreManagers = [0xB440ea2780614b3c6a00e512f432785E7dfAFA3E,\n                        0x4AD56641C569C91C64C28a904cda50AE5326Da41,\n                        0xaF7400787c54422Be8B44154B1273661f1259CcD];\n        managers = [address(0), address(0), address(0), address(0), address(0), address(0), address(0), address(0)];\n        appWhitelist = [\n            address(0), address(0), address(0), address(0), address(0), address(0), address(0), address(0),\n            address(0), address(0), address(0), address(0), address(0), address(0), address(0), address(0)\n        ];\n        QOTAddr = _QOTAddr;\n\n        for (uint8 i=0; i<3; i++){\n            _assignMembership(coreManagers[i], 255);\n            appWhitelist[i] = coreManagers[i];\n        }\n        assert(totalId == 3);\n        activeMemberCount = 3;  // manually set an initial value\n        lastMemberCountUpdateTime = block.timestamp;\n    }\n\n    modifier ownerOnly() {\n        require(msg.sender == owner);\n        _;\n    }\n\n    modifier coreManagerOnly() {\n        require(msg.sender != address(0));\n        require(msg.sender == coreManagers[0] || msg.sender == coreManagers[1] || msg.sender == coreManagers[2]);\n        _;\n    }\n\n    modifier managerOnly() {\n        require(msg.sender != address(0));\n        require(msg.sender == coreManagers[0] || msg.sender == coreManagers[1] || msg.sender == coreManagers[2] ||\n                msg.sender == managers[0] || msg.sender == managers[1] || msg.sender == managers[2] ||\n                msg.sender == managers[3] || msg.sender == managers[4] || msg.sender == managers[5] ||\n                msg.sender == managers[6] || msg.sender == managers[7]);\n        _;\n    }\n\n    modifier feePaid() {\n        require(msg.value >= fee);  // or \"==\"?\n        _;\n    }\n\n    modifier isMember() {\n        require(msg.sender != address(0));\n        require(addressToId[msg.sender] != 0);\n        require(memberDB[addressToId[msg.sender]].since > 0);\n        _;\n    }\n\n    modifier isActiveMember() {\n        require(msg.sender != address(0));\n        uint _id = addressToId[msg.sender];\n        require(_id != 0);\n        require(idExpireTime(_id) > block.timestamp);\n        _;\n    }\n\n    modifier isAppWhitelist() {\n        require(msg.sender != address(0));\n        require(msg.sender == appWhitelist[0] || msg.sender == appWhitelist[1] || msg.sender == appWhitelist[2] ||\n                msg.sender == appWhitelist[3] || msg.sender == appWhitelist[4] || msg.sender == appWhitelist[5] ||\n                msg.sender == appWhitelist[6] || msg.sender == appWhitelist[7] || msg.sender == appWhitelist[8] ||\n                msg.sender == appWhitelist[9] || msg.sender == appWhitelist[10] || msg.sender == appWhitelist[11] ||\n                msg.sender == appWhitelist[12] || msg.sender == appWhitelist[13] || msg.sender == appWhitelist[14] ||\n                msg.sender == appWhitelist[15]\n               );\n        _;\n    }\n\n    modifier whenNotPaused() {\n        require(!paused);\n        _;\n    }\n\n    modifier whenPaused() {\n        require(paused);\n        _;\n    }\n\n    // membership\n    // TODO: turn buyMembership() off. Leave a toggle to turn it on. Managers help users to do it.\n    // TODO: design in a way that user no need to interact with smart contract (but still can)\n    // TODO: payment and tier. How to design tier and payment and member period and other functions.\n    // TODO: check how to migrate these data from Rinkeby to main chain. Basically read the state,\n    //       semi-automatically generate a deploy file, then write to main chain. Acutually I can\n    //       try it from rinkeby to rinkeby!\n    // TODO: \n\n    function giveMembership(address buyer, uint8 tier) public coreManagerOnly returns(bool) {\n        // no need to pay!\n        require(addressToId[buyer] == 0);  // the user is not yet a member\n        // require tier=?\n        _assignMembership(buyer, tier);\n        return true;\n    }\n\n    function buyMembership() public payable feePaid whenNotPaused returns (bool) {\n        require(addressToId[msg.sender] == 0);  // the user is not yet a member\n        // TODO: uint8 _tier = determineTier(msg.sender); _assignMembership(msg.sender, _tier);\n        _assignMembership(msg.sender, 1);\n        return true;\n    }\n\n    function _assignMembership(address _addr, uint8 _tier) internal {\n        totalId += 1;  // make it start from 1\n        addressToId[_addr] = totalId;\n        memberDB[totalId] = MemberInfo(_addr, _tier, block.timestamp, 0, bytes32(0), \"\");\n        activeMemberCount += 1;\n    }\n\n    function renewMembership() public payable feePaid isMember whenNotPaused returns (uint) {\n        uint _id = addressToId[msg.sender];\n        uint _bonus;\n        if (isVipTier(_id)) {\n            _bonus = vipMemberBonus;\n        }\n        require(block.timestamp > idExpireTime(_id) - 7 days);\n\n        // renew membership (and remove vip tier if possible)\n        memberDB[_id].since = block.timestamp;\n        _removeVipTier(_id);\n        return (block.timestamp + memberPeriod + _bonus);  // return expire time\n    }\n\n    function updateTier(uint8 _tier, address _addr) public coreManagerOnly returns(bool){\n        // should eventually use `determineTier(_addr)` and remove the `_tier` argument\n        require(addrIsMember(_addr));  // or addrIsActiveMember()?\n        require(_tier != 0 && _tier != 128);  // 0 and 128 are not used\n        // TODO: determine tier base on the amount of QOT the member owns;\n        // Q: Users call this function?\n        // Q: should the sufficient amount of QOT \"locked\" in a pool for enough time?\n        // Q: Is downgrade tier happen here? Or only while renewMembership()?\n        uint _id = addressToId[_addr];\n        memberDB[_id].tier = _tier;\n        return true;\n    }\n\n    function determineTier(address _addr) public view returns(uint8) {\n        require(addrIsMember(_addr) == true);\n        uint8 tier=1;  // the basic tier\n        // uint _bal = QOTInterface(QOTAddr).balanceOf(_addr);\n        // TODO: depend of _bal and give a tier?\n        return tier;\n    }\n\n    function isVipTier(uint _id) public view returns(bool){\n        return(memberDB[_id].tier > 128);  // tier 128 should not exist\n    }\n\n    function addrIsVipTier(address _addr) public view returns(bool){\n        return(memberDB[addressToId[_addr]].tier > 128);  // tier 128 should not exist\n    }\n\n    function _removeVipTier(uint _id) internal returns(uint8) {\n        // don't do any check, assume the _id is already member\n        if (memberDB[_id].tier > 128) {\n            memberDB[_id].tier = memberDB[_id].tier - 128;\n        }\n        return memberDB[_id].tier;\n    }\n\n    function assginKYCid(uint _id, bytes32 _kycid) external managerOnly returns (bool) {\n        // instead of \"managerOnly\", probably add another group to do that\n        require(memberDB[_id].since > 0 && memberDB[_id].addr != address(0));\n        memberDB[_id].kycid = _kycid;\n        return true;\n    }\n\n    function addAppWhitelist(address _addr, uint _idx) public coreManagerOnly returns (bool) {\n        require(_addr != address(0));\n        require(appWhitelist[_idx] == address(0));\n        appWhitelist[_idx] = _addr;\n        return true;\n    }\n\n    function replaceAppWhitelist(address _addr, uint _idx) public coreManagerOnly returns (address) {\n        require(_addr != address(0));\n        require(appWhitelist[_idx] != address(0));\n        address _addrorig = appWhitelist[_idx];\n        appWhitelist[_idx] = _addr;\n        return _addrorig;\n    }\n\n    function rmAppWhitelist(uint _idx) public coreManagerOnly returns (address) {\n        require(appWhitelist[_idx] != address(0));\n        address _addr = appWhitelist[_idx];\n        delete appWhitelist[_idx];\n        return _addr;\n    }\n\n    function getAppWhitelist() external view managerOnly returns (address[16] memory) {\n        return appWhitelist;\n    }\n\n    function addPenalty(uint _id, uint _penalty) external isAppWhitelist returns (uint) {\n        require(memberDB[_id].since > 0);  // is a member\n        require(_penalty < memberDB[_id].since + memberPeriod);  // prevent overflow while calculate idExpireTime(_id)\n        // require(_penalty < memberPeriod);  // or, can we ban someone for many memberPeriods?\n        // require(_penalty < 3*memberPeriod);\n        // or, only core manager can set a really large _panalty (like 6 months or more) for extreme case\n        memberDB[_id].penalty = _penalty;\n\n        return memberDB[_id].penalty;\n    }\n\n    function readNotes(uint _id) external view returns (string memory) {\n        require(memberDB[_id].since > 0);\n        return memberDB[_id].notes;\n    }\n\n    function addNotes(uint _id, string calldata _notes) external managerOnly {\n        require(memberDB[_id].since > 0);\n        memberDB[_id].notes = _notes;\n    }\n\n    // some query functions\n    function addrIsMember(address _addr) public view returns (bool) {\n        require(_addr != address(0));\n        return idIsMember(addressToId[_addr]);\n    }\n\n    function addrIsActiveMember(address _addr) public view returns (bool) {\n        require(_addr != address(0));\n        return idIsActiveMember(addressToId[_addr]);\n    }\n\n    function idIsMember(uint _id) public view returns (bool) {\n        if (_id != 0 && memberDB[_id].addr != address(0)) {\n            return true;\n        } else {\n            return false;\n        }\n    }\n\n    function idIsActiveMember(uint _id) public view returns (bool) {\n        require (_id != 0 || memberDB[_id].since > 0);\n        if (idExpireTime(_id) > block.timestamp) {\n            return true;  // not yet expire\n        } else {\n            return false;\n        }\n    }\n\n    function idExpireTime(uint _id) public view returns (uint) {\n        uint _bonus;\n        if (isVipTier(_id)) {\n            _bonus = vipMemberBonus;\n        }\n        uint _expectTime = memberDB[_id].since + memberPeriod + _bonus;\n        if (_expectTime > memberDB[_id].penalty) {\n            return _expectTime - memberDB[_id].penalty;\n        } else {\n            return 0;\n        }\n    }\n\n    function addrExpireTime(address _addr) external view returns (uint) {\n        uint _id = addressToId[_addr];\n        uint _bonus;\n        if (isVipTier(_id)) {\n            _bonus = vipMemberBonus;\n        }\n        uint _expectTime = memberDB[_id].since + memberPeriod + _bonus;\n        if (_expectTime > memberDB[_id].penalty) {\n            return _expectTime - memberDB[_id].penalty;\n        } else {\n            return 0;\n        }\n    }\n\n    function addrToId(address _addr) external view returns (uint) {\n        return addressToId[_addr];\n    }\n\n    function getMemberInfo(address _addr) external view returns (uint, bytes32, uint, uint, bytes32, uint8, uint){\n        uint _id = addressToId[_addr];\n        uint status;  // 0=connection error, 1=active, 2=inactive, 3=not member\n        uint _expireTime = idExpireTime(_id);\n        if (_id == 0) {\n            status = 3;\n        } else {\n            if (idIsActiveMember(_id)){\n                status = 1;\n            } else {\n                status = 2;\n            }\n        }\n        return (status, bytes32(_id), memberDB[_id].since, memberDB[_id].penalty, memberDB[_id].kycid, memberDB[_id].tier, _expireTime);\n    }\n\n    function getActiveMemberCount() external view returns (uint){\n        return activeMemberCount;\n    }\n\n    function getLastMemberCountUpdateTime() external view returns (uint){\n        return lastMemberCountUpdateTime;\n    }\n\n\n    function updateActiveMemberCount(uint _count) public coreManagerOnly returns (uint){\n        // coreManagers should provide values base on countActiveMembers()\n        require(_count >= 1);\n        activeMemberCount = _count;\n        lastMemberCountUpdateTime = block.timestamp;\n        return lastMemberCountUpdateTime;\n    }\n\n    function countActiveMembers() public view returns (uint) {\n        uint _count = 0;\n        for (uint i = 0; i <= totalId; i++) {\n            if (idExpireTime(i) > block.timestamp) {\n                _count += 1;\n            }\n        }\n        return _count;\n    }\n\n    // upgradable\n    function pause() external coreManagerOnly whenNotPaused {\n        paused = true;\n    }\n\n    function unpause() public ownerOnly whenPaused {\n        // set to ownerOnly in case accounts of other managers are compromised\n        paused = false;\n    }\n\n    function updateOwner(address _addr) public ownerOnly {\n        require(addrIsActiveMember(_addr));\n        owner = _addr;\n    }\n\n    function updateManager(address _addr, uint _id) public coreManagerOnly {\n        // \"managers\" can assign KYC id\n        require(_addr != address(0));\n        managers[_id] = _addr;\n    }\n\n    function updateCoreManager(address _addr, uint _id) public ownerOnly returns(address){\n        require(_addr != address(0) && _id < 3);  // only 3 core managers\n        address prevCM = coreManagers[_id];\n        coreManagers[_id] = _addr;\n        return prevCM;\n    }\n\n    function getManagers() external view coreManagerOnly returns(address[8] memory) {\n        return managers;\n    }\n\n    function updateQOTAddr(address _addr) external ownerOnly {\n        QOTAddr = _addr;\n    }\n\n}\n",
  "sourcePath": "/home/kai/Work/project/OptractContract/contracts/MemberShip.sol",
  "compiler": {
    "name": "solc",
    "version": "0.5.2+commit.1df8f40c.Linux.g++"
  },
  "schemaVersion": "3.0.16",
  "updatedAt": "2019-09-18T03:48:36.313Z",
  "devdoc": {
    "methods": {}
  },
  "userdoc": {
    "methods": {}
  }
}