{
  "contractName": "MemberShip",
  "abi": [
    {
      "constant": true,
      "inputs": [],
      "name": "vipMemberBonus",
      "outputs": [
        {
          "name": "",
          "type": "uint256"
        }
      ],
      "payable": false,
      "stateMutability": "view",
      "type": "function"
    },
    {
      "constant": true,
      "inputs": [],
      "name": "accManager",
      "outputs": [
        {
          "name": "",
          "type": "address"
        }
      ],
      "payable": false,
      "stateMutability": "view",
      "type": "function"
    },
    {
      "constant": true,
      "inputs": [],
      "name": "QOTAddr",
      "outputs": [
        {
          "name": "",
          "type": "address"
        }
      ],
      "payable": false,
      "stateMutability": "view",
      "type": "function"
    },
    {
      "constant": true,
      "inputs": [
        {
          "name": "",
          "type": "uint256"
        }
      ],
      "name": "appWhitelist",
      "outputs": [
        {
          "name": "",
          "type": "address"
        }
      ],
      "payable": false,
      "stateMutability": "view",
      "type": "function"
    },
    {
      "constant": true,
      "inputs": [
        {
          "name": "",
          "type": "uint256"
        }
      ],
      "name": "managers",
      "outputs": [
        {
          "name": "",
          "type": "address"
        }
      ],
      "payable": false,
      "stateMutability": "view",
      "type": "function"
    },
    {
      "constant": true,
      "inputs": [],
      "name": "paused",
      "outputs": [
        {
          "name": "",
          "type": "bool"
        }
      ],
      "payable": false,
      "stateMutability": "view",
      "type": "function"
    },
    {
      "constant": true,
      "inputs": [],
      "name": "activeMemberCount",
      "outputs": [
        {
          "name": "",
          "type": "uint256"
        }
      ],
      "payable": false,
      "stateMutability": "view",
      "type": "function"
    },
    {
      "constant": true,
      "inputs": [],
      "name": "lastMemberCountUpdateTime",
      "outputs": [
        {
          "name": "",
          "type": "uint256"
        }
      ],
      "payable": false,
      "stateMutability": "view",
      "type": "function"
    },
    {
      "constant": true,
      "inputs": [],
      "name": "owner",
      "outputs": [
        {
          "name": "",
          "type": "address"
        }
      ],
      "payable": false,
      "stateMutability": "view",
      "type": "function"
    },
    {
      "constant": true,
      "inputs": [],
      "name": "flagContractAddr",
      "outputs": [
        {
          "name": "",
          "type": "address"
        }
      ],
      "payable": false,
      "stateMutability": "view",
      "type": "function"
    },
    {
      "constant": true,
      "inputs": [],
      "name": "neverExpire",
      "outputs": [
        {
          "name": "",
          "type": "bool"
        }
      ],
      "payable": false,
      "stateMutability": "view",
      "type": "function"
    },
    {
      "constant": true,
      "inputs": [],
      "name": "memberPeriod",
      "outputs": [
        {
          "name": "",
          "type": "uint256"
        }
      ],
      "payable": false,
      "stateMutability": "view",
      "type": "function"
    },
    {
      "constant": true,
      "inputs": [],
      "name": "curationMinQOTholding",
      "outputs": [
        {
          "name": "",
          "type": "uint256"
        }
      ],
      "payable": false,
      "stateMutability": "view",
      "type": "function"
    },
    {
      "constant": true,
      "inputs": [
        {
          "name": "",
          "type": "uint256"
        }
      ],
      "name": "coreManagers",
      "outputs": [
        {
          "name": "",
          "type": "address"
        }
      ],
      "payable": false,
      "stateMutability": "view",
      "type": "function"
    },
    {
      "constant": true,
      "inputs": [],
      "name": "fee",
      "outputs": [
        {
          "name": "",
          "type": "uint256"
        }
      ],
      "payable": false,
      "stateMutability": "view",
      "type": "function"
    },
    {
      "constant": true,
      "inputs": [],
      "name": "totalId",
      "outputs": [
        {
          "name": "",
          "type": "uint256"
        }
      ],
      "payable": false,
      "stateMutability": "view",
      "type": "function"
    },
    {
      "inputs": [
        {
          "name": "_QOTAddr",
          "type": "address"
        }
      ],
      "payable": false,
      "stateMutability": "nonpayable",
      "type": "constructor"
    },
    {
      "constant": false,
      "inputs": [
        {
          "name": "_to",
          "type": "address"
        },
        {
          "name": "_amount",
          "type": "uint256"
        }
      ],
      "name": "airdrop",
      "outputs": [
        {
          "name": "",
          "type": "bool"
        }
      ],
      "payable": false,
      "stateMutability": "nonpayable",
      "type": "function"
    },
    {
      "constant": false,
      "inputs": [
        {
          "name": "buyer",
          "type": "address"
        }
      ],
      "name": "giveMembership",
      "outputs": [
        {
          "name": "",
          "type": "bool"
        }
      ],
      "payable": false,
      "stateMutability": "nonpayable",
      "type": "function"
    },
    {
      "constant": false,
      "inputs": [],
      "name": "buyMembership",
      "outputs": [
        {
          "name": "",
          "type": "bool"
        }
      ],
      "payable": true,
      "stateMutability": "payable",
      "type": "function"
    },
    {
      "constant": false,
      "inputs": [],
      "name": "renewMembership",
      "outputs": [
        {
          "name": "",
          "type": "uint256"
        }
      ],
      "payable": true,
      "stateMutability": "payable",
      "type": "function"
    },
    {
      "constant": false,
      "inputs": [
        {
          "name": "_addr",
          "type": "address"
        }
      ],
      "name": "helpRenewMembership",
      "outputs": [
        {
          "name": "",
          "type": "uint256"
        }
      ],
      "payable": false,
      "stateMutability": "nonpayable",
      "type": "function"
    },
    {
      "constant": false,
      "inputs": [
        {
          "name": "_tier",
          "type": "uint8"
        },
        {
          "name": "_addr",
          "type": "address"
        }
      ],
      "name": "updateTier",
      "outputs": [
        {
          "name": "",
          "type": "bool"
        }
      ],
      "payable": false,
      "stateMutability": "nonpayable",
      "type": "function"
    },
    {
      "constant": true,
      "inputs": [
        {
          "name": "_addr",
          "type": "address"
        }
      ],
      "name": "determineTier",
      "outputs": [
        {
          "name": "",
          "type": "uint8"
        }
      ],
      "payable": false,
      "stateMutability": "view",
      "type": "function"
    },
    {
      "constant": true,
      "inputs": [
        {
          "name": "_id",
          "type": "uint256"
        }
      ],
      "name": "isVipTier",
      "outputs": [
        {
          "name": "",
          "type": "bool"
        }
      ],
      "payable": false,
      "stateMutability": "view",
      "type": "function"
    },
    {
      "constant": true,
      "inputs": [
        {
          "name": "_addr",
          "type": "address"
        }
      ],
      "name": "addrIsVipTier",
      "outputs": [
        {
          "name": "",
          "type": "bool"
        }
      ],
      "payable": false,
      "stateMutability": "view",
      "type": "function"
    },
    {
      "constant": false,
      "inputs": [
        {
          "name": "_id",
          "type": "uint256"
        },
        {
          "name": "_kycid",
          "type": "bytes32"
        }
      ],
      "name": "assginKYCid",
      "outputs": [
        {
          "name": "",
          "type": "bool"
        }
      ],
      "payable": false,
      "stateMutability": "nonpayable",
      "type": "function"
    },
    {
      "constant": false,
      "inputs": [
        {
          "name": "_addr",
          "type": "address"
        },
        {
          "name": "_idx",
          "type": "uint256"
        }
      ],
      "name": "addAppWhitelist",
      "outputs": [
        {
          "name": "",
          "type": "bool"
        }
      ],
      "payable": false,
      "stateMutability": "nonpayable",
      "type": "function"
    },
    {
      "constant": false,
      "inputs": [
        {
          "name": "_addr",
          "type": "address"
        },
        {
          "name": "_idx",
          "type": "uint256"
        }
      ],
      "name": "replaceAppWhitelist",
      "outputs": [
        {
          "name": "",
          "type": "address"
        }
      ],
      "payable": false,
      "stateMutability": "nonpayable",
      "type": "function"
    },
    {
      "constant": false,
      "inputs": [
        {
          "name": "_idx",
          "type": "uint256"
        }
      ],
      "name": "rmAppWhitelist",
      "outputs": [
        {
          "name": "",
          "type": "address"
        }
      ],
      "payable": false,
      "stateMutability": "nonpayable",
      "type": "function"
    },
    {
      "constant": true,
      "inputs": [],
      "name": "getAppWhitelist",
      "outputs": [
        {
          "name": "",
          "type": "address[16]"
        }
      ],
      "payable": false,
      "stateMutability": "view",
      "type": "function"
    },
    {
      "constant": false,
      "inputs": [
        {
          "name": "_id",
          "type": "uint256"
        },
        {
          "name": "_penalty",
          "type": "uint256"
        }
      ],
      "name": "addPenalty",
      "outputs": [
        {
          "name": "",
          "type": "uint256"
        }
      ],
      "payable": false,
      "stateMutability": "nonpayable",
      "type": "function"
    },
    {
      "constant": true,
      "inputs": [
        {
          "name": "_id",
          "type": "uint256"
        }
      ],
      "name": "readNotes",
      "outputs": [
        {
          "name": "",
          "type": "string"
        }
      ],
      "payable": false,
      "stateMutability": "view",
      "type": "function"
    },
    {
      "constant": false,
      "inputs": [
        {
          "name": "_id",
          "type": "uint256"
        },
        {
          "name": "_notes",
          "type": "string"
        }
      ],
      "name": "addNotes",
      "outputs": [],
      "payable": false,
      "stateMutability": "nonpayable",
      "type": "function"
    },
    {
      "constant": true,
      "inputs": [
        {
          "name": "_addr",
          "type": "address"
        }
      ],
      "name": "addrIsMember",
      "outputs": [
        {
          "name": "",
          "type": "bool"
        }
      ],
      "payable": false,
      "stateMutability": "view",
      "type": "function"
    },
    {
      "constant": true,
      "inputs": [
        {
          "name": "_addr",
          "type": "address"
        }
      ],
      "name": "addrIsActiveMember",
      "outputs": [
        {
          "name": "",
          "type": "bool"
        }
      ],
      "payable": false,
      "stateMutability": "view",
      "type": "function"
    },
    {
      "constant": true,
      "inputs": [
        {
          "name": "_id",
          "type": "uint256"
        }
      ],
      "name": "idIsMember",
      "outputs": [
        {
          "name": "",
          "type": "bool"
        }
      ],
      "payable": false,
      "stateMutability": "view",
      "type": "function"
    },
    {
      "constant": true,
      "inputs": [
        {
          "name": "_id",
          "type": "uint256"
        }
      ],
      "name": "idIsActiveMember",
      "outputs": [
        {
          "name": "",
          "type": "bool"
        }
      ],
      "payable": false,
      "stateMutability": "view",
      "type": "function"
    },
    {
      "constant": true,
      "inputs": [
        {
          "name": "_id",
          "type": "uint256"
        }
      ],
      "name": "idExpireTime",
      "outputs": [
        {
          "name": "",
          "type": "uint256"
        }
      ],
      "payable": false,
      "stateMutability": "view",
      "type": "function"
    },
    {
      "constant": true,
      "inputs": [
        {
          "name": "_addr",
          "type": "address"
        }
      ],
      "name": "addrExpireTime",
      "outputs": [
        {
          "name": "",
          "type": "uint256"
        }
      ],
      "payable": false,
      "stateMutability": "view",
      "type": "function"
    },
    {
      "constant": true,
      "inputs": [
        {
          "name": "_addr",
          "type": "address"
        }
      ],
      "name": "addrToId",
      "outputs": [
        {
          "name": "",
          "type": "uint256"
        }
      ],
      "payable": false,
      "stateMutability": "view",
      "type": "function"
    },
    {
      "constant": true,
      "inputs": [
        {
          "name": "_addr",
          "type": "address"
        }
      ],
      "name": "getMemberInfo",
      "outputs": [
        {
          "name": "",
          "type": "uint256"
        },
        {
          "name": "",
          "type": "bytes32"
        },
        {
          "name": "",
          "type": "uint256"
        },
        {
          "name": "",
          "type": "uint256"
        },
        {
          "name": "",
          "type": "bytes32"
        },
        {
          "name": "",
          "type": "uint8"
        },
        {
          "name": "",
          "type": "uint256"
        }
      ],
      "payable": false,
      "stateMutability": "view",
      "type": "function"
    },
    {
      "constant": true,
      "inputs": [],
      "name": "getActiveMemberCount",
      "outputs": [
        {
          "name": "",
          "type": "uint256"
        }
      ],
      "payable": false,
      "stateMutability": "view",
      "type": "function"
    },
    {
      "constant": true,
      "inputs": [],
      "name": "getLastMemberCountUpdateTime",
      "outputs": [
        {
          "name": "",
          "type": "uint256"
        }
      ],
      "payable": false,
      "stateMutability": "view",
      "type": "function"
    },
    {
      "constant": false,
      "inputs": [
        {
          "name": "_count",
          "type": "uint256"
        }
      ],
      "name": "updateActiveMemberCount",
      "outputs": [
        {
          "name": "",
          "type": "uint256"
        }
      ],
      "payable": false,
      "stateMutability": "nonpayable",
      "type": "function"
    },
    {
      "constant": true,
      "inputs": [],
      "name": "countActiveMembers",
      "outputs": [
        {
          "name": "",
          "type": "uint256"
        }
      ],
      "payable": false,
      "stateMutability": "view",
      "type": "function"
    },
    {
      "constant": true,
      "inputs": [
        {
          "name": "_addr",
          "type": "address"
        }
      ],
      "name": "isCoreManager",
      "outputs": [
        {
          "name": "",
          "type": "bool"
        }
      ],
      "payable": false,
      "stateMutability": "view",
      "type": "function"
    },
    {
      "constant": false,
      "inputs": [],
      "name": "pause",
      "outputs": [],
      "payable": false,
      "stateMutability": "nonpayable",
      "type": "function"
    },
    {
      "constant": false,
      "inputs": [],
      "name": "unpause",
      "outputs": [],
      "payable": false,
      "stateMutability": "nonpayable",
      "type": "function"
    },
    {
      "constant": false,
      "inputs": [
        {
          "name": "_neverExpire",
          "type": "bool"
        }
      ],
      "name": "setNeverExpire",
      "outputs": [
        {
          "name": "",
          "type": "bool"
        }
      ],
      "payable": false,
      "stateMutability": "nonpayable",
      "type": "function"
    },
    {
      "constant": false,
      "inputs": [
        {
          "name": "_addr",
          "type": "address"
        }
      ],
      "name": "updateOwner",
      "outputs": [],
      "payable": false,
      "stateMutability": "nonpayable",
      "type": "function"
    },
    {
      "constant": false,
      "inputs": [
        {
          "name": "_addr",
          "type": "address"
        },
        {
          "name": "_id",
          "type": "uint256"
        }
      ],
      "name": "updateManager",
      "outputs": [],
      "payable": false,
      "stateMutability": "nonpayable",
      "type": "function"
    },
    {
      "constant": false,
      "inputs": [
        {
          "name": "_addr",
          "type": "address"
        },
        {
          "name": "_id",
          "type": "uint256"
        }
      ],
      "name": "updateCoreManager",
      "outputs": [
        {
          "name": "",
          "type": "address"
        }
      ],
      "payable": false,
      "stateMutability": "nonpayable",
      "type": "function"
    },
    {
      "constant": false,
      "inputs": [
        {
          "name": "_addr",
          "type": "address"
        }
      ],
      "name": "updateAccManager",
      "outputs": [],
      "payable": false,
      "stateMutability": "nonpayable",
      "type": "function"
    },
    {
      "constant": true,
      "inputs": [],
      "name": "getManagers",
      "outputs": [
        {
          "name": "",
          "type": "address[8]"
        }
      ],
      "payable": false,
      "stateMutability": "view",
      "type": "function"
    },
    {
      "constant": false,
      "inputs": [
        {
          "name": "_addr",
          "type": "address"
        }
      ],
      "name": "updateQOTAddr",
      "outputs": [],
      "payable": false,
      "stateMutability": "nonpayable",
      "type": "function"
    },
    {
      "constant": false,
      "inputs": [
        {
          "name": "_qotAmount",
          "type": "uint256"
        }
      ],
      "name": "updateCurationMinQOTholding",
      "outputs": [],
      "payable": false,
      "stateMutability": "nonpayable",
      "type": "function"
    },
    {
      "constant": false,
      "inputs": [
        {
          "name": "_addr",
          "type": "address"
        }
      ],
      "name": "setFlagContractAddr",
      "outputs": [
        {
          "name": "",
          "type": "bool"
        }
      ],
      "payable": false,
      "stateMutability": "nonpayable",
      "type": "function"
    }
  ],
  "bytecode": "0x6080604052662386f26fc1000060115562278d00601255652d79883d20006016556017805460ff191660011790556312cc0300601a553480156200004257600080fd5b5060405160208062003040833981018060405260208110156200006457600080fd5b505160008054600160a060020a031916331781556040805160808101825273b440ea2780614b3c6a00e512f432785e7dfafa3e8152734ad56641c569c91c64c28a904cda50ae5326da41602082015273af7400787c54422be8b44154b1273661f1259ccd918101919091526060810191909152620000e790600190600462000394565b506040805161010081018252600080825260208201819052918101829052606081018290526080810182905260a0810182905260c0810182905260e081019190915262000139906005906008620003f1565b506040805161020081018252600080825260208201819052918101829052606081018290526080810182905260a0810182905260c0810182905260e08101829052610100810182905261012081018290526101408101829052610160810182905261018081018290526101a081018290526101c081018290526101e0810191909152620001cb90601b9060106200043b565b50600e8054600160a060020a031916600160a060020a03831617905560005b60038160ff1610156200027d5762000228600160ff8316600481106200020c57fe5b0154600160a060020a031660ff6401000000006200029b810204565b600160ff8216600481106200023957fe5b0154600160a060020a0316601b60ff8316601081106200025557fe5b018054600160a060020a031916600160a060020a0392909216919091179055600101620001ea565b506010546003146200028b57fe5b506003601555426013556200054d565b60108054600190810191829055600160a060020a038481166000818152601960209081526040808320879055805160c08101825293845260ff8881168584019081524286840190815260608701868152608088018781528551808801875288815260a08a019081529b88526018875294909620875181549351600160a060020a031990941699169890981760a060020a60ff02191674010000000000000000000000000000000000000000929093169190910291909117865551958501959095559051600284015592516003830155925180519192620003849260048501929091019062000485565b5050601580546001019055505050565b8260048101928215620003df579160200282015b82811115620003df5782518254600160a060020a031916600160a060020a03909116178255602090920191600190910190620003a8565b50620003ed92915062000506565b5090565b8260088101928215620003df5791602002820182811115620003df5782518254600160a060020a031916600160a060020a03909116178255602090920191600190910190620003a8565b8260108101928215620003df5791602002820182811115620003df5782518254600160a060020a031916600160a060020a03909116178255602090920191600190910190620003a8565b828054600181600116156101000203166002900490600052602060002090601f016020900481019282601f10620004c857805160ff1916838001178555620004f8565b82800160010185558215620004f8579182015b82811115620004f8578251825591602001919060010190620004db565b50620003ed92915062000530565b6200052d91905b80821115620003ed578054600160a060020a03191681556001016200050d565b90565b6200052d91905b80821115620003ed576000815560010162000537565b612ae3806200055d6000396000f3fe608060405260043610610393576000357c010000000000000000000000000000000000000000000000000000000090048063880cdc31116101ee578063c41a32ec1161011f578063d8de1066116100bd578063e88265651161008c578063e882656514610ceb578063f3334ed814610d00578063f6c4b4a014610d2a578063fdd9052b14610d5d57610393565b8063d8de106614610be6578063d9ed28b714610c1f578063db8cd25414610ca3578063ddca3f4314610cd657610393565b8063c6906749116100f9578063c690674914610b23578063c9a6933614610b53578063cc523d3714610b83578063d65060a514610bad57610393565b8063c41a32ec14610a27578063c449b26214610a5a578063c48105a314610af957610393565b8063a623f63e1161018c578063aa33e4a811610166578063aa33e4a8146109b5578063aba35b72146109ca578063b27ee391146109df578063b6bcd14d146109f457610393565b8063a623f63e14610942578063a88b336914610975578063a8d088bb1461098a57610393565b806396bb0fde116101c857806396bb0fde146108a65780639dd9d6d5146108bb5780639e7151ff146108e5578063a33c4df11461090f57610393565b8063880cdc31146108255780638ba4cc3c146108585780638da5cb5b1461089157610393565b80633f4ba83a116102c85780635fb6c6ed116102665780636f82a860116102405780636f82a8601461078f5780637a7d32e5146107a45780638456cb59146107d7578063858288ce146107ec57610393565b80635fb6c6ed14610702578063698441f2146107175780636d27f4171461076557610393565b8063581e1637116102a2578063581e1637146106445780635c581119146106775780635c975abb1461067f5780635f1231ea1461069457610393565b80633f4ba83a146105e75780634a5d6534146105fc57806352cbc9321461062f57610393565b806322faa41f1161033557806332de35091161030f57806332de3509146105365780633c94125a146105695780633d39c260146105935780633d9d5a7a146105bd57610393565b806322faa41f146104a55780632bbc4b74146104ba57806330bbe91b146104fa57610393565b806319c944bb1161037157806319c944bb146104335780631bf6e93914610448578063204c87401461045d57806321a8770d1461049057610393565b80630858f306146103985780630933b939146103ed578063099405fd14610407575b600080fd5b3480156103a457600080fd5b506103d1600480360360408110156103bb57600080fd5b50600160a060020a038135169060200135610da6565b60408051600160a060020a039092168252519081900360200190f35b6103f5610e31565b60408051918252519081900360200190f35b34801561041357600080fd5b506104316004803603602081101561042a57600080fd5b5035610f0d565b005b34801561043f57600080fd5b506103f5610f3b565b34801561045457600080fd5b506103d1610f41565b34801561046957600080fd5b506103f56004803603602081101561048057600080fd5b5035600160a060020a0316610f50565b34801561049c57600080fd5b506103d1611004565b3480156104b157600080fd5b506103f5611013565b3480156104c657600080fd5b506104e6600480360360208110156104dd57600080fd5b50351515611019565b604080519115158252519081900360200190f35b34801561050657600080fd5b506104e66004803603604081101561051d57600080fd5b50803560ff169060200135600160a060020a03166110a1565b34801561054257600080fd5b506103f56004803603602081101561055957600080fd5b5035600160a060020a031661119e565b34801561057557600080fd5b506103d16004803603602081101561058c57600080fd5b503561121e565b34801561059f57600080fd5b506103d1600480360360208110156105b657600080fd5b503561123b565b3480156105c957600080fd5b506103f5600480360360208110156105e057600080fd5b5035611248565b3480156105f357600080fd5b506104316112ae565b34801561060857600080fd5b506104e66004803603602081101561061f57600080fd5b5035600160a060020a03166112e2565b34801561063b57600080fd5b506103f561135c565b34801561065057600080fd5b506104e66004803603602081101561066757600080fd5b5035600160a060020a0316611362565b6104e661149f565b34801561068b57600080fd5b506104e66115b4565b3480156106a057600080fd5b506106c7600480360360208110156106b757600080fd5b5035600160a060020a03166115bd565b604080519788526020880196909652868601949094526060860192909252608085015260ff1660a084015260c0830152519081900360e00190f35b34801561070e57600080fd5b506103f561165a565b34801561072357600080fd5b5061072c611660565b604051808261020080838360005b8381101561075257818101518382015260200161073a565b5050505090500191505060405180910390f35b34801561077157600080fd5b506103d16004803603602081101561078857600080fd5b50356117bc565b34801561079b57600080fd5b506103f5611890565b3480156107b057600080fd5b506104e6600480360360208110156107c757600080fd5b5035600160a060020a0316611896565b3480156107e357600080fd5b506104316118d5565b3480156107f857600080fd5b506104e66004803603604081101561080f57600080fd5b50600160a060020a038135169060200135611963565b34801561083157600080fd5b506104316004803603602081101561084857600080fd5b5035600160a060020a0316611a43565b34801561086457600080fd5b506104e66004803603604081101561087b57600080fd5b50600160a060020a038135169060200135611aa5565b34801561089d57600080fd5b506103d1611b98565b3480156108b257600080fd5b506103d1611ba7565b3480156108c757600080fd5b506104e6600480360360208110156108de57600080fd5b5035611bb6565b3480156108f157600080fd5b506104e66004803603602081101561090857600080fd5b5035611c13565b34801561091b57600080fd5b506103f56004803603602081101561093257600080fd5b5035600160a060020a0316611c33565b34801561094e57600080fd5b506104e66004803603602081101561096557600080fd5b5035600160a060020a0316611c4e565b34801561098157600080fd5b506104e6611d4d565b34801561099657600080fd5b5061099f611d56565b604051815181528082610100808383602061073a565b3480156109c157600080fd5b506103f5611e05565b3480156109d657600080fd5b506103f5611e38565b3480156109eb57600080fd5b506103f5611e3e565b348015610a0057600080fd5b5061043160048036036020811015610a1757600080fd5b5035600160a060020a0316611e44565b348015610a3357600080fd5b506104e660048036036020811015610a4a57600080fd5b5035600160a060020a0316611f09565b348015610a6657600080fd5b50610a8460048036036020811015610a7d57600080fd5b5035611f42565b6040805160208082528351818301528351919283929083019185019080838360005b83811015610abe578181015183820152602001610aa6565b50505050905090810190601f168015610aeb5780820380516001836020036101000a031916815260200191505b509250505060405180910390f35b348015610b0557600080fd5b506103f560048036036020811015610b1c57600080fd5b5035612003565b348015610b2f57600080fd5b506103f560048036036040811015610b4657600080fd5b508035906020013561208f565b348015610b5f57600080fd5b506104e660048036036040811015610b7657600080fd5b5080359060200135612277565b348015610b8f57600080fd5b506103d160048036036020811015610ba657600080fd5b50356123e8565b348015610bb957600080fd5b506103d160048036036040811015610bd057600080fd5b50600160a060020a0381351690602001356123f5565b348015610bf257600080fd5b5061043160048036036040811015610c0957600080fd5b50600160a060020a0381351690602001356124ca565b348015610c2b57600080fd5b5061043160048036036040811015610c4257600080fd5b81359190810190604081016020820135640100000000811115610c6457600080fd5b820183602082011115610c7657600080fd5b80359060200191846001830284011164010000000083111715610c9857600080fd5b50909250905061257f565b348015610caf57600080fd5b5061043160048036036020811015610cc657600080fd5b5035600160a060020a03166126d3565b348015610ce257600080fd5b506103f5612764565b348015610cf757600080fd5b506103f561276a565b348015610d0c57600080fd5b506104e660048036036020811015610d2357600080fd5b5035612770565b348015610d3657600080fd5b506104e660048036036020811015610d4d57600080fd5b5035600160a060020a03166127a4565b348015610d6957600080fd5b50610d9060048036036020811015610d8057600080fd5b5035600160a060020a03166127da565b6040805160ff9092168252519081900360200190f35b60008054600160a060020a03163314610dbe57600080fd5b600160a060020a03831615801590610dd65750600482105b1515610de157600080fd5b600060018360048110610df057fe5b0154600160a060020a031690508360018460048110610e0b57fe5b018054600160a060020a031916600160a060020a03929092169190911790559392505050565b601154600090341015610e4357600080fd5b331515610e4f57600080fd5b336000908152601960205260409020541515610e6a57600080fd5b336000908152601960209081526040808320548352601890915281206001015411610e9457600080fd5b60145460ff1615610ea457600080fd5b3360009081526019602052604081205490610ebe82611c13565b15610ec85750601a545b62093a80610ed583611248565b034211610ee157600080fd5b600082815260186020526040902042600190910155610eff826127fb565b506012544201019150505b90565b610f16336112e2565b80610f2b5750600f54600160a060020a031633145b1515610f3657600080fd5b601655565b601a5481565b600d54600160a060020a031681565b6000610f5b336112e2565b80610f705750600d54600160a060020a031633145b1515610f7b57600080fd5b600160a060020a038216600090815260196020526040902054610f9d81612770565b1515610fa857600080fd5b6000610fb382611c13565b15610fbd5750601a545b62093a80610fca83611248565b034211610fd657600080fd5b600082815260186020526040902042600190910155610ff4826127fb565b506012544201019150505b919050565b600e54600160a060020a031681565b60155490565b600033151561102757600080fd5b600160000154600160a060020a031633148061104f57506001800154600160a060020a031633145b806110675750600160020154600160a060020a031633145b8061107f5750600160030154600160a060020a031633145b151561108a57600080fd5b506017805460ff1916911515919091179055600190565b60003315156110af57600080fd5b600160000154600160a060020a03163314806110d757506001800154600160a060020a031633145b806110ef5750600160020154600160a060020a031633145b806111075750600160030154600160a060020a031633145b151561111257600080fd5b61111b82611896565b151561112657600080fd5b60ff83161580159061113c57508260ff16608014155b151561114757600080fd5b50600160a060020a038116600090815260196020908152604080832054835260189091529020805460ff841660a060020a0274ff000000000000000000000000000000000000000019909116179055600192915050565b600160a060020a038116600090815260196020526040812054816111c182611c13565b156111cb5750601a545b60125460008381526018602052604090206001810154600290910154910182019081111561121257600092835260186020526040909220600201549091039150610fff9050565b60009350505050610fff565b601b816010811061122b57fe5b0154600160a060020a0316905081565b6005816008811061122b57fe5b60008061125483611c13565b1561125e5750601a545b6012546000848152601860205260409020600181015460029091015491018201908111156112a35760008481526018602052604090206002015490039150610fff9050565b600092505050610fff565b600054600160a060020a031633146112c557600080fd5b60145460ff1615156112d657600080fd5b6014805460ff19169055565b6000600160a060020a03821615156112fc57506000610fff565b600154600160a060020a03838116911614806113255750600254600160a060020a038381169116145b8061133d5750600354600160a060020a038381169116145b806113555750600454600160a060020a038381169116145b9050610fff565b60135490565b600033151561137057600080fd5b600160000154600160a060020a031633148061139857506001800154600160a060020a031633145b806113b05750600160020154600160a060020a031633145b806113c85750600560000154600160a060020a031633145b806113e05750600560010154600160a060020a031633145b806113f85750600560020154600160a060020a031633145b806114105750600560030154600160a060020a031633145b806114285750600560040154600160a060020a031633145b8061143f57506005800154600160a060020a031633145b806114575750600560060154600160a060020a031633145b8061146f5750600560070154600160a060020a031633145b151561147a57600080fd5b50600f8054600160a060020a038316600160a060020a03199091161790556001919050565b6011546000903410156114b157600080fd5b60145460ff16156114c157600080fd5b6114ca336112e2565b806114df5750600d54600160a060020a031633145b15156114ea57600080fd5b336000908152601960205260409020541561150457600080fd5b61150f33600161287d565b600e54604080517f40c10f190000000000000000000000000000000000000000000000000000000081523360048201526509184e72a00060248201529051600160a060020a03909216916340c10f19916044808201926020929091908290030181600087803b15801561158157600080fd5b505af1158015611595573d6000803e3d6000fd5b505050506040513d60208110156115ab57600080fd5b50600191505090565b60145460ff1681565b600160a060020a03811660009081526019602052604081205481908190819081908190819081806115ed83611248565b90508215156115ff576003915061161b565b61160883611bb6565b15611616576001915061161b565b600291505b60008381526018602052604090206001810154600282015460038301549254949e959d50909b509950975060a060020a90910460ff1695509350915050565b60155481565b611668612971565b33151561167457600080fd5b600160000154600160a060020a031633148061169c57506001800154600160a060020a031633145b806116b45750600160020154600160a060020a031633145b806116cc5750600560000154600160a060020a031633145b806116e45750600560010154600160a060020a031633145b806116fc5750600560020154600160a060020a031633145b806117145750600560030154600160a060020a031633145b8061172c5750600560040154600160a060020a031633145b8061174357506005800154600160a060020a031633145b8061175b5750600560060154600160a060020a031633145b806117735750600560070154600160a060020a031633145b151561177e57600080fd5b6040805161020081019182905290601b9060109082845b8154600160a060020a03168152600190910190602001808311611795575050505050905090565b60003315156117ca57600080fd5b600160000154600160a060020a03163314806117f257506001800154600160a060020a031633145b8061180a5750600160020154600160a060020a031633145b806118225750600160030154600160a060020a031633145b151561182d57600080fd5b6000601b836010811061183c57fe5b0154600160a060020a0316141561185257600080fd5b6000601b836010811061186157fe5b0154600160a060020a03169050601b836010811061187b57fe5b018054600160a060020a031916905592915050565b60135481565b6000600160a060020a03821615156118ad57600080fd5b600160a060020a0382166000908152601960205260409020546118cf90612770565b92915050565b3315156118e157600080fd5b600160000154600160a060020a031633148061190957506001800154600160a060020a031633145b806119215750600160020154600160a060020a031633145b806119395750600160030154600160a060020a031633145b151561194457600080fd5b60145460ff161561195457600080fd5b6014805460ff19166001179055565b600033151561197157600080fd5b600160000154600160a060020a031633148061199957506001800154600160a060020a031633145b806119b15750600160020154600160a060020a031633145b806119c95750600160030154600160a060020a031633145b15156119d457600080fd5b600160a060020a03831615156119e957600080fd5b6000601b83601081106119f857fe5b0154600160a060020a031614611a0d57600080fd5b82601b8360108110611a1b57fe5b018054600160a060020a031916600160a060020a039290921691909117905550600192915050565b600054600160a060020a03163314611a5a57600080fd5b600160a060020a0381161515611a6f57600080fd5b611a7881611f09565b1515611a8357600080fd5b60008054600160a060020a031916600160a060020a0392909216919091179055565b6000611ab0336112e2565b80611ac55750600d54600160a060020a031633145b1515611ad057600080fd5b64174876e8008211611ae157600080fd5b6601c6bf526340008210611af457600080fd5b600e54604080517f40c10f19000000000000000000000000000000000000000000000000000000008152600160a060020a03868116600483015260248201869052915191909216916340c10f199160448083019260209291908290030181600087803b158015611b6357600080fd5b505af1158015611b77573d6000803e3d6000fd5b505050506040513d6020811015611b8d57600080fd5b506001949350505050565b600054600160a060020a031681565b600f54600160a060020a031681565b600081151580611bd55750600082815260186020526040812060010154115b1515611be057600080fd5b60175460ff1615611bf357506001610fff565b42611bfd83611248565b1115611c0b57506001610fff565b506000610fff565b600090815260186020526040902054608060a060020a90910460ff161190565b600160a060020a031660009081526019602052604090205490565b6000611c59336112e2565b80611c6e5750600d54600160a060020a031633145b1515611c7957600080fd5b600160a060020a03821660009081526019602052604090205415611c9c57600080fd5b611ca782600161287d565b600e54604080517f40c10f190000000000000000000000000000000000000000000000000000000081523360048201526509184e72a00060248201529051600160a060020a03909216916340c10f19916044808201926020929091908290030181600087803b158015611d1957600080fd5b505af1158015611d2d573d6000803e3d6000fd5b505050506040513d6020811015611d4357600080fd5b5060019392505050565b60175460ff1681565b611d5e612991565b331515611d6a57600080fd5b600160000154600160a060020a0316331480611d9257506001800154600160a060020a031633145b80611daa5750600160020154600160a060020a031633145b80611dc25750600160030154600160a060020a031633145b1515611dcd57600080fd5b6040805161010081019182905260058054600160a060020a031682529091600890600660208501808311611795575050505050905090565b600080805b6010548111611e325742611e1d82611248565b1115611e2a576001820191505b600101611e0a565b50905090565b60125481565b60165481565b331515611e5057600080fd5b600160000154600160a060020a0316331480611e7857506001800154600160a060020a031633145b80611e905750600160020154600160a060020a031633145b80611ea85750600160030154600160a060020a031633145b1515611eb357600080fd5b600160a060020a0381161515611eea57600054600d8054600160a060020a031916600160a060020a03909216919091179055611f06565b600d8054600160a060020a031916600160a060020a0383161790555b50565b6000600160a060020a0382161515611f2057600080fd5b600160a060020a0382166000908152601960205260409020546118cf90611bb6565b60008181526018602052604081206001015460609110611f6157600080fd5b60008281526018602090815260409182902060040180548351601f600260001961010060018616150201909316929092049182018490048402810184019094528084529091830182828015611ff75780601f10611fcc57610100808354040283529160200191611ff7565b820191906000526020600020905b815481529060010190602001808311611fda57829003601f168201915b50505050509050919050565b600033151561201157600080fd5b600160000154600160a060020a031633148061203957506001800154600160a060020a031633145b806120515750600160020154600160a060020a031633145b806120695750600160030154600160a060020a031633145b151561207457600080fd5b600182101561208257600080fd5b5060155542601381905590565b600033151561209d57600080fd5b601b60000154600160a060020a03163314806120c65750601b60010154600160a060020a031633145b806120de5750601b60020154600160a060020a031633145b806120f65750601b60030154600160a060020a031633145b8061210e5750601b60040154600160a060020a031633145b806121265750601b60050154600160a060020a031633145b8061213e5750601b60060154600160a060020a031633145b806121565750601b60070154600160a060020a031633145b8061216e5750601b60080154600160a060020a031633145b806121865750601b60090154600160a060020a031633145b8061219e5750601b600a0154600160a060020a031633145b806121b65750601b600b0154600160a060020a031633145b806121ce5750601b600c0154600160a060020a031633145b806121e65750601b600d0154600160a060020a031633145b806121fe5750601b600e0154600160a060020a031633145b806122165750601b600f0154600160a060020a031633145b151561222157600080fd5b6000838152601860205260408120600101541161223d57600080fd5b60125460008481526018602052604090206001015401821061225e57600080fd5b5060009182526018602052604090912060020181905590565b600033151561228557600080fd5b600160000154600160a060020a03163314806122ad57506001800154600160a060020a031633145b806122c55750600160020154600160a060020a031633145b806122dd5750600560000154600160a060020a031633145b806122f55750600560010154600160a060020a031633145b8061230d5750600560020154600160a060020a031633145b806123255750600560030154600160a060020a031633145b8061233d5750600560040154600160a060020a031633145b8061235457506005800154600160a060020a031633145b8061236c5750600560060154600160a060020a031633145b806123845750600560070154600160a060020a031633145b151561238f57600080fd5b6000838152601860205260408120600101541180156123c45750600083815260186020526040902054600160a060020a031615155b15156123cf57600080fd5b5060009182526018602052604090912060030155600190565b6001816004811061122b57fe5b600033151561240357600080fd5b600160000154600160a060020a031633148061242b57506001800154600160a060020a031633145b806124435750600160020154600160a060020a031633145b8061245b5750600160030154600160a060020a031633145b151561246657600080fd5b600160a060020a038316151561247b57600080fd5b6000601b836010811061248a57fe5b0154600160a060020a031614156124a057600080fd5b6000601b83601081106124af57fe5b0154600160a060020a0316905083601b8460108110610e0b57fe5b3315156124d657600080fd5b600160000154600160a060020a03163314806124fe57506001800154600160a060020a031633145b806125165750600160020154600160a060020a031633145b8061252e5750600160030154600160a060020a031633145b151561253957600080fd5b600160a060020a038216151561254e57600080fd5b816005826008811061255c57fe5b018054600160a060020a031916600160a060020a03929092169190911790555050565b33151561258b57600080fd5b600160000154600160a060020a03163314806125b357506001800154600160a060020a031633145b806125cb5750600160020154600160a060020a031633145b806125e35750600560000154600160a060020a031633145b806125fb5750600560010154600160a060020a031633145b806126135750600560020154600160a060020a031633145b8061262b5750600560030154600160a060020a031633145b806126435750600560040154600160a060020a031633145b8061265a57506005800154600160a060020a031633145b806126725750600560060154600160a060020a031633145b8061268a5750600560070154600160a060020a031633145b151561269557600080fd5b600083815260186020526040812060010154116126b157600080fd5b60008381526018602052604090206126cd9060040183836129b1565b50505050565b3315156126df57600080fd5b600160000154600160a060020a031633148061270757506001800154600160a060020a031633145b8061271f5750600160020154600160a060020a031633145b806127375750600160030154600160a060020a031633145b151561274257600080fd5b600e8054600160a060020a031916600160a060020a0392909216919091179055565b60115481565b60105481565b600081158015906127975750600082815260186020526040902054600160a060020a031615155b15611c0b57506001610fff565b600160a060020a031660009081526019602090815260408083205483526018909152902054608060a060020a90910460ff161190565b60006127e582611896565b15156001146127f357600080fd5b506001919050565b600081815260186020526040812054608060a060020a90910460ff1611156128605760008281526018602052604090208054607f1960ff60a060020a808404821692909201160274ff0000000000000000000000000000000000000000199091161790555b5060009081526018602052604090205460a060020a900460ff1690565b60108054600190810191829055600160a060020a038481166000818152601960209081526040808320879055805160c08101825293845260ff8881168584019081524286840190815260608701868152608088018781528551808801875288815260a08a019081529b88526018875294909620875181549351600160a060020a031990941699169890981774ff0000000000000000000000000000000000000000191660a060020a92909316919091029190911786555195850195909555905160028401559251600383015592518051919261296192600485019290910190612a2f565b5050601580546001019055505050565b610200604051908101604052806010906020820280388339509192915050565b610100604051908101604052806008906020820280388339509192915050565b828054600181600116156101000203166002900490600052602060002090601f016020900481019282601f106129f25782800160ff19823516178555612a1f565b82800160010185558215612a1f579182015b82811115612a1f578235825591602001919060010190612a04565b50612a2b929150612a9d565b5090565b828054600181600116156101000203166002900490600052602060002090601f016020900481019282601f10612a7057805160ff1916838001178555612a1f565b82800160010185558215612a1f579182015b82811115612a1f578251825591602001919060010190612a82565b610f0a91905b80821115612a2b5760008155600101612aa356fea165627a7a72305820543e46a3a9c5a54a751439508b977a4a3ab00939e76f7b54e6be05edb87bada70029",
  "source": "pragma solidity ^0.5.2;\n\nimport \"./Interfaces/QOTInterface.sol\";\n\n// TODO: check integer overflow\n\ncontract MemberShip {\n    address public owner;\n    address[4] public coreManagers;\n    address[8] public managers;\n    address public accManager;  // can only giveMembership() and buyMembership()\n    address public QOTAddr;\n    address public flagContractAddr;\n    uint public totalId;  // id 0 is not used and will start from 1\n    uint public fee = 0.01 ether;\n    // uint public memberPeriod = 160000;  // 40000 blocks ~ a week in rinkeby, for test only\n    uint public memberPeriod = 30 days;\n    uint public lastMemberCountUpdateTime;  // use this to prevent too frequent update; see updateActiveMemberCount()\n    bool public paused;\n    uint public activeMemberCount;  // need to call function to update this value\n    uint public curationMinQOTholding = 50000000000000;  // 50 QOT\n    bool public neverExpire = true;  // set it to false to charge\n\n    struct MemberInfo {\n        address addr;\n        uint8 tier;  // 8 bit of choices. Default tier is 1; tier>128 are vip (i.e., highest bit is 1). 0 and 128 are not used\n                     // update 2019 Sep 18: tier 129 and above are now \"publisher\". Keep existing code, so \"vip\" = \"publisher\"\n        uint since;  // beginning block.timestamp of previous membership\n        uint penalty;  // the membership is valid until: since + memberPeriod - penalty;\n        bytes32 kycid;  // know your customer id, leave it for future\n        string notes;\n    }\n\n    mapping (uint => MemberInfo) internal memberDB;  // id to MemberInfo\n    mapping (address => uint) internal addressToId;  // address to membership\n    uint public vipMemberBonus = 3650 days;\n\n    address[16] public appWhitelist;\n\n    constructor(address _QOTAddr) public {\n        owner = msg.sender;\n        coreManagers = [0xB440ea2780614b3c6a00e512f432785E7dfAFA3E,\n                        0x4AD56641C569C91C64C28a904cda50AE5326Da41,\n                        0xaF7400787c54422Be8B44154B1273661f1259CcD,\n                        address(0)\n        ];\n        managers = [address(0), address(0), address(0), address(0), address(0), address(0), address(0), address(0)];\n        appWhitelist = [\n            address(0), address(0), address(0), address(0), address(0), address(0), address(0), address(0),\n            address(0), address(0), address(0), address(0), address(0), address(0), address(0), address(0)\n        ];\n        QOTAddr = _QOTAddr;\n\n        for (uint8 i=0; i<3; i++){  // first 3 coreManagers have highest priviledge\n            _assignMembership(coreManagers[i], 255);\n            appWhitelist[i] = coreManagers[i];\n        }\n        assert(totalId == 3);\n        activeMemberCount = 3;  // manually set an initial value\n        lastMemberCountUpdateTime = block.timestamp;\n    }\n\n    modifier ownerOnly() {\n        require(msg.sender == owner);\n        _;\n    }\n\n    modifier coreManagerOnly() {\n        require(msg.sender != address(0));\n        require(msg.sender == coreManagers[0] || msg.sender == coreManagers[1] || msg.sender == coreManagers[2]  ||\n                msg.sender == coreManagers[3]);\n        _;\n    }\n\n    modifier managerOnly() {\n        require(msg.sender != address(0));\n        require(msg.sender == coreManagers[0] || msg.sender == coreManagers[1] || msg.sender == coreManagers[2] ||\n                msg.sender == managers[0] || msg.sender == managers[1] || msg.sender == managers[2] ||\n                msg.sender == managers[3] || msg.sender == managers[4] || msg.sender == managers[5] ||\n                msg.sender == managers[6] || msg.sender == managers[7]);\n        _;\n    }\n\n    modifier feePaid() {\n        require(msg.value >= fee);  // or \"==\"?\n        _;\n    }\n\n    modifier isMember() {\n        require(msg.sender != address(0));\n        require(addressToId[msg.sender] != 0);\n        require(memberDB[addressToId[msg.sender]].since > 0);\n        _;\n    }\n\n    modifier isActiveMember() {\n        require(msg.sender != address(0));\n        uint _id = addressToId[msg.sender];\n        require(_id != 0);\n        require(idExpireTime(_id) > block.timestamp);\n        _;\n    }\n\n    modifier isAppWhitelist() {\n        require(msg.sender != address(0));\n        require(msg.sender == appWhitelist[0] || msg.sender == appWhitelist[1] || msg.sender == appWhitelist[2] ||\n                msg.sender == appWhitelist[3] || msg.sender == appWhitelist[4] || msg.sender == appWhitelist[5] ||\n                msg.sender == appWhitelist[6] || msg.sender == appWhitelist[7] || msg.sender == appWhitelist[8] ||\n                msg.sender == appWhitelist[9] || msg.sender == appWhitelist[10] || msg.sender == appWhitelist[11] ||\n                msg.sender == appWhitelist[12] || msg.sender == appWhitelist[13] || msg.sender == appWhitelist[14] ||\n                msg.sender == appWhitelist[15]\n               );\n        _;\n    }\n\n    modifier whenNotPaused() {\n        require(!paused);\n        _;\n    }\n\n    modifier whenPaused() {\n        require(paused);\n        _;\n    }\n\n    // membership\n    // TODO: payment and tier. How to design tier and payment and member period and other functions.\n    // TODO: check how to migrate these data from Rinkeby to main chain. Basically read the state,\n    //       semi-automatically generate a deploy file, then write to main chain. Acutually I can\n    //       try it from rinkeby to rinkeby!\n\n    function airdrop(address _to, uint _amount) public returns(bool){\n        require(isCoreManager(msg.sender) || msg.sender == accManager);\n        require(_amount > 100000000000);  // 0.1 QOT; fool-proof\n        require(_amount < 500000000000000);  // 500 QOT\n        QOTInterface(QOTAddr).mint(_to, _amount);\n        return true;\n    }\n\n    function giveMembership(address buyer) public returns(bool) {\n        require(isCoreManager(msg.sender) || msg.sender == accManager);\n        require(addressToId[buyer] == 0);  // the user is not yet a member\n        _assignMembership(buyer, 1);\n        QOTInterface(QOTAddr).mint(msg.sender, 10000000000000);  // 10 QOT\n        return true;\n    }\n\n    function buyMembership() public payable feePaid whenNotPaused returns (bool) {\n        require(isCoreManager(msg.sender) || msg.sender == accManager);\n        require(addressToId[msg.sender] == 0);  // the user is not yet a member\n        // TODO?: uint8 _tier = determineTier(msg.sender); _assignMembership(msg.sender, _tier);\n        _assignMembership(msg.sender, 1);\n        QOTInterface(QOTAddr).mint(msg.sender, 10000000000000);  // 10 QOT\n        return true;\n    }\n\n    function _assignMembership(address _addr, uint8 _tier) internal {\n        totalId += 1;  // make it start from 1\n        addressToId[_addr] = totalId;\n        memberDB[totalId] = MemberInfo(_addr, _tier, block.timestamp, 0, bytes32(0), \"\");\n        activeMemberCount += 1;\n    }\n\n    function renewMembership() public payable feePaid isMember whenNotPaused returns (uint) {\n        uint _id = addressToId[msg.sender];\n        uint _bonus;\n        if (isVipTier(_id)) {\n            _bonus = vipMemberBonus;\n        }\n        require(block.timestamp > idExpireTime(_id) - 7 days);\n\n        // renew membership (and remove vip tier if possible)\n        memberDB[_id].since = block.timestamp;\n        _removeVipTier(_id);\n        return (block.timestamp + memberPeriod + _bonus);  // return expire time\n    }\n\n    function helpRenewMembership(address _addr) public returns (uint) {\n        require(isCoreManager(msg.sender) || msg.sender == accManager);\n        uint _id = addressToId[_addr];\n        require(idIsMember(_id));\n        uint _bonus;\n        if (isVipTier(_id)) {\n            _bonus = vipMemberBonus;\n        }\n        require(block.timestamp > idExpireTime(_id) - 7 days);\n\n        // renew membership (and remove vip tier if possible)\n        memberDB[_id].since = block.timestamp;\n        _removeVipTier(_id);\n        return (block.timestamp + memberPeriod + _bonus);  // return expire time\n    }\n\n    function updateTier(uint8 _tier, address _addr) public coreManagerOnly returns(bool){\n        // should eventually use `determineTier(_addr)` and remove the `_tier` argument\n        require(addrIsMember(_addr));  // or addrIsActiveMember()?\n        require(_tier != 0 && _tier != 128);  // 0 and 128 are not used\n        // TODO: determine tier base on the amount of QOT the member owns;\n        // Q: Users call this function?\n        // Q: should the sufficient amount of QOT \"locked\" in a pool for enough time?\n        // Q: Is downgrade tier happen here? Or only while renewMembership()?\n        uint _id = addressToId[_addr];\n        memberDB[_id].tier = _tier;\n        return true;\n    }\n\n    function determineTier(address _addr) public view returns(uint8) {\n        require(addrIsMember(_addr) == true);\n        uint8 tier=1;  // the basic tier\n        // uint _bal = QOTInterface(QOTAddr).balanceOf(_addr);\n        // TODO: depend of _bal and give a tier?\n        return tier;\n    }\n\n    function isVipTier(uint _id) public view returns(bool){\n        return(memberDB[_id].tier > 128);  // tier 128 should not exist\n    }\n\n    function addrIsVipTier(address _addr) public view returns(bool){\n        return(memberDB[addressToId[_addr]].tier > 128);  // tier 128 should not exist\n    }\n\n    function _removeVipTier(uint _id) internal returns(uint8) {\n        // don't do any check, assume the _id is already member\n        if (memberDB[_id].tier > 128) {\n            memberDB[_id].tier = memberDB[_id].tier - 128;\n        }\n        return memberDB[_id].tier;\n    }\n\n    function assginKYCid(uint _id, bytes32 _kycid) external managerOnly returns (bool) {\n        // instead of \"managerOnly\", probably add another group to do that\n        require(memberDB[_id].since > 0 && memberDB[_id].addr != address(0));\n        memberDB[_id].kycid = _kycid;\n        return true;\n    }\n\n    function addAppWhitelist(address _addr, uint _idx) public coreManagerOnly returns (bool) {\n        require(_addr != address(0));\n        require(appWhitelist[_idx] == address(0));\n        appWhitelist[_idx] = _addr;\n        return true;\n    }\n\n    function replaceAppWhitelist(address _addr, uint _idx) public coreManagerOnly returns (address) {\n        require(_addr != address(0));\n        require(appWhitelist[_idx] != address(0));\n        address _addrorig = appWhitelist[_idx];\n        appWhitelist[_idx] = _addr;\n        return _addrorig;\n    }\n\n    function rmAppWhitelist(uint _idx) public coreManagerOnly returns (address) {\n        require(appWhitelist[_idx] != address(0));\n        address _addr = appWhitelist[_idx];\n        delete appWhitelist[_idx];\n        return _addr;\n    }\n\n    function getAppWhitelist() external view managerOnly returns (address[16] memory) {\n        return appWhitelist;\n    }\n\n    function addPenalty(uint _id, uint _penalty) external isAppWhitelist returns (uint) {\n        require(memberDB[_id].since > 0);  // is a member\n        require(_penalty < memberDB[_id].since + memberPeriod);  // prevent overflow while calculate idExpireTime(_id)\n        // require(_penalty < memberPeriod);  // or, can we ban someone for many memberPeriods?\n        // require(_penalty < 3*memberPeriod);\n        // or, only core manager can set a really large _panalty (like 6 months or more) for extreme case\n        memberDB[_id].penalty = _penalty;\n\n        return memberDB[_id].penalty;\n    }\n\n    function readNotes(uint _id) external view returns (string memory) {\n        require(memberDB[_id].since > 0);\n        return memberDB[_id].notes;\n    }\n\n    function addNotes(uint _id, string calldata _notes) external managerOnly {\n        require(memberDB[_id].since > 0);\n        memberDB[_id].notes = _notes;\n    }\n\n    // some query functions\n    function addrIsMember(address _addr) public view returns (bool) {\n        require(_addr != address(0));\n        return idIsMember(addressToId[_addr]);\n    }\n\n    function addrIsActiveMember(address _addr) public view returns (bool) {\n        require(_addr != address(0));\n        return idIsActiveMember(addressToId[_addr]);\n    }\n\n    function idIsMember(uint _id) public view returns (bool) {\n        if (_id != 0 && memberDB[_id].addr != address(0)) {\n            return true;\n        } else {\n            return false;\n        }\n    }\n\n    function idIsActiveMember(uint _id) public view returns (bool) {\n        require (_id != 0 || memberDB[_id].since > 0);\n        if (neverExpire) {\n            return true;\n        } else {\n            if (idExpireTime(_id) > block.timestamp) {\n                return true;  // not yet expire\n            } else {\n                return false;\n            }\n        }\n    }\n\n    function idExpireTime(uint _id) public view returns (uint) {\n        uint _bonus;\n        if (isVipTier(_id)) {\n            _bonus = vipMemberBonus;\n        }\n        uint _expectTime = memberDB[_id].since + memberPeriod + _bonus;\n        if (_expectTime > memberDB[_id].penalty) {\n            return _expectTime - memberDB[_id].penalty;\n        } else {\n            return 0;\n        }\n    }\n\n    function addrExpireTime(address _addr) external view returns (uint) {\n        uint _id = addressToId[_addr];\n        uint _bonus;\n        if (isVipTier(_id)) {\n            _bonus = vipMemberBonus;\n        }\n        uint _expectTime = memberDB[_id].since + memberPeriod + _bonus;\n        if (_expectTime > memberDB[_id].penalty) {\n            return _expectTime - memberDB[_id].penalty;\n        } else {\n            return 0;\n        }\n    }\n\n    function addrToId(address _addr) external view returns (uint) {\n        return addressToId[_addr];\n    }\n\n    function getMemberInfo(address _addr) external view returns (uint, bytes32, uint, uint, bytes32, uint8, uint){\n        uint _id = addressToId[_addr];\n        uint status;  // 0=connection error, 1=active, 2=inactive, 3=not member\n        uint _expireTime = idExpireTime(_id);\n        if (_id == 0) {\n            status = 3;\n        } else {\n            if (idIsActiveMember(_id)){\n                status = 1;\n            } else {\n                status = 2;\n            }\n        }\n        return (status, bytes32(_id), memberDB[_id].since, memberDB[_id].penalty, memberDB[_id].kycid, memberDB[_id].tier, _expireTime);\n    }\n\n    function getActiveMemberCount() external view returns (uint){\n        return activeMemberCount;\n    }\n\n    function getLastMemberCountUpdateTime() external view returns (uint){\n        return lastMemberCountUpdateTime;\n    }\n\n    function updateActiveMemberCount(uint _count) public coreManagerOnly returns (uint){\n        // coreManagers should provide values base on countActiveMembers()\n        require(_count >= 1);\n        activeMemberCount = _count;\n        lastMemberCountUpdateTime = block.timestamp;\n        return lastMemberCountUpdateTime;\n    }\n\n    function countActiveMembers() public view returns (uint) {\n        // this is probably meaningless if \"neverExpire\" is true\n        uint _count = 0;\n        for (uint i = 0; i <= totalId; i++) {\n            if (idExpireTime(i) > block.timestamp) {\n                _count += 1;\n            }\n        }\n        return _count;\n    }\n\n    function isCoreManager(address _addr) public view returns (bool) {\n        if (_addr == address(0)) {\n            return false;\n        } else {\n            return (_addr == coreManagers[0] || _addr == coreManagers[1] || _addr == coreManagers[2]  ||\n                    _addr == coreManagers[3]);\n        }\n    }\n\n    // function _isMember(address _addr) internal view returns(bool){\n    //     if (_addr == address(0)) {\n    //         return false;\n    //     } else {\n    //         return (addressToId[_addr] != 0 && memberDB[addressToId[_addr]].since > 0);\n    // }\n\n    // upgradable\n    function pause() external coreManagerOnly whenNotPaused {\n        paused = true;\n    }\n\n    function unpause() public ownerOnly whenPaused {\n        // set to ownerOnly in case accounts of other managers are compromised\n        paused = false;\n    }\n\n    function setNeverExpire(bool _neverExpire) public coreManagerOnly returns(bool) {\n        neverExpire = _neverExpire;\n        return true;\n    }\n\n    function updateOwner(address _addr) public ownerOnly {\n        require(_addr != address(0));\n        require(addrIsActiveMember(_addr));\n        owner = _addr;\n    }\n\n    function updateManager(address _addr, uint _id) public coreManagerOnly {\n        // \"managers\" can assign KYC id\n        require(_addr != address(0));\n        managers[_id] = _addr;\n    }\n\n    function updateCoreManager(address _addr, uint _id) public ownerOnly returns(address){\n        require(_addr != address(0) && _id < 4);  // max 4 core managers\n        address prevCM = coreManagers[_id];\n        coreManagers[_id] = _addr;\n        return prevCM;\n    }\n\n    function updateAccManager(address _addr) public coreManagerOnly {\n        if (_addr == address(0)) {\n            accManager = owner;\n        } else {\n            accManager = _addr;\n        }\n    }\n\n    function getManagers() external view coreManagerOnly returns(address[8] memory) {\n        return managers;\n    }\n\n    function updateQOTAddr(address _addr) external coreManagerOnly {\n        QOTAddr = _addr;\n    }\n\n    function updateCurationMinQOTholding(uint _qotAmount) external {\n        require(isCoreManager(msg.sender) || msg.sender == flagContractAddr);\n        // require(_qotAmount >= 1000000000000);  // TODO: could it be zero?\n        curationMinQOTholding = _qotAmount;\n    }\n\n    function setFlagContractAddr(address _addr) public managerOnly returns(bool) {\n        // require(_addr != 0); // can be address(0) in the beginning\n        flagContractAddr = _addr;\n        return true;\n    }\n\n}\n",
  "sourcePath": "/home/kai/Work/project/OptractContract/contracts/MemberShip.sol",
  "compiler": {
    "name": "solc",
    "version": "0.5.2+commit.1df8f40c.Linux.g++"
  },
  "schemaVersion": "3.0.16",
  "updatedAt": "2019-10-25T01:39:57.755Z",
  "devdoc": {
    "methods": {}
  },
  "userdoc": {
    "methods": {}
  }
}