{
  "contractName": "MemberShip",
  "abi": [
    {
      "constant": true,
      "inputs": [],
      "name": "vipMemberBonus",
      "outputs": [
        {
          "name": "",
          "type": "uint256"
        }
      ],
      "payable": false,
      "stateMutability": "view",
      "type": "function",
      "signature": "0x19c944bb"
    },
    {
      "constant": true,
      "inputs": [],
      "name": "QOTAddr",
      "outputs": [
        {
          "name": "",
          "type": "address"
        }
      ],
      "payable": false,
      "stateMutability": "view",
      "type": "function",
      "signature": "0x21a8770d"
    },
    {
      "constant": true,
      "inputs": [],
      "name": "lastMemberCountUpdate",
      "outputs": [
        {
          "name": "",
          "type": "uint256"
        }
      ],
      "payable": false,
      "stateMutability": "view",
      "type": "function",
      "signature": "0x24633212"
    },
    {
      "constant": true,
      "inputs": [
        {
          "name": "",
          "type": "uint256"
        }
      ],
      "name": "appWhitelist",
      "outputs": [
        {
          "name": "",
          "type": "address"
        }
      ],
      "payable": false,
      "stateMutability": "view",
      "type": "function",
      "signature": "0x3c94125a"
    },
    {
      "constant": true,
      "inputs": [
        {
          "name": "",
          "type": "uint256"
        }
      ],
      "name": "managers",
      "outputs": [
        {
          "name": "",
          "type": "address"
        }
      ],
      "payable": false,
      "stateMutability": "view",
      "type": "function",
      "signature": "0x3d39c260"
    },
    {
      "constant": true,
      "inputs": [],
      "name": "paused",
      "outputs": [
        {
          "name": "",
          "type": "bool"
        }
      ],
      "payable": false,
      "stateMutability": "view",
      "type": "function",
      "signature": "0x5c975abb"
    },
    {
      "constant": true,
      "inputs": [],
      "name": "activeMemberCount",
      "outputs": [
        {
          "name": "",
          "type": "uint256"
        }
      ],
      "payable": false,
      "stateMutability": "view",
      "type": "function",
      "signature": "0x5fb6c6ed"
    },
    {
      "constant": true,
      "inputs": [],
      "name": "owner",
      "outputs": [
        {
          "name": "",
          "type": "address"
        }
      ],
      "payable": false,
      "stateMutability": "view",
      "type": "function",
      "signature": "0x8da5cb5b"
    },
    {
      "constant": true,
      "inputs": [],
      "name": "memberPeriod",
      "outputs": [
        {
          "name": "",
          "type": "uint256"
        }
      ],
      "payable": false,
      "stateMutability": "view",
      "type": "function",
      "signature": "0xaba35b72"
    },
    {
      "constant": true,
      "inputs": [
        {
          "name": "",
          "type": "uint256"
        }
      ],
      "name": "coreManagers",
      "outputs": [
        {
          "name": "",
          "type": "address"
        }
      ],
      "payable": false,
      "stateMutability": "view",
      "type": "function",
      "signature": "0xcc523d37"
    },
    {
      "constant": true,
      "inputs": [],
      "name": "fee",
      "outputs": [
        {
          "name": "",
          "type": "uint256"
        }
      ],
      "payable": false,
      "stateMutability": "view",
      "type": "function",
      "signature": "0xddca3f43"
    },
    {
      "constant": true,
      "inputs": [],
      "name": "totalId",
      "outputs": [
        {
          "name": "",
          "type": "uint256"
        }
      ],
      "payable": false,
      "stateMutability": "view",
      "type": "function",
      "signature": "0xe8826565"
    },
    {
      "inputs": [
        {
          "name": "_QOTAddr",
          "type": "address"
        }
      ],
      "payable": false,
      "stateMutability": "nonpayable",
      "type": "constructor",
      "signature": "constructor"
    },
    {
      "constant": false,
      "inputs": [],
      "name": "buyMembership",
      "outputs": [
        {
          "name": "",
          "type": "bool"
        }
      ],
      "payable": true,
      "stateMutability": "payable",
      "type": "function",
      "signature": "0x5c581119"
    },
    {
      "constant": false,
      "inputs": [],
      "name": "renewMembership",
      "outputs": [
        {
          "name": "",
          "type": "uint256"
        }
      ],
      "payable": true,
      "stateMutability": "payable",
      "type": "function",
      "signature": "0x0933b939"
    },
    {
      "constant": false,
      "inputs": [
        {
          "name": "_tier",
          "type": "uint8"
        },
        {
          "name": "_addr",
          "type": "address"
        }
      ],
      "name": "updateTier",
      "outputs": [
        {
          "name": "",
          "type": "bool"
        }
      ],
      "payable": false,
      "stateMutability": "nonpayable",
      "type": "function",
      "signature": "0x30bbe91b"
    },
    {
      "constant": true,
      "inputs": [
        {
          "name": "_addr",
          "type": "address"
        }
      ],
      "name": "determineTier",
      "outputs": [
        {
          "name": "",
          "type": "uint8"
        }
      ],
      "payable": false,
      "stateMutability": "view",
      "type": "function",
      "signature": "0xfdd9052b"
    },
    {
      "constant": true,
      "inputs": [
        {
          "name": "_id",
          "type": "uint256"
        }
      ],
      "name": "isVipTier",
      "outputs": [
        {
          "name": "",
          "type": "bool"
        }
      ],
      "payable": false,
      "stateMutability": "view",
      "type": "function",
      "signature": "0x9e7151ff"
    },
    {
      "constant": false,
      "inputs": [
        {
          "name": "_id",
          "type": "uint256"
        },
        {
          "name": "_kycid",
          "type": "bytes32"
        }
      ],
      "name": "assginKYCid",
      "outputs": [
        {
          "name": "",
          "type": "bool"
        }
      ],
      "payable": false,
      "stateMutability": "nonpayable",
      "type": "function",
      "signature": "0xc9a69336"
    },
    {
      "constant": false,
      "inputs": [
        {
          "name": "_addr",
          "type": "address"
        },
        {
          "name": "_idx",
          "type": "uint256"
        }
      ],
      "name": "addAppWhitelist",
      "outputs": [
        {
          "name": "",
          "type": "bool"
        }
      ],
      "payable": false,
      "stateMutability": "nonpayable",
      "type": "function",
      "signature": "0x858288ce"
    },
    {
      "constant": false,
      "inputs": [
        {
          "name": "_addr",
          "type": "address"
        },
        {
          "name": "_idx",
          "type": "uint256"
        }
      ],
      "name": "replaceAppWhitelist",
      "outputs": [
        {
          "name": "",
          "type": "address"
        }
      ],
      "payable": false,
      "stateMutability": "nonpayable",
      "type": "function",
      "signature": "0xd65060a5"
    },
    {
      "constant": false,
      "inputs": [
        {
          "name": "_idx",
          "type": "uint256"
        }
      ],
      "name": "rmAppWhitelist",
      "outputs": [
        {
          "name": "",
          "type": "address"
        }
      ],
      "payable": false,
      "stateMutability": "nonpayable",
      "type": "function",
      "signature": "0x6d27f417"
    },
    {
      "constant": true,
      "inputs": [],
      "name": "getAppWhitelist",
      "outputs": [
        {
          "name": "",
          "type": "address[16]"
        }
      ],
      "payable": false,
      "stateMutability": "view",
      "type": "function",
      "signature": "0x698441f2"
    },
    {
      "constant": false,
      "inputs": [
        {
          "name": "_id",
          "type": "uint256"
        },
        {
          "name": "_penalty",
          "type": "uint256"
        }
      ],
      "name": "addPenalty",
      "outputs": [
        {
          "name": "",
          "type": "uint256"
        }
      ],
      "payable": false,
      "stateMutability": "nonpayable",
      "type": "function",
      "signature": "0xc6906749"
    },
    {
      "constant": true,
      "inputs": [
        {
          "name": "_id",
          "type": "uint256"
        }
      ],
      "name": "readNotes",
      "outputs": [
        {
          "name": "",
          "type": "string"
        }
      ],
      "payable": false,
      "stateMutability": "view",
      "type": "function",
      "signature": "0xc449b262"
    },
    {
      "constant": false,
      "inputs": [
        {
          "name": "_id",
          "type": "uint256"
        },
        {
          "name": "_notes",
          "type": "string"
        }
      ],
      "name": "addNotes",
      "outputs": [],
      "payable": false,
      "stateMutability": "nonpayable",
      "type": "function",
      "signature": "0xd9ed28b7"
    },
    {
      "constant": true,
      "inputs": [
        {
          "name": "_addr",
          "type": "address"
        }
      ],
      "name": "addrIsMember",
      "outputs": [
        {
          "name": "",
          "type": "bool"
        }
      ],
      "payable": false,
      "stateMutability": "view",
      "type": "function",
      "signature": "0x7a7d32e5"
    },
    {
      "constant": true,
      "inputs": [
        {
          "name": "_addr",
          "type": "address"
        }
      ],
      "name": "addrIsActiveMember",
      "outputs": [
        {
          "name": "",
          "type": "bool"
        }
      ],
      "payable": false,
      "stateMutability": "view",
      "type": "function",
      "signature": "0xc41a32ec"
    },
    {
      "constant": true,
      "inputs": [
        {
          "name": "_id",
          "type": "uint256"
        }
      ],
      "name": "idIsMember",
      "outputs": [
        {
          "name": "",
          "type": "bool"
        }
      ],
      "payable": false,
      "stateMutability": "view",
      "type": "function",
      "signature": "0xf3334ed8"
    },
    {
      "constant": true,
      "inputs": [
        {
          "name": "_id",
          "type": "uint256"
        }
      ],
      "name": "idIsActiveMember",
      "outputs": [
        {
          "name": "",
          "type": "bool"
        }
      ],
      "payable": false,
      "stateMutability": "view",
      "type": "function",
      "signature": "0x9dd9d6d5"
    },
    {
      "constant": true,
      "inputs": [
        {
          "name": "_id",
          "type": "uint256"
        }
      ],
      "name": "idExpireTime",
      "outputs": [
        {
          "name": "",
          "type": "uint256"
        }
      ],
      "payable": false,
      "stateMutability": "view",
      "type": "function",
      "signature": "0x3d9d5a7a"
    },
    {
      "constant": true,
      "inputs": [
        {
          "name": "_addr",
          "type": "address"
        }
      ],
      "name": "addrExpireTime",
      "outputs": [
        {
          "name": "",
          "type": "uint256"
        }
      ],
      "payable": false,
      "stateMutability": "view",
      "type": "function",
      "signature": "0x32de3509"
    },
    {
      "constant": true,
      "inputs": [
        {
          "name": "_addr",
          "type": "address"
        }
      ],
      "name": "addrToId",
      "outputs": [
        {
          "name": "",
          "type": "uint256"
        }
      ],
      "payable": false,
      "stateMutability": "view",
      "type": "function",
      "signature": "0xa33c4df1"
    },
    {
      "constant": true,
      "inputs": [
        {
          "name": "_addr",
          "type": "address"
        }
      ],
      "name": "getMemberInfo",
      "outputs": [
        {
          "name": "",
          "type": "uint256"
        },
        {
          "name": "",
          "type": "bytes32"
        },
        {
          "name": "",
          "type": "uint256"
        },
        {
          "name": "",
          "type": "uint256"
        },
        {
          "name": "",
          "type": "bytes32"
        },
        {
          "name": "",
          "type": "uint8"
        },
        {
          "name": "",
          "type": "uint256"
        }
      ],
      "payable": false,
      "stateMutability": "view",
      "type": "function",
      "signature": "0x5f1231ea"
    },
    {
      "constant": true,
      "inputs": [],
      "name": "getActiveMemberCount",
      "outputs": [
        {
          "name": "",
          "type": "uint256"
        }
      ],
      "payable": false,
      "stateMutability": "view",
      "type": "function",
      "signature": "0x22faa41f"
    },
    {
      "constant": false,
      "inputs": [
        {
          "name": "_forced",
          "type": "bool"
        }
      ],
      "name": "updateActiveMemberCount",
      "outputs": [
        {
          "name": "",
          "type": "uint256"
        }
      ],
      "payable": false,
      "stateMutability": "nonpayable",
      "type": "function",
      "signature": "0x47bda3d9"
    },
    {
      "constant": false,
      "inputs": [],
      "name": "pause",
      "outputs": [],
      "payable": false,
      "stateMutability": "nonpayable",
      "type": "function",
      "signature": "0x8456cb59"
    },
    {
      "constant": false,
      "inputs": [],
      "name": "unpause",
      "outputs": [],
      "payable": false,
      "stateMutability": "nonpayable",
      "type": "function",
      "signature": "0x3f4ba83a"
    },
    {
      "constant": false,
      "inputs": [
        {
          "name": "_addr",
          "type": "address"
        }
      ],
      "name": "updateOwner",
      "outputs": [],
      "payable": false,
      "stateMutability": "nonpayable",
      "type": "function",
      "signature": "0x880cdc31"
    },
    {
      "constant": false,
      "inputs": [
        {
          "name": "_addr",
          "type": "address"
        },
        {
          "name": "_id",
          "type": "uint256"
        }
      ],
      "name": "updateManager",
      "outputs": [],
      "payable": false,
      "stateMutability": "nonpayable",
      "type": "function",
      "signature": "0xd8de1066"
    },
    {
      "constant": true,
      "inputs": [],
      "name": "getManagers",
      "outputs": [
        {
          "name": "",
          "type": "address[8]"
        }
      ],
      "payable": false,
      "stateMutability": "view",
      "type": "function",
      "signature": "0xa8d088bb"
    },
    {
      "constant": false,
      "inputs": [
        {
          "name": "_addr",
          "type": "address"
        }
      ],
      "name": "updateQOTAddr",
      "outputs": [],
      "payable": false,
      "stateMutability": "nonpayable",
      "type": "function",
      "signature": "0xdb8cd254"
    }
  ],
  "bytecode": "0x6080604052662386f26fc10000600e5562278d00600f556312cc03006015553480156200002b57600080fd5b5060405160208062005959833981018060405260208110156200004d57600080fd5b8101908080519060200190929190505050336000806101000a81548173ffffffffffffffffffffffffffffffffffffffff021916908373ffffffffffffffffffffffffffffffffffffffff16021790555060606040519081016040528073b440ea2780614b3c6a00e512f432785e7dfafa3e73ffffffffffffffffffffffffffffffffffffffff1673ffffffffffffffffffffffffffffffffffffffff168152602001734ad56641c569c91c64c28a904cda50ae5326da4173ffffffffffffffffffffffffffffffffffffffff1673ffffffffffffffffffffffffffffffffffffffff16815260200173af7400787c54422be8b44154b1273661f1259ccd73ffffffffffffffffffffffffffffffffffffffff1673ffffffffffffffffffffffffffffffffffffffff1681525060019060036200018c92919062000964565b5061010060405190810160405280600073ffffffffffffffffffffffffffffffffffffffff1673ffffffffffffffffffffffffffffffffffffffff168152602001600073ffffffffffffffffffffffffffffffffffffffff1673ffffffffffffffffffffffffffffffffffffffff168152602001600073ffffffffffffffffffffffffffffffffffffffff1673ffffffffffffffffffffffffffffffffffffffff168152602001600073ffffffffffffffffffffffffffffffffffffffff1673ffffffffffffffffffffffffffffffffffffffff168152602001600073ffffffffffffffffffffffffffffffffffffffff1673ffffffffffffffffffffffffffffffffffffffff168152602001600073ffffffffffffffffffffffffffffffffffffffff1673ffffffffffffffffffffffffffffffffffffffff168152602001600073ffffffffffffffffffffffffffffffffffffffff1673ffffffffffffffffffffffffffffffffffffffff168152602001600073ffffffffffffffffffffffffffffffffffffffff1673ffffffffffffffffffffffffffffffffffffffff16815250600490600862000342929190620009e6565b5061020060405190810160405280600073ffffffffffffffffffffffffffffffffffffffff1673ffffffffffffffffffffffffffffffffffffffff168152602001600073ffffffffffffffffffffffffffffffffffffffff1673ffffffffffffffffffffffffffffffffffffffff168152602001600073ffffffffffffffffffffffffffffffffffffffff1673ffffffffffffffffffffffffffffffffffffffff168152602001600073ffffffffffffffffffffffffffffffffffffffff1673ffffffffffffffffffffffffffffffffffffffff168152602001600073ffffffffffffffffffffffffffffffffffffffff1673ffffffffffffffffffffffffffffffffffffffff168152602001600073ffffffffffffffffffffffffffffffffffffffff1673ffffffffffffffffffffffffffffffffffffffff168152602001600073ffffffffffffffffffffffffffffffffffffffff1673ffffffffffffffffffffffffffffffffffffffff168152602001600073ffffffffffffffffffffffffffffffffffffffff1673ffffffffffffffffffffffffffffffffffffffff168152602001600073ffffffffffffffffffffffffffffffffffffffff1673ffffffffffffffffffffffffffffffffffffffff168152602001600073ffffffffffffffffffffffffffffffffffffffff1673ffffffffffffffffffffffffffffffffffffffff168152602001600073ffffffffffffffffffffffffffffffffffffffff1673ffffffffffffffffffffffffffffffffffffffff168152602001600073ffffffffffffffffffffffffffffffffffffffff1673ffffffffffffffffffffffffffffffffffffffff168152602001600073ffffffffffffffffffffffffffffffffffffffff1673ffffffffffffffffffffffffffffffffffffffff168152602001600073ffffffffffffffffffffffffffffffffffffffff1673ffffffffffffffffffffffffffffffffffffffff168152602001600073ffffffffffffffffffffffffffffffffffffffff1673ffffffffffffffffffffffffffffffffffffffff168152602001600073ffffffffffffffffffffffffffffffffffffffff1673ffffffffffffffffffffffffffffffffffffffff1681525060169060106200069092919062000a68565b5080600c60006101000a81548173ffffffffffffffffffffffffffffffffffffffff021916908373ffffffffffffffffffffffffffffffffffffffff16021790555060008090505b60038160ff161015620007ca576200073560018260ff16600381101515620006fc57fe5b0160009054906101000a900473ffffffffffffffffffffffffffffffffffffffff1660ff620007f0640100000000026401000000009004565b60018160ff166003811015156200074857fe5b0160009054906101000a900473ffffffffffffffffffffffffffffffffffffffff1660168260ff166010811015156200077d57fe5b0160006101000a81548173ffffffffffffffffffffffffffffffffffffffff021916908373ffffffffffffffffffffffffffffffffffffffff1602179055508080600101915050620006d8565b506003600d54141515620007da57fe5b6003601281905550426010819055505062000bdf565b6001600d60008282540192505081905550600d54601460008473ffffffffffffffffffffffffffffffffffffffff1673ffffffffffffffffffffffffffffffffffffffff1681526020019081526020016000208190555060c0604051908101604052808373ffffffffffffffffffffffffffffffffffffffff1681526020018260ff1681526020014281526020016000815260200160006001028152602001602060405190810160405280600081525081525060136000600d54815260200190815260200160002060008201518160000160006101000a81548173ffffffffffffffffffffffffffffffffffffffff021916908373ffffffffffffffffffffffffffffffffffffffff16021790555060208201518160000160146101000a81548160ff021916908360ff16021790555060408201518160010155606082015181600201556080820151816003015560a08201518160040190805190602001906200095c92919062000aea565b509050505050565b8260038101928215620009d3579160200282015b82811115620009d25782518260006101000a81548173ffffffffffffffffffffffffffffffffffffffff021916908373ffffffffffffffffffffffffffffffffffffffff1602179055509160200191906001019062000978565b5b509050620009e2919062000b71565b5090565b826008810192821562000a55579160200282015b8281111562000a545782518260006101000a81548173ffffffffffffffffffffffffffffffffffffffff021916908373ffffffffffffffffffffffffffffffffffffffff16021790555091602001919060010190620009fa565b5b50905062000a64919062000b71565b5090565b826010810192821562000ad7579160200282015b8281111562000ad65782518260006101000a81548173ffffffffffffffffffffffffffffffffffffffff021916908373ffffffffffffffffffffffffffffffffffffffff1602179055509160200191906001019062000a7c565b5b50905062000ae6919062000b71565b5090565b828054600181600116156101000203166002900490600052602060002090601f016020900481019282601f1062000b2d57805160ff191683800117855562000b5e565b8280016001018555821562000b5e579182015b8281111562000b5d57825182559160200191906001019062000b40565b5b50905062000b6d919062000bb7565b5090565b62000bb491905b8082111562000bb057600081816101000a81549073ffffffffffffffffffffffffffffffffffffffff02191690555060010162000b78565b5090565b90565b62000bdc91905b8082111562000bd857600081600090555060010162000bbe565b5090565b90565b614d6a8062000bef6000396000f3fe608060405260043610610263576000357c010000000000000000000000000000000000000000000000000000000090048063858288ce11610156578063c6906749116100d3578063d9ed28b711610097578063d9ed28b714610e2d578063db8cd25414610ebd578063ddca3f4314610f0e578063e882656514610f39578063f3334ed814610f64578063fdd9052b14610fb757610263565b8063c690674914610c06578063c9a6933614610c5f578063cc523d3714610cbc578063d65060a514610d37578063d8de106614610dd257610263565b8063a33c4df11161011a578063a33c4df114610a06578063a8d088bb14610a6b578063aba35b7214610abe578063c41a32ec14610ae9578063c449b26214610b5257610263565b8063858288ce14610845578063880cdc31146108b85780638da5cb5b146109095780639dd9d6d5146109605780639e7151ff146109b357610263565b80633f4ba83a116101e45780635fb6c6ed116101a85780635fb6c6ed146106cc578063698441f2146106f75780636d27f4171461074a5780637a7d32e5146107c55780638456cb591461082e57610263565b80633f4ba83a1461057e57806347bda3d9146105955780635c581119146105e65780635c975abb146106085780635f1231ea1461063757610263565b806330bbe91b1161022b57806330bbe91b1461035e57806332de3509146103d45780633c94125a146104395780633d39c260146104b45780633d9d5a7a1461052f57610263565b80630933b9391461026857806319c944bb1461028657806321a8770d146102b157806322faa41f146103085780632463321214610333575b600080fd5b610270611022565b6040518082815260200191505060405180910390f35b34801561029257600080fd5b5061029b6111e8565b6040518082815260200191505060405180910390f35b3480156102bd57600080fd5b506102c66111ee565b604051808273ffffffffffffffffffffffffffffffffffffffff1673ffffffffffffffffffffffffffffffffffffffff16815260200191505060405180910390f35b34801561031457600080fd5b5061031d611214565b6040518082815260200191505060405180910390f35b34801561033f57600080fd5b5061034861130c565b6040518082815260200191505060405180910390f35b34801561036a57600080fd5b506103ba6004803603604081101561038157600080fd5b81019080803560ff169060200190929190803573ffffffffffffffffffffffffffffffffffffffff169060200190929190505050611312565b604051808215151515815260200191505060405180910390f35b3480156103e057600080fd5b50610423600480360360208110156103f757600080fd5b81019080803573ffffffffffffffffffffffffffffffffffffffff16906020019092919050505061153c565b6040518082815260200191505060405180910390f35b34801561044557600080fd5b506104726004803603602081101561045c57600080fd5b8101908080359060200190929190505050611606565b604051808273ffffffffffffffffffffffffffffffffffffffff1673ffffffffffffffffffffffffffffffffffffffff16815260200191505060405180910390f35b3480156104c057600080fd5b506104ed600480360360208110156104d757600080fd5b810190808035906020019092919050505061163b565b604051808273ffffffffffffffffffffffffffffffffffffffff1673ffffffffffffffffffffffffffffffffffffffff16815260200191505060405180910390f35b34801561053b57600080fd5b506105686004803603602081101561055257600080fd5b8101908080359060200190929190505050611670565b6040518082815260200191505060405180910390f35b34801561058a57600080fd5b506105936116f4565b005b3480156105a157600080fd5b506105d0600480360360208110156105b857600080fd5b81019080803515159060200190929190505050611787565b6040518082815260200191505060405180910390f35b6105ee611e94565b604051808215151515815260200191505060405180910390f35b34801561061457600080fd5b5061061d611f23565b604051808215151515815260200191505060405180910390f35b34801561064357600080fd5b506106866004803603602081101561065a57600080fd5b81019080803573ffffffffffffffffffffffffffffffffffffffff169060200190929190505050611f36565b604051808881526020018781526020018681526020018581526020018481526020018360ff1660ff16815260200182815260200197505050505050505060405180910390f35b3480156106d857600080fd5b506106e161204c565b6040518082815260200191505060405180910390f35b34801561070357600080fd5b5061070c612052565b6040518082601060200280838360005b8381101561073757808201518184015260208101905061071c565b5050505090500191505060405180910390f35b34801561075657600080fd5b506107836004803603602081101561076d57600080fd5b810190808035906020019092919050505061257e565b604051808273ffffffffffffffffffffffffffffffffffffffff1673ffffffffffffffffffffffffffffffffffffffff16815260200191505060405180910390f35b3480156107d157600080fd5b50610814600480360360208110156107e857600080fd5b81019080803573ffffffffffffffffffffffffffffffffffffffff1690602001909291905050506127d0565b604051808215151515815260200191505060405180910390f35b34801561083a57600080fd5b5061084361285c565b005b34801561085157600080fd5b5061089e6004803603604081101561086857600080fd5b81019080803573ffffffffffffffffffffffffffffffffffffffff16906020019092919080359060200190929190505050612a09565b604051808215151515815260200191505060405180910390f35b3480156108c457600080fd5b50610907600480360360208110156108db57600080fd5b81019080803573ffffffffffffffffffffffffffffffffffffffff169060200190929190505050612c7e565b005b34801561091557600080fd5b5061091e612d30565b604051808273ffffffffffffffffffffffffffffffffffffffff1673ffffffffffffffffffffffffffffffffffffffff16815260200191505060405180910390f35b34801561096c57600080fd5b506109996004803603602081101561098357600080fd5b8101908080359060200190929190505050612d55565b604051808215151515815260200191505060405180910390f35b3480156109bf57600080fd5b506109ec600480360360208110156109d657600080fd5b8101908080359060200190929190505050612daa565b604051808215151515815260200191505060405180910390f35b348015610a1257600080fd5b50610a5560048036036020811015610a2957600080fd5b81019080803573ffffffffffffffffffffffffffffffffffffffff169060200190929190505050612ddd565b6040518082815260200191505060405180910390f35b348015610a7757600080fd5b50610a80612e26565b6040518082600860200280838360005b83811015610aab578082015181840152602081019050610a90565b5050505090500191505060405180910390f35b348015610aca57600080fd5b50610ad361301b565b6040518082815260200191505060405180910390f35b348015610af557600080fd5b50610b3860048036036020811015610b0c57600080fd5b81019080803573ffffffffffffffffffffffffffffffffffffffff169060200190929190505050613021565b604051808215151515815260200191505060405180910390f35b348015610b5e57600080fd5b50610b8b60048036036020811015610b7557600080fd5b81019080803590602001909291905050506130ad565b6040518080602001828103825283818151815260200191508051906020019080838360005b83811015610bcb578082015181840152602081019050610bb0565b50505050905090810190601f168015610bf85780820380516001836020036101000a031916815260200191505b509250505060405180910390f35b348015610c1257600080fd5b50610c4960048036036040811015610c2957600080fd5b81019080803590602001909291908035906020019092919050505061318a565b6040518082815260200191505060405180910390f35b348015610c6b57600080fd5b50610ca260048036036040811015610c8257600080fd5b8101908080359060200190929190803590602001909291905050506138c2565b604051808215151515815260200191505060405180910390f35b348015610cc857600080fd5b50610cf560048036036020811015610cdf57600080fd5b8101908080359060200190929190505050613e27565b604051808273ffffffffffffffffffffffffffffffffffffffff1673ffffffffffffffffffffffffffffffffffffffff16815260200191505060405180910390f35b348015610d4357600080fd5b50610d9060048036036040811015610d5a57600080fd5b81019080803573ffffffffffffffffffffffffffffffffffffffff16906020019092919080359060200190929190505050613e5c565b604051808273ffffffffffffffffffffffffffffffffffffffff1673ffffffffffffffffffffffffffffffffffffffff16815260200191505060405180910390f35b348015610dde57600080fd5b50610e2b60048036036040811015610df557600080fd5b81019080803573ffffffffffffffffffffffffffffffffffffffff16906020019092919080359060200190929190505050614107565b005b348015610e3957600080fd5b50610ebb60048036036040811015610e5057600080fd5b810190808035906020019092919080359060200190640100000000811115610e7757600080fd5b820183602082011115610e8957600080fd5b80359060200191846001830284011164010000000083111715610eab57600080fd5b909192939192939050505061430a565b005b348015610ec957600080fd5b50610f0c60048036036020811015610ee057600080fd5b81019080803573ffffffffffffffffffffffffffffffffffffffff169060200190929190505050614805565b005b348015610f1a57600080fd5b50610f236148a4565b6040518082815260200191505060405180910390f35b348015610f4557600080fd5b50610f4e6148aa565b6040518082815260200191505060405180910390f35b348015610f7057600080fd5b50610f9d60048036036020811015610f8757600080fd5b81019080803590602001909291905050506148b0565b604051808215151515815260200191505060405180910390f35b348015610fc357600080fd5b5061100660048036036020811015610fda57600080fd5b81019080803573ffffffffffffffffffffffffffffffffffffffff16906020019092919050505061493d565b604051808260ff1660ff16815260200191505060405180910390f35b6000600e54341015151561103557600080fd5b600073ffffffffffffffffffffffffffffffffffffffff163373ffffffffffffffffffffffffffffffffffffffff161415151561107157600080fd5b6000601460003373ffffffffffffffffffffffffffffffffffffffff1673ffffffffffffffffffffffffffffffffffffffff16815260200190815260200160002054141515156110c057600080fd5b600060136000601460003373ffffffffffffffffffffffffffffffffffffffff1673ffffffffffffffffffffffffffffffffffffffff1681526020019081526020016000205481526020019081526020016000206001015411151561112457600080fd5b601160009054906101000a900460ff1615151561114057600080fd5b6000601460003373ffffffffffffffffffffffffffffffffffffffff1673ffffffffffffffffffffffffffffffffffffffff168152602001908152602001600020549050600061118f82612daa565b1561119a5760155490505b62093a806111a783611670565b03421115156111b557600080fd5b4260136000848152602001908152602001600020600101819055506111d982614969565b5080600f544201019250505090565b60155481565b600c60009054906101000a900473ffffffffffffffffffffffffffffffffffffffff1681565b60008073ffffffffffffffffffffffffffffffffffffffff163373ffffffffffffffffffffffffffffffffffffffff161415151561125157600080fd5b6000601460003373ffffffffffffffffffffffffffffffffffffffff1673ffffffffffffffffffffffffffffffffffffffff16815260200190815260200160002054141515156112a057600080fd5b600060136000601460003373ffffffffffffffffffffffffffffffffffffffff1673ffffffffffffffffffffffffffffffffffffffff1681526020019081526020016000205481526020019081526020016000206001015411151561130457600080fd5b601254905090565b60105481565b60008073ffffffffffffffffffffffffffffffffffffffff163373ffffffffffffffffffffffffffffffffffffffff161415151561134f57600080fd5b6001600060038110151561135f57fe5b0160009054906101000a900473ffffffffffffffffffffffffffffffffffffffff1673ffffffffffffffffffffffffffffffffffffffff163373ffffffffffffffffffffffffffffffffffffffff16148061141557506001806003811015156113c457fe5b0160009054906101000a900473ffffffffffffffffffffffffffffffffffffffff1673ffffffffffffffffffffffffffffffffffffffff163373ffffffffffffffffffffffffffffffffffffffff16145b8061147c57506001600260038110151561142b57fe5b0160009054906101000a900473ffffffffffffffffffffffffffffffffffffffff1673ffffffffffffffffffffffffffffffffffffffff163373ffffffffffffffffffffffffffffffffffffffff16145b151561148757600080fd5b611490826127d0565b151561149b57600080fd5b60008360ff16141580156114b3575060808360ff1614155b15156114be57600080fd5b6000601460008473ffffffffffffffffffffffffffffffffffffffff1673ffffffffffffffffffffffffffffffffffffffff168152602001908152602001600020549050836013600083815260200190815260200160002060000160146101000a81548160ff021916908360ff160217905550600191505092915050565b600080601460008473ffffffffffffffffffffffffffffffffffffffff1673ffffffffffffffffffffffffffffffffffffffff168152602001908152602001600020549050600061158c82612daa565b156115975760155490505b600081600f5460136000868152602001908152602001600020600101540101905060136000848152602001908152602001600020600201548111156115f957601360008481526020019081526020016000206002015481039350505050611601565b600093505050505b919050565b60168160108110151561161557fe5b016000915054906101000a900473ffffffffffffffffffffffffffffffffffffffff1681565b60048160088110151561164a57fe5b016000915054906101000a900473ffffffffffffffffffffffffffffffffffffffff1681565b60008061167c83612daa565b156116875760155490505b600081600f5460136000878152602001908152602001600020600101540101905060136000858152602001908152602001600020600201548111156116e85760136000858152602001908152602001600020600201548103925050506116ef565b6000925050505b919050565b6000809054906101000a900473ffffffffffffffffffffffffffffffffffffffff1673ffffffffffffffffffffffffffffffffffffffff163373ffffffffffffffffffffffffffffffffffffffff1614151561174f57600080fd5b601160009054906101000a900460ff16151561176a57600080fd5b6000601160006101000a81548160ff021916908315150217905550565b60008073ffffffffffffffffffffffffffffffffffffffff163373ffffffffffffffffffffffffffffffffffffffff16141515156117c457600080fd5b601660006010811015156117d457fe5b0160009054906101000a900473ffffffffffffffffffffffffffffffffffffffff1673ffffffffffffffffffffffffffffffffffffffff163373ffffffffffffffffffffffffffffffffffffffff16148061188b57506016600160108110151561183a57fe5b0160009054906101000a900473ffffffffffffffffffffffffffffffffffffffff1673ffffffffffffffffffffffffffffffffffffffff163373ffffffffffffffffffffffffffffffffffffffff16145b806118f25750601660026010811015156118a157fe5b0160009054906101000a900473ffffffffffffffffffffffffffffffffffffffff1673ffffffffffffffffffffffffffffffffffffffff163373ffffffffffffffffffffffffffffffffffffffff16145b8061195957506016600360108110151561190857fe5b0160009054906101000a900473ffffffffffffffffffffffffffffffffffffffff1673ffffffffffffffffffffffffffffffffffffffff163373ffffffffffffffffffffffffffffffffffffffff16145b806119c057506016600460108110151561196f57fe5b0160009054906101000a900473ffffffffffffffffffffffffffffffffffffffff1673ffffffffffffffffffffffffffffffffffffffff163373ffffffffffffffffffffffffffffffffffffffff16145b80611a275750601660056010811015156119d657fe5b0160009054906101000a900473ffffffffffffffffffffffffffffffffffffffff1673ffffffffffffffffffffffffffffffffffffffff163373ffffffffffffffffffffffffffffffffffffffff16145b80611a8e575060166006601081101515611a3d57fe5b0160009054906101000a900473ffffffffffffffffffffffffffffffffffffffff1673ffffffffffffffffffffffffffffffffffffffff163373ffffffffffffffffffffffffffffffffffffffff16145b80611af5575060166007601081101515611aa457fe5b0160009054906101000a900473ffffffffffffffffffffffffffffffffffffffff1673ffffffffffffffffffffffffffffffffffffffff163373ffffffffffffffffffffffffffffffffffffffff16145b80611b5c575060166008601081101515611b0b57fe5b0160009054906101000a900473ffffffffffffffffffffffffffffffffffffffff1673ffffffffffffffffffffffffffffffffffffffff163373ffffffffffffffffffffffffffffffffffffffff16145b80611bc3575060166009601081101515611b7257fe5b0160009054906101000a900473ffffffffffffffffffffffffffffffffffffffff1673ffffffffffffffffffffffffffffffffffffffff163373ffffffffffffffffffffffffffffffffffffffff16145b80611c2a57506016600a601081101515611bd957fe5b0160009054906101000a900473ffffffffffffffffffffffffffffffffffffffff1673ffffffffffffffffffffffffffffffffffffffff163373ffffffffffffffffffffffffffffffffffffffff16145b80611c9157506016600b601081101515611c4057fe5b0160009054906101000a900473ffffffffffffffffffffffffffffffffffffffff1673ffffffffffffffffffffffffffffffffffffffff163373ffffffffffffffffffffffffffffffffffffffff16145b80611cf857506016600c601081101515611ca757fe5b0160009054906101000a900473ffffffffffffffffffffffffffffffffffffffff1673ffffffffffffffffffffffffffffffffffffffff163373ffffffffffffffffffffffffffffffffffffffff16145b80611d5f57506016600d601081101515611d0e57fe5b0160009054906101000a900473ffffffffffffffffffffffffffffffffffffffff1673ffffffffffffffffffffffffffffffffffffffff163373ffffffffffffffffffffffffffffffffffffffff16145b80611dc657506016600e601081101515611d7557fe5b0160009054906101000a900473ffffffffffffffffffffffffffffffffffffffff1673ffffffffffffffffffffffffffffffffffffffff163373ffffffffffffffffffffffffffffffffffffffff16145b80611e2d57506016600f601081101515611ddc57fe5b0160009054906101000a900473ffffffffffffffffffffffffffffffffffffffff1673ffffffffffffffffffffffffffffffffffffffff163373ffffffffffffffffffffffffffffffffffffffff16145b1515611e3857600080fd5b60105442111515611e4857600080fd5b6000620151809050806010544203108015611e605750825b80611e6e5750806010544203115b15611e8957611e7b614a1b565b601281905550426010819055505b601254915050919050565b6000600e543410151515611ea757600080fd5b601160009054906101000a900460ff16151515611ec357600080fd5b6000601460003373ffffffffffffffffffffffffffffffffffffffff1673ffffffffffffffffffffffffffffffffffffffff16815260200190815260200160002054141515611f1157600080fd5b611f1c336001614a5f565b6001905090565b601160009054906101000a900460ff1681565b600080600080600080600080601460008a73ffffffffffffffffffffffffffffffffffffffff1673ffffffffffffffffffffffffffffffffffffffff168152602001908152602001600020549050600080611f9083611670565b90506000831415611fa45760039150611fc1565b611fad83612d55565b15611fbb5760019150611fc0565b600291505b5b81836001026013600086815260200190815260200160002060010154601360008781526020019081526020016000206002015460136000888152602001908152602001600020600301546013600089815260200190815260200160002060000160149054906101000a900460ff16869950995099509950995099509950505050919395979092949650565b60125481565b61205a614bd1565b600073ffffffffffffffffffffffffffffffffffffffff163373ffffffffffffffffffffffffffffffffffffffff161415151561209657600080fd5b600160006003811015156120a657fe5b0160009054906101000a900473ffffffffffffffffffffffffffffffffffffffff1673ffffffffffffffffffffffffffffffffffffffff163373ffffffffffffffffffffffffffffffffffffffff16148061215c575060018060038110151561210b57fe5b0160009054906101000a900473ffffffffffffffffffffffffffffffffffffffff1673ffffffffffffffffffffffffffffffffffffffff163373ffffffffffffffffffffffffffffffffffffffff16145b806121c357506001600260038110151561217257fe5b0160009054906101000a900473ffffffffffffffffffffffffffffffffffffffff1673ffffffffffffffffffffffffffffffffffffffff163373ffffffffffffffffffffffffffffffffffffffff16145b8061222a5750600460006008811015156121d957fe5b0160009054906101000a900473ffffffffffffffffffffffffffffffffffffffff1673ffffffffffffffffffffffffffffffffffffffff163373ffffffffffffffffffffffffffffffffffffffff16145b8061229157506004600160088110151561224057fe5b0160009054906101000a900473ffffffffffffffffffffffffffffffffffffffff1673ffffffffffffffffffffffffffffffffffffffff163373ffffffffffffffffffffffffffffffffffffffff16145b806122f85750600460026008811015156122a757fe5b0160009054906101000a900473ffffffffffffffffffffffffffffffffffffffff1673ffffffffffffffffffffffffffffffffffffffff163373ffffffffffffffffffffffffffffffffffffffff16145b8061235f57506004600360088110151561230e57fe5b0160009054906101000a900473ffffffffffffffffffffffffffffffffffffffff1673ffffffffffffffffffffffffffffffffffffffff163373ffffffffffffffffffffffffffffffffffffffff16145b806123c5575060048060088110151561237457fe5b0160009054906101000a900473ffffffffffffffffffffffffffffffffffffffff1673ffffffffffffffffffffffffffffffffffffffff163373ffffffffffffffffffffffffffffffffffffffff16145b8061242c5750600460056008811015156123db57fe5b0160009054906101000a900473ffffffffffffffffffffffffffffffffffffffff1673ffffffffffffffffffffffffffffffffffffffff163373ffffffffffffffffffffffffffffffffffffffff16145b8061249357506004600660088110151561244257fe5b0160009054906101000a900473ffffffffffffffffffffffffffffffffffffffff1673ffffffffffffffffffffffffffffffffffffffff163373ffffffffffffffffffffffffffffffffffffffff16145b806124fa5750600460076008811015156124a957fe5b0160009054906101000a900473ffffffffffffffffffffffffffffffffffffffff1673ffffffffffffffffffffffffffffffffffffffff163373ffffffffffffffffffffffffffffffffffffffff16145b151561250557600080fd5b6016601080602002604051908101604052809291908260108015612574576020028201915b8160009054906101000a900473ffffffffffffffffffffffffffffffffffffffff1673ffffffffffffffffffffffffffffffffffffffff168152602001906001019080831161252a575b5050505050905090565b60008073ffffffffffffffffffffffffffffffffffffffff163373ffffffffffffffffffffffffffffffffffffffff16141515156125bb57600080fd5b600160006003811015156125cb57fe5b0160009054906101000a900473ffffffffffffffffffffffffffffffffffffffff1673ffffffffffffffffffffffffffffffffffffffff163373ffffffffffffffffffffffffffffffffffffffff161480612681575060018060038110151561263057fe5b0160009054906101000a900473ffffffffffffffffffffffffffffffffffffffff1673ffffffffffffffffffffffffffffffffffffffff163373ffffffffffffffffffffffffffffffffffffffff16145b806126e857506001600260038110151561269757fe5b0160009054906101000a900473ffffffffffffffffffffffffffffffffffffffff1673ffffffffffffffffffffffffffffffffffffffff163373ffffffffffffffffffffffffffffffffffffffff16145b15156126f357600080fd5b600073ffffffffffffffffffffffffffffffffffffffff1660168360108110151561271a57fe5b0160009054906101000a900473ffffffffffffffffffffffffffffffffffffffff1673ffffffffffffffffffffffffffffffffffffffff161415151561275f57600080fd5b600060168360108110151561277057fe5b0160009054906101000a900473ffffffffffffffffffffffffffffffffffffffff1690506016836010811015156127a357fe5b0160006101000a81549073ffffffffffffffffffffffffffffffffffffffff021916905580915050919050565b60008073ffffffffffffffffffffffffffffffffffffffff168273ffffffffffffffffffffffffffffffffffffffff161415151561280d57600080fd5b612855601460008473ffffffffffffffffffffffffffffffffffffffff1673ffffffffffffffffffffffffffffffffffffffff168152602001908152602001600020546148b0565b9050919050565b600073ffffffffffffffffffffffffffffffffffffffff163373ffffffffffffffffffffffffffffffffffffffff161415151561289857600080fd5b600160006003811015156128a857fe5b0160009054906101000a900473ffffffffffffffffffffffffffffffffffffffff1673ffffffffffffffffffffffffffffffffffffffff163373ffffffffffffffffffffffffffffffffffffffff16148061295e575060018060038110151561290d57fe5b0160009054906101000a900473ffffffffffffffffffffffffffffffffffffffff1673ffffffffffffffffffffffffffffffffffffffff163373ffffffffffffffffffffffffffffffffffffffff16145b806129c557506001600260038110151561297457fe5b0160009054906101000a900473ffffffffffffffffffffffffffffffffffffffff1673ffffffffffffffffffffffffffffffffffffffff163373ffffffffffffffffffffffffffffffffffffffff16145b15156129d057600080fd5b601160009054906101000a900460ff161515156129ec57600080fd5b6001601160006101000a81548160ff021916908315150217905550565b60008073ffffffffffffffffffffffffffffffffffffffff163373ffffffffffffffffffffffffffffffffffffffff1614151515612a4657600080fd5b60016000600381101515612a5657fe5b0160009054906101000a900473ffffffffffffffffffffffffffffffffffffffff1673ffffffffffffffffffffffffffffffffffffffff163373ffffffffffffffffffffffffffffffffffffffff161480612b0c5750600180600381101515612abb57fe5b0160009054906101000a900473ffffffffffffffffffffffffffffffffffffffff1673ffffffffffffffffffffffffffffffffffffffff163373ffffffffffffffffffffffffffffffffffffffff16145b80612b73575060016002600381101515612b2257fe5b0160009054906101000a900473ffffffffffffffffffffffffffffffffffffffff1673ffffffffffffffffffffffffffffffffffffffff163373ffffffffffffffffffffffffffffffffffffffff16145b1515612b7e57600080fd5b600073ffffffffffffffffffffffffffffffffffffffff168373ffffffffffffffffffffffffffffffffffffffff1614151515612bba57600080fd5b600073ffffffffffffffffffffffffffffffffffffffff16601683601081101515612be157fe5b0160009054906101000a900473ffffffffffffffffffffffffffffffffffffffff1673ffffffffffffffffffffffffffffffffffffffff16141515612c2557600080fd5b82601683601081101515612c3557fe5b0160006101000a81548173ffffffffffffffffffffffffffffffffffffffff021916908373ffffffffffffffffffffffffffffffffffffffff1602179055506001905092915050565b6000809054906101000a900473ffffffffffffffffffffffffffffffffffffffff1673ffffffffffffffffffffffffffffffffffffffff163373ffffffffffffffffffffffffffffffffffffffff16141515612cd957600080fd5b612ce281613021565b1515612ced57600080fd5b806000806101000a81548173ffffffffffffffffffffffffffffffffffffffff021916908373ffffffffffffffffffffffffffffffffffffffff16021790555050565b6000809054906101000a900473ffffffffffffffffffffffffffffffffffffffff1681565b60008082141580612d7c575060006013600084815260200190815260200160002060010154115b1515612d8757600080fd5b42612d9183611670565b1115612da05760019050612da5565b600090505b919050565b600060806013600084815260200190815260200160002060000160149054906101000a900460ff1660ff16119050919050565b6000601460008373ffffffffffffffffffffffffffffffffffffffff1673ffffffffffffffffffffffffffffffffffffffff168152602001908152602001600020549050919050565b612e2e614bf5565b600073ffffffffffffffffffffffffffffffffffffffff163373ffffffffffffffffffffffffffffffffffffffff1614151515612e6a57600080fd5b60016000600381101515612e7a57fe5b0160009054906101000a900473ffffffffffffffffffffffffffffffffffffffff1673ffffffffffffffffffffffffffffffffffffffff163373ffffffffffffffffffffffffffffffffffffffff161480612f305750600180600381101515612edf57fe5b0160009054906101000a900473ffffffffffffffffffffffffffffffffffffffff1673ffffffffffffffffffffffffffffffffffffffff163373ffffffffffffffffffffffffffffffffffffffff16145b80612f97575060016002600381101515612f4657fe5b0160009054906101000a900473ffffffffffffffffffffffffffffffffffffffff1673ffffffffffffffffffffffffffffffffffffffff163373ffffffffffffffffffffffffffffffffffffffff16145b1515612fa257600080fd5b6004600880602002604051908101604052809291908260088015613011576020028201915b8160009054906101000a900473ffffffffffffffffffffffffffffffffffffffff1673ffffffffffffffffffffffffffffffffffffffff1681526020019060010190808311612fc7575b5050505050905090565b600f5481565b60008073ffffffffffffffffffffffffffffffffffffffff168273ffffffffffffffffffffffffffffffffffffffff161415151561305e57600080fd5b6130a6601460008473ffffffffffffffffffffffffffffffffffffffff1673ffffffffffffffffffffffffffffffffffffffff16815260200190815260200160002054612d55565b9050919050565b6060600060136000848152602001908152602001600020600101541115156130d457600080fd5b601360008381526020019081526020016000206004018054600181600116156101000203166002900480601f01602080910402602001604051908101604052809291908181526020018280546001816001161561010002031660029004801561317e5780601f106131535761010080835404028352916020019161317e565b820191906000526020600020905b81548152906001019060200180831161316157829003601f168201915b50505050509050919050565b60008073ffffffffffffffffffffffffffffffffffffffff163373ffffffffffffffffffffffffffffffffffffffff16141515156131c757600080fd5b601660006010811015156131d757fe5b0160009054906101000a900473ffffffffffffffffffffffffffffffffffffffff1673ffffffffffffffffffffffffffffffffffffffff163373ffffffffffffffffffffffffffffffffffffffff16148061328e57506016600160108110151561323d57fe5b0160009054906101000a900473ffffffffffffffffffffffffffffffffffffffff1673ffffffffffffffffffffffffffffffffffffffff163373ffffffffffffffffffffffffffffffffffffffff16145b806132f55750601660026010811015156132a457fe5b0160009054906101000a900473ffffffffffffffffffffffffffffffffffffffff1673ffffffffffffffffffffffffffffffffffffffff163373ffffffffffffffffffffffffffffffffffffffff16145b8061335c57506016600360108110151561330b57fe5b0160009054906101000a900473ffffffffffffffffffffffffffffffffffffffff1673ffffffffffffffffffffffffffffffffffffffff163373ffffffffffffffffffffffffffffffffffffffff16145b806133c357506016600460108110151561337257fe5b0160009054906101000a900473ffffffffffffffffffffffffffffffffffffffff1673ffffffffffffffffffffffffffffffffffffffff163373ffffffffffffffffffffffffffffffffffffffff16145b8061342a5750601660056010811015156133d957fe5b0160009054906101000a900473ffffffffffffffffffffffffffffffffffffffff1673ffffffffffffffffffffffffffffffffffffffff163373ffffffffffffffffffffffffffffffffffffffff16145b8061349157506016600660108110151561344057fe5b0160009054906101000a900473ffffffffffffffffffffffffffffffffffffffff1673ffffffffffffffffffffffffffffffffffffffff163373ffffffffffffffffffffffffffffffffffffffff16145b806134f85750601660076010811015156134a757fe5b0160009054906101000a900473ffffffffffffffffffffffffffffffffffffffff1673ffffffffffffffffffffffffffffffffffffffff163373ffffffffffffffffffffffffffffffffffffffff16145b8061355f57506016600860108110151561350e57fe5b0160009054906101000a900473ffffffffffffffffffffffffffffffffffffffff1673ffffffffffffffffffffffffffffffffffffffff163373ffffffffffffffffffffffffffffffffffffffff16145b806135c657506016600960108110151561357557fe5b0160009054906101000a900473ffffffffffffffffffffffffffffffffffffffff1673ffffffffffffffffffffffffffffffffffffffff163373ffffffffffffffffffffffffffffffffffffffff16145b8061362d57506016600a6010811015156135dc57fe5b0160009054906101000a900473ffffffffffffffffffffffffffffffffffffffff1673ffffffffffffffffffffffffffffffffffffffff163373ffffffffffffffffffffffffffffffffffffffff16145b8061369457506016600b60108110151561364357fe5b0160009054906101000a900473ffffffffffffffffffffffffffffffffffffffff1673ffffffffffffffffffffffffffffffffffffffff163373ffffffffffffffffffffffffffffffffffffffff16145b806136fb57506016600c6010811015156136aa57fe5b0160009054906101000a900473ffffffffffffffffffffffffffffffffffffffff1673ffffffffffffffffffffffffffffffffffffffff163373ffffffffffffffffffffffffffffffffffffffff16145b8061376257506016600d60108110151561371157fe5b0160009054906101000a900473ffffffffffffffffffffffffffffffffffffffff1673ffffffffffffffffffffffffffffffffffffffff163373ffffffffffffffffffffffffffffffffffffffff16145b806137c957506016600e60108110151561377857fe5b0160009054906101000a900473ffffffffffffffffffffffffffffffffffffffff1673ffffffffffffffffffffffffffffffffffffffff163373ffffffffffffffffffffffffffffffffffffffff16145b8061383057506016600f6010811015156137df57fe5b0160009054906101000a900473ffffffffffffffffffffffffffffffffffffffff1673ffffffffffffffffffffffffffffffffffffffff163373ffffffffffffffffffffffffffffffffffffffff16145b151561383b57600080fd5b6000601360008581526020019081526020016000206001015411151561386057600080fd5b600f546013600085815260200190815260200160002060010154018210151561388857600080fd5b8160136000858152602001908152602001600020600201819055506013600084815260200190815260200160002060020154905092915050565b60008073ffffffffffffffffffffffffffffffffffffffff163373ffffffffffffffffffffffffffffffffffffffff16141515156138ff57600080fd5b6001600060038110151561390f57fe5b0160009054906101000a900473ffffffffffffffffffffffffffffffffffffffff1673ffffffffffffffffffffffffffffffffffffffff163373ffffffffffffffffffffffffffffffffffffffff1614806139c5575060018060038110151561397457fe5b0160009054906101000a900473ffffffffffffffffffffffffffffffffffffffff1673ffffffffffffffffffffffffffffffffffffffff163373ffffffffffffffffffffffffffffffffffffffff16145b80613a2c5750600160026003811015156139db57fe5b0160009054906101000a900473ffffffffffffffffffffffffffffffffffffffff1673ffffffffffffffffffffffffffffffffffffffff163373ffffffffffffffffffffffffffffffffffffffff16145b80613a93575060046000600881101515613a4257fe5b0160009054906101000a900473ffffffffffffffffffffffffffffffffffffffff1673ffffffffffffffffffffffffffffffffffffffff163373ffffffffffffffffffffffffffffffffffffffff16145b80613afa575060046001600881101515613aa957fe5b0160009054906101000a900473ffffffffffffffffffffffffffffffffffffffff1673ffffffffffffffffffffffffffffffffffffffff163373ffffffffffffffffffffffffffffffffffffffff16145b80613b61575060046002600881101515613b1057fe5b0160009054906101000a900473ffffffffffffffffffffffffffffffffffffffff1673ffffffffffffffffffffffffffffffffffffffff163373ffffffffffffffffffffffffffffffffffffffff16145b80613bc8575060046003600881101515613b7757fe5b0160009054906101000a900473ffffffffffffffffffffffffffffffffffffffff1673ffffffffffffffffffffffffffffffffffffffff163373ffffffffffffffffffffffffffffffffffffffff16145b80613c2e5750600480600881101515613bdd57fe5b0160009054906101000a900473ffffffffffffffffffffffffffffffffffffffff1673ffffffffffffffffffffffffffffffffffffffff163373ffffffffffffffffffffffffffffffffffffffff16145b80613c95575060046005600881101515613c4457fe5b0160009054906101000a900473ffffffffffffffffffffffffffffffffffffffff1673ffffffffffffffffffffffffffffffffffffffff163373ffffffffffffffffffffffffffffffffffffffff16145b80613cfc575060046006600881101515613cab57fe5b0160009054906101000a900473ffffffffffffffffffffffffffffffffffffffff1673ffffffffffffffffffffffffffffffffffffffff163373ffffffffffffffffffffffffffffffffffffffff16145b80613d63575060046007600881101515613d1257fe5b0160009054906101000a900473ffffffffffffffffffffffffffffffffffffffff1673ffffffffffffffffffffffffffffffffffffffff163373ffffffffffffffffffffffffffffffffffffffff16145b1515613d6e57600080fd5b60006013600085815260200190815260200160002060010154118015613df75750600073ffffffffffffffffffffffffffffffffffffffff166013600085815260200190815260200160002060000160009054906101000a900473ffffffffffffffffffffffffffffffffffffffff1673ffffffffffffffffffffffffffffffffffffffff1614155b1515613e0257600080fd5b8160136000858152602001908152602001600020600301819055506001905092915050565b600181600381101515613e3657fe5b016000915054906101000a900473ffffffffffffffffffffffffffffffffffffffff1681565b60008073ffffffffffffffffffffffffffffffffffffffff163373ffffffffffffffffffffffffffffffffffffffff1614151515613e9957600080fd5b60016000600381101515613ea957fe5b0160009054906101000a900473ffffffffffffffffffffffffffffffffffffffff1673ffffffffffffffffffffffffffffffffffffffff163373ffffffffffffffffffffffffffffffffffffffff161480613f5f5750600180600381101515613f0e57fe5b0160009054906101000a900473ffffffffffffffffffffffffffffffffffffffff1673ffffffffffffffffffffffffffffffffffffffff163373ffffffffffffffffffffffffffffffffffffffff16145b80613fc6575060016002600381101515613f7557fe5b0160009054906101000a900473ffffffffffffffffffffffffffffffffffffffff1673ffffffffffffffffffffffffffffffffffffffff163373ffffffffffffffffffffffffffffffffffffffff16145b1515613fd157600080fd5b600073ffffffffffffffffffffffffffffffffffffffff168373ffffffffffffffffffffffffffffffffffffffff161415151561400d57600080fd5b600073ffffffffffffffffffffffffffffffffffffffff1660168360108110151561403457fe5b0160009054906101000a900473ffffffffffffffffffffffffffffffffffffffff1673ffffffffffffffffffffffffffffffffffffffff161415151561407957600080fd5b600060168360108110151561408a57fe5b0160009054906101000a900473ffffffffffffffffffffffffffffffffffffffff169050836016846010811015156140be57fe5b0160006101000a81548173ffffffffffffffffffffffffffffffffffffffff021916908373ffffffffffffffffffffffffffffffffffffffff1602179055508091505092915050565b600073ffffffffffffffffffffffffffffffffffffffff163373ffffffffffffffffffffffffffffffffffffffff161415151561414357600080fd5b6001600060038110151561415357fe5b0160009054906101000a900473ffffffffffffffffffffffffffffffffffffffff1673ffffffffffffffffffffffffffffffffffffffff163373ffffffffffffffffffffffffffffffffffffffff16148061420957506001806003811015156141b857fe5b0160009054906101000a900473ffffffffffffffffffffffffffffffffffffffff1673ffffffffffffffffffffffffffffffffffffffff163373ffffffffffffffffffffffffffffffffffffffff16145b8061427057506001600260038110151561421f57fe5b0160009054906101000a900473ffffffffffffffffffffffffffffffffffffffff1673ffffffffffffffffffffffffffffffffffffffff163373ffffffffffffffffffffffffffffffffffffffff16145b151561427b57600080fd5b600073ffffffffffffffffffffffffffffffffffffffff168273ffffffffffffffffffffffffffffffffffffffff16141515156142b757600080fd5b816004826008811015156142c757fe5b0160006101000a81548173ffffffffffffffffffffffffffffffffffffffff021916908373ffffffffffffffffffffffffffffffffffffffff1602179055505050565b600073ffffffffffffffffffffffffffffffffffffffff163373ffffffffffffffffffffffffffffffffffffffff161415151561434657600080fd5b6001600060038110151561435657fe5b0160009054906101000a900473ffffffffffffffffffffffffffffffffffffffff1673ffffffffffffffffffffffffffffffffffffffff163373ffffffffffffffffffffffffffffffffffffffff16148061440c57506001806003811015156143bb57fe5b0160009054906101000a900473ffffffffffffffffffffffffffffffffffffffff1673ffffffffffffffffffffffffffffffffffffffff163373ffffffffffffffffffffffffffffffffffffffff16145b8061447357506001600260038110151561442257fe5b0160009054906101000a900473ffffffffffffffffffffffffffffffffffffffff1673ffffffffffffffffffffffffffffffffffffffff163373ffffffffffffffffffffffffffffffffffffffff16145b806144da57506004600060088110151561448957fe5b0160009054906101000a900473ffffffffffffffffffffffffffffffffffffffff1673ffffffffffffffffffffffffffffffffffffffff163373ffffffffffffffffffffffffffffffffffffffff16145b806145415750600460016008811015156144f057fe5b0160009054906101000a900473ffffffffffffffffffffffffffffffffffffffff1673ffffffffffffffffffffffffffffffffffffffff163373ffffffffffffffffffffffffffffffffffffffff16145b806145a857506004600260088110151561455757fe5b0160009054906101000a900473ffffffffffffffffffffffffffffffffffffffff1673ffffffffffffffffffffffffffffffffffffffff163373ffffffffffffffffffffffffffffffffffffffff16145b8061460f5750600460036008811015156145be57fe5b0160009054906101000a900473ffffffffffffffffffffffffffffffffffffffff1673ffffffffffffffffffffffffffffffffffffffff163373ffffffffffffffffffffffffffffffffffffffff16145b80614675575060048060088110151561462457fe5b0160009054906101000a900473ffffffffffffffffffffffffffffffffffffffff1673ffffffffffffffffffffffffffffffffffffffff163373ffffffffffffffffffffffffffffffffffffffff16145b806146dc57506004600560088110151561468b57fe5b0160009054906101000a900473ffffffffffffffffffffffffffffffffffffffff1673ffffffffffffffffffffffffffffffffffffffff163373ffffffffffffffffffffffffffffffffffffffff16145b806147435750600460066008811015156146f257fe5b0160009054906101000a900473ffffffffffffffffffffffffffffffffffffffff1673ffffffffffffffffffffffffffffffffffffffff163373ffffffffffffffffffffffffffffffffffffffff16145b806147aa57506004600760088110151561475957fe5b0160009054906101000a900473ffffffffffffffffffffffffffffffffffffffff1673ffffffffffffffffffffffffffffffffffffffff163373ffffffffffffffffffffffffffffffffffffffff16145b15156147b557600080fd5b600060136000858152602001908152602001600020600101541115156147da57600080fd5b81816013600086815260200190815260200160002060040191906147ff929190614c19565b50505050565b6000809054906101000a900473ffffffffffffffffffffffffffffffffffffffff1673ffffffffffffffffffffffffffffffffffffffff163373ffffffffffffffffffffffffffffffffffffffff1614151561486057600080fd5b80600c60006101000a81548173ffffffffffffffffffffffffffffffffffffffff021916908373ffffffffffffffffffffffffffffffffffffffff16021790555050565b600e5481565b600d5481565b60008082141580156149255750600073ffffffffffffffffffffffffffffffffffffffff166013600084815260200190815260200160002060000160009054906101000a900473ffffffffffffffffffffffffffffffffffffffff1673ffffffffffffffffffffffffffffffffffffffff1614155b156149335760019050614938565b600090505b919050565b60006001151561494c836127d0565b151514151561495a57600080fd5b60006001905080915050919050565b600060806013600084815260200190815260200160002060000160149054906101000a900460ff1660ff1611156149f05760806013600084815260200190815260200160002060000160149054906101000a900460ff16036013600084815260200190815260200160002060000160146101000a81548160ff021916908360ff1602179055505b6013600083815260200190815260200160002060000160149054906101000a900460ff169050919050565b6000806000905060008090505b600d5481111515614a575742614a3d82611670565b1115614a4a576001820191505b8080600101915050614a28565b508091505090565b6001600d60008282540192505081905550600d54601460008473ffffffffffffffffffffffffffffffffffffffff1673ffffffffffffffffffffffffffffffffffffffff1681526020019081526020016000208190555060c0604051908101604052808373ffffffffffffffffffffffffffffffffffffffff1681526020018260ff1681526020014281526020016000815260200160006001028152602001602060405190810160405280600081525081525060136000600d54815260200190815260200160002060008201518160000160006101000a81548173ffffffffffffffffffffffffffffffffffffffff021916908373ffffffffffffffffffffffffffffffffffffffff16021790555060208201518160000160146101000a81548160ff021916908360ff16021790555060408201518160010155606082015181600201556080820151816003015560a0820151816004019080519060200190614bc9929190614c99565b509050505050565b61020060405190810160405280601090602082028038833980820191505090505090565b61010060405190810160405280600890602082028038833980820191505090505090565b828054600181600116156101000203166002900490600052602060002090601f016020900481019282601f10614c5a57803560ff1916838001178555614c88565b82800160010185558215614c88579182015b82811115614c87578235825591602001919060010190614c6c565b5b509050614c959190614d19565b5090565b828054600181600116156101000203166002900490600052602060002090601f016020900481019282601f10614cda57805160ff1916838001178555614d08565b82800160010185558215614d08579182015b82811115614d07578251825591602001919060010190614cec565b5b509050614d159190614d19565b5090565b614d3b91905b80821115614d37576000816000905550600101614d1f565b5090565b9056fea165627a7a723058202871402d2bc35a18bb4bdd1f8d0d9dd232ec8426d9e7413d2f223fcfbc2137d30029",
  "source": "pragma solidity ^0.5.2;\n\nimport \"./Interfaces/QOTInterface.sol\";\n\n// TODO: check integer overflow\n\ncontract MemberShip {\n    address public owner;\n    address[3] public coreManagers;\n    address[8] public managers;\n    address public QOTAddr;\n    uint public totalId;  // id 0 is not used and will start from 1\n    uint public fee = 0.01 ether;\n    // uint public memberPeriod = 160000;  // 40000 blocks ~ a week in rinkeby, for test only\n    uint public memberPeriod = 30 days;\n    uint public lastMemberCountUpdate;  // use this to prevent too frequent update; see updateActiveMemberCount()\n    bool public paused;\n    uint public activeMemberCount;  // need to call function to update this value\n\n    struct MemberInfo {\n        address addr;\n        uint8 tier;  // 8 bit of choices. Default tier is 1; tier>128 are vip (i.e., highest bit is 1). 0 and 128 are not used\n                     // Or, use 1-127 as normal user tiers, and the tier +128 are vip user (with longer memberPeriod)\n        uint since;  // beginning block.timestamp of previous membership\n        uint penalty;  // the membership is valid until: since + memberPeriod - penalty;\n        bytes32 kycid;  // know your customer id, leave it for future\n        string notes;\n    }\n\n    mapping (uint => MemberInfo) internal memberDB;  // id to MemberInfo\n    mapping (address => uint) internal addressToId;  // address to membership\n    uint public vipMemberBonus = 3650 days;\n\n    address[16] public appWhitelist;\n\n    constructor(address _QOTAddr) public {\n        owner = msg.sender;\n        coreManagers = [0xB440ea2780614b3c6a00e512f432785E7dfAFA3E,\n                        0x4AD56641C569C91C64C28a904cda50AE5326Da41,\n                        0xaF7400787c54422Be8B44154B1273661f1259CcD];\n        managers = [address(0), address(0), address(0), address(0), address(0), address(0), address(0), address(0)];\n        appWhitelist = [\n            address(0), address(0), address(0), address(0), address(0), address(0), address(0), address(0),\n            address(0), address(0), address(0), address(0), address(0), address(0), address(0), address(0)\n        ];\n        QOTAddr = _QOTAddr;\n\n        for (uint8 i=0; i<3; i++){\n            _assignMembership(coreManagers[i], 255);\n            appWhitelist[i] = coreManagers[i];\n        }\n        assert(totalId == 3);\n        activeMemberCount = 3;  // manually set an initial value\n        lastMemberCountUpdate = block.timestamp;\n    }\n\n    modifier ownerOnly() {\n        require(msg.sender == owner);\n        _;\n    }\n\n    modifier coreManagerOnly() {\n        require(msg.sender != address(0));\n        require(msg.sender == coreManagers[0] || msg.sender == coreManagers[1] || msg.sender == coreManagers[2]);\n        _;\n    }\n\n    modifier managerOnly() {\n        require(msg.sender != address(0));\n        require(msg.sender == coreManagers[0] || msg.sender == coreManagers[1] || msg.sender == coreManagers[2] ||\n                msg.sender == managers[0] || msg.sender == managers[1] || msg.sender == managers[2] ||\n                msg.sender == managers[3] || msg.sender == managers[4] || msg.sender == managers[5] ||\n                msg.sender == managers[6] || msg.sender == managers[7]);\n        _;\n    }\n\n    modifier feePaid() {\n        require(msg.value >= fee);  // or \"==\"?\n        _;\n    }\n\n    modifier isMember() {\n        require(msg.sender != address(0));\n        require(addressToId[msg.sender] != 0);\n        require(memberDB[addressToId[msg.sender]].since > 0);\n        _;\n    }\n\n    modifier isActiveMember() {\n        require(msg.sender != address(0));\n        uint _id = addressToId[msg.sender];\n        require(_id != 0);\n        require(idExpireTime(_id) > block.timestamp);\n        _;\n    }\n\n    modifier isAppWhitelist() {\n        require(msg.sender != address(0));\n        require(msg.sender == appWhitelist[0] || msg.sender == appWhitelist[1] || msg.sender == appWhitelist[2] ||\n                msg.sender == appWhitelist[3] || msg.sender == appWhitelist[4] || msg.sender == appWhitelist[5] ||\n                msg.sender == appWhitelist[6] || msg.sender == appWhitelist[7] || msg.sender == appWhitelist[8] ||\n                msg.sender == appWhitelist[9] || msg.sender == appWhitelist[10] || msg.sender == appWhitelist[11] ||\n                msg.sender == appWhitelist[12] || msg.sender == appWhitelist[13] || msg.sender == appWhitelist[14] ||\n                msg.sender == appWhitelist[15]\n               );\n        _;\n    }\n\n    modifier whenNotPaused() {\n        require(!paused);\n        _;\n    }\n\n    modifier whenPaused() {\n        require(paused);\n        _;\n    }\n\n    // membership\n    function buyMembership() public payable feePaid whenNotPaused returns (bool) {\n        require(addressToId[msg.sender] == 0);  // the user is not yet a member\n        // TODO: uint8 _tier = determineTier(msg.sender); _assignMembership(msg.sender, _tier);\n        _assignMembership(msg.sender, 1);\n        return true;\n    }\n\n    function _assignMembership(address _addr, uint8 _tier) internal {\n        totalId += 1;  // make it start from 1\n        addressToId[_addr] = totalId;\n        memberDB[totalId] = MemberInfo(_addr, _tier, block.timestamp, 0, bytes32(0), \"\");\n    }\n\n    function renewMembership() public payable feePaid isMember whenNotPaused returns (uint) {\n        uint _id = addressToId[msg.sender];\n        uint _bonus;\n        if (isVipTier(_id)) {\n            _bonus = vipMemberBonus;\n        }\n        require(block.timestamp > idExpireTime(_id) - 7 days);\n\n        // renew membership (and remove vip tier if possible)\n        memberDB[_id].since = block.timestamp;\n        _removeVipTier(_id);\n        return (block.timestamp + memberPeriod + _bonus);  // return expire time\n    }\n\n    function updateTier(uint8 _tier, address _addr) public coreManagerOnly returns(bool){\n        // should eventually use `determineTier(_addr)` and remove the `_tier` argument\n        require(addrIsMember(_addr));  // or addrIsActiveMember()?\n        require(_tier != 0 && _tier != 128);  // 0 and 128 are not used\n        // TODO: determine tier base on the amount of QOT the member owns;\n        // Q: Users call this function?\n        // Q: should the sufficient amount of QOT \"locked\" in a pool for enough time?\n        // Q: Is downgrade tier happen here? Or only while renewMembership()?\n        uint _id = addressToId[_addr];\n        memberDB[_id].tier = _tier;\n        return true;\n    }\n\n    function determineTier(address _addr) public view returns(uint8) {\n        require(addrIsMember(_addr) == true);\n        uint8 tier=1;  // the basic tier\n        // uint _bal = QOTInterface(QOTAddr).balanceOf(_addr);\n        // TODO: depend of _bal and give a tier?\n        return tier;\n    }\n\n    function isVipTier(uint _id) public view returns(bool){\n        return(memberDB[_id].tier > 128);  // tier 128 should not exist\n    }\n\n    function _removeVipTier(uint _id) internal returns(uint8) {\n        // don't do any check, assume the _id is already member\n        if (memberDB[_id].tier > 128) {\n            memberDB[_id].tier = memberDB[_id].tier - 128;\n        }\n        return memberDB[_id].tier;\n    }\n\n    function assginKYCid(uint _id, bytes32 _kycid) external managerOnly returns (bool) {\n        // instead of \"managerOnly\", probably add another group to do that\n        require(memberDB[_id].since > 0 && memberDB[_id].addr != address(0));\n        memberDB[_id].kycid = _kycid;\n        return true;\n    }\n\n    function addAppWhitelist(address _addr, uint _idx) public coreManagerOnly returns (bool) {\n        require(_addr != address(0));\n        require(appWhitelist[_idx] == address(0));\n        appWhitelist[_idx] = _addr;\n        return true;\n    }\n\n    function replaceAppWhitelist(address _addr, uint _idx) public coreManagerOnly returns (address) {\n        require(_addr != address(0));\n        require(appWhitelist[_idx] != address(0));\n        address _addrorig = appWhitelist[_idx];\n        appWhitelist[_idx] = _addr;\n        return _addrorig;\n    }\n\n    function rmAppWhitelist(uint _idx) public coreManagerOnly returns (address) {\n        require(appWhitelist[_idx] != address(0));\n        address _addr = appWhitelist[_idx];\n        delete appWhitelist[_idx];\n        return _addr;\n    }\n\n    function getAppWhitelist() external view managerOnly returns (address[16] memory) {\n        return appWhitelist;\n    }\n\n    function addPenalty(uint _id, uint _penalty) external isAppWhitelist returns (uint) {\n        require(memberDB[_id].since > 0);  // is a member\n        require(_penalty < memberDB[_id].since + memberPeriod);  // prevent overflow while calculate idExpireTime(_id)\n        // require(_penalty < memberPeriod);  // or, can we ban someone for many memberPeriods?\n        // require(_penalty < 3*memberPeriod);\n        // or, only core manager can set a really large _panalty (like 6 months or more) for extreme case\n        memberDB[_id].penalty = _penalty;\n\n        return memberDB[_id].penalty;\n    }\n\n    function readNotes(uint _id) external view returns (string memory) {\n        require(memberDB[_id].since > 0);\n        return memberDB[_id].notes;\n    }\n\n    function addNotes(uint _id, string calldata _notes) external managerOnly {\n        require(memberDB[_id].since > 0);\n        memberDB[_id].notes = _notes;\n    }\n\n    // some query functions\n    function addrIsMember(address _addr) public view returns (bool) {\n        require(_addr != address(0));\n        return idIsMember(addressToId[_addr]);\n    }\n\n    function addrIsActiveMember(address _addr) public view returns (bool) {\n        require(_addr != address(0));\n        return idIsActiveMember(addressToId[_addr]);\n    }\n\n    function idIsMember(uint _id) public view returns (bool) {\n        if (_id != 0 && memberDB[_id].addr != address(0)) {\n            return true;\n        } else {\n            return false;\n        }\n    }\n\n    function idIsActiveMember(uint _id) public view returns (bool) {\n        require (_id != 0 || memberDB[_id].since > 0);\n        if (idExpireTime(_id) > block.timestamp) {\n            return true;  // not yet expire\n        } else {\n            return false;\n        }\n    }\n\n    function idExpireTime(uint _id) public view returns (uint) {\n        uint _bonus;\n        if (isVipTier(_id)) {\n            _bonus = vipMemberBonus;\n        }\n        uint _expectTime = memberDB[_id].since + memberPeriod + _bonus;\n        if (_expectTime > memberDB[_id].penalty) {\n            return _expectTime - memberDB[_id].penalty;\n        } else {\n            return 0;\n        }\n    }\n\n    function addrExpireTime(address _addr) external view returns (uint) {\n        uint _id = addressToId[_addr];\n        uint _bonus;\n        if (isVipTier(_id)) {\n            _bonus = vipMemberBonus;\n        }\n        uint _expectTime = memberDB[_id].since + memberPeriod + _bonus;\n        if (_expectTime > memberDB[_id].penalty) {\n            return _expectTime - memberDB[_id].penalty;\n        } else {\n            return 0;\n        }\n    }\n\n    function addrToId(address _addr) external view returns (uint) {\n        return addressToId[_addr];\n    }\n\n    function getMemberInfo(address _addr) external view returns (uint, bytes32, uint, uint, bytes32, uint8, uint){\n        uint _id = addressToId[_addr];\n        uint status;  // 0=connection error, 1=active, 2=inactive, 3=not member\n        uint _expireTime = idExpireTime(_id);\n        if (_id == 0) {\n            status = 3;\n        } else {\n            if (idIsActiveMember(_id)){\n                status = 1;\n            } else {\n                status = 2;\n            }\n        }\n        return (status, bytes32(_id), memberDB[_id].since, memberDB[_id].penalty, memberDB[_id].kycid, memberDB[_id].tier, _expireTime);\n    }\n\n    function getActiveMemberCount() public view isMember returns (uint){\n        return(activeMemberCount);\n    }\n\n    function updateActiveMemberCount(bool _forced) public isAppWhitelist returns (uint){\n        // only update once per _cooldownTime, unless set _forced to true\n        // potential high gas cost: add an argument `uint _memberCount` and let coreManager to update this?\n        //                          in such case coreManager first call view function _countActiveMembers\n        //                          and then call this function\n        require(block.timestamp > lastMemberCountUpdate);\n        uint _cooldownTime = 24 hours;  // or 12 hours? Is this also sort of grace period when a membership expires?\n        if ((block.timestamp - lastMemberCountUpdate < _cooldownTime && _forced) ||\n            (block.timestamp - lastMemberCountUpdate > _cooldownTime)) {\n            activeMemberCount = _countActiveMembers();\n            lastMemberCountUpdate = block.timestamp;\n        }  // else don't count\n        return(activeMemberCount);\n    }\n\n    function _countActiveMembers() internal view returns (uint) {\n        uint _count = 0;\n        for (uint i = 0; i <= totalId; i++) {\n            if (idExpireTime(i) > block.timestamp) {\n                _count += 1;\n            }\n        }\n        return _count;\n    }\n\n    // upgradable\n    function pause() external coreManagerOnly whenNotPaused {\n        paused = true;\n    }\n\n    function unpause() public ownerOnly whenPaused {\n        // set to ownerOnly in case accounts of other managers are compromised\n        paused = false;\n    }\n\n    function updateOwner(address _addr) public ownerOnly {\n        require(addrIsActiveMember(_addr));\n        owner = _addr;\n    }\n\n    function updateManager(address _addr, uint _id) public coreManagerOnly {\n        // \"managers\" can assign KYC id\n        require(_addr != address(0));\n        managers[_id] = _addr;\n    }\n\n    function getManagers() external view coreManagerOnly returns(address[8] memory) {\n        return managers;\n    }\n\n    function updateQOTAddr(address _addr) external ownerOnly {\n        QOTAddr = _addr;\n    }\n\n}\n",
  "sourcePath": "/home/kai/Work/project/OptractContract/contracts/MemberShip.sol",
  "compiler": {
    "name": "solc",
    "version": "0.5.2+commit.1df8f40c.Linux.g++"
  },
  "schemaVersion": "3.0.1",
  "updatedAt": "2019-07-18T01:13:22.074Z",
  "devdoc": {
    "methods": {}
  },
  "userdoc": {
    "methods": {}
  }
}