{
  "contractName": "QOT",
  "abi": [
    {
      "constant": false,
      "inputs": [
        {
          "name": "spender",
          "type": "address"
        },
        {
          "name": "value",
          "type": "uint256"
        }
      ],
      "name": "approve",
      "outputs": [
        {
          "name": "",
          "type": "bool"
        }
      ],
      "payable": false,
      "stateMutability": "nonpayable",
      "type": "function"
    },
    {
      "constant": true,
      "inputs": [],
      "name": "totalSupply",
      "outputs": [
        {
          "name": "",
          "type": "uint256"
        }
      ],
      "payable": false,
      "stateMutability": "view",
      "type": "function"
    },
    {
      "constant": false,
      "inputs": [
        {
          "name": "_newAddr",
          "type": "address"
        },
        {
          "name": "_idx",
          "type": "uint8"
        }
      ],
      "name": "addSpender",
      "outputs": [
        {
          "name": "",
          "type": "bool"
        }
      ],
      "payable": false,
      "stateMutability": "nonpayable",
      "type": "function"
    },
    {
      "constant": true,
      "inputs": [],
      "name": "queryMaxTransfer",
      "outputs": [
        {
          "name": "",
          "type": "uint256"
        }
      ],
      "payable": false,
      "stateMutability": "view",
      "type": "function"
    },
    {
      "constant": true,
      "inputs": [],
      "name": "_maxSupply",
      "outputs": [
        {
          "name": "",
          "type": "uint256"
        }
      ],
      "payable": false,
      "stateMutability": "view",
      "type": "function"
    },
    {
      "constant": false,
      "inputs": [
        {
          "name": "from",
          "type": "address"
        },
        {
          "name": "to",
          "type": "address"
        },
        {
          "name": "value",
          "type": "uint256"
        }
      ],
      "name": "transferFrom",
      "outputs": [
        {
          "name": "",
          "type": "bool"
        }
      ],
      "payable": false,
      "stateMutability": "nonpayable",
      "type": "function"
    },
    {
      "constant": true,
      "inputs": [],
      "name": "memberCtrAddr",
      "outputs": [
        {
          "name": "",
          "type": "address"
        }
      ],
      "payable": false,
      "stateMutability": "view",
      "type": "function"
    },
    {
      "constant": true,
      "inputs": [],
      "name": "queryMinHoldingsToTransfer",
      "outputs": [
        {
          "name": "",
          "type": "uint256"
        }
      ],
      "payable": false,
      "stateMutability": "view",
      "type": "function"
    },
    {
      "constant": true,
      "inputs": [
        {
          "name": "",
          "type": "uint256"
        }
      ],
      "name": "managers",
      "outputs": [
        {
          "name": "",
          "type": "address"
        }
      ],
      "payable": false,
      "stateMutability": "view",
      "type": "function"
    },
    {
      "constant": true,
      "inputs": [
        {
          "name": "_idx",
          "type": "uint256"
        }
      ],
      "name": "queryManager",
      "outputs": [
        {
          "name": "",
          "type": "address"
        }
      ],
      "payable": false,
      "stateMutability": "view",
      "type": "function"
    },
    {
      "constant": true,
      "inputs": [
        {
          "name": "_owner",
          "type": "address"
        }
      ],
      "name": "balanceOf",
      "outputs": [
        {
          "name": "",
          "type": "uint256"
        }
      ],
      "payable": false,
      "stateMutability": "view",
      "type": "function"
    },
    {
      "constant": false,
      "inputs": [
        {
          "name": "_amount",
          "type": "uint256"
        }
      ],
      "name": "setMaxTransfer",
      "outputs": [
        {
          "name": "",
          "type": "bool"
        }
      ],
      "payable": false,
      "stateMutability": "nonpayable",
      "type": "function"
    },
    {
      "constant": true,
      "inputs": [],
      "name": "queryQuotas",
      "outputs": [
        {
          "name": "",
          "type": "uint256"
        },
        {
          "name": "",
          "type": "uint256"
        }
      ],
      "payable": false,
      "stateMutability": "view",
      "type": "function"
    },
    {
      "constant": true,
      "inputs": [
        {
          "name": "",
          "type": "uint256"
        }
      ],
      "name": "spenders",
      "outputs": [
        {
          "name": "",
          "type": "address"
        }
      ],
      "payable": false,
      "stateMutability": "view",
      "type": "function"
    },
    {
      "constant": true,
      "inputs": [],
      "name": "owner",
      "outputs": [
        {
          "name": "",
          "type": "address"
        }
      ],
      "payable": false,
      "stateMutability": "view",
      "type": "function"
    },
    {
      "constant": true,
      "inputs": [
        {
          "name": "_idx",
          "type": "uint256"
        }
      ],
      "name": "querySpender",
      "outputs": [
        {
          "name": "",
          "type": "address"
        }
      ],
      "payable": false,
      "stateMutability": "view",
      "type": "function"
    },
    {
      "constant": false,
      "inputs": [
        {
          "name": "to",
          "type": "address"
        },
        {
          "name": "value",
          "type": "uint256"
        }
      ],
      "name": "transfer",
      "outputs": [
        {
          "name": "",
          "type": "bool"
        }
      ],
      "payable": false,
      "stateMutability": "nonpayable",
      "type": "function"
    },
    {
      "constant": false,
      "inputs": [
        {
          "name": "_memberCtrAddr",
          "type": "address"
        }
      ],
      "name": "setMemberCtrAddr",
      "outputs": [
        {
          "name": "",
          "type": "bool"
        }
      ],
      "payable": false,
      "stateMutability": "nonpayable",
      "type": "function"
    },
    {
      "constant": false,
      "inputs": [
        {
          "name": "_newAddr",
          "type": "address"
        },
        {
          "name": "_idx",
          "type": "uint8"
        }
      ],
      "name": "addManager",
      "outputs": [
        {
          "name": "",
          "type": "bool"
        }
      ],
      "payable": false,
      "stateMutability": "nonpayable",
      "type": "function"
    },
    {
      "constant": true,
      "inputs": [],
      "name": "minHoldingsToTransfer",
      "outputs": [
        {
          "name": "",
          "type": "uint256"
        }
      ],
      "payable": false,
      "stateMutability": "view",
      "type": "function"
    },
    {
      "constant": true,
      "inputs": [
        {
          "name": "",
          "type": "uint256"
        }
      ],
      "name": "mining",
      "outputs": [
        {
          "name": "",
          "type": "address"
        }
      ],
      "payable": false,
      "stateMutability": "view",
      "type": "function"
    },
    {
      "constant": true,
      "inputs": [
        {
          "name": "_owner",
          "type": "address"
        },
        {
          "name": "_spender",
          "type": "address"
        }
      ],
      "name": "allowance",
      "outputs": [
        {
          "name": "",
          "type": "uint256"
        }
      ],
      "payable": false,
      "stateMutability": "view",
      "type": "function"
    },
    {
      "constant": true,
      "inputs": [],
      "name": "maxTransfer",
      "outputs": [
        {
          "name": "",
          "type": "uint256"
        }
      ],
      "payable": false,
      "stateMutability": "view",
      "type": "function"
    },
    {
      "constant": false,
      "inputs": [
        {
          "name": "_amount",
          "type": "uint256"
        }
      ],
      "name": "setMinHoldingsToTransfer",
      "outputs": [
        {
          "name": "",
          "type": "bool"
        }
      ],
      "payable": false,
      "stateMutability": "nonpayable",
      "type": "function"
    },
    {
      "inputs": [],
      "payable": false,
      "stateMutability": "nonpayable",
      "type": "constructor"
    },
    {
      "anonymous": false,
      "inputs": [
        {
          "indexed": true,
          "name": "owner",
          "type": "address"
        },
        {
          "indexed": true,
          "name": "spender",
          "type": "address"
        },
        {
          "indexed": false,
          "name": "value",
          "type": "uint256"
        }
      ],
      "name": "Approval",
      "type": "event"
    },
    {
      "anonymous": false,
      "inputs": [
        {
          "indexed": true,
          "name": "from",
          "type": "address"
        },
        {
          "indexed": true,
          "name": "to",
          "type": "address"
        },
        {
          "indexed": false,
          "name": "value",
          "type": "uint256"
        }
      ],
      "name": "Transfer",
      "type": "event"
    },
    {
      "constant": true,
      "inputs": [],
      "name": "symbol",
      "outputs": [
        {
          "name": "",
          "type": "string"
        }
      ],
      "payable": false,
      "stateMutability": "view",
      "type": "function"
    },
    {
      "constant": true,
      "inputs": [],
      "name": "decimals",
      "outputs": [
        {
          "name": "",
          "type": "uint8"
        }
      ],
      "payable": false,
      "stateMutability": "view",
      "type": "function"
    },
    {
      "constant": false,
      "inputs": [
        {
          "name": "_mining",
          "type": "address"
        },
        {
          "name": "_idx",
          "type": "uint256"
        }
      ],
      "name": "setMining",
      "outputs": [
        {
          "name": "",
          "type": "bool"
        }
      ],
      "payable": false,
      "stateMutability": "nonpayable",
      "type": "function"
    },
    {
      "constant": true,
      "inputs": [
        {
          "name": "_idx",
          "type": "uint256"
        }
      ],
      "name": "queryMining",
      "outputs": [
        {
          "name": "",
          "type": "address"
        }
      ],
      "payable": false,
      "stateMutability": "view",
      "type": "function"
    },
    {
      "constant": true,
      "inputs": [],
      "name": "isMining",
      "outputs": [
        {
          "name": "",
          "type": "bool"
        }
      ],
      "payable": false,
      "stateMutability": "view",
      "type": "function"
    },
    {
      "constant": false,
      "inputs": [
        {
          "name": "toAddress",
          "type": "address"
        },
        {
          "name": "_amount",
          "type": "uint256"
        }
      ],
      "name": "mint",
      "outputs": [
        {
          "name": "",
          "type": "bool"
        }
      ],
      "payable": false,
      "stateMutability": "nonpayable",
      "type": "function"
    },
    {
      "constant": false,
      "inputs": [
        {
          "name": "amount",
          "type": "uint256"
        }
      ],
      "name": "burn",
      "outputs": [
        {
          "name": "",
          "type": "bool"
        }
      ],
      "payable": false,
      "stateMutability": "nonpayable",
      "type": "function"
    }
  ],
  "bytecode": "0x6113886013556109c460145560c0604052600360808190527f514f54000000000000000000000000000000000000000000000000000000000060a09081526200004c916018919062000208565b506019805460ff1916600c17905569152d02c7e14af6800000601a553480156200007557600080fd5b50604080516101008101825273b440ea2780614b3c6a00e512f432785e7dfafa3e8152734ad56641c569c91c64c28a904cda50ae5326da41602082015273af7400787c54422be8b44154b1273661f1259ccd918101919091526000606082018190526080820181905260a0820181905260c0820181905260e0820152620001019060039060086200028d565b506040805161010081018252600080825260208201819052918101829052606081018290526080810182905260a0810182905260c0810182905260e08101919091526200015390600b9060086200028d565b50601b8054600160a060020a03191633179055670429d069189e0000601755601560205267016345785d8a00007f19806ca7292f1af60b1d50fc088649ba97c330837138cc8ca4d7f9350dcfc2fb8190557f8ded8cc7913ea77cfc97e7f098f84037eaf7d1993f0b8e7b352e30fe760899ba81905573af7400787c54422be8b44154b1273661f1259ccd6000527f553a1a3370d14e94b8612cd7ba0e60b4d5509b3b9258239ba8cfdec14dad876f556200032d565b828054600181600116156101000203166002900490600052602060002090601f016020900481019282601f106200024b57805160ff19168380011785556200027b565b828001600101855582156200027b579182015b828111156200027b5782518255916020019190600101906200025e565b5062000289929150620002e6565b5090565b8260088101928215620002d8579160200282015b82811115620002d85782518254600160a060020a031916600160a060020a03909116178255602090920191600190910190620002a1565b506200028992915062000306565b6200030391905b80821115620002895760008155600101620002ed565b90565b6200030391905b8082111562000289578054600160a060020a03191681556001016200030d565b6111ae806200033d6000396000f3fe608060405234801561001057600080fd5b5060043610610202576000357c010000000000000000000000000000000000000000000000000000000090048063466045511161012c578063a9059cbb116100bf578063d7dd41f21161008e578063d7dd41f2146105a0578063dd62ed3e146105bd578063ed233ee9146105eb578063f3393400146105f357610202565b8063a9059cbb14610517578063b8464efb14610543578063b89e367f14610569578063ccf390361461059857610202565b806387cab37e116100fb57806387cab37e146104585780638da5cb5b1461047557806395d89b411461047d5780639df9c327146104fa57610202565b806346604551146103d757806370a08231146103f457806377348de91461041a5780637f28a4011461043757610202565b806323b872dd116101a45780633d39c260116101735780633d39c2601461035457806340c10f191461037157806341e2ee291461039d57806342966c68146103ba57610202565b806323b872dd146102d45780632c20bdd71461030a578063313ce5671461032e57806338d59ea71461034c57610202565b806318c9bc9c116101e057806318c9bc9c1461028d57806319a74ab3146102bc5780631b0079cd146102c457806322f4596f146102cc57610202565b8063095ea7b3146102075780631163cf0e1461024757806318160ddd14610273575b600080fd5b6102336004803603604081101561021d57600080fd5b50600160a060020a038135169060200135610610565b604080519115158252519081900360200190f35b6102336004803603604081101561025d57600080fd5b50600160a060020a0381351690602001356106b2565b61027b61070f565b60408051918252519081900360200190f35b610233600480360360408110156102a357600080fd5b508035600160a060020a0316906020013560ff16610715565b61023361073c565b61027b6108cc565b61027b6108d2565b610233600480360360608110156102ea57600080fd5b50600160a060020a038135811691602081013590911690604001356108d8565b610312610a16565b60408051600160a060020a039092168252519081900360200190f35b610336610a25565b6040805160ff9092168252519081900360200190f35b61027b610a2e565b6103126004803603602081101561036a57600080fd5b5035610a34565b6102336004803603604081101561038757600080fd5b50600160a060020a038135169060200135610a51565b610312600480360360208110156103b357600080fd5b5035610c22565b610233600480360360208110156103d057600080fd5b5035610c44565b610312600480360360208110156103ed57600080fd5b5035610c86565b61027b6004803603602081101561040a57600080fd5b5035600160a060020a0316610c95565b6102336004803603602081101561043057600080fd5b5035610cb0565b61043f610ccf565b6040805192835260208301919091528051918290030190f35b6103126004803603602081101561046e57600080fd5b5035610cd9565b610312610ce6565b610485610cf5565b6040805160208082528351818301528351919283929083019185019080838360005b838110156104bf5781810151838201526020016104a7565b50505050905090810190601f1680156104ec5780820380516001836020036101000a031916815260200191505b509250505060405180910390f35b6103126004803603602081101561051057600080fd5b5035610d8b565b6102336004803603604081101561052d57600080fd5b50600160a060020a038135169060200135610d9a565b6102336004803603602081101561055957600080fd5b5035600160a060020a0316610ec1565b6102336004803603604081101561057f57600080fd5b508035600160a060020a0316906020013560ff16610f0d565b61027b610f44565b610312600480360360208110156105b657600080fd5b5035610f4a565b61027b600480360360408110156105d357600080fd5b50600160a060020a0381358116916020013516610f57565b61027b610f82565b6102336004803603602081101561060957600080fd5b5035610f88565b6000600160a060020a038316151561062757600080fd5b61063083610fa7565b8061063f575061063f83611093565b151561064a57600080fd5b336000818152601660209081526040808320600160a060020a03881680855290835292819020869055805186815290519293927f8c5be1e5ebec7d5bd14f71427d1e84f3dd0314c0f7b2291e5b200ac8c7c3b925929181900390910190a35060015b92915050565b601b54600090600160a060020a031633146106cc57600080fd5b82601c83601081106106da57fe5b01805473ffffffffffffffffffffffffffffffffffffffff1916600160a060020a039290921691909117905550600192915050565b60175481565b600061072033610fa7565b151561072b57600080fd5b82600b60ff8416600881106106da57fe5b600033151561074d575060006108c9565b601c60000154600160a060020a03163314806107765750601c60010154600160a060020a031633145b8061078e5750601c60020154600160a060020a031633145b806107a65750601c60030154600160a060020a031633145b806107be5750601c60040154600160a060020a031633145b806107d65750601c60050154600160a060020a031633145b806107ee5750601c60060154600160a060020a031633145b806108065750601c60070154600160a060020a031633145b8061081e5750601c60080154600160a060020a031633145b806108365750601c60090154600160a060020a031633145b8061084e5750601c600a0154600160a060020a031633145b806108665750601c600b0154600160a060020a031633145b8061087e5750601c600c0154600160a060020a031633145b806108965750601c600d0154600160a060020a031633145b806108ae5750601c600e0154600160a060020a031633145b806108c65750601c600f0154600160a060020a031633145b90505b90565b60145490565b601a5481565b600160a060020a038316600090815260166020908152604080832033845290915281205482111561090857600080fd5b600160a060020a03841660009081526015602052604090205482111561092d57600080fd5b600160a060020a038316151561094257600080fd5b61094b33610fa7565b8061095a575061095a33611093565b151561096557600080fd5b33600090815260156020526040902054610985908363ffffffff61115d16565b3360009081526015602052604080822092909255600160a060020a038516815220546109b7908363ffffffff61117216565b600160a060020a0384166000818152601560209081526040918290209390935580518581529051919233927fddf252ad1be2c89b69c2b068fc378daa952ba7f163c4a11628f55a4df523b3ef9281900390910190a35060019392505050565b600254600160a060020a031681565b60195460ff1690565b60135490565b60038160088110610a4157fe5b0154600160a060020a0316905081565b6000331515610a5f57600080fd5b601c60000154600160a060020a0316331480610a885750601c60010154600160a060020a031633145b80610aa05750601c60020154600160a060020a031633145b80610ab85750601c60030154600160a060020a031633145b80610ad05750601c60040154600160a060020a031633145b80610ae85750601c60050154600160a060020a031633145b80610b005750601c60060154600160a060020a031633145b80610b185750601c60070154600160a060020a031633145b80610b305750601c60080154600160a060020a031633145b80610b485750601c60090154600160a060020a031633145b80610b605750601c600a0154600160a060020a031633145b80610b785750601c600b0154600160a060020a031633145b80610b905750601c600c0154600160a060020a031633145b80610ba85750601c600d0154600160a060020a031633145b80610bc05750601c600e0154600160a060020a031633145b80610bd85750601c600f0154600160a060020a031633145b1515610be357600080fd5b601a5460175410610bf357600080fd5b50600160a060020a03821660009081526015602052604090208054820190556017805482019055600192915050565b600060038260088110610c3157fe5b0154600160a060020a031690505b919050565b33600090815260156020526040812054821115610c6057600080fd5b503360009081526015602052604090208054829003905560178054919091039055600190565b6000601c8260108110610c3157fe5b600160a060020a031660009081526015602052604090205490565b6000610cbb33610fa7565b1515610cc657600080fd5b50601455600190565b6013546014549091565b600b8160088110610a4157fe5b601b54600160a060020a031681565b60188054604080516020601f6002600019610100600188161502019095169490940493840181900481028201810190925282815260609390929091830182828015610d815780601f10610d5657610100808354040283529160200191610d81565b820191906000526020600020905b815481529060010190602001808311610d6457829003601f168201915b5050505050905090565b6000600b8260088110610c3157fe5b33600090815260156020526040812054821115610db657600080fd5b600160a060020a0383161515610dcb57600080fd5b610dd433610fa7565b80610e065750610de2610a2e565b33600090815260156020526040902054118015610e065750610e026108cc565b8211155b1515610e1157600080fd5b33600090815260156020526040902054610e31908363ffffffff61115d16565b3360009081526015602052604080822092909255600160a060020a03851681522054610e63908363ffffffff61117216565b600160a060020a0384166000818152601560209081526040918290209390935580518581529051919233927fddf252ad1be2c89b69c2b068fc378daa952ba7f163c4a11628f55a4df523b3ef9281900390910190a350600192915050565b601b54600090600160a060020a03163314610edb57600080fd5b5060028054600160a060020a03831673ffffffffffffffffffffffffffffffffffffffff199091161790556001919050565b6000610f1833610fa7565b1515610f2357600080fd5b600360ff831611610f3357600080fd5b82600360ff8416600881106106da57fe5b60135481565b601c8160108110610a4157fe5b600160a060020a03918216600090815260166020908152604080832093909416825291909152205490565b60145481565b6000610f9333610fa7565b1515610f9e57600080fd5b50601355600190565b6000600160a060020a0382161515610fc157506000610c3f565b600354600160a060020a0383811691161480610fea5750600454600160a060020a038381169116145b806110025750600554600160a060020a038381169116145b8061101a5750600654600160a060020a038381169116145b806110325750600754600160a060020a038381169116145b8061104a5750600854600160a060020a038381169116145b806110625750600954600160a060020a038381169116145b8061107e5750600360075b0154600160a060020a038381169116145b1561108b57506001610c3f565b506000610c3f565b6000600160a060020a03821615156110ad57506000610c3f565b600b54600160a060020a03838116911614806110d65750600c54600160a060020a038381169116145b806110ee5750600d54600160a060020a038381169116145b806111065750600e54600160a060020a038381169116145b8061111e5750600f54600160a060020a038381169116145b806111365750601054600160a060020a038381169116145b8061114e5750601154600160a060020a038381169116145b8061107e5750600b600761106d565b60008282111561116c57600080fd5b50900390565b818101828110156106ac57600080fdfea165627a7a72305820ce2a8c8cf64b0f75249473cf743d633a70c8f82de06ea661daacc078e02108cc0029",
  "source": "pragma solidity ^0.5.2;\nimport \"./ERC20/tokens/StandardToken.sol\";\n\ncontract QOT is StandardToken {\n    string private _symbol = \"QOT\";\n    uint8 private _decimals = 12;\n    uint256 public _maxSupply = 100000000000000000000000;\n    address public owner;\n    address[16] public mining;\n    // uint256 public reward = 15000000000000;\n\n    modifier ownerOnly() {\n       require(msg.sender == owner);\n       _;\n    }\n\n    // TODO: move miningOnly() and probably some access control to QOTaccessControl.sol?\n    modifier miningOnly() {\n        require(msg.sender != address(0));\n        require(msg.sender == mining[0] || msg.sender == mining[1] || msg.sender == mining[2] ||\n                msg.sender == mining[3] || msg.sender == mining[4] || msg.sender == mining[5] ||\n                msg.sender == mining[6] || msg.sender == mining[7] || msg.sender == mining[8] ||\n                msg.sender == mining[9] || msg.sender == mining[10] || msg.sender == mining[11] ||\n                msg.sender == mining[12] || msg.sender == mining[13] || msg.sender == mining[14] ||\n                msg.sender == mining[15]);\n        _;\n    }\n\n    constructor() public {\n       owner = msg.sender;\n       totalSupply = 300000000000000000;  // from StandardToken.sol\n       _balances[0xB440ea2780614b3c6a00e512f432785E7dfAFA3E] = 100000000000000000;\n       _balances[0x4AD56641C569C91C64C28a904cda50AE5326Da41] = 100000000000000000;\n       _balances[0xaF7400787c54422Be8B44154B1273661f1259CcD] = 100000000000000000;\n    }\n\n    function symbol() public view returns (string memory){\n        return _symbol;\n    }\n\n    function decimals() public view returns (uint8){\n        return _decimals;\n    }\n\n    // TODO: Making mining contract upgradable while limit owner from changing this arbitrarily\n    function setMining(address _mining, uint _idx) ownerOnly external returns (bool) {\n\t//require(mining[_idx] == address(0)); // For debug, allow this to be changed many times\n\tmining[_idx] = _mining;\n\treturn true;\n    }\n\n    function queryMining(uint _idx) external view returns(address) {\n        return mining[_idx];\n    }\n\n    function isMining() external view returns(bool){\n        if (msg.sender == address(0)){\n            return false;\n        } else {\n            return(msg.sender == mining[0] || msg.sender == mining[1] || msg.sender == mining[2] ||\n                    msg.sender == mining[3] || msg.sender == mining[4] || msg.sender == mining[5] ||\n                    msg.sender == mining[6] || msg.sender == mining[7] || msg.sender == mining[8] ||\n                    msg.sender == mining[9] || msg.sender == mining[10] || msg.sender == mining[11] ||\n                    msg.sender == mining[12] || msg.sender == mining[13] || msg.sender == mining[14] ||\n                    msg.sender == mining[15]);\n        }\n    }\n\n    function mint(address toAddress, uint _amount) miningOnly external returns (bool) {\n        // assume verified by the mining() function\n\trequire(totalSupply < _maxSupply);\n\t_balances[toAddress] += _amount;\n\ttotalSupply += _amount;\n\treturn true;\n    }\n\n    function burn(uint256 amount) external returns (bool) {\n\trequire(_balances[msg.sender] >= amount);\n\t_balances[msg.sender] -= amount;\n\ttotalSupply -= amount;\n\n\treturn true;\n    }\n}\n",
  "sourcePath": "/home/kai/Work/project/OptractContract/contracts/QOT.sol",
  "compiler": {
    "name": "solc",
    "version": "0.5.2+commit.1df8f40c.Linux.g++"
  },
  "schemaVersion": "3.0.16",
  "updatedAt": "2019-10-15T15:22:47.762Z",
  "devdoc": {
    "methods": {
      "allowance(address,address)": {
        "details": "Function to check the amount of tokens that an owner allowed to a spender.",
        "params": {
          "_owner": "address The address which owns the funds.",
          "_spender": "address The address which will spend the funds."
        },
        "return": "A uint256 specifying the amount of tokens still available for the spender."
      },
      "approve(address,uint256)": {
        "details": "Approve the passed address to spend the specified amount of tokens on behalf of msg.sender. Beware that changing an allowance with this method brings the risk that someone may use both the old and the new allowance by unfortunate transaction ordering. One possible solution to mitigate this race condition is to first reduce the spender's allowance to 0 and set the desired value afterwards: https://github.com/ethereum/EIPs/issues/20#issuecomment-263524729",
        "params": {
          "spender": "The address which will spend the funds.",
          "value": "The amount of tokens to be spent."
        }
      },
      "balanceOf(address)": {
        "details": "Gets the balance of the specified address.",
        "params": {
          "_owner": "The address to query the balance of."
        },
        "return": "An uint256 representing the amount owned by the passed address."
      },
      "transfer(address,uint256)": {
        "details": "Transfer token for a specified address",
        "params": {
          "to": "The address to transfer to.",
          "value": "The amount to be transferred."
        }
      }
    }
  },
  "userdoc": {
    "methods": {}
  }
}