{
  "contractName": "QOT",
  "abi": [
    {
      "constant": false,
      "inputs": [
        {
          "name": "spender",
          "type": "address"
        },
        {
          "name": "value",
          "type": "uint256"
        }
      ],
      "name": "approve",
      "outputs": [
        {
          "name": "",
          "type": "bool"
        }
      ],
      "payable": false,
      "stateMutability": "nonpayable",
      "type": "function"
    },
    {
      "constant": true,
      "inputs": [],
      "name": "totalSupply",
      "outputs": [
        {
          "name": "",
          "type": "uint256"
        }
      ],
      "payable": false,
      "stateMutability": "view",
      "type": "function"
    },
    {
      "constant": true,
      "inputs": [],
      "name": "_maxSupply",
      "outputs": [
        {
          "name": "",
          "type": "uint256"
        }
      ],
      "payable": false,
      "stateMutability": "view",
      "type": "function"
    },
    {
      "constant": false,
      "inputs": [
        {
          "name": "from",
          "type": "address"
        },
        {
          "name": "to",
          "type": "address"
        },
        {
          "name": "value",
          "type": "uint256"
        }
      ],
      "name": "transferFrom",
      "outputs": [
        {
          "name": "",
          "type": "bool"
        }
      ],
      "payable": false,
      "stateMutability": "nonpayable",
      "type": "function"
    },
    {
      "constant": true,
      "inputs": [
        {
          "name": "_owner",
          "type": "address"
        }
      ],
      "name": "balanceOf",
      "outputs": [
        {
          "name": "",
          "type": "uint256"
        }
      ],
      "payable": false,
      "stateMutability": "view",
      "type": "function"
    },
    {
      "constant": true,
      "inputs": [],
      "name": "owner",
      "outputs": [
        {
          "name": "",
          "type": "address"
        }
      ],
      "payable": false,
      "stateMutability": "view",
      "type": "function"
    },
    {
      "constant": false,
      "inputs": [
        {
          "name": "to",
          "type": "address"
        },
        {
          "name": "value",
          "type": "uint256"
        }
      ],
      "name": "transfer",
      "outputs": [
        {
          "name": "",
          "type": "bool"
        }
      ],
      "payable": false,
      "stateMutability": "nonpayable",
      "type": "function"
    },
    {
      "constant": true,
      "inputs": [
        {
          "name": "",
          "type": "uint256"
        }
      ],
      "name": "mining",
      "outputs": [
        {
          "name": "",
          "type": "address"
        }
      ],
      "payable": false,
      "stateMutability": "view",
      "type": "function"
    },
    {
      "constant": true,
      "inputs": [
        {
          "name": "_owner",
          "type": "address"
        },
        {
          "name": "_spender",
          "type": "address"
        }
      ],
      "name": "allowance",
      "outputs": [
        {
          "name": "",
          "type": "uint256"
        }
      ],
      "payable": false,
      "stateMutability": "view",
      "type": "function"
    },
    {
      "inputs": [],
      "payable": false,
      "stateMutability": "nonpayable",
      "type": "constructor"
    },
    {
      "anonymous": false,
      "inputs": [
        {
          "indexed": true,
          "name": "owner",
          "type": "address"
        },
        {
          "indexed": true,
          "name": "spender",
          "type": "address"
        },
        {
          "indexed": false,
          "name": "value",
          "type": "uint256"
        }
      ],
      "name": "Approval",
      "type": "event"
    },
    {
      "anonymous": false,
      "inputs": [
        {
          "indexed": true,
          "name": "from",
          "type": "address"
        },
        {
          "indexed": true,
          "name": "to",
          "type": "address"
        },
        {
          "indexed": false,
          "name": "value",
          "type": "uint256"
        }
      ],
      "name": "Transfer",
      "type": "event"
    },
    {
      "constant": true,
      "inputs": [],
      "name": "symbol",
      "outputs": [
        {
          "name": "",
          "type": "string"
        }
      ],
      "payable": false,
      "stateMutability": "view",
      "type": "function"
    },
    {
      "constant": true,
      "inputs": [],
      "name": "decimals",
      "outputs": [
        {
          "name": "",
          "type": "uint8"
        }
      ],
      "payable": false,
      "stateMutability": "view",
      "type": "function"
    },
    {
      "constant": false,
      "inputs": [
        {
          "name": "_mining",
          "type": "address"
        },
        {
          "name": "_idx",
          "type": "uint256"
        }
      ],
      "name": "setMining",
      "outputs": [
        {
          "name": "",
          "type": "bool"
        }
      ],
      "payable": false,
      "stateMutability": "nonpayable",
      "type": "function"
    },
    {
      "constant": true,
      "inputs": [
        {
          "name": "_idx",
          "type": "uint256"
        }
      ],
      "name": "queryMining",
      "outputs": [
        {
          "name": "",
          "type": "address"
        }
      ],
      "payable": false,
      "stateMutability": "view",
      "type": "function"
    },
    {
      "constant": true,
      "inputs": [],
      "name": "isMining",
      "outputs": [
        {
          "name": "",
          "type": "bool"
        }
      ],
      "payable": false,
      "stateMutability": "view",
      "type": "function"
    },
    {
      "constant": false,
      "inputs": [
        {
          "name": "toAddress",
          "type": "address"
        },
        {
          "name": "_amount",
          "type": "uint256"
        }
      ],
      "name": "mint",
      "outputs": [
        {
          "name": "",
          "type": "bool"
        }
      ],
      "payable": false,
      "stateMutability": "nonpayable",
      "type": "function"
    },
    {
      "constant": false,
      "inputs": [
        {
          "name": "amount",
          "type": "uint256"
        }
      ],
      "name": "burn",
      "outputs": [
        {
          "name": "",
          "type": "bool"
        }
      ],
      "payable": false,
      "stateMutability": "nonpayable",
      "type": "function"
    }
  ],
  "bytecode": "0x60c0604052600360808190527f514f54000000000000000000000000000000000000000000000000000000000060a090815261003e916004919061011a565b506005805460ff1916600c17905569152d02c7e14af680000060065534801561006657600080fd5b5060078054600160a060020a03191633179055670429d069189e0000600355600160205267016345785d8a00007f6cafcc575780256d485370a457291abb0cd89a8beb782a63f0ad579757746bc18190557f6eb8053780f49fc55c3cb24a1dd11e5d3a67206b0fdd8a480a7db8d5cc0a7e2981905573af7400787c54422be8b44154b1273661f1259ccd6000527f3152a988ce4e72b050f331b28315d629199e5f84f532abbf90a91e7e4172a17b556101b5565b828054600181600116156101000203166002900490600052602060002090601f016020900481019282601f1061015b57805160ff1916838001178555610188565b82800160010185558215610188579182015b8281111561018857825182559160200191906001019061016d565b50610194929150610198565b5090565b6101b291905b80821115610194576000815560010161019e565b90565b610bba806101c46000396000f3fe608060405234801561001057600080fd5b506004361061011d576000357c01000000000000000000000000000000000000000000000000000000009004806342966c68116100b457806395d89b411161008357806395d89b41146102bc578063a9059cbb14610339578063d7dd41f214610365578063dd62ed3e146103825761011d565b806342966c6814610238578063466045511461025557806370a082311461028e5780638da5cb5b146102b45761011d565b806322f4596f116100f057806322f4596f146101b057806323b872dd146101b8578063313ce567146101ee57806340c10f191461020c5761011d565b8063095ea7b3146101225780631163cf0e1461016257806318160ddd1461018e57806319a74ab3146101a8575b600080fd5b61014e6004803603604081101561013857600080fd5b50600160a060020a0381351690602001356103b0565b604080519115158252519081900360200190f35b61014e6004803603604081101561017857600080fd5b50600160a060020a03813516906020013561042f565b61019661048c565b60408051918252519081900360200190f35b61014e610492565b610196610621565b61014e600480360360608110156101ce57600080fd5b50600160a060020a03813581169160208101359091169060400135610627565b6101f6610742565b6040805160ff9092168252519081900360200190f35b61014e6004803603604081101561022257600080fd5b50600160a060020a03813516906020013561074b565b61014e6004803603602081101561024e57600080fd5b503561091c565b6102726004803603602081101561026b57600080fd5b5035610960565b60408051600160a060020a039092168252519081900360200190f35b610196600480360360208110156102a457600080fd5b5035600160a060020a0316610980565b61027261099b565b6102c46109aa565b6040805160208082528351818301528351919283929083019185019080838360005b838110156102fe5781810151838201526020016102e6565b50505050905090810190601f16801561032b5780820380516001836020036101000a031916815260200191505b509250505060405180910390f35b61014e6004803603604081101561034f57600080fd5b50600160a060020a038135169060200135610a40565b6102726004803603602081101561037b57600080fd5b5035610b21565b6101966004803603604081101561039857600080fd5b50600160a060020a0381358116916020013516610b3e565b6000600160a060020a03831615156103c757600080fd5b336000818152600260209081526040808320600160a060020a03881680855290835292819020869055805186815290519293927f8c5be1e5ebec7d5bd14f71427d1e84f3dd0314c0f7b2291e5b200ac8c7c3b925929181900390910190a35060015b92915050565b600754600090600160a060020a0316331461044957600080fd5b826008836010811061045757fe5b01805473ffffffffffffffffffffffffffffffffffffffff1916600160a060020a039290921691909117905550600192915050565b60035481565b60003315156104a35750600061061e565b600860000154600160a060020a03163314806104cc5750600860010154600160a060020a031633145b806104e45750600860020154600160a060020a031633145b806104fc5750600860030154600160a060020a031633145b806105145750600860040154600160a060020a031633145b8061052c5750600860050154600160a060020a031633145b806105445750600860060154600160a060020a031633145b8061055c5750600860070154600160a060020a031633145b8061057357506008800154600160a060020a031633145b8061058b5750600860090154600160a060020a031633145b806105a357506008600a0154600160a060020a031633145b806105bb57506008600b0154600160a060020a031633145b806105d357506008600c0154600160a060020a031633145b806105eb57506008600d0154600160a060020a031633145b8061060357506008600e0154600160a060020a031633145b8061061b57506008600f0154600160a060020a031633145b90505b90565b60065481565b600160a060020a038316600090815260026020908152604080832033845290915281205482111561065757600080fd5b600160a060020a03841660009081526001602052604090205482111561067c57600080fd5b600160a060020a038316151561069157600080fd5b336000908152600160205260409020546106b1908363ffffffff610b6916565b3360009081526001602052604080822092909255600160a060020a038516815220546106e3908363ffffffff610b7e16565b600160a060020a0384166000818152600160209081526040918290209390935580518581529051919233927fddf252ad1be2c89b69c2b068fc378daa952ba7f163c4a11628f55a4df523b3ef9281900390910190a35060019392505050565b60055460ff1690565b600033151561075957600080fd5b600860000154600160a060020a03163314806107825750600860010154600160a060020a031633145b8061079a5750600860020154600160a060020a031633145b806107b25750600860030154600160a060020a031633145b806107ca5750600860040154600160a060020a031633145b806107e25750600860050154600160a060020a031633145b806107fa5750600860060154600160a060020a031633145b806108125750600860070154600160a060020a031633145b8061082957506008800154600160a060020a031633145b806108415750600860090154600160a060020a031633145b8061085957506008600a0154600160a060020a031633145b8061087157506008600b0154600160a060020a031633145b8061088957506008600c0154600160a060020a031633145b806108a157506008600d0154600160a060020a031633145b806108b957506008600e0154600160a060020a031633145b806108d157506008600f0154600160a060020a031633145b15156108dc57600080fd5b600654600354106108ec57600080fd5b50600160a060020a0382166000908152600160208190526040909120805483019055600380548301905592915050565b3360009081526001602052604081205482111561093857600080fd5b5033600090815260016020819052604090912080548390039055600380548390039055919050565b60006008826010811061096f57fe5b0154600160a060020a031692915050565b600160a060020a031660009081526001602052604090205490565b600754600160a060020a031681565b60048054604080516020601f6002600019610100600188161502019095169490940493840181900481028201810190925282815260609390929091830182828015610a365780601f10610a0b57610100808354040283529160200191610a36565b820191906000526020600020905b815481529060010190602001808311610a1957829003601f168201915b5050505050905090565b33600090815260016020526040812054821115610a5c57600080fd5b600160a060020a0383161515610a7157600080fd5b33600090815260016020526040902054610a91908363ffffffff610b6916565b3360009081526001602052604080822092909255600160a060020a03851681522054610ac3908363ffffffff610b7e16565b600160a060020a0384166000818152600160209081526040918290209390935580518581529051919233927fddf252ad1be2c89b69c2b068fc378daa952ba7f163c4a11628f55a4df523b3ef9281900390910190a350600192915050565b60088160108110610b2e57fe5b0154600160a060020a0316905081565b600160a060020a03918216600090815260026020908152604080832093909416825291909152205490565b600082821115610b7857600080fd5b50900390565b8181018281101561042957600080fdfea165627a7a72305820fc4d6dfc9d520c78b469639db07a1ba71ec0c0d23584439747b3c1e78a6fc2710029",
  "source": "pragma solidity ^0.5.2;\nimport \"./ERC20/tokens/StandardToken.sol\";\n\ncontract QOT is StandardToken {\n    string private _symbol = \"QOT\";\n    uint8 private _decimals = 12;\n    uint256 public _maxSupply = 100000000000000000000000;\n    address public owner;\n    address[16] public mining;\n    // uint256 public reward = 15000000000000;\n\n    modifier ownerOnly() {\n       require(msg.sender == owner);\n       _;\n    }\n\n    modifier miningOnly() {\n        require(msg.sender != address(0));\n        require(msg.sender == mining[0] || msg.sender == mining[1] || msg.sender == mining[2] ||\n                msg.sender == mining[3] || msg.sender == mining[4] || msg.sender == mining[5] ||\n                msg.sender == mining[6] || msg.sender == mining[7] || msg.sender == mining[8] ||\n                msg.sender == mining[9] || msg.sender == mining[10] || msg.sender == mining[11] ||\n                msg.sender == mining[12] || msg.sender == mining[13] || msg.sender == mining[14] ||\n                msg.sender == mining[15]);\n        _;\n    }\n\n    constructor() public {\n       owner = msg.sender;\n       totalSupply = 300000000000000000;  // from StandardToken.sol\n       _balances[0xB440ea2780614b3c6a00e512f432785E7dfAFA3E] = 100000000000000000;\n       _balances[0x4AD56641C569C91C64C28a904cda50AE5326Da41] = 100000000000000000;\n       _balances[0xaF7400787c54422Be8B44154B1273661f1259CcD] = 100000000000000000;\n    }\n\n    function symbol() public view returns (string memory){\n        return _symbol;\n    }\n\n    function decimals() public view returns (uint8){\n        return _decimals;\n    }\n\n    // TODO: Making mining contract upgradable while limit owner from changing this arbitrarily\n    function setMining(address _mining, uint _idx) ownerOnly external returns (bool) {\n\t//require(mining[_idx] == address(0)); // For debug, allow this to be changed many times\n\tmining[_idx] = _mining;\n\treturn true;\n    }\n\n    function queryMining(uint _idx) external view returns(address) {\n        return mining[_idx];\n    }\n\n    function isMining() external view returns(bool){\n        if (msg.sender == address(0)){\n            return false;\n        } else {\n            return(msg.sender == mining[0] || msg.sender == mining[1] || msg.sender == mining[2] ||\n                    msg.sender == mining[3] || msg.sender == mining[4] || msg.sender == mining[5] ||\n                    msg.sender == mining[6] || msg.sender == mining[7] || msg.sender == mining[8] ||\n                    msg.sender == mining[9] || msg.sender == mining[10] || msg.sender == mining[11] ||\n                    msg.sender == mining[12] || msg.sender == mining[13] || msg.sender == mining[14] ||\n                    msg.sender == mining[15]);\n        }\n    }\n\n    function mint(address toAddress, uint _amount) miningOnly external returns (bool) {\n        // assume verified by the mining() function\n\trequire(totalSupply < _maxSupply);\n\t_balances[toAddress] += _amount;\n\ttotalSupply += _amount;\n\treturn true;\n    }\n\n    function burn(uint256 amount) external returns (bool) {\n\trequire(_balances[msg.sender] >= amount);\n\t_balances[msg.sender] -= amount;\n\ttotalSupply -= amount;\n\n\treturn true;\n    }\n}\n",
  "sourcePath": "/home/kai/Work/project/OptractContract/contracts/QOT.sol",
  "compiler": {
    "name": "solc",
    "version": "0.5.2+commit.1df8f40c.Linux.g++"
  },
  "schemaVersion": "3.0.16",
  "updatedAt": "2019-09-18T03:48:36.299Z",
  "devdoc": {
    "methods": {
      "allowance(address,address)": {
        "details": "Function to check the amount of tokens that an owner allowed to a spender.",
        "params": {
          "_owner": "address The address which owns the funds.",
          "_spender": "address The address which will spend the funds."
        },
        "return": "A uint256 specifying the amount of tokens still available for the spender."
      },
      "approve(address,uint256)": {
        "details": "Approve the passed address to spend the specified amount of tokens on behalf of msg.sender. Beware that changing an allowance with this method brings the risk that someone may use both the old and the new allowance by unfortunate transaction ordering. One possible solution to mitigate this race condition is to first reduce the spender's allowance to 0 and set the desired value afterwards: https://github.com/ethereum/EIPs/issues/20#issuecomment-263524729",
        "params": {
          "spender": "The address which will spend the funds.",
          "value": "The amount of tokens to be spent."
        }
      },
      "balanceOf(address)": {
        "details": "Gets the balance of the specified address.",
        "params": {
          "_owner": "The address to query the balance of."
        },
        "return": "An uint256 representing the amount owned by the passed address."
      },
      "transfer(address,uint256)": {
        "details": "Transfer token for a specified address",
        "params": {
          "to": "The address to transfer to.",
          "value": "The amount to be transferred."
        }
      }
    }
  },
  "userdoc": {
    "methods": {}
  }
}