{
  "contractName": "QOT",
  "abi": [
    {
      "constant": false,
      "inputs": [
        {
          "name": "spender",
          "type": "address"
        },
        {
          "name": "value",
          "type": "uint256"
        }
      ],
      "name": "approve",
      "outputs": [
        {
          "name": "",
          "type": "bool"
        }
      ],
      "payable": false,
      "stateMutability": "nonpayable",
      "type": "function"
    },
    {
      "constant": true,
      "inputs": [],
      "name": "totalSupply",
      "outputs": [
        {
          "name": "",
          "type": "uint256"
        }
      ],
      "payable": false,
      "stateMutability": "view",
      "type": "function"
    },
    {
      "constant": false,
      "inputs": [
        {
          "name": "_newAddr",
          "type": "address"
        },
        {
          "name": "_idx",
          "type": "uint8"
        }
      ],
      "name": "addSpender",
      "outputs": [
        {
          "name": "",
          "type": "bool"
        }
      ],
      "payable": false,
      "stateMutability": "nonpayable",
      "type": "function"
    },
    {
      "constant": true,
      "inputs": [],
      "name": "queryMaxTransfer",
      "outputs": [
        {
          "name": "",
          "type": "uint256"
        }
      ],
      "payable": false,
      "stateMutability": "view",
      "type": "function"
    },
    {
      "constant": true,
      "inputs": [],
      "name": "_maxSupply",
      "outputs": [
        {
          "name": "",
          "type": "uint256"
        }
      ],
      "payable": false,
      "stateMutability": "view",
      "type": "function"
    },
    {
      "constant": false,
      "inputs": [
        {
          "name": "from",
          "type": "address"
        },
        {
          "name": "to",
          "type": "address"
        },
        {
          "name": "value",
          "type": "uint256"
        }
      ],
      "name": "transferFrom",
      "outputs": [
        {
          "name": "",
          "type": "bool"
        }
      ],
      "payable": false,
      "stateMutability": "nonpayable",
      "type": "function"
    },
    {
      "constant": true,
      "inputs": [],
      "name": "memberCtrAddr",
      "outputs": [
        {
          "name": "",
          "type": "address"
        }
      ],
      "payable": false,
      "stateMutability": "view",
      "type": "function"
    },
    {
      "constant": true,
      "inputs": [],
      "name": "queryMinHoldingsToTransfer",
      "outputs": [
        {
          "name": "",
          "type": "uint256"
        }
      ],
      "payable": false,
      "stateMutability": "view",
      "type": "function"
    },
    {
      "constant": true,
      "inputs": [
        {
          "name": "",
          "type": "uint256"
        }
      ],
      "name": "managers",
      "outputs": [
        {
          "name": "",
          "type": "address"
        }
      ],
      "payable": false,
      "stateMutability": "view",
      "type": "function"
    },
    {
      "constant": true,
      "inputs": [
        {
          "name": "_idx",
          "type": "uint256"
        }
      ],
      "name": "queryManager",
      "outputs": [
        {
          "name": "",
          "type": "address"
        }
      ],
      "payable": false,
      "stateMutability": "view",
      "type": "function"
    },
    {
      "constant": true,
      "inputs": [
        {
          "name": "_owner",
          "type": "address"
        }
      ],
      "name": "balanceOf",
      "outputs": [
        {
          "name": "",
          "type": "uint256"
        }
      ],
      "payable": false,
      "stateMutability": "view",
      "type": "function"
    },
    {
      "constant": false,
      "inputs": [
        {
          "name": "_amount",
          "type": "uint256"
        }
      ],
      "name": "setMaxTransfer",
      "outputs": [
        {
          "name": "",
          "type": "bool"
        }
      ],
      "payable": false,
      "stateMutability": "nonpayable",
      "type": "function"
    },
    {
      "constant": true,
      "inputs": [],
      "name": "queryQuotas",
      "outputs": [
        {
          "name": "",
          "type": "uint256"
        },
        {
          "name": "",
          "type": "uint256"
        }
      ],
      "payable": false,
      "stateMutability": "view",
      "type": "function"
    },
    {
      "constant": true,
      "inputs": [
        {
          "name": "",
          "type": "uint256"
        }
      ],
      "name": "spenders",
      "outputs": [
        {
          "name": "",
          "type": "address"
        }
      ],
      "payable": false,
      "stateMutability": "view",
      "type": "function"
    },
    {
      "constant": true,
      "inputs": [],
      "name": "owner",
      "outputs": [
        {
          "name": "",
          "type": "address"
        }
      ],
      "payable": false,
      "stateMutability": "view",
      "type": "function"
    },
    {
      "constant": true,
      "inputs": [
        {
          "name": "_idx",
          "type": "uint256"
        }
      ],
      "name": "querySpender",
      "outputs": [
        {
          "name": "",
          "type": "address"
        }
      ],
      "payable": false,
      "stateMutability": "view",
      "type": "function"
    },
    {
      "constant": false,
      "inputs": [
        {
          "name": "to",
          "type": "address"
        },
        {
          "name": "value",
          "type": "uint256"
        }
      ],
      "name": "transfer",
      "outputs": [
        {
          "name": "",
          "type": "bool"
        }
      ],
      "payable": false,
      "stateMutability": "nonpayable",
      "type": "function"
    },
    {
      "constant": false,
      "inputs": [
        {
          "name": "_memberCtrAddr",
          "type": "address"
        }
      ],
      "name": "setMemberCtrAddr",
      "outputs": [
        {
          "name": "",
          "type": "bool"
        }
      ],
      "payable": false,
      "stateMutability": "nonpayable",
      "type": "function"
    },
    {
      "constant": false,
      "inputs": [
        {
          "name": "_newAddr",
          "type": "address"
        },
        {
          "name": "_idx",
          "type": "uint8"
        }
      ],
      "name": "addManager",
      "outputs": [
        {
          "name": "",
          "type": "bool"
        }
      ],
      "payable": false,
      "stateMutability": "nonpayable",
      "type": "function"
    },
    {
      "constant": true,
      "inputs": [],
      "name": "minHoldingsToTransfer",
      "outputs": [
        {
          "name": "",
          "type": "uint256"
        }
      ],
      "payable": false,
      "stateMutability": "view",
      "type": "function"
    },
    {
      "constant": true,
      "inputs": [
        {
          "name": "",
          "type": "uint256"
        }
      ],
      "name": "mining",
      "outputs": [
        {
          "name": "",
          "type": "address"
        }
      ],
      "payable": false,
      "stateMutability": "view",
      "type": "function"
    },
    {
      "constant": true,
      "inputs": [
        {
          "name": "_owner",
          "type": "address"
        },
        {
          "name": "_spender",
          "type": "address"
        }
      ],
      "name": "allowance",
      "outputs": [
        {
          "name": "",
          "type": "uint256"
        }
      ],
      "payable": false,
      "stateMutability": "view",
      "type": "function"
    },
    {
      "constant": true,
      "inputs": [],
      "name": "maxTransfer",
      "outputs": [
        {
          "name": "",
          "type": "uint256"
        }
      ],
      "payable": false,
      "stateMutability": "view",
      "type": "function"
    },
    {
      "constant": false,
      "inputs": [
        {
          "name": "_amount",
          "type": "uint256"
        }
      ],
      "name": "setMinHoldingsToTransfer",
      "outputs": [
        {
          "name": "",
          "type": "bool"
        }
      ],
      "payable": false,
      "stateMutability": "nonpayable",
      "type": "function"
    },
    {
      "inputs": [],
      "payable": false,
      "stateMutability": "nonpayable",
      "type": "constructor"
    },
    {
      "anonymous": false,
      "inputs": [
        {
          "indexed": true,
          "name": "owner",
          "type": "address"
        },
        {
          "indexed": true,
          "name": "spender",
          "type": "address"
        },
        {
          "indexed": false,
          "name": "value",
          "type": "uint256"
        }
      ],
      "name": "Approval",
      "type": "event"
    },
    {
      "anonymous": false,
      "inputs": [
        {
          "indexed": true,
          "name": "from",
          "type": "address"
        },
        {
          "indexed": true,
          "name": "to",
          "type": "address"
        },
        {
          "indexed": false,
          "name": "value",
          "type": "uint256"
        }
      ],
      "name": "Transfer",
      "type": "event"
    },
    {
      "constant": true,
      "inputs": [],
      "name": "symbol",
      "outputs": [
        {
          "name": "",
          "type": "string"
        }
      ],
      "payable": false,
      "stateMutability": "view",
      "type": "function"
    },
    {
      "constant": true,
      "inputs": [],
      "name": "decimals",
      "outputs": [
        {
          "name": "",
          "type": "uint8"
        }
      ],
      "payable": false,
      "stateMutability": "view",
      "type": "function"
    },
    {
      "constant": false,
      "inputs": [
        {
          "name": "_mining",
          "type": "address"
        },
        {
          "name": "_idx",
          "type": "uint256"
        }
      ],
      "name": "setMining",
      "outputs": [
        {
          "name": "",
          "type": "bool"
        }
      ],
      "payable": false,
      "stateMutability": "nonpayable",
      "type": "function"
    },
    {
      "constant": true,
      "inputs": [
        {
          "name": "_idx",
          "type": "uint256"
        }
      ],
      "name": "queryMining",
      "outputs": [
        {
          "name": "",
          "type": "address"
        }
      ],
      "payable": false,
      "stateMutability": "view",
      "type": "function"
    },
    {
      "constant": true,
      "inputs": [],
      "name": "isMining",
      "outputs": [
        {
          "name": "",
          "type": "bool"
        }
      ],
      "payable": false,
      "stateMutability": "view",
      "type": "function"
    },
    {
      "constant": false,
      "inputs": [
        {
          "name": "toAddress",
          "type": "address"
        },
        {
          "name": "_amount",
          "type": "uint256"
        }
      ],
      "name": "mint",
      "outputs": [
        {
          "name": "",
          "type": "bool"
        }
      ],
      "payable": false,
      "stateMutability": "nonpayable",
      "type": "function"
    },
    {
      "constant": false,
      "inputs": [
        {
          "name": "amount",
          "type": "uint256"
        }
      ],
      "name": "burn",
      "outputs": [
        {
          "name": "",
          "type": "bool"
        }
      ],
      "payable": false,
      "stateMutability": "nonpayable",
      "type": "function"
    }
  ],
  "bytecode": "0x6113886013556109c460145560c0604052600360808190527f514f54000000000000000000000000000000000000000000000000000000000060a09081526200004c9160189190620002c2565b506019805460ff1916600c17905569152d02c7e14af6800000601a553480156200007557600080fd5b50604080516101008101825273b440ea2780614b3c6a00e512f432785e7dfafa3e8152734ad56641c569c91c64c28a904cda50ae5326da41602082015273af7400787c54422be8b44154b1273661f1259ccd918101919091526000606082018190526080820181905260a0820181905260c0820181905260e08201526200010190600390600862000347565b506040805161010081018252600080825260208201819052918101829052606081018290526080810182905260a0810182905260c0810182905260e08101919091526200015390600b90600862000347565b50601b8054600160a060020a03191633179055670432b225b48e4000601755601560205267016345785d8a00007f19806ca7292f1af60b1d50fc088649ba97c330837138cc8ca4d7f9350dcfc2fb8190557f8ded8cc7913ea77cfc97e7f098f84037eaf7d1993f0b8e7b352e30fe760899ba8190557f553a1a3370d14e94b8612cd7ba0e60b4d5509b3b9258239ba8cfdec14dad876f556601c6bf526340007face9db2ec410152539579c69714bbd8c7f9bd505789fc14b58aa268a74b368b38190557fac3f40c17e6b8a91b791cc88c240a3b892367d3116840c4eff250bceab11d46c8190557f981f883c8fc27a9f60b739635660d219c954444b1e99700b6a7fbffd7e0b0a858190557fa92b5aa21d409bec87d1c486ced82e7fd2bd8947386962188422e26ed1d79ed181905573a87e88df1dd3a1862acf87e6c57fdcd8f7db17166000527f1991e57e0868a6c45e2e4370e7e37d0d578bd9ef6ff4d028d13d201a964aa2a455620003e7565b828054600181600116156101000203166002900490600052602060002090601f016020900481019282601f106200030557805160ff191683800117855562000335565b8280016001018555821562000335579182015b828111156200033557825182559160200191906001019062000318565b5062000343929150620003a0565b5090565b826008810192821562000392579160200282015b82811115620003925782518254600160a060020a031916600160a060020a039091161782556020909201916001909101906200035b565b5062000343929150620003c0565b620003bd91905b80821115620003435760008155600101620003a7565b90565b620003bd91905b8082111562000343578054600160a060020a0319168155600101620003c7565b6111bb80620003f76000396000f3fe608060405234801561001057600080fd5b5060043610610202576000357c010000000000000000000000000000000000000000000000000000000090048063466045511161012c578063a9059cbb116100bf578063d7dd41f21161008e578063d7dd41f2146105a0578063dd62ed3e146105bd578063ed233ee9146105eb578063f3393400146105f357610202565b8063a9059cbb14610517578063b8464efb14610543578063b89e367f14610569578063ccf390361461059857610202565b806387cab37e116100fb57806387cab37e146104585780638da5cb5b1461047557806395d89b411461047d5780639df9c327146104fa57610202565b806346604551146103d757806370a08231146103f457806377348de91461041a5780637f28a4011461043757610202565b806323b872dd116101a45780633d39c260116101735780633d39c2601461035457806340c10f191461037157806341e2ee291461039d57806342966c68146103ba57610202565b806323b872dd146102d45780632c20bdd71461030a578063313ce5671461032e57806338d59ea71461034c57610202565b806318c9bc9c116101e057806318c9bc9c1461028d57806319a74ab3146102bc5780631b0079cd146102c457806322f4596f146102cc57610202565b8063095ea7b3146102075780631163cf0e1461024757806318160ddd14610273575b600080fd5b6102336004803603604081101561021d57600080fd5b50600160a060020a038135169060200135610610565b604080519115158252519081900360200190f35b6102336004803603604081101561025d57600080fd5b50600160a060020a0381351690602001356106b2565b61027b61071c565b60408051918252519081900360200190f35b610233600480360360408110156102a357600080fd5b508035600160a060020a0316906020013560ff16610722565b610233610749565b61027b6108d9565b61027b6108df565b610233600480360360608110156102ea57600080fd5b50600160a060020a038135811691602081013590911690604001356108e5565b610312610a23565b60408051600160a060020a039092168252519081900360200190f35b610336610a32565b6040805160ff9092168252519081900360200190f35b61027b610a3b565b6103126004803603602081101561036a57600080fd5b5035610a41565b6102336004803603604081101561038757600080fd5b50600160a060020a038135169060200135610a5e565b610312600480360360208110156103b357600080fd5b5035610c2f565b610233600480360360208110156103d057600080fd5b5035610c51565b610312600480360360208110156103ed57600080fd5b5035610c93565b61027b6004803603602081101561040a57600080fd5b5035600160a060020a0316610ca2565b6102336004803603602081101561043057600080fd5b5035610cbd565b61043f610cdc565b6040805192835260208301919091528051918290030190f35b6103126004803603602081101561046e57600080fd5b5035610ce6565b610312610cf3565b610485610d02565b6040805160208082528351818301528351919283929083019185019080838360005b838110156104bf5781810151838201526020016104a7565b50505050905090810190601f1680156104ec5780820380516001836020036101000a031916815260200191505b509250505060405180910390f35b6103126004803603602081101561051057600080fd5b5035610d98565b6102336004803603604081101561052d57600080fd5b50600160a060020a038135169060200135610da7565b6102336004803603602081101561055957600080fd5b5035600160a060020a0316610ece565b6102336004803603604081101561057f57600080fd5b508035600160a060020a0316906020013560ff16610f1a565b61027b610f51565b610312600480360360208110156105b657600080fd5b5035610f57565b61027b600480360360408110156105d357600080fd5b50600160a060020a0381358116916020013516610f64565b61027b610f8f565b6102336004803603602081101561060957600080fd5b5035610f95565b6000600160a060020a038316151561062757600080fd5b61063083610fb4565b8061063f575061063f836110a0565b151561064a57600080fd5b336000818152601660209081526040808320600160a060020a03881680855290835292819020869055805186815290519293927f8c5be1e5ebec7d5bd14f71427d1e84f3dd0314c0f7b2291e5b200ac8c7c3b925929181900390910190a35060015b92915050565b601b54600090600160a060020a031633146106cc57600080fd5b601082106106d957600080fd5b82601c83601081106106e757fe5b01805473ffffffffffffffffffffffffffffffffffffffff1916600160a060020a039290921691909117905550600192915050565b60175481565b600061072d33610fb4565b151561073857600080fd5b82600b60ff8416600881106106e757fe5b600033151561075a575060006108d6565b601c60000154600160a060020a03163314806107835750601c60010154600160a060020a031633145b8061079b5750601c60020154600160a060020a031633145b806107b35750601c60030154600160a060020a031633145b806107cb5750601c60040154600160a060020a031633145b806107e35750601c60050154600160a060020a031633145b806107fb5750601c60060154600160a060020a031633145b806108135750601c60070154600160a060020a031633145b8061082b5750601c60080154600160a060020a031633145b806108435750601c60090154600160a060020a031633145b8061085b5750601c600a0154600160a060020a031633145b806108735750601c600b0154600160a060020a031633145b8061088b5750601c600c0154600160a060020a031633145b806108a35750601c600d0154600160a060020a031633145b806108bb5750601c600e0154600160a060020a031633145b806108d35750601c600f0154600160a060020a031633145b90505b90565b60145490565b601a5481565b600160a060020a038316600090815260166020908152604080832033845290915281205482111561091557600080fd5b600160a060020a03841660009081526015602052604090205482111561093a57600080fd5b600160a060020a038316151561094f57600080fd5b61095833610fb4565b806109675750610967336110a0565b151561097257600080fd5b33600090815260156020526040902054610992908363ffffffff61116a16565b3360009081526015602052604080822092909255600160a060020a038516815220546109c4908363ffffffff61117f16565b600160a060020a0384166000818152601560209081526040918290209390935580518581529051919233927fddf252ad1be2c89b69c2b068fc378daa952ba7f163c4a11628f55a4df523b3ef9281900390910190a35060019392505050565b600254600160a060020a031681565b60195460ff1690565b60135490565b60038160088110610a4e57fe5b0154600160a060020a0316905081565b6000331515610a6c57600080fd5b601c60000154600160a060020a0316331480610a955750601c60010154600160a060020a031633145b80610aad5750601c60020154600160a060020a031633145b80610ac55750601c60030154600160a060020a031633145b80610add5750601c60040154600160a060020a031633145b80610af55750601c60050154600160a060020a031633145b80610b0d5750601c60060154600160a060020a031633145b80610b255750601c60070154600160a060020a031633145b80610b3d5750601c60080154600160a060020a031633145b80610b555750601c60090154600160a060020a031633145b80610b6d5750601c600a0154600160a060020a031633145b80610b855750601c600b0154600160a060020a031633145b80610b9d5750601c600c0154600160a060020a031633145b80610bb55750601c600d0154600160a060020a031633145b80610bcd5750601c600e0154600160a060020a031633145b80610be55750601c600f0154600160a060020a031633145b1515610bf057600080fd5b601a5460175410610c0057600080fd5b50600160a060020a03821660009081526015602052604090208054820190556017805482019055600192915050565b600060038260088110610c3e57fe5b0154600160a060020a031690505b919050565b33600090815260156020526040812054821115610c6d57600080fd5b503360009081526015602052604090208054829003905560178054919091039055600190565b6000601c8260108110610c3e57fe5b600160a060020a031660009081526015602052604090205490565b6000610cc833610fb4565b1515610cd357600080fd5b50601455600190565b6013546014549091565b600b8160088110610a4e57fe5b601b54600160a060020a031681565b60188054604080516020601f6002600019610100600188161502019095169490940493840181900481028201810190925282815260609390929091830182828015610d8e5780601f10610d6357610100808354040283529160200191610d8e565b820191906000526020600020905b815481529060010190602001808311610d7157829003601f168201915b5050505050905090565b6000600b8260088110610c3e57fe5b33600090815260156020526040812054821115610dc357600080fd5b600160a060020a0383161515610dd857600080fd5b610de133610fb4565b80610e135750610def610a3b565b33600090815260156020526040902054118015610e135750610e0f6108d9565b8211155b1515610e1e57600080fd5b33600090815260156020526040902054610e3e908363ffffffff61116a16565b3360009081526015602052604080822092909255600160a060020a03851681522054610e70908363ffffffff61117f16565b600160a060020a0384166000818152601560209081526040918290209390935580518581529051919233927fddf252ad1be2c89b69c2b068fc378daa952ba7f163c4a11628f55a4df523b3ef9281900390910190a350600192915050565b601b54600090600160a060020a03163314610ee857600080fd5b5060028054600160a060020a03831673ffffffffffffffffffffffffffffffffffffffff199091161790556001919050565b6000610f2533610fb4565b1515610f3057600080fd5b600360ff831611610f4057600080fd5b82600360ff8416600881106106e757fe5b60135481565b601c8160108110610a4e57fe5b600160a060020a03918216600090815260166020908152604080832093909416825291909152205490565b60145481565b6000610fa033610fb4565b1515610fab57600080fd5b50601355600190565b6000600160a060020a0382161515610fce57506000610c4c565b600354600160a060020a0383811691161480610ff75750600454600160a060020a038381169116145b8061100f5750600554600160a060020a038381169116145b806110275750600654600160a060020a038381169116145b8061103f5750600754600160a060020a038381169116145b806110575750600854600160a060020a038381169116145b8061106f5750600954600160a060020a038381169116145b8061108b5750600360075b0154600160a060020a038381169116145b1561109857506001610c4c565b506000610c4c565b6000600160a060020a03821615156110ba57506000610c4c565b600b54600160a060020a03838116911614806110e35750600c54600160a060020a038381169116145b806110fb5750600d54600160a060020a038381169116145b806111135750600e54600160a060020a038381169116145b8061112b5750600f54600160a060020a038381169116145b806111435750601054600160a060020a038381169116145b8061115b5750601154600160a060020a038381169116145b8061108b5750600b600761107a565b60008282111561117957600080fd5b50900390565b818101828110156106ac57600080fdfea165627a7a72305820fbd254b6d2ba5c7b2d50e8dd99b139a82676ed74c9c3e19d6cc5af27986249f60029",
  "source": "pragma solidity ^0.5.2;\nimport \"./ERC20/tokens/StandardToken.sol\";\n\ncontract QOT is StandardToken {\n    string private _symbol = \"QOT\";\n    uint8 private _decimals = 12;\n    uint256 public _maxSupply = 100000000000000000000000;\n    address public owner;\n    address[16] public mining;\n    // uint256 public reward = 15000000000000;\n\n    modifier ownerOnly() {\n       require(msg.sender == owner);\n       _;\n    }\n\n    // TODO: move miningOnly() and probably some access control to QOTaccessControl.sol?\n    modifier miningOnly() {\n        require(msg.sender != address(0));\n        require(msg.sender == mining[0] || msg.sender == mining[1] || msg.sender == mining[2] ||\n                msg.sender == mining[3] || msg.sender == mining[4] || msg.sender == mining[5] ||\n                msg.sender == mining[6] || msg.sender == mining[7] || msg.sender == mining[8] ||\n                msg.sender == mining[9] || msg.sender == mining[10] || msg.sender == mining[11] ||\n                msg.sender == mining[12] || msg.sender == mining[13] || msg.sender == mining[14] ||\n                msg.sender == mining[15]);\n        _;\n    }\n\n    constructor() public {\n       owner = msg.sender;\n       totalSupply = 302500000000000000;\n       _balances[0xB440ea2780614b3c6a00e512f432785E7dfAFA3E] = 100000000000000000;  // J\n       _balances[0x4AD56641C569C91C64C28a904cda50AE5326Da41] = 100000000000000000;  // K\n       _balances[0xaF7400787c54422Be8B44154B1273661f1259CcD] = 100000000000000000;  // L\n\n       _balances[0xbb3Ac1Ef7Ae6A4a893429a60423F7c9AcdCb02aD] = 500000000000000;  // J\n       _balances[0x89a3203156e4B756d58b6f32dB94249992d4d384] = 500000000000000;  // J\n       _balances[0xf053b7f56bEfFBf660bBf81a7fd98880F1F550e7] = 500000000000000;  // J\n       _balances[0x1B27DdcCB19A3706c6c44465B508cf905EeB4c62] = 500000000000000;  // K\n       _balances[0xa87e88dF1dd3A1862ACf87E6c57FDCd8f7dB1716] = 500000000000000;  // K\n\n    }\n\n    function symbol() public view returns (string memory){\n        return _symbol;\n    }\n\n    function decimals() public view returns (uint8){\n        return _decimals;\n    }\n\n    // TODO: Making mining contract upgradable while limit owner from changing this arbitrarily\n    function setMining(address _mining, uint _idx) ownerOnly external returns (bool) {\n        require(_idx < 16);\n\tmining[_idx] = _mining;\n\treturn true;\n    }\n\n    function queryMining(uint _idx) external view returns(address) {\n        return mining[_idx];\n    }\n\n    function isMining() external view returns(bool){\n        if (msg.sender == address(0)){\n            return false;\n        } else {\n            return(msg.sender == mining[0] || msg.sender == mining[1] || msg.sender == mining[2] ||\n                    msg.sender == mining[3] || msg.sender == mining[4] || msg.sender == mining[5] ||\n                    msg.sender == mining[6] || msg.sender == mining[7] || msg.sender == mining[8] ||\n                    msg.sender == mining[9] || msg.sender == mining[10] || msg.sender == mining[11] ||\n                    msg.sender == mining[12] || msg.sender == mining[13] || msg.sender == mining[14] ||\n                    msg.sender == mining[15]);\n        }\n    }\n\n    function mint(address toAddress, uint _amount) miningOnly external returns (bool) {\n        // assume verified by the mining() function\n\trequire(totalSupply < _maxSupply);\n\t_balances[toAddress] += _amount;\n\ttotalSupply += _amount;\n\treturn true;\n    }\n\n    function burn(uint256 amount) external returns (bool) {\n\trequire(_balances[msg.sender] >= amount);\n\t_balances[msg.sender] -= amount;\n\ttotalSupply -= amount;\n\n\treturn true;\n    }\n}\n",
  "sourcePath": "/home/kai/Work/project/OptractContract/contracts/QOT.sol",
  "compiler": {
    "name": "solc",
    "version": "0.5.2+commit.1df8f40c.Linux.g++"
  },
  "schemaVersion": "3.0.16",
  "updatedAt": "2019-10-25T15:30:53.600Z",
  "devdoc": {
    "methods": {
      "allowance(address,address)": {
        "details": "Function to check the amount of tokens that an owner allowed to a spender.",
        "params": {
          "_owner": "address The address which owns the funds.",
          "_spender": "address The address which will spend the funds."
        },
        "return": "A uint256 specifying the amount of tokens still available for the spender."
      },
      "approve(address,uint256)": {
        "details": "Approve the passed address to spend the specified amount of tokens on behalf of msg.sender. Beware that changing an allowance with this method brings the risk that someone may use both the old and the new allowance by unfortunate transaction ordering. One possible solution to mitigate this race condition is to first reduce the spender's allowance to 0 and set the desired value afterwards: https://github.com/ethereum/EIPs/issues/20#issuecomment-263524729",
        "params": {
          "spender": "The address which will spend the funds.",
          "value": "The amount of tokens to be spent."
        }
      },
      "balanceOf(address)": {
        "details": "Gets the balance of the specified address.",
        "params": {
          "_owner": "The address to query the balance of."
        },
        "return": "An uint256 representing the amount owned by the passed address."
      },
      "transfer(address,uint256)": {
        "details": "Transfer token for a specified address",
        "params": {
          "to": "The address to transfer to.",
          "value": "The amount to be transferred."
        }
      }
    }
  },
  "userdoc": {
    "methods": {}
  }
}